Component: ARM Compiler 5.06 update 7 (build 960) Tool: armlink [4d3601]

==============================================================================

Section Cross References

    main.o(i.SystemClock_Config) refers to memseta.o(.text) for __aeabi_memclr4
    main.o(i.SystemClock_Config) refers to stm32g4xx_hal_pwr_ex.o(i.HAL_PWREx_ControlVoltageScaling) for HAL_PWREx_ControlVoltageScaling
    main.o(i.SystemClock_Config) refers to stm32g4xx_hal_rcc.o(i.HAL_RCC_OscConfig) for HAL_RCC_OscConfig
    main.o(i.SystemClock_Config) refers to stm32g4xx_hal_rcc.o(i.HAL_RCC_ClockConfig) for HAL_RCC_ClockConfig
    main.o(i.main) refers to stm32g4xx_hal.o(i.HAL_Init) for HAL_Init
    main.o(i.main) refers to main.o(i.SystemClock_Config) for SystemClock_Config
    main.o(i.main) refers to gpio.o(i.MX_GPIO_Init) for MX_GPIO_Init
    main.o(i.main) refers to tim.o(i.MX_TIM2_Init) for MX_TIM2_Init
    main.o(i.main) refers to tim.o(i.MX_TIM6_Init) for MX_TIM6_Init
    main.o(i.main) refers to usart.o(i.MX_USART1_UART_Init) for MX_USART1_UART_Init
    main.o(i.main) refers to lcd.o(i.LCD_Init) for LCD_Init
    main.o(i.main) refers to i2c_hal.o(i.I2CInit) for I2CInit
    main.o(i.main) refers to stm32g4xx_hal_tim.o(i.HAL_TIM_Base_Start_IT) for HAL_TIM_Base_Start_IT
    main.o(i.main) refers to stm32g4xx_hal_tim.o(i.HAL_TIM_PWM_Start) for HAL_TIM_PWM_Start
    main.o(i.main) refers to stm32g4xx_hal_uart.o(i.HAL_UART_Receive_IT) for HAL_UART_Receive_IT
    main.o(i.main) refers to lcd.o(i.LCD_Clear) for LCD_Clear
    main.o(i.main) refers to lcd.o(i.LCD_SetTextColor) for LCD_SetTextColor
    main.o(i.main) refers to lcd.o(i.LCD_SetBackColor) for LCD_SetBackColor
==============================================================================

Removing Unused input sections from the image.

    Removing main.o(.rev16_text), (4 bytes).
    Removing main.o(.revsh_text), (4 bytes).
    Removing main.o(.rrx_text), (6 bytes).
    Removing gpio.o(.rev16_text), (4 bytes).
    Removing gpio.o(.revsh_text), (4 bytes).
    Removing gpio.o(.rrx_text), (6 bytes).
    Removing tim.o(.rev16_text), (4 bytes).
    Removing tim.o(.revsh_text), (4 bytes).
    Removing tim.o(.rrx_text), (6 bytes).
    Removing tim.o(i.HAL_TIM_Base_MspDeInit), (48 bytes).
    Removing usart.o(.rev16_text), (4 bytes).
    Removing usart.o(.revsh_text), (4 bytes).
    Removing usart.o(.rrx_text), (6 bytes).
    Removing usart.o(i.HAL_UART_MspDeInit), (52 bytes).
    Removing stm32g4xx_it.o(.rev16_text), (4 bytes).
    Removing stm32g4xx_it.o(.revsh_text), (4 bytes).
    Removing stm32g4xx_it.o(.rrx_text), (6 bytes).
    Removing stm32g4xx_hal_msp.o(.rev16_text), (4 bytes).
==============================================================================

Image Symbol Table

    Local Symbols

    Symbol Name                              Value     Ov Type        Size  Object(Section)

    ../Core/Src/gpio.c                       0x00000000   Number         0  gpio.o ABSOLUTE
    ../Core/Src/main.c                       0x00000000   Number         0  main.o ABSOLUTE
    ../Core/Src/stm32g4xx_hal_msp.c          0x00000000   Number         0  stm32g4xx_hal_msp.o ABSOLUTE
    ../Core/Src/stm32g4xx_it.c               0x00000000   Number         0  stm32g4xx_it.o ABSOLUTE
    ../Core/Src/system_stm32g4xx.c           0x00000000   Number         0  system_stm32g4xx.o ABSOLUTE
    ../Core/Src/tim.c                        0x00000000   Number         0  tim.o ABSOLUTE
    ../Core/Src/usart.c                      0x00000000   Number         0  usart.o ABSOLUTE
    ../Drivers/STM32G4xx_HAL_Driver/Src/stm32g4xx_hal.c 0x00000000   Number         0  stm32g4xx_hal.o ABSOLUTE
    ../Drivers/STM32G4xx_HAL_Driver/Src/stm32g4xx_hal_cortex.c 0x00000000   Number         0  stm32g4xx_hal_cortex.o ABSOLUTE
    ../Drivers/STM32G4xx_HAL_Driver/Src/stm32g4xx_hal_dma.c 0x00000000   Number         0  stm32g4xx_hal_dma.o ABSOLUTE
    ../Drivers/STM32G4xx_HAL_Driver/Src/stm32g4xx_hal_dma_ex.c 0x00000000   Number         0  stm32g4xx_hal_dma_ex.o ABSOLUTE
    ../Drivers/STM32G4xx_HAL_Driver/Src/stm32g4xx_hal_exti.c 0x00000000   Number         0  stm32g4xx_hal_exti.o ABSOLUTE
    ../Drivers/STM32G4xx_HAL_Driver/Src/stm32g4xx_hal_flash.c 0x00000000   Number         0  stm32g4xx_hal_flash.o ABSOLUTE
    ../Drivers/STM32G4xx_HAL_Driver/Src/stm32g4xx_hal_flash_ex.c 0x00000000   Number         0  stm32g4xx_hal_flash_ex.o ABSOLUTE
    ../Drivers/STM32G4xx_HAL_Driver/Src/stm32g4xx_hal_flash_ramfunc.c 0x00000000   Number         0  stm32g4xx_hal_flash_ramfunc.o ABSOLUTE
    ../Drivers/STM32G4xx_HAL_Driver/Src/stm32g4xx_hal_gpio.c 0x00000000   Number         0  stm32g4xx_hal_gpio.o ABSOLUTE
    ../Drivers/STM32G4xx_HAL_Driver/Src/stm32g4xx_hal_pwr.c 0x00000000   Number         0  stm32g4xx_hal_pwr.o ABSOLUTE
    ../Drivers/STM32G4xx_HAL_Driver/Src/stm32g4xx_hal_pwr_ex.c 0x00000000   Number         0  stm32g4xx_hal_pwr_ex.o ABSOLUTE
    ../Drivers/STM32G4xx_HAL_Driver/Src/stm32g4xx_hal_rcc.c 0x00000000   Number         0  stm32g4xx_hal_rcc.o ABSOLUTE
    ../Drivers/STM32G4xx_HAL_Driver/Src/stm32g4xx_hal_rcc_ex.c 0x00000000   Number         0  stm32g4xx_hal_rcc_ex.o ABSOLUTE
    ../Drivers/STM32G4xx_HAL_Driver/Src/stm32g4xx_hal_tim.c 0x00000000   Number         0  stm32g4xx_hal_tim.o ABSOLUTE
    ../Drivers/STM32G4xx_HAL_Driver/Src/stm32g4xx_hal_tim_ex.c 0x00000000   Number         0  stm32g4xx_hal_tim_ex.o ABSOLUTE
    ../Drivers/STM32G4xx_HAL_Driver/Src/stm32g4xx_hal_uart.c 0x00000000   Number         0  stm32g4xx_hal_uart.o ABSOLUTE
    ../Drivers/STM32G4xx_HAL_Driver/Src/stm32g4xx_hal_uart_ex.c 0x00000000   Number         0  stm32g4xx_hal_uart_ex.o ABSOLUTE
    ../clib/microlib/division.c              0x00000000   Number         0  uidiv.o ABSOLUTE
    ../clib/microlib/division.c              0x00000000   Number         0  uldiv.o ABSOLUTE
    ../clib/microlib/init/entry.s            0x00000000   Number         0  entry10b.o ABSOLUTE
    ../clib/microlib/init/entry.s            0x00000000   Number         0  entry2.o ABSOLUTE
    ../clib/microlib/init/entry.s            0x00000000   Number         0  entry12b.o ABSOLUTE
    ../clib/microlib/init/entry.s            0x00000000   Number         0  entry.o ABSOLUTE
    ../clib/microlib/init/entry.s            0x00000000   Number         0  entry12a.o ABSOLUTE
    ../clib/microlib/init/entry.s            0x00000000   Number         0  entry8a.o ABSOLUTE
    ../clib/microlib/init/entry.s            0x00000000   Number         0  entry11b.o ABSOLUTE
    ../clib/microlib/init/entry.s            0x00000000   Number         0  entry11a.o ABSOLUTE
    ../clib/microlib/init/entry.s            0x00000000   Number         0  entry7a.o ABSOLUTE
    ../clib/microlib/init/entry.s            0x00000000   Number         0  entry10a.o ABSOLUTE
    ../clib/microlib/init/entry.s            0x00000000   Number         0  entry9b.o ABSOLUTE
    ../clib/microlib/init/entry.s            0x00000000   Number         0  entry5.o ABSOLUTE
    ../clib/microlib/init/entry.s            0x00000000   Number         0  entry9a.o ABSOLUTE
    ../clib/microlib/init/entry.s            0x00000000   Number         0  entry8b.o ABSOLUTE
    ../clib/microlib/init/entry.s            0x00000000   Number         0  entry7b.o ABSOLUTE
    ../clib/microlib/longlong.c              0x00000000   Number         0  llshl.o ABSOLUTE
    ../clib/microlib/longlong.c              0x00000000   Number         0  llushr.o ABSOLUTE
    ../clib/microlib/longlong.c              0x00000000   Number         0  llsshr.o ABSOLUTE
    ../clib/microlib/printf/printf.c         0x00000000   Number         0  printf4.o ABSOLUTE
    ../clib/microlib/printf/printf.c         0x00000000   Number         0  printf2.o ABSOLUTE
    ../clib/microlib/printf/printf.c         0x00000000   Number         0  printfb.o ABSOLUTE
    ../clib/microlib/printf/printf.c         0x00000000   Number         0  printf6.o ABSOLUTE
    ../clib/microlib/printf/printf.c         0x00000000   Number         0  printf0.o ABSOLUTE
    ../clib/microlib/printf/printf.c         0x00000000   Number         0  printf5.o ABSOLUTE
    ../clib/microlib/printf/printf.c         0x00000000   Number         0  printfa.o ABSOLUTE
    ../clib/microlib/printf/printf.c         0x00000000   Number         0  printf8.o ABSOLUTE
    ../clib/microlib/printf/printf.c         0x00000000   Number         0  printf1.o ABSOLUTE
    ../clib/microlib/printf/printf.c         0x00000000   Number         0  printf3.o ABSOLUTE
    ../clib/microlib/printf/printf.c         0x00000000   Number         0  printf7.o ABSOLUTE
    ../clib/microlib/printf/stubs.s          0x00000000   Number         0  stubs.o ABSOLUTE
    ../clib/microlib/stdio/streams.c         0x00000000   Number         0  stdout.o ABSOLUTE
    ../clib/microlib/string/memset.c         0x00000000   Number         0  memseta.o ABSOLUTE
    ../clib/microlib/stubs.s                 0x00000000   Number         0  iusefp.o ABSOLUTE
    ../fplib/microlib/fpadd.c                0x00000000   Number         0  dadd.o ABSOLUTE
    ../fplib/microlib/fpdiv.c                0x00000000   Number         0  ddiv.o ABSOLUTE
    ../fplib/microlib/fpepilogue.c           0x00000000   Number         0  depilogue.o ABSOLUTE
    ../fplib/microlib/fpfix.c                0x00000000   Number         0  dfixul.o ABSOLUTE
    ../fplib/microlib/fpflt.c                0x00000000   Number         0  dfltui.o ABSOLUTE
    ../fplib/microlib/fpmul.c                0x00000000   Number         0  dmul.o ABSOLUTE
    ..\Core\Src\gpio.c                       0x00000000   Number         0  gpio.o ABSOLUTE
    ..\Core\Src\main.c                       0x00000000   Number         0  main.o ABSOLUTE
    ..\Core\Src\stm32g4xx_hal_msp.c          0x00000000   Number         0  stm32g4xx_hal_msp.o ABSOLUTE
    ..\Core\Src\stm32g4xx_it.c               0x00000000   Number         0  stm32g4xx_it.o ABSOLUTE
    ..\Core\Src\system_stm32g4xx.c           0x00000000   Number         0  system_stm32g4xx.o ABSOLUTE
    ..\Core\Src\tim.c                        0x00000000   Number         0  tim.o ABSOLUTE
    ..\Core\Src\usart.c                      0x00000000   Number         0  usart.o ABSOLUTE
    ..\Drivers\STM32G4xx_HAL_Driver\Src\stm32g4xx_hal.c 0x00000000   Number         0  stm32g4xx_hal.o ABSOLUTE
    ..\Drivers\STM32G4xx_HAL_Driver\Src\stm32g4xx_hal_cortex.c 0x00000000   Number         0  stm32g4xx_hal_cortex.o ABSOLUTE
    ..\Drivers\STM32G4xx_HAL_Driver\Src\stm32g4xx_hal_dma.c 0x00000000   Number         0  stm32g4xx_hal_dma.o ABSOLUTE
    ..\Drivers\STM32G4xx_HAL_Driver\Src\stm32g4xx_hal_dma_ex.c 0x00000000   Number         0  stm32g4xx_hal_dma_ex.o ABSOLUTE
    ..\Drivers\STM32G4xx_HAL_Driver\Src\stm32g4xx_hal_exti.c 0x00000000   Number         0  stm32g4xx_hal_exti.o ABSOLUTE
    ..\Drivers\STM32G4xx_HAL_Driver\Src\stm32g4xx_hal_flash.c 0x00000000   Number         0  stm32g4xx_hal_flash.o ABSOLUTE
    ..\Drivers\STM32G4xx_HAL_Driver\Src\stm32g4xx_hal_flash_ex.c 0x00000000   Number         0  stm32g4xx_hal_flash_ex.o ABSOLUTE
    ..\Drivers\STM32G4xx_HAL_Driver\Src\stm32g4xx_hal_flash_ramfunc.c 0x00000000   Number         0  stm32g4xx_hal_flash_ramfunc.o ABSOLUTE
    ..\Drivers\STM32G4xx_HAL_Driver\Src\stm32g4xx_hal_gpio.c 0x00000000   Number         0  stm32g4xx_hal_gpio.o ABSOLUTE
    ..\Drivers\STM32G4xx_HAL_Driver\Src\stm32g4xx_hal_pwr.c 0x00000000   Number         0  stm32g4xx_hal_pwr.o ABSOLUTE
    ..\Drivers\STM32G4xx_HAL_Driver\Src\stm32g4xx_hal_pwr_ex.c 0x00000000   Number         0  stm32g4xx_hal_pwr_ex.o ABSOLUTE
    ..\Drivers\STM32G4xx_HAL_Driver\Src\stm32g4xx_hal_rcc.c 0x00000000   Number         0  stm32g4xx_hal_rcc.o ABSOLUTE
    ..\Drivers\STM32G4xx_HAL_Driver\Src\stm32g4xx_hal_rcc_ex.c 0x00000000   Number         0  stm32g4xx_hal_rcc_ex.o ABSOLUTE
    ..\Drivers\STM32G4xx_HAL_Driver\Src\stm32g4xx_hal_tim.c 0x00000000   Number         0  stm32g4xx_hal_tim.o ABSOLUTE
    ..\Drivers\STM32G4xx_HAL_Driver\Src\stm32g4xx_hal_tim_ex.c 0x00000000   Number         0  stm32g4xx_hal_tim_ex.o ABSOLUTE
    ..\Drivers\STM32G4xx_HAL_Driver\Src\stm32g4xx_hal_uart.c 0x00000000   Number         0  stm32g4xx_hal_uart.o ABSOLUTE
    ..\Drivers\STM32G4xx_HAL_Driver\Src\stm32g4xx_hal_uart_ex.c 0x00000000   Number         0  stm32g4xx_hal_uart_ex.o ABSOLUTE
    ..\Hardware\Key.c                        0x00000000   Number         0  key.o ABSOLUTE
    ..\Hardware\LED.c                        0x00000000   Number         0  led.o ABSOLUTE
    ..\Hardware\i2c_hal.c                    0x00000000   Number         0  i2c_hal.o ABSOLUTE
    ..\Hardware\lcd.c                        0x00000000   Number         0  lcd.o ABSOLUTE
    ..\User\Task.c                           0x00000000   Number         0  task.o ABSOLUTE
    ..\User\interrupt.c                      0x00000000   Number         0  interrupt.o ABSOLUTE
    ..\\Hardware\\Key.c                      0x00000000   Number         0  key.o ABSOLUTE
    ..\\Hardware\\LED.c                      0x00000000   Number         0  led.o ABSOLUTE
    ..\\Hardware\\i2c_hal.c                  0x00000000   Number         0  i2c_hal.o ABSOLUTE
    ..\\Hardware\\lcd.c                      0x00000000   Number         0  lcd.o ABSOLUTE
    ..\\User\\Task.c                         0x00000000   Number         0  task.o ABSOLUTE
    ..\\User\\interrupt.c                    0x00000000   Number         0  interrupt.o ABSOLUTE
    cdrcmple.s                               0x00000000   Number         0  cdrcmple.o ABSOLUTE
    dc.s                                     0x00000000   Number         0  dc.o ABSOLUTE
    handlers.s                               0x00000000   Number         0  handlers.o ABSOLUTE
    init.s                                   0x00000000   Number         0  init.o ABSOLUTE
    startup_stm32g431xx.s                    0x00000000   Number         0  startup_stm32g431xx.o ABSOLUTE
    RESET                                    0x08000000   Section      472  startup_stm32g431xx.o(RESET)
    .ARM.Collect$$$$00000000                 0x080001d8   Section        0  entry.o(.ARM.Collect$$$$00000000)
    .ARM.Collect$$$$00000001                 0x080001d8   Section        4  entry2.o(.ARM.Collect$$$$00000001)
    .ARM.Collect$$$$00000004                 0x080001dc   Section        4  entry5.o(.ARM.Collect$$$$00000004)
    .ARM.Collect$$$$00000008                 0x080001e0   Section        0  entry7b.o(.ARM.Collect$$$$00000008)
    .ARM.Collect$$$$0000000A                 0x080001e0   Section        0  entry8b.o(.ARM.Collect$$$$0000000A)
    .ARM.Collect$$$$0000000B                 0x080001e0   Section        8  entry9a.o(.ARM.Collect$$$$0000000B)
    .ARM.Collect$$$$0000000E                 0x080001e8   Section        4  entry12b.o(.ARM.Collect$$$$0000000E)
    .ARM.Collect$$$$0000000F                 0x080001ec   Section        0  entry10a.o(.ARM.Collect$$$$0000000F)
    .ARM.Collect$$$$00000011                 0x080001ec   Section        0  entry11a.o(.ARM.Collect$$$$00000011)
    .ARM.Collect$$$$00002712                 0x080001ec   Section        4  entry2.o(.ARM.Collect$$$$00002712)
    __lit__00000000                          0x080001ec   Data           4  entry2.o(.ARM.Collect$$$$00002712)
    .text                                    0x080001f0   Section       36  startup_stm32g431xx.o(.text)
    $v0                                      0x080001f0   Number         0  startup_stm32g431xx.o(.text)
    .text                                    0x08000214   Section        0  uldiv.o(.text)
    .text                                    0x08000276   Section        0  memseta.o(.text)
    .text                                    0x0800029a   Section        0  ddiv.o(.text)
    .text                                    0x08000378   Section        0  dfltui.o(.text)
    .text                                    0x08000392   Section        0  uidiv.o(.text)
    .text                                    0x080003be   Section        0  llshl.o(.text)
    .text                                    0x080003dc   Section        0  llushr.o(.text)
    .text                                    0x080003fc   Section        0  depilogue.o(.text)
    .text                                    0x080003fc   Section        0  iusefp.o(.text)
    .text                                    0x080004b6   Section        0  dadd.o(.text)
    .text                                    0x08000604   Section        0  dmul.o(.text)
    .text                                    0x080006e8   Section        0  dfixul.o(.text)
    .text                                    0x08000718   Section       48  cdrcmple.o(.text)
    .text                                    0x08000748   Section       36  init.o(.text)
    .text                                    0x0800076c   Section        0  llsshr.o(.text)
    i.BusFault_Handler                       0x08000790   Section        0  stm32g4xx_it.o(i.BusFault_Handler)
    i.DebugMon_Handler                       0x08000792   Section        0  stm32g4xx_it.o(i.DebugMon_Handler)
    i.Delay_LCD                              0x08000794   Section        0  lcd.o(i.Delay_LCD)
    i.EEP_Read                               0x080007b0   Section        0  i2c_hal.o(i.EEP_Read)
    i.EEP_Write                              0x080007ec   Section        0  i2c_hal.o(i.EEP_Write)
    i.Error_Handler                          0x0800081c   Section        0  main.o(i.Error_Handler)
    i.HAL_DMA_Abort                          0x08000820   Section        0  stm32g4xx_hal_dma.o(i.HAL_DMA_Abort)
    i.HAL_DMA_Abort_IT                       0x0800088a   Section        0  stm32g4xx_hal_dma.o(i.HAL_DMA_Abort_IT)
    i.HAL_Delay                              0x08000904   Section        0  stm32g4xx_hal.o(i.HAL_Delay)
    i.HAL_GPIO_Init                          0x08000928   Section        0  stm32g4xx_hal_gpio.o(i.HAL_GPIO_Init)
    i.HAL_GPIO_ReadPin                       0x08000b70   Section        0  stm32g4xx_hal_gpio.o(i.HAL_GPIO_ReadPin)
    i.HAL_GPIO_WritePin                      0x08000b7a   Section        0  stm32g4xx_hal_gpio.o(i.HAL_GPIO_WritePin)
    i.HAL_GetTick                            0x08000b84   Section        0  stm32g4xx_hal.o(i.HAL_GetTick)
    i.HAL_IncTick                            0x08000b90   Section        0  stm32g4xx_hal.o(i.HAL_IncTick)
    i.HAL_Init                               0x08000ba0   Section        0  stm32g4xx_hal.o(i.HAL_Init)
    i.HAL_InitTick                           0x08000bc0   Section        0  stm32g4xx_hal.o(i.HAL_InitTick)
    i.HAL_MspInit                            0x08000c04   Section        0  stm32g4xx_hal_msp.o(i.HAL_MspInit)
    i.HAL_NVIC_EnableIRQ                     0x08000c34   Section        0  stm32g4xx_hal_cortex.o(i.HAL_NVIC_EnableIRQ)
    i.HAL_NVIC_SetPriority                   0x08000c50   Section        0  stm32g4xx_hal_cortex.o(i.HAL_NVIC_SetPriority)
    i.HAL_NVIC_SetPriorityGrouping           0x08000c90   Section        0  stm32g4xx_hal_cortex.o(i.HAL_NVIC_SetPriorityGrouping)
    i.HAL_PWREx_ControlVoltageScaling        0x08000cb4   Section        0  stm32g4xx_hal_pwr_ex.o(i.HAL_PWREx_ControlVoltageScaling)
    i.HAL_PWREx_DisableUCPDDeadBattery       0x08000d70   Section        0  stm32g4xx_hal_pwr_ex.o(i.HAL_PWREx_DisableUCPDDeadBattery)
    i.HAL_RCCEx_PeriphCLKConfig              0x08000d80   Section        0  stm32g4xx_hal_rcc_ex.o(i.HAL_RCCEx_PeriphCLKConfig)
    i.HAL_RCC_ClockConfig                    0x08001008   Section        0  stm32g4xx_hal_rcc.o(i.HAL_RCC_ClockConfig)
    i.HAL_RCC_GetPCLK1Freq                   0x080011e4   Section        0  stm32g4xx_hal_rcc.o(i.HAL_RCC_GetPCLK1Freq)
    i.HAL_RCC_GetPCLK2Freq                   0x08001208   Section        0  stm32g4xx_hal_rcc.o(i.HAL_RCC_GetPCLK2Freq)
    i.HAL_RCC_GetSysClockFreq                0x0800122c   Section        0  stm32g4xx_hal_rcc.o(i.HAL_RCC_GetSysClockFreq)
    i.HAL_RCC_OscConfig                      0x0800129c   Section        0  stm32g4xx_hal_rcc.o(i.HAL_RCC_OscConfig)
    i.HAL_SYSTICK_Config                     0x080016a0   Section        0  stm32g4xx_hal_cortex.o(i.HAL_SYSTICK_Config)
    i.HAL_TIMEx_Break2Callback               0x080016c8   Section        0  stm32g4xx_hal_tim_ex.o(i.HAL_TIMEx_Break2Callback)
    i.HAL_TIMEx_BreakCallback                0x080016ca   Section        0  stm32g4xx_hal_tim_ex.o(i.HAL_TIMEx_BreakCallback)
    i.HAL_TIMEx_CommutCallback               0x080016cc   Section        0  stm32g4xx_hal_tim_ex.o(i.HAL_TIMEx_CommutCallback)
    i.HAL_TIMEx_DirectionChangeCallback      0x080016ce   Section        0  stm32g4xx_hal_tim_ex.o(i.HAL_TIMEx_DirectionChangeCallback)
    i.HAL_TIMEx_EncoderIndexCallback         0x080016d0   Section        0  stm32g4xx_hal_tim_ex.o(i.HAL_TIMEx_EncoderIndexCallback)
    i.HAL_TIMEx_IndexErrorCallback           0x080016d2   Section        0  stm32g4xx_hal_tim_ex.o(i.HAL_TIMEx_IndexErrorCallback)
    i.HAL_TIMEx_MasterConfigSynchronization  0x080016d4   Section        0  stm32g4xx_hal_tim_ex.o(i.HAL_TIMEx_MasterConfigSynchronization)
    i.HAL_TIMEx_TransitionErrorCallback      0x08001770   Section        0  stm32g4xx_hal_tim_ex.o(i.HAL_TIMEx_TransitionErrorCallback)
    i.HAL_TIM_Base_Init                      0x08001772   Section        0  stm32g4xx_hal_tim.o(i.HAL_TIM_Base_Init)
    i.HAL_TIM_Base_MspInit                   0x080017d4   Section        0  tim.o(i.HAL_TIM_Base_MspInit)
    i.HAL_TIM_Base_Start_IT                  0x08001824   Section        0  stm32g4xx_hal_tim.o(i.HAL_TIM_Base_Start_IT)
    i.HAL_TIM_ConfigClockSource              0x0800189c   Section        0  stm32g4xx_hal_tim.o(i.HAL_TIM_ConfigClockSource)
    i.HAL_TIM_IC_CaptureCallback             0x0800199c   Section        0  stm32g4xx_hal_tim.o(i.HAL_TIM_IC_CaptureCallback)
    i.HAL_TIM_IRQHandler                     0x0800199e   Section        0  stm32g4xx_hal_tim.o(i.HAL_TIM_IRQHandler)
    i.HAL_TIM_MspPostInit                    0x08001b40   Section        0  tim.o(i.HAL_TIM_MspPostInit)
    i.HAL_TIM_OC_DelayElapsedCallback        0x08001b8c   Section        0  stm32g4xx_hal_tim.o(i.HAL_TIM_OC_DelayElapsedCallback)
    i.HAL_TIM_PWM_ConfigChannel              0x08001b8e   Section        0  stm32g4xx_hal_tim.o(i.HAL_TIM_PWM_ConfigChannel)
    i.HAL_TIM_PWM_Init                       0x08001cb2   Section        0  stm32g4xx_hal_tim.o(i.HAL_TIM_PWM_Init)
    i.HAL_TIM_PWM_MspInit                    0x08001d14   Section        0  stm32g4xx_hal_tim.o(i.HAL_TIM_PWM_MspInit)
    i.HAL_TIM_PWM_PulseFinishedCallback      0x08001d16   Section        0  stm32g4xx_hal_tim.o(i.HAL_TIM_PWM_PulseFinishedCallback)
    i.HAL_TIM_PWM_Start                      0x08001d18   Section        0  stm32g4xx_hal_tim.o(i.HAL_TIM_PWM_Start)
    i.HAL_TIM_PeriodElapsedCallback          0x08001e14   Section        0  interrupt.o(i.HAL_TIM_PeriodElapsedCallback)
    i.HAL_TIM_TriggerCallback                0x08001ec0   Section        0  stm32g4xx_hal_tim.o(i.HAL_TIM_TriggerCallback)
    i.HAL_UARTEx_DisableFifoMode             0x08001ec2   Section        0  stm32g4xx_hal_uart_ex.o(i.HAL_UARTEx_DisableFifoMode)
    i.HAL_UARTEx_RxEventCallback             0x08001f00   Section        0  stm32g4xx_hal_uart.o(i.HAL_UARTEx_RxEventCallback)
    i.HAL_UARTEx_RxFifoFullCallback          0x08001f02   Section        0  stm32g4xx_hal_uart_ex.o(i.HAL_UARTEx_RxFifoFullCallback)
    i.HAL_UARTEx_SetRxFifoThreshold          0x08001f04   Section        0  stm32g4xx_hal_uart_ex.o(i.HAL_UARTEx_SetRxFifoThreshold)
    i.HAL_UARTEx_SetTxFifoThreshold          0x08001f50   Section        0  stm32g4xx_hal_uart_ex.o(i.HAL_UARTEx_SetTxFifoThreshold)
    i.HAL_UARTEx_TxFifoEmptyCallback         0x08001f9c   Section        0  stm32g4xx_hal_uart_ex.o(i.HAL_UARTEx_TxFifoEmptyCallback)
    i.HAL_UARTEx_WakeupCallback              0x08001f9e   Section        0  stm32g4xx_hal_uart_ex.o(i.HAL_UARTEx_WakeupCallback)
    i.HAL_UART_ErrorCallback                 0x08001fa0   Section        0  stm32g4xx_hal_uart.o(i.HAL_UART_ErrorCallback)
    i.HAL_UART_IRQHandler                    0x08001fa4   Section        0  stm32g4xx_hal_uart.o(i.HAL_UART_IRQHandler)
    i.HAL_UART_Init                          0x080022b0   Section        0  stm32g4xx_hal_uart.o(i.HAL_UART_Init)
    i.HAL_UART_MspInit                       0x0800231c   Section        0  usart.o(i.HAL_UART_MspInit)
    i.HAL_UART_Receive_IT                    0x080023a8   Section        0  stm32g4xx_hal_uart.o(i.HAL_UART_Receive_IT)
    i.HAL_UART_RxCpltCallback                0x080023f0   Section        0  interrupt.o(i.HAL_UART_RxCpltCallback)
    i.HAL_UART_Transmit                      0x08002428   Section        0  stm32g4xx_hal_uart.o(i.HAL_UART_Transmit)
    i.HAL_UART_TxCpltCallback                0x080024d6   Section        0  stm32g4xx_hal_uart.o(i.HAL_UART_TxCpltCallback)
    i.HardFault_Handler                      0x080024d8   Section        0  stm32g4xx_it.o(i.HardFault_Handler)
    i.I2CInit                                0x080024dc   Section        0  i2c_hal.o(i.I2CInit)
    i.I2CReceiveByte                         0x08002508   Section        0  i2c_hal.o(i.I2CReceiveByte)
    i.I2CSendAck                             0x08002556   Section        0  i2c_hal.o(i.I2CSendAck)
    i.I2CSendByte                            0x08002586   Section        0  i2c_hal.o(i.I2CSendByte)
    i.I2CSendNotAck                          0x080025d4   Section        0  i2c_hal.o(i.I2CSendNotAck)
    i.I2CStart                               0x08002604   Section        0  i2c_hal.o(i.I2CStart)
    i.I2CStop                                0x0800263a   Section        0  i2c_hal.o(i.I2CStop)
    i.I2CWaitAck                             0x08002670   Section        0  i2c_hal.o(i.I2CWaitAck)
    i.Key_Proc                               0x080026c0   Section        0  task.o(i.Key_Proc)
    i.Key_Read                               0x080027fc   Section        0  key.o(i.Key_Read)
    i.LCD_BusIn                              0x0800283c   Section        0  lcd.o(i.LCD_BusIn)
    i.LCD_BusOut                             0x08002868   Section        0  lcd.o(i.LCD_BusOut)
    i.LCD_Clear                              0x08002898   Section        0  lcd.o(i.LCD_Clear)
    i.LCD_CtrlLinesConfig                    0x080028bc   Section        0  lcd.o(i.LCD_CtrlLinesConfig)
    i.LCD_DisplayChar                        0x0800294c   Section        0  lcd.o(i.LCD_DisplayChar)
    i.LCD_DisplayStringLine                  0x08002964   Section        0  lcd.o(i.LCD_DisplayStringLine)
    i.LCD_DrawChar                           0x08002990   Section        0  lcd.o(i.LCD_DrawChar)
    i.LCD_Init                               0x080029e8   Section        0  lcd.o(i.LCD_Init)
    i.LCD_Proc                               0x08002a1c   Section        0  task.o(i.LCD_Proc)
    i.LCD_ReadReg                            0x08002ba0   Section        0  lcd.o(i.LCD_ReadReg)
    i.LCD_SetBackColor                       0x08002c20   Section        0  lcd.o(i.LCD_SetBackColor)
    i.LCD_SetCursor                          0x08002c30   Section        0  lcd.o(i.LCD_SetCursor)
    i.LCD_SetTextColor                       0x08002c48   Section        0  lcd.o(i.LCD_SetTextColor)
    i.LCD_WriteRAM                           0x08002c58   Section        0  lcd.o(i.LCD_WriteRAM)
    i.LCD_WriteRAM_Prepare                   0x08002cb8   Section        0  lcd.o(i.LCD_WriteRAM_Prepare)
    i.LCD_WriteReg                           0x08002d18   Section        0  lcd.o(i.LCD_WriteReg)
    i.LED_DisPlay                            0x08002d88   Section        0  led.o(i.LED_DisPlay)
    i.LED_Proc                               0x08002de8   Section        0  task.o(i.LED_Proc)
    i.MX_GPIO_Init                           0x08002e18   Section        0  gpio.o(i.MX_GPIO_Init)
    i.MX_TIM2_Init                           0x08002f38   Section        0  tim.o(i.MX_TIM2_Init)
    i.MX_TIM6_Init                           0x08002fd4   Section        0  tim.o(i.MX_TIM6_Init)
    i.MX_USART1_UART_Init                    0x0800301c   Section        0  usart.o(i.MX_USART1_UART_Init)
    i.MemManage_Handler                      0x08003084   Section        0  stm32g4xx_it.o(i.MemManage_Handler)
    i.NMI_Handler                            0x08003086   Section        0  stm32g4xx_it.o(i.NMI_Handler)
    i.PA1_Set_PWM_Duty                       0x08003088   Section        0  interrupt.o(i.PA1_Set_PWM_Duty)
    i.PendSV_Handler                         0x080030a0   Section        0  stm32g4xx_it.o(i.PendSV_Handler)
    i.REG_8230_Init                          0x080030a2   Section        0  lcd.o(i.REG_8230_Init)
    i.REG_932X_Init                          0x080031b4   Section        0  lcd.o(i.REG_932X_Init)
    i.Read_Proc                              0x080033b8   Section        0  task.o(i.Read_Proc)
    i.SCL_Output                             0x08003424   Section        0  i2c_hal.o(i.SCL_Output)
    i.SDA_Input                              0x0800343c   Section        0  i2c_hal.o(i.SDA_Input)
    i.SDA_Input_Mode                         0x08003454   Section        0  i2c_hal.o(i.SDA_Input_Mode)
    i.SDA_Output                             0x08003480   Section        0  i2c_hal.o(i.SDA_Output)
    i.SDA_Output_Mode                        0x08003498   Section        0  i2c_hal.o(i.SDA_Output_Mode)
    i.SVC_Handler                            0x080034c4   Section        0  stm32g4xx_it.o(i.SVC_Handler)
    i.Serial_Proc                            0x080034c8   Section        0  task.o(i.Serial_Proc)
    i.SysTick_Handler                        0x0800357c   Section        0  stm32g4xx_it.o(i.SysTick_Handler)
    i.SystemClock_Config                     0x08003580   Section        0  main.o(i.SystemClock_Config)
    i.SystemInit                             0x080035ec   Section        0  system_stm32g4xx.o(i.SystemInit)
    i.TIM6_DAC_IRQHandler                    0x080035fc   Section        0  stm32g4xx_it.o(i.TIM6_DAC_IRQHandler)
    i.TIM_Base_SetConfig                     0x08003608   Section        0  stm32g4xx_hal_tim.o(i.TIM_Base_SetConfig)
    i.TIM_CCxChannelCmd                      0x080036c4   Section        0  stm32g4xx_hal_tim.o(i.TIM_CCxChannelCmd)
    i.TIM_ETR_SetConfig                      0x080036de   Section        0  stm32g4xx_hal_tim.o(i.TIM_ETR_SetConfig)
    i.TIM_ITRx_SetConfig                     0x080036f4   Section        0  stm32g4xx_hal_tim.o(i.TIM_ITRx_SetConfig)
    TIM_ITRx_SetConfig                       0x080036f5   Thumb Code    16  stm32g4xx_hal_tim.o(i.TIM_ITRx_SetConfig)
    i.TIM_OC1_SetConfig                      0x08003708   Section        0  stm32g4xx_hal_tim.o(i.TIM_OC1_SetConfig)
    TIM_OC1_SetConfig                        0x08003709   Thumb Code   132  stm32g4xx_hal_tim.o(i.TIM_OC1_SetConfig)
    i.TIM_OC2_SetConfig                      0x080037a4   Section        0  stm32g4xx_hal_tim.o(i.TIM_OC2_SetConfig)
    i.TIM_OC3_SetConfig                      0x08003834   Section        0  stm32g4xx_hal_tim.o(i.TIM_OC3_SetConfig)
    TIM_OC3_SetConfig                        0x08003835   Thumb Code   118  stm32g4xx_hal_tim.o(i.TIM_OC3_SetConfig)
    i.TIM_OC4_SetConfig                      0x080038c4   Section        0  stm32g4xx_hal_tim.o(i.TIM_OC4_SetConfig)
    TIM_OC4_SetConfig                        0x080038c5   Thumb Code   120  stm32g4xx_hal_tim.o(i.TIM_OC4_SetConfig)
    i.TIM_OC5_SetConfig                      0x08003954   Section        0  stm32g4xx_hal_tim.o(i.TIM_OC5_SetConfig)
    TIM_OC5_SetConfig                        0x08003955   Thumb Code    86  stm32g4xx_hal_tim.o(i.TIM_OC5_SetConfig)
    i.TIM_OC6_SetConfig                      0x080039c4   Section        0  stm32g4xx_hal_tim.o(i.TIM_OC6_SetConfig)
    TIM_OC6_SetConfig                        0x080039c5   Thumb Code    88  stm32g4xx_hal_tim.o(i.TIM_OC6_SetConfig)
    i.TIM_TI1_ConfigInputStage               0x08003a34   Section        0  stm32g4xx_hal_tim.o(i.TIM_TI1_ConfigInputStage)
    TIM_TI1_ConfigInputStage                 0x08003a35   Thumb Code    34  stm32g4xx_hal_tim.o(i.TIM_TI1_ConfigInputStage)
    i.TIM_TI2_ConfigInputStage               0x08003a56   Section        0  stm32g4xx_hal_tim.o(i.TIM_TI2_ConfigInputStage)
    TIM_TI2_ConfigInputStage                 0x08003a57   Thumb Code    36  stm32g4xx_hal_tim.o(i.TIM_TI2_ConfigInputStage)
    i.UARTEx_SetNbDataToProcess              0x08003a7c   Section        0  stm32g4xx_hal_uart_ex.o(i.UARTEx_SetNbDataToProcess)
    UARTEx_SetNbDataToProcess                0x08003a7d   Thumb Code    62  stm32g4xx_hal_uart_ex.o(i.UARTEx_SetNbDataToProcess)
    i.UART_AdvFeatureConfig                  0x08003ac0   Section        0  stm32g4xx_hal_uart.o(i.UART_AdvFeatureConfig)
    i.UART_CheckIdleState                    0x08003b88   Section        0  stm32g4xx_hal_uart.o(i.UART_CheckIdleState)
    i.UART_DMAAbortOnError                   0x08003c34   Section        0  stm32g4xx_hal_uart.o(i.UART_DMAAbortOnError)
    UART_DMAAbortOnError                     0x08003c35   Thumb Code    20  stm32g4xx_hal_uart.o(i.UART_DMAAbortOnError)
    i.UART_EndRxTransfer                     0x08003c48   Section        0  stm32g4xx_hal_uart.o(i.UART_EndRxTransfer)
    UART_EndRxTransfer                       0x08003c49   Thumb Code    78  stm32g4xx_hal_uart.o(i.UART_EndRxTransfer)
    i.UART_RxISR_16BIT                       0x08003c9c   Section        0  stm32g4xx_hal_uart.o(i.UART_RxISR_16BIT)
    UART_RxISR_16BIT                         0x08003c9d   Thumb Code   196  stm32g4xx_hal_uart.o(i.UART_RxISR_16BIT)
    i.UART_RxISR_16BIT_FIFOEN                0x08003d64   Section        0  stm32g4xx_hal_uart.o(i.UART_RxISR_16BIT_FIFOEN)
    UART_RxISR_16BIT_FIFOEN                  0x08003d65   Thumb Code   404  stm32g4xx_hal_uart.o(i.UART_RxISR_16BIT_FIFOEN)
    i.UART_RxISR_8BIT                        0x08003f04   Section        0  stm32g4xx_hal_uart.o(i.UART_RxISR_8BIT)
    UART_RxISR_8BIT                          0x08003f05   Thumb Code   196  stm32g4xx_hal_uart.o(i.UART_RxISR_8BIT)
    i.UART_RxISR_8BIT_FIFOEN                 0x08003fcc   Section        0  stm32g4xx_hal_uart.o(i.UART_RxISR_8BIT_FIFOEN)
    UART_RxISR_8BIT_FIFOEN                   0x08003fcd   Thumb Code   404  stm32g4xx_hal_uart.o(i.UART_RxISR_8BIT_FIFOEN)
    i.UART_SetConfig                         0x0800416c   Section        0  stm32g4xx_hal_uart.o(i.UART_SetConfig)
    i.UART_Start_Receive_IT                  0x080043e0   Section        0  stm32g4xx_hal_uart.o(i.UART_Start_Receive_IT)
    i.UART_WaitOnFlagUntilTimeout            0x080044f0   Section        0  stm32g4xx_hal_uart.o(i.UART_WaitOnFlagUntilTimeout)
    i.USART1_IRQHandler                      0x08004584   Section        0  stm32g4xx_it.o(i.USART1_IRQHandler)
    i.Update_Eeprom                          0x08004590   Section        0  task.o(i.Update_Eeprom)
    i.UsageFault_Handler                     0x080045a6   Section        0  stm32g4xx_it.o(i.UsageFault_Handler)
    i.__0printf                              0x080045a8   Section        0  printfa.o(i.__0printf)
    i.__0sprintf                             0x080045c8   Section        0  printfa.o(i.__0sprintf)
    i.__NVIC_SetPriority                     0x080045f0   Section        0  stm32g4xx_hal_cortex.o(i.__NVIC_SetPriority)
    __NVIC_SetPriority                       0x080045f1   Thumb Code    32  stm32g4xx_hal_cortex.o(i.__NVIC_SetPriority)
    i.__scatterload_copy                     0x08004610   Section       14  handlers.o(i.__scatterload_copy)
    i.__scatterload_null                     0x0800461e   Section        2  handlers.o(i.__scatterload_null)
    i.__scatterload_zeroinit                 0x08004620   Section       14  handlers.o(i.__scatterload_zeroinit)
    i._fp_digits                             0x08004630   Section        0  printfa.o(i._fp_digits)
    _fp_digits                               0x08004631   Thumb Code   366  printfa.o(i._fp_digits)
    i._printf_core                           0x080047b4   Section        0  printfa.o(i._printf_core)
    _printf_core                             0x080047b5   Thumb Code  1704  printfa.o(i._printf_core)
    i._printf_post_padding                   0x08004e68   Section        0  printfa.o(i._printf_post_padding)
    _printf_post_padding                     0x08004e69   Thumb Code    36  printfa.o(i._printf_post_padding)
    i._printf_pre_padding                    0x08004e8c   Section        0  printfa.o(i._printf_pre_padding)
    _printf_pre_padding                      0x08004e8d   Thumb Code    46  printfa.o(i._printf_pre_padding)
    i._sputc                                 0x08004eba   Section        0  printfa.o(i._sputc)
    _sputc                                   0x08004ebb   Thumb Code    10  printfa.o(i._sputc)
    i.delay1                                 0x08004ec4   Section        0  i2c_hal.o(i.delay1)
    delay1                                   0x08004ec5   Thumb Code    12  i2c_hal.o(i.delay1)
    i.fputc                                  0x08004ed0   Section        0  interrupt.o(i.fputc)
    i.main                                   0x08004ee8   Section        0  main.o(i.main)
    .constdata                               0x08004ff8   Section     4560  lcd.o(.constdata)
    .constdata                               0x080061c8   Section       24  stm32g4xx_hal_uart.o(.constdata)
    .constdata                               0x080061e0   Section       16  stm32g4xx_hal_uart_ex.o(.constdata)
    numerator                                0x080061e0   Data           8  stm32g4xx_hal_uart_ex.o(.constdata)
    denominator                              0x080061e8   Data           8  stm32g4xx_hal_uart_ex.o(.constdata)
    .constdata                               0x080061f0   Section       16  system_stm32g4xx.o(.constdata)
    .constdata                               0x08006200   Section        8  system_stm32g4xx.o(.constdata)
    .data                                    0x20000000   Section       14  task.o(.data)
    .data                                    0x2000000e   Section        2  task.o(.data)
    .data                                    0x20000010   Section       20  interrupt.o(.data)
    Tim_Total_Pos                            0x20000014   Data           2  interrupt.o(.data)
    Time5S                                   0x20000016   Data           2  interrupt.o(.data)
    .data                                    0x20000024   Section        6  lcd.o(.data)
    TextColor                                0x20000024   Data           2  lcd.o(.data)
    BackColor                                0x20000026   Data           2  lcd.o(.data)
    .data                                    0x2000002a   Section        2  led.o(.data)
    Temp                                     0x2000002a   Data           1  led.o(.data)
    Temp_Old                                 0x2000002b   Data           1  led.o(.data)
    .data                                    0x2000002c   Section       12  stm32g4xx_hal.o(.data)
    .data                                    0x20000038   Section        4  system_stm32g4xx.o(.data)
    .data                                    0x2000003c   Section        4  stdout.o(.data)
    .bss                                     0x20000040   Section      152  tim.o(.bss)
    .bss                                     0x200000d8   Section      148  usart.o(.bss)
    .bss                                     0x2000016c   Section       30  task.o(.bss)
    .bss                                     0x2000018a   Section       30  interrupt.o(.bss)
    STACK                                    0x200001a8   Section     1024  startup_stm32g431xx.o(STACK)

    Global Symbols

    Symbol Name                              Value     Ov Type        Size  Object(Section)

    BuildAttributes$$THM_ISAv4$E$P$D$K$B$S$7EM$VFPi3$EXTD16$VFPS$VFMA$PE$A:L22UL41UL21$X:L11$S22US41US21$IEEE1$IW$USESV6$~STKCKD$USESV7$~SHL$OSPACE$ROPI$EBA8$MICROLIB$REQ8$PRES8$EABIv2 0x00000000   Number         0  anon$$obj.o ABSOLUTE
    __ARM_use_no_argv                        0x00000000   Number         0  main.o ABSOLUTE
    _printf_a                                0x00000000   Number         0  stubs.o ABSOLUTE
    _printf_c                                0x00000000   Number         0  stubs.o ABSOLUTE
    _printf_charcount                        0x00000000   Number         0  stubs.o ABSOLUTE
    _printf_d                                0x00000000   Number         0  stubs.o ABSOLUTE
    _printf_e                                0x00000000   Number         0  stubs.o ABSOLUTE
    _printf_f                                0x00000000   Number         0  stubs.o ABSOLUTE
    _printf_flags                            0x00000000   Number         0  stubs.o ABSOLUTE
    _printf_fp_dec                           0x00000000   Number         0  stubs.o ABSOLUTE
    _printf_fp_hex                           0x00000000   Number         0  stubs.o ABSOLUTE
    _printf_g                                0x00000000   Number         0  stubs.o ABSOLUTE
    _printf_i                                0x00000000   Number         0  stubs.o ABSOLUTE
    _printf_int_dec                          0x00000000   Number         0  stubs.o ABSOLUTE
    _printf_l                                0x00000000   Number         0  stubs.o ABSOLUTE
    _printf_lc                               0x00000000   Number         0  stubs.o ABSOLUTE
    _printf_ll                               0x00000000   Number         0  stubs.o ABSOLUTE
    _printf_lld                              0x00000000   Number         0  stubs.o ABSOLUTE
    _printf_lli                              0x00000000   Number         0  stubs.o ABSOLUTE
    _printf_llo                              0x00000000   Number         0  stubs.o ABSOLUTE
    _printf_llu                              0x00000000   Number         0  stubs.o ABSOLUTE
    _printf_llx                              0x00000000   Number         0  stubs.o ABSOLUTE
    _printf_longlong_dec                     0x00000000   Number         0  stubs.o ABSOLUTE
    _printf_longlong_hex                     0x00000000   Number         0  stubs.o ABSOLUTE
    _printf_longlong_oct                     0x00000000   Number         0  stubs.o ABSOLUTE
    _printf_ls                               0x00000000   Number         0  stubs.o ABSOLUTE
    _printf_mbtowc                           0x00000000   Number         0  stubs.o ABSOLUTE
    _printf_n                                0x00000000   Number         0  stubs.o ABSOLUTE
    _printf_o                                0x00000000   Number         0  stubs.o ABSOLUTE
    _printf_p                                0x00000000   Number         0  stubs.o ABSOLUTE
    _printf_percent                          0x00000000   Number         0  stubs.o ABSOLUTE
    _printf_pre_padding                      0x00000000   Number         0  stubs.o ABSOLUTE
    _printf_return_value                     0x00000000   Number         0  stubs.o ABSOLUTE
    _printf_s                                0x00000000   Number         0  stubs.o ABSOLUTE
    _printf_sizespec                         0x00000000   Number         0  stubs.o ABSOLUTE
    _printf_str                              0x00000000   Number         0  stubs.o ABSOLUTE
    _printf_truncate_signed                  0x00000000   Number         0  stubs.o ABSOLUTE
    _printf_truncate_unsigned                0x00000000   Number         0  stubs.o ABSOLUTE
    _printf_u                                0x00000000   Number         0  stubs.o ABSOLUTE
    _printf_wc                               0x00000000   Number         0  stubs.o ABSOLUTE
    _printf_wctomb                           0x00000000   Number         0  stubs.o ABSOLUTE
    _printf_widthprec                        0x00000000   Number         0  stubs.o ABSOLUTE
    _printf_x                                0x00000000   Number         0  stubs.o ABSOLUTE
    __arm_fini_                               - Undefined Weak Reference
    __cpp_initialize__aeabi_                  - Undefined Weak Reference
    __cxa_finalize                            - Undefined Weak Reference
    __decompress                              - Undefined Weak Reference
    _clock_init                               - Undefined Weak Reference
    _microlib_exit                            - Undefined Weak Reference
    __Vectors_Size                           0x000001d8   Number         0  startup_stm32g431xx.o ABSOLUTE
    __Vectors                                0x08000000   Data           4  startup_stm32g431xx.o(RESET)
    __Vectors_End                            0x080001d8   Data           0  startup_stm32g431xx.o(RESET)
    __main                                   0x080001d9   Thumb Code     0  entry.o(.ARM.Collect$$$$00000000)
    _main_stk                                0x080001d9   Thumb Code     0  entry2.o(.ARM.Collect$$$$00000001)
    _main_scatterload                        0x080001dd   Thumb Code     0  entry5.o(.ARM.Collect$$$$00000004)
    __main_after_scatterload                 0x080001e1   Thumb Code     0  entry5.o(.ARM.Collect$$$$00000004)
    _main_clock                              0x080001e1   Thumb Code     0  entry7b.o(.ARM.Collect$$$$00000008)
    _main_cpp_init                           0x080001e1   Thumb Code     0  entry8b.o(.ARM.Collect$$$$0000000A)
    _main_init                               0x080001e1   Thumb Code     0  entry9a.o(.ARM.Collect$$$$0000000B)
    __rt_lib_shutdown_fini                   0x080001e9   Thumb Code     0  entry12b.o(.ARM.Collect$$$$0000000E)
    __rt_final_cpp                           0x080001ed   Thumb Code     0  entry10a.o(.ARM.Collect$$$$0000000F)
    __rt_final_exit                          0x080001ed   Thumb Code     0  entry11a.o(.ARM.Collect$$$$00000011)
    Reset_Handler                            0x080001f1   Thumb Code     8  startup_stm32g431xx.o(.text)
    ADC1_2_IRQHandler                        0x0800020b   Thumb Code     0  startup_stm32g431xx.o(.text)
    COMP1_2_3_IRQHandler                     0x0800020b   Thumb Code     0  startup_stm32g431xx.o(.text)
    COMP4_IRQHandler                         0x0800020b   Thumb Code     0  startup_stm32g431xx.o(.text)
    CORDIC_IRQHandler                        0x0800020b   Thumb Code     0  startup_stm32g431xx.o(.text)
    CRS_IRQHandler                           0x0800020b   Thumb Code     0  startup_stm32g431xx.o(.text)
    DMA1_Channel1_IRQHandler                 0x0800020b   Thumb Code     0  startup_stm32g431xx.o(.text)
    DMA1_Channel2_IRQHandler                 0x0800020b   Thumb Code     0  startup_stm32g431xx.o(.text)
    DMA1_Channel3_IRQHandler                 0x0800020b   Thumb Code     0  startup_stm32g431xx.o(.text)
    DMA1_Channel4_IRQHandler                 0x0800020b   Thumb Code     0  startup_stm32g431xx.o(.text)
    DMA1_Channel5_IRQHandler                 0x0800020b   Thumb Code     0  startup_stm32g431xx.o(.text)
    DMA1_Channel6_IRQHandler                 0x0800020b   Thumb Code     0  startup_stm32g431xx.o(.text)
    DMA2_Channel1_IRQHandler                 0x0800020b   Thumb Code     0  startup_stm32g431xx.o(.text)
    DMA2_Channel2_IRQHandler                 0x0800020b   Thumb Code     0  startup_stm32g431xx.o(.text)
    DMA2_Channel3_IRQHandler                 0x0800020b   Thumb Code     0  startup_stm32g431xx.o(.text)
    DMA2_Channel4_IRQHandler                 0x0800020b   Thumb Code     0  startup_stm32g431xx.o(.text)
    DMA2_Channel5_IRQHandler                 0x0800020b   Thumb Code     0  startup_stm32g431xx.o(.text)
    DMA2_Channel6_IRQHandler                 0x0800020b   Thumb Code     0  startup_stm32g431xx.o(.text)
    DMAMUX_OVR_IRQHandler                    0x0800020b   Thumb Code     0  startup_stm32g431xx.o(.text)
    EXTI0_IRQHandler                         0x0800020b   Thumb Code     0  startup_stm32g431xx.o(.text)
    EXTI15_10_IRQHandler                     0x0800020b   Thumb Code     0  startup_stm32g431xx.o(.text)
    EXTI1_IRQHandler                         0x0800020b   Thumb Code     0  startup_stm32g431xx.o(.text)
    EXTI2_IRQHandler                         0x0800020b   Thumb Code     0  startup_stm32g431xx.o(.text)
    EXTI3_IRQHandler                         0x0800020b   Thumb Code     0  startup_stm32g431xx.o(.text)
    EXTI4_IRQHandler                         0x0800020b   Thumb Code     0  startup_stm32g431xx.o(.text)
    EXTI9_5_IRQHandler                       0x0800020b   Thumb Code     0  startup_stm32g431xx.o(.text)
    FDCAN1_IT0_IRQHandler                    0x0800020b   Thumb Code     0  startup_stm32g431xx.o(.text)
    FDCAN1_IT1_IRQHandler                    0x0800020b   Thumb Code     0  startup_stm32g431xx.o(.text)
    FLASH_IRQHandler                         0x0800020b   Thumb Code     0  startup_stm32g431xx.o(.text)
    FMAC_IRQHandler                          0x0800020b   Thumb Code     0  startup_stm32g431xx.o(.text)
    FPU_IRQHandler                           0x0800020b   Thumb Code     0  startup_stm32g431xx.o(.text)
    I2C1_ER_IRQHandler                       0x0800020b   Thumb Code     0  startup_stm32g431xx.o(.text)
    I2C1_EV_IRQHandler                       0x0800020b   Thumb Code     0  startup_stm32g431xx.o(.text)
    I2C2_ER_IRQHandler                       0x0800020b   Thumb Code     0  startup_stm32g431xx.o(.text)
    I2C2_EV_IRQHandler                       0x0800020b   Thumb Code     0  startup_stm32g431xx.o(.text)
    I2C3_ER_IRQHandler                       0x0800020b   Thumb Code     0  startup_stm32g431xx.o(.text)
    I2C3_EV_IRQHandler                       0x0800020b   Thumb Code     0  startup_stm32g431xx.o(.text)
    LPTIM1_IRQHandler                        0x0800020b   Thumb Code     0  startup_stm32g431xx.o(.text)
    LPUART1_IRQHandler                       0x0800020b   Thumb Code     0  startup_stm32g431xx.o(.text)
    PVD_PVM_IRQHandler                       0x0800020b   Thumb Code     0  startup_stm32g431xx.o(.text)
    RCC_IRQHandler                           0x0800020b   Thumb Code     0  startup_stm32g431xx.o(.text)
    RNG_IRQHandler                           0x0800020b   Thumb Code     0  startup_stm32g431xx.o(.text)
    RTC_Alarm_IRQHandler                     0x0800020b   Thumb Code     0  startup_stm32g431xx.o(.text)
    RTC_TAMP_LSECSS_IRQHandler               0x0800020b   Thumb Code     0  startup_stm32g431xx.o(.text)
    RTC_WKUP_IRQHandler                      0x0800020b   Thumb Code     0  startup_stm32g431xx.o(.text)
    SAI1_IRQHandler                          0x0800020b   Thumb Code     0  startup_stm32g431xx.o(.text)
    SPI1_IRQHandler                          0x0800020b   Thumb Code     0  startup_stm32g431xx.o(.text)
    SPI2_IRQHandler                          0x0800020b   Thumb Code     0  startup_stm32g431xx.o(.text)
    SPI3_IRQHandler                          0x0800020b   Thumb Code     0  startup_stm32g431xx.o(.text)
    TIM1_BRK_TIM15_IRQHandler                0x0800020b   Thumb Code     0  startup_stm32g431xx.o(.text)
    TIM1_CC_IRQHandler                       0x0800020b   Thumb Code     0  startup_stm32g431xx.o(.text)
    TIM1_TRG_COM_TIM17_IRQHandler            0x0800020b   Thumb Code     0  startup_stm32g431xx.o(.text)
    TIM1_UP_TIM16_IRQHandler                 0x0800020b   Thumb Code     0  startup_stm32g431xx.o(.text)
    TIM2_IRQHandler                          0x0800020b   Thumb Code     0  startup_stm32g431xx.o(.text)
    TIM3_IRQHandler                          0x0800020b   Thumb Code     0  startup_stm32g431xx.o(.text)
    TIM4_IRQHandler                          0x0800020b   Thumb Code     0  startup_stm32g431xx.o(.text)
    TIM7_IRQHandler                          0x0800020b   Thumb Code     0  startup_stm32g431xx.o(.text)
    TIM8_BRK_IRQHandler                      0x0800020b   Thumb Code     0  startup_stm32g431xx.o(.text)
    TIM8_CC_IRQHandler                       0x0800020b   Thumb Code     0  startup_stm32g431xx.o(.text)
    TIM8_TRG_COM_IRQHandler                  0x0800020b   Thumb Code     0  startup_stm32g431xx.o(.text)
    TIM8_UP_IRQHandler                       0x0800020b   Thumb Code     0  startup_stm32g431xx.o(.text)
    UART4_IRQHandler                         0x0800020b   Thumb Code     0  startup_stm32g431xx.o(.text)
    UCPD1_IRQHandler                         0x0800020b   Thumb Code     0  startup_stm32g431xx.o(.text)
    USART2_IRQHandler                        0x0800020b   Thumb Code     0  startup_stm32g431xx.o(.text)
    USART3_IRQHandler                        0x0800020b   Thumb Code     0  startup_stm32g431xx.o(.text)
    USBWakeUp_IRQHandler                     0x0800020b   Thumb Code     0  startup_stm32g431xx.o(.text)
    USB_HP_IRQHandler                        0x0800020b   Thumb Code     0  startup_stm32g431xx.o(.text)
    USB_LP_IRQHandler                        0x0800020b   Thumb Code     0  startup_stm32g431xx.o(.text)
    WWDG_IRQHandler                          0x0800020b   Thumb Code     0  startup_stm32g431xx.o(.text)
    __aeabi_uldivmod                         0x08000215   Thumb Code    98  uldiv.o(.text)
    __aeabi_memset                           0x08000277   Thumb Code    14  memseta.o(.text)
    __aeabi_memset4                          0x08000277   Thumb Code     0  memseta.o(.text)
    __aeabi_memset8                          0x08000277   Thumb Code     0  memseta.o(.text)
    __aeabi_memclr                           0x08000285   Thumb Code     4  memseta.o(.text)
    __aeabi_memclr4                          0x08000285   Thumb Code     0  memseta.o(.text)
    __aeabi_memclr8                          0x08000285   Thumb Code     0  memseta.o(.text)
    _memset$wrapper                          0x08000289   Thumb Code    18  memseta.o(.text)
    __aeabi_ddiv                             0x0800029b   Thumb Code   222  ddiv.o(.text)
    __aeabi_ui2d                             0x08000379   Thumb Code    26  dfltui.o(.text)
    __aeabi_uidiv                            0x08000393   Thumb Code     0  uidiv.o(.text)
    __aeabi_uidivmod                         0x08000393   Thumb Code    44  uidiv.o(.text)
    __aeabi_llsl                             0x080003bf   Thumb Code    30  llshl.o(.text)
    _ll_shift_l                              0x080003bf   Thumb Code     0  llshl.o(.text)
    __aeabi_llsr                             0x080003dd   Thumb Code    32  llushr.o(.text)
    _ll_ushift_r                             0x080003dd   Thumb Code     0  llushr.o(.text)
    __I$use$fp                               0x080003fd   Thumb Code     0  iusefp.o(.text)
    _double_round                            0x080003fd   Thumb Code    30  depilogue.o(.text)
    _double_epilogue                         0x0800041b   Thumb Code   156  depilogue.o(.text)
    __aeabi_dadd                             0x080004b7   Thumb Code   322  dadd.o(.text)
    __aeabi_dsub                             0x080005f9   Thumb Code     6  dadd.o(.text)
    __aeabi_drsub                            0x080005ff   Thumb Code     6  dadd.o(.text)
    __aeabi_dmul                             0x08000605   Thumb Code   228  dmul.o(.text)
    __aeabi_d2ulz                            0x080006e9   Thumb Code    48  dfixul.o(.text)
    __aeabi_cdrcmple                         0x08000719   Thumb Code    48  cdrcmple.o(.text)
    __scatterload                            0x08000749   Thumb Code    28  init.o(.text)
    __scatterload_rt2                        0x08000749   Thumb Code     0  init.o(.text)
    __aeabi_lasr                             0x0800076d   Thumb Code    36  llsshr.o(.text)
    _ll_sshift_r                             0x0800076d   Thumb Code     0  llsshr.o(.text)
    BusFault_Handler                         0x08000791   Thumb Code     2  stm32g4xx_it.o(i.BusFault_Handler)
    DebugMon_Handler                         0x08000793   Thumb Code     2  stm32g4xx_it.o(i.DebugMon_Handler)
    Delay_LCD                                0x08000795   Thumb Code    28  lcd.o(i.Delay_LCD)
    EEP_Read                                 0x080007b1   Thumb Code    60  i2c_hal.o(i.EEP_Read)
    EEP_Write                                0x080007ed   Thumb Code    48  i2c_hal.o(i.EEP_Write)
    Error_Handler                            0x0800081d   Thumb Code     4  main.o(i.Error_Handler)
    HAL_DMA_Abort                            0x08000821   Thumb Code   106  stm32g4xx_hal_dma.o(i.HAL_DMA_Abort)
    HAL_DMA_Abort_IT                         0x0800088b   Thumb Code   120  stm32g4xx_hal_dma.o(i.HAL_DMA_Abort_IT)
    HAL_Delay                                0x08000905   Thumb Code    32  stm32g4xx_hal.o(i.HAL_Delay)
    HAL_GPIO_Init                            0x08000929   Thumb Code   550  stm32g4xx_hal_gpio.o(i.HAL_GPIO_Init)
    HAL_GPIO_ReadPin                         0x08000b71   Thumb Code    10  stm32g4xx_hal_gpio.o(i.HAL_GPIO_ReadPin)
    HAL_GPIO_WritePin                        0x08000b7b   Thumb Code    10  stm32g4xx_hal_gpio.o(i.HAL_GPIO_WritePin)
    HAL_GetTick                              0x08000b85   Thumb Code     6  stm32g4xx_hal.o(i.HAL_GetTick)
    HAL_IncTick                              0x08000b91   Thumb Code    12  stm32g4xx_hal.o(i.HAL_IncTick)
    HAL_Init                                 0x08000ba1   Thumb Code    30  stm32g4xx_hal.o(i.HAL_Init)
    HAL_InitTick                             0x08000bc1   Thumb Code    58  stm32g4xx_hal.o(i.HAL_InitTick)
    HAL_MspInit                              0x08000c05   Thumb Code    42  stm32g4xx_hal_msp.o(i.HAL_MspInit)
    HAL_NVIC_EnableIRQ                       0x08000c35   Thumb Code    26  stm32g4xx_hal_cortex.o(i.HAL_NVIC_EnableIRQ)
    HAL_NVIC_SetPriority                     0x08000c51   Thumb Code    60  stm32g4xx_hal_cortex.o(i.HAL_NVIC_SetPriority)
    HAL_NVIC_SetPriorityGrouping             0x08000c91   Thumb Code    26  stm32g4xx_hal_cortex.o(i.HAL_NVIC_SetPriorityGrouping)
    HAL_PWREx_ControlVoltageScaling          0x08000cb5   Thumb Code   174  stm32g4xx_hal_pwr_ex.o(i.HAL_PWREx_ControlVoltageScaling)
    HAL_PWREx_DisableUCPDDeadBattery         0x08000d71   Thumb Code    12  stm32g4xx_hal_pwr_ex.o(i.HAL_PWREx_DisableUCPDDeadBattery)
    HAL_RCCEx_PeriphCLKConfig                0x08000d81   Thumb Code   638  stm32g4xx_hal_rcc_ex.o(i.HAL_RCCEx_PeriphCLKConfig)
    HAL_RCC_ClockConfig                      0x08001009   Thumb Code   444  stm32g4xx_hal_rcc.o(i.HAL_RCC_ClockConfig)
    HAL_RCC_GetPCLK1Freq                     0x080011e5   Thumb Code    24  stm32g4xx_hal_rcc.o(i.HAL_RCC_GetPCLK1Freq)
    HAL_RCC_GetPCLK2Freq                     0x08001209   Thumb Code    24  stm32g4xx_hal_rcc.o(i.HAL_RCC_GetPCLK2Freq)
    HAL_RCC_GetSysClockFreq                  0x0800122d   Thumb Code    98  stm32g4xx_hal_rcc.o(i.HAL_RCC_GetSysClockFreq)
    HAL_RCC_OscConfig                        0x0800129d   Thumb Code  1028  stm32g4xx_hal_rcc.o(i.HAL_RCC_OscConfig)
    HAL_SYSTICK_Config                       0x080016a1   Thumb Code    40  stm32g4xx_hal_cortex.o(i.HAL_SYSTICK_Config)
    HAL_TIMEx_Break2Callback                 0x080016c9   Thumb Code     2  stm32g4xx_hal_tim_ex.o(i.HAL_TIMEx_Break2Callback)
    HAL_TIMEx_BreakCallback                  0x080016cb   Thumb Code     2  stm32g4xx_hal_tim_ex.o(i.HAL_TIMEx_BreakCallback)
    HAL_TIMEx_CommutCallback                 0x080016cd   Thumb Code     2  stm32g4xx_hal_tim_ex.o(i.HAL_TIMEx_CommutCallback)
    HAL_TIMEx_DirectionChangeCallback        0x080016cf   Thumb Code     2  stm32g4xx_hal_tim_ex.o(i.HAL_TIMEx_DirectionChangeCallback)
    HAL_TIMEx_EncoderIndexCallback           0x080016d1   Thumb Code     2  stm32g4xx_hal_tim_ex.o(i.HAL_TIMEx_EncoderIndexCallback)
    HAL_TIMEx_IndexErrorCallback             0x080016d3   Thumb Code     2  stm32g4xx_hal_tim_ex.o(i.HAL_TIMEx_IndexErrorCallback)
    HAL_TIMEx_MasterConfigSynchronization    0x080016d5   Thumb Code   132  stm32g4xx_hal_tim_ex.o(i.HAL_TIMEx_MasterConfigSynchronization)
    HAL_TIMEx_TransitionErrorCallback        0x08001771   Thumb Code     2  stm32g4xx_hal_tim_ex.o(i.HAL_TIMEx_TransitionErrorCallback)
    HAL_TIM_Base_Init                        0x08001773   Thumb Code    98  stm32g4xx_hal_tim.o(i.HAL_TIM_Base_Init)
    HAL_TIM_Base_MspInit                     0x080017d5   Thumb Code    72  tim.o(i.HAL_TIM_Base_MspInit)
    HAL_TIM_Base_Start_IT                    0x08001825   Thumb Code    94  stm32g4xx_hal_tim.o(i.HAL_TIM_Base_Start_IT)
    HAL_TIM_ConfigClockSource                0x0800189d   Thumb Code   246  stm32g4xx_hal_tim.o(i.HAL_TIM_ConfigClockSource)
    HAL_TIM_IC_CaptureCallback               0x0800199d   Thumb Code     2  stm32g4xx_hal_tim.o(i.HAL_TIM_IC_CaptureCallback)
    HAL_TIM_IRQHandler                       0x0800199f   Thumb Code   418  stm32g4xx_hal_tim.o(i.HAL_TIM_IRQHandler)
    HAL_TIM_MspPostInit                      0x08001b41   Thumb Code    70  tim.o(i.HAL_TIM_MspPostInit)
    HAL_TIM_OC_DelayElapsedCallback          0x08001b8d   Thumb Code     2  stm32g4xx_hal_tim.o(i.HAL_TIM_OC_DelayElapsedCallback)
    HAL_TIM_PWM_ConfigChannel                0x08001b8f   Thumb Code   292  stm32g4xx_hal_tim.o(i.HAL_TIM_PWM_ConfigChannel)
    HAL_TIM_PWM_Init                         0x08001cb3   Thumb Code    98  stm32g4xx_hal_tim.o(i.HAL_TIM_PWM_Init)
    HAL_TIM_PWM_MspInit                      0x08001d15   Thumb Code     2  stm32g4xx_hal_tim.o(i.HAL_TIM_PWM_MspInit)
    HAL_TIM_PWM_PulseFinishedCallback        0x08001d17   Thumb Code     2  stm32g4xx_hal_tim.o(i.HAL_TIM_PWM_PulseFinishedCallback)
    HAL_TIM_PWM_Start                        0x08001d19   Thumb Code   218  stm32g4xx_hal_tim.o(i.HAL_TIM_PWM_Start)
    HAL_TIM_PeriodElapsedCallback            0x08001e15   Thumb Code   158  interrupt.o(i.HAL_TIM_PeriodElapsedCallback)
    HAL_TIM_TriggerCallback                  0x08001ec1   Thumb Code     2  stm32g4xx_hal_tim.o(i.HAL_TIM_TriggerCallback)
    HAL_UARTEx_DisableFifoMode               0x08001ec3   Thumb Code    62  stm32g4xx_hal_uart_ex.o(i.HAL_UARTEx_DisableFifoMode)
    HAL_UARTEx_RxEventCallback               0x08001f01   Thumb Code     2  stm32g4xx_hal_uart.o(i.HAL_UARTEx_RxEventCallback)
    HAL_UARTEx_RxFifoFullCallback            0x08001f03   Thumb Code     2  stm32g4xx_hal_uart_ex.o(i.HAL_UARTEx_RxFifoFullCallback)
    HAL_UARTEx_SetRxFifoThreshold            0x08001f05   Thumb Code    76  stm32g4xx_hal_uart_ex.o(i.HAL_UARTEx_SetRxFifoThreshold)
    HAL_UARTEx_SetTxFifoThreshold            0x08001f51   Thumb Code    76  stm32g4xx_hal_uart_ex.o(i.HAL_UARTEx_SetTxFifoThreshold)
    HAL_UARTEx_TxFifoEmptyCallback           0x08001f9d   Thumb Code     2  stm32g4xx_hal_uart_ex.o(i.HAL_UARTEx_TxFifoEmptyCallback)
    HAL_UARTEx_WakeupCallback                0x08001f9f   Thumb Code     2  stm32g4xx_hal_uart_ex.o(i.HAL_UARTEx_WakeupCallback)
    HAL_UART_ErrorCallback                   0x08001fa1   Thumb Code     2  stm32g4xx_hal_uart.o(i.HAL_UART_ErrorCallback)
    HAL_UART_IRQHandler                      0x08001fa5   Thumb Code   766  stm32g4xx_hal_uart.o(i.HAL_UART_IRQHandler)
    HAL_UART_Init                            0x080022b1   Thumb Code   106  stm32g4xx_hal_uart.o(i.HAL_UART_Init)
    HAL_UART_MspInit                         0x0800231d   Thumb Code   132  usart.o(i.HAL_UART_MspInit)
    HAL_UART_Receive_IT                      0x080023a9   Thumb Code    66  stm32g4xx_hal_uart.o(i.HAL_UART_Receive_IT)
    HAL_UART_RxCpltCallback                  0x080023f1   Thumb Code    38  interrupt.o(i.HAL_UART_RxCpltCallback)
    HAL_UART_Transmit                        0x08002429   Thumb Code   174  stm32g4xx_hal_uart.o(i.HAL_UART_Transmit)
    HAL_UART_TxCpltCallback                  0x080024d7   Thumb Code     2  stm32g4xx_hal_uart.o(i.HAL_UART_TxCpltCallback)
    HardFault_Handler                        0x080024d9   Thumb Code     2  stm32g4xx_it.o(i.HardFault_Handler)
    I2CInit                                  0x080024dd   Thumb Code    38  i2c_hal.o(i.I2CInit)
    I2CReceiveByte                           0x08002509   Thumb Code    78  i2c_hal.o(i.I2CReceiveByte)
    I2CSendAck                               0x08002557   Thumb Code    48  i2c_hal.o(i.I2CSendAck)
    I2CSendByte                              0x08002587   Thumb Code    78  i2c_hal.o(i.I2CSendByte)
    I2CSendNotAck                            0x080025d5   Thumb Code    48  i2c_hal.o(i.I2CSendNotAck)
    I2CStart                                 0x08002605   Thumb Code    54  i2c_hal.o(i.I2CStart)
    I2CStop                                  0x0800263b   Thumb Code    54  i2c_hal.o(i.I2CStop)
    I2CWaitAck                               0x08002671   Thumb Code    78  i2c_hal.o(i.I2CWaitAck)
    Key_Proc                                 0x080026c1   Thumb Code   278  task.o(i.Key_Proc)
    Key_Read                                 0x080027fd   Thumb Code    60  key.o(i.Key_Read)
    LCD_BusIn                                0x0800283d   Thumb Code    40  lcd.o(i.LCD_BusIn)
    LCD_BusOut                               0x08002869   Thumb Code    42  lcd.o(i.LCD_BusOut)
    LCD_Clear                                0x08002899   Thumb Code    36  lcd.o(i.LCD_Clear)
    LCD_CtrlLinesConfig                      0x080028bd   Thumb Code   134  lcd.o(i.LCD_CtrlLinesConfig)
    LCD_DisplayChar                          0x0800294d   Thumb Code    18  lcd.o(i.LCD_DisplayChar)
    LCD_DisplayStringLine                    0x08002965   Thumb Code    42  lcd.o(i.LCD_DisplayStringLine)
    LCD_DrawChar                             0x08002991   Thumb Code    84  lcd.o(i.LCD_DrawChar)
    LCD_Init                                 0x080029e9   Thumb Code    46  lcd.o(i.LCD_Init)
    LCD_Proc                                 0x08002a1d   Thumb Code   256  task.o(i.LCD_Proc)
    LCD_ReadReg                              0x08002ba1   Thumb Code   120  lcd.o(i.LCD_ReadReg)
    LCD_SetBackColor                         0x08002c21   Thumb Code    12  lcd.o(i.LCD_SetBackColor)
    LCD_SetCursor                            0x08002c31   Thumb Code    24  lcd.o(i.LCD_SetCursor)
    LCD_SetTextColor                         0x08002c49   Thumb Code    12  lcd.o(i.LCD_SetTextColor)
    LCD_WriteRAM                             0x08002c59   Thumb Code    86  lcd.o(i.LCD_WriteRAM)
    LCD_WriteRAM_Prepare                     0x08002cb9   Thumb Code    88  lcd.o(i.LCD_WriteRAM_Prepare)
    LCD_WriteReg                             0x08002d19   Thumb Code   104  lcd.o(i.LCD_WriteReg)
    LED_DisPlay                              0x08002d89   Thumb Code    84  led.o(i.LED_DisPlay)
    LED_Proc                                 0x08002de9   Thumb Code    36  task.o(i.LED_Proc)
    MX_GPIO_Init                             0x08002e19   Thumb Code   270  gpio.o(i.MX_GPIO_Init)
    MX_TIM2_Init                             0x08002f39   Thumb Code   152  tim.o(i.MX_TIM2_Init)
    MX_TIM6_Init                             0x08002fd5   Thumb Code    64  tim.o(i.MX_TIM6_Init)
    MX_USART1_UART_Init                      0x0800301d   Thumb Code    94  usart.o(i.MX_USART1_UART_Init)
    MemManage_Handler                        0x08003085   Thumb Code     2  stm32g4xx_it.o(i.MemManage_Handler)
    NMI_Handler                              0x08003087   Thumb Code     2  stm32g4xx_it.o(i.NMI_Handler)
    PA1_Set_PWM_Duty                         0x08003089   Thumb Code    18  interrupt.o(i.PA1_Set_PWM_Duty)
    PendSV_Handler                           0x080030a1   Thumb Code     2  stm32g4xx_it.o(i.PendSV_Handler)
    REG_8230_Init                            0x080030a3   Thumb Code   274  lcd.o(i.REG_8230_Init)
    REG_932X_Init                            0x080031b5   Thumb Code   514  lcd.o(i.REG_932X_Init)
    Read_Proc                                0x080033b9   Thumb Code    94  task.o(i.Read_Proc)
    SCL_Output                               0x08003425   Thumb Code    20  i2c_hal.o(i.SCL_Output)
    SDA_Input                                0x0800343d   Thumb Code    18  i2c_hal.o(i.SDA_Input)
    SDA_Input_Mode                           0x08003455   Thumb Code    40  i2c_hal.o(i.SDA_Input_Mode)
    SDA_Output                               0x08003481   Thumb Code    20  i2c_hal.o(i.SDA_Output)
    SDA_Output_Mode                          0x08003499   Thumb Code    40  i2c_hal.o(i.SDA_Output_Mode)
    SVC_Handler                              0x080034c5   Thumb Code     2  stm32g4xx_it.o(i.SVC_Handler)
    Serial_Proc                              0x080034c9   Thumb Code   134  task.o(i.Serial_Proc)
    SysTick_Handler                          0x0800357d   Thumb Code     4  stm32g4xx_it.o(i.SysTick_Handler)
    SystemClock_Config                       0x08003581   Thumb Code   106  main.o(i.SystemClock_Config)
    SystemInit                               0x080035ed   Thumb Code    12  system_stm32g4xx.o(i.SystemInit)
    TIM6_DAC_IRQHandler                      0x080035fd   Thumb Code     6  stm32g4xx_it.o(i.TIM6_DAC_IRQHandler)
    TIM_Base_SetConfig                       0x08003609   Thumb Code   160  stm32g4xx_hal_tim.o(i.TIM_Base_SetConfig)
    TIM_CCxChannelCmd                        0x080036c5   Thumb Code    26  stm32g4xx_hal_tim.o(i.TIM_CCxChannelCmd)
    TIM_ETR_SetConfig                        0x080036df   Thumb Code    20  stm32g4xx_hal_tim.o(i.TIM_ETR_SetConfig)
    TIM_OC2_SetConfig                        0x080037a5   Thumb Code   120  stm32g4xx_hal_tim.o(i.TIM_OC2_SetConfig)
    UART_AdvFeatureConfig                    0x08003ac1   Thumb Code   200  stm32g4xx_hal_uart.o(i.UART_AdvFeatureConfig)
    UART_CheckIdleState                      0x08003b89   Thumb Code   172  stm32g4xx_hal_uart.o(i.UART_CheckIdleState)
    UART_SetConfig                           0x0800416d   Thumb Code   582  stm32g4xx_hal_uart.o(i.UART_SetConfig)
    UART_Start_Receive_IT                    0x080043e1   Thumb Code   256  stm32g4xx_hal_uart.o(i.UART_Start_Receive_IT)
    UART_WaitOnFlagUntilTimeout              0x080044f1   Thumb Code   148  stm32g4xx_hal_uart.o(i.UART_WaitOnFlagUntilTimeout)
    USART1_IRQHandler                        0x08004585   Thumb Code     6  stm32g4xx_it.o(i.USART1_IRQHandler)
    Update_Eeprom                            0x08004591   Thumb Code    22  task.o(i.Update_Eeprom)
    UsageFault_Handler                       0x080045a7   Thumb Code     2  stm32g4xx_it.o(i.UsageFault_Handler)
    __0printf                                0x080045a9   Thumb Code    22  printfa.o(i.__0printf)
    __1printf                                0x080045a9   Thumb Code     0  printfa.o(i.__0printf)
    __2printf                                0x080045a9   Thumb Code     0  printfa.o(i.__0printf)
    __c89printf                              0x080045a9   Thumb Code     0  printfa.o(i.__0printf)
    printf                                   0x080045a9   Thumb Code     0  printfa.o(i.__0printf)
    __0sprintf                               0x080045c9   Thumb Code    34  printfa.o(i.__0sprintf)
    __1sprintf                               0x080045c9   Thumb Code     0  printfa.o(i.__0sprintf)
    __2sprintf                               0x080045c9   Thumb Code     0  printfa.o(i.__0sprintf)
    __c89sprintf                             0x080045c9   Thumb Code     0  printfa.o(i.__0sprintf)
    sprintf                                  0x080045c9   Thumb Code     0  printfa.o(i.__0sprintf)
    __scatterload_copy                       0x08004611   Thumb Code    14  handlers.o(i.__scatterload_copy)
    __scatterload_null                       0x0800461f   Thumb Code     2  handlers.o(i.__scatterload_null)
    __scatterload_zeroinit                   0x08004621   Thumb Code    14  handlers.o(i.__scatterload_zeroinit)
    fputc                                    0x08004ed1   Thumb Code    20  interrupt.o(i.fputc)
    main                                     0x08004ee9   Thumb Code   230  main.o(i.main)
    ASCII_Table                              0x08004ff8   Data        4560  lcd.o(.constdata)
    UARTPrescTable                           0x080061c8   Data          24  stm32g4xx_hal_uart.o(.constdata)
    AHBPrescTable                            0x080061f0   Data          16  system_stm32g4xx.o(.constdata)
    APBPrescTable                            0x08006200   Data           8  system_stm32g4xx.o(.constdata)
    Region$$Table$$Base                      0x08006208   Number         0  anon$$obj.o(Region$$Table)
    Region$$Table$$Limit                     0x08006228   Number         0  anon$$obj.o(Region$$Table)
    Key_Val                                  0x20000000   Data           1  task.o(.data)
    Key_Down                                 0x20000001   Data           1  task.o(.data)
    Key_Up                                   0x20000002   Data           1  task.o(.data)
    Key_Old                                  0x20000003   Data           1  task.o(.data)
    Interface_Mode                           0x20000004   Data           1  task.o(.data)
    LED1_Status                              0x20000005   Data           1  task.o(.data)
    SPE_X_Message_Old                        0x20000006   Data           2  task.o(.data)
    SPE_X_Message                            0x20000008   Data           3  task.o(.data)
    SPE_Y_Message                            0x2000000b   Data           3  task.o(.data)
    SPE_Y_Message_Old                        0x2000000e   Data           2  task.o(.data)
    Tim_Total_Flag                           0x20000010   Data           1  interrupt.o(.data)
    Serial_RxIndex                           0x20000011   Data           1  interrupt.o(.data)
    Serial_RxData                            0x20000012   Data           1  interrupt.o(.data)
    Blink                                    0x20000013   Data           1  interrupt.o(.data)
    Uart_Tick                                0x20000018   Data           4  interrupt.o(.data)
    LED_Enable                               0x2000001c   Data           8  interrupt.o(.data)
    dummy                                    0x20000028   Data           2  lcd.o(.data)
    uwTickPrio                               0x2000002c   Data           4  stm32g4xx_hal.o(.data)
    uwTickFreq                               0x20000030   Data           4  stm32g4xx_hal.o(.data)
    uwTick                                   0x20000034   Data           4  stm32g4xx_hal.o(.data)
    SystemCoreClock                          0x20000038   Data           4  system_stm32g4xx.o(.data)
    __stdout                                 0x2000003c   Data           4  stdout.o(.data)
    htim2                                    0x20000040   Data          76  tim.o(.bss)
    htim6                                    0x2000008c   Data          76  tim.o(.bss)
    huart1                                   0x200000d8   Data         148  usart.o(.bss)
    LCD_Buf                                  0x2000016c   Data          30  task.o(.bss)
    Serial_RxBuf                             0x2000018a   Data          30  interrupt.o(.bss)
    __initial_sp                             0x200005a8   Data           0  startup_stm32g431xx.o(STACK)



==============================================================================

Memory Map of the image

  Image Entry point : 0x080001d9

  Load Region LR_IROM1 (Base: 0x08000000, Size: 0x00006268, Max: 0x00020000, ABSOLUTE)

    Execution Region ER_IROM1 (Exec base: 0x08000000, Load base: 0x08000000, Size: 0x00006228, Max: 0x00020000, ABSOLUTE)

    Exec Addr    Load Addr    Size         Type   Attr      Idx    E Section Name        Object

    0x08000000   0x08000000   0x000001d8   Data   RO          893    RESET               startup_stm32g431xx.o
    0x080001d8   0x080001d8   0x00000000   Code   RO         4112  * .ARM.Collect$$$$00000000  mc_w.l(entry.o)
    0x080001d8   0x080001d8   0x00000004   Code   RO         4384    .ARM.Collect$$$$00000001  mc_w.l(entry2.o)
    0x080001dc   0x080001dc   0x00000004   Code   RO         4387    .ARM.Collect$$$$00000004  mc_w.l(entry5.o)
    0x080001e0   0x080001e0   0x00000000   Code   RO         4389    .ARM.Collect$$$$00000008  mc_w.l(entry7b.o)
    0x080001e0   0x080001e0   0x00000000   Code   RO         4391    .ARM.Collect$$$$0000000A  mc_w.l(entry8b.o)
    0x080001e0   0x080001e0   0x00000008   Code   RO         4392    .ARM.Collect$$$$0000000B  mc_w.l(entry9a.o)
    0x080001e8   0x080001e8   0x00000004   Code   RO         4399    .ARM.Collect$$$$0000000E  mc_w.l(entry12b.o)
    0x080001ec   0x080001ec   0x00000000   Code   RO         4394    .ARM.Collect$$$$0000000F  mc_w.l(entry10a.o)
    0x080001ec   0x080001ec   0x00000000   Code   RO         4396    .ARM.Collect$$$$00000011  mc_w.l(entry11a.o)
    0x080001ec   0x080001ec   0x00000004   Code   RO         4385    .ARM.Collect$$$$00002712  mc_w.l(entry2.o)
    0x080001f0   0x080001f0   0x00000024   Code   RO          894    .text               startup_stm32g431xx.o
    0x08000214   0x08000214   0x00000062   Code   RO         4115    .text               mc_w.l(uldiv.o)
    0x08000276   0x08000276   0x00000024   Code   RO         4117    .text               mc_w.l(memseta.o)
    0x0800029a   0x0800029a   0x000000de   Code   RO         4380    .text               mf_w.l(ddiv.o)
    0x08000378   0x08000378   0x0000001a   Code   RO         4382    .text               mf_w.l(dfltui.o)
    0x08000392   0x08000392   0x0000002c   Code   RO         4401    .text               mc_w.l(uidiv.o)
    0x080003be   0x080003be   0x0000001e   Code   RO         4403    .text               mc_w.l(llshl.o)
    0x080003dc   0x080003dc   0x00000020   Code   RO         4405    .text               mc_w.l(llushr.o)
    0x080003fc   0x080003fc   0x00000000   Code   RO         4407    .text               mc_w.l(iusefp.o)
    0x080003fc   0x080003fc   0x000000ba   Code   RO         4408    .text               mf_w.l(depilogue.o)
    0x080004b6   0x080004b6   0x0000014e   Code   RO         4410    .text               mf_w.l(dadd.o)
    0x08000604   0x08000604   0x000000e4   Code   RO         4412    .text               mf_w.l(dmul.o)
    0x080006e8   0x080006e8   0x00000030   Code   RO         4414    .text               mf_w.l(dfixul.o)
    0x08000718   0x08000718   0x00000030   Code   RO         4416    .text               mf_w.l(cdrcmple.o)
    0x08000748   0x08000748   0x00000024   Code   RO         4418    .text               mc_w.l(init.o)
    0x0800076c   0x0800076c   0x00000024   Code   RO         4420    .text               mc_w.l(llsshr.o)
    0x08000790   0x08000790   0x00000002   Code   RO          305    i.BusFault_Handler  stm32g4xx_it.o
    0x08000792   0x08000792   0x00000002   Code   RO          306    i.DebugMon_Handler  stm32g4xx_it.o
    0x08000794   0x08000794   0x0000001c   Code   RO          551    i.Delay_LCD         lcd.o
    0x080007b0   0x080007b0   0x0000003c   Code   RO          785    i.EEP_Read          i2c_hal.o
    0x080007ec   0x080007ec   0x00000030   Code   RO          786    i.EEP_Write         i2c_hal.o
    0x0800081c   0x0800081c   0x00000004   Code   RO            4    i.Error_Handler     main.o
    0x08000820   0x08000820   0x0000006a   Code   RO         3140    i.HAL_DMA_Abort     stm32g4xx_hal_dma.o
    0x0800088a   0x0800088a   0x00000078   Code   RO         3141    i.HAL_DMA_Abort_IT  stm32g4xx_hal_dma.o
    0x08000902   0x08000902   0x00000002   PAD
    0x08000904   0x08000904   0x00000024   Code   RO         2293    i.HAL_Delay         stm32g4xx_hal.o
    0x08000928   0x08000928   0x00000248   Code   RO         3002    i.HAL_GPIO_Init     stm32g4xx_hal_gpio.o
    0x08000b70   0x08000b70   0x0000000a   Code   RO         3004    i.HAL_GPIO_ReadPin  stm32g4xx_hal_gpio.o
    0x08000b7a   0x08000b7a   0x0000000a   Code   RO         3006    i.HAL_GPIO_WritePin  stm32g4xx_hal_gpio.o
    0x08000b84   0x08000b84   0x0000000c   Code   RO         2297    i.HAL_GetTick       stm32g4xx_hal.o
    0x08000b90   0x08000b90   0x00000010   Code   RO         2303    i.HAL_IncTick       stm32g4xx_hal.o
    0x08000ba0   0x08000ba0   0x0000001e   Code   RO         2304    i.HAL_Init          stm32g4xx_hal.o
    0x08000bbe   0x08000bbe   0x00000002   PAD
    0x08000bc0   0x08000bc0   0x00000044   Code   RO         2305    i.HAL_InitTick      stm32g4xx_hal.o
    0x08000c04   0x08000c04   0x00000030   Code   RO          392    i.HAL_MspInit       stm32g4xx_hal_msp.o
    0x08000c34   0x08000c34   0x0000001a   Code   RO         3409    i.HAL_NVIC_EnableIRQ  stm32g4xx_hal_cortex.o
    0x08000c4e   0x08000c4e   0x00000002   PAD
    0x08000c50   0x08000c50   0x00000040   Code   RO         3415    i.HAL_NVIC_SetPriority  stm32g4xx_hal_cortex.o
    0x08000c90   0x08000c90   0x00000024   Code   RO         3416    i.HAL_NVIC_SetPriorityGrouping  stm32g4xx_hal_cortex.o
    0x08000cb4   0x08000cb4   0x000000bc   Code   RO         2047    i.HAL_PWREx_ControlVoltageScaling  stm32g4xx_hal_pwr_ex.o
    0x08000d70   0x08000d70   0x00000010   Code   RO         2059    i.HAL_PWREx_DisableUCPDDeadBattery  stm32g4xx_hal_pwr_ex.o
    0x08000d80   0x08000d80   0x00000288   Code   RO         2664    i.HAL_RCCEx_PeriphCLKConfig  stm32g4xx_hal_rcc_ex.o
    0x08001008   0x08001008   0x000001dc   Code   RO         2539    i.HAL_RCC_ClockConfig  stm32g4xx_hal_rcc.o
    0x080011e4   0x080011e4   0x00000024   Code   RO         2547    i.HAL_RCC_GetPCLK1Freq  stm32g4xx_hal_rcc.o
    0x08001208   0x08001208   0x00000024   Code   RO         2548    i.HAL_RCC_GetPCLK2Freq  stm32g4xx_hal_rcc.o
    0x0800122c   0x0800122c   0x00000070   Code   RO         2549    i.HAL_RCC_GetSysClockFreq  stm32g4xx_hal_rcc.o
    0x0800129c   0x0800129c   0x00000404   Code   RO         2552    i.HAL_RCC_OscConfig  stm32g4xx_hal_rcc.o
    0x080016a0   0x080016a0   0x00000028   Code   RO         3420    i.HAL_SYSTICK_Config  stm32g4xx_hal_cortex.o
    0x080016c8   0x080016c8   0x00000002   Code   RO         1617    i.HAL_TIMEx_Break2Callback  stm32g4xx_hal_tim_ex.o
    0x080016ca   0x080016ca   0x00000002   Code   RO         1618    i.HAL_TIMEx_BreakCallback  stm32g4xx_hal_tim_ex.o
    0x080016cc   0x080016cc   0x00000002   Code   RO         1619    i.HAL_TIMEx_CommutCallback  stm32g4xx_hal_tim_ex.o
    0x080016ce   0x080016ce   0x00000002   Code   RO         1630    i.HAL_TIMEx_DirectionChangeCallback  stm32g4xx_hal_tim_ex.o
    0x080016d0   0x080016d0   0x00000002   Code   RO         1644    i.HAL_TIMEx_EncoderIndexCallback  stm32g4xx_hal_tim_ex.o
    0x080016d2   0x080016d2   0x00000002   Code   RO         1658    i.HAL_TIMEx_IndexErrorCallback  stm32g4xx_hal_tim_ex.o
    0x080016d4   0x080016d4   0x0000009c   Code   RO         1659    i.HAL_TIMEx_MasterConfigSynchronization  stm32g4xx_hal_tim_ex.o
    0x08001770   0x08001770   0x00000002   Code   RO         1680    i.HAL_TIMEx_TransitionErrorCallback  stm32g4xx_hal_tim_ex.o
    0x08001772   0x08001772   0x00000062   Code   RO          903    i.HAL_TIM_Base_Init  stm32g4xx_hal_tim.o
    0x080017d4   0x080017d4   0x00000050   Code   RO          210    i.HAL_TIM_Base_MspInit  tim.o
    0x08001824   0x08001824   0x00000078   Code   RO          908    i.HAL_TIM_Base_Start_IT  stm32g4xx_hal_tim.o
    0x0800189c   0x0800189c   0x00000100   Code   RO          912    i.HAL_TIM_ConfigClockSource  stm32g4xx_hal_tim.o
    0x0800199c   0x0800199c   0x00000002   Code   RO          937    i.HAL_TIM_IC_CaptureCallback  stm32g4xx_hal_tim.o
    0x0800199e   0x0800199e   0x000001a2   Code   RO          951    i.HAL_TIM_IRQHandler  stm32g4xx_hal_tim.o
    0x08001b40   0x08001b40   0x0000004c   Code   RO          211    i.HAL_TIM_MspPostInit  tim.o
    0x08001b8c   0x08001b8c   0x00000002   Code   RO          954    i.HAL_TIM_OC_DelayElapsedCallback  stm32g4xx_hal_tim.o
    0x08001b8e   0x08001b8e   0x00000124   Code   RO          975    i.HAL_TIM_PWM_ConfigChannel  stm32g4xx_hal_tim.o
    0x08001cb2   0x08001cb2   0x00000062   Code   RO          978    i.HAL_TIM_PWM_Init  stm32g4xx_hal_tim.o
    0x08001d14   0x08001d14   0x00000002   Code   RO          980    i.HAL_TIM_PWM_MspInit  stm32g4xx_hal_tim.o
    0x08001d16   0x08001d16   0x00000002   Code   RO          981    i.HAL_TIM_PWM_PulseFinishedCallback  stm32g4xx_hal_tim.o
    0x08001d18   0x08001d18   0x000000fc   Code   RO          983    i.HAL_TIM_PWM_Start  stm32g4xx_hal_tim.o
    0x08001e14   0x08001e14   0x000000ac   Code   RO          478    i.HAL_TIM_PeriodElapsedCallback  interrupt.o
    0x08001ec0   0x08001ec0   0x00000002   Code   RO          994    i.HAL_TIM_TriggerCallback  stm32g4xx_hal_tim.o
    0x08001ec2   0x08001ec2   0x0000003e   Code   RO         3959    i.HAL_UARTEx_DisableFifoMode  stm32g4xx_hal_uart_ex.o
    0x08001f00   0x08001f00   0x00000002   Code   RO         3548    i.HAL_UARTEx_RxEventCallback  stm32g4xx_hal_uart.o
    0x08001f02   0x08001f02   0x00000002   Code   RO         3967    i.HAL_UARTEx_RxFifoFullCallback  stm32g4xx_hal_uart_ex.o
    0x08001f04   0x08001f04   0x0000004c   Code   RO         3968    i.HAL_UARTEx_SetRxFifoThreshold  stm32g4xx_hal_uart_ex.o
    0x08001f50   0x08001f50   0x0000004c   Code   RO         3969    i.HAL_UARTEx_SetTxFifoThreshold  stm32g4xx_hal_uart_ex.o
    0x08001f9c   0x08001f9c   0x00000002   Code   RO         3971    i.HAL_UARTEx_TxFifoEmptyCallback  stm32g4xx_hal_uart_ex.o
    0x08001f9e   0x08001f9e   0x00000002   Code   RO         3972    i.HAL_UARTEx_WakeupCallback  stm32g4xx_hal_uart_ex.o
    0x08001fa0   0x08001fa0   0x00000002   Code   RO         3564    i.HAL_UART_ErrorCallback  stm32g4xx_hal_uart.o
    0x08001fa2   0x08001fa2   0x00000002   PAD
    0x08001fa4   0x08001fa4   0x0000030c   Code   RO         3567    i.HAL_UART_IRQHandler  stm32g4xx_hal_uart.o
    0x080022b0   0x080022b0   0x0000006a   Code   RO         3568    i.HAL_UART_Init     stm32g4xx_hal_uart.o
    0x0800231a   0x0800231a   0x00000002   PAD
    0x0800231c   0x0800231c   0x0000008c   Code   RO          264    i.HAL_UART_MspInit  usart.o
    0x080023a8   0x080023a8   0x00000048   Code   RO         3573    i.HAL_UART_Receive_IT  stm32g4xx_hal_uart.o
    0x080023f0   0x080023f0   0x00000038   Code   RO          479    i.HAL_UART_RxCpltCallback  interrupt.o
    0x08002428   0x08002428   0x000000ae   Code   RO         3577    i.HAL_UART_Transmit  stm32g4xx_hal_uart.o
    0x080024d6   0x080024d6   0x00000002   Code   RO         3580    i.HAL_UART_TxCpltCallback  stm32g4xx_hal_uart.o
    0x080024d8   0x080024d8   0x00000002   Code   RO          307    i.HardFault_Handler  stm32g4xx_it.o
    0x080024da   0x080024da   0x00000002   PAD
    0x080024dc   0x080024dc   0x0000002c   Code   RO          787    i.I2CInit           i2c_hal.o
    0x08002508   0x08002508   0x0000004e   Code   RO          788    i.I2CReceiveByte    i2c_hal.o
    0x08002556   0x08002556   0x00000030   Code   RO          789    i.I2CSendAck        i2c_hal.o
    0x08002586   0x08002586   0x0000004e   Code   RO          790    i.I2CSendByte       i2c_hal.o
    0x080025d4   0x080025d4   0x00000030   Code   RO          791    i.I2CSendNotAck     i2c_hal.o
    0x08002604   0x08002604   0x00000036   Code   RO          792    i.I2CStart          i2c_hal.o
    0x0800263a   0x0800263a   0x00000036   Code   RO          793    i.I2CStop           i2c_hal.o
    0x08002670   0x08002670   0x0000004e   Code   RO          794    i.I2CWaitAck        i2c_hal.o
    0x080026be   0x080026be   0x00000002   PAD
    0x080026c0   0x080026c0   0x0000013c   Code   RO          416    i.Key_Proc          task.o
    0x080027fc   0x080027fc   0x00000040   Code   RO          527    i.Key_Read          key.o
    0x0800283c   0x0800283c   0x0000002c   Code   RO          552    i.LCD_BusIn         lcd.o
    0x08002868   0x08002868   0x00000030   Code   RO          553    i.LCD_BusOut        lcd.o
    0x08002898   0x08002898   0x00000024   Code   RO          554    i.LCD_Clear         lcd.o
    0x080028bc   0x080028bc   0x00000090   Code   RO          556    i.LCD_CtrlLinesConfig  lcd.o
    0x0800294c   0x0800294c   0x00000018   Code   RO          557    i.LCD_DisplayChar   lcd.o
    0x08002964   0x08002964   0x0000002a   Code   RO          560    i.LCD_DisplayStringLine  lcd.o
    0x0800298e   0x0800298e   0x00000002   PAD
    0x08002990   0x08002990   0x00000058   Code   RO          561    i.LCD_DrawChar      lcd.o
    0x080029e8   0x080029e8   0x00000034   Code   RO          567    i.LCD_Init          lcd.o
    0x08002a1c   0x08002a1c   0x00000184   Code   RO          417    i.LCD_Proc          task.o
    0x08002ba0   0x08002ba0   0x00000080   Code   RO          570    i.LCD_ReadReg       lcd.o
    0x08002c20   0x08002c20   0x00000010   Code   RO          571    i.LCD_SetBackColor  lcd.o
    0x08002c30   0x08002c30   0x00000018   Code   RO          572    i.LCD_SetCursor     lcd.o
    0x08002c48   0x08002c48   0x00000010   Code   RO          574    i.LCD_SetTextColor  lcd.o
    0x08002c58   0x08002c58   0x00000060   Code   RO          577    i.LCD_WriteRAM      lcd.o
    0x08002cb8   0x08002cb8   0x00000060   Code   RO          578    i.LCD_WriteRAM_Prepare  lcd.o
    0x08002d18   0x08002d18   0x00000070   Code   RO          579    i.LCD_WriteReg      lcd.o
    0x08002d88   0x08002d88   0x00000060   Code   RO          757    i.LED_DisPlay       led.o
    0x08002de8   0x08002de8   0x00000030   Code   RO          418    i.LED_Proc          task.o
    0x08002e18   0x08002e18   0x00000120   Code   RO          182    i.MX_GPIO_Init      gpio.o
    0x08002f38   0x08002f38   0x0000009c   Code   RO          212    i.MX_TIM2_Init      tim.o
    0x08002fd4   0x08002fd4   0x00000048   Code   RO          213    i.MX_TIM6_Init      tim.o
    0x0800301c   0x0800301c   0x00000068   Code   RO          265    i.MX_USART1_UART_Init  usart.o
    0x08003084   0x08003084   0x00000002   Code   RO          308    i.MemManage_Handler  stm32g4xx_it.o
    0x08003086   0x08003086   0x00000002   Code   RO          309    i.NMI_Handler       stm32g4xx_it.o
    0x08003088   0x08003088   0x00000018   Code   RO          480    i.PA1_Set_PWM_Duty  interrupt.o
    0x080030a0   0x080030a0   0x00000002   Code   RO          310    i.PendSV_Handler    stm32g4xx_it.o
    0x080030a2   0x080030a2   0x00000112   Code   RO          580    i.REG_8230_Init     lcd.o
    0x080031b4   0x080031b4   0x00000202   Code   RO          581    i.REG_932X_Init     lcd.o
    0x080033b6   0x080033b6   0x00000002   PAD
    0x080033b8   0x080033b8   0x0000006c   Code   RO          419    i.Read_Proc         task.o
    0x08003424   0x08003424   0x00000018   Code   RO          795    i.SCL_Output        i2c_hal.o
    0x0800343c   0x0800343c   0x00000018   Code   RO          796    i.SDA_Input         i2c_hal.o
    0x08003454   0x08003454   0x0000002c   Code   RO          797    i.SDA_Input_Mode    i2c_hal.o
    0x08003480   0x08003480   0x00000018   Code   RO          798    i.SDA_Output        i2c_hal.o
    0x08003498   0x08003498   0x0000002c   Code   RO          799    i.SDA_Output_Mode   i2c_hal.o
    0x080034c4   0x080034c4   0x00000002   Code   RO          311    i.SVC_Handler       stm32g4xx_it.o
    0x080034c6   0x080034c6   0x00000002   PAD
    0x080034c8   0x080034c8   0x000000b4   Code   RO          420    i.Serial_Proc       task.o
    0x0800357c   0x0800357c   0x00000004   Code   RO          312    i.SysTick_Handler   stm32g4xx_it.o
    0x08003580   0x08003580   0x0000006a   Code   RO            5    i.SystemClock_Config  main.o
    0x080035ea   0x080035ea   0x00000002   PAD
    0x080035ec   0x080035ec   0x00000010   Code   RO         4078    i.SystemInit        system_stm32g4xx.o
    0x080035fc   0x080035fc   0x0000000c   Code   RO          313    i.TIM6_DAC_IRQHandler  stm32g4xx_it.o
    0x08003608   0x08003608   0x000000bc   Code   RO          996    i.TIM_Base_SetConfig  stm32g4xx_hal_tim.o
    0x080036c4   0x080036c4   0x0000001a   Code   RO          997    i.TIM_CCxChannelCmd  stm32g4xx_hal_tim.o
    0x080036de   0x080036de   0x00000014   Code   RO         1007    i.TIM_ETR_SetConfig  stm32g4xx_hal_tim.o
    0x080036f2   0x080036f2   0x00000002   PAD
    0x080036f4   0x080036f4   0x00000014   Code   RO         1008    i.TIM_ITRx_SetConfig  stm32g4xx_hal_tim.o
    0x08003708   0x08003708   0x0000009c   Code   RO         1009    i.TIM_OC1_SetConfig  stm32g4xx_hal_tim.o
    0x080037a4   0x080037a4   0x00000090   Code   RO         1010    i.TIM_OC2_SetConfig  stm32g4xx_hal_tim.o
    0x08003834   0x08003834   0x00000090   Code   RO         1011    i.TIM_OC3_SetConfig  stm32g4xx_hal_tim.o
    0x080038c4   0x080038c4   0x00000090   Code   RO         1012    i.TIM_OC4_SetConfig  stm32g4xx_hal_tim.o
    0x08003954   0x08003954   0x00000070   Code   RO         1013    i.TIM_OC5_SetConfig  stm32g4xx_hal_tim.o
    0x080039c4   0x080039c4   0x00000070   Code   RO         1014    i.TIM_OC6_SetConfig  stm32g4xx_hal_tim.o
    0x08003a34   0x08003a34   0x00000022   Code   RO         1016    i.TIM_TI1_ConfigInputStage  stm32g4xx_hal_tim.o
    0x08003a56   0x08003a56   0x00000024   Code   RO         1018    i.TIM_TI2_ConfigInputStage  stm32g4xx_hal_tim.o
    0x08003a7a   0x08003a7a   0x00000002   PAD
    0x08003a7c   0x08003a7c   0x00000044   Code   RO         3973    i.UARTEx_SetNbDataToProcess  stm32g4xx_hal_uart_ex.o
    0x08003ac0   0x08003ac0   0x000000c8   Code   RO         3582    i.UART_AdvFeatureConfig  stm32g4xx_hal_uart.o
    0x08003b88   0x08003b88   0x000000ac   Code   RO         3583    i.UART_CheckIdleState  stm32g4xx_hal_uart.o
    0x08003c34   0x08003c34   0x00000014   Code   RO         3584    i.UART_DMAAbortOnError  stm32g4xx_hal_uart.o
    0x08003c48   0x08003c48   0x00000054   Code   RO         3594    i.UART_EndRxTransfer  stm32g4xx_hal_uart.o
    0x08003c9c   0x08003c9c   0x000000c8   Code   RO         3596    i.UART_RxISR_16BIT  stm32g4xx_hal_uart.o
    0x08003d64   0x08003d64   0x000001a0   Code   RO         3597    i.UART_RxISR_16BIT_FIFOEN  stm32g4xx_hal_uart.o
    0x08003f04   0x08003f04   0x000000c8   Code   RO         3598    i.UART_RxISR_8BIT   stm32g4xx_hal_uart.o
    0x08003fcc   0x08003fcc   0x000001a0   Code   RO         3599    i.UART_RxISR_8BIT_FIFOEN  stm32g4xx_hal_uart.o
    0x0800416c   0x0800416c   0x00000274   Code   RO         3600    i.UART_SetConfig    stm32g4xx_hal_uart.o
    0x080043e0   0x080043e0   0x00000110   Code   RO         3602    i.UART_Start_Receive_IT  stm32g4xx_hal_uart.o
    0x080044f0   0x080044f0   0x00000094   Code   RO         3607    i.UART_WaitOnFlagUntilTimeout  stm32g4xx_hal_uart.o
    0x08004584   0x08004584   0x0000000c   Code   RO          314    i.USART1_IRQHandler  stm32g4xx_it.o
    0x08004590   0x08004590   0x00000016   Code   RO          421    i.Update_Eeprom     task.o
    0x080045a6   0x080045a6   0x00000002   Code   RO          315    i.UsageFault_Handler  stm32g4xx_it.o
    0x080045a8   0x080045a8   0x00000020   Code   RO         4352    i.__0printf         mc_w.l(printfa.o)
    0x080045c8   0x080045c8   0x00000028   Code   RO         4354    i.__0sprintf        mc_w.l(printfa.o)
    0x080045f0   0x080045f0   0x00000020   Code   RO         3422    i.__NVIC_SetPriority  stm32g4xx_hal_cortex.o
    0x08004610   0x08004610   0x0000000e   Code   RO         4424    i.__scatterload_copy  mc_w.l(handlers.o)
    0x0800461e   0x0800461e   0x00000002   Code   RO         4425    i.__scatterload_null  mc_w.l(handlers.o)
    0x08004620   0x08004620   0x0000000e   Code   RO         4426    i.__scatterload_zeroinit  mc_w.l(handlers.o)
    0x0800462e   0x0800462e   0x00000002   PAD
    0x08004630   0x08004630   0x00000184   Code   RO         4359    i._fp_digits        mc_w.l(printfa.o)
    0x080047b4   0x080047b4   0x000006b4   Code   RO         4360    i._printf_core      mc_w.l(printfa.o)
    0x08004e68   0x08004e68   0x00000024   Code   RO         4361    i._printf_post_padding  mc_w.l(printfa.o)
    0x08004e8c   0x08004e8c   0x0000002e   Code   RO         4362    i._printf_pre_padding  mc_w.l(printfa.o)
    0x08004eba   0x08004eba   0x0000000a   Code   RO         4364    i._sputc            mc_w.l(printfa.o)
    0x08004ec4   0x08004ec4   0x0000000c   Code   RO          800    i.delay1            i2c_hal.o
    0x08004ed0   0x08004ed0   0x00000018   Code   RO          481    i.fputc             interrupt.o
    0x08004ee8   0x08004ee8   0x00000110   Code   RO            6    i.main              main.o
    0x08004ff8   0x08004ff8   0x000011d0   Data   RO          582    .constdata          lcd.o
    0x080061c8   0x080061c8   0x00000018   Data   RO         3608    .constdata          stm32g4xx_hal_uart.o
    0x080061e0   0x080061e0   0x00000010   Data   RO         3974    .constdata          stm32g4xx_hal_uart_ex.o
    0x080061f0   0x080061f0   0x00000010   Data   RO         4079    .constdata          system_stm32g4xx.o
    0x08006200   0x08006200   0x00000008   Data   RO         4080    .constdata          system_stm32g4xx.o
    0x08006208   0x08006208   0x00000020   Data   RO         4422    Region$$Table       anon$$obj.o


    Execution Region RW_IRAM1 (Exec base: 0x20000000, Load base: 0x08006228, Size: 0x000005a8, Max: 0x00008000, ABSOLUTE)

    Exec Addr    Load Addr    Size         Type   Attr      Idx    E Section Name        Object

    0x20000000   0x08006228   0x0000000e   Data   RW          423    .data               task.o
    0x2000000e   0x08006236   0x00000002   Data   RW          424    .data               task.o
    0x20000010   0x08006238   0x00000014   Data   RW          483    .data               interrupt.o
    0x20000024   0x0800624c   0x00000006   Data   RW          583    .data               lcd.o
    0x2000002a   0x08006252   0x00000002   Data   RW          758    .data               led.o
    0x2000002c   0x08006254   0x0000000c   Data   RW         2324    .data               stm32g4xx_hal.o
    0x20000038   0x08006260   0x00000004   Data   RW         4081    .data               system_stm32g4xx.o
    0x2000003c   0x08006264   0x00000004   Data   RW         4400    .data               mc_w.l(stdout.o)
    0x20000040        -       0x00000098   Zero   RW          214    .bss                tim.o
    0x200000d8        -       0x00000094   Zero   RW          266    .bss                usart.o
    0x2000016c        -       0x0000001e   Zero   RW          422    .bss                task.o
    0x2000018a        -       0x0000001e   Zero   RW          482    .bss                interrupt.o
    0x200001a8        -       0x00000400   Zero   RW          891    STACK               startup_stm32g431xx.o


==============================================================================

Image component sizes


      Code (inc. data)   RO Data    RW Data    ZI Data      Debug   Object Name

       288         18          0          0          0       1199   gpio.o
       762         28          0          0          0      10300   i2c_hal.o
       276         42          0         20         30       3463   interrupt.o
        64          4          0          0          0        611   key.o
      1782         78       4560          6          0      12974   lcd.o
        96         12          0          2          0        694   led.o
       382         42          0          0          0     647373   main.o
        36          8        472          0       1024        852   startup_stm32g431xx.o
       162         24          0         12          0       4801   stm32g4xx_hal.o
       198         14          0          0          0      34247   stm32g4xx_hal_cortex.o
       226          0          0          0          0       2143   stm32g4xx_hal_dma.o
       604         34          0          0          0       3275   stm32g4xx_hal_gpio.o
        48          6          0          0          0        998   stm32g4xx_hal_msp.o
       204         18          0          0          0       1541   stm32g4xx_hal_pwr_ex.o
      1688         92          0          0          0       6676   stm32g4xx_hal_rcc.o
       648         10          0          0          0       2012   stm32g4xx_hal_rcc_ex.o
      2680        258          0          0          0      20602   stm32g4xx_hal_tim.o
       170         24          0          0          0       6040   stm32g4xx_hal_tim_ex.o
      3894        140         24          0          0      38502   stm32g4xx_hal_uart.o
       288          6         16          0          0       5914   stm32g4xx_hal_uart_ex.o
        44         12          0          0          0       5852   stm32g4xx_it.o
        16          4         24          4          0       1331   system_stm32g4xx.o
      1062        242          0         16         30       5224   task.o
       384         26          0          0        152       3453   tim.o
       244         18          0          0        148       2066   usart.o

    ----------------------------------------------------------------------
     16272       1160       5128         60       1384     822143   Object Totals
         0          0         32          0          0          0   (incl. Generated)
        26          0          0          0          0          0   (incl. Padding)

    ----------------------------------------------------------------------

      Code (inc. data)   RO Data    RW Data    ZI Data      Debug   Library Member Name

         0          0          0          0          0          0   entry.o
         0          0          0          0          0          0   entry10a.o
         0          0          0          0          0          0   entry11a.o
         4          0          0          0          0          0   entry12b.o
         8          4          0          0          0          0   entry2.o
         4          0          0          0          0          0   entry5.o
         0          0          0          0          0          0   entry7b.o
         0          0          0          0          0          0   entry8b.o
         8          4          0          0          0          0   entry9a.o
        30          0          0          0          0          0   handlers.o
        36          8          0          0          0         68   init.o
         0          0          0          0          0          0   iusefp.o
        30          0          0          0          0         68   llshl.o
        36          0          0          0          0         68   llsshr.o
        32          0          0          0          0         68   llushr.o
        36          0          0          0          0        108   memseta.o
      2268         96          0          0          0        616   printfa.o
         0          0          0          4          0          0   stdout.o
        44          0          0          0          0         80   uidiv.o
        98          0          0          0          0         92   uldiv.o
        48          0          0          0          0         68   cdrcmple.o
       334          0          0          0          0        148   dadd.o
       222          0          0          0          0        100   ddiv.o
       186          0          0          0          0        176   depilogue.o
        48          0          0          0          0         68   dfixul.o
        26          0          0          0          0         76   dfltui.o
       228          0          0          0          0         96   dmul.o

    ----------------------------------------------------------------------
      3728        112          0          4          0       1900   Library Totals
         2          0          0          0          0          0   (incl. Padding)

    ----------------------------------------------------------------------

      Code (inc. data)   RO Data    RW Data    ZI Data      Debug   Library Name

      2634        112          0          4          0       1168   mc_w.l
      1092          0          0          0          0        732   mf_w.l

    ----------------------------------------------------------------------
      3728        112          0          4          0       1900   Library Totals

    ----------------------------------------------------------------------

==============================================================================


      Code (inc. data)   RO Data    RW Data    ZI Data      Debug   

     20000       1272       5128         64       1384     809059   Grand Totals
     20000       1272       5128         64       1384     809059   ELF Image Totals
     20000       1272       5128         64          0          0   ROM Totals

==============================================================================

    Total RO  Size (Code + RO Data)                25128 (  24.54kB)
    Total RW  Size (RW Data + ZI Data)              1448 (   1.41kB)
    Total ROM Size (Code + RO Data + RW Data)      25192 (  24.60kB)

==============================================================================

