:020000040800F2
:10000000F8070020890200088B2C0008371F000821
:10001000892C00086B0700087D38000800000000EC
:100020000000000000000000000000000131000896
:100030006D07000800000000492D0008033100088A
:10004000A3020008A3020008A3020008A3020008FC
:10005000A3020008A3020008A3020008A3020008EC
:10006000A3020008A3020008A3020008A3020008DC
:10007000A3020008A3020008A3020008A3020008CC
:10008000A302000800000000A3020008A302000869
:10009000A3020008A3020008A3020008A3020008AC
:1000A000A3020008A3020008A3020008A30200089C
:1000B00035320008A3020008A3020008A3020008CA
:1000C000A3020008A3020008A3020008A30200087C
:1000D000A3020008A3020008A3020008A30200086C
:1000E000A3020008A3020008A3020008A30200085C
:1000F000A3020008A3020008A302000800000000F9
:1001000000000000A302000800000000A302000895
:10011000A302000800000000413200084D32000830
:10012000A3020008A3020008A3020008A30200081B
:10013000A30200080000000000000000A302000865
:10014000A3020008A3020008000000000000000055
:10015000000000000000000000000000000000009F
:10016000000000000000000000000000A3020008E2
:10017000A3020008000000000000000000000000D2
:1001800000000000A30200080000000000000000C2
:10019000000000000000000000000000000000005F
:1001A0000000000000000000A3020008A3020008F5
:1001B000A3020008A3020008A30200080000000038
:1001C00000000000A3020008000000000000000082
:1001D000A3020008A302000800F002F800F044F8AF
:1001E0000AA090E8000C82448344AAF10107DA4592
:1001F00001D100F039F8AFF2090EBAE80F0013F0A0
:10020000010F18BFFB1A43F0010318473C490000D7
:100210005C490000103A24BF78C878C1FAD8520768
:1002200024BF30C830C144BF04680C607047000070
:100230000023002400250026103A28BF78C1FBD8EF
:10024000520728BF30C148BF0B607047642900F0D7
:100250009F80732900F04B82002070471FB503F088
:1002600075FB1FBD10B510BD00F045FA1146FFF734
:10027000F5FF03F021FB00F063FA03B4FFF7F2FF90
:1002800003BC00F06BFA00000948804709480047AA
:10029000FEE7FEE7FEE7FEE7FEE7FEE7FEE7FEE736
:1002A000FEE7FEE704480549054A064B7047000093
:1002B00025320008D9010008F8010020F8070020C5
:1002C000F8030020F80300200FB41CB5074B06AA62
:1002D0007B4469460090059800F0DFF900206946EC
:1002E00000F0EEF91CBC5DF814FB0000ED0300000B
:1002F00070B5044685690068C10601D5302600E066
:100300002026C00707D070BDD4E9012130469047B0
:10031000206A401C20626D1EF6D570BD70B5044683
:1003200085690078C00707D170BDD4E9012120207C
:100330009047206A401C20626D1EF6D570BD70B5D6
:100340000C460546012A05D02878800600D5EA69C2
:10035000002302E0012305E05B1C934202D2E05C33
:100360000028F9D1A869E618C01AA861286A1844BB
:1003700028622846FFF7BCFF04E0D5E9012114F804
:10038000010B9047B442F8D32846FFF7C7FF70BD72
:100390002DE9F0410646002410687529314616A55E
:1003A00010D0AFF30080002802DA404213A507E026
:1003B00031688A0701D512A502E0490704D511A5C5
:1003C000012401E0AFF3008000210A2206F1240796
:1003D00009E0B0FBF2FCB0FBF2F302FB1C00303092
:1003E00078541846491C0028F3D123462A46304643
:1003F000BDE8F04100F0F2B8000000002D00000060
:100400002B000000200000002DE9F05F8946044623
:100410004FF0000ADFF824B1FB44C0F820A02046CA
:10042000E168884700287DD0252806D0D4E901213D
:100430009047206A401C2062F1E700255F46204675
:10044000E16888472028064607DB312E05D2B81917
:1004500010F8200C08B10543F1E7A80701D525F0F5
:100460000405C4F81CA00027C4F818A02A2E09D03F
:10047000304603F014FA38B304EB8708303EC8F86E
:10048000186019E059F8041B204604EB87029161BB
:10049000E1688847012F064618D1E069002820DA74
:1004A00025F020051DE0D8F8180000EB800006EBD1
:1004B00040003038C8F818002046E16888470646F2
:1004C00003F0EDF90028EED1012F0AD02E2E08D12D
:1004D0002046E16888477F1C0646022F45F020052C
:1004E000C4DBA069002803DA404245F00105A061A1
:1004F000E80701D025F01005A6B1A6F141001928A2
:1005000002D8203645F400654A463146204625602B
:100510004D46FFF79BFE60B1012807D0ED1D25F089
:10052000070000E007E000F1080978E705F1040999
:1005300075E730467AE7206ABDE8F09F1A47000069
:1005400040EA0103024630B59B0710D14FF0013459
:1005500000E008C208C91D1B9D4315EAC41FF8D05E
:1005600013F0FF0102F8011B0DD01B0AF8E711F888
:10057000013B002B02F8013B05D011F8013B002B99
:1005800002F8013BF3D130BD4FF0000200B5134635
:1005900094469646203922BFA0E80C50A0E80C50A3
:1005A000B1F12001BFF4F7AF090728BFA0E80C5054
:1005B00048BF0CC05DF804EB890028BF40F8042B4D
:1005C00008BF704748BF20F8022B11F0804F18BFBA
:1005D00000F8012B70477047704770472DE9F047CE
:1005E0000D4699469246044600F1240801688806A3
:1005F00004D5E06921F01001216000E00120A8424B
:1006000001DD471B00E00027A1697A1902EB090010
:10061000081AA0612078C00602D42046FFF768FEC1
:10062000002608E0D4E901211AF806009047206A64
:10063000401C761C20624E45F4DB2078C0060AD5AB
:100640002046FFF755FE06E0D4E90121302090470F
:10065000206A401C2062381EA7F10107F4DC07E085
:10066000D4E9012118F805009047206A401C206257
:10067000281EA5F10105F3DC2046FFF74FFE207888
:10068000000602D50220BDE8F0870120FBE700004C
:1006900001694A1C02610878704700B58FB0CDE946
:1006A00001310021059105497944CDE90310114636
:1006B0006846FFF7A9FE0FB000BD0000E5FFFFFF91
:1006C0000A6802F8010B0A60704710B5436913B15C
:1006D000AFF3008001E0FFF732FE012010BD127879
:1006E00000F124010A7000224A700122EDE711682E
:1006F0004FF0FF32E9E7754600F02CF8AE460500F2
:100700006946534620F00700854618B020B5FFF72C
:10071000C9FDBDE820404FF000064FF000074FF044
:1007200000084FF0000B21F00701AC46ACE8C0090F
:10073000ACE8C009ACE8C009ACE8C0098D46704718
:1007400010B50446AFF300802046BDE81040FFF727
:1007500094BD00000048704798010020014918200E
:10076000ABBEFEE7260002007047FEE7704700229E
:1007700040F6B83306E00021491C89B29942FBD308
:10078000521C92B28242F6D3704710B5044601F073
:1007900067FCA02001F025FC01F098FC204601F048
:1007A00020FC01F093FC01F05BFCA12001F019FC9E
:1007B00001F0FFFB01F0D6FB044601F039FC01F02B
:1007C0006AFC0A2000F020F8204610BD70B50D46E6
:1007D000044601F045FCA02001F003FC01F076FC8A
:1007E000204601F0FEFB01F071FC284601F0F9FB08
:1007F00001F06CFC01F04FFCBDE870400A2000F0F5
:1008000003B872B6FEE7000070B5044600F03CF98C
:100810000546601C02D004484068044400F034F9E6
:10082000401BA042FAD370BD300000202DE9F04FEC
:10083000DFF82092002301260324A9F1040B85B0E0
:100840000F2709F1040AABF1040EFAE006FA03F5EA
:100850002A407CD091F804C00CF0030CBCF1010FCD
:1008600002D0BCF1020F26D1D0F808C0CDF800C0EC
:100870004FEA430C04FA0CF8CDF810C0DDF800C0C4
:100880002CEA080CCDF800C0D1F80C80DDF810C0BF
:1008900008FA0CF8DDF800C048EA0C08C0F8088037
:1008A000D0F804C02CEA050C0D79C5F300159D4065
:1008B00045EA0C0545600D79ED43AD070ED0C568DE
:1008C0004FEA430804FA08FC25EA0C05D1F808C0F1
:1008D0000CFA08FC4CEA050CC0F80CC00D7905F0C8
:1008E0000305022D16D1DD0800EB850CCDF808C0FC
:1008F000DCF820805D074FEAD56C07FA0CF528EA92
:1009000005080D6905FA0CF5DDF808C045EA08058B
:10091000CCF8205005684FEA430CCDF808C004FA23
:100920000CFC25EA0C0591F804C00CF00308DDF876
:1009300008C008FA0CF848EA0508C0F800804D68BD
:1009400015F4403F7CD0444DD5F860C000E077E01E
:100950004CF0010CC5F860C02D6E23F0030C05F0BF
:10096000010500953D4D65440295AD684FEA837CD5
:100970004FEA1C7807FA08FC25EA0C05B0F1904F05
:1009800006D0DFF8DCC0604505D14FF0010C20E057
:100990004FF0000C1DE0DFF8CCC0604502D14FF0F5
:1009A000020C16E0DFF8C0C0604502D14FF0030C26
:1009B0000FE0DFF8B8C0604502D14FF0040C08E04A
:1009C000DFF8ACC0604502D14FF0050C01E04FF0FC
:1009D000060C0CFA08FC4CEA050C029DC5F808C090
:1009E000D9F80050CC46D1F8048095435FEAC82876
:1009F00000D51543CCF80050DAF80050D446D1F8B1
:100A0000048095435FEA882800D51543CCF8005050
:100A1000DBF80050DC46D1F8048095435FEA883863
:100A200000D51543CCF80050DEF80050F446D1F85C
:100A3000048095435FEAC83800D51543CCF80050D0
:100A40005B1C0A6832FA03F57FF400AF05B0BDE81D
:100A5000F08F000008040140001002400000014037
:100A60000004004800080048000C0048001000483E
:100A7000001400480069084000D0012070470AB106
:100A8000816170478162704701488068704700004B
:100A9000300000200248816842681144816070473C
:100AA0003000002010B50024032000F073F80F2060
:100AB00000F008F808B1012401E000F025F8204614
:100AC00010BD000070B50E4E05460024706898B148
:100AD0004FF47A71B1FBF0F00A490968B1FBF0F00C
:100AE00000F0F6FB40B9102D06D200222946501E18
:100AF00000F030F8356000E00124204670BD0000B1
:100B0000300000203C0000200A4882B0016E41F015
:100B100001010166016E01F001010091816D41F05A
:100B200080518165806D00F08050009002B000F02F
:100B3000A1B8000000100240002809DB00F01F02ED
:100B4000012191404009800000F1E020C0F800112F
:100B500070470000F0B40E4B1B680C46C3F3022331
:100B6000C3F10705042D00D90425191D072901D259
:100B7000002300E0DB1E012606FA05F1491E214094
:100B800099409E40761E16403143F0BC02F077BE7D
:100B90000CED00E0064900F0070208684FF6FF037D
:100BA000184040EA0220034A1043086070470000E2
:100BB0000CED00E00000FA052B492C4B0A683221AD
:100BC0004A432B4940B1B0F5007F086829D020F492
:100BD000C06040F480602CE00868C0F34120022827
:100BE00004D051F8800F20F4807022E0D1F880000A
:100BF00020F48070C1F88000086820F4C06040F4E0
:100C000000700860B2FBF3F0401C00E0401E4A692F
:100C1000520501D50028F9D1486940050AD50320BD
:100C20007047C0F34120022806D051F8800F40F4ED
:100C30008070086000207047D1F8800040F4807018
:100C4000C1F88000086820F4C06040F400700860BB
:100C5000B2FBF3F0401C00E0401E4A695205DBD5B0
:100C60000028F9D1D8E700003C00002040420F00E6
:100C7000007000400248816841F480418160704703
:100C8000007000402DE9F0470E4605004FF00007C8
:100C900025D0DFF8AC81D8F8000000F00F00B0429A
:100CA0000CD2D8F8001021F00F013143C8F8001021
:100CB000D8F8000000F00F00B04210D12968614C54
:100CC000C80741F2883A5AD06868DFF87C91032857
:100CD00008D0022820682DD0400500282CDB0120F8
:100CE000BDE8F08720688001F9D5E06800F00302D4
:100CF000E068C0F30310401C032A19D0534A00BF18
:100D0000B2FBF0F0E268C2F306225043E268C2F39D
:100D10004162521C5200B0FBF2F0484517D9A0685E
:100D200010F0F00F0CD0880711D5A86840B10EE084
:100D3000474AE5E78003D0E700F092F8484506D936
:100D4000A06820F0F00040F08000A0608027A0683C
:100D5000696820F003000843A060FFF795FE814614
:100D600006E000BFFFF790FEA0EB090151453AD81D
:100D7000A068696800F00C00B0EB810FF2D1286820
:100D8000810714D5400703D5A06840F4E060A06057
:100D90002878000705D5A06820F4605040F4E06092
:100DA000A060A068A96820F0F000084304E0802F4C
:100DB00003D1A06820F0F000A060D8F800104046F1
:100DC00001F00F01B14216D9016821F00F01314342
:100DD0000160FFF759FE074607E000BFFFF754FE2A
:100DE000C11B514501D903207AE7D8F8000000F073
:100DF0000F00B042F2D12878400705D5A068E96815
:100E000020F4E0600843A0602878000706D5A068B9
:100E1000296920F4605040EAC100A06000F020F889
:100E2000A1680C4AC1F30311515C01F01F01C840D5
:100E30000949086009480068BDE8F047FFF742BE6D
:100E4000002002400010024000B4C4040024F4005A
:100E500000127A00264B00083C00002030000020E1
:100E6000184910B58868C0F381021748012A0BD0D1
:100E70008A684310C2F38102022A06D08A68C2F34C
:100E80008102032A03D0002010BD184610BDCA6895
:100E900002F00304CA68C2F30312521C032C02D0EE
:100EA000B0FBF2F001E0B3FBF2F0CA68C968C2F32C
:100EB00006225043C1F34161491C4900B0FBF1F0E7
:100EC00010BD0000001002400024F4002DE9F8439A
:100ED00004007AD02078F84DC00747D0A868E968A8
:100EE00000F00C0001F003010C2802D0082817D0F4
:100EF00001E0032914D06068B0F5803F17D0B0F549
:100F0000A02F286817D020F480302860286820F4AB
:100F1000802028606068E0B1FFF7B6FD064614E067
:100F20002868800322D560680028D2D01EE0286897
:100F300040F48030EDE740F480202860F7E700BF00
:100F4000FFF7A2FD801B642870D828688003F7D5BE
:100F50000CE0FFF799FD064605E000BFFFF794FDA2
:100F6000801B6428F0D828688003F7D42078800795
:100F70004CD5A868E96800F00C0001F003010C28CA
:100F800002D004280DD001E002290AD0E068002830
:100F900028682BD040F480702860FFF775FD064666
:100FA00019E02868400502D5E068002891D06868FB
:100FB000217C20F0FE4040EA01606860BF48006884
:100FC000FFF780FD002800D120E072E1FFF75CFD13
:100FD000801B0228B8D828684005F7D56868217CAE
:100FE00020F0FE4040EA016068600FE020F480706D
:100FF0002860FFF749FD064605E000BFFFF744FD06
:10100000801B0228A0D828684005F7D42078000764
:1010100029D560690028D5F8940013D040F001006C
:10102000C5F89400FFF730FD064606E090E000BFEB
:10103000FFF72AFD801B022886D8D5F89400800788
:10104000F6D510E020F00100C5F89400FFF71CFD74
:10105000064604E0FFF718FD801B022878D8D5F873
:1010600094008007F6D42078400761D5A86D00264B
:10107000C00008D4A86D40F08050A865A86D012676
:1010800000F0805000908E480168C90511D40168B5
:10109000804641F480710160FFF7F6FC074604E0EA
:1010A000FFF7F2FCC01B022852D8D8F80000C00598
:1010B000F6D5A068012815D00528D5F8900016D0DF
:1010C00020F00100C5F89000D5F8900020F0040051
:1010D000C5F89000A06841F28838B8B1FFF7D4FC99
:1010E00007460EE0D5F8900040F00100F0E740F030
:1010F0000400C5F89000F5E7FFF7C6FCC11B4145A9
:1011000026D8D5F890008007F6D50CE0FFF7BCFC98
:10111000074604E0FFF7B8FCC11B414518D8D5F8D5
:1011200090008007F6D41EB1A86D20F08050A8650D
:101130002078800629D5A0690028D5F8980013D01A
:1011400040F00100C5F89800FFF79EFC064606E057
:1011500075E000BFFFF798FC801B02286FD8D5F818
:1011600098008007F6D510E020F00100C5F898003F
:10117000FFF78AFC064604E0FFF786FC801B022886
:101180005DD8D5F898008007F6D4E069F0B3A96877
:10119000C1F3810103295DD00228286820F0807006
:1011A000286003D0FFF770FC04464BE0FFF76CFCAF
:1011B000064604E0FFF768FC801B02283FD8286839
:1011C0008001F7D4F4E908016FF00F0202EB01117E
:1011D0000843218A5204490802EB4151A26841EABE
:1011E00002210843217D4FF07E42490802EB416114
:1011F0000843217B40EAC160E968324A1140084354
:10120000E860286840F08070286000E05EE0E868F0
:1012100040F08070E860FFF737FC044605E000BF4F
:10122000FFF732FC001B022809D828688001F7D597
:101230004CE000BFFFF728FC001B022802D9032066
:10124000BDE8F88328688001F4D4E8681E490840A6
:10125000E8603BE00128F3D0E868226A00F003016F
:10126000914226D1616A00F0F002090110399142E1
:101270001FD1A26A00F4FE41B1EB022F19D194F8FC
:101280002C2000F07841B1EBC26F12D1218E00F416
:10129000C00249084905A1F50011914209D194F80D
:1012A000341000F0C06049084906A1F10071814284
:1012B0000CD00120C4E700000010024030000020E4
:1012C000007000400C809F01FCFFEEFE0020B7E79D
:1012D00010B5401EB0F1807F01D3012010BD4FF04A
:1012E000E02460610F21601702F0C9FA0020A061BC
:1012F00007202061002010BD70477047704770477D
:1013000070477047F0B590F83C20012A3AD001258B
:1013100080F83C50022280F83D2003685A689C689F
:10132000194E1A4FB34201D0BB4204D122F4700CC3
:101330004A6842EA0C02DFF858C002EA0C02D1F80F
:1013400000C04CEA020CC3F804C00268B2420DD0DF
:10135000B2F1804F0AD00F4B9A4207D00E4B9A42FF
:1013600004D0BA4202D00D4B9A4204D1896824F0CD
:1013700080031943916080F83D50002180F83C10B3
:101380000846F0BD0220F0BD002C014000340140B1
:101390008FFFFFFD000400400008004000400140B6
:1013A000704710B5040003D094F83D0010B107E079
:1013B000012010BD002084F83C00204600F022F8F7
:1013C000022084F83D00211D206801F045FF012026
:1013D00084F8480084F83E0084F83F0084F8400018
:1013E00084F8410084F8420084F8430084F8440003
:1013F00084F8450084F8460084F8470084F83D00EE
:10140000002010BD10B586B0044614216846FFF7D1
:10141000BBF821682E48B1F1804F0CD02D4A914283
:101420002FD1816D41F002018165806D00F00200D5
:10143000059006B010BD816D41F001018165816D9F
:1014400001F001010591C16C41F00101C164C06C62
:10145000694600F0010005904FF400400090022022
:101460000190002002900390012004904FF09040E2
:10147000FFF7DCF9002211461C20FFF76BFB1C2054
:1014800010E0154A914210D1816D41F01001816543
:10149000806D002200F01000059011463620FFF705
:1014A00059FB3620FFF748FBC3E70C4A9142C0D1F5
:1014B000816D41F020018165806D002200F02000E7
:1014C000059011463720FFF745FB3720EAE700007B
:1014D00000100240000400400010004000140040D2
:1014E00090F83D10012901D001207047022180F8B9
:1014F0003D100168CA6842F00102CA6000681049E4
:1015000088420ED0B0F1804F0BD00E49884208D0EF
:101510000D49884205D00D49884202D00C498842C5
:1015200007D181680B4A1140062906D0B1F5803FEA
:1015300003D0016841F00101016000207047000004
:10154000002C01400004004000080040003401402D
:1015500000400140070001000168CA6822F0010252
:10156000CA6001680A6A41F211131A4207D10A6A75
:101570009B001A4203D10A6822F001020A6001218D
:1015800080F83D100020704770B5044690F83C008C
:101590000025012814D0012684F83C60022084F83C
:1015A0003D0022689068364B184020F47F409060E0
:1015B000086870282ED010DC10F00F0F03D021E047
:1015C0004FF0020070BD4FEA2012072A1AD2DFE85E
:1015D00002F0525252524A3840002A4BC21A9842E4
:1015E00049D009DCB0F5805F0DD0B0F5005F1CD0AC
:1015F000B0F1101F06D13EE0102A3CD0202A3AD08C
:10160000502A38D0012584F83D60002084F83C0041
:10161000284670BDCB68D1E90121206801F087FE22
:101620002068816841F0770109E0CB68D1E90121A8
:10163000206801F07CFE2068816841F4804181606F
:10164000E1E7CA684968206802F084F85021206800
:1016500006E0CA684968206802F0C4F86021206882
:1016600001F070FECFE7CA684968206802F072F89E
:1016700040212068F4E7226801461046F0E70000A8
:1016800088FFCEFF2000100010B50168B1F1804F37
:101690001AD1007F012817D100210C4800F00AFC64
:1016A0000B4C04212080094800F004FC81B26180C9
:1016B0002088002808D0074AB2FBF0F2A2806422FA
:1016C0005143B1FBF0F0E08010BD0000400000206D
:1016D0000C00002040420F002DE9F041054690F833
:1016E0003C0000260C46012810D0012085F83C0063
:1016F00072B1042A1CD0082A2CD00C2A50D0012602
:10170000002085F83C003046BDE8F0810220FBE770
:10171000D4E90012E368286802F02EF8286881698D
:1017200021F00C01816128688169A26811430FE0F2
:10173000D4E90012E368286802F066F82868816935
:1017400021F44061816128688169A26841EA02212F
:101750008161D5E72868D4E9002C277B036A016AF8
:1017600021F480710162C16923F4206321F0030137
:1017700041EA0C0121F0F00C39074FF420674CEAE4
:10178000116107EA02221A43C16102622868C16935
:1017900021F00C01C1612868C169A26811432BE0E6
:1017A0002868D4E90021E768036AD0F820C02CF447
:1017B000805CC0F820C0D0F81CC023F420432CF477
:1017C000407C4CEA012121F4704C4FF6FF7101EA94
:1017D00007314FF4204741EA0C0107EA02321A436D
:1017E000C16102622868C16921F44061C161286851
:1017F000C169A26841EA0221C16181E710B5040014
:1018000003D094F83D0010B107E0012010BD002086
:1018100084F83C00204600F022F8022084F83D00C5
:10182000211D206801F018FD012084F8480084F88B
:101830003E0084F83F0084F8400084F8410084F8BA
:10184000420084F8430084F8440084F8450084F89A
:10185000460084F8470084F83D00002010BD704722
:1018600030B50446002571B1042911D0082914D0DF
:101870000C2917D0102918D094F8430094F8472069
:10188000012817D114E094F83E0094F84420F7E7BB
:1018900094F83F0094F84520F2E794F8400094F85B
:1018A0004620EDE794F84100E8E794F84200E5E7C8
:1018B000012A01D0012030BD022079B1042916D0BF
:1018C00008291DD00C2949D010294AD084F843009A
:1018D00084F847000C2947D001253DE084F83E00FC
:1018E00084F844002068C26842F0020210E084F8E4
:1018F0003F0084F845002068C26842F0040207E017
:1019000084F8400084F846002068C26842F008026B
:10191000C2600122206801F0FDFC1649206888425F
:101920000ED0B0F1804F0BD01349884208D0134934
:10193000884205D01249884202D01249884207D114
:101940008168114A1140062906D0B1F5803F03D0C5
:10195000016841F001010160284630BD84F8410072
:10196000B6E784F84200B3E72068C26842F010028C
:10197000CEE70000002C01400004004000080040B9
:101980000034014000400140070001002DE9F04112
:1019900004460068C66805694FF00007A90713D51B
:1019A000B10711D5F91E01610120207720688069F7
:1019B0008007204602D0FFF767FE04E000F017F929
:1019C000204600F047F92777680716D5700714D529
:1019D00021686FF004000861022020772068806988
:1019E00010F4407F204602D0FFF74EFE04E000F0E6
:1019F000FEF8204600F02EF92777280715D5300786
:101A000013D521686FF00800086104202077206852
:101A1000C0698007204602D0FFF736FE04E000F0E0
:101A2000E6F8204600F016F92777E80616D5F00606
:101A300014D521686FF01000086108202077206815
:101A4000C06910F4407F204602D0FFF71DFE04E07D
:101A500000F0CDF8204600F0FDF82777E80708D021
:101A6000F00706D021686FF001000861204600F001
:101A7000C7F9280601D4A80408D5300606D5216880
:101A80006FF4025008612046FFF737FCE80508D5DF
:101A9000300606D521686FF4807008612046FFF794
:101AA0002BFC680608D5700606D521686FF040004B
:101AB0000861204600F03EFAA80608D5B00606D513
:101AC00021686FF0200008612046FFF717FCE8024C
:101AD00008D5F00206D521686FF480100861204611
:101AE000FFF70EFCA80208D5B00206D521686FF4F6
:101AF000001008612046FFF702FC680208D570025A
:101B000006D521686FF4800008612046FFF7F9FBD5
:101B100028020AD5300208D521686FF40000086158
:101B20002046BDE8F041FFF73BBCBDE8F081000076
:101B300010B586B0044614216846FEF725FD0E490F
:101B40002068884215D10D48C16C41F00101C16483
:101B5000C06C002100F001000590402000900220A0
:101B6000CDE90101CDE9031069464FF09040FEF741
:101B70005DFE06B010BD00000004004000100240F1
:101B800070B5044690F83C00002501280BD00120D8
:101B900084F83C000C2A1ED007DC82B1042A12D043
:101BA000082A06D113E0022070BD102A17D0142A8B
:101BB00019D00125002084F83C00284670BD20681B
:101BC00001F0CAFBF6E7206801F014FCF2E7206898
:101BD00001F058FCEEE7206801F09CFCEAE7206881
:101BE00001F0E0FCE6E7206801F014FDE2E7704751
:101BF00010B5040003D094F83D0010B107E00120B7
:101C000010BD002084F83C00204600F022F802209D
:101C100084F83D00211D206801F01EFB012084F89E
:101C2000480084F83E0084F83F0084F8400084F8BF
:101C3000410084F8420084F8430084F8440084F8AA
:101C4000450084F8460084F8470084F83D000020F1
:101C500010BD70477047000030B50446022269B1DC
:101C6000042912D0082917D00C291CD0102921D002
:101C700094F84300012824D0012030BD94F83E00A0
:101C80000128F9D184F83E201DE094F83F00012896
:101C9000F2D184F83F2016E094F840000128EBD1FF
:101CA00084F840200FE094F841000128E4D184F842
:101CB000412008E094F842000128DDD184F8422058
:101CC00001E084F843200122206801F023FB194B36
:101CD00020681949194A984209D0884207D0904291
:101CE00005D0174DA84202D0164DA84203D1456C2D
:101CF00045F400454564206898420CD0B0F1804F0F
:101D000009D0114B984206D0104B984203D088421C
:101D100001D0904207D181680D4A1140062906D0B2
:101D2000B1F5803F03D0016841F00101016000205E
:101D300030BD0000002C0140003401400040014053
:101D400000440140004801400004004000080040F9
:101D50000700010030B504460D460068002201F07E
:101D6000D9FA224B41F2111120688A0098420BD017
:101D70001F4B984208D01F4B984205D01E4B9842EB
:101D800002D01E4B984209D1036A0B4206D1036A66
:101D9000134203D1436C23F4004343642068036A75
:101DA0000B4206D1016A114203D1016821F0010101
:101DB000016001205DB1042D0CD0082D0DD00C2D3B
:101DC0000ED0102D0FD084F84300002030BD84F8D1
:101DD0003E00FAE784F83F00F7E784F84000F4E7B4
:101DE00084F84100F1E784F84200EEE7002C01405E
:101DF00000340140004001400044014000480140DF
:101E000010B504460068274988422DD126494888E4
:101E1000401C80B24880B0F5FA7F05D10020488090
:101E2000487880F0010048704A880920B2FBF0F33E
:101E300000FB132008B9012008703220B2FBF0F338
:101E400000FB132008B9022008702820B2FBF0F331
:101E500000FB132008B903200870134902F00700A3
:101E6000091D095C00F02EFD10492068884217D139
:101E70000F488178491EC9B281703C2910D93B2195
:101E800081704278521ED2B242703C2A08D9417009
:101E90000178491EC9B20170182901D917210170B2
:101EA00010BD0000001000400000002000140040A1
:101EB0001D0000200246002041B1042909D0082954
:101EC0000AD00C2901D11068006C70471068406B73
:101ED00070471068806B70471068C06B704770B5B2
:101EE000044690F83C00012812D0012584F83C50AB
:101EF000022084F83D00204601F0C4FB01004FF0B1
:101F0000000007D084F83D5084F83C00012070BDEB
:101F1000022070BD2168CA6822F04002CA602168B0
:101F2000CA6822F48042CA6084F83D5084F83C00BC
:101F3000002070BD7047FEE700B585B014216846EB
:101F4000FEF722FBC02000900120019002900220A9
:101F5000039069460248FEF769FC05B000BD000029
:101F60000004004870B50824002501F091F813E042
:101F70006806050E002001F073F8142001F096FCAD
:101F8000142001F093FC012001F06AF8142001F004
:101F90008DFC01F071F80543641EE4B2E8D2002024
:101FA00001F05EF8142001F081FC01F093F828465E
:101FB00070BD10B5002001F081F8142001F076FC0E
:101FC000142001F073FC012001F04AF8142001F004
:101FD0006DFC002001F044F8BDE81040142001F031
:101FE00065BC70B50446082516E001F039F81420E8
:101FF00001F05CFC04F0800001F060F8142001F0B6
:1020000055FC6006040E142001F050FC012001F084
:1020100027F8142001F04AFC6D1EEDB24FF00000CD
:10202000E3D201F01DF8BDE87040142001F03EBC81
:1020300010B5012001F042F8142001F037FC142003
:1020400001F034FC012001F00BF8142001F02EFC0B
:10205000002001F005F8BDE81040142001F026BC76
:1020600010B5012001F02AF8142001F01FFC012016
:1020700000F0F6FF142001F019FC002001F01EF81A
:10208000142001F013FC002000F0EAFFBDE810402E
:10209000142001F00BBC10B5002000F0E1FF14206B
:1020A00001F004FC002001F009F8142001F0FEFB0F
:1020B000012000F0D5FF142001F0F8FB012000F012
:1020C000FDFFBDE81040142001F0F0BB10B5052461
:1020D00000F0DEFF142001F0E9FB012000F0C0FF5A
:1020E000142001F0E3FB05E0641EA4B2142001F00B
:1020F000DDFB64B100F0C0FF0028F5D100F0B0FFB7
:10210000142001F0D3FB00F0E5FF002010BD00F02B
:10211000E1FFFFF7C0FF012010BD00002DE9F041F5
:1021200061480178012959D10026067000F0C2F8F3
:102130005E4C01276070217920EA01024140814311
:10214000A270E1702071012A23D12078401CC0B216
:102150002070052800D92770207800EB4000801EF1
:10216000C0B2FEF712FB514D09352870207800EB04
:102170004000401EC0B2FEF708FB6870207800EBFC
:102180004000C0B2FEF701FBA870B4F80910A181AD
:10219000A073A1784648891E022901D801682161EF
:1021A00000682169414D401A0C35B0F5487F3BD29B
:1021B000E07802280AD0032812D004280ED1E07952
:1021C00090F00100E0712CD002202BE0A771207A62
:1021D000401CC0B22072032800D12672BDE8F081F5
:1021E000A0790128FAD1207A58B1012811D002280B
:1021F000F4D1A878401CC0B2A8703C28EED3AE70D1
:10220000ECE72878401CC0B228701828E6D32E705E
:10221000E4E76878401CC0B268703C28DED36E707A
:10222000DCE70320A071D9E72079022805D0032834
:102230001ED00428D2D1A671D0E76079A071207891
:10224000297800EB4000801EC0B2FEF7BFFA20786C
:10225000697800EB4000401EC0B2FEF7B7FA207864
:10226000A978BDE8F04100EB4000C0B2FEF7AEBA7D
:10227000207A50B101280FD00228AFD1A878401C95
:10228000C0B2A8703C28BAD8A8E72878401CC0B2D1
:1022900028701828BBD8A1E76878401CC0B26870C5
:1022A0003C28BCD89AE70000000000201400002061
:1022B0003800002070B50E4D002401212846FEF79D
:1022C000D9FB00B9012402212846FEF7D3FB00B94F
:1022D000022404212846FEF7CDFB00B90324012186
:1022E0004FF09040FEF7C6FB00B90424204670BDB5
:1022F0000004004800B585B014216846FEF744F993
:102300004FF6FF70009000200321CDE902010190FB
:1023100069460248FEF78AFA05B000BD0008004889
:1023200000B585B014216846FEF72EF94FF6FF7010
:102330000090012001900320039000200290694644
:102340000248FEF773FA05B000BD0000000800481F
:1023500070B5002406462146204600F007FA00F03A
:1023600049FA4FF49635304600F014FA641CAC423A
:10237000F9D370BD30B587B014216846FEF704F973
:102380001E48C16C41F00401C164C16C01F004013C
:102390000591C16C41F00101C164C16C01F0010102
:1023A0000591C16C41F00201C164C06C012500F0CF
:1023B000020005904FF44870CDE900050024039415
:1023C000694602940E48FEF731FA28020394009001
:1023D000CDE901544FF0904469462046FEF726FAB5
:1023E000FFF79EFFA06940F48070A0610448183098
:1023F000016841F40871016007B030BD001002406F
:1024000000040048203AD2B2034B02EB420203EB35
:10241000021200F019B8000056390008F0B50E4657
:102420000746002540F23F1407E021463846FFF7F3
:10243000E9FF103C6D1CA4B2761C3278002A01D052
:10244000142DF2D3F0BD00002DE9F04791468A46E5
:102450000026044600F08AF9DFF84080012700BF1B
:1024600000F0C8F95FF0000539F8160007FA05F129
:102470000842404601D1408800E0008800F08AF917
:102480006D1C102DF0D3641CE4B25146204600F0C0
:102490006DF9761C182EE3D3BDE8F08728000020E4
:1024A00010B5FFF767FF002000F018F9084CA08076
:1024B000A088A0F50241303906D000F0CFFC002002
:1024C00000F00CF9A08010BD00F03FFCF7E7000021
:1024D000280000202DE9F8436148017802297CD1C9
:1024E000604D00210170A8795F4E01282CD02A7818
:1024F0005EA16148FDF7E8FE5F493020FFF78EFFDF
:1025000005F1090081780091437802785BA15A486F
:10251000FDF7DAFE58497820FFF780FF564A5EA1A2
:102520000A3A5548FDF7D0FE5349A820FFF776FF39
:10253000F388B2885BA15048FDF7C6FEBDE8F843BA
:102540004D49D820FFF76ABF4FF6FF78404600F0AC
:1025500005F92A7858A14848FDF7B6FE46493020CB
:10256000FFF75CFF3F4C57A10C34A07800906378D4
:1025700022784148FDF7A8FE3F497820FFF74EFF3B
:102580003D4A45A10A3A3C48FDF79EFE3A49A8203B
:10259000FFF744FFF388B28842A13748FDF794FE65
:1025A0003549D820FFF73AFFA889A5F80900A87B8C
:1025B000E872287A4FF478470A26B8B9384600F00E
:1025C000CDF82078B0FBF6F106FB1102D02178207F
:1025D0003032FFF717FF207800E03EE0B0FBF6F066
:1025E0003030C2B2E0217820FFF70CFF287A0128B2
:1025F00015D1384600F0B2F86078B0FBF6F106FB72
:102600001102A02178203032FFF7FCFE6078B02163
:10261000B0FBF6F03030C2B27820FFF7F3FE287A34
:10262000022815D1384600F099F8A078B0FBF6F1F1
:1026300006FB1102702178203032FFF7E3FEA0780C
:102640008021B0FBF6F03030C2B27820FFF7DAFE1E
:102650004046BDE8F84300F081B8BDE8F8830000CB
:1026600000000020140000200C000020202020206A
:102670004E6F2025642020007A0100202020202099
:102680002020253032643A253032643A25303264D5
:102690002020202020200000202020202020202575
:1026A000732020002020202044793A2564204652BF
:1026B000513A256420200000202020204E6F202544
:1026C00064200000202020202020253032643A257C
:1026D0003032643A253032642020000070B51D4944
:1026E0000A6842F400720A600A6842F480720A6062
:1026F000184C103C226842F020022260164A1060FA
:10270000086840F02000086000BF00BF00BF2068DC
:1027100040F020002060206840F480702060FFF7C7
:10272000E9FD4FF09041886A40F48070886200BFF4
:1027300000BF00BF0848001F006885B2886940F4E8
:1027400080708861FFF7ECFD206840F40070206025
:10275000284670BD280400481408004801B5BDF89B
:1027600000000149488008BD2800002010B50C4633
:102770000146202000F06EF82146BDE810402120DF
:1027800000F068B801B5BDF800000149088008BD37
:102790002800002030B5154B1C68154A116841F41B
:1027A00000711160124910390D6845F480750D6093
:1027B0000D6845F020050D601860106840F020009D
:1027C000106000BF00BF00BF086840F02000086034
:1027D000086840F48070086000BF00BF00BF086850
:1027E00040F4007008601C6030BD00001408004810
:1027F00028040048154A10B513681549086840F4C4
:1028000000700860086840F4807008601048103854
:10281000046844F020040460222414600C6844F02E
:1028200020040C6000BF00BF00BF016841F0200120
:102830000160016841F48071016000BF00BF00BF0A
:10284000016841F400710160136010BD1408004874
:102850002804004870B5194C2568194B1A6842F4D1
:1028600000721A601A6842F480721A60144A103AB0
:10287000166846F0200616602060186840F02000B8
:10288000186000BF00BF00BF106840F0200010605B
:10289000106840F4807010602160186840F02000DB
:1028A000186000BF00BF00BF106840F0200010603B
:1028B000106840F480701060256070BD14080048F6
:1028C0002804004870B5144C01228240207811B1D0
:1028D0000243227001E090432070207861788842A2
:1028E00019D00E4D01224FF47F412846FEF7C7F85C
:1028F0002078002201022846FEF7C1F8084D012287
:1029000004212846FEF7BBF8002204212846FEF7E2
:10291000B6F82078607070BD2E00002000080048D6
:10292000000C004870B50D480E4C81790C48022906
:1029300008D00025057029462046FFF70BFA2068CD
:10294000456370BD08490978017000210548FFF70B
:1029500083F921685020486370BD000014000020F6
:10296000040000208C000020010000202DE9F04F21
:1029700087B014216846FDF707FE4048C16C41F05E
:102980000401C164C16C01F004010591C16C41F006
:102990002001C164C16C01F020010591C16C41F0BE
:1029A0000101C164C16C01F001010591C16C41F0EC
:1029B0000201C164C16C01F002010591C16C41F0DA
:1029C0000801C164C06CDFF8B88000F008004FF661
:1029D000FF740590002221464046FEF750F84FF460
:1029E00080764FF09049002231464846FEF747F87E
:1029F000DFF890A0002204215046FEF740F8DFF8EF
:102A000088B04FF44877002239465846FEF737F829
:102A10000125CDE90045002402946946404603940F
:102A2000FDF704FFCDE90054694648460294FDF7DE
:102A3000FDFE0720CDE90004694658460294FDF7E3
:102A4000F5FE0096CDE90154694648460394FDF72A
:102A5000EDFE04200090CDE90154694650460394F0
:102A6000FDF7E4FE0097CDE901546946584603940A
:102A7000FDF7DCFE07B0BDE8F08F0000001002405B
:102A800000080048000C00480004004810B590B051
:102A9000002409940A940B94142104A80C94FDF7C3
:102AA00073FD2C4800940394019402940D940E94A9
:102AB0004FF080410F9401604F21C0E90114611E65
:102AC000C0E903148461FEF76CFC08B1FDF799FEC0
:102AD0004FF48050099009A91E48FEF755FD08B132
:102AE000FDF78FFE1B48FEF789FE08B1FDF789FE52
:102AF000042004905020CDE90504079404A915484A
:102B00000894FFF7ECF908B1FDF77BFE0120CDE951
:102B100000400294002269460E480394FEF7DCFD53
:102B200008B1FDF76EFE0220009001900422694674
:102B30000848FEF7D1FD08B1FDF763FE0D940DA91D
:102B400004480F94FEF7DEFB002801D0FDF759FE84
:102B500010B010BD4000002010B58EB000240794C6
:102B6000089409940A940B940C941C2168460D94C3
:102B7000FDF70AFD1E481D49016040F21F31C0E902
:102B800001146321C0E9031480218161FEF709FC6F
:102B900008B1FDF736FE4FF48050079007A914489E
:102BA000FEF7F2FC08B1FDF72CFE1148FFF720F804
:102BB00008B1FDF726FE0B940BA90D480D94FEF706
:102BC000A1FB08B1FDF71DFE5020CDE900400294A5
:102BD0000022694606480494FEF7D2FF08B1FDF7CB
:102BE00010FE0348FEF7A4FF0EB010BD0004004025
:102BF0008C0000203EB500240F48009401940D493C
:102C0000029401604F21C0E9011440F2E731C16034
:102C100080218161FEF7C5FB08B1FDF7F2FD00944C
:102C2000694605480294FEF76DFB002801D0FDF7C8
:102C3000E8FD3EBD00100040D80000203EB5002455
:102C40001048009401940E490294016049F63F41F6
:102C5000C0E9011440F2CF71C16080218161FEF7AB
:102C6000A0FB08B1FDF7CDFD00946946054802942C
:102C7000FEF748FB002801D0FDF7C3FD3EBD000074
:102C80000014004024010020FEE7FEE770B5234851
:102C90000178032941D1224D00240470A879214EE6
:102CA00001280ED0687148B900F0DCFDEC71346089
:102CB000746034811CA13046FDF742FCA8790128DC
:102CC00008D100F0CFFD34607460348118A115483C
:102CD000FDF736FCA879022810D100F0B1FD346070
:102CE0007460348114A10F48FDF72AFC0C480930A8
:102CF000017819B9417809B9807868B1A8790328B1
:102D00000BD100F0AFFD346074603481BDE87040D9
:102D10000BA10448FDF714BCAC7170BD000000208D
:102D200014000020700100205374616E6462790009
:102D300053657474696E670052756E6E696E6700D4
:102D40005061757365000000704730B501210020A7
:102D5000FFF780FD4FF47A70FDF709FD0021012097
:102D6000FFF778FD41F290711020FFF773FD4FF4EB
:102D70001C516020FFF76EFD01216120FFF76AFD05
:102D800002214620FFF766FD48F210011320FFF7ED
:102D900061FD48F2FE011220FFF75CFD4FF4A061D7
:102DA0000220FFF757FD41F230010320FFF752FDEB
:102DB00040F2033421463020FFF74CFD21463120FC
:102DC000FFF748FD21463220FFF744FDE51E294666
:102DD0003320FFF73FFD03213420FFF73BFD214661
:102DE0003520FFF737FD14213620FFF733FD21464C
:102DF0003720FFF72FFD21463820FFF72BFD214616
:102E00003920FFF727FD29463A20FFF723FD03214C
:102E10003B20FFF71FFD21463C20FFF71BFD4FF431
:102E2000A0513D20FFF716FD4FF400719220FFF7EF
:102E300011FD21469320FFF70DFD40F60D01902076
:102E4000FFF708FD41F218010320FFF703FDBDE87D
:102E5000304040F273110720FFF7FCBC10B543F27D
:102E60000801E320FFF7F6FC1221E720FFF7F2FC50
:102E700041F23121EF20FFF7EDFC00210120FFF7A7
:102E8000E9FC4FF4E0610220FFF7E4FC41F230017D
:102E90000320FFF7DFFC00210420FFF7DBFC40F2FA
:102EA00007210820FFF7D6FC00210920FFF7D2FCFC
:102EB00000210A20FFF7CEFC00210C20FFF7CAFCFE
:102EC00000210D20FFF7C6FC00210F20FFF7C2FCF8
:102ED00000211020FFF7BEFC07211120FFF7BAFCEC
:102EE00000211220FFF7B6FC00211320FFF7B2FCEF
:102EF000C820FDF789FC41F290611020FFF7AAFC81
:102F000040F227211120FFF7A5FC3220FDF77CFCC1
:102F10001D211220FFF79EFC3220FDF775FC4FF4B7
:102F200000611320FFF796FC14212920FFF792FC83
:102F30000B212B20FFF78EFC3220FDF765FC0021D2
:102F40002020FFF787FC00212120FFF783FC0721C9
:102F50003020FFF77FFC40F207713120FFF77AFC49
:102F600006213220FFF776FC40F204713520FFF78E
:102F700071FC41F604713620FFF76CFC0421372008
:102F8000FFF768FC00213820FFF764FC40F206716F
:102F90003920FFF75FFC40F201713C20FFF75AFC3B
:102FA0000F213D20FFF756FC00215020FFF752FC77
:102FB000EF215120FFF74EFC00215220FFF74AFC81
:102FC00040F23F115320FFF745FC4FF41C516020A5
:102FD000FFF740FC01216120FFF73CFC00216A2043
:102FE000FFF738FC00218020FFF734FC002181200E
:102FF000FFF730FC00218220FFF72CFC002183200A
:10300000FFF728FC00218420FFF724FC0021852005
:10301000FFF720FC10219020FFF71CFC00219220DC
:10302000FFF718FC03219320FFF714FC4FF488717D
:103030009520FFF70FFC00219720FFF70BFC0021E4
:103040009820FFF707FC41F218010320FFF702FC6C
:10305000BDE8104040F273110720FFF7FBBB0000F2
:1030600008B1044801E003481030016841F0400114
:10307000016070471804004810B580210348FDF72F
:10308000F9FC012800D0002010BD00000004004819
:1030900000B585B014216846FDF776FA80200090CF
:1030A000002001900120029002200390694602480E
:1030B000FDF7BCFB05B000BD0004004808B10448A2
:1030C00001E003481030016841F080010160704761
:1030D0001804004800B585B014216846FDF754FA7D
:1030E0008020009011200190002002900220039087
:1030F00069460248FDF79AFB05B000BD0004004890
:103100007047FDF7C7BC000010B56520FDF73DFB1B
:10311000652841D065210846FDF758FB00210120B4
:10312000FDF754FB00210220FDF750FB0021032096
:10313000FDF74CFB00210420FDF748FB0021052092
:10314000FDF744FB00210620FDF740FB002107208E
:10315000FDF73CFB00210820FDF738FB002109208A
:10316000FDF734FB00210A20FDF730FB00210B2086
:10317000FDF72CFB00210C20FDF728FB00210D2082
:10318000FDF724FB00210E20FDF720FB0021BDE808
:1031900010400F20FDF71ABB0120FDF7F6FA054C91
:1031A00020700220FDF7F1FA60700320FDF7EDFAC0
:1031B000A07010BD1D00002000B593B038216846F6
:1031C000FDF7E2F914210EA8FDF7DEF94FF40070C7
:1031D000FDF7F2FC0220C10103914021049101217D
:1031E000CDE9080100900A21CDE90A1007900C9062
:1031F0000D906846FDF76AFE08B172B6FEE70F2033
:103200000E9003200F900020109011901290022138
:103210000EA8FDF737FD002801D072B6FEE713B007
:1032200000BD00000248016841F470010160704770
:1032300088ED00E00148FEF7A9BB00004000002037
:103240000148FEF7A3BB0000D80000200148FEF7AC
:103250009DBB0000240100202DE9F0430268264BAD
:10326000264D274E274C4FF08049984207D04845BD
:1032700005D0A84203D0B04201D0A04203D122F031
:1032800070074A683A43204FDFF880C0DFF880803B
:1032900098420DD048450BD0A84209D0B04207D083
:1032A000A04205D0B84203D0604501D0404503D1CB
:1032B00022F44075CA682A434D6922F080022A43ED
:1032C00002608A68C2620A688262984207D0A0429D
:1032D00005D0B84203D0604501D0404501D109690D
:1032E0000163012141610169C90703D0016921F02E
:1032F00001010161BDE8F083002C014000040040A1
:1033000000080040003401400040014000440140FA
:103310000048014010B501F01F030121046A9940E3
:103320008C430462016A9A401143016210BD10B5DA
:10333000846842EA032224F47F440A4322438260E1
:1033400010BD00008268034B1A400A4342F0070197
:10335000816070478FFFCFFF2DE9F043056A026A55
:1033600022F001020262436882691C4C25F00205CA
:1033700022400C6822F0030214438A68194E2A4343
:10338000174D194FDFF864C0DFF86490A84207D0EA
:10339000B04205D0B84203D0604501D0484506D1BF
:1033A00022F00808CA6842EA080222F00402A84291
:1033B00007D0B04205D0B84203D0604501D048459F
:1033C00005D14D6923F440731D438B692B43436042
:1033D0008461496841630262BDE8F0838FFFFEFFAC
:1033E000002C0140003401400040014000440140F5
:1033F00000480140F0B5056A026A22F0100202623C
:1034000042688369194C1B4E23400C6823F44073B7
:1034100043EA042425F020038D6843EA0513144D84
:10342000A84201D0B04206D1CF6823F0800343EA1E
:10343000071323F04003A8420AD0B04208D00E4D33
:10344000A84205D00D4DA84202D00D4DA84207D18B
:103450004D6922F4406242EA85028D6942EA8502A2
:1034600042608461496881630362F0BDFF8FFFFEA3
:10347000002C014000340140004001400044014064
:1034800000480140F0B5056A026A22F480720262C7
:103490004368C269194C1B4E22400C6822F003029B
:1034A000144325F400728D6842EA0522144DA842A7
:1034B00001D0B04206D1CF6822F4006242EA07226E
:1034C00022F48062A8420AD0B04208D00E4DA84231
:1034D00005D00E4DA84202D00D4DA84207D14D692E
:1034E00023F4405343EA05138D6943EA051343600F
:1034F000C4614968C1630262F0BD00008FFFFEFF36
:10350000002C0140003401400040014000440140D3
:1035100000480140F0B5056A026A22F48052026256
:103520004268C369194C1B4E23400C6823F4407356
:1035300043EA042425F400538D6843EA0533144D0F
:10354000A84201D0B04206D1CF6823F4004343EA39
:10355000073323F48043A8420AD0B04208D00E4D6E
:10356000A84205D00D4DA84202D00D4DA84207D16A
:103570004D6922F4404242EA85128D6942EA851281
:103580004260C461496801640362F0BDFF8FFFFEC1
:10359000002C014000340140004001400044014043
:1035A0000048014030B5056A026A22F480320262A6
:1035B0004268036D114C23400C681C4325F4003312
:1035C0000D8943EA05430E4DA8420BD00D4DA8428C
:1035D00008D00D4DA84205D00C4DA84202D00C4D8C
:1035E000A84204D14D6922F4803242EA05224260A9
:1035F000046549688164036230BD00008FFFFEFFEF
:10360000002C0140003401400040014000440140D2
:103610000048014030B5046A026A22F48012026256
:103620004268036D114D24F400142B400D6843EAE9
:1036300005230D8944EA05540D4DA8420BD00D4DCC
:10364000A84208D00C4DA84205D00C4DA84202D08B
:103650000B4DA84204D14D6922F4802242EA852212
:10366000426003654968C164046230BDFF8FFFFE9C
:10367000002C014000340140004001400044014062
:103680000048014070B505680024AA682E4B1A4016
:103690004B6813432D4A13400A681A43AA604A68CC
:1036A000602A4AD00DDC302A1FD005DCEAB1102A8E
:1036B0001BD0202A18D118E0402A1FD0502A13D13D
:1036C00035E0234D531BAA420FD009DC702A0ED0DF
:1036D000B2F1101F09D0203AB2F5801F04D104E0E6
:1036E000102B02D0402B00D00124204670BD0B6966
:1036F000D1E902210068FFF71AFEF6E70A68052AF9
:1037000013D0B2F1011F10D00268136A156A25F0B8
:103710000105156202689569096925F0F00545EA19
:103720000111916100680362DFE7012070BD0A6941
:103730008968006800F00EF8D7E70A6989680068B0
:1037400000F050F8D1E700008FFFCFFFF8FFFEFF39
:103750003000100010B5036A046A24F0010404620A
:10376000846924F0F00444EA021423F00A020A43B4
:103770008461026210BD000070B5056A046A24F01D
:10378000010404628469124EB0420ED0B0F1804F41
:103790000BD0104EB04208D00F4EB04205D00F4EA5
:1037A000B04202D00E4EB04203D124F003041443C1
:1037B00001E044F001041A0724F0F00444EA126224
:1037C00025F00A0301F00A0119438261016270BD0C
:1037D000002C01400004004000080040003401407B
:1037E0000040014010B5036A046A24F0100404622A
:1037F000846923F0A00324F4704444EA023243EACB
:1038000001118261016210BD30B5046A056A25F0BC
:1038100010050562856925F4407545EA022222F407
:1038200070454FF6FF7202EA033224F0A0032A43E8
:10383000A02404EA011119438261016230BD000035
:1038400010B50648FDF74CFE00210548FEF704FAC6
:10385000034950200968486310BD0000240100207E
:103860008C00002010B50448FDF776FE02490020C8
:103870000968486210BD000024010020FEE7090726
:10388000090E002804DB00F1E02080F800147047E6
:1038900000F00F0000F1E02080F8141D7047303870
:1038A0000A2801D20120704700207047002100E063
:1038B000491C8142FCD37047FDF7F4F8FFF77CFC0C
:1038C000FFF754F8FFF748F9FFF794F9FFF7B6F957
:1038D000FFF7DCF8FEF7E4FDFEF72EFB1748FDF7D7
:1038E000FFFD00211648FDF7BBFF04211448FDF73A
:1038F000B7FF1448FDF730FE124800240068446208
:1039000021461148FEF726FA0F48006844634FF637
:10391000FF742046FEF71CFD0020FEF733FF204613
:10392000FEF71CFFFFF7F0FBFEF7F8FBFEF7D2FDFA
:10393000FEF7F8FFFFF7AAF9F6E70000D80000202D
:1039400040000020240100208C0000204FF0407037
:10395000E1EE100A704700000000000000000000C7
:103960000000000000000000000000000000000057
:103970000000000000000000000000000000000047
:103980000000000000000000800180018001800133
:10399000800180018001800180018001800180011F
:1039A0008001000000008001800100000000000094
:1039B00000000000000000000000CC00CC00CC00A3
:1039C000CC00CC00CC000000000000000000000093
:1039D00000000000000000000000000000000000E7
:1039E00000000000000000000000000000000000D7
:1039F0000000600C600C600C30063006FE1FFE1FDD
:103A0000300638071803FE1FFE1F180318038C0129
:103A10008C018C01000000008000E003F80F9C0E78
:103A20008C1C8C188C009800F801E007800E801C1C
:103A30008C188C189C18B80CF00FE00380008000E4
:103A40000000000000000000000000000E181B0C29
:103A5000110C11061106110311039B018E01C038D0
:103A6000C06C60446044304430441844186C0C38D6
:103A70000000000000000000E001F0033807180615
:103A800018063003F001F000F8009C310E33061EDA
:103A9000061C061C063FFC73F0210000000000001D
:103AA000000000000000000000000C000C000C00F2
:103AB0000C000C000C0000000000000000000000E2
:103AC00000000000000000000000000000000000F6
:103AD0000000000000000000000200038001C000A0
:103AE000C000600060003000300030003000300066
:103AF00030003000300060006000C000C000800175
:103B0000000300020000000020006000C0008001EF
:103B10008001000300030006000600060006000600
:103B20000006000600060003000380018001C000BB
:103B30006000200000000000000000000000000005
:103B40000000C000C000D806F807E00130033807C5
:103B50000000000000000000000000000000000065
:103B60000000000000000000000000000000000055
:103B7000000080018001800180018001FC3FFC3F4A
:103B800080018001800180018001000000000000B0
:103B90000000000000000000000000000000000025
:103BA0000000000000000000000000000000000015
:103BB0000000000000000000800180010001000101
:103BC0008000000000000000000000000000000075
:103BD0000000000000000000000000000000E007FE
:103BE000E0070000000000000000000000000000EE
:103BF00000000000000000000000000000000000C5
:103C000000000000000000000000000000000000B4
:103C10000000000000000000C000C0000000000024
:103C20000000000000000000000C000C0006000670
:103C3000000600030003000380038001800180016F
:103C4000C000C000C0006000600000000000000074
:103C50000000000000000000E003F007380E180C20
:103C60000C180C180C180C180C180C180C180C1834
:103C70000C18180C380EF007E003000000000000DC
:103C8000000000000000000000018001C001F00100
:103C900098018801800180018001800180018001FC
:103CA000800180018001800180010000000000008F
:103CB0000000000000000000E003F80F180C0C18D2
:103CC0000C1800180018000C000600038001C0004A
:103CD000600030001800FC1FFC1F00000000000006
:103CE0000000000000000000E001F807180E0C0CB6
:103CF0000C0C000C0006C003C007000C00180018D4
:103D00000C180C18180CF807E00300000000000065
:103D10000000000000000000000C000E000F000F6B
:103D2000800DC00C600C600C300C180C0C0CFC3FAF
:103D3000FC3F000C000C000C000C00000000000018
:103D40000000000000000000F80FF80F1800180035
:103D50000C00EC03FC071C0E001C001800180018D7
:103D60000C181C0C180EF807E003000000000000FF
:103D70000000000000000000C007F00F381C1818F9
:103D800018000C00CC03EC0F3C0E1C1C0C180C187B
:103D90000C18181C380EF007E003000000000000AB
:103DA0000000000000000000FC1FFC1F000C0006CB
:103DB0000006000380038001C001C000E000600035
:103DC0006000700030003000300000000000000093
:103DD0000000000000000000E003F007380E180C9F
:103DE000180C180C3806F007F007180C0C180C18F3
:103DF0000C180C18380CF80FE0030000000000004D
:103E00000000000000000000E003F007380E1C0C6A
:103E10000C180C180C181C1C381EF81BE019001884
:103E2000000C000C1C0EF807F00100000000000060
:103E30000000000000000000000000000000000082
:103E40000000800180010000000000000000000070
:103E50000000000000008001800100000000000060
:103E60000000000000000000000000000000000052
:103E70000000800180010000000000000000000040
:103E800000000000000080018001000100018000AE
:103E90000000000000000000000000000000000022
:103EA0000000000000000010001C800FE003F8007C
:103EB0001800F800E003800F001C00100000000054
:103EC00000000000000000000000000000000000F2
:103ED000000000000000F81F000000000000F81FB4
:103EE00000000000000000000000000000000000D2
:103EF00000000000000000000000000000000000C2
:103F000000000000000008003800F001C007001F9A
:103F10000018001FC007F001380008000000000072
:103F20000000000000000000E003F80F180C0C185F
:103F30000C180018000C000600038001C000C0002F
:103F4000C00000000000C000C00000000000000031
:103F500000000000000000000000E0071818042026
:103F6000C229224A1144094409440944092211136F
:103F7000E20C024004201818E007000000000000D6
:103F8000000000000000000080038003C006C0069F
:103F9000C006600C600C301830183018F83FF83F3D
:103FA0001C700C600C6006C006C000000000000021
:103FB0000000000000000000FC03FC0F0C0C0C18BB
:103FC0000C180C180C0CFC07FC0F0C180C300C30E7
:103FD0000C300C300C18FC1FFC0700000000000027
:103FE0000000000000000000C007F01F38381C303F
:103FF0000C700660060006000600060006000600BB
:1040000006600C701C30F01FE0070000000000008C
:104010000000000000000000FE03FE0F060E061860
:1040200006180630063006300630063006300630F8
:1040300006180618060EFE0FFE0300000000000022
:104040000000000000000000FC3FFC3F0C000C00E2
:104050000C000C000C00FC1FFC1F0C000C000C00E2
:104060000C000C000C00FC3FFC3F000000000000B6
:104070000000000000000000F83FF83F18001800A2
:10408000180018001800F81FF81F18001800180072
:1040900018001800180018001800000000000000A8
:1040A0000000000000000000E00FF83F3C780E60C8
:1040B00006E007C00300030003FE03FE03C007C0C1
:1040C00006C00EC03CF0F83FE00F0000000000000A
:1040D00000000000000000000C300C300C300C30F0
:1040E0000C300C300C30FC3FFC3F0C300C300C30F2
:1040F0000C300C300C300C300C3000000000000094
:1041000000000000000000008001800180018001AB
:104110008001800180018001800180018001800197
:10412000800180018001800180010000000000000A
:104130000000000000000000000600060006000667
:10414000000600060006000600060006000600063F
:10415000180618063807F003E00100000000000010
:10416000000000000000000006300618060C0606DD
:1041700006038601C60066007600DE008E01060397
:104180000606060C06180630066000000000000057
:1041900000000000000000001800180018001800BF
:1041A000180018001800180018001800180018004F
:1041B000180018001800F81FF81F00000000000089
:1041C00000000000000000000EE01EF01EF01EF0D7
:1041D00036D836D836D836D866CC66CC66CCC6C685
:1041E000C6C6C6C6C6C686C386C300000000000099
:1041F00000000000000000000C301C303C303C305F
:104200006C306C30CC30CC308C310C330C330C3601
:104210000C360C3C0C3C0C380C300000000000004C
:104220000000000000000000E007F81F1C380E70BE
:10423000066003C003C003C003C003C003C003C0C3
:1042400006600E701C38F81FE00700000000000038
:104250000000000000000000FC0FFC1F0C380C30B8
:104260000C300C300C300C18FC1FFC070C000C0040
:104270000C000C000C000C000C0000000000000002
:104280000000000000000000E007F81F1C380E705E
:10429000066003E003C003C003C003C003C007E01F
:1042A00006630E3F1C3CF83FE0F700C00000000032
:1042B0000000000000000000FE0FFE1F0638063060
:1042C000063006300638FE1FFE0706030606060CFB
:1042D00006180618063006300660000000000000D0
:1042E0000000000000000000E003F80F1C0C0C1898
:1042F0000C180C001C00F803E00F001E00380630FC
:1043000006300E301C1CF80FE00700000000000013
:104310000000000000000000FE7FFE7F80018001A1
:104320008001800180018001800180018001800185
:1043300080018001800180018001000000000000F8
:1043400000000000000000000C300C300C300C307D
:104350000C300C300C300C300C300C300C300C307D
:104360000C300C301818F81FE007000000000000A7
:104370000000000000000000036006300630063038
:104380000C180C180C18180C180C380E30063006C7
:10439000700760036003C001C0010000000000005E
:1043A00000000000000000000360C361C361C3613E
:1043B0006633663366336633663366336C1B6C1B59
:1043C0006C1B2C1A3C1E380E380E0000000000003A
:1043D00000000000000000000FE00C7018303018E2
:1043E000700C600EC00780038003C003E006700CF1
:1043F000301C18180C300E6007E0000000000000B0
:10440000000000000000000003C006600C301C38F3
:104410003818300C6006E007C0038001800180017D
:104420008001800180018001800100000000000007
:104430000000000000000000FC7FFC7F00600030F6
:104440000018000C000600038001C000600030006E
:1044500018000C000600FE7FFE7F00000000000038
:104460000000000000000000E003E00360006000C6
:10447000600060006000600060006000600060003C
:10448000600060006000600060006000600060002C
:10449000E003E00300000000300030006000600036
:1044A0006000C000C000C000C00180018001800128
:1044B00000030003000300060006000000000000E7
:1044C0000000000000000000E003E0030003000320
:1044D00000030003000300030003000300030003C4
:1044E00000030003000300030003000300030003B4
:1044F000E003E003000000000000C001C001600311
:104500006003600330063006180C180C0000000031
:10451000000000000000000000000000000000009B
:10452000000000000000000000000000000000008B
:10453000000000000000000000000000000000007B
:104540000000000000000000FFFFFFFF000000006F
:1045500000000000000000000C000C000C000C002B
:104560000C000C0000000000000000000000000033
:10457000000000000000000000000000000000003B
:10458000000000000000000000000000000000002B
:104590000000F003F8071C0C0C0C000FF00FF80CD7
:1045A0000C0C0C0C1C0FF80FF018000000000000A1
:1045B000000000000000000018001800180018009B
:1045C0001800D803F80F380C1818181818181818ED
:1045D00018181818380CF80FD80300000000000055
:1045E00000000000000000000000000000000000CB
:1045F0000000C003F007300E180C18001800180057
:104600001800180C300EF007C00300000000000076
:10461000000000000000000000180018001800183A
:104620000018C01BF01F301C18181818181818187C
:1046300018181818301CF01FC01B000000000000E4
:10464000000000000000000000000000000000006A
:104650000000C003F00F300C1818F81FF81F1800E6
:1046600018003818301CF00FC007000000000000D0
:104670000000000000000000800FC00FC000C0005C
:10468000C000F007F007C000C000C000C000C000BC
:10469000C000C000C000C000C0000000000000005A
:1046A000000000000000000000000000000000000A
:1046B0000000E00DF80F180E0C0C0C0C0C0C0C0C80
:1046C0000C0C0C0C180EF80FE00D000C0C0C1C065A
:1046D000F807F0010000000018001800180018008A
:1046E0001800D807F80F381C1818181818181818B8
:1046F00018181818181818181818000000000000CA
:104700000000000000000000C000C0000000000029
:104710000000C000C000C000C000C000C000C00059
:10472000C000C000C000C000C000000000000000C9
:104730000000000000000000C000C00000000000F9
:104740000000C000C000C000C000C000C000C00029
:10475000C000C000C000C000C000C000C000C00059
:10476000F8007800000000000C000C000C000C00A9
:104770000C000C0C0C060C038C01CC006C00FC0033
:104780009C018C030C030C060C0C000000000000C4
:104790000000000000000000C000C000C000C00019
:1047A000C000C000C000C000C000C000C000C00009
:1047B000C000C000C000C000C00000000000000039
:1047C00000000000000000000000000000000000E9
:1047D00000007C3CFF7EC7E383C183C183C183C1EA
:1047E00083C183C183C183C183C100000000000075
:1047F00000000000000000000000000000000000B9
:1048000000009807F80F381C1818181818181818EE
:1048100018181818181818181818000000000000A8
:104820000000000000000000000000000000000088
:104830000000C003F00F300C1818181818181818BA
:1048400018181818300CF00FC0030000000000000A
:104850000000000000000000000000000000000058
:104860000000D803F80F380C181818181818181862
:1048700018181818380CF80FD8031800180018006A
:1048800018001800000000000000000000000000F8
:104890000000C01BF01F301C181818181818181822
:1048A00018181818301CF01FC01B0018001800182A
:1048B00000180018000000000000000000000000C8
:1048C0000000B007F003700030003000300030000E
:1048D00030003000300030003000000000000000E8
:1048E00000000000000000000000000000000000C8
:1048F0000000E003F003380E180C3800F003C00786
:10490000000C180C380EF007E00300000000000057
:10491000000000000000000000008000C000C00097
:10492000C000F007F007C000C000C000C000C00019
:10493000C000C000C000C0078007000000000000E9
:104940000000000000000000000000000000000067
:104950000000181818181818181818181818181807
:1049600018181818381CF01FE0190000000000008B
:104970000000000000000000000000000000000037
:1049800000000C18180C180C180C300630063006F5
:10499000600360036003C001C0010000000000006C
:1049A0000000000000000000000000000000000007
:1049B0000000C141C141C361636363636363363611
:1049C000363636361C1C1C1C1C1C00000000000067
:1049D00000000000000000000000000000000000D7
:1049E00000001C38381C300C600660036003600354
:1049F00060036006300C381C1C380000000000000A
:104A000000000000000000000000000000000000A6
:104A100000001830301830187018600C600CE00C72
:104A2000C006C00680038003800380018001C001AE
:104A3000F000700000000000000000000000000016
:104A40000000FC1FFC1F000C000600038001C000DA
:104A5000600030001800FC1FFC1F00000000000078
:104A6000000000000000000000038001C000C00042
:104A7000C000C000C000C0006000600030006000E6
:104A80004000C000C000C000C000C000C0008001E5
:104A9000000300000000000080018001800180010F
:104AA00080018001800180018001800180018001FE
:104AB00080018001800180018001800180018001EE
:104AC00080018001000000006000C000C001800182
:104AD00080018001800180010003000300060003C3
:104AE0000001800180018001800180018001C000FF
:104AF0006000000000000000000000000000000056
:104B0000000000000000F010F81F080F0000000077
:104B10000000000000000000000000000000000095
:104B20000000000000000000000000000000010282
:104B30000304060708090400000800000000000044
:104B40000002000100001000684B00080000002077
:104B50004000000014020008A84B0008400000209C
:104B6000B80700003002000800000000000000004C
:104B70000000000000000000000000000100000034
:104B80000000000000000000000000000000000025
:104B90000000FFFF000000FF100000000100000007
:084BA000000000000024F400F5
:04000005080001D915
:00000001FF
