Component: ARM Compiler 5.06 update 7 (build 960) Tool: armlink [4d3601]

==============================================================================

Section Cross References

    main.o(i.SystemClock_Config) refers to memseta.o(.text) for __aeabi_memclr4
    main.o(i.SystemClock_Config) refers to stm32g4xx_hal_pwr_ex.o(i.HAL_PWREx_ControlVoltageScaling) for HAL_PWREx_ControlVoltageScaling
    main.o(i.SystemClock_Config) refers to stm32g4xx_hal_rcc.o(i.HAL_RCC_OscConfig) for HAL_RCC_OscConfig
    main.o(i.SystemClock_Config) refers to stm32g4xx_hal_rcc.o(i.HAL_RCC_ClockConfig) for HAL_RCC_ClockConfig
    main.o(i.main) refers to stm32g4xx_hal.o(i.HAL_Init) for HAL_Init
    main.o(i.main) refers to main.o(i.SystemClock_Config) for SystemClock_Config
    main.o(i.main) refers to gpio.o(i.MX_GPIO_Init) for MX_GPIO_Init
    main.o(i.main) refers to adc.o(i.MX_ADC1_Init) for MX_ADC1_Init
    main.o(i.main) refers to adc.o(i.MX_ADC2_Init) for MX_ADC2_Init
    main.o(i.main) refers to rtc.o(i.MX_RTC_Init) for MX_RTC_Init
    main.o(i.main) refers to tim.o(i.MX_TIM2_Init) for MX_TIM2_Init
    main.o(i.main) refers to tim.o(i.MX_TIM3_Init) for MX_TIM3_Init
    main.o(i.main) refers to tim.o(i.MX_TIM6_Init) for MX_TIM6_Init
    main.o(i.main) refers to usart.o(i.MX_USART1_UART_Init) for MX_USART1_UART_Init
    main.o(i.main) refers to lcd.o(i.LCD_Init) for LCD_Init
    main.o(i.main) refers to stm32g4xx_hal_tim.o(i.HAL_TIM_Base_Start_IT) for HAL_TIM_Base_Start_IT
    main.o(i.main) refers to stm32g4xx_hal_tim.o(i.HAL_TIM_IC_Start_IT) for HAL_TIM_IC_Start_IT
    main.o(i.main) refers to stm32g4xx_hal_tim.o(i.HAL_TIM_PWM_Start) for HAL_TIM_PWM_Start
==============================================================================

Removing Unused input sections from the image.

    Removing main.o(.rev16_text), (4 bytes).
    Removing main.o(.revsh_text), (4 bytes).
    Removing main.o(.rrx_text), (6 bytes).
    Removing gpio.o(.rev16_text), (4 bytes).
    Removing gpio.o(.revsh_text), (4 bytes).
    Removing gpio.o(.rrx_text), (6 bytes).
    Removing adc.o(.rev16_text), (4 bytes).
    Removing adc.o(.revsh_text), (4 bytes).
    Removing adc.o(.rrx_text), (6 bytes).
    Removing adc.o(i.HAL_ADC_MspDeInit), (88 bytes).
    Removing rtc.o(.rev16_text), (4 bytes).
    Removing rtc.o(.revsh_text), (4 bytes).
    Removing rtc.o(.rrx_text), (6 bytes).
    Removing rtc.o(i.HAL_RTC_MspDeInit), (40 bytes).
    Removing tim.o(.rev16_text), (4 bytes).
    Removing tim.o(.revsh_text), (4 bytes).
    Removing tim.o(.rrx_text), (6 bytes).
    Removing tim.o(i.HAL_TIM_Base_MspDeInit), (88 bytes).
==============================================================================

Image Symbol Table

    Local Symbols

    Symbol Name                              Value     Ov Type        Size  Object(Section)

    ../Core/Src/adc.c                        0x00000000   Number         0  adc.o ABSOLUTE
    ../Core/Src/gpio.c                       0x00000000   Number         0  gpio.o ABSOLUTE
    ../Core/Src/main.c                       0x00000000   Number         0  main.o ABSOLUTE
    ../Core/Src/rtc.c                        0x00000000   Number         0  rtc.o ABSOLUTE
    ../Core/Src/stm32g4xx_hal_msp.c          0x00000000   Number         0  stm32g4xx_hal_msp.o ABSOLUTE
    ../Core/Src/stm32g4xx_it.c               0x00000000   Number         0  stm32g4xx_it.o ABSOLUTE
    ../Core/Src/system_stm32g4xx.c           0x00000000   Number         0  system_stm32g4xx.o ABSOLUTE
    ../Core/Src/tim.c                        0x00000000   Number         0  tim.o ABSOLUTE
    ../Core/Src/usart.c                      0x00000000   Number         0  usart.o ABSOLUTE
    ../Drivers/STM32G4xx_HAL_Driver/Src/stm32g4xx_hal.c 0x00000000   Number         0  stm32g4xx_hal.o ABSOLUTE
    ../Drivers/STM32G4xx_HAL_Driver/Src/stm32g4xx_hal_adc.c 0x00000000   Number         0  stm32g4xx_hal_adc.o ABSOLUTE
    ../Drivers/STM32G4xx_HAL_Driver/Src/stm32g4xx_hal_adc_ex.c 0x00000000   Number         0  stm32g4xx_hal_adc_ex.o ABSOLUTE
    ../Drivers/STM32G4xx_HAL_Driver/Src/stm32g4xx_hal_cortex.c 0x00000000   Number         0  stm32g4xx_hal_cortex.o ABSOLUTE
    ../Drivers/STM32G4xx_HAL_Driver/Src/stm32g4xx_hal_dma.c 0x00000000   Number         0  stm32g4xx_hal_dma.o ABSOLUTE
    ../Drivers/STM32G4xx_HAL_Driver/Src/stm32g4xx_hal_dma_ex.c 0x00000000   Number         0  stm32g4xx_hal_dma_ex.o ABSOLUTE
    ../Drivers/STM32G4xx_HAL_Driver/Src/stm32g4xx_hal_exti.c 0x00000000   Number         0  stm32g4xx_hal_exti.o ABSOLUTE
    ../Drivers/STM32G4xx_HAL_Driver/Src/stm32g4xx_hal_flash.c 0x00000000   Number         0  stm32g4xx_hal_flash.o ABSOLUTE
    ../Drivers/STM32G4xx_HAL_Driver/Src/stm32g4xx_hal_flash_ex.c 0x00000000   Number         0  stm32g4xx_hal_flash_ex.o ABSOLUTE
    ../Drivers/STM32G4xx_HAL_Driver/Src/stm32g4xx_hal_flash_ramfunc.c 0x00000000   Number         0  stm32g4xx_hal_flash_ramfunc.o ABSOLUTE
    ../Drivers/STM32G4xx_HAL_Driver/Src/stm32g4xx_hal_gpio.c 0x00000000   Number         0  stm32g4xx_hal_gpio.o ABSOLUTE
    ../Drivers/STM32G4xx_HAL_Driver/Src/stm32g4xx_hal_pwr.c 0x00000000   Number         0  stm32g4xx_hal_pwr.o ABSOLUTE
    ../Drivers/STM32G4xx_HAL_Driver/Src/stm32g4xx_hal_pwr_ex.c 0x00000000   Number         0  stm32g4xx_hal_pwr_ex.o ABSOLUTE
    ../Drivers/STM32G4xx_HAL_Driver/Src/stm32g4xx_hal_rcc.c 0x00000000   Number         0  stm32g4xx_hal_rcc.o ABSOLUTE
    ../Drivers/STM32G4xx_HAL_Driver/Src/stm32g4xx_hal_rcc_ex.c 0x00000000   Number         0  stm32g4xx_hal_rcc_ex.o ABSOLUTE
    ../Drivers/STM32G4xx_HAL_Driver/Src/stm32g4xx_hal_rtc.c 0x00000000   Number         0  stm32g4xx_hal_rtc.o ABSOLUTE
    ../Drivers/STM32G4xx_HAL_Driver/Src/stm32g4xx_hal_rtc_ex.c 0x00000000   Number         0  stm32g4xx_hal_rtc_ex.o ABSOLUTE
    ../Drivers/STM32G4xx_HAL_Driver/Src/stm32g4xx_hal_tim.c 0x00000000   Number         0  stm32g4xx_hal_tim.o ABSOLUTE
    ../Drivers/STM32G4xx_HAL_Driver/Src/stm32g4xx_hal_tim_ex.c 0x00000000   Number         0  stm32g4xx_hal_tim_ex.o ABSOLUTE
    ../Drivers/STM32G4xx_HAL_Driver/Src/stm32g4xx_hal_uart.c 0x00000000   Number         0  stm32g4xx_hal_uart.o ABSOLUTE
    ../Drivers/STM32G4xx_HAL_Driver/Src/stm32g4xx_hal_uart_ex.c 0x00000000   Number         0  stm32g4xx_hal_uart_ex.o ABSOLUTE
    ../Drivers/STM32G4xx_HAL_Driver/Src/stm32g4xx_ll_adc.c 0x00000000   Number         0  stm32g4xx_ll_adc.o ABSOLUTE
    ../clib/microlib/division.c              0x00000000   Number         0  uidiv.o ABSOLUTE
    ../clib/microlib/division.c              0x00000000   Number         0  uldiv.o ABSOLUTE
    ../clib/microlib/init/entry.s            0x00000000   Number         0  entry7b.o ABSOLUTE
    ../clib/microlib/init/entry.s            0x00000000   Number         0  entry10b.o ABSOLUTE
    ../clib/microlib/init/entry.s            0x00000000   Number         0  entry10a.o ABSOLUTE
    ../clib/microlib/init/entry.s            0x00000000   Number         0  entry9a.o ABSOLUTE
    ../clib/microlib/init/entry.s            0x00000000   Number         0  entry7a.o ABSOLUTE
    ../clib/microlib/init/entry.s            0x00000000   Number         0  entry9b.o ABSOLUTE
    ../clib/microlib/init/entry.s            0x00000000   Number         0  entry8a.o ABSOLUTE
    ../clib/microlib/init/entry.s            0x00000000   Number         0  entry12b.o ABSOLUTE
    ../clib/microlib/init/entry.s            0x00000000   Number         0  entry12a.o ABSOLUTE
    ../clib/microlib/init/entry.s            0x00000000   Number         0  entry11b.o ABSOLUTE
    ../clib/microlib/init/entry.s            0x00000000   Number         0  entry8b.o ABSOLUTE
    ../clib/microlib/init/entry.s            0x00000000   Number         0  entry11a.o ABSOLUTE
    ../clib/microlib/init/entry.s            0x00000000   Number         0  entry.o ABSOLUTE
    ../clib/microlib/init/entry.s            0x00000000   Number         0  entry5.o ABSOLUTE
    ../clib/microlib/init/entry.s            0x00000000   Number         0  entry2.o ABSOLUTE
    ../clib/microlib/longlong.c              0x00000000   Number         0  llshl.o ABSOLUTE
    ../clib/microlib/longlong.c              0x00000000   Number         0  llsshr.o ABSOLUTE
    ../clib/microlib/longlong.c              0x00000000   Number         0  llushr.o ABSOLUTE
    ../clib/microlib/printf/printf.c         0x00000000   Number         0  printf4.o ABSOLUTE
    ../clib/microlib/printf/printf.c         0x00000000   Number         0  printf3.o ABSOLUTE
    ../clib/microlib/printf/printf.c         0x00000000   Number         0  printf2.o ABSOLUTE
    ../clib/microlib/printf/printf.c         0x00000000   Number         0  printfb.o ABSOLUTE
    ../clib/microlib/printf/printf.c         0x00000000   Number         0  printf0.o ABSOLUTE
    ../clib/microlib/printf/printf.c         0x00000000   Number         0  printf5.o ABSOLUTE
    ../clib/microlib/printf/printf.c         0x00000000   Number         0  printfa.o ABSOLUTE
    ../clib/microlib/printf/printf.c         0x00000000   Number         0  printf8.o ABSOLUTE
    ../clib/microlib/printf/printf.c         0x00000000   Number         0  printf7.o ABSOLUTE
    ../clib/microlib/printf/printf.c         0x00000000   Number         0  printf6.o ABSOLUTE
    ../clib/microlib/printf/printf.c         0x00000000   Number         0  printf1.o ABSOLUTE
    ../clib/microlib/printf/stubs.s          0x00000000   Number         0  stubs.o ABSOLUTE
    ../clib/microlib/stdio/fputc.c           0x00000000   Number         0  fputc.o ABSOLUTE
    ../clib/microlib/stdio/semi.s            0x00000000   Number         0  semi.o ABSOLUTE
    ../clib/microlib/stdio/streams.c         0x00000000   Number         0  stdout.o ABSOLUTE
    ../clib/microlib/string/memset.c         0x00000000   Number         0  memseta.o ABSOLUTE
    ../clib/microlib/stubs.s                 0x00000000   Number         0  iusefp.o ABSOLUTE
    ../clib/microlib/stubs.s                 0x00000000   Number         0  iusesemip.o ABSOLUTE
    ../fplib/microlib/fpadd.c                0x00000000   Number         0  dadd.o ABSOLUTE
    ../fplib/microlib/fpdiv.c                0x00000000   Number         0  ddiv.o ABSOLUTE
    ../fplib/microlib/fpepilogue.c           0x00000000   Number         0  depilogue.o ABSOLUTE
    ../fplib/microlib/fpfix.c                0x00000000   Number         0  dfixul.o ABSOLUTE
    ../fplib/microlib/fpflt.c                0x00000000   Number         0  dfltui.o ABSOLUTE
    ../fplib/microlib/fpmul.c                0x00000000   Number         0  dmul.o ABSOLUTE
    ..\Core\Src\adc.c                        0x00000000   Number         0  adc.o ABSOLUTE
    ..\Core\Src\gpio.c                       0x00000000   Number         0  gpio.o ABSOLUTE
    ..\Core\Src\main.c                       0x00000000   Number         0  main.o ABSOLUTE
    ..\Core\Src\rtc.c                        0x00000000   Number         0  rtc.o ABSOLUTE
    ..\Core\Src\stm32g4xx_hal_msp.c          0x00000000   Number         0  stm32g4xx_hal_msp.o ABSOLUTE
    ..\Core\Src\stm32g4xx_it.c               0x00000000   Number         0  stm32g4xx_it.o ABSOLUTE
    ..\Core\Src\system_stm32g4xx.c           0x00000000   Number         0  system_stm32g4xx.o ABSOLUTE
    ..\Core\Src\tim.c                        0x00000000   Number         0  tim.o ABSOLUTE
    ..\Core\Src\usart.c                      0x00000000   Number         0  usart.o ABSOLUTE
    ..\Drivers\STM32G4xx_HAL_Driver\Src\stm32g4xx_hal.c 0x00000000   Number         0  stm32g4xx_hal.o ABSOLUTE
    ..\Drivers\STM32G4xx_HAL_Driver\Src\stm32g4xx_hal_adc.c 0x00000000   Number         0  stm32g4xx_hal_adc.o ABSOLUTE
    ..\Drivers\STM32G4xx_HAL_Driver\Src\stm32g4xx_hal_adc_ex.c 0x00000000   Number         0  stm32g4xx_hal_adc_ex.o ABSOLUTE
    ..\Drivers\STM32G4xx_HAL_Driver\Src\stm32g4xx_hal_cortex.c 0x00000000   Number         0  stm32g4xx_hal_cortex.o ABSOLUTE
    ..\Drivers\STM32G4xx_HAL_Driver\Src\stm32g4xx_hal_dma.c 0x00000000   Number         0  stm32g4xx_hal_dma.o ABSOLUTE
    ..\Drivers\STM32G4xx_HAL_Driver\Src\stm32g4xx_hal_dma_ex.c 0x00000000   Number         0  stm32g4xx_hal_dma_ex.o ABSOLUTE
    ..\Drivers\STM32G4xx_HAL_Driver\Src\stm32g4xx_hal_exti.c 0x00000000   Number         0  stm32g4xx_hal_exti.o ABSOLUTE
    ..\Drivers\STM32G4xx_HAL_Driver\Src\stm32g4xx_hal_flash.c 0x00000000   Number         0  stm32g4xx_hal_flash.o ABSOLUTE
    ..\Drivers\STM32G4xx_HAL_Driver\Src\stm32g4xx_hal_flash_ex.c 0x00000000   Number         0  stm32g4xx_hal_flash_ex.o ABSOLUTE
    ..\Drivers\STM32G4xx_HAL_Driver\Src\stm32g4xx_hal_flash_ramfunc.c 0x00000000   Number         0  stm32g4xx_hal_flash_ramfunc.o ABSOLUTE
    ..\Drivers\STM32G4xx_HAL_Driver\Src\stm32g4xx_hal_gpio.c 0x00000000   Number         0  stm32g4xx_hal_gpio.o ABSOLUTE
    ..\Drivers\STM32G4xx_HAL_Driver\Src\stm32g4xx_hal_pwr.c 0x00000000   Number         0  stm32g4xx_hal_pwr.o ABSOLUTE
    ..\Drivers\STM32G4xx_HAL_Driver\Src\stm32g4xx_hal_pwr_ex.c 0x00000000   Number         0  stm32g4xx_hal_pwr_ex.o ABSOLUTE
    ..\Drivers\STM32G4xx_HAL_Driver\Src\stm32g4xx_hal_rcc.c 0x00000000   Number         0  stm32g4xx_hal_rcc.o ABSOLUTE
    ..\Drivers\STM32G4xx_HAL_Driver\Src\stm32g4xx_hal_rcc_ex.c 0x00000000   Number         0  stm32g4xx_hal_rcc_ex.o ABSOLUTE
    ..\Drivers\STM32G4xx_HAL_Driver\Src\stm32g4xx_hal_rtc.c 0x00000000   Number         0  stm32g4xx_hal_rtc.o ABSOLUTE
    ..\Drivers\STM32G4xx_HAL_Driver\Src\stm32g4xx_hal_rtc_ex.c 0x00000000   Number         0  stm32g4xx_hal_rtc_ex.o ABSOLUTE
    ..\Drivers\STM32G4xx_HAL_Driver\Src\stm32g4xx_hal_tim.c 0x00000000   Number         0  stm32g4xx_hal_tim.o ABSOLUTE
    ..\Drivers\STM32G4xx_HAL_Driver\Src\stm32g4xx_hal_tim_ex.c 0x00000000   Number         0  stm32g4xx_hal_tim_ex.o ABSOLUTE
    ..\Drivers\STM32G4xx_HAL_Driver\Src\stm32g4xx_hal_uart.c 0x00000000   Number         0  stm32g4xx_hal_uart.o ABSOLUTE
    ..\Drivers\STM32G4xx_HAL_Driver\Src\stm32g4xx_hal_uart_ex.c 0x00000000   Number         0  stm32g4xx_hal_uart_ex.o ABSOLUTE
    ..\Hardware\Key.c                        0x00000000   Number         0  key.o ABSOLUTE
    ..\Hardware\LED.c                        0x00000000   Number         0  led.o ABSOLUTE
    ..\Hardware\i2c_hal.c                    0x00000000   Number         0  i2c_hal.o ABSOLUTE
    ..\Hardware\lcd.c                        0x00000000   Number         0  lcd.o ABSOLUTE
    ..\User\Interrupt.c                      0x00000000   Number         0  interrupt.o ABSOLUTE
    ..\User\Task.c                           0x00000000   Number         0  task.o ABSOLUTE
    ..\\Hardware\\Key.c                      0x00000000   Number         0  key.o ABSOLUTE
    ..\\Hardware\\LED.c                      0x00000000   Number         0  led.o ABSOLUTE
    ..\\Hardware\\i2c_hal.c                  0x00000000   Number         0  i2c_hal.o ABSOLUTE
    ..\\Hardware\\lcd.c                      0x00000000   Number         0  lcd.o ABSOLUTE
    ..\\User\\Interrupt.c                    0x00000000   Number         0  interrupt.o ABSOLUTE
    ..\\User\\Task.c                         0x00000000   Number         0  task.o ABSOLUTE
    cdrcmple.s                               0x00000000   Number         0  cdrcmple.o ABSOLUTE
    dc.s                                     0x00000000   Number         0  dc.o ABSOLUTE
    handlers.s                               0x00000000   Number         0  handlers.o ABSOLUTE
    init.s                                   0x00000000   Number         0  init.o ABSOLUTE
    startup_stm32g431xx.s                    0x00000000   Number         0  startup_stm32g431xx.o ABSOLUTE
    RESET                                    0x08000000   Section      472  startup_stm32g431xx.o(RESET)
    .ARM.Collect$$$$00000000                 0x080001d8   Section        0  entry.o(.ARM.Collect$$$$00000000)
    .ARM.Collect$$$$00000001                 0x080001d8   Section        4  entry2.o(.ARM.Collect$$$$00000001)
    .ARM.Collect$$$$00000004                 0x080001dc   Section        4  entry5.o(.ARM.Collect$$$$00000004)
    .ARM.Collect$$$$00000008                 0x080001e0   Section        0  entry7b.o(.ARM.Collect$$$$00000008)
    .ARM.Collect$$$$0000000A                 0x080001e0   Section        0  entry8b.o(.ARM.Collect$$$$0000000A)
    .ARM.Collect$$$$0000000B                 0x080001e0   Section        8  entry9a.o(.ARM.Collect$$$$0000000B)
    .ARM.Collect$$$$0000000E                 0x080001e8   Section        4  entry12b.o(.ARM.Collect$$$$0000000E)
    .ARM.Collect$$$$0000000F                 0x080001ec   Section        0  entry10a.o(.ARM.Collect$$$$0000000F)
    .ARM.Collect$$$$00000011                 0x080001ec   Section        0  entry11a.o(.ARM.Collect$$$$00000011)
    .ARM.Collect$$$$00002712                 0x080001ec   Section        4  entry2.o(.ARM.Collect$$$$00002712)
    __lit__00000000                          0x080001ec   Data           4  entry2.o(.ARM.Collect$$$$00002712)
    .text                                    0x080001f0   Section       36  startup_stm32g431xx.o(.text)
    $v0                                      0x080001f0   Number         0  startup_stm32g431xx.o(.text)
    .text                                    0x08000214   Section        0  uldiv.o(.text)
    .text                                    0x08000276   Section        0  memseta.o(.text)
    .text                                    0x0800029a   Section        0  ddiv.o(.text)
    .text                                    0x08000378   Section        0  dfltui.o(.text)
    .text                                    0x08000392   Section        0  uidiv.o(.text)
    .text                                    0x080003be   Section        0  llshl.o(.text)
    .text                                    0x080003dc   Section        0  llushr.o(.text)
    .text                                    0x080003fc   Section        0  depilogue.o(.text)
    .text                                    0x080003fc   Section        0  iusefp.o(.text)
    .text                                    0x080004b6   Section        0  dadd.o(.text)
    .text                                    0x08000604   Section        0  dmul.o(.text)
    .text                                    0x080006e8   Section        0  dfixul.o(.text)
    .text                                    0x08000718   Section       48  cdrcmple.o(.text)
    .text                                    0x08000748   Section       36  init.o(.text)
    .text                                    0x0800076c   Section        0  llsshr.o(.text)
    i.ADC_ConversionStop                     0x08000790   Section        0  stm32g4xx_hal_adc.o(i.ADC_ConversionStop)
    i.ADC_Disable                            0x08000874   Section        0  stm32g4xx_hal_adc.o(i.ADC_Disable)
    i.ADC_Enable                             0x080008e4   Section        0  stm32g4xx_hal_adc.o(i.ADC_Enable)
    i.BusFault_Handler                       0x08000990   Section        0  stm32g4xx_it.o(i.BusFault_Handler)
    i.DebugMon_Handler                       0x08000992   Section        0  stm32g4xx_it.o(i.DebugMon_Handler)
    i.Delay_LCD                              0x08000994   Section        0  lcd.o(i.Delay_LCD)
    i.Error_Handler                          0x080009b0   Section        0  main.o(i.Error_Handler)
    i.HAL_ADCEx_Calibration_Start            0x080009b4   Section        0  stm32g4xx_hal_adc_ex.o(i.HAL_ADCEx_Calibration_Start)
    i.HAL_ADCEx_MultiModeConfigChannel       0x08000a48   Section        0  stm32g4xx_hal_adc_ex.o(i.HAL_ADCEx_MultiModeConfigChannel)
    i.HAL_ADC_ConfigChannel                  0x08000b20   Section        0  stm32g4xx_hal_adc.o(i.HAL_ADC_ConfigChannel)
    i.HAL_ADC_GetValue                       0x08000f44   Section        0  stm32g4xx_hal_adc.o(i.HAL_ADC_GetValue)
    i.HAL_ADC_Init                           0x08000f4c   Section        0  stm32g4xx_hal_adc.o(i.HAL_ADC_Init)
    i.HAL_ADC_MspInit                        0x08001140   Section        0  adc.o(i.HAL_ADC_MspInit)
    i.HAL_ADC_Start                          0x08001224   Section        0  stm32g4xx_hal_adc.o(i.HAL_ADC_Start)
    i.HAL_ADC_Stop                           0x08001318   Section        0  stm32g4xx_hal_adc.o(i.HAL_ADC_Stop)
    i.HAL_DMA_Abort                          0x08001356   Section        0  stm32g4xx_hal_dma.o(i.HAL_DMA_Abort)
    i.HAL_DMA_Abort_IT                       0x080013c0   Section        0  stm32g4xx_hal_dma.o(i.HAL_DMA_Abort_IT)
    i.HAL_Delay                              0x08001438   Section        0  stm32g4xx_hal.o(i.HAL_Delay)
    i.HAL_GPIO_Init                          0x0800145c   Section        0  stm32g4xx_hal_gpio.o(i.HAL_GPIO_Init)
    i.HAL_GPIO_WritePin                      0x080016a4   Section        0  stm32g4xx_hal_gpio.o(i.HAL_GPIO_WritePin)
    i.HAL_GetTick                            0x080016b0   Section        0  stm32g4xx_hal.o(i.HAL_GetTick)
    i.HAL_IncTick                            0x080016bc   Section        0  stm32g4xx_hal.o(i.HAL_IncTick)
    i.HAL_Init                               0x080016cc   Section        0  stm32g4xx_hal.o(i.HAL_Init)
    i.HAL_InitTick                           0x080016ec   Section        0  stm32g4xx_hal.o(i.HAL_InitTick)
    i.HAL_MspInit                            0x08001730   Section        0  stm32g4xx_hal_msp.o(i.HAL_MspInit)
    i.HAL_NVIC_EnableIRQ                     0x08001760   Section        0  stm32g4xx_hal_cortex.o(i.HAL_NVIC_EnableIRQ)
    i.HAL_NVIC_SetPriority                   0x0800177c   Section        0  stm32g4xx_hal_cortex.o(i.HAL_NVIC_SetPriority)
    i.HAL_NVIC_SetPriorityGrouping           0x080017bc   Section        0  stm32g4xx_hal_cortex.o(i.HAL_NVIC_SetPriorityGrouping)
    i.HAL_PWREx_ControlVoltageScaling        0x080017e0   Section        0  stm32g4xx_hal_pwr_ex.o(i.HAL_PWREx_ControlVoltageScaling)
    i.HAL_PWREx_DisableUCPDDeadBattery       0x0800189c   Section        0  stm32g4xx_hal_pwr_ex.o(i.HAL_PWREx_DisableUCPDDeadBattery)
    i.HAL_RCCEx_PeriphCLKConfig              0x080018ac   Section        0  stm32g4xx_hal_rcc_ex.o(i.HAL_RCCEx_PeriphCLKConfig)
    i.HAL_RCC_ClockConfig                    0x08001b34   Section        0  stm32g4xx_hal_rcc.o(i.HAL_RCC_ClockConfig)
    i.HAL_RCC_GetPCLK1Freq                   0x08001d10   Section        0  stm32g4xx_hal_rcc.o(i.HAL_RCC_GetPCLK1Freq)
    i.HAL_RCC_GetPCLK2Freq                   0x08001d34   Section        0  stm32g4xx_hal_rcc.o(i.HAL_RCC_GetPCLK2Freq)
    i.HAL_RCC_GetSysClockFreq                0x08001d58   Section        0  stm32g4xx_hal_rcc.o(i.HAL_RCC_GetSysClockFreq)
    i.HAL_RCC_OscConfig                      0x08001dc8   Section        0  stm32g4xx_hal_rcc.o(i.HAL_RCC_OscConfig)
    i.HAL_RTC_Init                           0x080021cc   Section        0  stm32g4xx_hal_rtc.o(i.HAL_RTC_Init)
    i.HAL_RTC_MspInit                        0x08002268   Section        0  rtc.o(i.HAL_RTC_MspInit)
    i.HAL_RTC_SetDate                        0x080022c0   Section        0  stm32g4xx_hal_rtc.o(i.HAL_RTC_SetDate)
    i.HAL_RTC_SetTime                        0x08002360   Section        0  stm32g4xx_hal_rtc.o(i.HAL_RTC_SetTime)
    i.HAL_RTC_WaitForSynchro                 0x0800242c   Section        0  stm32g4xx_hal_rtc.o(i.HAL_RTC_WaitForSynchro)
    i.HAL_SYSTICK_Config                     0x08002464   Section        0  stm32g4xx_hal_cortex.o(i.HAL_SYSTICK_Config)
    i.HAL_TIMEx_Break2Callback               0x0800248c   Section        0  stm32g4xx_hal_tim_ex.o(i.HAL_TIMEx_Break2Callback)
    i.HAL_TIMEx_BreakCallback                0x0800248e   Section        0  stm32g4xx_hal_tim_ex.o(i.HAL_TIMEx_BreakCallback)
    i.HAL_TIMEx_CommutCallback               0x08002490   Section        0  stm32g4xx_hal_tim_ex.o(i.HAL_TIMEx_CommutCallback)
    i.HAL_TIMEx_DirectionChangeCallback      0x08002492   Section        0  stm32g4xx_hal_tim_ex.o(i.HAL_TIMEx_DirectionChangeCallback)
    i.HAL_TIMEx_EncoderIndexCallback         0x08002494   Section        0  stm32g4xx_hal_tim_ex.o(i.HAL_TIMEx_EncoderIndexCallback)
    i.HAL_TIMEx_IndexErrorCallback           0x08002496   Section        0  stm32g4xx_hal_tim_ex.o(i.HAL_TIMEx_IndexErrorCallback)
    i.HAL_TIMEx_MasterConfigSynchronization  0x08002498   Section        0  stm32g4xx_hal_tim_ex.o(i.HAL_TIMEx_MasterConfigSynchronization)
    i.HAL_TIMEx_TransitionErrorCallback      0x08002534   Section        0  stm32g4xx_hal_tim_ex.o(i.HAL_TIMEx_TransitionErrorCallback)
    i.HAL_TIM_Base_Init                      0x08002536   Section        0  stm32g4xx_hal_tim.o(i.HAL_TIM_Base_Init)
    i.HAL_TIM_Base_MspInit                   0x08002598   Section        0  tim.o(i.HAL_TIM_Base_MspInit)
    i.HAL_TIM_Base_Start_IT                  0x08002648   Section        0  stm32g4xx_hal_tim.o(i.HAL_TIM_Base_Start_IT)
    i.HAL_TIM_ConfigClockSource              0x080026c0   Section        0  stm32g4xx_hal_tim.o(i.HAL_TIM_ConfigClockSource)
    i.HAL_TIM_IC_CaptureCallback             0x080027c0   Section        0  interrupt.o(i.HAL_TIM_IC_CaptureCallback)
    i.HAL_TIM_IC_ConfigChannel               0x08002810   Section        0  stm32g4xx_hal_tim.o(i.HAL_TIM_IC_ConfigChannel)
    i.HAL_TIM_IC_Init                        0x08002934   Section        0  stm32g4xx_hal_tim.o(i.HAL_TIM_IC_Init)
    i.HAL_TIM_IC_MspInit                     0x08002996   Section        0  stm32g4xx_hal_tim.o(i.HAL_TIM_IC_MspInit)
    i.HAL_TIM_IC_Start_IT                    0x08002998   Section        0  stm32g4xx_hal_tim.o(i.HAL_TIM_IC_Start_IT)
    i.HAL_TIM_IRQHandler                     0x08002ac4   Section        0  stm32g4xx_hal_tim.o(i.HAL_TIM_IRQHandler)
    i.HAL_TIM_MspPostInit                    0x08002c68   Section        0  tim.o(i.HAL_TIM_MspPostInit)
    i.HAL_TIM_OC_DelayElapsedCallback        0x08002cb4   Section        0  stm32g4xx_hal_tim.o(i.HAL_TIM_OC_DelayElapsedCallback)
    i.HAL_TIM_PWM_ConfigChannel              0x08002cb6   Section        0  stm32g4xx_hal_tim.o(i.HAL_TIM_PWM_ConfigChannel)
    i.HAL_TIM_PWM_Init                       0x08002dda   Section        0  stm32g4xx_hal_tim.o(i.HAL_TIM_PWM_Init)
    i.HAL_TIM_PWM_MspInit                    0x08002e3c   Section        0  stm32g4xx_hal_tim.o(i.HAL_TIM_PWM_MspInit)
    i.HAL_TIM_PWM_PulseFinishedCallback      0x08002e3e   Section        0  stm32g4xx_hal_tim.o(i.HAL_TIM_PWM_PulseFinishedCallback)
    i.HAL_TIM_PWM_Start                      0x08002e40   Section        0  stm32g4xx_hal_tim.o(i.HAL_TIM_PWM_Start)
    i.HAL_TIM_PeriodElapsedCallback          0x08002f3c   Section        0  interrupt.o(i.HAL_TIM_PeriodElapsedCallback)
    i.HAL_TIM_ReadCapturedValue              0x08002fa0   Section        0  stm32g4xx_hal_tim.o(i.HAL_TIM_ReadCapturedValue)
    i.HAL_TIM_SlaveConfigSynchro             0x08002fca   Section        0  stm32g4xx_hal_tim.o(i.HAL_TIM_SlaveConfigSynchro)
    i.HAL_TIM_TriggerCallback                0x08003020   Section        0  stm32g4xx_hal_tim.o(i.HAL_TIM_TriggerCallback)
    i.HAL_UARTEx_DisableFifoMode             0x08003022   Section        0  stm32g4xx_hal_uart_ex.o(i.HAL_UARTEx_DisableFifoMode)
    i.HAL_UARTEx_RxEventCallback             0x08003060   Section        0  stm32g4xx_hal_uart.o(i.HAL_UARTEx_RxEventCallback)
    i.HAL_UARTEx_RxFifoFullCallback          0x08003062   Section        0  stm32g4xx_hal_uart_ex.o(i.HAL_UARTEx_RxFifoFullCallback)
    i.HAL_UARTEx_SetRxFifoThreshold          0x08003064   Section        0  stm32g4xx_hal_uart_ex.o(i.HAL_UARTEx_SetRxFifoThreshold)
    i.HAL_UARTEx_SetTxFifoThreshold          0x080030b0   Section        0  stm32g4xx_hal_uart_ex.o(i.HAL_UARTEx_SetTxFifoThreshold)
    i.HAL_UARTEx_TxFifoEmptyCallback         0x080030fc   Section        0  stm32g4xx_hal_uart_ex.o(i.HAL_UARTEx_TxFifoEmptyCallback)
    i.HAL_UARTEx_WakeupCallback              0x080030fe   Section        0  stm32g4xx_hal_uart_ex.o(i.HAL_UARTEx_WakeupCallback)
    i.HAL_UART_ErrorCallback                 0x08003100   Section        0  stm32g4xx_hal_uart.o(i.HAL_UART_ErrorCallback)
    i.HAL_UART_IRQHandler                    0x08003104   Section        0  stm32g4xx_hal_uart.o(i.HAL_UART_IRQHandler)
    i.HAL_UART_Init                          0x08003410   Section        0  stm32g4xx_hal_uart.o(i.HAL_UART_Init)
    i.HAL_UART_MspInit                       0x0800347c   Section        0  usart.o(i.HAL_UART_MspInit)
    i.HAL_UART_TxCpltCallback                0x08003508   Section        0  stm32g4xx_hal_uart.o(i.HAL_UART_TxCpltCallback)
    i.HardFault_Handler                      0x0800350a   Section        0  stm32g4xx_it.o(i.HardFault_Handler)
    i.Key_Proc                               0x0800350c   Section        0  task.o(i.Key_Proc)
    i.LCD_BusIn                              0x08003520   Section        0  lcd.o(i.LCD_BusIn)
    i.LCD_BusOut                             0x0800354c   Section        0  lcd.o(i.LCD_BusOut)
    i.LCD_Clear                              0x0800357c   Section        0  lcd.o(i.LCD_Clear)
    i.LCD_CtrlLinesConfig                    0x080035a0   Section        0  lcd.o(i.LCD_CtrlLinesConfig)
    i.LCD_DisplayChar                        0x08003630   Section        0  lcd.o(i.LCD_DisplayChar)
    i.LCD_DisplayStringLine                  0x08003648   Section        0  lcd.o(i.LCD_DisplayStringLine)
    i.LCD_DrawChar                           0x08003674   Section        0  lcd.o(i.LCD_DrawChar)
    i.LCD_Init                               0x080036cc   Section        0  lcd.o(i.LCD_Init)
    i.LCD_Proc                               0x08003700   Section        0  task.o(i.LCD_Proc)
    i.LCD_ReadReg                            0x080037dc   Section        0  lcd.o(i.LCD_ReadReg)
    i.LCD_SetBackColor                       0x0800385c   Section        0  lcd.o(i.LCD_SetBackColor)
    i.LCD_SetCursor                          0x0800386c   Section        0  lcd.o(i.LCD_SetCursor)
    i.LCD_SetTextColor                       0x08003884   Section        0  lcd.o(i.LCD_SetTextColor)
    i.LCD_WriteRAM                           0x08003894   Section        0  lcd.o(i.LCD_WriteRAM)
    i.LCD_WriteRAM_Prepare                   0x080038f4   Section        0  lcd.o(i.LCD_WriteRAM_Prepare)
    i.LCD_WriteReg                           0x08003954   Section        0  lcd.o(i.LCD_WriteReg)
    i.LED_DiaPlay                            0x080039c4   Section        0  led.o(i.LED_DiaPlay)
    i.LL_ADC_GetOffsetChannel                0x08003a2c   Section        0  stm32g4xx_hal_adc.o(i.LL_ADC_GetOffsetChannel)
    LL_ADC_GetOffsetChannel                  0x08003a2d   Thumb Code    12  stm32g4xx_hal_adc.o(i.LL_ADC_GetOffsetChannel)
    i.LL_ADC_INJ_IsConversionOngoing         0x08003a38   Section        0  stm32g4xx_hal_adc.o(i.LL_ADC_INJ_IsConversionOngoing)
    LL_ADC_INJ_IsConversionOngoing           0x08003a39   Thumb Code     8  stm32g4xx_hal_adc.o(i.LL_ADC_INJ_IsConversionOngoing)
    i.LL_ADC_REG_IsConversionOngoing         0x08003a40   Section        0  stm32g4xx_hal_adc.o(i.LL_ADC_REG_IsConversionOngoing)
    LL_ADC_REG_IsConversionOngoing           0x08003a41   Thumb Code     8  stm32g4xx_hal_adc.o(i.LL_ADC_REG_IsConversionOngoing)
    i.LL_ADC_REG_IsConversionOngoing         0x08003a48   Section        0  stm32g4xx_hal_adc_ex.o(i.LL_ADC_REG_IsConversionOngoing)
    LL_ADC_REG_IsConversionOngoing           0x08003a49   Thumb Code     8  stm32g4xx_hal_adc_ex.o(i.LL_ADC_REG_IsConversionOngoing)
    i.LL_ADC_SetChannelSamplingTime          0x08003a50   Section        0  stm32g4xx_hal_adc.o(i.LL_ADC_SetChannelSamplingTime)
    LL_ADC_SetChannelSamplingTime            0x08003a51   Thumb Code    30  stm32g4xx_hal_adc.o(i.LL_ADC_SetChannelSamplingTime)
    i.LL_ADC_SetOffsetState                  0x08003a6e   Section        0  stm32g4xx_hal_adc.o(i.LL_ADC_SetOffsetState)
    LL_ADC_SetOffsetState                    0x08003a6f   Thumb Code    16  stm32g4xx_hal_adc.o(i.LL_ADC_SetOffsetState)
    i.MX_ADC1_Init                           0x08003a80   Section        0  adc.o(i.MX_ADC1_Init)
    i.MX_ADC2_Init                           0x08003b10   Section        0  adc.o(i.MX_ADC2_Init)
    i.MX_GPIO_Init                           0x08003b8c   Section        0  gpio.o(i.MX_GPIO_Init)
    i.MX_RTC_Init                            0x08003cac   Section        0  rtc.o(i.MX_RTC_Init)
    i.MX_TIM2_Init                           0x08003d40   Section        0  tim.o(i.MX_TIM2_Init)
    i.MX_TIM3_Init                           0x08003ddc   Section        0  tim.o(i.MX_TIM3_Init)
    i.MX_TIM6_Init                           0x08003eac   Section        0  tim.o(i.MX_TIM6_Init)
    i.MX_USART1_UART_Init                    0x08003ef4   Section        0  usart.o(i.MX_USART1_UART_Init)
    i.MemManage_Handler                      0x08003f5c   Section        0  stm32g4xx_it.o(i.MemManage_Handler)
    i.NMI_Handler                            0x08003f5e   Section        0  stm32g4xx_it.o(i.NMI_Handler)
    i.PendSV_Handler                         0x08003f60   Section        0  stm32g4xx_it.o(i.PendSV_Handler)
    i.REG_8230_Init                          0x08003f62   Section        0  lcd.o(i.REG_8230_Init)
    i.REG_932X_Init                          0x08004074   Section        0  lcd.o(i.REG_932X_Init)
    i.RTC_ByteToBcd2                         0x08004276   Section        0  stm32g4xx_hal_rtc.o(i.RTC_ByteToBcd2)
    i.RTC_EnterInitMode                      0x08004290   Section        0  stm32g4xx_hal_rtc.o(i.RTC_EnterInitMode)
    i.RTC_ExitInitMode                       0x080042da   Section        0  stm32g4xx_hal_rtc.o(i.RTC_ExitInitMode)
    i.Read_Proc                              0x0800432c   Section        0  task.o(i.Read_Proc)
    i.SVC_Handler                            0x0800436c   Section        0  stm32g4xx_it.o(i.SVC_Handler)
    i.SysTick_Handler                        0x0800436e   Section        0  stm32g4xx_it.o(i.SysTick_Handler)
    i.SystemClock_Config                     0x08004372   Section        0  main.o(i.SystemClock_Config)
    i.SystemInit                             0x080043e0   Section        0  system_stm32g4xx.o(i.SystemInit)
    i.TIM3_IRQHandler                        0x080043f0   Section        0  stm32g4xx_it.o(i.TIM3_IRQHandler)
    i.TIM6_DAC_IRQHandler                    0x080043fc   Section        0  stm32g4xx_it.o(i.TIM6_DAC_IRQHandler)
    i.TIM_Base_SetConfig                     0x08004408   Section        0  stm32g4xx_hal_tim.o(i.TIM_Base_SetConfig)
    i.TIM_CCxChannelCmd                      0x080044c4   Section        0  stm32g4xx_hal_tim.o(i.TIM_CCxChannelCmd)
    i.TIM_ETR_SetConfig                      0x080044de   Section        0  stm32g4xx_hal_tim.o(i.TIM_ETR_SetConfig)
    i.TIM_ITRx_SetConfig                     0x080044f4   Section        0  stm32g4xx_hal_tim.o(i.TIM_ITRx_SetConfig)
    TIM_ITRx_SetConfig                       0x080044f5   Thumb Code    16  stm32g4xx_hal_tim.o(i.TIM_ITRx_SetConfig)
    i.TIM_OC1_SetConfig                      0x08004508   Section        0  stm32g4xx_hal_tim.o(i.TIM_OC1_SetConfig)
    TIM_OC1_SetConfig                        0x08004509   Thumb Code   132  stm32g4xx_hal_tim.o(i.TIM_OC1_SetConfig)
    i.TIM_OC2_SetConfig                      0x080045a4   Section        0  stm32g4xx_hal_tim.o(i.TIM_OC2_SetConfig)
    i.TIM_OC3_SetConfig                      0x08004634   Section        0  stm32g4xx_hal_tim.o(i.TIM_OC3_SetConfig)
    TIM_OC3_SetConfig                        0x08004635   Thumb Code   118  stm32g4xx_hal_tim.o(i.TIM_OC3_SetConfig)
    i.TIM_OC4_SetConfig                      0x080046c4   Section        0  stm32g4xx_hal_tim.o(i.TIM_OC4_SetConfig)
    TIM_OC4_SetConfig                        0x080046c5   Thumb Code   120  stm32g4xx_hal_tim.o(i.TIM_OC4_SetConfig)
    i.TIM_OC5_SetConfig                      0x08004754   Section        0  stm32g4xx_hal_tim.o(i.TIM_OC5_SetConfig)
    TIM_OC5_SetConfig                        0x08004755   Thumb Code    86  stm32g4xx_hal_tim.o(i.TIM_OC5_SetConfig)
    i.TIM_OC6_SetConfig                      0x080047c4   Section        0  stm32g4xx_hal_tim.o(i.TIM_OC6_SetConfig)
    TIM_OC6_SetConfig                        0x080047c5   Thumb Code    88  stm32g4xx_hal_tim.o(i.TIM_OC6_SetConfig)
    i.TIM_SlaveTimer_SetConfig               0x08004834   Section        0  stm32g4xx_hal_tim.o(i.TIM_SlaveTimer_SetConfig)
    TIM_SlaveTimer_SetConfig                 0x08004835   Thumb Code   194  stm32g4xx_hal_tim.o(i.TIM_SlaveTimer_SetConfig)
    i.TIM_TI1_ConfigInputStage               0x08004904   Section        0  stm32g4xx_hal_tim.o(i.TIM_TI1_ConfigInputStage)
    TIM_TI1_ConfigInputStage                 0x08004905   Thumb Code    34  stm32g4xx_hal_tim.o(i.TIM_TI1_ConfigInputStage)
    i.TIM_TI1_SetConfig                      0x08004928   Section        0  stm32g4xx_hal_tim.o(i.TIM_TI1_SetConfig)
    i.TIM_TI2_ConfigInputStage               0x08004994   Section        0  stm32g4xx_hal_tim.o(i.TIM_TI2_ConfigInputStage)
    TIM_TI2_ConfigInputStage                 0x08004995   Thumb Code    36  stm32g4xx_hal_tim.o(i.TIM_TI2_ConfigInputStage)
    i.TIM_TI2_SetConfig                      0x080049b8   Section        0  stm32g4xx_hal_tim.o(i.TIM_TI2_SetConfig)
    TIM_TI2_SetConfig                        0x080049b9   Thumb Code    54  stm32g4xx_hal_tim.o(i.TIM_TI2_SetConfig)
    i.UARTEx_SetNbDataToProcess              0x080049f0   Section        0  stm32g4xx_hal_uart_ex.o(i.UARTEx_SetNbDataToProcess)
    UARTEx_SetNbDataToProcess                0x080049f1   Thumb Code    62  stm32g4xx_hal_uart_ex.o(i.UARTEx_SetNbDataToProcess)
    i.UART_AdvFeatureConfig                  0x08004a34   Section        0  stm32g4xx_hal_uart.o(i.UART_AdvFeatureConfig)
    i.UART_CheckIdleState                    0x08004afc   Section        0  stm32g4xx_hal_uart.o(i.UART_CheckIdleState)
    i.UART_DMAAbortOnError                   0x08004ba8   Section        0  stm32g4xx_hal_uart.o(i.UART_DMAAbortOnError)
    UART_DMAAbortOnError                     0x08004ba9   Thumb Code    20  stm32g4xx_hal_uart.o(i.UART_DMAAbortOnError)
    i.UART_EndRxTransfer                     0x08004bbc   Section        0  stm32g4xx_hal_uart.o(i.UART_EndRxTransfer)
    UART_EndRxTransfer                       0x08004bbd   Thumb Code    78  stm32g4xx_hal_uart.o(i.UART_EndRxTransfer)
    i.UART_SetConfig                         0x08004c10   Section        0  stm32g4xx_hal_uart.o(i.UART_SetConfig)
    i.UART_WaitOnFlagUntilTimeout            0x08004e84   Section        0  stm32g4xx_hal_uart.o(i.UART_WaitOnFlagUntilTimeout)
    i.USART1_IRQHandler                      0x08004f18   Section        0  stm32g4xx_it.o(i.USART1_IRQHandler)
    i.UsageFault_Handler                     0x08004f24   Section        0  stm32g4xx_it.o(i.UsageFault_Handler)
    i.Voltage_Get                            0x08004f28   Section        0  interrupt.o(i.Voltage_Get)
    i.__0sprintf                             0x08004fc4   Section        0  printfa.o(i.__0sprintf)
    i.__NVIC_SetPriority                     0x08004fec   Section        0  stm32g4xx_hal_cortex.o(i.__NVIC_SetPriority)
    __NVIC_SetPriority                       0x08004fed   Thumb Code    32  stm32g4xx_hal_cortex.o(i.__NVIC_SetPriority)
    i.__scatterload_copy                     0x0800500c   Section       14  handlers.o(i.__scatterload_copy)
    i.__scatterload_null                     0x0800501a   Section        2  handlers.o(i.__scatterload_null)
    i.__scatterload_zeroinit                 0x0800501c   Section       14  handlers.o(i.__scatterload_zeroinit)
    i._fp_digits                             0x0800502c   Section        0  printfa.o(i._fp_digits)
    _fp_digits                               0x0800502d   Thumb Code   366  printfa.o(i._fp_digits)
    i._printf_core                           0x080051b0   Section        0  printfa.o(i._printf_core)
    _printf_core                             0x080051b1   Thumb Code  1704  printfa.o(i._printf_core)
    i._printf_post_padding                   0x08005864   Section        0  printfa.o(i._printf_post_padding)
    _printf_post_padding                     0x08005865   Thumb Code    36  printfa.o(i._printf_post_padding)
    i._printf_pre_padding                    0x08005888   Section        0  printfa.o(i._printf_pre_padding)
    _printf_pre_padding                      0x08005889   Thumb Code    46  printfa.o(i._printf_pre_padding)
    i._sputc                                 0x080058b6   Section        0  printfa.o(i._sputc)
    _sputc                                   0x080058b7   Thumb Code    10  printfa.o(i._sputc)
    i.main                                   0x080058c0   Section        0  main.o(i.main)
    .constdata                               0x08005954   Section     4560  lcd.o(.constdata)
    .constdata                               0x08006b24   Section       24  stm32g4xx_hal_uart.o(.constdata)
    .constdata                               0x08006b3c   Section       16  stm32g4xx_hal_uart_ex.o(.constdata)
    numerator                                0x08006b3c   Data           8  stm32g4xx_hal_uart_ex.o(.constdata)
    denominator                              0x08006b44   Data           8  stm32g4xx_hal_uart_ex.o(.constdata)
    .constdata                               0x08006b4c   Section       16  system_stm32g4xx.o(.constdata)
    .constdata                               0x08006b5c   Section        8  system_stm32g4xx.o(.constdata)
    .data                                    0x20000000   Section        4  adc.o(.data)
    HAL_RCC_ADC12_CLK_ENABLED                0x20000000   Data           4  adc.o(.data)
    .data                                    0x20000004   Section       26  interrupt.o(.data)
    Tim_Total_Pos                            0x20000006   Data           2  interrupt.o(.data)
    .data                                    0x2000001e   Section        6  lcd.o(.data)
    TextColor                                0x2000001e   Data           2  lcd.o(.data)
    BackColor                                0x20000020   Data           2  lcd.o(.data)
    .data                                    0x20000024   Section        4  led.o(.data)
    Temp                                     0x20000024   Data           2  led.o(.data)
    Temp_Old                                 0x20000026   Data           2  led.o(.data)
    .data                                    0x20000028   Section       12  stm32g4xx_hal.o(.data)
    .data                                    0x20000034   Section        4  system_stm32g4xx.o(.data)
    .bss                                     0x20000038   Section      216  adc.o(.bss)
    .bss                                     0x20000110   Section       40  rtc.o(.bss)
    .bss                                     0x20000138   Section      228  tim.o(.bss)
    .bss                                     0x2000021c   Section      148  usart.o(.bss)
    .bss                                     0x200002b0   Section       30  task.o(.bss)
    STACK                                    0x200002d0   Section     1024  startup_stm32g431xx.o(STACK)

    Global Symbols

    Symbol Name                              Value     Ov Type        Size  Object(Section)

    BuildAttributes$$THM_ISAv4$E$P$D$K$B$S$7EM$VFPi3$EXTD16$VFPS$VFMA$PE$A:L22UL41UL21$X:L11$S22US41US21$IEEE1$IW$USESV6$~STKCKD$USESV7$~SHL$OSPACE$ROPI$EBA8$MICROLIB$REQ8$PRES8$EABIv2 0x00000000   Number         0  anon$$obj.o ABSOLUTE
    __ARM_use_no_argv                        0x00000000   Number         0  main.o ABSOLUTE
    _printf_a                                0x00000000   Number         0  stubs.o ABSOLUTE
    _printf_c                                0x00000000   Number         0  stubs.o ABSOLUTE
    _printf_charcount                        0x00000000   Number         0  stubs.o ABSOLUTE
    _printf_d                                0x00000000   Number         0  stubs.o ABSOLUTE
    _printf_e                                0x00000000   Number         0  stubs.o ABSOLUTE
    _printf_f                                0x00000000   Number         0  stubs.o ABSOLUTE
    _printf_flags                            0x00000000   Number         0  stubs.o ABSOLUTE
    _printf_fp_dec                           0x00000000   Number         0  stubs.o ABSOLUTE
    _printf_fp_hex                           0x00000000   Number         0  stubs.o ABSOLUTE
    _printf_g                                0x00000000   Number         0  stubs.o ABSOLUTE
    _printf_i                                0x00000000   Number         0  stubs.o ABSOLUTE
    _printf_int_dec                          0x00000000   Number         0  stubs.o ABSOLUTE
    _printf_l                                0x00000000   Number         0  stubs.o ABSOLUTE
    _printf_lc                               0x00000000   Number         0  stubs.o ABSOLUTE
    _printf_ll                               0x00000000   Number         0  stubs.o ABSOLUTE
    _printf_lld                              0x00000000   Number         0  stubs.o ABSOLUTE
    _printf_lli                              0x00000000   Number         0  stubs.o ABSOLUTE
    _printf_llo                              0x00000000   Number         0  stubs.o ABSOLUTE
    _printf_llu                              0x00000000   Number         0  stubs.o ABSOLUTE
    _printf_llx                              0x00000000   Number         0  stubs.o ABSOLUTE
    _printf_longlong_dec                     0x00000000   Number         0  stubs.o ABSOLUTE
    _printf_longlong_hex                     0x00000000   Number         0  stubs.o ABSOLUTE
    _printf_longlong_oct                     0x00000000   Number         0  stubs.o ABSOLUTE
    _printf_ls                               0x00000000   Number         0  stubs.o ABSOLUTE
    _printf_mbtowc                           0x00000000   Number         0  stubs.o ABSOLUTE
    _printf_n                                0x00000000   Number         0  stubs.o ABSOLUTE
    _printf_o                                0x00000000   Number         0  stubs.o ABSOLUTE
    _printf_p                                0x00000000   Number         0  stubs.o ABSOLUTE
    _printf_percent                          0x00000000   Number         0  stubs.o ABSOLUTE
    _printf_pre_padding                      0x00000000   Number         0  stubs.o ABSOLUTE
    _printf_return_value                     0x00000000   Number         0  stubs.o ABSOLUTE
    _printf_s                                0x00000000   Number         0  stubs.o ABSOLUTE
    _printf_sizespec                         0x00000000   Number         0  stubs.o ABSOLUTE
    _printf_str                              0x00000000   Number         0  stubs.o ABSOLUTE
    _printf_truncate_signed                  0x00000000   Number         0  stubs.o ABSOLUTE
    _printf_truncate_unsigned                0x00000000   Number         0  stubs.o ABSOLUTE
    _printf_u                                0x00000000   Number         0  stubs.o ABSOLUTE
    _printf_wc                               0x00000000   Number         0  stubs.o ABSOLUTE
    _printf_wctomb                           0x00000000   Number         0  stubs.o ABSOLUTE
    _printf_widthprec                        0x00000000   Number         0  stubs.o ABSOLUTE
    _printf_x                                0x00000000   Number         0  stubs.o ABSOLUTE
    __arm_fini_                               - Undefined Weak Reference
    __cpp_initialize__aeabi_                  - Undefined Weak Reference
    __cxa_finalize                            - Undefined Weak Reference
    __decompress                              - Undefined Weak Reference
    _clock_init                               - Undefined Weak Reference
    _microlib_exit                            - Undefined Weak Reference
    __Vectors_Size                           0x000001d8   Number         0  startup_stm32g431xx.o ABSOLUTE
    __Vectors                                0x08000000   Data           4  startup_stm32g431xx.o(RESET)
    __Vectors_End                            0x080001d8   Data           0  startup_stm32g431xx.o(RESET)
    __main                                   0x080001d9   Thumb Code     0  entry.o(.ARM.Collect$$$$00000000)
    _main_stk                                0x080001d9   Thumb Code     0  entry2.o(.ARM.Collect$$$$00000001)
    _main_scatterload                        0x080001dd   Thumb Code     0  entry5.o(.ARM.Collect$$$$00000004)
    __main_after_scatterload                 0x080001e1   Thumb Code     0  entry5.o(.ARM.Collect$$$$00000004)
    _main_clock                              0x080001e1   Thumb Code     0  entry7b.o(.ARM.Collect$$$$00000008)
    _main_cpp_init                           0x080001e1   Thumb Code     0  entry8b.o(.ARM.Collect$$$$0000000A)
    _main_init                               0x080001e1   Thumb Code     0  entry9a.o(.ARM.Collect$$$$0000000B)
    __rt_lib_shutdown_fini                   0x080001e9   Thumb Code     0  entry12b.o(.ARM.Collect$$$$0000000E)
    __rt_final_cpp                           0x080001ed   Thumb Code     0  entry10a.o(.ARM.Collect$$$$0000000F)
    __rt_final_exit                          0x080001ed   Thumb Code     0  entry11a.o(.ARM.Collect$$$$00000011)
    Reset_Handler                            0x080001f1   Thumb Code     8  startup_stm32g431xx.o(.text)
    ADC1_2_IRQHandler                        0x0800020b   Thumb Code     0  startup_stm32g431xx.o(.text)
    COMP1_2_3_IRQHandler                     0x0800020b   Thumb Code     0  startup_stm32g431xx.o(.text)
    COMP4_IRQHandler                         0x0800020b   Thumb Code     0  startup_stm32g431xx.o(.text)
    CORDIC_IRQHandler                        0x0800020b   Thumb Code     0  startup_stm32g431xx.o(.text)
    CRS_IRQHandler                           0x0800020b   Thumb Code     0  startup_stm32g431xx.o(.text)
    DMA1_Channel1_IRQHandler                 0x0800020b   Thumb Code     0  startup_stm32g431xx.o(.text)
    DMA1_Channel2_IRQHandler                 0x0800020b   Thumb Code     0  startup_stm32g431xx.o(.text)
    DMA1_Channel3_IRQHandler                 0x0800020b   Thumb Code     0  startup_stm32g431xx.o(.text)
    DMA1_Channel4_IRQHandler                 0x0800020b   Thumb Code     0  startup_stm32g431xx.o(.text)
    DMA1_Channel5_IRQHandler                 0x0800020b   Thumb Code     0  startup_stm32g431xx.o(.text)
    DMA1_Channel6_IRQHandler                 0x0800020b   Thumb Code     0  startup_stm32g431xx.o(.text)
    DMA2_Channel1_IRQHandler                 0x0800020b   Thumb Code     0  startup_stm32g431xx.o(.text)
    DMA2_Channel2_IRQHandler                 0x0800020b   Thumb Code     0  startup_stm32g431xx.o(.text)
    DMA2_Channel3_IRQHandler                 0x0800020b   Thumb Code     0  startup_stm32g431xx.o(.text)
    DMA2_Channel4_IRQHandler                 0x0800020b   Thumb Code     0  startup_stm32g431xx.o(.text)
    DMA2_Channel5_IRQHandler                 0x0800020b   Thumb Code     0  startup_stm32g431xx.o(.text)
    DMA2_Channel6_IRQHandler                 0x0800020b   Thumb Code     0  startup_stm32g431xx.o(.text)
    DMAMUX_OVR_IRQHandler                    0x0800020b   Thumb Code     0  startup_stm32g431xx.o(.text)
    EXTI0_IRQHandler                         0x0800020b   Thumb Code     0  startup_stm32g431xx.o(.text)
    EXTI15_10_IRQHandler                     0x0800020b   Thumb Code     0  startup_stm32g431xx.o(.text)
    EXTI1_IRQHandler                         0x0800020b   Thumb Code     0  startup_stm32g431xx.o(.text)
    EXTI2_IRQHandler                         0x0800020b   Thumb Code     0  startup_stm32g431xx.o(.text)
    EXTI3_IRQHandler                         0x0800020b   Thumb Code     0  startup_stm32g431xx.o(.text)
    EXTI4_IRQHandler                         0x0800020b   Thumb Code     0  startup_stm32g431xx.o(.text)
    EXTI9_5_IRQHandler                       0x0800020b   Thumb Code     0  startup_stm32g431xx.o(.text)
    FDCAN1_IT0_IRQHandler                    0x0800020b   Thumb Code     0  startup_stm32g431xx.o(.text)
    FDCAN1_IT1_IRQHandler                    0x0800020b   Thumb Code     0  startup_stm32g431xx.o(.text)
    FLASH_IRQHandler                         0x0800020b   Thumb Code     0  startup_stm32g431xx.o(.text)
    FMAC_IRQHandler                          0x0800020b   Thumb Code     0  startup_stm32g431xx.o(.text)
    FPU_IRQHandler                           0x0800020b   Thumb Code     0  startup_stm32g431xx.o(.text)
    I2C1_ER_IRQHandler                       0x0800020b   Thumb Code     0  startup_stm32g431xx.o(.text)
    I2C1_EV_IRQHandler                       0x0800020b   Thumb Code     0  startup_stm32g431xx.o(.text)
    I2C2_ER_IRQHandler                       0x0800020b   Thumb Code     0  startup_stm32g431xx.o(.text)
    I2C2_EV_IRQHandler                       0x0800020b   Thumb Code     0  startup_stm32g431xx.o(.text)
    I2C3_ER_IRQHandler                       0x0800020b   Thumb Code     0  startup_stm32g431xx.o(.text)
    I2C3_EV_IRQHandler                       0x0800020b   Thumb Code     0  startup_stm32g431xx.o(.text)
    LPTIM1_IRQHandler                        0x0800020b   Thumb Code     0  startup_stm32g431xx.o(.text)
    LPUART1_IRQHandler                       0x0800020b   Thumb Code     0  startup_stm32g431xx.o(.text)
    PVD_PVM_IRQHandler                       0x0800020b   Thumb Code     0  startup_stm32g431xx.o(.text)
    RCC_IRQHandler                           0x0800020b   Thumb Code     0  startup_stm32g431xx.o(.text)
    RNG_IRQHandler                           0x0800020b   Thumb Code     0  startup_stm32g431xx.o(.text)
    RTC_Alarm_IRQHandler                     0x0800020b   Thumb Code     0  startup_stm32g431xx.o(.text)
    RTC_TAMP_LSECSS_IRQHandler               0x0800020b   Thumb Code     0  startup_stm32g431xx.o(.text)
    RTC_WKUP_IRQHandler                      0x0800020b   Thumb Code     0  startup_stm32g431xx.o(.text)
    SAI1_IRQHandler                          0x0800020b   Thumb Code     0  startup_stm32g431xx.o(.text)
    SPI1_IRQHandler                          0x0800020b   Thumb Code     0  startup_stm32g431xx.o(.text)
    SPI2_IRQHandler                          0x0800020b   Thumb Code     0  startup_stm32g431xx.o(.text)
    SPI3_IRQHandler                          0x0800020b   Thumb Code     0  startup_stm32g431xx.o(.text)
    TIM1_BRK_TIM15_IRQHandler                0x0800020b   Thumb Code     0  startup_stm32g431xx.o(.text)
    TIM1_CC_IRQHandler                       0x0800020b   Thumb Code     0  startup_stm32g431xx.o(.text)
    TIM1_TRG_COM_TIM17_IRQHandler            0x0800020b   Thumb Code     0  startup_stm32g431xx.o(.text)
    TIM1_UP_TIM16_IRQHandler                 0x0800020b   Thumb Code     0  startup_stm32g431xx.o(.text)
    TIM2_IRQHandler                          0x0800020b   Thumb Code     0  startup_stm32g431xx.o(.text)
    TIM4_IRQHandler                          0x0800020b   Thumb Code     0  startup_stm32g431xx.o(.text)
    TIM7_IRQHandler                          0x0800020b   Thumb Code     0  startup_stm32g431xx.o(.text)
    TIM8_BRK_IRQHandler                      0x0800020b   Thumb Code     0  startup_stm32g431xx.o(.text)
    TIM8_CC_IRQHandler                       0x0800020b   Thumb Code     0  startup_stm32g431xx.o(.text)
    TIM8_TRG_COM_IRQHandler                  0x0800020b   Thumb Code     0  startup_stm32g431xx.o(.text)
    TIM8_UP_IRQHandler                       0x0800020b   Thumb Code     0  startup_stm32g431xx.o(.text)
    UART4_IRQHandler                         0x0800020b   Thumb Code     0  startup_stm32g431xx.o(.text)
    UCPD1_IRQHandler                         0x0800020b   Thumb Code     0  startup_stm32g431xx.o(.text)
    USART2_IRQHandler                        0x0800020b   Thumb Code     0  startup_stm32g431xx.o(.text)
    USART3_IRQHandler                        0x0800020b   Thumb Code     0  startup_stm32g431xx.o(.text)
    USBWakeUp_IRQHandler                     0x0800020b   Thumb Code     0  startup_stm32g431xx.o(.text)
    USB_HP_IRQHandler                        0x0800020b   Thumb Code     0  startup_stm32g431xx.o(.text)
    USB_LP_IRQHandler                        0x0800020b   Thumb Code     0  startup_stm32g431xx.o(.text)
    WWDG_IRQHandler                          0x0800020b   Thumb Code     0  startup_stm32g431xx.o(.text)
    __aeabi_uldivmod                         0x08000215   Thumb Code    98  uldiv.o(.text)
    __aeabi_memset                           0x08000277   Thumb Code    14  memseta.o(.text)
    __aeabi_memset4                          0x08000277   Thumb Code     0  memseta.o(.text)
    __aeabi_memset8                          0x08000277   Thumb Code     0  memseta.o(.text)
    __aeabi_memclr                           0x08000285   Thumb Code     4  memseta.o(.text)
    __aeabi_memclr4                          0x08000285   Thumb Code     0  memseta.o(.text)
    __aeabi_memclr8                          0x08000285   Thumb Code     0  memseta.o(.text)
    _memset$wrapper                          0x08000289   Thumb Code    18  memseta.o(.text)
    __aeabi_ddiv                             0x0800029b   Thumb Code   222  ddiv.o(.text)
    __aeabi_ui2d                             0x08000379   Thumb Code    26  dfltui.o(.text)
    __aeabi_uidiv                            0x08000393   Thumb Code     0  uidiv.o(.text)
    __aeabi_uidivmod                         0x08000393   Thumb Code    44  uidiv.o(.text)
    __aeabi_llsl                             0x080003bf   Thumb Code    30  llshl.o(.text)
    _ll_shift_l                              0x080003bf   Thumb Code     0  llshl.o(.text)
    __aeabi_llsr                             0x080003dd   Thumb Code    32  llushr.o(.text)
    _ll_ushift_r                             0x080003dd   Thumb Code     0  llushr.o(.text)
    __I$use$fp                               0x080003fd   Thumb Code     0  iusefp.o(.text)
    _double_round                            0x080003fd   Thumb Code    30  depilogue.o(.text)
    _double_epilogue                         0x0800041b   Thumb Code   156  depilogue.o(.text)
    __aeabi_dadd                             0x080004b7   Thumb Code   322  dadd.o(.text)
    __aeabi_dsub                             0x080005f9   Thumb Code     6  dadd.o(.text)
    __aeabi_drsub                            0x080005ff   Thumb Code     6  dadd.o(.text)
    __aeabi_dmul                             0x08000605   Thumb Code   228  dmul.o(.text)
    __aeabi_d2ulz                            0x080006e9   Thumb Code    48  dfixul.o(.text)
    __aeabi_cdrcmple                         0x08000719   Thumb Code    48  cdrcmple.o(.text)
    __scatterload                            0x08000749   Thumb Code    28  init.o(.text)
    __scatterload_rt2                        0x08000749   Thumb Code     0  init.o(.text)
    __aeabi_lasr                             0x0800076d   Thumb Code    36  llsshr.o(.text)
    _ll_sshift_r                             0x0800076d   Thumb Code     0  llsshr.o(.text)
    ADC_ConversionStop                       0x08000791   Thumb Code   220  stm32g4xx_hal_adc.o(i.ADC_ConversionStop)
    ADC_Disable                              0x08000875   Thumb Code   106  stm32g4xx_hal_adc.o(i.ADC_Disable)
    ADC_Enable                               0x080008e5   Thumb Code   154  stm32g4xx_hal_adc.o(i.ADC_Enable)
    BusFault_Handler                         0x08000991   Thumb Code     2  stm32g4xx_it.o(i.BusFault_Handler)
    DebugMon_Handler                         0x08000993   Thumb Code     2  stm32g4xx_it.o(i.DebugMon_Handler)
    Delay_LCD                                0x08000995   Thumb Code    28  lcd.o(i.Delay_LCD)
    Error_Handler                            0x080009b1   Thumb Code     4  main.o(i.Error_Handler)
    HAL_ADCEx_Calibration_Start              0x080009b5   Thumb Code   138  stm32g4xx_hal_adc_ex.o(i.HAL_ADCEx_Calibration_Start)
    HAL_ADCEx_MultiModeConfigChannel         0x08000a49   Thumb Code   208  stm32g4xx_hal_adc_ex.o(i.HAL_ADCEx_MultiModeConfigChannel)
    HAL_ADC_ConfigChannel                    0x08000b21   Thumb Code  1006  stm32g4xx_hal_adc.o(i.HAL_ADC_ConfigChannel)
    HAL_ADC_GetValue                         0x08000f45   Thumb Code     6  stm32g4xx_hal_adc.o(i.HAL_ADC_GetValue)
    HAL_ADC_Init                             0x08000f4d   Thumb Code   466  stm32g4xx_hal_adc.o(i.HAL_ADC_Init)
    HAL_ADC_MspInit                          0x08001141   Thumb Code   210  adc.o(i.HAL_ADC_MspInit)
    HAL_ADC_Start                            0x08001225   Thumb Code   230  stm32g4xx_hal_adc.o(i.HAL_ADC_Start)
    HAL_ADC_Stop                             0x08001319   Thumb Code    62  stm32g4xx_hal_adc.o(i.HAL_ADC_Stop)
    HAL_DMA_Abort                            0x08001357   Thumb Code   106  stm32g4xx_hal_dma.o(i.HAL_DMA_Abort)
    HAL_DMA_Abort_IT                         0x080013c1   Thumb Code   120  stm32g4xx_hal_dma.o(i.HAL_DMA_Abort_IT)
    HAL_Delay                                0x08001439   Thumb Code    32  stm32g4xx_hal.o(i.HAL_Delay)
    HAL_GPIO_Init                            0x0800145d   Thumb Code   550  stm32g4xx_hal_gpio.o(i.HAL_GPIO_Init)
    HAL_GPIO_WritePin                        0x080016a5   Thumb Code    10  stm32g4xx_hal_gpio.o(i.HAL_GPIO_WritePin)
    HAL_GetTick                              0x080016b1   Thumb Code     6  stm32g4xx_hal.o(i.HAL_GetTick)
    HAL_IncTick                              0x080016bd   Thumb Code    12  stm32g4xx_hal.o(i.HAL_IncTick)
    HAL_Init                                 0x080016cd   Thumb Code    30  stm32g4xx_hal.o(i.HAL_Init)
    HAL_InitTick                             0x080016ed   Thumb Code    58  stm32g4xx_hal.o(i.HAL_InitTick)
    HAL_MspInit                              0x08001731   Thumb Code    42  stm32g4xx_hal_msp.o(i.HAL_MspInit)
    HAL_NVIC_EnableIRQ                       0x08001761   Thumb Code    26  stm32g4xx_hal_cortex.o(i.HAL_NVIC_EnableIRQ)
    HAL_NVIC_SetPriority                     0x0800177d   Thumb Code    60  stm32g4xx_hal_cortex.o(i.HAL_NVIC_SetPriority)
    HAL_NVIC_SetPriorityGrouping             0x080017bd   Thumb Code    26  stm32g4xx_hal_cortex.o(i.HAL_NVIC_SetPriorityGrouping)
    HAL_PWREx_ControlVoltageScaling          0x080017e1   Thumb Code   174  stm32g4xx_hal_pwr_ex.o(i.HAL_PWREx_ControlVoltageScaling)
    HAL_PWREx_DisableUCPDDeadBattery         0x0800189d   Thumb Code    12  stm32g4xx_hal_pwr_ex.o(i.HAL_PWREx_DisableUCPDDeadBattery)
    HAL_RCCEx_PeriphCLKConfig                0x080018ad   Thumb Code   638  stm32g4xx_hal_rcc_ex.o(i.HAL_RCCEx_PeriphCLKConfig)
    HAL_RCC_ClockConfig                      0x08001b35   Thumb Code   444  stm32g4xx_hal_rcc.o(i.HAL_RCC_ClockConfig)
    HAL_RCC_GetPCLK1Freq                     0x08001d11   Thumb Code    24  stm32g4xx_hal_rcc.o(i.HAL_RCC_GetPCLK1Freq)
    HAL_RCC_GetPCLK2Freq                     0x08001d35   Thumb Code    24  stm32g4xx_hal_rcc.o(i.HAL_RCC_GetPCLK2Freq)
    HAL_RCC_GetSysClockFreq                  0x08001d59   Thumb Code    98  stm32g4xx_hal_rcc.o(i.HAL_RCC_GetSysClockFreq)
    HAL_RCC_OscConfig                        0x08001dc9   Thumb Code  1028  stm32g4xx_hal_rcc.o(i.HAL_RCC_OscConfig)
    HAL_RTC_Init                             0x080021cd   Thumb Code   152  stm32g4xx_hal_rtc.o(i.HAL_RTC_Init)
    HAL_RTC_MspInit                          0x08002269   Thumb Code    78  rtc.o(i.HAL_RTC_MspInit)
    HAL_RTC_SetDate                          0x080022c1   Thumb Code   156  stm32g4xx_hal_rtc.o(i.HAL_RTC_SetDate)
    HAL_RTC_SetTime                          0x08002361   Thumb Code   198  stm32g4xx_hal_rtc.o(i.HAL_RTC_SetTime)
    HAL_RTC_WaitForSynchro                   0x0800242d   Thumb Code    50  stm32g4xx_hal_rtc.o(i.HAL_RTC_WaitForSynchro)
    HAL_SYSTICK_Config                       0x08002465   Thumb Code    40  stm32g4xx_hal_cortex.o(i.HAL_SYSTICK_Config)
    HAL_TIMEx_Break2Callback                 0x0800248d   Thumb Code     2  stm32g4xx_hal_tim_ex.o(i.HAL_TIMEx_Break2Callback)
    HAL_TIMEx_BreakCallback                  0x0800248f   Thumb Code     2  stm32g4xx_hal_tim_ex.o(i.HAL_TIMEx_BreakCallback)
    HAL_TIMEx_CommutCallback                 0x08002491   Thumb Code     2  stm32g4xx_hal_tim_ex.o(i.HAL_TIMEx_CommutCallback)
    HAL_TIMEx_DirectionChangeCallback        0x08002493   Thumb Code     2  stm32g4xx_hal_tim_ex.o(i.HAL_TIMEx_DirectionChangeCallback)
    HAL_TIMEx_EncoderIndexCallback           0x08002495   Thumb Code     2  stm32g4xx_hal_tim_ex.o(i.HAL_TIMEx_EncoderIndexCallback)
    HAL_TIMEx_IndexErrorCallback             0x08002497   Thumb Code     2  stm32g4xx_hal_tim_ex.o(i.HAL_TIMEx_IndexErrorCallback)
    HAL_TIMEx_MasterConfigSynchronization    0x08002499   Thumb Code   132  stm32g4xx_hal_tim_ex.o(i.HAL_TIMEx_MasterConfigSynchronization)
    HAL_TIMEx_TransitionErrorCallback        0x08002535   Thumb Code     2  stm32g4xx_hal_tim_ex.o(i.HAL_TIMEx_TransitionErrorCallback)
    HAL_TIM_Base_Init                        0x08002537   Thumb Code    98  stm32g4xx_hal_tim.o(i.HAL_TIM_Base_Init)
    HAL_TIM_Base_MspInit                     0x08002599   Thumb Code   162  tim.o(i.HAL_TIM_Base_MspInit)
    HAL_TIM_Base_Start_IT                    0x08002649   Thumb Code    94  stm32g4xx_hal_tim.o(i.HAL_TIM_Base_Start_IT)
    HAL_TIM_ConfigClockSource                0x080026c1   Thumb Code   246  stm32g4xx_hal_tim.o(i.HAL_TIM_ConfigClockSource)
    HAL_TIM_IC_CaptureCallback               0x080027c1   Thumb Code    66  interrupt.o(i.HAL_TIM_IC_CaptureCallback)
    HAL_TIM_IC_ConfigChannel                 0x08002811   Thumb Code   292  stm32g4xx_hal_tim.o(i.HAL_TIM_IC_ConfigChannel)
    HAL_TIM_IC_Init                          0x08002935   Thumb Code    98  stm32g4xx_hal_tim.o(i.HAL_TIM_IC_Init)
    HAL_TIM_IC_MspInit                       0x08002997   Thumb Code     2  stm32g4xx_hal_tim.o(i.HAL_TIM_IC_MspInit)
    HAL_TIM_IC_Start_IT                      0x08002999   Thumb Code   274  stm32g4xx_hal_tim.o(i.HAL_TIM_IC_Start_IT)
    HAL_TIM_IRQHandler                       0x08002ac5   Thumb Code   418  stm32g4xx_hal_tim.o(i.HAL_TIM_IRQHandler)
    HAL_TIM_MspPostInit                      0x08002c69   Thumb Code    70  tim.o(i.HAL_TIM_MspPostInit)
    HAL_TIM_OC_DelayElapsedCallback          0x08002cb5   Thumb Code     2  stm32g4xx_hal_tim.o(i.HAL_TIM_OC_DelayElapsedCallback)
    HAL_TIM_PWM_ConfigChannel                0x08002cb7   Thumb Code   292  stm32g4xx_hal_tim.o(i.HAL_TIM_PWM_ConfigChannel)
    HAL_TIM_PWM_Init                         0x08002ddb   Thumb Code    98  stm32g4xx_hal_tim.o(i.HAL_TIM_PWM_Init)
    HAL_TIM_PWM_MspInit                      0x08002e3d   Thumb Code     2  stm32g4xx_hal_tim.o(i.HAL_TIM_PWM_MspInit)
    HAL_TIM_PWM_PulseFinishedCallback        0x08002e3f   Thumb Code     2  stm32g4xx_hal_tim.o(i.HAL_TIM_PWM_PulseFinishedCallback)
    HAL_TIM_PWM_Start                        0x08002e41   Thumb Code   218  stm32g4xx_hal_tim.o(i.HAL_TIM_PWM_Start)
    HAL_TIM_PeriodElapsedCallback            0x08002f3d   Thumb Code    92  interrupt.o(i.HAL_TIM_PeriodElapsedCallback)
    HAL_TIM_ReadCapturedValue                0x08002fa1   Thumb Code    42  stm32g4xx_hal_tim.o(i.HAL_TIM_ReadCapturedValue)
    HAL_TIM_SlaveConfigSynchro               0x08002fcb   Thumb Code    86  stm32g4xx_hal_tim.o(i.HAL_TIM_SlaveConfigSynchro)
    HAL_TIM_TriggerCallback                  0x08003021   Thumb Code     2  stm32g4xx_hal_tim.o(i.HAL_TIM_TriggerCallback)
    HAL_UARTEx_DisableFifoMode               0x08003023   Thumb Code    62  stm32g4xx_hal_uart_ex.o(i.HAL_UARTEx_DisableFifoMode)
    HAL_UARTEx_RxEventCallback               0x08003061   Thumb Code     2  stm32g4xx_hal_uart.o(i.HAL_UARTEx_RxEventCallback)
    HAL_UARTEx_RxFifoFullCallback            0x08003063   Thumb Code     2  stm32g4xx_hal_uart_ex.o(i.HAL_UARTEx_RxFifoFullCallback)
    HAL_UARTEx_SetRxFifoThreshold            0x08003065   Thumb Code    76  stm32g4xx_hal_uart_ex.o(i.HAL_UARTEx_SetRxFifoThreshold)
    HAL_UARTEx_SetTxFifoThreshold            0x080030b1   Thumb Code    76  stm32g4xx_hal_uart_ex.o(i.HAL_UARTEx_SetTxFifoThreshold)
    HAL_UARTEx_TxFifoEmptyCallback           0x080030fd   Thumb Code     2  stm32g4xx_hal_uart_ex.o(i.HAL_UARTEx_TxFifoEmptyCallback)
    HAL_UARTEx_WakeupCallback                0x080030ff   Thumb Code     2  stm32g4xx_hal_uart_ex.o(i.HAL_UARTEx_WakeupCallback)
    HAL_UART_ErrorCallback                   0x08003101   Thumb Code     2  stm32g4xx_hal_uart.o(i.HAL_UART_ErrorCallback)
    HAL_UART_IRQHandler                      0x08003105   Thumb Code   766  stm32g4xx_hal_uart.o(i.HAL_UART_IRQHandler)
    HAL_UART_Init                            0x08003411   Thumb Code   106  stm32g4xx_hal_uart.o(i.HAL_UART_Init)
    HAL_UART_MspInit                         0x0800347d   Thumb Code   132  usart.o(i.HAL_UART_MspInit)
    HAL_UART_TxCpltCallback                  0x08003509   Thumb Code     2  stm32g4xx_hal_uart.o(i.HAL_UART_TxCpltCallback)
    HardFault_Handler                        0x0800350b   Thumb Code     2  stm32g4xx_it.o(i.HardFault_Handler)
    Key_Proc                                 0x0800350d   Thumb Code    14  task.o(i.Key_Proc)
    LCD_BusIn                                0x08003521   Thumb Code    40  lcd.o(i.LCD_BusIn)
    LCD_BusOut                               0x0800354d   Thumb Code    42  lcd.o(i.LCD_BusOut)
    LCD_Clear                                0x0800357d   Thumb Code    36  lcd.o(i.LCD_Clear)
    LCD_CtrlLinesConfig                      0x080035a1   Thumb Code   134  lcd.o(i.LCD_CtrlLinesConfig)
    LCD_DisplayChar                          0x08003631   Thumb Code    18  lcd.o(i.LCD_DisplayChar)
    LCD_DisplayStringLine                    0x08003649   Thumb Code    42  lcd.o(i.LCD_DisplayStringLine)
    LCD_DrawChar                             0x08003675   Thumb Code    84  lcd.o(i.LCD_DrawChar)
    LCD_Init                                 0x080036cd   Thumb Code    46  lcd.o(i.LCD_Init)
    LCD_Proc                                 0x08003701   Thumb Code   152  task.o(i.LCD_Proc)
    LCD_ReadReg                              0x080037dd   Thumb Code   120  lcd.o(i.LCD_ReadReg)
    LCD_SetBackColor                         0x0800385d   Thumb Code    12  lcd.o(i.LCD_SetBackColor)
    LCD_SetCursor                            0x0800386d   Thumb Code    24  lcd.o(i.LCD_SetCursor)
    LCD_SetTextColor                         0x08003885   Thumb Code    12  lcd.o(i.LCD_SetTextColor)
    LCD_WriteRAM                             0x08003895   Thumb Code    86  lcd.o(i.LCD_WriteRAM)
    LCD_WriteRAM_Prepare                     0x080038f5   Thumb Code    88  lcd.o(i.LCD_WriteRAM_Prepare)
    LCD_WriteReg                             0x08003955   Thumb Code   104  lcd.o(i.LCD_WriteReg)
    LED_DiaPlay                              0x080039c5   Thumb Code    90  led.o(i.LED_DiaPlay)
    MX_ADC1_Init                             0x08003a81   Thumb Code   136  adc.o(i.MX_ADC1_Init)
    MX_ADC2_Init                             0x08003b11   Thumb Code   110  adc.o(i.MX_ADC2_Init)
    MX_GPIO_Init                             0x08003b8d   Thumb Code   270  gpio.o(i.MX_GPIO_Init)
    MX_RTC_Init                              0x08003cad   Thumb Code   138  rtc.o(i.MX_RTC_Init)
    MX_TIM2_Init                             0x08003d41   Thumb Code   152  tim.o(i.MX_TIM2_Init)
    MX_TIM3_Init                             0x08003ddd   Thumb Code   198  tim.o(i.MX_TIM3_Init)
    MX_TIM6_Init                             0x08003ead   Thumb Code    64  tim.o(i.MX_TIM6_Init)
    MX_USART1_UART_Init                      0x08003ef5   Thumb Code    94  usart.o(i.MX_USART1_UART_Init)
    MemManage_Handler                        0x08003f5d   Thumb Code     2  stm32g4xx_it.o(i.MemManage_Handler)
    NMI_Handler                              0x08003f5f   Thumb Code     2  stm32g4xx_it.o(i.NMI_Handler)
    PendSV_Handler                           0x08003f61   Thumb Code     2  stm32g4xx_it.o(i.PendSV_Handler)
    REG_8230_Init                            0x08003f63   Thumb Code   274  lcd.o(i.REG_8230_Init)
    REG_932X_Init                            0x08004075   Thumb Code   514  lcd.o(i.REG_932X_Init)
    RTC_ByteToBcd2                           0x08004277   Thumb Code    24  stm32g4xx_hal_rtc.o(i.RTC_ByteToBcd2)
    RTC_EnterInitMode                        0x08004291   Thumb Code    74  stm32g4xx_hal_rtc.o(i.RTC_EnterInitMode)
    RTC_ExitInitMode                         0x080042db   Thumb Code    80  stm32g4xx_hal_rtc.o(i.RTC_ExitInitMode)
    Read_Proc                                0x0800432d   Thumb Code    40  task.o(i.Read_Proc)
    SVC_Handler                              0x0800436d   Thumb Code     2  stm32g4xx_it.o(i.SVC_Handler)
    SysTick_Handler                          0x0800436f   Thumb Code     4  stm32g4xx_it.o(i.SysTick_Handler)
    SystemClock_Config                       0x08004373   Thumb Code   108  main.o(i.SystemClock_Config)
    SystemInit                               0x080043e1   Thumb Code    12  system_stm32g4xx.o(i.SystemInit)
    TIM3_IRQHandler                          0x080043f1   Thumb Code     6  stm32g4xx_it.o(i.TIM3_IRQHandler)
    TIM6_DAC_IRQHandler                      0x080043fd   Thumb Code     6  stm32g4xx_it.o(i.TIM6_DAC_IRQHandler)
    TIM_Base_SetConfig                       0x08004409   Thumb Code   160  stm32g4xx_hal_tim.o(i.TIM_Base_SetConfig)
    TIM_CCxChannelCmd                        0x080044c5   Thumb Code    26  stm32g4xx_hal_tim.o(i.TIM_CCxChannelCmd)
    TIM_ETR_SetConfig                        0x080044df   Thumb Code    20  stm32g4xx_hal_tim.o(i.TIM_ETR_SetConfig)
    TIM_OC2_SetConfig                        0x080045a5   Thumb Code   120  stm32g4xx_hal_tim.o(i.TIM_OC2_SetConfig)
    TIM_TI1_SetConfig                        0x08004929   Thumb Code    88  stm32g4xx_hal_tim.o(i.TIM_TI1_SetConfig)
    UART_AdvFeatureConfig                    0x08004a35   Thumb Code   200  stm32g4xx_hal_uart.o(i.UART_AdvFeatureConfig)
    UART_CheckIdleState                      0x08004afd   Thumb Code   172  stm32g4xx_hal_uart.o(i.UART_CheckIdleState)
    UART_SetConfig                           0x08004c11   Thumb Code   582  stm32g4xx_hal_uart.o(i.UART_SetConfig)
    UART_WaitOnFlagUntilTimeout              0x08004e85   Thumb Code   148  stm32g4xx_hal_uart.o(i.UART_WaitOnFlagUntilTimeout)
    USART1_IRQHandler                        0x08004f19   Thumb Code     6  stm32g4xx_it.o(i.USART1_IRQHandler)
    UsageFault_Handler                       0x08004f25   Thumb Code     2  stm32g4xx_it.o(i.UsageFault_Handler)
    Voltage_Get                              0x08004f29   Thumb Code   142  interrupt.o(i.Voltage_Get)
    __0sprintf                               0x08004fc5   Thumb Code    34  printfa.o(i.__0sprintf)
    __1sprintf                               0x08004fc5   Thumb Code     0  printfa.o(i.__0sprintf)
    __2sprintf                               0x08004fc5   Thumb Code     0  printfa.o(i.__0sprintf)
    __c89sprintf                             0x08004fc5   Thumb Code     0  printfa.o(i.__0sprintf)
    sprintf                                  0x08004fc5   Thumb Code     0  printfa.o(i.__0sprintf)
    __scatterload_copy                       0x0800500d   Thumb Code    14  handlers.o(i.__scatterload_copy)
    __scatterload_null                       0x0800501b   Thumb Code     2  handlers.o(i.__scatterload_null)
    __scatterload_zeroinit                   0x0800501d   Thumb Code    14  handlers.o(i.__scatterload_zeroinit)
    main                                     0x080058c1   Thumb Code   126  main.o(i.main)
    ASCII_Table                              0x08005954   Data        4560  lcd.o(.constdata)
    UARTPrescTable                           0x08006b24   Data          24  stm32g4xx_hal_uart.o(.constdata)
    AHBPrescTable                            0x08006b4c   Data          16  system_stm32g4xx.o(.constdata)
    APBPrescTable                            0x08006b5c   Data           8  system_stm32g4xx.o(.constdata)
    Region$$Table$$Base                      0x08006b64   Number         0  anon$$obj.o(Region$$Table)
    Region$$Table$$Limit                     0x08006b84   Number         0  anon$$obj.o(Region$$Table)
    Tim_Total_Flag                           0x20000004   Data           1  interrupt.o(.data)
    Voltage_Val                              0x20000008   Data           6  interrupt.o(.data)
    LED_Enable                               0x2000000e   Data           8  interrupt.o(.data)
    Freaq_Val                                0x20000016   Data           8  interrupt.o(.data)
    dummy                                    0x20000022   Data           2  lcd.o(.data)
    uwTickPrio                               0x20000028   Data           4  stm32g4xx_hal.o(.data)
    uwTickFreq                               0x2000002c   Data           4  stm32g4xx_hal.o(.data)
    uwTick                                   0x20000030   Data           4  stm32g4xx_hal.o(.data)
    SystemCoreClock                          0x20000034   Data           4  system_stm32g4xx.o(.data)
    hadc1                                    0x20000038   Data         108  adc.o(.bss)
    hadc2                                    0x200000a4   Data         108  adc.o(.bss)
    hrtc                                     0x20000110   Data          40  rtc.o(.bss)
    htim2                                    0x20000138   Data          76  tim.o(.bss)
    htim3                                    0x20000184   Data          76  tim.o(.bss)
    htim6                                    0x200001d0   Data          76  tim.o(.bss)
    huart1                                   0x2000021c   Data         148  usart.o(.bss)
    LCD_Buf                                  0x200002b0   Data          30  task.o(.bss)
    __initial_sp                             0x200006d0   Data           0  startup_stm32g431xx.o(STACK)



==============================================================================

Memory Map of the image

  Image Entry point : 0x080001d9

  Load Region LR_IROM1 (Base: 0x08000000, Size: 0x00006bbc, Max: 0x00020000, ABSOLUTE)

    Execution Region ER_IROM1 (Exec base: 0x08000000, Load base: 0x08000000, Size: 0x00006b84, Max: 0x00020000, ABSOLUTE)

    Exec Addr    Load Addr    Size         Type   Attr      Idx    E Section Name        Object

    0x08000000   0x08000000   0x000001d8   Data   RO          985    RESET               startup_stm32g431xx.o
    0x080001d8   0x080001d8   0x00000000   Code   RO         5105  * .ARM.Collect$$$$00000000  mc_w.l(entry.o)
    0x080001d8   0x080001d8   0x00000004   Code   RO         5377    .ARM.Collect$$$$00000001  mc_w.l(entry2.o)
    0x080001dc   0x080001dc   0x00000004   Code   RO         5380    .ARM.Collect$$$$00000004  mc_w.l(entry5.o)
    0x080001e0   0x080001e0   0x00000000   Code   RO         5382    .ARM.Collect$$$$00000008  mc_w.l(entry7b.o)
    0x080001e0   0x080001e0   0x00000000   Code   RO         5384    .ARM.Collect$$$$0000000A  mc_w.l(entry8b.o)
    0x080001e0   0x080001e0   0x00000008   Code   RO         5385    .ARM.Collect$$$$0000000B  mc_w.l(entry9a.o)
    0x080001e8   0x080001e8   0x00000004   Code   RO         5392    .ARM.Collect$$$$0000000E  mc_w.l(entry12b.o)
    0x080001ec   0x080001ec   0x00000000   Code   RO         5387    .ARM.Collect$$$$0000000F  mc_w.l(entry10a.o)
    0x080001ec   0x080001ec   0x00000000   Code   RO         5389    .ARM.Collect$$$$00000011  mc_w.l(entry11a.o)
    0x080001ec   0x080001ec   0x00000004   Code   RO         5378    .ARM.Collect$$$$00002712  mc_w.l(entry2.o)
    0x080001f0   0x080001f0   0x00000024   Code   RO          986    .text               startup_stm32g431xx.o
    0x08000214   0x08000214   0x00000062   Code   RO         5108    .text               mc_w.l(uldiv.o)
    0x08000276   0x08000276   0x00000024   Code   RO         5110    .text               mc_w.l(memseta.o)
    0x0800029a   0x0800029a   0x000000de   Code   RO         5373    .text               mf_w.l(ddiv.o)
    0x08000378   0x08000378   0x0000001a   Code   RO         5375    .text               mf_w.l(dfltui.o)
    0x08000392   0x08000392   0x0000002c   Code   RO         5396    .text               mc_w.l(uidiv.o)
    0x080003be   0x080003be   0x0000001e   Code   RO         5398    .text               mc_w.l(llshl.o)
    0x080003dc   0x080003dc   0x00000020   Code   RO         5400    .text               mc_w.l(llushr.o)
    0x080003fc   0x080003fc   0x00000000   Code   RO         5402    .text               mc_w.l(iusefp.o)
    0x080003fc   0x080003fc   0x000000ba   Code   RO         5403    .text               mf_w.l(depilogue.o)
    0x080004b6   0x080004b6   0x0000014e   Code   RO         5405    .text               mf_w.l(dadd.o)
    0x08000604   0x08000604   0x000000e4   Code   RO         5407    .text               mf_w.l(dmul.o)
    0x080006e8   0x080006e8   0x00000030   Code   RO         5409    .text               mf_w.l(dfixul.o)
    0x08000718   0x08000718   0x00000030   Code   RO         5411    .text               mf_w.l(cdrcmple.o)
    0x08000748   0x08000748   0x00000024   Code   RO         5413    .text               mc_w.l(init.o)
    0x0800076c   0x0800076c   0x00000024   Code   RO         5416    .text               mc_w.l(llsshr.o)
    0x08000790   0x08000790   0x000000e4   Code   RO          993    i.ADC_ConversionStop  stm32g4xx_hal_adc.o
    0x08000874   0x08000874   0x00000070   Code   RO          997    i.ADC_Disable       stm32g4xx_hal_adc.o
    0x080008e4   0x080008e4   0x000000ac   Code   RO          998    i.ADC_Enable        stm32g4xx_hal_adc.o
    0x08000990   0x08000990   0x00000002   Code   RO          421    i.BusFault_Handler  stm32g4xx_it.o
    0x08000992   0x08000992   0x00000002   Code   RO          422    i.DebugMon_Handler  stm32g4xx_it.o
    0x08000994   0x08000994   0x0000001c   Code   RO          649    i.Delay_LCD         lcd.o
    0x080009b0   0x080009b0   0x00000004   Code   RO            4    i.Error_Handler     main.o
    0x080009b4   0x080009b4   0x00000094   Code   RO         1231    i.HAL_ADCEx_Calibration_Start  stm32g4xx_hal_adc_ex.o
    0x08000a48   0x08000a48   0x000000d8   Code   RO         1248    i.HAL_ADCEx_MultiModeConfigChannel  stm32g4xx_hal_adc_ex.o
    0x08000b20   0x08000b20   0x00000424   Code   RO         1000    i.HAL_ADC_ConfigChannel  stm32g4xx_hal_adc.o
    0x08000f44   0x08000f44   0x00000006   Code   RO         1007    i.HAL_ADC_GetValue  stm32g4xx_hal_adc.o
    0x08000f4a   0x08000f4a   0x00000002   PAD
    0x08000f4c   0x08000f4c   0x000001f4   Code   RO         1009    i.HAL_ADC_Init      stm32g4xx_hal_adc.o
    0x08001140   0x08001140   0x000000e4   Code   RO          229    i.HAL_ADC_MspInit   adc.o
    0x08001224   0x08001224   0x000000f4   Code   RO         1015    i.HAL_ADC_Start     stm32g4xx_hal_adc.o
    0x08001318   0x08001318   0x0000003e   Code   RO         1019    i.HAL_ADC_Stop      stm32g4xx_hal_adc.o
    0x08001356   0x08001356   0x0000006a   Code   RO         2294    i.HAL_DMA_Abort     stm32g4xx_hal_dma.o
    0x080013c0   0x080013c0   0x00000078   Code   RO         2295    i.HAL_DMA_Abort_IT  stm32g4xx_hal_dma.o
    0x08001438   0x08001438   0x00000024   Code   RO         1447    i.HAL_Delay         stm32g4xx_hal.o
    0x0800145c   0x0800145c   0x00000248   Code   RO         2156    i.HAL_GPIO_Init     stm32g4xx_hal_gpio.o
    0x080016a4   0x080016a4   0x0000000a   Code   RO         2160    i.HAL_GPIO_WritePin  stm32g4xx_hal_gpio.o
    0x080016ae   0x080016ae   0x00000002   PAD
    0x080016b0   0x080016b0   0x0000000c   Code   RO         1451    i.HAL_GetTick       stm32g4xx_hal.o
    0x080016bc   0x080016bc   0x00000010   Code   RO         1457    i.HAL_IncTick       stm32g4xx_hal.o
    0x080016cc   0x080016cc   0x0000001e   Code   RO         1458    i.HAL_Init          stm32g4xx_hal.o
    0x080016ea   0x080016ea   0x00000002   PAD
    0x080016ec   0x080016ec   0x00000044   Code   RO         1459    i.HAL_InitTick      stm32g4xx_hal.o
    0x08001730   0x08001730   0x00000030   Code   RO          514    i.HAL_MspInit       stm32g4xx_hal_msp.o
    0x08001760   0x08001760   0x0000001a   Code   RO         2803    i.HAL_NVIC_EnableIRQ  stm32g4xx_hal_cortex.o
    0x0800177a   0x0800177a   0x00000002   PAD
    0x0800177c   0x0800177c   0x00000040   Code   RO         2809    i.HAL_NVIC_SetPriority  stm32g4xx_hal_cortex.o
    0x080017bc   0x080017bc   0x00000024   Code   RO         2810    i.HAL_NVIC_SetPriorityGrouping  stm32g4xx_hal_cortex.o
    0x080017e0   0x080017e0   0x000000bc   Code   RO         2559    i.HAL_PWREx_ControlVoltageScaling  stm32g4xx_hal_pwr_ex.o
    0x0800189c   0x0800189c   0x00000010   Code   RO         2571    i.HAL_PWREx_DisableUCPDDeadBattery  stm32g4xx_hal_pwr_ex.o
    0x080018ac   0x080018ac   0x00000288   Code   RO         1818    i.HAL_RCCEx_PeriphCLKConfig  stm32g4xx_hal_rcc_ex.o
    0x08001b34   0x08001b34   0x000001dc   Code   RO         1693    i.HAL_RCC_ClockConfig  stm32g4xx_hal_rcc.o
    0x08001d10   0x08001d10   0x00000024   Code   RO         1701    i.HAL_RCC_GetPCLK1Freq  stm32g4xx_hal_rcc.o
    0x08001d34   0x08001d34   0x00000024   Code   RO         1702    i.HAL_RCC_GetPCLK2Freq  stm32g4xx_hal_rcc.o
    0x08001d58   0x08001d58   0x00000070   Code   RO         1703    i.HAL_RCC_GetSysClockFreq  stm32g4xx_hal_rcc.o
    0x08001dc8   0x08001dc8   0x00000404   Code   RO         1706    i.HAL_RCC_OscConfig  stm32g4xx_hal_rcc.o
    0x080021cc   0x080021cc   0x0000009c   Code   RO         2946    i.HAL_RTC_Init      stm32g4xx_hal_rtc.o
    0x08002268   0x08002268   0x00000058   Code   RO          278    i.HAL_RTC_MspInit   rtc.o
    0x080022c0   0x080022c0   0x000000a0   Code   RO         2952    i.HAL_RTC_SetDate   stm32g4xx_hal_rtc.o
    0x08002360   0x08002360   0x000000cc   Code   RO         2953    i.HAL_RTC_SetTime   stm32g4xx_hal_rtc.o
    0x0800242c   0x0800242c   0x00000038   Code   RO         2954    i.HAL_RTC_WaitForSynchro  stm32g4xx_hal_rtc.o
    0x08002464   0x08002464   0x00000028   Code   RO         2814    i.HAL_SYSTICK_Config  stm32g4xx_hal_cortex.o
    0x0800248c   0x0800248c   0x00000002   Code   RO         4103    i.HAL_TIMEx_Break2Callback  stm32g4xx_hal_tim_ex.o
    0x0800248e   0x0800248e   0x00000002   Code   RO         4104    i.HAL_TIMEx_BreakCallback  stm32g4xx_hal_tim_ex.o
    0x08002490   0x08002490   0x00000002   Code   RO         4105    i.HAL_TIMEx_CommutCallback  stm32g4xx_hal_tim_ex.o
    0x08002492   0x08002492   0x00000002   Code   RO         4116    i.HAL_TIMEx_DirectionChangeCallback  stm32g4xx_hal_tim_ex.o
    0x08002494   0x08002494   0x00000002   Code   RO         4130    i.HAL_TIMEx_EncoderIndexCallback  stm32g4xx_hal_tim_ex.o
    0x08002496   0x08002496   0x00000002   Code   RO         4144    i.HAL_TIMEx_IndexErrorCallback  stm32g4xx_hal_tim_ex.o
    0x08002498   0x08002498   0x0000009c   Code   RO         4145    i.HAL_TIMEx_MasterConfigSynchronization  stm32g4xx_hal_tim_ex.o
    0x08002534   0x08002534   0x00000002   Code   RO         4166    i.HAL_TIMEx_TransitionErrorCallback  stm32g4xx_hal_tim_ex.o
    0x08002536   0x08002536   0x00000062   Code   RO         3389    i.HAL_TIM_Base_Init  stm32g4xx_hal_tim.o
    0x08002598   0x08002598   0x000000b0   Code   RO          320    i.HAL_TIM_Base_MspInit  tim.o
    0x08002648   0x08002648   0x00000078   Code   RO         3394    i.HAL_TIM_Base_Start_IT  stm32g4xx_hal_tim.o
    0x080026c0   0x080026c0   0x00000100   Code   RO         3398    i.HAL_TIM_ConfigClockSource  stm32g4xx_hal_tim.o
    0x080027c0   0x080027c0   0x00000050   Code   RO          538    i.HAL_TIM_IC_CaptureCallback  interrupt.o
    0x08002810   0x08002810   0x00000124   Code   RO         3425    i.HAL_TIM_IC_ConfigChannel  stm32g4xx_hal_tim.o
    0x08002934   0x08002934   0x00000062   Code   RO         3428    i.HAL_TIM_IC_Init   stm32g4xx_hal_tim.o
    0x08002996   0x08002996   0x00000002   Code   RO         3430    i.HAL_TIM_IC_MspInit  stm32g4xx_hal_tim.o
    0x08002998   0x08002998   0x0000012c   Code   RO         3433    i.HAL_TIM_IC_Start_IT  stm32g4xx_hal_tim.o
    0x08002ac4   0x08002ac4   0x000001a2   Code   RO         3437    i.HAL_TIM_IRQHandler  stm32g4xx_hal_tim.o
    0x08002c66   0x08002c66   0x00000002   PAD
    0x08002c68   0x08002c68   0x0000004c   Code   RO          321    i.HAL_TIM_MspPostInit  tim.o
    0x08002cb4   0x08002cb4   0x00000002   Code   RO         3440    i.HAL_TIM_OC_DelayElapsedCallback  stm32g4xx_hal_tim.o
    0x08002cb6   0x08002cb6   0x00000124   Code   RO         3461    i.HAL_TIM_PWM_ConfigChannel  stm32g4xx_hal_tim.o
    0x08002dda   0x08002dda   0x00000062   Code   RO         3464    i.HAL_TIM_PWM_Init  stm32g4xx_hal_tim.o
    0x08002e3c   0x08002e3c   0x00000002   Code   RO         3466    i.HAL_TIM_PWM_MspInit  stm32g4xx_hal_tim.o
    0x08002e3e   0x08002e3e   0x00000002   Code   RO         3467    i.HAL_TIM_PWM_PulseFinishedCallback  stm32g4xx_hal_tim.o
    0x08002e40   0x08002e40   0x000000fc   Code   RO         3469    i.HAL_TIM_PWM_Start  stm32g4xx_hal_tim.o
    0x08002f3c   0x08002f3c   0x00000064   Code   RO          539    i.HAL_TIM_PeriodElapsedCallback  interrupt.o
    0x08002fa0   0x08002fa0   0x0000002a   Code   RO         3477    i.HAL_TIM_ReadCapturedValue  stm32g4xx_hal_tim.o
    0x08002fca   0x08002fca   0x00000056   Code   RO         3478    i.HAL_TIM_SlaveConfigSynchro  stm32g4xx_hal_tim.o
    0x08003020   0x08003020   0x00000002   Code   RO         3480    i.HAL_TIM_TriggerCallback  stm32g4xx_hal_tim.o
    0x08003022   0x08003022   0x0000003e   Code   RO         4952    i.HAL_UARTEx_DisableFifoMode  stm32g4xx_hal_uart_ex.o
    0x08003060   0x08003060   0x00000002   Code   RO         4541    i.HAL_UARTEx_RxEventCallback  stm32g4xx_hal_uart.o
    0x08003062   0x08003062   0x00000002   Code   RO         4960    i.HAL_UARTEx_RxFifoFullCallback  stm32g4xx_hal_uart_ex.o
    0x08003064   0x08003064   0x0000004c   Code   RO         4961    i.HAL_UARTEx_SetRxFifoThreshold  stm32g4xx_hal_uart_ex.o
    0x080030b0   0x080030b0   0x0000004c   Code   RO         4962    i.HAL_UARTEx_SetTxFifoThreshold  stm32g4xx_hal_uart_ex.o
    0x080030fc   0x080030fc   0x00000002   Code   RO         4964    i.HAL_UARTEx_TxFifoEmptyCallback  stm32g4xx_hal_uart_ex.o
    0x080030fe   0x080030fe   0x00000002   Code   RO         4965    i.HAL_UARTEx_WakeupCallback  stm32g4xx_hal_uart_ex.o
    0x08003100   0x08003100   0x00000002   Code   RO         4557    i.HAL_UART_ErrorCallback  stm32g4xx_hal_uart.o
    0x08003102   0x08003102   0x00000002   PAD
    0x08003104   0x08003104   0x0000030c   Code   RO         4560    i.HAL_UART_IRQHandler  stm32g4xx_hal_uart.o
    0x08003410   0x08003410   0x0000006a   Code   RO         4561    i.HAL_UART_Init     stm32g4xx_hal_uart.o
    0x0800347a   0x0800347a   0x00000002   PAD
    0x0800347c   0x0800347c   0x0000008c   Code   RO          380    i.HAL_UART_MspInit  usart.o
    0x08003508   0x08003508   0x00000002   Code   RO         4573    i.HAL_UART_TxCpltCallback  stm32g4xx_hal_uart.o
    0x0800350a   0x0800350a   0x00000002   Code   RO          423    i.HardFault_Handler  stm32g4xx_it.o
    0x0800350c   0x0800350c   0x00000014   Code   RO          580    i.Key_Proc          task.o
    0x08003520   0x08003520   0x0000002c   Code   RO          650    i.LCD_BusIn         lcd.o
    0x0800354c   0x0800354c   0x00000030   Code   RO          651    i.LCD_BusOut        lcd.o
    0x0800357c   0x0800357c   0x00000024   Code   RO          652    i.LCD_Clear         lcd.o
    0x080035a0   0x080035a0   0x00000090   Code   RO          654    i.LCD_CtrlLinesConfig  lcd.o
    0x08003630   0x08003630   0x00000018   Code   RO          655    i.LCD_DisplayChar   lcd.o
    0x08003648   0x08003648   0x0000002a   Code   RO          658    i.LCD_DisplayStringLine  lcd.o
    0x08003672   0x08003672   0x00000002   PAD
    0x08003674   0x08003674   0x00000058   Code   RO          659    i.LCD_DrawChar      lcd.o
    0x080036cc   0x080036cc   0x00000034   Code   RO          665    i.LCD_Init          lcd.o
    0x08003700   0x08003700   0x000000dc   Code   RO          581    i.LCD_Proc          task.o
    0x080037dc   0x080037dc   0x00000080   Code   RO          668    i.LCD_ReadReg       lcd.o
    0x0800385c   0x0800385c   0x00000010   Code   RO          669    i.LCD_SetBackColor  lcd.o
    0x0800386c   0x0800386c   0x00000018   Code   RO          670    i.LCD_SetCursor     lcd.o
    0x08003884   0x08003884   0x00000010   Code   RO          672    i.LCD_SetTextColor  lcd.o
    0x08003894   0x08003894   0x00000060   Code   RO          675    i.LCD_WriteRAM      lcd.o
    0x080038f4   0x080038f4   0x00000060   Code   RO          676    i.LCD_WriteRAM_Prepare  lcd.o
    0x08003954   0x08003954   0x00000070   Code   RO          677    i.LCD_WriteReg      lcd.o
    0x080039c4   0x080039c4   0x00000068   Code   RO          858    i.LED_DiaPlay       led.o
    0x08003a2c   0x08003a2c   0x0000000c   Code   RO         1023    i.LL_ADC_GetOffsetChannel  stm32g4xx_hal_adc.o
    0x08003a38   0x08003a38   0x00000008   Code   RO         1024    i.LL_ADC_INJ_IsConversionOngoing  stm32g4xx_hal_adc.o
    0x08003a40   0x08003a40   0x00000008   Code   RO         1025    i.LL_ADC_REG_IsConversionOngoing  stm32g4xx_hal_adc.o
    0x08003a48   0x08003a48   0x00000008   Code   RO         1258    i.LL_ADC_REG_IsConversionOngoing  stm32g4xx_hal_adc_ex.o
    0x08003a50   0x08003a50   0x0000001e   Code   RO         1028    i.LL_ADC_SetChannelSamplingTime  stm32g4xx_hal_adc.o
    0x08003a6e   0x08003a6e   0x00000010   Code   RO         1029    i.LL_ADC_SetOffsetState  stm32g4xx_hal_adc.o
    0x08003a7e   0x08003a7e   0x00000002   PAD
    0x08003a80   0x08003a80   0x00000090   Code   RO          230    i.MX_ADC1_Init      adc.o
    0x08003b10   0x08003b10   0x0000007c   Code   RO          231    i.MX_ADC2_Init      adc.o
    0x08003b8c   0x08003b8c   0x00000120   Code   RO          204    i.MX_GPIO_Init      gpio.o
    0x08003cac   0x08003cac   0x00000094   Code   RO          279    i.MX_RTC_Init       rtc.o
    0x08003d40   0x08003d40   0x0000009c   Code   RO          322    i.MX_TIM2_Init      tim.o
    0x08003ddc   0x08003ddc   0x000000d0   Code   RO          323    i.MX_TIM3_Init      tim.o
    0x08003eac   0x08003eac   0x00000048   Code   RO          324    i.MX_TIM6_Init      tim.o
    0x08003ef4   0x08003ef4   0x00000068   Code   RO          381    i.MX_USART1_UART_Init  usart.o
    0x08003f5c   0x08003f5c   0x00000002   Code   RO          424    i.MemManage_Handler  stm32g4xx_it.o
    0x08003f5e   0x08003f5e   0x00000002   Code   RO          425    i.NMI_Handler       stm32g4xx_it.o
    0x08003f60   0x08003f60   0x00000002   Code   RO          426    i.PendSV_Handler    stm32g4xx_it.o
    0x08003f62   0x08003f62   0x00000112   Code   RO          678    i.REG_8230_Init     lcd.o
    0x08004074   0x08004074   0x00000202   Code   RO          679    i.REG_932X_Init     lcd.o
    0x08004276   0x08004276   0x00000018   Code   RO         2956    i.RTC_ByteToBcd2    stm32g4xx_hal_rtc.o
    0x0800428e   0x0800428e   0x00000002   PAD
    0x08004290   0x08004290   0x0000004a   Code   RO         2957    i.RTC_EnterInitMode  stm32g4xx_hal_rtc.o
    0x080042da   0x080042da   0x00000050   Code   RO         2958    i.RTC_ExitInitMode  stm32g4xx_hal_rtc.o
    0x0800432a   0x0800432a   0x00000002   PAD
    0x0800432c   0x0800432c   0x00000040   Code   RO          582    i.Read_Proc         task.o
    0x0800436c   0x0800436c   0x00000002   Code   RO          427    i.SVC_Handler       stm32g4xx_it.o
    0x0800436e   0x0800436e   0x00000004   Code   RO          428    i.SysTick_Handler   stm32g4xx_it.o
    0x08004372   0x08004372   0x0000006c   Code   RO            5    i.SystemClock_Config  main.o
    0x080043de   0x080043de   0x00000002   PAD
    0x080043e0   0x080043e0   0x00000010   Code   RO         5071    i.SystemInit        system_stm32g4xx.o
    0x080043f0   0x080043f0   0x0000000c   Code   RO          429    i.TIM3_IRQHandler   stm32g4xx_it.o
    0x080043fc   0x080043fc   0x0000000c   Code   RO          430    i.TIM6_DAC_IRQHandler  stm32g4xx_it.o
    0x08004408   0x08004408   0x000000bc   Code   RO         3482    i.TIM_Base_SetConfig  stm32g4xx_hal_tim.o
    0x080044c4   0x080044c4   0x0000001a   Code   RO         3483    i.TIM_CCxChannelCmd  stm32g4xx_hal_tim.o
    0x080044de   0x080044de   0x00000014   Code   RO         3493    i.TIM_ETR_SetConfig  stm32g4xx_hal_tim.o
    0x080044f2   0x080044f2   0x00000002   PAD
    0x080044f4   0x080044f4   0x00000014   Code   RO         3494    i.TIM_ITRx_SetConfig  stm32g4xx_hal_tim.o
    0x08004508   0x08004508   0x0000009c   Code   RO         3495    i.TIM_OC1_SetConfig  stm32g4xx_hal_tim.o
    0x080045a4   0x080045a4   0x00000090   Code   RO         3496    i.TIM_OC2_SetConfig  stm32g4xx_hal_tim.o
    0x08004634   0x08004634   0x00000090   Code   RO         3497    i.TIM_OC3_SetConfig  stm32g4xx_hal_tim.o
    0x080046c4   0x080046c4   0x00000090   Code   RO         3498    i.TIM_OC4_SetConfig  stm32g4xx_hal_tim.o
    0x08004754   0x08004754   0x00000070   Code   RO         3499    i.TIM_OC5_SetConfig  stm32g4xx_hal_tim.o
    0x080047c4   0x080047c4   0x00000070   Code   RO         3500    i.TIM_OC6_SetConfig  stm32g4xx_hal_tim.o
    0x08004834   0x08004834   0x000000d0   Code   RO         3501    i.TIM_SlaveTimer_SetConfig  stm32g4xx_hal_tim.o
    0x08004904   0x08004904   0x00000022   Code   RO         3502    i.TIM_TI1_ConfigInputStage  stm32g4xx_hal_tim.o
    0x08004926   0x08004926   0x00000002   PAD
    0x08004928   0x08004928   0x0000006c   Code   RO         3503    i.TIM_TI1_SetConfig  stm32g4xx_hal_tim.o
    0x08004994   0x08004994   0x00000024   Code   RO         3504    i.TIM_TI2_ConfigInputStage  stm32g4xx_hal_tim.o
    0x080049b8   0x080049b8   0x00000036   Code   RO         3505    i.TIM_TI2_SetConfig  stm32g4xx_hal_tim.o
    0x080049ee   0x080049ee   0x00000002   PAD
    0x080049f0   0x080049f0   0x00000044   Code   RO         4966    i.UARTEx_SetNbDataToProcess  stm32g4xx_hal_uart_ex.o
    0x08004a34   0x08004a34   0x000000c8   Code   RO         4575    i.UART_AdvFeatureConfig  stm32g4xx_hal_uart.o
    0x08004afc   0x08004afc   0x000000ac   Code   RO         4576    i.UART_CheckIdleState  stm32g4xx_hal_uart.o
    0x08004ba8   0x08004ba8   0x00000014   Code   RO         4577    i.UART_DMAAbortOnError  stm32g4xx_hal_uart.o
    0x08004bbc   0x08004bbc   0x00000054   Code   RO         4587    i.UART_EndRxTransfer  stm32g4xx_hal_uart.o
    0x08004c10   0x08004c10   0x00000274   Code   RO         4593    i.UART_SetConfig    stm32g4xx_hal_uart.o
    0x08004e84   0x08004e84   0x00000094   Code   RO         4600    i.UART_WaitOnFlagUntilTimeout  stm32g4xx_hal_uart.o
    0x08004f18   0x08004f18   0x0000000c   Code   RO          431    i.USART1_IRQHandler  stm32g4xx_it.o
    0x08004f24   0x08004f24   0x00000002   Code   RO          432    i.UsageFault_Handler  stm32g4xx_it.o
    0x08004f26   0x08004f26   0x00000002   PAD
    0x08004f28   0x08004f28   0x0000009c   Code   RO          540    i.Voltage_Get       interrupt.o
    0x08004fc4   0x08004fc4   0x00000028   Code   RO         5347    i.__0sprintf        mc_w.l(printfa.o)
    0x08004fec   0x08004fec   0x00000020   Code   RO         2816    i.__NVIC_SetPriority  stm32g4xx_hal_cortex.o
    0x0800500c   0x0800500c   0x0000000e   Code   RO         5421    i.__scatterload_copy  mc_w.l(handlers.o)
    0x0800501a   0x0800501a   0x00000002   Code   RO         5422    i.__scatterload_null  mc_w.l(handlers.o)
    0x0800501c   0x0800501c   0x0000000e   Code   RO         5423    i.__scatterload_zeroinit  mc_w.l(handlers.o)
    0x0800502a   0x0800502a   0x00000002   PAD
    0x0800502c   0x0800502c   0x00000184   Code   RO         5352    i._fp_digits        mc_w.l(printfa.o)
    0x080051b0   0x080051b0   0x000006b4   Code   RO         5353    i._printf_core      mc_w.l(printfa.o)
    0x08005864   0x08005864   0x00000024   Code   RO         5354    i._printf_post_padding  mc_w.l(printfa.o)
    0x08005888   0x08005888   0x0000002e   Code   RO         5355    i._printf_pre_padding  mc_w.l(printfa.o)
    0x080058b6   0x080058b6   0x0000000a   Code   RO         5357    i._sputc            mc_w.l(printfa.o)
    0x080058c0   0x080058c0   0x00000094   Code   RO            6    i.main              main.o
    0x08005954   0x08005954   0x000011d0   Data   RO          680    .constdata          lcd.o
    0x08006b24   0x08006b24   0x00000018   Data   RO         4601    .constdata          stm32g4xx_hal_uart.o
    0x08006b3c   0x08006b3c   0x00000010   Data   RO         4967    .constdata          stm32g4xx_hal_uart_ex.o
    0x08006b4c   0x08006b4c   0x00000010   Data   RO         5072    .constdata          system_stm32g4xx.o
    0x08006b5c   0x08006b5c   0x00000008   Data   RO         5073    .constdata          system_stm32g4xx.o
    0x08006b64   0x08006b64   0x00000020   Data   RO         5419    Region$$Table       anon$$obj.o


    Execution Region RW_IRAM1 (Exec base: 0x20000000, Load base: 0x08006b84, Size: 0x000006d0, Max: 0x00008000, ABSOLUTE)

    Exec Addr    Load Addr    Size         Type   Attr      Idx    E Section Name        Object

    0x20000000   0x08006b84   0x00000004   Data   RW          233    .data               adc.o
    0x20000004   0x08006b88   0x0000001a   Data   RW          541    .data               interrupt.o
    0x2000001e   0x08006ba2   0x00000006   Data   RW          681    .data               lcd.o
    0x20000024   0x08006ba8   0x00000004   Data   RW          859    .data               led.o
    0x20000028   0x08006bac   0x0000000c   Data   RW         1478    .data               stm32g4xx_hal.o
    0x20000034   0x08006bb8   0x00000004   Data   RW         5074    .data               system_stm32g4xx.o
    0x20000038        -       0x000000d8   Zero   RW          232    .bss                adc.o
    0x20000110        -       0x00000028   Zero   RW          280    .bss                rtc.o
    0x20000138        -       0x000000e4   Zero   RW          325    .bss                tim.o
    0x2000021c        -       0x00000094   Zero   RW          382    .bss                usart.o
    0x200002b0        -       0x0000001e   Zero   RW          583    .bss                task.o
    0x200002ce   0x08006bbc   0x00000002   PAD
    0x200002d0        -       0x00000400   Zero   RW          983    STACK               startup_stm32g431xx.o


==============================================================================

Image component sizes


      Code (inc. data)   RO Data    RW Data    ZI Data      Debug   Object Name

       496         40          0          4        216       2878   adc.o
       288         18          0          0          0       1143   gpio.o
       336         36          0         26          0       2713   interrupt.o
      1782         78       4560          6          0      14518   lcd.o
       104         14          0          4          0        706   led.o
       260         22          0          0          0     693021   main.o
       236         20          0          0         40       1915   rtc.o
        36          8        472          0       1024        832   startup_stm32g431xx.o
       162         24          0         12          0       4621   stm32g4xx_hal.o
      2458        134          0          0          0      80229   stm32g4xx_hal_adc.o
       372         18          0          0          0      69413   stm32g4xx_hal_adc_ex.o
       198         14          0          0          0      34087   stm32g4xx_hal_cortex.o
       226          0          0          0          0       2067   stm32g4xx_hal_dma.o
       594         34          0          0          0       2476   stm32g4xx_hal_gpio.o
        48          6          0          0          0        950   stm32g4xx_hal_msp.o
       204         18          0          0          0       1489   stm32g4xx_hal_pwr_ex.o
      1688         92          0          0          0       6528   stm32g4xx_hal_rcc.o
       648         10          0          0          0       1964   stm32g4xx_hal_rcc_ex.o
       754         20          0          0          0       6517   stm32g4xx_hal_rtc.o
      3868        318          0          0          0      27442   stm32g4xx_hal_tim.o
       170         24          0          0          0       5812   stm32g4xx_hal_tim_ex.o
      2144         86         24          0          0      30072   stm32g4xx_hal_uart.o
       288          6         16          0          0       5722   stm32g4xx_hal_uart_ex.o
        56         18          0          0          0       6082   stm32g4xx_it.o
        16          4         24          4          0       1259   system_stm32g4xx.o
       304         98          0          0         30       2208   task.o
       688         42          0          0        228       4306   tim.o
       244         18          0          0        148       1970   usart.o

    ----------------------------------------------------------------------
     18700       1220       5128         56       1688    1012940   Object Totals
         0          0         32          0          0          0   (incl. Generated)
        32          0          0          0          2          0   (incl. Padding)

    ----------------------------------------------------------------------

      Code (inc. data)   RO Data    RW Data    ZI Data      Debug   Library Member Name

         0          0          0          0          0          0   entry.o
         0          0          0          0          0          0   entry10a.o
         0          0          0          0          0          0   entry11a.o
         4          0          0          0          0          0   entry12b.o
         8          4          0          0          0          0   entry2.o
         4          0          0          0          0          0   entry5.o
         0          0          0          0          0          0   entry7b.o
         0          0          0          0          0          0   entry8b.o
         8          4          0          0          0          0   entry9a.o
        30          0          0          0          0          0   handlers.o
        36          8          0          0          0         68   init.o
         0          0          0          0          0          0   iusefp.o
        30          0          0          0          0         68   llshl.o
        36          0          0          0          0         68   llsshr.o
        32          0          0          0          0         68   llushr.o
        36          0          0          0          0        108   memseta.o
      2236         86          0          0          0        532   printfa.o
        44          0          0          0          0         80   uidiv.o
        98          0          0          0          0         92   uldiv.o
        48          0          0          0          0         68   cdrcmple.o
       334          0          0          0          0        148   dadd.o
       222          0          0          0          0        100   ddiv.o
       186          0          0          0          0        176   depilogue.o
        48          0          0          0          0         68   dfixul.o
        26          0          0          0          0         76   dfltui.o
       228          0          0          0          0         96   dmul.o

    ----------------------------------------------------------------------
      3696        102          0          0          0       1816   Library Totals
         2          0          0          0          0          0   (incl. Padding)

    ----------------------------------------------------------------------

      Code (inc. data)   RO Data    RW Data    ZI Data      Debug   Library Name

      2602        102          0          0          0       1084   mc_w.l
      1092          0          0          0          0        732   mf_w.l

    ----------------------------------------------------------------------
      3696        102          0          0          0       1816   Library Totals

    ----------------------------------------------------------------------

==============================================================================


      Code (inc. data)   RO Data    RW Data    ZI Data      Debug   

     22396       1322       5128         56       1688     999024   Grand Totals
     22396       1322       5128         56       1688     999024   ELF Image Totals
     22396       1322       5128         56          0          0   ROM Totals

==============================================================================

    Total RO  Size (Code + RO Data)                27524 (  26.88kB)
    Total RW  Size (RW Data + ZI Data)              1744 (   1.70kB)
    Total ROM Size (Code + RO Data + RW Data)      27580 (  26.93kB)

==============================================================================

