:020000040800F2
:1000000050060020F1010008EB450008A93900085E
:10001000E9450008CD120008D5580008000000008E
:10002000000000000000000000000000654B000818
:10003000CF12000800000000ED450008694C0008E0
:100040000B0200080B0200080B0200080B0200085C
:100050000B0200080B0200080B0200080B0200084C
:100060000B0200080B0200080B0200080B0200083C
:100070000B0200080B0200080B0200080B0200082C
:100080000B020008000000000B0200080B02000831
:100090000B0200080B0200080B0200080B0200080C
:1000A0000B0200080B0200080B0200080B020008FC
:1000B0000B0200080B0200080B0200080B020008EC
:1000C0000B0200080B0200080B0200080B020008DC
:1000D0000B020008C95800080B0200080B020008B8
:1000E0000B020008054900080B0200080B0200087B
:1000F0000B0200080B0200080B02000800000000C1
:10010000000000000B020008000000000B020008C5
:100110000B02000800000000ED4C0008F94C00083C
:100120000B0200080B0200080B0200080B0200087B
:100130000B02000800000000000000000B02000895
:100140000B0200080B020008000000000000000085
:10015000000000000000000000000000000000009F
:100160000000000000000000000000000B0200087A
:100170000B0200080000000000000000000000006A
:10018000000000000B02000800000000000000005A
:10019000000000000000000000000000000000005F
:1001A00000000000000000000B0200080B02000825
:1001B0000B0200080B0200080B0200080000000000
:1001C000000000000B02000800000000000000001A
:1001D0000B0200080B020008DFF810D000F056FCFC
:1001E0000048004789620008AFF3008050060020F5
:1001F0000648804706480047FEE7FEE7FEE7FEE7C1
:10020000FEE7FEE7FEE7FEE7FEE7FEE7DD4C00085F
:10021000D90100082DE9F05F0546002092469B4673
:1002200088460646814640241BE02846414647460C
:10023000224600F044FA53465A46C01A914110D360
:1002400011461846224600F02BFA2D1A67EB0108DA
:100250004F4622460120002100F022FA17EB000948
:100260004E41201EA4F10104DFDC484631462A46F7
:100270004346BDE8F09FD2B201E000F8012B491ED1
:10028000FBD270470022F6E710B513460A46044633
:100290001946FFF7F0FF204610BD30B505462A4647
:1002A0000B4612F8010B13F8014B08B1A042F8D02D
:1002B0001CB1002802D06D1CF1E7284630BD0000BB
:1002C0000FB400B58DB010A909900B9000914FF0BC
:1002D000FF300A9000200C900548069005480790D2
:1002E0006A4609A80F9900F001FA0DB05DF814FBF9
:1002F00009070008270700082DE9FF5FD2E901A7D9
:100300004FF00008916999461446DDF838B046462A
:1003100001988847054659EA0B0005D009E0A16914
:10032000761C019888470546216A28468847002898
:10033000F5D1681C03D05FEACA7005D015E04FF014
:10034000FF3004B0BDE8F09F2068011D2160D0F8A7
:1003500000800AE05FEACA7001D108F8015BA16978
:10036000761C7F1E019888470546002F1ADD681C01
:1003700018D0B9F1000F0DD0E81705EBD06042118D
:1003800020F01F0059F822102A1A01209040014243
:10039000E0D107E0BBF1000FDCD1216A2846884795
:1003A0000028D7D0E16901988847BBF1000F07D139
:1003B000002E05DD5FEACA7002D1002188F8001026
:1003C000A068B84203DDBBF1000F03D017B16FF096
:1003D0000100B6E73046B4E72DE9FE4F81EA030499
:1003E00004F0004421F0004100944FF0000B23F092
:1003F000004350EA01045ED052EA03045BD0C3F329
:100400000A54C1F30A552C44A4F2F3340194A0FB1E
:100410000254C1F3130141F48011C3F3130343F4F5
:10042000801301FB024400FB034E840A970A44EA4E
:10043000815447EA8357A4FB076802958D0A05FBA0
:1004400007854FEA932C04FB0C542705029D4FEAC5
:10045000065847EA1637B5EB08056EEB070C870E12
:10046000920E47EA811742EA8312A7FB0201B6EB1C
:100470000B0164EB00042B0D43EA0C335E1844EBD4
:100480001C50DA465146E7FB0201C5F313044FEA5C
:100490000B3343EA14534FEA0432019C43EA060348
:1004A000A4F10C040294009CCDE900B400F0E0F942
:1004B00003B0BDE8F08F00200146F9E72DE9F04DCB
:1004C00081EA030404F0004B21F0004514464FF08C
:1004D000000A23F0004150EA050220D054EA01024C
:1004E0001DD0C5F30A570246C5F31303C1F3130029
:1004F000C1F30A5640F4801543F48013A7EB0608B5
:10050000101BD64608F2FD3873EB050002D308F144
:10051000010801E092185B41B8F1000F03DA0020F6
:100520000146BDE8F08D00204FF480110646844658
:100530000EE0171B73EB050705D3121B63EB0503D6
:1005400006434CEA010C49084FEA300092185B411F
:1005500050EA0107EDD152EA030012D082EA04000A
:1005600083EA0501084305D0101BAB4106D20122E6
:10057000002306E000224FF0004302E06FF001028A
:1005800053101AEB06004CEB085110EB0A0041EB3C
:100590000B01BDE8F04D00F05CB90EB540F23341FF
:1005A00002910021CDE900110A460B4600F060F9E6
:1005B00003B000BDC1F30A5210B5C1F3130140F2FC
:1005C000FF3341F480119A4201DA002010BD40F25D
:1005D00033439A42A2F2334203DC524200F06FF8F6
:1005E00010BD904010BD00F0004230F000400AD035
:1005F000C10D01F56071C0F3160042EA0151C20855
:1006000040071143704700200146704730B5041E73
:1006100071F1000404DB4FF00044404264EB01013F
:10062000141E73F1000405DB1C464FF000435242D8
:1006300063EB0403994208BF904230BD01F00043D0
:1006400030B421F0004150EA010206D00A0DA2F5B3
:100650006072C1F31301002A02DC30BC0020704735
:10066000440F44EAC104C100E01830BC00EBC250A2
:1006700000F0B8B830B50B46014600202022012416
:1006800009E021FA02F59D4205D303FA02F5491B60
:1006900004FA02F52844151EA2F10102F1DC30BD76
:1006A000202A04DB203A00FA02F100207047914032
:1006B000C2F1200320FA03F3194390407047202A27
:1006C00004DB203A21FA02F00021704721FA02F3FC
:1006D000D040C2F120029140084319467047000003
:1006E000026811441378016018467047D1600449CC
:1006F00051610449116200211161114600F0F0B905
:10070000E1060008D50A0008426842B1016811F804
:10071000013B23B1521EC0E9001218467047012167
:10072000C160881E704742685AB1C368016843B906
:1007300083688B4205D0491E521CC0E9001200207C
:1007400070474FF0FF3070470FB4002300B589B0F9
:100750000CA900910B996FF00042CB601E4B0693E1
:100760001E4B07930423CDE901321D4A089202462D
:100770006B46002000F0E0FB09B05DF814FB70B59B
:1007800086B006464FF0FF300091CDE90101002010
:1007900015460C4604903246694604A8FFF7D4FF7C
:1007A00002460498211825B108B1084600E0204609
:1007B0002860049800280DD0002A02DD00988842A5
:1007C00008D0081B0094CDE901043246694604A80C
:1007D000FFF7BAFF06B070BD090700082707000839
:1007E000D50A00080029A8BF7047401C490008BF6F
:1007F00020F00100704710B4B0FA80FC00FA0CF051
:1008000050EA010404BF10BC704749B1CCF1200488
:1008100021FA04F411FA0CF118BF01212143084315
:10082000A3EB0C01CB1D4FEA00614FEA102042BF41
:10083000002010BC704700EBC35010440029A4BF37
:1008400010BC7047401C490008BF20F0010010BCDC
:10085000704710B5141E73F1000408DA401C41F112
:10086000000192185B411A4301D120F0010010BD34
:100870002DE9F04D92469B4611B1B1FA81F202E0AA
:10088000B0FA80F220329046FFF70AFF04460F4686
:1008900040EA0A0041EA0B0153465A46084313D086
:1008A000114653EA010019D0C8F140025046FFF743
:1008B00006FF05460E46504659464246FFF7F0FEF3
:1008C000084305D0012004E020463946BDE8F08DFC
:1008D0000020054346EAE0762C4337430A98630537
:1008E000E40AA0EB08000022FD0A44EA47540A305B
:1008F00002D500200146E9E7010510196941DDE94B
:10090000084500196941BDE8F04DA2E72DE9FE4F09
:10091000804681EA0300C00F0C46009021F00041A0
:1009200023F00045B8EB0200A94105D2404621461C
:1009300090461C460B46024623F00040104347D029
:10094000270DC7F30A00C3F30A510290401A019021
:1009500040286BDAC3F3130040F4801B00989246E2
:1009600020B10023D2EB030A63EB0B0B019859462D
:10097000C0F140025046FFF793FE06460D46504632
:100980005946019A00F094F810EB080061410024E8
:1009900087EA115284EAE7731A4340D0009A62B39F
:1009A000019A012A4FEA075215DC001B61EB020194
:1009B0004FF0004202EA0752CDE90042001C41F527
:1009C000801132462B46FFF753FF03B0BDE8F08F8E
:1009D00040462146F9E7001B61EB0201001C41F58E
:1009E000801300185B412018A2F5001747EB0301A4
:1009F00040EAD570B6196D4111E06D084FEA360630
:100A000045EAC0754FEA0752001B61EB0201001C6A
:100A100041F5801149084FEA300000195141324632
:100A20002B4603B0BDE8F04FFFF713BF009801223B
:100A300040000023D0EB020263EBE07300982146F4
:100A40004FEAE074B8EB000061EB0401E9E783F0E2
:100A500000435BE781F0004158E7C1F30A52C1F35C
:100A6000130140F2FF3341F480119A4202DA002070
:100A70000146704740F233439A42A2F2334202DC0D
:100A80005242FFF71CBEFFF70BBE0000064C074D9D
:100A900006E0E06840F0010394E80700984710344E
:100AA000AC42F6D3FFF79CFB587500087875000838
:100AB000202A06DBCB17203A41FA02F043EAE07322
:100AC00006E041FA02F3D040C2F12002914008430F
:100AD00019467047C0B24FF4F05100F049BB000016
:100AE0002DE9F34F8BB04FF0000801F10C000C46DC
:100AF0004FF0010B46460DF1080A01906269012191
:100B000001989047051E2DD0252D2CD0216A8847AD
:100B1000C0B16269012101989047216A8847002885
:100B2000F7D1411E62690198904700E0761CA169E7
:100B30000B988847216A88470028F7D1E1690B980C
:100B40008847DBE7A1690B9888470746A84201D18F
:100B5000761CD3E7E1690B9888477F1C02D1B8F176
:100B6000000F6FD047E1002762693D463946019882
:100B700090472A2804D162690121019890470125F4
:100B8000DFF888926269012101989047A0F1300155
:100B90000A290AD24F45E5DC07EB870100EB410744
:100BA000303FDFD445F01005ECE7E90601D46FF0E3
:100BB00000476C280AD04C2814D0682815D06A2821
:100BC0000DD074281CD07A281AD01DE0626901214A
:100BD000019890476C2802D045F0040514E045F0D8
:100BE00002050DE045F020050AE062690121019847
:100BF0009047682802D045F0080505E045F40065F7
:100C00006269012101989047C4E9015765283DD0E8
:100C100019DC58287AD00CDC452837D004DC25288C
:100C200026D0412831D131E046282FD047282CD179
:100C30002CE05B2877D0612828D063287CD06428FA
:100C400023D15AE0D1E06F2848D008DC66281DD0B7
:100C500067281BD0692821D06E2816D127E070287C
:100C600045D0732868D0752847D078280DD14DE03D
:100C7000A1690B988847054625283FF469AFE169CB
:100C80000B9888476D1C3FF46AAFB4E023466A4670
:100C90006FF001000B9900F04FF99FE045F0400024
:100CA0006060A80723464FF0000236D43EE0E80714
:100CB0007FF447AF2068011D21600068290501D538
:100CC00006701BE7290701D5068017E7A90703D59A
:100CD000F117C0E9006111E706600FE745F0400039
:100CE0006060A80723464FF0080216D41EE040F6C5
:100CF0000E0125EA0100606016E045F040006060EA
:100D0000A80723464FF00A0207D40FE045F0400041
:100D10006060A80708D5234610226FF001000B99E8
:100D2000AFF300805AE007E0234610226FF0010085
:100D30000B99AFF3008051E04FF000094F464B464E
:100D4000632802D05B2807D041E02079C00601D497
:100D50000120A06001273AE06269012101989047D3
:100D60005E2805D14FF00109626949460198904714
:100D7000216939B900210A46534643F82120491C0C
:100D80000829FADBB0B3216969B9C11700EBD16258
:100D900053110AEB830122F01F02821A01200B6813
:100DA000904003430B6062690121019890475D28E0
:100DB000E8D1B9F1000F09D00020514651F82020A8
:100DC000D24341F82020401C0828F7DB02AB224622
:100DD00000976FF001000B99FFF78EFA00280CDAEC
:100DE000401C08D1BBF1000F05D04FF0FF300DB013
:100DF000BDE8F08FFFE74046F9E7E90701D108F1C8
:100E0000010806444FF0000B78E60000CCCCCC0C77
:100E10002DE9FF4F087883B09946FF2805D0491C7B
:100E20002D2804D00024002008E000200BE001243D
:100E3000F9E700EB800003EB4000491C0B78FF2B27
:100E4000F7D104B1404200230293147819461D469D
:100E50002D2C01D02B2C04D1521C2D2C13D000246E
:100E60000294AA461478FF2C0FD00A25A3FB05781C
:100E700001FB05814FF0000C03FB0C11521CE31920
:100E80004AEB0101EEE70124EAE7814453EA01005D
:100E900002D019F5C87F06DA03980021C0E90011D5
:100EA00007B0BDE8F08F0025AE4E2F46DFF8B882C0
:100EB000184600F071F9CDE90001B9F1000002DA3D
:100EC000C9F1000400E004460023A74A1AEB030B13
:100ED00042EB045A12E0E00707D02A463346384670
:100EE0004146FFF779FA074688462A4633461046B8
:100EF0001946FFF771FA05460E466410002CEAD138
:100F0000DDE90001B9F1000F5A46534606DAFFF752
:100F1000D5FA3A464346FFF7D1FA05E0FFF75CFA07
:100F20003A464346FFF758FA029A0AB181F0004167
:100F3000039AC2E90001B3E72DE9FF4F1F468DB0C8
:100F4000D7E901464FF0FF382E2045464FF0000903
:100F50000B90B9696D1C0E988847396A824688479C
:100F60000028F6D1BAF1FF3F0AD024F4D064002E55
:100F700011DDBAF12B0F08D0BAF12D0F0BD102E021
:100F8000404611B08DE744F48064B9696D1C0E9839
:100F900088478246761E6946600501D52D2000E00F
:100FA0002B208DF8000001F1010B0DF1200809E064
:100FB000B9696D1C0E98884782460F9844F40074F6
:100FC000761E0560002E02DDBAF1300FF0D00B99CD
:100FD0008A453ED144F0800406E00F99681CA9F1CF
:100FE000010944F400740860B9696D1C761E0E98FE
:100FF000884782463028F0D02BE00B998A4505D1EE
:10100000200603D444F08004761E18E0504604F015
:1010100099FD08B30DF11301761E44F400748B455D
:1010200008D2AAF130000BF8010B200607D5A9F170
:10103000010003E0200602D409F101008146A00569
:1010400002D50F99681C0860B9696D1C0E98884715
:101050008246002ED1DC53E0002E51DDBAF1650F3F
:1010600002D0BAF1450F4BD1A00549D5B9696D1C25
:1010700024F44074761E0E9888478246002E0CDDBC
:101080002B2804D0BAF12D0F07D144F48074B9692C
:101090006D1C0E9888478246761EE00501D52D21ED
:1010A00000E02B2108F8011BCDF82C8021E00DF188
:1010B0002901761E44F4007488450CD2AAF1300050
:1010C00010F0FF0088F8000002D10B99884509D97B
:1010D00008F1010806E0E00501D5244801E042F2EC
:1010E0000F708146B9696D1C0E98884782460F982B
:1010F0000560002E04DD504604F024FD0028D6D102
:10110000F9690E988847FF208BF8000088F80000E6
:101110000020069007904B466A4608A906A8FFF7EC
:1011200077FEA00502D46FF001002AE714F0240F27
:101130000AD0E00714D1DDE906123868031D3B60D0
:101140000068C0E900120BE0DDE90601FFF776FA5E
:101150000146E00704D13868021D3A60006801606A
:1011600028460EE7000014400000F03FF1D8FFFFD2
:101170007F2801D9002208E0064A02EB5002C0078E
:10118000127800D1120902F00F02012090400840AD
:1011900070470000187500080EB540F23342029205
:1011A0000022CDE900221346FFF762FB03B000BD29
:1011B00070B50446006881688268C1F3400112F08E
:1011C000010F28D039BB816801F00D01012914D12C
:1011D0008168124A1140891C8160216803200860DF
:1011E00000F07EFE054612E000F07AFE401B022869
:1011F0000DD920688068C00709D0E06D40F010006C
:10120000E065206E40F001002066012070BD20687E
:101210008068C007E8D1002070BD0000C0FFFF7FDC
:10122000F8B50446002000902068816811F0010F95
:1012300041D18168214A11422ED18168D54329408C
:10124000491C81601E48806800F0E07000020DD5E6
:101250001C481D490068B0FBF1F0401C00EB400049
:10126000800000E0401E00900028FBD100F038FE16
:1012700006461BE0816811F0010F03D18168294007
:10128000491C816000F02CFE801B02280ED92068CA
:101290000068C043C00709D0E06D40F01000E06571
:1012A000206E40F0010020660120F8BD2068016832
:1012B000C943C907DED10020F8BD00003F0000800F
:1012C0000003005048000020400D0300FEE7704777
:1012D000002240F6B83306E00021491C89B2994249
:1012E000FBD3521C92B28242F6D3704710B504462B
:1012F00002F0D9FBA02002F097FB02F00AFC204686
:1013000002F092FB02F005FC02F0CDFBA12002F0FE
:101310008BFB02F071FB02F048FB044602F0ABFBD2
:1013200002F0DCFB204610BD70B50D46044602F00D
:10133000BAFBA02002F078FB02F0EBFB204602F0A3
:1013400073FB02F0E6FB284602F06EFB02F0E1FBC5
:10135000BDE8704002F0C2BB72B6FEE7F8B50026E9
:101360000446009690F858000D4601280BD0012045
:1013700084F858002046FFF71BFF0100E06D04D001
:1013800040F010002AE00220F8BD20F4885040F020
:101390000200E06520688268134B1A4005F0804324
:1013A0001A4342F000428260104A20680EE0009B1F
:1013B0005B1C0093934209D3E06D20F0020040F0E3
:1013C0001000E06584F858600120F8BD8368DB0FE9
:1013D000EDD1E06D20F0020040F00100E06584F8FE
:1013E00058600846F8BD0000C0FFFF3F02DE040061
:1013F0002DE9F84F00270446009790F85800DFF8D1
:10140000E0930D46B846012811D0012684F85860B3
:10141000206802F01DFF60B1E06D40F02000E06543
:101420005FF0010784F858803846BDE8F88F022045
:10143000FBE7D5E900210C23206803EA9113184447
:10144000036B01F01F014FF01F0C0CFA01FCC2F3FB
:10145000846223EA0C038A4013430363206802F08A
:10146000F7FE8246206802F0EFFE5AEA00003CD107
:10147000AA6829682068B2F1004F37D002F0ECFE6C
:101480002068416921F00041416120686969C268B2
:10149000C2F3C102520091402A69042A31D000EB04
:1014A00082002B68026EDFF83CC303F0F84302EAC7
:1014B0000C020B431A4342F00041016620682A697E
:1014C000A96900EB8200026E22F080720A43026674
:1014D000297F22682869012910D0002102EB8000B1
:1014E000026E22F000720A4302667DE0002202F0E2
:1014F000B3FE2068416941F00041C5E74FF000713B
:10150000ECE7002102F09AFE400320684FF0000152
:1015100072D002F093FE90FAA0F0B0FA80F1286841
:1015200042036ED090FAA0F0B0FA80F0814204D16C
:1015300000221146206802F09EFE0121206802F080
:101540007DFE400320684FF001015DD002F076FE81
:1015500090FAA0F0B0FA80F12868420359D090FACE
:10156000A0F0B0FA80F0814204D10022012120686D
:1015700002F081FE0221206802F060FE4003206834
:101580004FF0020148D002F059FE90FAA0F0B0FAF4
:1015900080F12868420344D090FAA0F0B0FA80F0BD
:1015A000814204D100220221206802F064FE03215E
:1015B000206802F043FE400320684FF0030133D05F
:1015C00002F03CFE90FAA0F0B0FA80F128684203E5
:1015D0002FD090FAA0F0B0FA80F0814204D100221E
:1015E0000321206802F047FE2068816811F0010F96
:1015F00022D0ACE000E004E002F020FEC0F3846101
:101600008DE7C0F3846091E702F018FEC0F38461B7
:10161000A2E7C0F38460A6E702F010FEC0F3846185
:10162000B7E7C0F38460BBE702F008FEC0F3846153
:10163000CCE7C0F38460D0E72A7B296850F8B03F3C
:10164000C1F3120C23EA0C0302F0180C664A22FACA
:101650000CF20A4013430360E968494577D12868D2
:1016600041031CD090FAA0F1B1FA81F1491C01F0BC
:101670001F0109294FEA403132D8002912D000BF9A
:1016800090FAA0F1B1FA81F101F1010101F01F011D
:1016900006FA01F609D100BFC0F3846109E0C0F386
:1016A0008461E3E7C0F38461EEE790FAA0F1B1FA58
:1016B00081F101F1010101F01F0146EA816102D1CE
:1016C000C0F3846003E090FAA0F0B0FA80F000F17B
:1016D000010000F01F0000EB400041EA005132E041
:1016E00000290ED090FAA0F1B1FA81F101F10101C7
:1016F00001F01F0106FA01F606D100BFC0F38461B4
:1017000006E0C0F38461F1E790FAA0F1B1FA81F14B
:1017100001F1010101F01F0146EA816102D1C0F32C
:10172000846003E090FAA0F0B0FA80F000F10100CC
:1017300000F01F002D4A00EB400002EB005041EA90
:10174000000141F00071AA68206802F085FD284878
:101750002A6802423FF466AE26488168264B01F0B3
:10176000E0719A4202D0254B9A421CD10B021AD446
:101770002268B2F1A04F7FF455AE826841F40001B7
:1017800022F0E0720A4382601D481E490068B0FBE7
:10179000F1F0401C00EB4000800000E0401E009093
:1017A0000028FBD13EE6184D184BAA4207D1CD01C7
:1017B00005D422689A42F5D041F0807109E0144DB9
:1017C000AA42EFD14A02EDD422689A42EAD041F40B
:1017D0008001826822F0E0720A43826022E6000003
:1017E00000007F4000F0FF03FFFF0700000020FE25
:1017F0000000088000030050000021C31000C090CA
:1018000048000020400D0300000052C700010050B6
:10181000000084CB0068006C70470000F8B54FF002
:10182000000504002E46009502D0E06D10B107E0DF
:101830000120F8BD204600F0EBF8266684F85860D9
:1018400020688168C1F3407119B18168684A11400C
:10185000816020688168C1F3007189B98168654A37
:10186000114041F080518160634864490068B0FBD9
:10187000F1F04000801C00E0401E00900028FBD1E9
:1018800020688168C1F3007141B9E16D41F0100138
:10189000E165216E41F001012166012502F0D8FCCD
:1018A000E16DC90600D430B1E06D40F01000E06594
:1018B00001252846F8BDE06D20F4807040F002005C
:1018C000E0652068806810F0010F11D14FF0A04052
:1018D00080684B4900F00100896801F0010108436C
:1018E00006D148486168826822F47C120A4382600B
:1018F000E168E06B627F0843A16841EA4231084336
:1019000094F8241040EA0140012904D1218D3E4A77
:1019100002EB41410843E16A29B101F47871226B7D
:10192000014342EA01002268D168384B1940014363
:10193000D16020680169626B21F04061114301614F
:10194000206802F081FC70BB207F94F8381080037F
:1019500040EA41022168C86844F2020398431043F8
:10196000C86020690028206801690AD041F48031EC
:101970000161206850F8C01F22696FF30D01114307
:1019800007E021F480310161206850F8C01F6FF337
:101990000D01016094F8400001280CD02068016915
:1019A00021F001010161606901282068016B21F0CB
:1019B0000F0111D013E0D4E911010843D4E9131247
:1019C0001143084321680A6940F2FC739A431043AB
:1019D00040F001000861E6E7226A521E11430163EC
:1019E000E06D20F0020040F00100E06561E70000DA
:1019F000C0FFFF5FC0FFFF7F48000020400D0300D5
:101A000000010050000300500000FEFF0740F0FFFF
:101A100010B598B00446142111A8FEF733FC4421F8
:101A20006846FEF72FFC15492068884223D1C4017F
:101A3000400500940F90684600F050FB08B1FFF796
:101A40008BFC0F48C16C41F40051C164C16C01F4BE
:101A500000511691C16C41F00201C164C06C11A922
:101A600000F0020016900320CDE9114000201390F1
:101A7000044800F007F918B010BD00000001005044
:101A800000100240000400482DE9F04104463848A7
:101A9000806800F01F05206802F0DAFB18B102210F
:101AA0000846BDE8F08194F8580001280CD00120C8
:101AB00084F858002046FFF7B3FB01004FF0000305
:101AC00004D084F85830EBE70220EAE7E06D40F6F6
:101AD0000162904340F48070E065264A20684FF030
:101AE000A046904201D1374600E00746874200D029
:101AF0001DB9E76D27F48017E765E76DFF0404D58E
:101B0000276E27F00607276600E023661C2707607C
:101B100084F858302068904201D1334600E00346F3
:101B2000834215D0A5B1052D12D0092D10D0E36D3B
:101B300043F48013E365904200D13046C0688001D1
:101B4000AED5E06D20F4005040F48050E065A7E78A
:101B5000C268920105D5E26D22F4005242F480522F
:101B6000E2658268044B1A40121D826098E700000B
:101B70000003005000010050C0FFFF7F10B590F837
:101B8000253000210122022B03D00421C163012151
:101B900022E003681C6824F00E041C60836C1C683F
:101BA00024F480741C6003681C6824F001041C6029
:101BB00090F84430046C03F01F0302FA03F36360EF
:101BC000D0E913345C60436D33B11C6824F4807435
:101BD0001C60D0E916345C6080F82520002280F873
:101BE0002420084610BD70B590F82520002401215E
:101BF0002346022A07D00422C26380F8251080F809
:101C00002430012429E00268156825F00E051560CE
:101C10000268156825F001051560826C156825F4C9
:101C20008075156090F84420056C02F01F0201FADF
:101C300002F26A60D0E913255560426D32B1156831
:101C400025F480751560D0E91625556080F82510BB
:101C500080F82430816B01B18847204670BD0000B8
:101C600070B5044600F03CF90546601C02D00448FB
:101C70004068044400F034F9401BA042FAD370BD20
:101C80003C0000202DE9F04FDFF8209200230126D0
:101C90000324A9F1040B85B00F2709F1040AABF165
:101CA000040EFAE006FA03F52A407CD091F804C04D
:101CB0000CF0030CBCF1010F02D0BCF1020F26D1D5
:101CC000D0F808C0CDF800C04FEA430C04FA0CF875
:101CD000CDF810C0DDF800C02CEA080CCDF800C02B
:101CE000D1F80C80DDF810C008FA0CF8DDF800C05F
:101CF00048EA0C08C0F80880D0F804C02CEA050CAB
:101D00000D79C5F300159D4045EA0C0545600D7938
:101D1000ED43AD070ED0C5684FEA430804FA08FC4E
:101D200025EA0C05D1F808C00CFA08FC4CEA050CB1
:101D3000C0F80CC00D7905F00305022D16D1DD08A1
:101D400000EB850CCDF808C0DCF820805D074FEA79
:101D5000D56C07FA0CF528EA05080D6905FA0CF5AB
:101D6000DDF808C045EA0805CCF8205005684FEAC0
:101D7000430CCDF808C004FA0CFC25EA0C0591F8D8
:101D800004C00CF00308DDF808C008FA0CF848EAB3
:101D90000508C0F800804D6815F4403F7CD0444DE4
:101DA000D5F860C000E077E04CF0010CC5F860C0E9
:101DB0002D6E23F0030C05F0010500953D4D6544A3
:101DC0000295AD684FEA837C4FEA1C7807FA08FC5D
:101DD00025EA0C05B0F1904F06D0DFF8DCC0604575
:101DE00005D14FF0010C20E04FF0000C1DE0DFF8B2
:101DF000CCC0604502D14FF0020C16E0DFF8C0C045
:101E0000604502D14FF0030C0FE0DFF8B8C0604529
:101E100002D14FF0040C08E0DFF8ACC0604502D1FD
:101E20004FF0050C01E04FF0060C0CFA08FC4CEAF0
:101E3000050C029DC5F808C0D9F80050CC46D1F871
:101E4000048095435FEAC82800D51543CCF80050BC
:101E5000DAF80050D446D1F8048095435FEA882828
:101E600000D51543CCF80050DBF80050DC46D1F823
:101E7000048095435FEA883800D51543CCF80050BC
:101E8000DEF80050F446D1F8048095435FEAC83884
:101E900000D51543CCF800505B1C0A6832FA03F5F4
:101EA0007FF400AF05B0BDE8F08F000008040140EA
:101EB00000100240000001400004004800080048F3
:101EC000000C004800100048001400480069084059
:101ED00000D0012070470AB181617047816270476C
:101EE00001488068704700003C000020024881687B
:101EF00042681144816070473C00002010B5002406
:101F0000032000F073F80F2000F008F808B1012456
:101F100001E000F025F8204610BD000070B50E4E1F
:101F200005460024706898B14FF47A71B1FBF0F067
:101F30000A490968B1FBF0F000F0E2FF40B9102D4A
:101F400006D200222946501E00F030F8356000E02D
:101F50000124204670BD00003C0000204800002005
:101F60000A4882B0016E41F001010166016E01F084
:101F700001010091816D41F080518165806D00F01B
:101F80008050009002B000F0A1B8000000100240A4
:101F9000002809DB00F01F02012191404009800068
:101FA00000F1E020C0F8001170470000F0B40E4BC3
:101FB0001B680C46C3F30223C3F10705042D00D9A7
:101FC0000425191D072901D2002300E0DB1E01268C
:101FD00006FA05F1491E214099409E40761E1640A2
:101FE0003143F0BC03F0A4BC0CED00E0064900F066
:101FF000070208684FF6FF03184040EA0220034A30
:1020000010430860704700000CED00E00000FA0586
:102010002B492C4B0A6832214A432B4940B1B0F579
:10202000007F086829D020F4C06040F480602CE074
:102030000868C0F34120022804D051F8800F20F432
:10204000807022E0D1F8800020F48070C1F8800018
:10205000086820F4C06040F400700860B2FBF3F040
:10206000401C00E0401E4A69520501D50028F9D104
:10207000486940050AD503207047C0F34120022873
:1020800006D051F8800F40F480700860002070473F
:10209000D1F8800040F48070C1F88000086820F416
:1020A000C06040F400700860B2FBF3F0401C00E038
:1020B000401E4A695205DBD50028F9D1D8E7000057
:1020C0004800002040420F00007000400248816834
:1020D00041F4804181607047007000402DE9F84371
:1020E0000446006800269D4D00035ED5A86D0027BC
:1020F000C00008D4A86D40F08050A865A86D0127E5
:1021000000F080500090DFF85892D9F8001041F4A8
:102110008071C9F80010FFF7E3FE804606E000BFBB
:10212000FFF7DEFEA0EB080002282BD8D9F800004C
:10213000C005F5D5D5F8900010F4407014D0216C8E
:10214000814211D0D5F89000D5F8901020F440705D
:1021500041F48031C5F89010D5F8901021F4803109
:10216000C5F89010C5F89000C00711D0FFF7B8FE71
:10217000804641F2883907E0FFF7B2FEA0EB080184
:10218000494501D903260BE0D5F890008007F3D527
:10219000D5F89000216C20F440700843C5F89000F9
:1021A0001FB1A86D20F08050A8652078C00707D027
:1021B000D5F88800616820F003000843C5F888005E
:1021C0002078800707D5D5F88800A16820F00C009A
:1021D0000843C5F888002078400707D5D5F888005F
:1021E000E16820F030000843C5F888002078000737
:1021F00007D5D5F88800216920F0C0000843C5F84C
:1022000088002078800607D5D5F88800616920F419
:1022100040600843C5F888002078400607D5D5F807
:102220008800A16920F440500843C5F88800207850
:10223000000607D5D5F88800E16920F4404008433E
:10224000C5F888002088C00507D5D5F88800216A20
:1022500020F440300843C5F888002088800507D561
:10226000D5F88800616A20F440200843C5F888004A
:10227000208840050FD5D5F88800A16A20F44010C9
:102280000843C5F88800A06AB0F5801F03D1E8684C
:1022900040F48010E860208800050FD5D5F888004C
:1022A000E16A20F440000843C5F88800E06AB0F510
:1022B000800F03D1E86840F48010E8602088C004F3
:1022C0000FD5D5F88800216B20F040700843C5F881
:1022D0008800206BB0F1807F03D1E86840F4801063
:1022E000E86020884FF0006180040ED5D5F88800A2
:1022F000626B20F040601043C5F88800606B884234
:1023000003D1E86840F48010E860208840040ED5CE
:10231000D5F88800A26B20F040601043C5F8880013
:10232000A06B884203D1E86840F48010E860208800
:1023300000040FD5D5F88800E16B20F04050084329
:10234000C5F88800E06BB0F1805F03D1E86840F425
:102350008030E8603046BDE8F8830000001002409D
:10236000007000402DE9F0470E4605004FF00007D1
:1023700025D0DFF8AC81D8F8000000F00F00B042A3
:102380000CD2D8F8001021F00F013143C8F800102A
:10239000D8F8000000F00F00B04210D12968614C5D
:1023A000C80741F2883A5AD06868DFF87C91032860
:1023B00008D0022820682DD0400500282CDB012001
:1023C000BDE8F08720688001F9D5E06800F00302DD
:1023D000E068C0F30310401C032A19D0534A00BF21
:1023E000B2FBF0F0E268C2F306225043E268C2F3A7
:1023F0004162521C5200B0FBF2F0484517D9A06868
:1024000010F0F00F0CD0880711D5A86840B10EE08D
:10241000474AE5E78003D0E700F0B6F8484506D91B
:10242000A06820F0F00040F08000A0608027A06845
:10243000696820F003000843A060FFF751FD814662
:1024400006E000BFFFF74CFDA0EB090151453AD86B
:10245000A068696800F00C00B0EB810FF2D1286829
:10246000810714D5400703D5A06840F4E060A06060
:102470002878000705D5A06820F4605040F4E0609B
:10248000A060A068A96820F0F000084304E0802F55
:1024900003D1A06820F0F000A060D8F800104046FA
:1024A00001F00F01B14216D9016821F00F0131434B
:1024B0000160FFF715FD074607E000BFFFF710FDBD
:1024C000C11B514501D903207AE7D8F8000000F07C
:1024D0000F00B042F2D12878400705D5A068E9681E
:1024E00020F4E0600843A0602878000706D5A068C3
:1024F000296920F4605040EAC100A06000F044F86F
:10250000A1680C4AC1F30311515C01F01F01C840DE
:102510000949086009480068BDE8F047FFF7FEBCBC
:10252000002002400010024000B4C4040024F40063
:1025300000366E0100750008480000203C000020B5
:102540000548064900688968054AC1F30221515CC3
:1025500001F01F01C84070474800002000100240F1
:10256000107500080548064900688968054AC1F3E6
:10257000C221515C01F01F01C84070474800002093
:102580000010024010750008184910B58868C0F3A3
:1025900081021748012A0BD08A68164BC2F38102C8
:1025A000022A06D08A68C2F38102032A03D00020DF
:1025B00010BD184610BDCA6802F00304CA68C2F311
:1025C0000312521C032C02D0B0FBF2F001E0B3FB6B
:1025D000F2F0CA68C968C2F306225043C1F34161F0
:1025E000491C4900B0FBF1F010BD00000010024092
:1025F0000024F40000366E012DE9F84304007AD07F
:102600002078F84DC00747D0A868E96800F00C00B2
:1026100001F003010C2802D0082817D001E003299B
:1026200014D06068B0F5803F17D0B0F5A02F2868AF
:1026300017D020F480302860286820F4802028609B
:102640006068E0B1FFF74CFC064614E028688003A0
:1026500022D560680028D2D01EE0286840F480307F
:10266000EDE740F480202860F7E700BFFFF738FC73
:10267000801B642870D828688003F7D50CE0FFF72A
:102680002FFC064605E000BFFFF72AFC801B6428EC
:10269000F0D828688003F7D4207880074CD5A86844
:1026A000E96800F00C0001F003010C2802D00428B6
:1026B0000DD001E002290AD0E068002828682BD05C
:1026C00040F480702860FFF70BFC064619E028688C
:1026D000400502D5E068002891D06868217C20F090
:1026E000FE4040EA01606860BF480068FFF716FCE2
:1026F000002800D120E072E1FFF7F2FB801B0228E6
:10270000B8D828684005F7D56868217C20F0FE40DD
:1027100040EA016068600FE020F480702860FFF7F5
:10272000DFFB064605E000BFFFF7DAFB801B02284F
:10273000A0D828684005F7D42078000729D560691B
:102740000028D5F8940013D040F00100C5F894009B
:10275000FFF7C6FB064606E090E000BFFFF7C0FBB0
:10276000801B022886D8D5F894008007F6D510E0A3
:1027700020F00100C5F89400FFF7B2FB064604E024
:10278000FFF7AEFB801B022878D8D5F894008007AD
:10279000F6D42078400761D5A86D0026C00008D483
:1027A000A86D40F08050A865A86D012600F080500B
:1027B00000908E480168C90511D40168804641F433
:1027C00080710160FFF78CFB074604E0FFF788FB90
:1027D000C01B022852D8D8F80000C005F6D5A06862
:1027E000012815D00528D5F8900016D020F001005A
:1027F000C5F89000D5F8900020F00400C5F89000CE
:10280000A06841F28838B8B1FFF76AFB07460EE0CE
:10281000D5F8900040F00100F0E740F00400C5F862
:102820009000F5E7FFF75CFBC11B414526D8D5F8C2
:1028300090008007F6D50CE0FFF752FB074604E056
:10284000FFF74EFBC11B414518D8D5F89000800713
:10285000F6D41EB1A86D20F08050A86520788006BF
:1028600029D5A0690028D5F8980013D040F00100C0
:10287000C5F89800FFF734FB064606E075E000BF98
:10288000FFF72EFB801B02286FD8D5F89800800731
:10289000F6D510E020F00100C5F89800FFF720FB06
:1028A000064604E0FFF71CFB801B02285DD8D5F824
:1028B00098008007F6D4E069F0B3A968C1F38101FC
:1028C00003295DD00228286820F08070286003D09A
:1028D000FFF706FB04464BE0FFF702FB064604E069
:1028E000FFF7FEFA801B02283FD828688001F7D442
:1028F000F4E908016FF00F0202EB01110843218A8D
:102900005204490802EB4151A26841EA02210843FE
:10291000217D4FF07E42490802EB41610843217B53
:1029200040EAC160E968324A11400843E86028681B
:1029300040F08070286000E05EE0E86840F0807061
:10294000E860FFF7CDFA044605E000BFFFF7C8FADC
:10295000001B022809D828688001F7D54CE000BF89
:10296000FFF7BEFA001B022802D90320BDE8F88356
:1029700028688001F4D4E8681E490840E8603BE01C
:102980000128F3D0E868226A00F00301914226D1C1
:10299000616A00F0F0020901103991421FD1A26A68
:1029A00000F4FE41B1EB022F19D194F82C2000F075
:1029B0007841B1EBC26F12D1218E00F4C0024908F8
:1029C0004905A1F50011914209D194F8341000F0A5
:1029D000C06049084906A1F1007181420CD0012074
:1029E000C4E70000001002403C00002000700040DE
:1029F0000C809F01FCFFEEFE0020B7E77047704798
:102A00002DE9F04104460068456D0D4FE9074FF090
:102A100001084FF4003605D0C0F85C803E602046C7
:102A2000FFF7EDFFA80706D521680220C8653E60C4
:102A30002046FFF7E3FF84F82580BDE8F081000021
:102A40001404014010B500680B4641680D48014070
:102A5000080CD870C1F304245C7001F03F049C7032
:102A6000C1F34231197052B901F052FFD870587851
:102A700001F04EFF5870987801F04AFF98700020DE
:102A800010BD00003FFFFF0010B50B4601688968CC
:102A9000596001680969C1F30E0199600068016815
:102AA0000D480140C1F305401870C1F306245C7065
:102AB00001F07F049C70890DD97052B901F028FF94
:102AC0001870587801F024FF5870987801F020FFB2
:102AD0009870002010BD00007F7F7F0070B504005B
:102AE0004FF0010040D094F8250028B9002084F868
:102AF0002400204600F040F8022084F825002068D9
:102B0000C168C943C90630D5CA2141622168532032
:102B10004862204601F012FF10BB20688169154A07
:102B200011408161216888696268A3691043226944
:102B30001A43104388612189E06840EA0140216816
:102B40000861204601F01FFF50B9D4E90721114365
:102B500022686369956925F060452B4319439161AB
:102B60002268FF21516208B170BD0020012184F864
:102B7000251070BDBFFF8FFB10B592B004464421F5
:102B80006846FDF77FFB14492068884222D14FF444
:102B9000002000904FF4407010906846FFF79EFAB6
:102BA00008B1FEF7D9FB0D4850F8901F41F40041E1
:102BB00040F83819016841F4806101600068002222
:102BC00000F48060119011462920FFF7EFF92920C9
:102BD000FFF7DEF912B010BD0028004000100240DF
:102BE0002DE9F05F044690F824000B46012844D0FC
:102BF0004FF0010984F824904FF0020A84F825A0D0
:102C00002068002680694FEA4060AAB3002800DBF4
:102C1000DE7098781978DA7840EA0140597809022C
:102C200041EA8251084393F8201040EA0165D869CF
:102C30005F68054358692168054398690743CA20BE
:102C400048622168532048625A6A4349B2F5807F3E
:102C500022684FF400304FF0FF0893694FF47A7BFD
:102C600028D023F4085393612368C3F85CA008605C
:102C7000FFF736F982464CE002E00220BDE8F09F03
:102C8000002800DBDE70187801F04BFE0504587850
:102C900001F047FE45EA0025987801F042FE054321
:102CA000D87845EA805593F8200001F03AFE45EACD
:102CB0000065BCE723F4885393612368C3F85C90F4
:102CC0000860FFF70DF9824606E000BFFFF708F93C
:102CD000A0EB0A00584513D82068C068C007F5D09B
:102CE00020680564206847642068816941F4885140
:102CF0001BE000BFFFF7F4F8A0EB0A00584508D925
:102D00002168C1F82480032084F8250084F8246019
:102D1000B4E72068C0688007ECD520688564206827
:102D2000C7642068816941F4085181610A481438F8
:102D3000016841F40031016007480C38016841F432
:102D4000003101602168C1F8248084F8259084F85E
:102D50002460002092E700001404014070B504468E
:102D600090F824000B4601281BD0012684F824602B
:102D7000022084F82500B2B19878D97840EA01455C
:102D800058781978000240EA413005432168CA208A
:102D90004862216853204862204601F0CFFDD0B13F
:102DA00020E0022070BD5878C10603D500F0EF0086
:102DB0000A305870D87801F0B4FD0504587801F055
:102DC000B0FD45EA0025987801F0ABFD0543187881
:102DD00045EA4035DAE70848054020684560204666
:102DE00001F0D1FD2268FF21516208B984F8256005
:102DF000002184F8241070BD3FFFFF002DE9F04151
:102E0000044690F8240090460D46012811D0012771
:102E100084F82470022084F825002168CA204862C2
:102E2000216853204862204601F088FD002618B131
:102E300029E00220BDE8F0812068B8F1000F806928
:102E40004FEA406024D0002800DBEE70A878297893
:102E5000EA7840EA01406978090241EA8251084370
:102E600018490840216808602068816921F48021A0
:102E70008161D5E90301084321688A6910438861AB
:102E8000204601F080FD2268FF215162A0B115E0CB
:102E9000002800DBEE70287801F043FD0304687819
:102EA00001F03FFD43EA0023A87801F03AFD034317
:102EB000E87843EA8050D3E784F8257084F82460EA
:102EC000B8E700007F7F7F0070B504460B4821689B
:102ED000C860FFF705F805464FF47A7607E000BFB3
:102EE000FEF7FEFF401BB04201D9032070BD2068F1
:102EF000C0688006F4D5002070BD00005F000100AE
:102F000010B5401EB0F1807F01D3012010BD4FF0FD
:102F1000E02460610F21601702F00AFD0020A0612B
:102F200007202061002010BD704770477047704730
:102F300070477047F0B590F83C20012A3AD001253F
:102F400080F83C50022280F83D2003685A689C6853
:102F5000194E1A4FB34201D0BB4204D122F4700C77
:102F60004A6842EA0C02DFF858C002EA0C02D1F8C3
:102F700000C04CEA020CC3F804C00268B2420DD093
:102F8000B2F1804F0AD00F4B9A4207D00E4B9A42B3
:102F900004D0BA4202D00D4B9A4204D1896824F081
:102FA00080031943916080F83D50002180F83C1067
:102FB0000846F0BD0220F0BD002C01400034014065
:102FC0008FFFFFFD0004004000080040004001406A
:102FD000704710B5040003D094F83D0010B107E02D
:102FE000012010BD002084F83C00204600F022F8AB
:102FF000022084F83D00211D206801F083FE01209D
:1030000084F8480084F83E0084F83F0084F84000CB
:1030100084F8410084F8420084F8430084F84400B6
:1030200084F8450084F8460084F8470084F83D00A1
:10303000002010BD08B5154A0168154891420ED10F
:10304000816D41F010018165806D002200F010005B
:10305000009011463620FEF7A9FF362010E00D4AF9
:10306000914211D1816D41F020018165806D002276
:1030700000F02000009011463720FEF797FF372020
:10308000BDE80840FEF784BF08BD00000010004006
:10309000001002400014004090F83D10012901D0BA
:1030A00001207047022180F83D100168CA6842F093
:1030B0000102CA600068104988420ED0B0F1804F0A
:1030C0000BD00E49884208D00D49884205D00D49E1
:1030D000884202D00C49884207D181680B4A1140CE
:1030E000062906D0B1F5803F03D0016841F0010107
:1030F0000160002070470000002C014000040040E7
:103100000008004000340140004001400700010079
:1031100070472DE9F04104460068C66805694FF024
:103120000007A90713D5B10711D5F91E01610120C8
:103130002077206880698007204602D0FFF7E8FFEB
:1031400004E000F0B7F8204600F0B5F827776807EC
:1031500016D5700714D521686FF0040008610220AD
:1031600020772068806910F4407F204602D0FFF766
:10317000CFFF04E000F09EF8204600F09CF827778F
:10318000280715D5300713D521686FF008000861AE
:10319000042020772068C0698007204602D0FFF70E
:1031A000B7FF04E000F086F8204600F084F82777A7
:1031B000E80616D5F00614D521686FF010000861F6
:1031C000082020772068C06910F4407F204602D094
:1031D000FFF79EFF04E000F06DF8204600F06BF86A
:1031E0002777E80708D0F00706D021686FF00100C4
:1031F0000861204600F060F8280601D4A80408D52C
:10320000300606D521686FF4025008612046FFF7AA
:103210008CFEE80508D5300606D521686FF480706D
:1032200008612046FFF780FE680608D5700606D5BF
:1032300021686FF040000861204600F0A9F8A80658
:1032400008D5B00606D521686FF020000861204639
:10325000FFF76CFEE80208D5F00206D521686FF48E
:10326000801008612046FFF763FEA80208D5B0026F
:1032700006D521686FF4001008612046FFF757FE5D
:10328000680208D5700206D521686FF480000861D5
:103290002046FFF74EFE28020AD5300208D52168E5
:1032A0006FF4000008612046BDE8F041FFF790BED2
:1032B000BDE8F0817047704770B533492DED028B42
:1032C00088425DD1314C0025A089401C80B2A0818C
:1032D000B0F5FA7F06D1A581E07918B1E07A80F0E7
:1032E0000100E072A0890921B0FBF1F201FB12019B
:1032F00009B9012121703221B0FBF1F201FB120169
:1033000009B9022121703C21B0FBF1F201FB12014D
:1033100009B903212170C821B0FBF1F201FB1200B1
:1033200000BB042020706079E8B91848183002F01A
:103330000FFBB0EE408AF0EE608A6069FDF753F94A
:1033400053EC182BFDF748F841EC180BE069FDF73A
:103350004AF953EC182BFDF759F904D2A07980F003
:103360000100A07100E0A571207B084900F0070072
:103370002C31095CBDEC028BBDE8704000F026BF2B
:10338000BDEC028B70BD0000240100200000002075
:10339000704790F88410012918D0012180F884101A
:1033A0002421C0F8881001680A680B6823F0010323
:1033B0000B6022F000510022426603681960202150
:1033C000C0F8881080F884201046704702207047AB
:1033D0007047704770B5044690F8840001281DD0EE
:1033E000012084F884002420C4F88800206805683F
:1033F000026822F0010202602068826822F06062A6
:103400000A438260204601F0DBFC20680560202032
:10341000C4F88800002084F8840070BD022070BDCC
:1034200070B5044690F8840001281DD0012084F86E
:1034300084002420C4F8880020680568026822F00F
:10344000010202602068826822F060420A438260C2
:10345000204601F0B5FC206805602020C4F88800F3
:10346000002084F8840070BD022070BD7047704752
:10347000704700002DE9F04103680446D8691968D7
:103480009A6840F60F0528424FF000054FF00206FB
:103490000AD187067ED501F0200702F0805C57EA4A
:1034A0000C0777D0616F3AE1B24FDFF8CCC217401A
:1034B00001EA0C0C57EA0C0C6CD05FEAC07C0CD013
:1034C0005FEAC15C09D54FF0010CC3F820C0D4F805
:1034D000903043F00103C4F89030830709D5D30737
:1034E00007D023681E62D4F8903043F00403C4F878
:1034F000903043070AD5D30708D0266804233362E7
:10350000D4F8903043F00203C4F8903003070CD590
:1035100001F020033B4308D0266808233362D4F827
:10352000903043F00803C4F8903003050BD54B01ED
:1035300009D526684FF400633362D4F8903043F025
:103540002003C4F89030D4F89030002B3DD0800692
:1035500009D501F0200002F08051084303D0616FCB
:1035600009B120468847D4F8900021688968490647
:1035700002D410F0280F2AD0204601F007FD206861
:10358000806840061ED52068083050E8001F21F0F2
:10359000400100E021E040E80012002AF3D1D4F815
:1035A000800078B175498163D4F88000FEF71BFB79
:1035B00000280AD0D4F88000816B00E02046BDE8E6
:1035C000F04108472046FFF753FFBDE8F081204651
:1035D000FFF74EFFC4F89050F7E7D4F86CC02027EF
:1035E000BCF1010F7ED15FEAC06C7BD55FEAC16C94
:1035F00078D51020186220688068400645D5D4F838
:103600008010086840680004000CDED0B4F85C202C
:103610008242DAD9A4F85E000868006880062CD4DB
:10362000216851E8000F20F4807041E80002002A70
:10363000F6D12068083050E8001F21F0010140E871
:103640000012002AF5D12068083050E8001F21F050
:10365000400140E80012002AF5D1C4F88C70E566FC
:10366000206850E8001F21F0100140E80012002AF5
:10367000F6D1D4F88000FEF781FA2667B4F85C0032
:10368000B4F85E10401A81B230E0B4F85C00B4F8CF
:103690005E10401A81B2B4F85E00002895D000296F
:1036A00093D0226852E8000F20F4907042E80003A3
:1036B000002BF6D12F4BDB432068083050E8002F59
:1036C0001A4040E8002CBCF1000FF5D1C4F88C7012
:1036D000E5666567226852E8000F20F0100042E8B6
:1036E000000300E006E0002BF4D126672046FFF738
:1036F0006FFE6AE7C60209D5560207D54FF480105F
:1037000018622046BDE8F041FFF7B1BE03060AD5B6
:1037100001F0800302F40002134304D0A16F0029DA
:103720007FF44CAF51E7420611D54A060FD520462B
:10373000026852E8001F21F0400142E80013002B0C
:10374000F6D1C0F88870856700F02DF93DE70202D8
:1037500006D54A0004D52046BDE8F041FFF786BEF5
:10376000C001C6D50029C4DA2046BDE8F041FFF704
:1037700030BE00000100001020010004794F000855
:1037800010B5040003D0D4F8880010B107E0012080
:1037900010BD002084F88400204600F027F8242083
:1037A000C4F888002068016821F001010160A06A66
:1037B00010B1204601F026FB204601F079FE0128D9
:1037C000E6D02068416821F490414160206881681A
:1037D00021F02A0181602068016841F00101016047
:1037E0002046BDE8104001F071BB000010B598B054
:1037F0000446142111A8FCF745FD44216846FCF756
:1038000041FD1B492068884230D101200024CDE9C8
:1038100000046846FEF762FC08B1FDF79DFD1548FF
:10382000016E41F480410166016E01F48041169100
:10383000C16C41F00101C164C06C11A900F001002C
:1038400016904FF4C06011900220CDE912040720B9
:10385000CDE914404FF09040FEF714FA00221146D3
:103860002520FEF7A3FB2520FEF792FB18B010BD24
:10387000003801400010024030B4D0F88C30202BCA
:1038800002D0022030BC7047A9B1A2B10023C366A8
:103890000A4C0368A3420BD05B681B0208D504687E
:1038A00054E8003F43F0806344E80035002DF6D132
:1038B00030BC01F037BF0120E4E700000080004089
:1038C000094988420FD10948016809484162094BFA
:1038D000017A427A5A54491C017200F1090101220D
:1038E0000148FFF7C9BF7047BC0100204400002019
:1038F00000000020720000202DE9F8430446D0F8B3
:103900008800984616460D46202802D00220BDE8C1
:10391000F883A5B19EB10020C4F890002120C4F81E
:1039200088001834FEF7DCFAA6878146E68754F84B
:10393000100C2027183CB0F5805F02D003E0012076
:10394000E5E7206910B12E46002510E000260EE0C4
:103950008021204601F06EFFC0B9DEB116F8010BE0
:1039600021688862B4F85600401EA4F85600B4F8E6
:1039700056004B464FF00002CDF800800028E7D1FA
:103980004FF04001204601F055FF40B1C4F8887067
:103990000320BCE735F8020BC0F30800E0E7C4F8E9
:1039A00088700020B3E77047FEE770B50824002553
:1039B00001F0A0F813E06806050E002001F082F87F
:1039C000142002F04FFC142002F04CFC012001F006
:1039D00079F8142002F046FC01F080F80543641EDB
:1039E000E4B2E8D2002001F06DF8142002F03AFCB5
:1039F00001F0A2F8284670BD10B5002001F090F843
:103A0000142002F02FFC142002F02CFC012001F005
:103A100059F8142002F026FC002001F053F8BDE80C
:103A20001040142002F01EBC70B50446082516E0B4
:103A300001F048F8142002F015FC04F0800001F0B9
:103A40006FF8142002F00EFC6006040E142002F041
:103A500009FC012001F036F8142002F003FC6D1E71
:103A6000EDB24FF00000E3D201F02CF8BDE8704059
:103A7000142002F0F7BB10B5012001F051F814201A
:103A800002F0F0FB142002F0EDFB012001F01AF827
:103A9000142002F0E7FB002001F014F8BDE810400C
:103AA000142002F0DFBB10B5012001F039F814201A
:103AB00002F0D8FB012001F005F8142002F0D2FB3F
:103AC000002001F02DF8142002F0CCFB002000F0C3
:103AD000F9FFBDE81040142002F0C4BB10B500206F
:103AE00000F0F0FF142002F0BDFB002001F018F8F8
:103AF000142002F0B7FB012000F0E4FF142002F0D4
:103B0000B1FB012001F00CF8BDE81040142002F0D8
:103B1000A9BB10B5052400F0EDFF142002F0A2FBB4
:103B2000012000F0CFFF142002F09CFB05E0641E92
:103B3000A4B2142002F096FB6CB100F0CFFF002875
:103B4000F5D100F0F9FF002000F0BCFF142002F0D6
:103B500089FB002010BD00F0EFFFFFF7BFFF012041
:103B600010BD000070B5254C2078012829D1002512
:103B7000257000F045F86070227920EA0201424089
:103B80008243A170E270207101291BD0022921D04B
:103B9000032928D0042914D1E079002811D0A17A72
:103BA00004F11100425C521C42540178182900D3E0
:103BB000057041783C2900D3457081783C2900D3B9
:103BC000857070BDE0790028FBD1607980F001003C
:103BD000607170BD4FF6FF7000F060F8E07980F022
:103BE0000100E07170BDE0790028FBD0A07A401C94
:103BF000C0B2A0720228F5D9A57270BD00000020E5
:103C000070B50E4D002401212846FEF75FF900B97A
:103C1000012402212846FEF759F900B902240421A3
:103C20002846FEF753F900B9032401214FF09040D4
:103C3000FEF74CF900B90424204670BD000400488A
:103C400000B585B014216846FCF71CFB4FF6FF70E9
:103C5000009000200321CDE902010190694602484D
:103C6000FEF710F805B000BD0008004800B585B0AB
:103C700014216846FCF706FB4FF6FF700090012008
:103C80000190032003900020029069460248FDF74E
:103C9000F9FF05B000BD00000008004870B5002421
:103CA00006462146204600F0E5F900F027FA4FF4D9
:103CB0009635304600F0F2F9641CAC42F9D370BD81
:103CC00030B587B014216846FCF7DCFA1E48C16C99
:103CD00041F00401C164C16C01F004010591C16CA3
:103CE00041F00101C164C16C01F001010591C16C99
:103CF00041F00201C164C06C012500F00200059092
:103D00004FF44870CDE900050024039469460294FD
:103D10000E48FDF7B7FF280203940090CDE9015447
:103D20004FF0904469462046FDF7ACFFFFF79EFF39
:103D3000A06940F48070A06104481830016841F423
:103D40000871016007B030BD001002400004004857
:103D5000203AD2B2034B02EB420203EB021200F014
:103D600019B8000008630008F0B50E4607460025A4
:103D700040F23F1407E021463846FFF7E9FF103CC8
:103D80006D1CA4B2761C3278002A01D0142DF2D317
:103D9000F0BD00002DE9F04791468A460026044612
:103DA00000F068F9DFF84080012700BF00F0A6F9B5
:103DB0005FF0000539F8160007FA05F108424046A1
:103DC00001D1408800E0008800F068F96D1C102DDA
:103DD000F0D3641CE4B25146204600F04BF9761C47
:103DE000182EE3D3BDE8F0873600002010B5FFF7AA
:103DF00067FF002000F0F6F8084CA080A088A0F52E
:103E00000241303906D000F07BFC002000F0EAF8D7
:103E1000A08010BD00F0EBFBF7E7000036000020AB
:103E200038B5404D287802287AD100202870E879EA
:103E300005F11104D8B13CA13F4801F065FD3E49B0
:103E40003020FFF791FFE87A002857D0A87A0028A1
:103E50005ED0012860D06378227838A1364801F01E
:103E600053FD35496020BDE83840FFF77DBF2D4840
:103E700021780E30017061784170A1788170E86915
:103E8000FCF7B1FB41EC100B31A153EC102B2A488D
:103E900001F03AFD28494820FFF766FF0020FDF7B2
:103EA00025FAFCF77AFB9FED2E1B53EC112BFCF748
:103EB00005FB41EC100B2CA153EC102B1E4801F01C
:103EC00023FD1D496020FFF74FFF6879A0B129A1AC
:103ED000194801F019FD18497820FFF745FF1648E9
:103EE0002830817800914378027825A1283801F0A4
:103EF0000BFD11499020B6E727A1E9E7A0780090D3
:103F00006378227827A10C4801F0FEFCA9E707E0BE
:103F1000A378627829A1A1E7A37822782CA19DE754
:103F200038BD000000000020202020202020207329
:103F3000657474696E670000540000202020202002
:103F4000202020253032642D253032642D202000A1
:103F50002020202056313A252E32665600000000DF
:103F60000000000000002440202020204B3A252E95
:103F700031660000202020204C45443A4F46460040
:103F800020202020543A253032642D253032642DF3
:103F90002530326400000000202020204C45443AA7
:103FA0004F4E200020202020202020253032642D5C
:103FB000253032642D25303264000000202020207E
:103FC00020202020202D253032642D253032640021
:103FD00020202020202020253032642D20202D2557
:103FE0003032640070B51D490A6842F400720A60FC
:103FF0000A6842F480720A60184C103C226842F051
:1040000020022260164A1060086840F02000086014
:1040100000BF00BF00BF206840F020002060206883
:1040200040F480702060FFF70BFE4FF09041886AEB
:1040300040F48070886200BF00BF00BF0848001FC6
:10404000006885B2886940F480708861FFF70EFED1
:10405000206840F400702060284670BD28040048A5
:104060001408004801B5BDF800000149488008BDAA
:104070003600002010B50C460146202000F06EF8F6
:104080002146BDE81040212000F068B801B5BDF818
:1040900000000149088008BD3600002030B5154BEE
:1040A0001C68154A116841F40071116012491039F9
:1040B0000D6845F480750D600D6845F020050D60B4
:1040C0001860106840F02000106000BF00BF00BF03
:1040D000086840F020000860086840F480700860BC
:1040E00000BF00BF00BF086840F4007008601C609B
:1040F00030BD00001408004828040048154A10B5D7
:1041000013681549086840F400700860086840F4B6
:104110008070086010481038046844F0200404607F
:10412000222414600C6844F020040C6000BF00BF1F
:1041300000BF016841F020010160016841F4807115
:10414000016000BF00BF00BF016841F40071016061
:10415000136010BD140800482804004870B5194CBD
:104160002568194B1A6842F400721A601A6842F402
:1041700080721A60144A103A166846F020061660DB
:104180002060186840F02000186000BF00BF00BF2A
:10419000106840F020001060106840F480701060DB
:1041A0002160186840F02000186000BF00BF00BF09
:1041B000106840F020001060106840F480701060BB
:1041C000256070BD140800482804004870B5144CE0
:1041D00001228240207811B10243227001E0904315
:1041E000207020786178884219D00E4D01224FF45A
:1041F0007F412846FDF76FFE207800220102284605
:10420000FDF769FE084D012204212846FDF763FEF3
:10421000002204212846FDF75EFE2078607070BD04
:104220003400002000080048000C00480248024901
:104230002C318079087070470000002000EB81006D
:10424000006E00F0F84070478068C0F3C00070470F
:104250008068C0F380007047042303EAD15310B58F
:1042600018444369C1F3045107248C40A3438A4096
:104270001343436110BD00EB8100016E21F000414A
:10428000114301667047000030B589B020216846AF
:10429000FBF7F8FF19481849002401604902C0E9FA
:1042A0000114C46004250461C0E90545047744771E
:1042B0000121016280F82440C462046380F8384020
:1042C000C46380F84040FDF7A9FA08B1FDF744F84F
:1042D0000B4800900620CDE901047F200594CDE92C
:1042E000030569460548FDF783F8002801D0FDF76E
:1042F00033F809B030BD00000001005090000020EC
:104300000080F03E2DE9F04F87B014216846FBF79E
:10431000B9FF4048C16C41F00401C164C16C01F0B7
:1043200004010591C16C41F02001C164C16C01F030
:1043300020010591C16C41F00101C164C16C01F023
:1043400001010591C16C41F00201C164C16C01F031
:1043500002010591C16C41F00801C164C06CDFF835
:10436000B88000F008004FF6FF7405900022214647
:104370004046FDF7B0FD4FF480764FF090490022A3
:1043800031464846FDF7A7FDDFF890A00022042142
:104390005046FDF7A0FDDFF888B04FF47877002293
:1043A00039465846FDF797FD0125CDE90045002423
:1043B0000294694640460394FDF764FCCDE900543D
:1043C000694648460294FDF75DFC0720CDE90004EC
:1043D000694658460294FDF755FC0096CDE9015414
:1043E000694648460394FDF74DFC04200090CDE952
:1043F0000154694650460394FDF744FC0097CDE90B
:104400000154694658460394FDF73CFC07B0BDE8EB
:10441000F08F00000010024000080048000C004827
:104420000004004830B591B014210AA8FBF72AFF18
:104430000024282168460F94FBF724FF2A482949C5
:10444000C0E900147D21816041F27071C0E903145C
:104450004FF080414461C0E906410462FEF73EFB33
:1044600008B1FCF779FF23208DF8280059208DF83A
:10447000290055208DF82A000B940D9401220AA9D9
:1044800019480E94FEF7BAFC08B1FCF765FF012548
:104490008DF83C508DF83D508DF83E508DF83F40E2
:1044A0002A460FA91048FEF759FC08B1FCF754FF43
:1044B0008DF800408DF801404FF480708DF8024077
:1044C000019409900594069407948DF820500122D8
:1044D00069460548FEF784FB002801D0FCF73CFF45
:1044E00011B030BD00280040FC0000203EB5002483
:1044F0000F48009401940D490294016040F21F316D
:10450000C0E901146321C16080218161FEF761FD72
:1045100008B1FCF721FF0094694605480294FEF7B4
:1045200009FD002801D0FCF717FF3EBD0010004038
:10453000240100203EB500241048009401940E4947
:104540000294016040F21F31C0E9011441F2873149
:10455000C16080218161FEF73CFD08B1FCF7FCFEE3
:104560000094694605480294FEF7E4FC002801D057
:10457000FCF7F2FE3EBD0000001400407001002078
:10458000184810B5164901604FF4165141600021DA
:1045900081600C22C160C0E904128161C1610162C5
:1045A00041628162FFF7ECF808B1FCF7D5FE00210B
:1045B0000C48FEF735FF08B1FCF7CEFE0021094894
:1045C000FEF708FF08B1FCF7C7FE0648FEF7E1FE5C
:1045D000002803D0BDE81040FCF7BEBE10BD0000AF
:1045E00000380140BC010020FEE7FEE7704730B50F
:1045F00001210020FFF7B2FD4FF47A70FCF768FE4E
:1046000000210120FFF7AAFD41F290711020FFF771
:10461000A5FD4FF41C516020FFF7A0FD0121612092
:10462000FFF79CFD02214620FFF798FD48F210019C
:104630001320FFF793FD48F2FE011220FFF78EFDD5
:104640004FF4A0610220FFF789FD41F23001032001
:10465000FFF784FD40F2033421463020FFF77EFD52
:1046600021463120FFF77AFD21463220FFF776FD03
:10467000E51E29463320FFF771FD03213420FFF7A3
:104680006DFD21463520FFF769FD14213620FFF727
:1046900065FD21463720FFF761FD21463820FFF7F1
:1046A0005DFD21463920FFF759FD29463A20FFF7E5
:1046B00055FD03213B20FFF751FD21463C20FFF72C
:1046C0004DFD4FF4A0513D20FFF748FD4FF4007120
:1046D0009220FFF743FD21469320FFF73FFD40F670
:1046E0000D019020FFF73AFD41F218010320FFF77A
:1046F00035FDBDE8304040F273110720FFF72EBDB5
:1047000010B543F20801E320FFF728FD1221E7204E
:10471000FFF724FD41F23121EF20FFF71FFD0021BB
:104720000120FFF71BFD4FF4E0610220FFF716FDAB
:1047300041F230010320FFF711FD00210420FFF7B3
:104740000DFD40F207210820FFF708FD0021092098
:10475000FFF704FD00210A20FFF700FD00210C20D7
:10476000FFF7FCFC00210D20FFF7F8FC00210F20D3
:10477000FFF7F4FC00211020FFF7F0FC07211120C7
:10478000FFF7ECFC00211220FFF7E8FC00211320CA
:10479000FFF7E4FCC820FDF763FA41F290611020B6
:1047A000FFF7DCFC40F227211120FFF7D7FC322075
:1047B000FDF756FA1D211220FFF7D0FC3220FDF73D
:1047C0004FFA4FF400611320FFF7C8FC1421292091
:1047D000FFF7C4FC0B212B20FFF7C0FC3220FDF7B4
:1047E0003FFA00212020FFF7B9FC00212120FFF72C
:1047F000B5FC07213020FFF7B1FC40F207713120F2
:10480000FFF7ACFC06213220FFF7A8FC40F2047150
:104810003520FFF7A3FC41F604713620FFF79EFC1C
:1048200004213720FFF79AFC00213820FFF796FC7F
:1048300040F206713920FFF791FC40F201713C20F3
:10484000FFF78CFC0F213D20FFF788FC0021502052
:10485000FFF784FCEF215120FFF780FC002152205C
:10486000FFF77CFC40F23F115320FFF777FC4FF439
:104870001C516020FFF772FC01216120FFF76EFCE4
:1048800000216A20FFF76AFC00218020FFF766FC08
:1048900000218120FFF762FC00218220FFF75EFCEF
:1048A00000218320FFF75AFC00218420FFF756FCEB
:1048B00000218520FFF752FC10219020FFF74EFCCD
:1048C00000219220FFF74AFC03219320FFF746FCCA
:1048D0004FF488719520FFF741FC00219720FFF7E6
:1048E0003DFC00219820FFF739FC41F2180103201C
:1048F000FFF734FCBDE8104040F273110720FFF7CA
:104900002DBC00000148FEF77BB80000FC00002031
:10491000010901EB810100F00F0000EB4100C0B282
:1049200070470022014602E00A39C9B2521C0A2926
:10493000FAD2100741EA1060704700002DE9F041FB
:10494000044600680025C168490619D4C16841F0D1
:104950008001C160FDF7C4FA06464FF47A78032758
:1049600008E000BFFDF7BCFA801B404502D90325D3
:1049700084F825702068C068400601D4032DF1D169
:104980002846BDE8F08170B5044600680025C1687E
:1049900021F08001C160206881694FF0030689061B
:1049A00007D42046FEF790FA98B184F825600325D5
:1049B0000FE0816921F0200181612046FEF784FA31
:1049C00010B184F8256003252068816941F0200139
:1049D0008161284670BD00007FB515480268154901
:1049E0008B6AD21AB2F57A7F20D3006888621248A7
:1049F00001F10E0213780578AB4217D15378447851
:104A0000A34213D192788678B2420FD1C869FBF7DE
:104A1000EAFD41EC100B0748CDE902461830CDE91C
:104A2000000553EC102B05A000F05EFF7FBD0000D9
:104A300044000020000000207C000020252E32666B
:104A40002B25732B253032642530326425303264B7
:104A50000D0A000010B5134C2078042820D112480C
:104A600000F039FFFBF799FD9FED101B53EC112B64
:104A7000FBF7B2FC9FED0F1B53EC112BFBF7ACFCCB
:104A8000FBF7DCFDE06100220C490D48FDF7FCFF5F
:104A900004F12001BDE8104000220948FDF7D2BF13
:104AA00010BD0000000000209000002066666666D1
:104AB00066660A40000000000000303F7C000020D5
:104AC000FC00002008B1044801E0034810300168F0
:104AD00041F04001016070471804004810B5802182
:104AE0000348FDF7F3F9012800D0002010BD0000B5
:104AF0000004004800B585B014216846FBF7C2FBEE
:104B0000802000900020019001200290022003905C
:104B100069460248FDF7B6F805B000BD000400483C
:104B200008B1044801E003481030016841F08001F9
:104B3000016070471804004800B585B0142168462C
:104B4000FBF7A0FB80200090112001900020029034
:104B50000220039069460248FDF794F805B000BDB5
:104B6000000400487047000070B52E4801682E4CC4
:104B7000626A891A322954D300686062207A002858
:104B80004FD00025062801D0052840D127A128486C
:104B9000FBF783FB00283AD026A12548FBF77DFBD5
:104BA00020B925A12248FBF778FB78B31E4A23A140
:104BB00018321F48FBF784FB1B48183000F0C8FE72
:104BC0001B4853EC102B1FA11E3800F09DFE184906
:104BD00060201E39FFF7C8F81DA000F085FE1248BE
:104BE000183000F0B5FE9FED1C1B51EC100B53EC80
:104BF000112BFBF7F1FBFBF7DDFCC1B20020FCF74A
:104C000093FB0520FDF72CF8257203E0FFE714A0C5
:104C100000F06AFE064825721E3840F81E5F4560A7
:104C2000058170BD44000020000000206B302E0084
:104C3000720000205C6E00000A0000006B253373D8
:104C40002F2F6E00202020204B3A252E31660000A9
:104C50004F6B0D0A0000000000000000000024401F
:104C60004572726F720D0A00FDF740B910B594B02D
:104C700038216846FBF706FB14210EA8FBF702FB60
:104C80004FF40070FDF7C4F903244FF48030CDE9F0
:104C90000040001203904020049002200121CDE941
:104CA00008010A21CDE90A1007900C900D90684682
:104CB000FDF7A2FC08B172B6FEE70F20CDE90E04A5
:104CC000002010901190129002210EA8FDF74AFBCF
:104CD000002801D072B6FEE714B010BD024801688A
:104CE00041F470010160704788ED00E00148FEF773
:104CF00010BA0000240100200148FEF70ABA0000A3
:104D0000700100202DE9F0430268264B264D274E06
:104D1000274C4FF08049984207D0484505D0A8421B
:104D200003D0B04201D0A04203D122F070074A68FC
:104D30003A43204FDFF880C0DFF8808098420DD0E2
:104D400048450BD0A84209D0B04207D0A04205D0B8
:104D5000B84203D0604501D0404503D122F44075EC
:104D6000CA682A434D6922F080022A4302608A6899
:104D7000C2620A688262984207D0A04205D0B84257
:104D800003D0604501D0404501D10969016301218B
:104D900041610169C90703D0016921F00101016185
:104DA000BDE8F083002C01400004004000080040F2
:104DB00000340140004001400044014000480140EF
:104DC00030B5416EB9B1026891689268C1F3426131
:104DD0000B4B520F9C5CE50003F10804A25CB5FB91
:104DE000F2F2A0F86A205A5C615CD200B2FBF1F1E9
:104DF000A0F8681030BD0121A0F86A10F8E70000A3
:104E0000F074000890F82810090706D501684A6870
:104E1000836B22F400421A434A6090F82810C907B5
:104E200006D001684A68C36A22F400321A434A6015
:104E300090F82810890706D501684A68036B22F4A8
:104E400080321A434A6090F82810490706D5016855
:104E50004A68436B22F480221A434A6090F8281073
:104E6000C90606D501688A68C36B22F480521A43CA
:104E70008A6090F82810890606D501688A68036C54
:104E800022F400521A438A6090F82810490611D57E
:104E900001684A68436C22F480121A434A60416CEC
:104EA000B1F5801F06D101684A68836C22F4C00204
:104EB0001A434A6090F82810090606D501684A6826
:104EC000C06C22F4002202434A6070472DE9F84387
:104ED00000260446C0F89060FDF702F8804620687E
:104EE00000684FF0200500076FF07E4713D543465A
:104EF000002229042046009700F09CFC58B121684C
:104F000051E8000F20F0800041E80002002AF6D1AD
:104F1000C4F8885021E020680068400722D5434645
:104F200000224FF480012046009700F083FCC8B1B6
:104F3000216851E8000F20F4907041E80002002A37
:104F4000F6D12068083050E8001F21F0010140E848
:104F50000012002AF5D1C4F88C5084F88460032034
:104F6000BDE8F883C4F88850C4F88C5044F86C6FDE
:104F7000666026760020F3E710B5806A0021A0F86D
:104F80005E10A0F85610FEF773FA10BD10B5026857
:104F900052E8001F21F4907142E80013002BF6D173
:104FA0000E4B0268083252E8001F194042E8001414
:104FB000002CF6D1C16E012908D1016851E8002FFB
:104FC00022F0100241E80023002BF6D12021C0F886
:104FD0008C100021C166416710BD0000FEFFFFEF8D
:104FE00010B5B0F86020D0F88C300168222B04D0C6
:104FF000886940F00800886110BD496A836D1140DE
:105000001980816D891C8165B0F85E10491EA0F879
:105010005E10B0F85E100029EED1026852E8001F61
:1050200021F4907142E80013002BF6D10168083199
:1050300051E8002F22F0010241E80023002BF5D1B6
:105040002021C0F88C10002141670167154B0268D0
:105050009A420BD05268120208D5036853E8002F19
:1050600022F0806243E80024002CF6D1C26E012AAF
:1050700002D0FEF725FC10BDC166026852E8001F91
:1050800021F0100142E80013002BF6D10168CA6933
:10509000D243D20601D410220A62B0F85C10FEF7A7
:1050A00097F910BD008000402DE9F0470446B0F8A4
:1050B00060600068C569D0F800A0D0F80880D4F816
:1050C0008C10222905D0816941F008018161BDE879
:1050D000F087B4F868704FF0000975E02068406A06
:1050E000A16D30400880A06D801CA065B4F85E0002
:1050F000401EA4F85E002068C569690730D0E90742
:105100000AD05FEACA5107D501210162D4F89000A4
:1051100040F00100C4F89000A8070BD55FEAC87002
:1051200008D0216802200862D4F8900040F0040002
:10513000C4F8900068070BD55FEAC87008D02168F2
:1051400004200862D4F8900040F00200C4F89000F7
:10515000D4F8900020B12046FEF78AF9C4F8909068
:10516000B4F85E0080BB216851E8000F20F4807025
:1051700041E80002002AF6D1304A2068083050E8A1
:10518000001F114040E80013002BF6D12020C4F886
:105190008C00C4F874904946C4F87090284A20687E
:1051A00090420BD04068000208D5226852E8000FF8
:1051B00020F0806342E800300028F6D1E06E01283C
:1051C00025D02046FEF77CFB0FB1A80686D4B4F8A4
:1051D0005E0000283FF47BAFB4F8681081427FF690
:1051E00076AF2068083050E8001F21F0805140E879
:1051F0000012002AF5D113486067216851E8000FBA
:1052000040F0200041E80002002AF6D15FE7E166A5
:10521000216851E8000F20F0100041E80002002A48
:10522000F6D12068C169C943C90601D410210162C1
:10523000B4F85C102046FEF7CBF8C5E7FEFFFFEFA1
:1052400000800040E14F000810B5B0F86020D0F8B1
:105250008C300168222B04D0886940F008008861F6
:1052600010BD496A1140826D1170816D491C8165C4
:10527000B0F85E10491EA0F85E10B0F85E1000296C
:10528000EED1016851E8002F22F4907241E800232A
:10529000002BF6D10168083151E8002F22F00102FD
:1052A00041E80023002BF5D12021C0F88C1000210B
:1052B00041670167154B02689A420BD0526812028F
:1052C00008D5036853E8002F22F0806243E80024E9
:1052D000002CF6D1C26E012A02D0FEF7F1FA10BD01
:1052E000C166026852E8001F21F0100142E8001375
:1052F000002BF6D10168CA69D243D20601D410222C
:105300000A62B0F85C10FEF763F810BD0080004040
:105310002DE9F0470446B0F860600068C569D0F830
:1053200000A0D0F80880D4F88C10222905D081691B
:1053300041F008018161BDE8F087B4F868704FF072
:10534000000975E02068406AA16D30400870A06DCA
:10535000401CA065B4F85E00401EA4F85E00206802
:10536000C569690730D0E9070AD05FEACA5107D595
:1053700001210162D4F8900040F00100C4F89000CF
:10538000A8070BD55FEAC87008D021680220086220
:10539000D4F8900040F00400C4F8900068070BD5E2
:1053A0005FEAC87008D0216804200862D4F8900031
:1053B00040F00200C4F89000D4F8900020B12046DC
:1053C000FEF756F8C4F89090B4F85E0080BB2168F0
:1053D00051E8000F20F4807041E80002002AF6D165
:1053E000304A2068083050E8001F114040E80013A0
:1053F000002BF6D12020C4F88C00C4F874904A46E3
:10540000C4F870902849206888420BD04068000298
:1054100008D5216851E8000F20F0806041E80003C2
:10542000002BF6D1E06E012825D02046FEF748FA81
:105430000FB1A80686D4B4F85E0000283FF47BAF15
:10544000B4F8681081427FF676AF2068083050E8E3
:10545000001F21F0805140E80012002AF5D11348C6
:105460006067206850E8001F41F0200140E800120A
:10547000002AF6D15FE7E266216851E8000F20F0CC
:10548000100041E80002002AF6D12068C169C94332
:10549000C90601D410210162B4F85C102046FDF762
:1054A00097FFC5E7FEFFFFEF00800040495200086C
:1054B0002DE9F0410446016880682269E3691043E0
:1054C000626900251A431043DFF82CC20A688B4B2F
:1054D0001A4002430A6020684168E26821F44051A2
:1054E000114341602168A069614501D0226A1043DF
:1054F0008A68834B1A4002438A602068C16A626AE4
:1055000021F00F011143C1627E4923687E488B421E
:105510000DD1D0F8880010F0030006D0012855D036
:10552000022842D003283FD152E001203DE07749D4
:105530008B420BD1D0F8880010F00C0035D0042835
:1055400033D0082840D00C282ED141E070498B423E
:105550000BD1D0F8880010F0300026D0102835D0BC
:10556000202831D030281FD132E06A498B420BD13C
:10557000D0F8880010F0C00017D0402826D080282E
:1055800022D0C02810D123E063450DD1D0F8880087
:1055900010F4406009D0B0F5806F17D0B0F5006FFF
:1055A00012D0B0F5406F13D010205B495B4F00263E
:1055B0004FF4004263453BD160B1022813D0042868
:1055C0000BD0082872D10DE00220EEE70420ECE7B2
:1055D0000820EAE7FCF7B4FF01E0FCF7D5FF010083
:1055E00001D17CE01146606A37F810206768B1FB92
:1055F000F2F007EB4703834270D8B0EB073F6DD85A
:10560000002308461946FAF705FE090241EA10612F
:1056100002027808101871413A460023FAF7FAFDA1
:105620003F4AA0F54071914258D82168C86056E0C1
:10563000E3694FF6EF7893422CD109284ED2DFE888
:1056400000F00508114D0D4D4D4D1000FCF778FF91
:1056500001E0FCF787FF010004D140E0FCF794FF74
:10566000F9E71146606A37F81000B1FBF0F041002D
:10567000606801EB5001B1FBF0F0A0F11001414571
:105680002CD84FF6F0710140C0F34200014320686E
:10569000C16024E0092821D2DFE800F005091220CA
:1056A0000E2020201100FCF74BFF02E016E0FCF773
:1056B00059FF010004D112E0FCF766FFF9E711463B
:1056C000606A37F81000B1FBF0F1606801EB50013F
:1056D000B1FBF0F0A0F1100141450AD901250120EC
:1056E000A4F86A0024F8680F2846E6602661BDE841
:1056F000F08180B299E7000000800040F369FFCF9D
:10570000FFF4FF1100380140001002400044004047
:1057100000480040004C00400024F400D874000809
:10572000FFFC0F0070B58165A0F85C20A0F85E203A
:105730000023436781684FF48056FF24B14204D1AF
:105740000169F9B940F2FF1122E07F25C1B1B1F141
:10575000805F1AD0A0F86030C0F890302221C0F8E5
:105760008C100168083151E8003F43F0010341E823
:105770000034002CF5D1416EB1F1005F0ED031E064
:10578000016941B9A0F86040E6E7016919B13F211C
:10579000A0F86010E0E7A0F86050DDE7B0F868100E
:1057A00091421FD88168B14201D10169B9B11D4947
:1057B0004167016941B1026852E8001F41F48071FC
:1057C00042E80013002BF6D10168083151E8002FA0
:1057D00042F0805241E80023002BF5D120E012492D
:1057E0004167F1E78168B14201D1016969B10F49AF
:1057F0004167016959B1026852E8001F41F4907194
:1058000042E80013002BF6D10AE00949416702681B
:1058100052E8001F41F0200142E80013002BF6D1AE
:10582000002070BD11530008A9500008495200081B
:10583000E14F00082DE9F047994617460D4604460A
:105840004FF00008089E33E0701C31D0FCF748FB95
:10585000A0EB0900B04218D8BEB120680168490722
:1058600026D5802D24D0402D22D0C169C9430907F7
:105870000DD4082505622046FFF788FBC4F8905038
:1058800084F884800120BDE8F0870320FBE7C0692D
:10589000C04300050CD421684FF400600862204624
:1058A000FFF774FB2020C4F8900084F88480ECE7B4
:1058B0002068C06935EA000004D00020B842C3D097
:1058C0000020E0E70120F9E70148FDF7D3BD000023
:1058D000BC010020FEE710B50446FCF7D5F82046D1
:1058E000FBF798FF80B210BD0FB4054B10B503A9AC
:1058F000044A029800F02EF910BC5DF814FB000079
:10590000716200084C0000200FB4084B10B504A9C8
:1059100002AA039800F01EF9044602A9002000F034
:105920009CFC204610BC5DF814FB00005B62000884
:105930000907090E002804DB00F1E02080F80014BC
:10594000704700F00F0000F1E02080F8141D704750
:1059500030B583B0044600F017F89FED090B0546FB
:105960008DED000B002221466846FAF708FF284615
:1059700000F020F89DED000B03B030BD00000000EA
:1059800000000000000000000148006870470000AF
:105990005000002002E008C8121F08C1002AFAD1F6
:1059A00070477047002001E001C1121F002AFBD19F
:1059B0007047000001490860704700005000002057
:1059C0002DE9FF5F82B00021DDE90430020DDDF832
:1059D00040B0034318D044F61050A2F2FF324243C5
:1059E0001514119801281FD0A5EB0B00401C5FEA8D
:1059F000000A4FF000064E4FDFF83891B04650468F
:105A000015D5CAF1000413E0119801244AA3012816
:105A100001D16FEA0B010298119AC0E90031C0E987
:105A2000024206B0BDE8F09FCBF10000DFE704467C
:105A30000021404A491842EB0450CDE9001012E021
:105A4000E00707D032463B4640464946FAF7C4FCD9
:105A50008046894632463B4610461946FAF7BCFC5A
:105A600006460F466410002CEAD1DDE90401DDE9A9
:105A70000023BAF1000F06DAFAF7AEFC42464B46B5
:105A8000FAF7AAFC05E0FAF719FD42464B46FAF789
:105A900015FD04460E460022284BFAF7B7FD03D841
:105AA0004FF0FF30014607E00022254B20463146EB
:105AB000FAF72CFFFAF7D1FF102409E0002C0ADBDB
:105AC0000A220023FAF7A6FB039B30321A55641E04
:105AD00050EA0102F2D1641C039AC4F11103144488
:105AE000119A012A03D0012208430DD10AE008438C
:105AF00004D000204FF0110B119072E7A3EB0B05BF
:105B00006D1E0DE05B4504DD4FF0000205F101055F
:105B100004E003DA4FF00002A5F10105002AECD001
:105B200002981199C0E90231C0E9004579E7000007
:105B3000000014400000F03F300000000000F0437F
:105B40000000E03F30380A2801D2012070470020D1
:105B5000704700002DE9FF4F95B09A4688460646EB
:105B60000025EEE1252877D100242746F94A0121B6
:105B7000039400E0044316F8013F203B01FA03F0D0
:105B80001042F7D130782A2811D06FF02F033078E7
:105B9000A0F13002092A16D8039A44F0020402EB5D
:105BA000820203EB42021044761C0390EFE758F8A0
:105BB000042B0392002A03DA504244F40054039069
:105BC00044F00204761C30782E2816D116F8010F06
:105BD00044F004042A280DD06FF02F023078A0F191
:105BE0003003092B09D807EB870302EB4303C718DF
:105BF000761CF3E758F8047B761C30786C280FD0BD
:105C000006DC4C2817D068280DD06A2814D104E08F
:105C1000742810D07A280FD10DE044F400140AE063
:105C200044F4801401E044F440147278824202D1BA
:105C300004F58014761C761C307866280BD013DCB3
:105C4000582877D009DC002875D04528F6D046289A
:105C5000F4D047281AD193E118E0632835D064289E
:105C600079D0652812D18BE1702873D008DC6728C1
:105C7000F1D069286FD06E280DD06F2806D1ACE026
:105C800073282CD0752874D0782853D05246179991
:105C900090476D1C54E1C4F30250022809D0032838
:105CA0000DD0D8F8001004280DD00D6008F10408BC
:105CB00046E1D8F80010EA17C1E90052F6E7D8F833
:105CC00000100D80F2E70D70F0E718F8041B8DF856
:105CD000001000208DF80100EB46012003E058F889
:105CE00004BB4FF0FF3061074FF0000102D40DE01C
:105CF00009F101018946B9420FDA8145F8DB1BF849
:105D000009100029F4D108E009F101018946814216
:105D1000FADB1BF809100029F6D103985346A0EBD3
:105D2000090721463846179A00F080FA284400EB0C
:105D3000090507E044E008E10DE01BF8010B5246BD
:105D400017999047B9F10109F7D2534621463846D1
:105D5000179AF2E039E00A21C4F302524FF0000B27
:105D60000091022A06D058F8040BC117032A09D063
:105D70000AE023E008F1070020F00702F2E8020140
:105D8000904605E000B2C117042A01D140B2C11704
:105D9000002906DA0A460021404261EB02012D2269
:105DA00002E0220504D52B228DF80420012203E015
:105DB000E20701D02022F7E7914657E00A2100E0F0
:105DC00010214FF0000B00910BE010214FF0000B61
:105DD00044F004040827009103E008204FF0000B72
:105DE0000090C4F30252022A05D058F8040B002197
:105DF000032A08D008E008F1070020F00702F2E8C3
:105E00000201904603E080B2042A00D1C0B24FF0F4
:105E1000000922072AD53278702A07D0DDF800C0A1
:105E20008CF0100C5CEA0B0C05D00EE040228DF8D3
:105E30000420012208E050EA010306D030238DF847
:105E400004308DF8052002229146009B83F0080360
:105E500053EA0B030AD150EA010201D1620705D5CA
:105E600030228DF804204FF001097F1E3278582A25
:105E700004D039A20C920CAA02920BE03BA2F9E7E3
:105E80005B46009AFAF7C6F90C9B9B5C029A521E7D
:105E90000292137050EA0102F2D1029804A9081A82
:105EA00000F1200B600702D524F4803400E00127C4
:105EB0005F4502DDA7EB0B0000E0002000EB0B01CB
:105EC000009003984944401A0390E00306D45346D7
:105ED0002146179A039800F0A9F90544002706E027
:105EE00001A85246C05D179990476D1C7F1C4F4515
:105EF000F6DBE0030CD553462146179A039800F0D1
:105F000095F9054404E030205246179990476D1CDE
:105F10000099481E00900029F5DC08E002980299DB
:105F200052460078491C0291179990476D1CBBF1AD
:105F30000001ABF1010BF1DC5BE100F065F9054418
:105F4000761C307800287FF40DAE19B02846BDE8E5
:105F5000F08F0000092801003031323334353637F4
:105F600038396162636465660000000030313233A5
:105F70003435363738394142434445460000000045
:105F8000600700D4062708F1070020F00700F0E8BA
:105F90000223804603F0004C5FEA0C0001D097A07A
:105FA00009E0200501D596A005E0E00701D095A005
:105FB00001E0AFF24C001390307823F000436528E5
:105FC0000CD006DC452809D046281DD047287FD1B3
:105FD0003BE0662818D067287AD136E00021112FDF
:105FE00001DB112000E0781CCDE9000104A90CA818
:105FF000FFF7E6FCDDE90D010C9A4FF0000B07F10D
:106000000109109200914EE04FF000400097CDE959
:10601000011004A90CA8FFF7D3FCDDE90D020C9BCD
:106020000F994FF0000B91461093009211B9791C13
:1060300000EB0109B7EB090003D4C0F1FF3B07F106
:106040000109A9EB0700019042E0012F00DA0127C6
:106050000021112F01DD112000E03846CDE90001BB
:1060600004A90CA8FFF7ACFCDDE90D010C9A009126
:106070004FF0000BB946109221070FD4009A4A4501
:1060800003DA914601E0A9F10109B9F1010F05DD3B
:10609000109AA9F10101515C3029F4D0B84202DA1A
:1060A00010F1040F03DA0121CDE9011010E00028FE
:1060B00003DC8344A9EB000102E0411C494500DDFB
:1060C0008946A0EB0B00401C01904FF0004002906D
:1060D000200705D40198484502DB4FF0FF300190BE
:1060E00000208DF84B0002980DF14B07B0F1004FE6
:1060F00025D002200C902B200D90029800280CDA5D
:10610000404202902D200D9007E00A210298FAF7F4
:10611000B1FA3031029007F8011D0C99481E0C901D
:106120000029F2DC02980028EFD1791E0D98087042
:10613000307800F0200040F0450007F8020D11A86B
:10614000C01BC01D02901398007800B1012000EB25
:106150000901019801EBE071029801440398401A8B
:10616000401E0390E00306D453462146179A039835
:1061700000F05CF805441398007818B1524617995E
:1061800090476D1CE00323D553462146179A039888
:1061900000F04CF805441BE0BBF1000F07DB009852
:1061A000584504DD1098179910F80B0001E0179975
:1061B00030205246904701980BF1010B401E05F12B
:1061C0000105019004D12E205246179990476D1C6D
:1061D000B9F10001A9F10109DEDC05E017F8010BB6
:1061E0005246179990476D1C0299481E029000294B
:1061F000F4DC53462146179A03989EE62D000000D2
:106200002B000000200000002DE9F041044600258D
:106210001E461746880404D405E039462020B047BE
:106220006D1C641EF9D52846BDE8F0812DE9F041CA
:10623000044600251E469046C80301D5302700E0DD
:106240002027880404D505E041463846B0476D1C38
:10625000641EF9D52846BDE8F0810A68531C0B601E
:1062600010707047002100E0491C8142FCD3704748
:1062700013B54FF0FF33012269460248FDF73CFB9E
:1062800000981CBDBC010020FBF738FEFEF7EEFCB9
:10629000FEF738F8FEF7C6F8FEF728F9FEF770F9B2
:1062A000FEF748F9FDF7F0FFFDF7A0FD1248FCF7F7
:1062B000F3FE7F211148FBF751F8012210491148E4
:1062C000FDF7DAFA4FF6FF742046FDF7E7FC0020F1
:1062D000FDF7DCFE2046FDF7C5FE00BFFDF742FCE2
:1062E000FDF79EFDFEF740FCFEF7B4FBFDF79EFFB9
:1062F000FEF772FBF2E7000024010020900000206E
:1063000009000020BC010020000000000000000087
:10631000000000000000000000000000000000007D
:10632000000000000000000000000000000000006D
:1063300000000000000000000000800180018001DA
:106340008001800180018001800180018001800145
:106350008001800100000000800180010000000039
:10636000000000000000000000000000CC00CC0095
:10637000CC00CC00CC00CC000000000000000000ED
:10638000000000000000000000000000000000000D
:1063900000000000000000000000000000000000FD
:1063A00000000000600C600C600C30063006FE1F20
:1063B000FE1F300638071803FE1FFE1F18031803C0
:1063C0008C018C018C01000000008000E003F80FBC
:1063D0009C0E8C1C8C188C009800F801E007800E35
:1063E000801C8C188C189C18B80CF00FE0038000EF
:1063F00080000000000000000000000000000E18F7
:106400001B0C110C11061106110311039B018E01C7
:10641000C038C06C60446044304430441844186C48
:106420000C380000000000000000E001F003380715
:10643000180618063003F001F000F8009C310E3306
:10644000061E061C061C063FFC73F021000000001F
:106450000000000000000000000000000C000C0024
:106460000C000C000C000C000000000000000000FC
:10647000000000000000000000000000000000001C
:106480000000000000000000000000020003800186
:10649000C000C000600060003000300030003000FC
:1064A000300030003000300060006000C000C000EC
:1064B0008001000300020000000020006000C00016
:1064C00080018001000300030006000600060006AC
:1064D000000600060006000600030003800180019C
:1064E000C00060002000000000000000000000006C
:1064F00000000000C000C000D806F807E00130032B
:10650000380700000000000000000000000000004C
:10651000000000000000000000000000000000007B
:106520000000000080018001800180018001FC3FAB
:10653000FC3F80018001800180018001000000009B
:10654000000000000000000000000000000000004B
:10655000000000000000000000000000000000003B
:106560000000000000000000000080018001000128
:10657000000180000000000000000000000000009A
:10658000000000000000000000000000000000000B
:10659000E007E0070000000000000000000000002D
:1065A00000000000000000000000000000000000EB
:1065B00000000000000000000000000000000000DB
:1065C00000000000000000000000C000C00000004B
:1065D00000000000000000000000000C000C00069D
:1065E0000006000600030003000380038001800111
:1065F0008001C000C000C00060006000000000001A
:1066000000000000000000000000E003F007380E6A
:10661000180C0C180C180C180C180C180C180C185A
:106620000C180C18180C380EF007E00300000000DE
:106630000000000000000000000000018001C00117
:10664000F0019801880180018001800180018001B2
:106650008001800180018001800180010000000034
:1066600000000000000000000000E003F80F180C1C
:106670000C180C1800180018000C0006000380010C
:10668000C000600030001800FC1FFC1F000000006C
:1066900000000000000000000000E001F807180EF4
:1066A0000C0C0C0C000C0006C003C007000C0018FA
:1066B00000180C180C18180CF807E0030000000074
:1066C00000000000000000000000000C000E000FA1
:1066D000000F800DC00C600C600C300C180C0C0C02
:1066E000FC3FFC3F000C000C000C000C0000000004
:1066F00000000000000000000000F80FF80F180074
:1067000018000C00EC03FC071C0E001C00180018FD
:1067100000180C181C0C180EF807E003000000000D
:1067200000000000000000000000C007F00F381C4F
:10673000181818000C00CC03EC0F3C0E1C1C0C1895
:106740000C180C18181C380EF007E00300000000AD
:1067500000000000000000000000FC1FFC1F000CF7
:1067600000060006000380038001C001C000E000B5
:106770006000600070003000300030000000000059
:1067800000000000000000000000E003F007380EE9
:10679000180C180C180C3806F007F007180C0C1819
:1067A0000C180C180C18380CF80FE003000000004F
:1067B00000000000000000000000E003F007380EB9
:1067C0001C0C0C180C180C181C1C381EF81BE0199B
:1067D0000018000C000C1C0EF807F001000000006F
:1067E00000000000000000000000000000000000A9
:1067F0000000000080018001000000000000000097
:106800000000000000000000800180010000000086
:106810000000000000000000000000000000000078
:106820000000000080018001000000000000000066
:106830000000000000000000800180010001000154
:1068400080000000000000000000000000000000C8
:1068500000000000000000000010001C800FE0039A
:10686000F8001800F800E003800F001C0010000082
:106870000000000000000000000000000000000018
:106880000000000000000000F81F000000000000F1
:10689000F81F0000000000000000000000000000E1
:1068A00000000000000000000000000000000000E8
:1068B000000000000000000008003800F001C007E0
:1068C000001F0018001FC007F0013800080000007A
:1068D00000000000000000000000E003F80F180CAA
:1068E0000C180C180018000C000600038001C000F2
:1068F000C000C00000000000C000C0000000000098
:10690000000000000000000000000000E007181870
:106910000420C229224A1144094409440944092295
:106920001113E20C024004201818E00700000000D8
:106930000000000000000000000080038003C0068B
:10694000C006C006600C600C301830183018F83FD4
:10695000F83F1C700C600C6006C006C00000000010
:1069600000000000000000000000FC03FC0F0C0C05
:106970000C180C180C180C0CFC07FC0F0C180C3025
:106980000C300C300C300C18FC1FFC070000000011
:1069900000000000000000000000C007F01F3838B1
:1069A0001C300C700660060006000600060006009B
:1069B000060006600C701C30F01FE00700000000AD
:1069C00000000000000000000000FE03FE0F060EA5
:1069D0000618061806300630063006300630063037
:1069E000063006180618060EFE0FFE030000000013
:1069F00000000000000000000000FC3FFC3F0C0015
:106A00000C000C000C000C00FC1FFC1F0C000C0008
:106A10000C000C000C000C00FC3FFC3F00000000D0
:106A200000000000000000000000F83FF83F1800E0
:106A30001800180018001800F81FF81F1800180098
:106A400018001800180018001800180000000000B6
:106A500000000000000000000000E00FF83F3C785C
:106A60000E6006E007C00300030003FE03FE03C040
:106A700007C006C00EC03CF0F83FE00F0000000069
:106A8000000000000000000000000C300C300C3052
:106A90000C300C300C300C30FC3FFC3F0C300C3018
:106AA0000C300C300C300C300C300C30000000007E
:106AB0000000000000000000000080018001800153
:106AC00080018001800180018001800180018001BE
:106AD00080018001800180018001800100000000B0
:106AE0000000000000000000000000060006000694
:106AF0000006000600060006000600060006000666
:106B00000006180618063807F003E0010000000030
:106B10000000000000000000000006300618060C0F
:106B2000060606038601C60066007600DE008E01BA
:106B300006030606060C0618063006600000000074
:106B400000000000000000000000180018001800FD
:106B50001800180018001800180018001800180075
:106B60001800180018001800F81FF81F0000000097
:106B7000000000000000000000000EE01EF01EF00B
:106B80001EF036D836D836D836D866CC66CC66CC29
:106B9000C6C6C6C6C6C6C6C686C386C30000000033
:106BA000000000000000000000000C301C303C30F1
:106BB0003C306C306C30CC30CC308C310C330C33FE
:106BC0000C360C360C3C0C3C0C380C300000000031
:106BD00000000000000000000000E007F81F1C3863
:106BE0000E70066003C003C003C003C003C003C02F
:106BF00003C006600E701C38F81FE007000000009C
:106C000000000000000000000000FC0FFC1F0C381A
:106C10000C300C300C300C300C18FC1FFC070C0036
:106C20000C000C000C000C000C000C00000000001C
:106C300000000000000000000000E007F81F1C3802
:106C40000E70066003E003C003C003C003C003C0AE
:106C500007E006630E3F1C3CF83FE0F700C0000071
:106C600000000000000000000000FE0FFE1F0638BC
:106C70000630063006300638FE1FFE0706030606FD
:106C8000060C0618061806300630066000000000E4
:106C900000000000000000000000E003F80F1C0CE2
:106CA0000C180C180C001C00F803E00F001E003834
:106CB000063006300E301C1CF80FE0070000000004
:106CC00000000000000000000000FE7FFE7F800149
:106CD00080018001800180018001800180018001AC
:106CE000800180018001800180018001000000009E
:106CF000000000000000000000000C300C300C30E0
:106D00000C300C300C300C300C300C300C300C30A3
:106D10000C300C300C301818F81FE0070000000091
:106D20000000000000000000000003600630063094
:106D300006300C180C180C18180C180C380E3006ED
:106D40003006700760036003C001C001000000004E
:106D5000000000000000000000000360C361C36188
:106D6000C3616633663366336633663366336C1BE2
:106D70006C1B6C1B2C1A3C1E380E380E00000000D9
:106D8000000000000000000000000FE00C70183050
:106D90003018700C600EC00780038003C003E0064B
:106DA000700C301C18180C300E6007E0000000005A
:106DB0000000000000000000000003C006600C306E
:106DC0001C383818300C6006E007C00380018001D1
:106DD00080018001800180018001800100000000AD
:106DE00000000000000000000000FC7FFC7F00604D
:106DF00000300018000C000600038001C000600095
:106E0000300018000C000600FE7FFE7F000000002E
:106E100000000000000000000000E003E00360004C
:106E20006000600060006000600060006000600062
:106E30006000600060006000600060006000600052
:106E40006000E003E003000000003000300060005C
:106E500060006000C000C000C000C001800180016F
:106E6000800100030003000300060006000000008C
:106E700000000000000000000000E003E003000349
:106E800000030003000300030003000300030003EA
:106E900000030003000300030003000300030003DA
:106EA0000003E003E003000000000000C001C00197
:106EB00060036003600330063006180C180C0000F5
:106EC00000000000000000000000000000000000C2
:106ED00000000000000000000000000000000000B2
:106EE00000000000000000000000000000000000A2
:106EF00000000000000000000000FFFFFFFF000096
:106F0000000000000000000000000C000C000C005D
:106F10000C000C000C00000000000000000000004D
:106F20000000000000000000000000000000000061
:106F30000000000000000000000000000000000051
:106F400000000000F003F8071C0C0C0C000FF00F01
:106F5000F80C0C0C0C0C1C0FF80FF01800000000C3
:106F600000000000000000000000180018001800D9
:106F700018001800D803F80F380C1818181818182B
:106F8000181818181818380CF80FD803000000004B
:106F900000000000000000000000000000000000F1
:106FA00000000000C003F007300E180C1800180095
:106FB00018001800180C300EF007C0030000000085
:106FC0000000000000000000000000180018001879
:106FD00000180018C01BF01F301C181818181818BB
:106FE000181818181818301CF01FC01B00000000DB
:106FF0000000000000000000000000000000000091
:1070000000000000C003F00F300C1818F81FF81F24
:10701000180018003818301CF00FC00700000000DE
:1070200000000000000000000000800FC00FC00042
:10703000C000C000F007F007C000C000C000C000E2
:10704000C000C000C000C000C000C00000000000C0
:107050000000000000000000000000000000000030
:1070600000000000E00DF80F180E0C0C0C0C0C0CBE
:107070000C0C0C0C0C0C180EF80FE00D000C0C0C8A
:107080001C06F807F00100000000180018001800A6
:1070900018001800D807F80F381C181818181818F6
:1070A00018181818181818181818181800000000C0
:1070B00000000000000000000000C000C000000050
:1070C00000000000C000C000C000C000C000C00040
:1070D000C000C000C000C000C000C0000000000030
:1070E00000000000000000000000C000C000000020
:1070F00000000000C000C000C000C000C000C00010
:10710000C000C000C000C000C000C000C000C0007F
:10711000C000F8007800000000000C000C000C001B
:107120000C000C000C0C0C060C038C01CC006C0049
:10713000FC009C018C030C030C060C0C00000000EE
:1071400000000000000000000000C000C000C000FF
:10715000C000C000C000C000C000C000C000C0002F
:10716000C000C000C000C000C000C000000000009F
:10717000000000000000000000000000000000000F
:10718000000000007C3CFF7EC7E383C183C183C154
:1071900083C183C183C183C183C183C10000000057
:1071A00000000000000000000000000000000000DF
:1071B000000000009807F80F381C18181818181845
:1071C000181818181818181818181818000000009F
:1071D00000000000000000000000000000000000AF
:1071E00000000000C003F00F300C18181818181811
:1071F000181818181818300CF00FC0030000000001
:10720000000000000000000000000000000000007E
:1072100000000000D803F80F380C181818181818B8
:10722000181818181818380CF80FD8031800180078
:107230001800180018000000000000000000000006
:1072400000000000C01BF01F301C18181818181878
:10725000181818181818301CF01FC01B0018001838
:1072600000180018001800000000000000000000D6
:1072700000000000B007F003700030003000300064
:1072800030003000300030003000300000000000DE
:1072900000000000000000000000000000000000EE
:1072A00000000000E003F003380E180C3800F00373
:1072B000C007000C180C380EF007E00300000000B7
:1072C0000000000000000000000000008000C0007E
:1072D000C000C000F007F007C000C000C000C00040
:1072E000C000C000C000C000C00780070000000050
:1072F000000000000000000000000000000000008E
:10730000000000001818181818181818181818185D
:10731000181818181818381CF01FE0190000000081
:10732000000000000000000000000000000000005D
:10733000000000000C18180C180C180C3006300651
:107340003006600360036003C001C001000000005C
:10735000000000000000000000000000000000002D
:1073600000000000C141C141C361636363636363A3
:107370003636363636361C1C1C1C1C1C0000000021
:1073800000000000000000000000000000000000FD
:10739000000000001C38381C300C600660036003DD
:1073A000600360036006300C381C1C3800000000CD
:1073B00000000000000000000000000000000000CD
:1073C000000000001830301830187018600C600C85
:1073D000E00CC006C00680038003800380018001AA
:1073E000C001F0007000000000000000000000007C
:1073F00000000000FC1FFC1F000C000600038001C1
:10740000C000600030001800FC1FFC1F00000000DE
:107410000000000000000000000000038001C00028
:10742000C000C000C000C000C000600060003000AC
:1074300060004000C000C000C000C000C000C0002C
:107440008001000300000000000080018001800135
:107450008001800180018001800180018001800124
:107460008001800180018001800180018001800114
:10747000800180018001000000006000C000C001A8
:10748000800180018001800180010003000300066B
:1074900000030001800180018001800180018001E2
:1074A000C0006000000000000000000000000000BC
:1074B0000000000000000000F010F81F080F00009E
:1074C00000000000000000000000000000000000BC
:1074D000000000000000000001000200040006009F
:1074E00008000A000C00100020004000800000018D
:1074F0000101010307010000080402040801010161
:107500000000000000000000010203040607080953
:107510000000000001020304DDDDDDDDDCBBBBDDBE
:10752000DDDDDDDDDDDDDDDD988888888888888823
:107530007777777777888888855555566666666643
:107540006666666666688888833333322222222222
:10755000222222222228888D78750008000000202F
:107560005400000094590008CC7500085400002015
:10757000FC050000A4590008000000000000000005
:107580000000000000000000000000003333534002
:10759000302E31000000000000000000000000005C
:1075A00000000000000000000000000000FF0000DC
:1075B000FFFF0000100000000100000000000000BC
:0C75C0000024F4000000000000000000A7
:04000005080001D915
:00000001FF
