Component: ARM Compiler 5.06 update 7 (build 960) Tool: armlink [4d3601]

==============================================================================

Section Cross References

    main.o(i.SystemClock_Config) refers to memseta.o(.text) for __aeabi_memclr4
    main.o(i.SystemClock_Config) refers to stm32g4xx_hal_pwr_ex.o(i.HAL_PWREx_ControlVoltageScaling) for HAL_PWREx_ControlVoltageScaling
    main.o(i.SystemClock_Config) refers to stm32g4xx_hal_rcc.o(i.HAL_RCC_OscConfig) for HAL_RCC_OscConfig
    main.o(i.SystemClock_Config) refers to stm32g4xx_hal_rcc.o(i.HAL_RCC_ClockConfig) for HAL_RCC_ClockConfig
    main.o(i.main) refers to stm32g4xx_hal.o(i.HAL_Init) for HAL_Init
    main.o(i.main) refers to main.o(i.SystemClock_Config) for SystemClock_Config
    main.o(i.main) refers to gpio.o(i.MX_GPIO_Init) for MX_GPIO_Init
    main.o(i.main) refers to tim.o(i.MX_TIM3_Init) for MX_TIM3_Init
    main.o(i.main) refers to tim.o(i.MX_TIM6_Init) for MX_TIM6_Init
    main.o(i.main) refers to usart.o(i.MX_USART1_UART_Init) for MX_USART1_UART_Init
    main.o(i.main) refers to lcd.o(i.LCD_Init) for LCD_Init
    main.o(i.main) refers to stm32g4xx_hal_tim.o(i.HAL_TIM_Base_Start_IT) for HAL_TIM_Base_Start_IT
    main.o(i.main) refers to stm32g4xx_hal_uart.o(i.HAL_UART_Receive_IT) for HAL_UART_Receive_IT
    main.o(i.main) refers to stm32g4xx_hal_tim.o(i.HAL_TIM_PWM_Start) for HAL_TIM_PWM_Start
    main.o(i.main) refers to lcd.o(i.LCD_Clear) for LCD_Clear
    main.o(i.main) refers to lcd.o(i.LCD_SetBackColor) for LCD_SetBackColor
    main.o(i.main) refers to lcd.o(i.LCD_SetTextColor) for LCD_SetTextColor
    main.o(i.main) refers to task.o(i.Key_Proc) for Key_Proc
==============================================================================

Removing Unused input sections from the image.

    Removing main.o(.rev16_text), (4 bytes).
    Removing main.o(.revsh_text), (4 bytes).
    Removing main.o(.rrx_text), (6 bytes).
    Removing gpio.o(.rev16_text), (4 bytes).
    Removing gpio.o(.revsh_text), (4 bytes).
    Removing gpio.o(.rrx_text), (6 bytes).
    Removing tim.o(.rev16_text), (4 bytes).
    Removing tim.o(.revsh_text), (4 bytes).
    Removing tim.o(.rrx_text), (6 bytes).
    Removing tim.o(i.HAL_TIM_Base_MspDeInit), (36 bytes).
    Removing tim.o(i.HAL_TIM_PWM_MspDeInit), (28 bytes).
    Removing usart.o(.rev16_text), (4 bytes).
    Removing usart.o(.revsh_text), (4 bytes).
    Removing usart.o(.rrx_text), (6 bytes).
    Removing usart.o(i.HAL_UART_MspDeInit), (52 bytes).
    Removing stm32g4xx_it.o(.rev16_text), (4 bytes).
    Removing stm32g4xx_it.o(.revsh_text), (4 bytes).
    Removing stm32g4xx_it.o(.rrx_text), (6 bytes).
==============================================================================

Image Symbol Table

    Local Symbols

    Symbol Name                              Value     Ov Type        Size  Object(Section)

    ../Core/Src/gpio.c                       0x00000000   Number         0  gpio.o ABSOLUTE
    ../Core/Src/main.c                       0x00000000   Number         0  main.o ABSOLUTE
    ../Core/Src/stm32g4xx_hal_msp.c          0x00000000   Number         0  stm32g4xx_hal_msp.o ABSOLUTE
    ../Core/Src/stm32g4xx_it.c               0x00000000   Number         0  stm32g4xx_it.o ABSOLUTE
    ../Core/Src/system_stm32g4xx.c           0x00000000   Number         0  system_stm32g4xx.o ABSOLUTE
    ../Core/Src/tim.c                        0x00000000   Number         0  tim.o ABSOLUTE
    ../Core/Src/usart.c                      0x00000000   Number         0  usart.o ABSOLUTE
    ../Drivers/STM32G4xx_HAL_Driver/Src/stm32g4xx_hal.c 0x00000000   Number         0  stm32g4xx_hal.o ABSOLUTE
    ../Drivers/STM32G4xx_HAL_Driver/Src/stm32g4xx_hal_cortex.c 0x00000000   Number         0  stm32g4xx_hal_cortex.o ABSOLUTE
    ../Drivers/STM32G4xx_HAL_Driver/Src/stm32g4xx_hal_dma.c 0x00000000   Number         0  stm32g4xx_hal_dma.o ABSOLUTE
    ../Drivers/STM32G4xx_HAL_Driver/Src/stm32g4xx_hal_dma_ex.c 0x00000000   Number         0  stm32g4xx_hal_dma_ex.o ABSOLUTE
    ../Drivers/STM32G4xx_HAL_Driver/Src/stm32g4xx_hal_exti.c 0x00000000   Number         0  stm32g4xx_hal_exti.o ABSOLUTE
    ../Drivers/STM32G4xx_HAL_Driver/Src/stm32g4xx_hal_flash.c 0x00000000   Number         0  stm32g4xx_hal_flash.o ABSOLUTE
    ../Drivers/STM32G4xx_HAL_Driver/Src/stm32g4xx_hal_flash_ex.c 0x00000000   Number         0  stm32g4xx_hal_flash_ex.o ABSOLUTE
    ../Drivers/STM32G4xx_HAL_Driver/Src/stm32g4xx_hal_flash_ramfunc.c 0x00000000   Number         0  stm32g4xx_hal_flash_ramfunc.o ABSOLUTE
    ../Drivers/STM32G4xx_HAL_Driver/Src/stm32g4xx_hal_gpio.c 0x00000000   Number         0  stm32g4xx_hal_gpio.o ABSOLUTE
    ../Drivers/STM32G4xx_HAL_Driver/Src/stm32g4xx_hal_pwr.c 0x00000000   Number         0  stm32g4xx_hal_pwr.o ABSOLUTE
    ../Drivers/STM32G4xx_HAL_Driver/Src/stm32g4xx_hal_pwr_ex.c 0x00000000   Number         0  stm32g4xx_hal_pwr_ex.o ABSOLUTE
    ../Drivers/STM32G4xx_HAL_Driver/Src/stm32g4xx_hal_rcc.c 0x00000000   Number         0  stm32g4xx_hal_rcc.o ABSOLUTE
    ../Drivers/STM32G4xx_HAL_Driver/Src/stm32g4xx_hal_rcc_ex.c 0x00000000   Number         0  stm32g4xx_hal_rcc_ex.o ABSOLUTE
    ../Drivers/STM32G4xx_HAL_Driver/Src/stm32g4xx_hal_tim.c 0x00000000   Number         0  stm32g4xx_hal_tim.o ABSOLUTE
    ../Drivers/STM32G4xx_HAL_Driver/Src/stm32g4xx_hal_tim_ex.c 0x00000000   Number         0  stm32g4xx_hal_tim_ex.o ABSOLUTE
    ../Drivers/STM32G4xx_HAL_Driver/Src/stm32g4xx_hal_uart.c 0x00000000   Number         0  stm32g4xx_hal_uart.o ABSOLUTE
    ../Drivers/STM32G4xx_HAL_Driver/Src/stm32g4xx_hal_uart_ex.c 0x00000000   Number         0  stm32g4xx_hal_uart_ex.o ABSOLUTE
    ../clib/microlib/ctype/ctype.c           0x00000000   Number         0  ctype_c.o ABSOLUTE
    ../clib/microlib/ctype/ctype.c           0x00000000   Number         0  isspace_c.o ABSOLUTE
    ../clib/microlib/division.c              0x00000000   Number         0  uldiv.o ABSOLUTE
    ../clib/microlib/division.c              0x00000000   Number         0  uidiv.o ABSOLUTE
    ../clib/microlib/init/entry.s            0x00000000   Number         0  entry10b.o ABSOLUTE
    ../clib/microlib/init/entry.s            0x00000000   Number         0  entry10a.o ABSOLUTE
    ../clib/microlib/init/entry.s            0x00000000   Number         0  entry12b.o ABSOLUTE
    ../clib/microlib/init/entry.s            0x00000000   Number         0  entry11b.o ABSOLUTE
    ../clib/microlib/init/entry.s            0x00000000   Number         0  entry9b.o ABSOLUTE
    ../clib/microlib/init/entry.s            0x00000000   Number         0  entry9a.o ABSOLUTE
    ../clib/microlib/init/entry.s            0x00000000   Number         0  entry.o ABSOLUTE
    ../clib/microlib/init/entry.s            0x00000000   Number         0  entry8b.o ABSOLUTE
    ../clib/microlib/init/entry.s            0x00000000   Number         0  entry8a.o ABSOLUTE
    ../clib/microlib/init/entry.s            0x00000000   Number         0  entry7b.o ABSOLUTE
    ../clib/microlib/init/entry.s            0x00000000   Number         0  entry7a.o ABSOLUTE
    ../clib/microlib/init/entry.s            0x00000000   Number         0  entry5.o ABSOLUTE
    ../clib/microlib/init/entry.s            0x00000000   Number         0  entry2.o ABSOLUTE
    ../clib/microlib/init/entry.s            0x00000000   Number         0  entry12a.o ABSOLUTE
    ../clib/microlib/init/entry.s            0x00000000   Number         0  entry11a.o ABSOLUTE
    ../clib/microlib/longlong.c              0x00000000   Number         0  llsshr.o ABSOLUTE
    ../clib/microlib/longlong.c              0x00000000   Number         0  llushr.o ABSOLUTE
    ../clib/microlib/longlong.c              0x00000000   Number         0  llshl.o ABSOLUTE
    ../clib/microlib/printf/printf.c         0x00000000   Number         0  printf4.o ABSOLUTE
    ../clib/microlib/printf/printf.c         0x00000000   Number         0  printfa.o ABSOLUTE
    ../clib/microlib/printf/printf.c         0x00000000   Number         0  printf8.o ABSOLUTE
    ../clib/microlib/printf/printf.c         0x00000000   Number         0  printf1.o ABSOLUTE
    ../clib/microlib/printf/printf.c         0x00000000   Number         0  printf7.o ABSOLUTE
    ../clib/microlib/printf/printf.c         0x00000000   Number         0  printf0.o ABSOLUTE
    ../clib/microlib/printf/printf.c         0x00000000   Number         0  printf6.o ABSOLUTE
    ../clib/microlib/printf/printf.c         0x00000000   Number         0  printf5.o ABSOLUTE
    ../clib/microlib/printf/printf.c         0x00000000   Number         0  printfb.o ABSOLUTE
    ../clib/microlib/printf/printf.c         0x00000000   Number         0  printf3.o ABSOLUTE
    ../clib/microlib/printf/printf.c         0x00000000   Number         0  printf2.o ABSOLUTE
    ../clib/microlib/printf/stubs.s          0x00000000   Number         0  stubs.o ABSOLUTE
    ../clib/microlib/stdio/streams.c         0x00000000   Number         0  stdout.o ABSOLUTE
    ../clib/microlib/string/memcpy.c         0x00000000   Number         0  memcpyb.o ABSOLUTE
    ../clib/microlib/string/memcpy.c         0x00000000   Number         0  memcpya.o ABSOLUTE
    ../clib/microlib/string/memset.c         0x00000000   Number         0  memseta.o ABSOLUTE
    ../clib/microlib/string/strstr.c         0x00000000   Number         0  strstr.o ABSOLUTE
    ../clib/microlib/stubs.s                 0x00000000   Number         0  iusefp.o ABSOLUTE
    ../clib/scanf.c                          0x00000000   Number         0  _chval.o ABSOLUTE
    ../clib/scanf.c                          0x00000000   Number         0  scanf_char.o ABSOLUTE
    ../clib/scanf.c                          0x00000000   Number         0  _scanf.o ABSOLUTE
    ../clib/scanf.c                          0x00000000   Number         0  _scanf_str.o ABSOLUTE
    ../clib/scanf.c                          0x00000000   Number         0  _scanf_int.o ABSOLUTE
    ../clib/scanf.c                          0x00000000   Number         0  __0sscanf.o ABSOLUTE
    ../clib/scanf.c                          0x00000000   Number         0  _sgetc.o ABSOLUTE
    ../fplib/microlib/fpadd.c                0x00000000   Number         0  dadd.o ABSOLUTE
    ../fplib/microlib/fpdiv.c                0x00000000   Number         0  ddiv.o ABSOLUTE
    ../fplib/microlib/fpepilogue.c           0x00000000   Number         0  depilogue.o ABSOLUTE
    ../fplib/microlib/fpfix.c                0x00000000   Number         0  dfixul.o ABSOLUTE
    ../fplib/microlib/fpflt.c                0x00000000   Number         0  dfltui.o ABSOLUTE
    ../fplib/microlib/fpmul.c                0x00000000   Number         0  dmul.o ABSOLUTE
    ..\Core\Src\gpio.c                       0x00000000   Number         0  gpio.o ABSOLUTE
    ..\Core\Src\main.c                       0x00000000   Number         0  main.o ABSOLUTE
    ..\Core\Src\stm32g4xx_hal_msp.c          0x00000000   Number         0  stm32g4xx_hal_msp.o ABSOLUTE
    ..\Core\Src\stm32g4xx_it.c               0x00000000   Number         0  stm32g4xx_it.o ABSOLUTE
    ..\Core\Src\system_stm32g4xx.c           0x00000000   Number         0  system_stm32g4xx.o ABSOLUTE
    ..\Core\Src\tim.c                        0x00000000   Number         0  tim.o ABSOLUTE
    ..\Core\Src\usart.c                      0x00000000   Number         0  usart.o ABSOLUTE
    ..\Drivers\STM32G4xx_HAL_Driver\Src\stm32g4xx_hal.c 0x00000000   Number         0  stm32g4xx_hal.o ABSOLUTE
    ..\Drivers\STM32G4xx_HAL_Driver\Src\stm32g4xx_hal_cortex.c 0x00000000   Number         0  stm32g4xx_hal_cortex.o ABSOLUTE
    ..\Drivers\STM32G4xx_HAL_Driver\Src\stm32g4xx_hal_dma.c 0x00000000   Number         0  stm32g4xx_hal_dma.o ABSOLUTE
    ..\Drivers\STM32G4xx_HAL_Driver\Src\stm32g4xx_hal_dma_ex.c 0x00000000   Number         0  stm32g4xx_hal_dma_ex.o ABSOLUTE
    ..\Drivers\STM32G4xx_HAL_Driver\Src\stm32g4xx_hal_exti.c 0x00000000   Number         0  stm32g4xx_hal_exti.o ABSOLUTE
    ..\Drivers\STM32G4xx_HAL_Driver\Src\stm32g4xx_hal_flash.c 0x00000000   Number         0  stm32g4xx_hal_flash.o ABSOLUTE
    ..\Drivers\STM32G4xx_HAL_Driver\Src\stm32g4xx_hal_flash_ex.c 0x00000000   Number         0  stm32g4xx_hal_flash_ex.o ABSOLUTE
    ..\Drivers\STM32G4xx_HAL_Driver\Src\stm32g4xx_hal_flash_ramfunc.c 0x00000000   Number         0  stm32g4xx_hal_flash_ramfunc.o ABSOLUTE
    ..\Drivers\STM32G4xx_HAL_Driver\Src\stm32g4xx_hal_gpio.c 0x00000000   Number         0  stm32g4xx_hal_gpio.o ABSOLUTE
    ..\Drivers\STM32G4xx_HAL_Driver\Src\stm32g4xx_hal_pwr.c 0x00000000   Number         0  stm32g4xx_hal_pwr.o ABSOLUTE
    ..\Drivers\STM32G4xx_HAL_Driver\Src\stm32g4xx_hal_pwr_ex.c 0x00000000   Number         0  stm32g4xx_hal_pwr_ex.o ABSOLUTE
    ..\Drivers\STM32G4xx_HAL_Driver\Src\stm32g4xx_hal_rcc.c 0x00000000   Number         0  stm32g4xx_hal_rcc.o ABSOLUTE
    ..\Drivers\STM32G4xx_HAL_Driver\Src\stm32g4xx_hal_rcc_ex.c 0x00000000   Number         0  stm32g4xx_hal_rcc_ex.o ABSOLUTE
    ..\Drivers\STM32G4xx_HAL_Driver\Src\stm32g4xx_hal_tim.c 0x00000000   Number         0  stm32g4xx_hal_tim.o ABSOLUTE
    ..\Drivers\STM32G4xx_HAL_Driver\Src\stm32g4xx_hal_tim_ex.c 0x00000000   Number         0  stm32g4xx_hal_tim_ex.o ABSOLUTE
    ..\Drivers\STM32G4xx_HAL_Driver\Src\stm32g4xx_hal_uart.c 0x00000000   Number         0  stm32g4xx_hal_uart.o ABSOLUTE
    ..\Drivers\STM32G4xx_HAL_Driver\Src\stm32g4xx_hal_uart_ex.c 0x00000000   Number         0  stm32g4xx_hal_uart_ex.o ABSOLUTE
    ..\Hardware\Key.c                        0x00000000   Number         0  key.o ABSOLUTE
    ..\Hardware\LED.c                        0x00000000   Number         0  led.o ABSOLUTE
    ..\Hardware\lcd.c                        0x00000000   Number         0  lcd.o ABSOLUTE
    ..\User\interrupt.c                      0x00000000   Number         0  interrupt.o ABSOLUTE
    ..\User\task.c                           0x00000000   Number         0  task.o ABSOLUTE
    ..\\Hardware\\Key.c                      0x00000000   Number         0  key.o ABSOLUTE
    ..\\Hardware\\LED.c                      0x00000000   Number         0  led.o ABSOLUTE
    ..\\Hardware\\lcd.c                      0x00000000   Number         0  lcd.o ABSOLUTE
    ..\\User\\interrupt.c                    0x00000000   Number         0  interrupt.o ABSOLUTE
    ..\\User\\task.c                         0x00000000   Number         0  task.o ABSOLUTE
    cdrcmple.s                               0x00000000   Number         0  cdrcmple.o ABSOLUTE
    dc.s                                     0x00000000   Number         0  dc.o ABSOLUTE
    handlers.s                               0x00000000   Number         0  handlers.o ABSOLUTE
    init.s                                   0x00000000   Number         0  init.o ABSOLUTE
    startup_stm32g431xx.s                    0x00000000   Number         0  startup_stm32g431xx.o ABSOLUTE
    RESET                                    0x08000000   Section      472  startup_stm32g431xx.o(RESET)
    .ARM.Collect$$$$00000000                 0x080001d8   Section        0  entry.o(.ARM.Collect$$$$00000000)
    .ARM.Collect$$$$00000001                 0x080001d8   Section        4  entry2.o(.ARM.Collect$$$$00000001)
    .ARM.Collect$$$$00000004                 0x080001dc   Section        4  entry5.o(.ARM.Collect$$$$00000004)
    .ARM.Collect$$$$00000008                 0x080001e0   Section        0  entry7b.o(.ARM.Collect$$$$00000008)
    .ARM.Collect$$$$0000000A                 0x080001e0   Section        0  entry8b.o(.ARM.Collect$$$$0000000A)
    .ARM.Collect$$$$0000000B                 0x080001e0   Section        8  entry9a.o(.ARM.Collect$$$$0000000B)
    .ARM.Collect$$$$0000000E                 0x080001e8   Section        4  entry12b.o(.ARM.Collect$$$$0000000E)
    .ARM.Collect$$$$0000000F                 0x080001ec   Section        0  entry10a.o(.ARM.Collect$$$$0000000F)
    .ARM.Collect$$$$00000011                 0x080001ec   Section        0  entry11a.o(.ARM.Collect$$$$00000011)
    .ARM.Collect$$$$00002712                 0x080001ec   Section        4  entry2.o(.ARM.Collect$$$$00002712)
    __lit__00000000                          0x080001ec   Data           4  entry2.o(.ARM.Collect$$$$00002712)
    .text                                    0x080001f0   Section       36  startup_stm32g431xx.o(.text)
    $v0                                      0x080001f0   Number         0  startup_stm32g431xx.o(.text)
    .text                                    0x08000214   Section        0  uldiv.o(.text)
    .text                                    0x08000276   Section        0  memcpya.o(.text)
    .text                                    0x0800029a   Section        0  memseta.o(.text)
    .text                                    0x080002be   Section        0  strstr.o(.text)
    .text                                    0x080002e4   Section        0  __0sscanf.o(.text)
    .text                                    0x0800031c   Section        0  _scanf_int.o(.text)
    .text                                    0x08000468   Section        0  _scanf_str.o(.text)
    .text                                    0x08000548   Section        0  dmul.o(.text)
    .text                                    0x0800062c   Section        0  ddiv.o(.text)
    .text                                    0x0800070a   Section        0  dfltui.o(.text)
    .text                                    0x08000724   Section        0  uidiv.o(.text)
    .text                                    0x08000750   Section        0  llshl.o(.text)
    .text                                    0x0800076e   Section        0  llushr.o(.text)
    .text                                    0x0800078e   Section        0  _chval.o(.text)
    .text                                    0x080007ac   Section        0  scanf_char.o(.text)
    _scanf_char_input                        0x080007ad   Thumb Code    12  scanf_char.o(.text)
    .text                                    0x080007d4   Section        0  _sgetc.o(.text)
    .text                                    0x08000814   Section        0  depilogue.o(.text)
    .text                                    0x08000814   Section        0  iusefp.o(.text)
    .text                                    0x080008ce   Section        0  dadd.o(.text)
    .text                                    0x08000a1c   Section        0  dfixul.o(.text)
    .text                                    0x08000a4c   Section       48  cdrcmple.o(.text)
    .text                                    0x08000a7c   Section       36  init.o(.text)
    .text                                    0x08000aa0   Section        0  llsshr.o(.text)
    .text                                    0x08000ac4   Section        0  isspace_c.o(.text)
    .text                                    0x08000ad0   Section        0  _scanf.o(.text)
    .text                                    0x08000e00   Section        0  ctype_c.o(.text)
    i.BusFault_Handler                       0x08000e28   Section        0  stm32g4xx_it.o(i.BusFault_Handler)
    i.Car_Expence_Proc                       0x08000e2c   Section        0  task.o(i.Car_Expence_Proc)
    i.Car_Message_Proc                       0x08001094   Section        0  task.o(i.Car_Message_Proc)
    i.Car_Park_Proc                          0x08001170   Section        0  task.o(i.Car_Park_Proc)
    i.DebugMon_Handler                       0x08001338   Section        0  stm32g4xx_it.o(i.DebugMon_Handler)
    i.Delay_LCD                              0x0800133a   Section        0  lcd.o(i.Delay_LCD)
    i.Error_Handler                          0x08001356   Section        0  main.o(i.Error_Handler)
    i.HAL_DMA_Abort                          0x0800135a   Section        0  stm32g4xx_hal_dma.o(i.HAL_DMA_Abort)
    i.HAL_DMA_Abort_IT                       0x080013c4   Section        0  stm32g4xx_hal_dma.o(i.HAL_DMA_Abort_IT)
    i.HAL_Delay                              0x0800143c   Section        0  stm32g4xx_hal.o(i.HAL_Delay)
    i.HAL_GPIO_Init                          0x08001460   Section        0  stm32g4xx_hal_gpio.o(i.HAL_GPIO_Init)
    i.HAL_GPIO_ReadPin                       0x080016a8   Section        0  stm32g4xx_hal_gpio.o(i.HAL_GPIO_ReadPin)
    i.HAL_GPIO_WritePin                      0x080016b2   Section        0  stm32g4xx_hal_gpio.o(i.HAL_GPIO_WritePin)
    i.HAL_GetTick                            0x080016bc   Section        0  stm32g4xx_hal.o(i.HAL_GetTick)
    i.HAL_IncTick                            0x080016c8   Section        0  stm32g4xx_hal.o(i.HAL_IncTick)
    i.HAL_Init                               0x080016d8   Section        0  stm32g4xx_hal.o(i.HAL_Init)
    i.HAL_InitTick                           0x080016f8   Section        0  stm32g4xx_hal.o(i.HAL_InitTick)
    i.HAL_MspInit                            0x0800173c   Section        0  stm32g4xx_hal_msp.o(i.HAL_MspInit)
    i.HAL_NVIC_EnableIRQ                     0x0800176c   Section        0  stm32g4xx_hal_cortex.o(i.HAL_NVIC_EnableIRQ)
    i.HAL_NVIC_SetPriority                   0x08001788   Section        0  stm32g4xx_hal_cortex.o(i.HAL_NVIC_SetPriority)
    i.HAL_NVIC_SetPriorityGrouping           0x080017c8   Section        0  stm32g4xx_hal_cortex.o(i.HAL_NVIC_SetPriorityGrouping)
    i.HAL_PWREx_ControlVoltageScaling        0x080017ec   Section        0  stm32g4xx_hal_pwr_ex.o(i.HAL_PWREx_ControlVoltageScaling)
    i.HAL_PWREx_DisableUCPDDeadBattery       0x080018a8   Section        0  stm32g4xx_hal_pwr_ex.o(i.HAL_PWREx_DisableUCPDDeadBattery)
    i.HAL_RCCEx_PeriphCLKConfig              0x080018b8   Section        0  stm32g4xx_hal_rcc_ex.o(i.HAL_RCCEx_PeriphCLKConfig)
    i.HAL_RCC_ClockConfig                    0x08001b40   Section        0  stm32g4xx_hal_rcc.o(i.HAL_RCC_ClockConfig)
    i.HAL_RCC_GetPCLK1Freq                   0x08001d1c   Section        0  stm32g4xx_hal_rcc.o(i.HAL_RCC_GetPCLK1Freq)
    i.HAL_RCC_GetPCLK2Freq                   0x08001d40   Section        0  stm32g4xx_hal_rcc.o(i.HAL_RCC_GetPCLK2Freq)
    i.HAL_RCC_GetSysClockFreq                0x08001d64   Section        0  stm32g4xx_hal_rcc.o(i.HAL_RCC_GetSysClockFreq)
    i.HAL_RCC_OscConfig                      0x08001dd4   Section        0  stm32g4xx_hal_rcc.o(i.HAL_RCC_OscConfig)
    i.HAL_SYSTICK_Config                     0x080021d8   Section        0  stm32g4xx_hal_cortex.o(i.HAL_SYSTICK_Config)
    i.HAL_TIMEx_Break2Callback               0x08002200   Section        0  stm32g4xx_hal_tim_ex.o(i.HAL_TIMEx_Break2Callback)
    i.HAL_TIMEx_BreakCallback                0x08002202   Section        0  stm32g4xx_hal_tim_ex.o(i.HAL_TIMEx_BreakCallback)
    i.HAL_TIMEx_CommutCallback               0x08002204   Section        0  stm32g4xx_hal_tim_ex.o(i.HAL_TIMEx_CommutCallback)
    i.HAL_TIMEx_DirectionChangeCallback      0x08002206   Section        0  stm32g4xx_hal_tim_ex.o(i.HAL_TIMEx_DirectionChangeCallback)
    i.HAL_TIMEx_EncoderIndexCallback         0x08002208   Section        0  stm32g4xx_hal_tim_ex.o(i.HAL_TIMEx_EncoderIndexCallback)
    i.HAL_TIMEx_IndexErrorCallback           0x0800220a   Section        0  stm32g4xx_hal_tim_ex.o(i.HAL_TIMEx_IndexErrorCallback)
    i.HAL_TIMEx_MasterConfigSynchronization  0x0800220c   Section        0  stm32g4xx_hal_tim_ex.o(i.HAL_TIMEx_MasterConfigSynchronization)
    i.HAL_TIMEx_TransitionErrorCallback      0x080022a8   Section        0  stm32g4xx_hal_tim_ex.o(i.HAL_TIMEx_TransitionErrorCallback)
    i.HAL_TIM_Base_Init                      0x080022aa   Section        0  stm32g4xx_hal_tim.o(i.HAL_TIM_Base_Init)
    i.HAL_TIM_Base_MspInit                   0x0800230c   Section        0  tim.o(i.HAL_TIM_Base_MspInit)
    i.HAL_TIM_Base_Start_IT                  0x08002348   Section        0  stm32g4xx_hal_tim.o(i.HAL_TIM_Base_Start_IT)
    i.HAL_TIM_IC_CaptureCallback             0x080023c0   Section        0  stm32g4xx_hal_tim.o(i.HAL_TIM_IC_CaptureCallback)
    i.HAL_TIM_IRQHandler                     0x080023c2   Section        0  stm32g4xx_hal_tim.o(i.HAL_TIM_IRQHandler)
    i.HAL_TIM_MspPostInit                    0x08002564   Section        0  tim.o(i.HAL_TIM_MspPostInit)
    i.HAL_TIM_OC_DelayElapsedCallback        0x080025b4   Section        0  stm32g4xx_hal_tim.o(i.HAL_TIM_OC_DelayElapsedCallback)
    i.HAL_TIM_PWM_ConfigChannel              0x080025b6   Section        0  stm32g4xx_hal_tim.o(i.HAL_TIM_PWM_ConfigChannel)
    i.HAL_TIM_PWM_Init                       0x080026da   Section        0  stm32g4xx_hal_tim.o(i.HAL_TIM_PWM_Init)
    i.HAL_TIM_PWM_MspInit                    0x0800273c   Section        0  tim.o(i.HAL_TIM_PWM_MspInit)
    i.HAL_TIM_PWM_PulseFinishedCallback      0x08002764   Section        0  stm32g4xx_hal_tim.o(i.HAL_TIM_PWM_PulseFinishedCallback)
    i.HAL_TIM_PWM_Start                      0x08002768   Section        0  stm32g4xx_hal_tim.o(i.HAL_TIM_PWM_Start)
    i.HAL_TIM_PeriodElapsedCallback          0x08002864   Section        0  interrupt.o(i.HAL_TIM_PeriodElapsedCallback)
    i.HAL_TIM_TriggerCallback                0x080028c8   Section        0  stm32g4xx_hal_tim.o(i.HAL_TIM_TriggerCallback)
    i.HAL_UARTEx_DisableFifoMode             0x080028ca   Section        0  stm32g4xx_hal_uart_ex.o(i.HAL_UARTEx_DisableFifoMode)
    i.HAL_UARTEx_RxEventCallback             0x08002908   Section        0  stm32g4xx_hal_uart.o(i.HAL_UARTEx_RxEventCallback)
    i.HAL_UARTEx_RxFifoFullCallback          0x0800290a   Section        0  stm32g4xx_hal_uart_ex.o(i.HAL_UARTEx_RxFifoFullCallback)
    i.HAL_UARTEx_SetRxFifoThreshold          0x0800290c   Section        0  stm32g4xx_hal_uart_ex.o(i.HAL_UARTEx_SetRxFifoThreshold)
    i.HAL_UARTEx_SetTxFifoThreshold          0x08002958   Section        0  stm32g4xx_hal_uart_ex.o(i.HAL_UARTEx_SetTxFifoThreshold)
    i.HAL_UARTEx_TxFifoEmptyCallback         0x080029a4   Section        0  stm32g4xx_hal_uart_ex.o(i.HAL_UARTEx_TxFifoEmptyCallback)
    i.HAL_UARTEx_WakeupCallback              0x080029a6   Section        0  stm32g4xx_hal_uart_ex.o(i.HAL_UARTEx_WakeupCallback)
    i.HAL_UART_ErrorCallback                 0x080029a8   Section        0  stm32g4xx_hal_uart.o(i.HAL_UART_ErrorCallback)
    i.HAL_UART_IRQHandler                    0x080029ac   Section        0  stm32g4xx_hal_uart.o(i.HAL_UART_IRQHandler)
    i.HAL_UART_Init                          0x08002cb8   Section        0  stm32g4xx_hal_uart.o(i.HAL_UART_Init)
    i.HAL_UART_MspInit                       0x08002d24   Section        0  usart.o(i.HAL_UART_MspInit)
    i.HAL_UART_Receive_IT                    0x08002db0   Section        0  stm32g4xx_hal_uart.o(i.HAL_UART_Receive_IT)
    i.HAL_UART_RxCpltCallback                0x08002df8   Section        0  interrupt.o(i.HAL_UART_RxCpltCallback)
    i.HAL_UART_Transmit                      0x08002e30   Section        0  stm32g4xx_hal_uart.o(i.HAL_UART_Transmit)
    i.HAL_UART_TxCpltCallback                0x08002ede   Section        0  stm32g4xx_hal_uart.o(i.HAL_UART_TxCpltCallback)
    i.HardFault_Handler                      0x08002ee0   Section        0  stm32g4xx_it.o(i.HardFault_Handler)
    i.Key_Proc                               0x08002ee4   Section        0  task.o(i.Key_Proc)
    i.Key_Read                               0x08002fa0   Section        0  key.o(i.Key_Read)
    i.LCD_BusIn                              0x08002fe0   Section        0  lcd.o(i.LCD_BusIn)
    i.LCD_BusOut                             0x0800300c   Section        0  lcd.o(i.LCD_BusOut)
    i.LCD_Clear                              0x0800303c   Section        0  lcd.o(i.LCD_Clear)
    i.LCD_CtrlLinesConfig                    0x08003060   Section        0  lcd.o(i.LCD_CtrlLinesConfig)
    i.LCD_DisplayChar                        0x080030f0   Section        0  lcd.o(i.LCD_DisplayChar)
    i.LCD_DisplayStringLine                  0x08003108   Section        0  lcd.o(i.LCD_DisplayStringLine)
    i.LCD_DrawChar                           0x08003134   Section        0  lcd.o(i.LCD_DrawChar)
    i.LCD_Init                               0x0800318c   Section        0  lcd.o(i.LCD_Init)
    i.LCD_Proc                               0x080031c0   Section        0  task.o(i.LCD_Proc)
    i.LCD_ReadReg                            0x08003318   Section        0  lcd.o(i.LCD_ReadReg)
    i.LCD_SetBackColor                       0x08003398   Section        0  lcd.o(i.LCD_SetBackColor)
    i.LCD_SetCursor                          0x080033a8   Section        0  lcd.o(i.LCD_SetCursor)
    i.LCD_SetTextColor                       0x080033c0   Section        0  lcd.o(i.LCD_SetTextColor)
    i.LCD_WriteRAM                           0x080033d0   Section        0  lcd.o(i.LCD_WriteRAM)
    i.LCD_WriteRAM_Prepare                   0x08003430   Section        0  lcd.o(i.LCD_WriteRAM_Prepare)
    i.LCD_WriteReg                           0x08003490   Section        0  lcd.o(i.LCD_WriteReg)
    i.LED_DisPlay                            0x08003500   Section        0  led.o(i.LED_DisPlay)
    i.LED_Proc                               0x08003560   Section        0  task.o(i.LED_Proc)
    i.MX_GPIO_Init                           0x0800358c   Section        0  gpio.o(i.MX_GPIO_Init)
    i.MX_TIM3_Init                           0x080036ac   Section        0  tim.o(i.MX_TIM3_Init)
    i.MX_TIM6_Init                           0x08003720   Section        0  tim.o(i.MX_TIM6_Init)
    i.MX_USART1_UART_Init                    0x08003768   Section        0  usart.o(i.MX_USART1_UART_Init)
    i.MemManage_Handler                      0x080037d0   Section        0  stm32g4xx_it.o(i.MemManage_Handler)
    i.NMI_Handler                            0x080037d2   Section        0  stm32g4xx_it.o(i.NMI_Handler)
    i.PendSV_Handler                         0x080037d4   Section        0  stm32g4xx_it.o(i.PendSV_Handler)
    i.REG_8230_Init                          0x080037d6   Section        0  lcd.o(i.REG_8230_Init)
    i.REG_932X_Init                          0x080038e8   Section        0  lcd.o(i.REG_932X_Init)
    i.Read_Proc                              0x08003aea   Section        0  task.o(i.Read_Proc)
    i.SVC_Handler                            0x08003aec   Section        0  stm32g4xx_it.o(i.SVC_Handler)
    i.Serial_Proc                            0x08003af0   Section        0  task.o(i.Serial_Proc)
    i.SysTick_Handler                        0x08003b68   Section        0  stm32g4xx_it.o(i.SysTick_Handler)
    i.SystemClock_Config                     0x08003b6c   Section        0  main.o(i.SystemClock_Config)
    i.SystemInit                             0x08003bd8   Section        0  system_stm32g4xx.o(i.SystemInit)
    i.TIM6_DAC_IRQHandler                    0x08003be8   Section        0  stm32g4xx_it.o(i.TIM6_DAC_IRQHandler)
    i.TIM_Base_SetConfig                     0x08003bf4   Section        0  stm32g4xx_hal_tim.o(i.TIM_Base_SetConfig)
    i.TIM_CCxChannelCmd                      0x08003cb0   Section        0  stm32g4xx_hal_tim.o(i.TIM_CCxChannelCmd)
    i.TIM_OC1_SetConfig                      0x08003ccc   Section        0  stm32g4xx_hal_tim.o(i.TIM_OC1_SetConfig)
    TIM_OC1_SetConfig                        0x08003ccd   Thumb Code   132  stm32g4xx_hal_tim.o(i.TIM_OC1_SetConfig)
    i.TIM_OC2_SetConfig                      0x08003d68   Section        0  stm32g4xx_hal_tim.o(i.TIM_OC2_SetConfig)
    i.TIM_OC3_SetConfig                      0x08003df8   Section        0  stm32g4xx_hal_tim.o(i.TIM_OC3_SetConfig)
    TIM_OC3_SetConfig                        0x08003df9   Thumb Code   118  stm32g4xx_hal_tim.o(i.TIM_OC3_SetConfig)
    i.TIM_OC4_SetConfig                      0x08003e88   Section        0  stm32g4xx_hal_tim.o(i.TIM_OC4_SetConfig)
    TIM_OC4_SetConfig                        0x08003e89   Thumb Code   120  stm32g4xx_hal_tim.o(i.TIM_OC4_SetConfig)
    i.TIM_OC5_SetConfig                      0x08003f18   Section        0  stm32g4xx_hal_tim.o(i.TIM_OC5_SetConfig)
    TIM_OC5_SetConfig                        0x08003f19   Thumb Code    86  stm32g4xx_hal_tim.o(i.TIM_OC5_SetConfig)
    i.TIM_OC6_SetConfig                      0x08003f88   Section        0  stm32g4xx_hal_tim.o(i.TIM_OC6_SetConfig)
    TIM_OC6_SetConfig                        0x08003f89   Thumb Code    88  stm32g4xx_hal_tim.o(i.TIM_OC6_SetConfig)
    i.Time_LeapYear_Handle                   0x08003ff8   Section        0  task.o(i.Time_LeapYear_Handle)
    i.UARTEx_SetNbDataToProcess              0x08004024   Section        0  stm32g4xx_hal_uart_ex.o(i.UARTEx_SetNbDataToProcess)
    UARTEx_SetNbDataToProcess                0x08004025   Thumb Code    62  stm32g4xx_hal_uart_ex.o(i.UARTEx_SetNbDataToProcess)
    i.UART_AdvFeatureConfig                  0x08004068   Section        0  stm32g4xx_hal_uart.o(i.UART_AdvFeatureConfig)
    i.UART_CheckIdleState                    0x08004130   Section        0  stm32g4xx_hal_uart.o(i.UART_CheckIdleState)
    i.UART_DMAAbortOnError                   0x080041dc   Section        0  stm32g4xx_hal_uart.o(i.UART_DMAAbortOnError)
    UART_DMAAbortOnError                     0x080041dd   Thumb Code    20  stm32g4xx_hal_uart.o(i.UART_DMAAbortOnError)
    i.UART_EndRxTransfer                     0x080041f0   Section        0  stm32g4xx_hal_uart.o(i.UART_EndRxTransfer)
    UART_EndRxTransfer                       0x080041f1   Thumb Code    78  stm32g4xx_hal_uart.o(i.UART_EndRxTransfer)
    i.UART_RxISR_16BIT                       0x08004244   Section        0  stm32g4xx_hal_uart.o(i.UART_RxISR_16BIT)
    UART_RxISR_16BIT                         0x08004245   Thumb Code   196  stm32g4xx_hal_uart.o(i.UART_RxISR_16BIT)
    i.UART_RxISR_16BIT_FIFOEN                0x0800430c   Section        0  stm32g4xx_hal_uart.o(i.UART_RxISR_16BIT_FIFOEN)
    UART_RxISR_16BIT_FIFOEN                  0x0800430d   Thumb Code   404  stm32g4xx_hal_uart.o(i.UART_RxISR_16BIT_FIFOEN)
    i.UART_RxISR_8BIT                        0x080044ac   Section        0  stm32g4xx_hal_uart.o(i.UART_RxISR_8BIT)
    UART_RxISR_8BIT                          0x080044ad   Thumb Code   196  stm32g4xx_hal_uart.o(i.UART_RxISR_8BIT)
    i.UART_RxISR_8BIT_FIFOEN                 0x08004574   Section        0  stm32g4xx_hal_uart.o(i.UART_RxISR_8BIT_FIFOEN)
    UART_RxISR_8BIT_FIFOEN                   0x08004575   Thumb Code   404  stm32g4xx_hal_uart.o(i.UART_RxISR_8BIT_FIFOEN)
    i.UART_SetConfig                         0x08004714   Section        0  stm32g4xx_hal_uart.o(i.UART_SetConfig)
    i.UART_Start_Receive_IT                  0x08004988   Section        0  stm32g4xx_hal_uart.o(i.UART_Start_Receive_IT)
    i.UART_WaitOnFlagUntilTimeout            0x08004a98   Section        0  stm32g4xx_hal_uart.o(i.UART_WaitOnFlagUntilTimeout)
    i.USART1_IRQHandler                      0x08004b2c   Section        0  stm32g4xx_it.o(i.USART1_IRQHandler)
    i.UsageFault_Handler                     0x08004b38   Section        0  stm32g4xx_it.o(i.UsageFault_Handler)
    i.__0printf                              0x08004b3c   Section        0  printfa.o(i.__0printf)
    i.__0sprintf                             0x08004b5c   Section        0  printfa.o(i.__0sprintf)
    i.__NVIC_SetPriority                     0x08004b84   Section        0  stm32g4xx_hal_cortex.o(i.__NVIC_SetPriority)
    __NVIC_SetPriority                       0x08004b85   Thumb Code    32  stm32g4xx_hal_cortex.o(i.__NVIC_SetPriority)
    i.__scatterload_copy                     0x08004ba4   Section       14  handlers.o(i.__scatterload_copy)
    i.__scatterload_null                     0x08004bb2   Section        2  handlers.o(i.__scatterload_null)
    i.__scatterload_zeroinit                 0x08004bb4   Section       14  handlers.o(i.__scatterload_zeroinit)
    i._fp_digits                             0x08004bc4   Section        0  printfa.o(i._fp_digits)
    _fp_digits                               0x08004bc5   Thumb Code   366  printfa.o(i._fp_digits)
    i._printf_core                           0x08004d48   Section        0  printfa.o(i._printf_core)
    _printf_core                             0x08004d49   Thumb Code  1704  printfa.o(i._printf_core)
    i._printf_post_padding                   0x080053fc   Section        0  printfa.o(i._printf_post_padding)
    _printf_post_padding                     0x080053fd   Thumb Code    36  printfa.o(i._printf_post_padding)
    i._printf_pre_padding                    0x08005420   Section        0  printfa.o(i._printf_pre_padding)
    _printf_pre_padding                      0x08005421   Thumb Code    46  printfa.o(i._printf_pre_padding)
    i._sputc                                 0x0800544e   Section        0  printfa.o(i._sputc)
    _sputc                                   0x0800544f   Thumb Code    10  printfa.o(i._sputc)
    i.fputc                                  0x08005458   Section        0  interrupt.o(i.fputc)
    i.main                                   0x08005470   Section        0  main.o(i.main)
    .constdata                               0x080054e8   Section     4560  lcd.o(.constdata)
    .constdata                               0x080066b8   Section       24  stm32g4xx_hal_uart.o(.constdata)
    .constdata                               0x080066d0   Section       16  stm32g4xx_hal_uart_ex.o(.constdata)
    numerator                                0x080066d0   Data           8  stm32g4xx_hal_uart_ex.o(.constdata)
    denominator                              0x080066d8   Data           8  stm32g4xx_hal_uart_ex.o(.constdata)
    .constdata                               0x080066e0   Section       16  system_stm32g4xx.o(.constdata)
    .constdata                               0x080066f0   Section        8  system_stm32g4xx.o(.constdata)
    .constdata                               0x080066f8   Section       64  ctype_c.o(.constdata)
    .data                                    0x20000000   Section       20  interrupt.o(.data)
    Tim_Total_Pos                            0x20000004   Data           2  interrupt.o(.data)
    .data                                    0x20000018   Section       32  task.o(.data)
    .data                                    0x20000038   Section        2  led.o(.data)
    Temp                                     0x20000038   Data           1  led.o(.data)
    Temp_Old                                 0x20000039   Data           1  led.o(.data)
    .data                                    0x2000003a   Section        6  lcd.o(.data)
    TextColor                                0x2000003a   Data           2  lcd.o(.data)
    BackColor                                0x2000003c   Data           2  lcd.o(.data)
    .data                                    0x20000040   Section       12  stm32g4xx_hal.o(.data)
    .data                                    0x2000004c   Section        4  system_stm32g4xx.o(.data)
    .data                                    0x20000050   Section        4  stdout.o(.data)
    .bss                                     0x20000054   Section      152  tim.o(.bss)
    .bss                                     0x200000ec   Section      148  usart.o(.bss)
    .bss                                     0x20000180   Section       30  interrupt.o(.bss)
    .bss                                     0x2000019e   Section      192  task.o(.bss)
    STACK                                    0x20000260   Section     1024  startup_stm32g431xx.o(STACK)

    Global Symbols

    Symbol Name                              Value     Ov Type        Size  Object(Section)

    BuildAttributes$$THM_ISAv4$E$P$D$K$B$S$7EM$VFPi3$EXTD16$VFPS$VFMA$PE$A:L22UL41UL21$X:L11$S22US41US21$IEEE1$IW$USESV6$~STKCKD$USESV7$~SHL$OSPACE$ROPI$EBA8$MICROLIB$REQ8$PRES8$EABIv2 0x00000000   Number         0  anon$$obj.o ABSOLUTE
    __ARM_use_no_argv                        0x00000000   Number         0  main.o ABSOLUTE
    _printf_a                                0x00000000   Number         0  stubs.o ABSOLUTE
    _printf_c                                0x00000000   Number         0  stubs.o ABSOLUTE
    _printf_charcount                        0x00000000   Number         0  stubs.o ABSOLUTE
    _printf_d                                0x00000000   Number         0  stubs.o ABSOLUTE
    _printf_e                                0x00000000   Number         0  stubs.o ABSOLUTE
    _printf_f                                0x00000000   Number         0  stubs.o ABSOLUTE
    _printf_flags                            0x00000000   Number         0  stubs.o ABSOLUTE
    _printf_fp_dec                           0x00000000   Number         0  stubs.o ABSOLUTE
    _printf_fp_hex                           0x00000000   Number         0  stubs.o ABSOLUTE
    _printf_g                                0x00000000   Number         0  stubs.o ABSOLUTE
    _printf_i                                0x00000000   Number         0  stubs.o ABSOLUTE
    _printf_int_dec                          0x00000000   Number         0  stubs.o ABSOLUTE
    _printf_l                                0x00000000   Number         0  stubs.o ABSOLUTE
    _printf_lc                               0x00000000   Number         0  stubs.o ABSOLUTE
    _printf_ll                               0x00000000   Number         0  stubs.o ABSOLUTE
    _printf_lld                              0x00000000   Number         0  stubs.o ABSOLUTE
    _printf_lli                              0x00000000   Number         0  stubs.o ABSOLUTE
    _printf_llo                              0x00000000   Number         0  stubs.o ABSOLUTE
    _printf_llu                              0x00000000   Number         0  stubs.o ABSOLUTE
    _printf_llx                              0x00000000   Number         0  stubs.o ABSOLUTE
    _printf_longlong_dec                     0x00000000   Number         0  stubs.o ABSOLUTE
    _printf_longlong_hex                     0x00000000   Number         0  stubs.o ABSOLUTE
    _printf_longlong_oct                     0x00000000   Number         0  stubs.o ABSOLUTE
    _printf_ls                               0x00000000   Number         0  stubs.o ABSOLUTE
    _printf_mbtowc                           0x00000000   Number         0  stubs.o ABSOLUTE
    _printf_n                                0x00000000   Number         0  stubs.o ABSOLUTE
    _printf_o                                0x00000000   Number         0  stubs.o ABSOLUTE
    _printf_p                                0x00000000   Number         0  stubs.o ABSOLUTE
    _printf_percent                          0x00000000   Number         0  stubs.o ABSOLUTE
    _printf_pre_padding                      0x00000000   Number         0  stubs.o ABSOLUTE
    _printf_return_value                     0x00000000   Number         0  stubs.o ABSOLUTE
    _printf_s                                0x00000000   Number         0  stubs.o ABSOLUTE
    _printf_sizespec                         0x00000000   Number         0  stubs.o ABSOLUTE
    _printf_str                              0x00000000   Number         0  stubs.o ABSOLUTE
    _printf_truncate_signed                  0x00000000   Number         0  stubs.o ABSOLUTE
    _printf_truncate_unsigned                0x00000000   Number         0  stubs.o ABSOLUTE
    _printf_u                                0x00000000   Number         0  stubs.o ABSOLUTE
    _printf_wc                               0x00000000   Number         0  stubs.o ABSOLUTE
    _printf_wctomb                           0x00000000   Number         0  stubs.o ABSOLUTE
    _printf_widthprec                        0x00000000   Number         0  stubs.o ABSOLUTE
    _printf_x                                0x00000000   Number         0  stubs.o ABSOLUTE
    __arm_fini_                               - Undefined Weak Reference
    __cpp_initialize__aeabi_                  - Undefined Weak Reference
    __cxa_finalize                            - Undefined Weak Reference
    __decompress                              - Undefined Weak Reference
    _clock_init                               - Undefined Weak Reference
    _microlib_exit                            - Undefined Weak Reference
    _scanf_longlong                           - Undefined Weak Reference
    _scanf_real                               - Undefined Weak Reference
    __Vectors_Size                           0x000001d8   Number         0  startup_stm32g431xx.o ABSOLUTE
    __Vectors                                0x08000000   Data           4  startup_stm32g431xx.o(RESET)
    __Vectors_End                            0x080001d8   Data           0  startup_stm32g431xx.o(RESET)
    __main                                   0x080001d9   Thumb Code     0  entry.o(.ARM.Collect$$$$00000000)
    _main_stk                                0x080001d9   Thumb Code     0  entry2.o(.ARM.Collect$$$$00000001)
    _main_scatterload                        0x080001dd   Thumb Code     0  entry5.o(.ARM.Collect$$$$00000004)
    __main_after_scatterload                 0x080001e1   Thumb Code     0  entry5.o(.ARM.Collect$$$$00000004)
    _main_clock                              0x080001e1   Thumb Code     0  entry7b.o(.ARM.Collect$$$$00000008)
    _main_cpp_init                           0x080001e1   Thumb Code     0  entry8b.o(.ARM.Collect$$$$0000000A)
    _main_init                               0x080001e1   Thumb Code     0  entry9a.o(.ARM.Collect$$$$0000000B)
    __rt_lib_shutdown_fini                   0x080001e9   Thumb Code     0  entry12b.o(.ARM.Collect$$$$0000000E)
    __rt_final_cpp                           0x080001ed   Thumb Code     0  entry10a.o(.ARM.Collect$$$$0000000F)
    __rt_final_exit                          0x080001ed   Thumb Code     0  entry11a.o(.ARM.Collect$$$$00000011)
    Reset_Handler                            0x080001f1   Thumb Code     8  startup_stm32g431xx.o(.text)
    ADC1_2_IRQHandler                        0x0800020b   Thumb Code     0  startup_stm32g431xx.o(.text)
    COMP1_2_3_IRQHandler                     0x0800020b   Thumb Code     0  startup_stm32g431xx.o(.text)
    COMP4_IRQHandler                         0x0800020b   Thumb Code     0  startup_stm32g431xx.o(.text)
    CORDIC_IRQHandler                        0x0800020b   Thumb Code     0  startup_stm32g431xx.o(.text)
    CRS_IRQHandler                           0x0800020b   Thumb Code     0  startup_stm32g431xx.o(.text)
    DMA1_Channel1_IRQHandler                 0x0800020b   Thumb Code     0  startup_stm32g431xx.o(.text)
    DMA1_Channel2_IRQHandler                 0x0800020b   Thumb Code     0  startup_stm32g431xx.o(.text)
    DMA1_Channel3_IRQHandler                 0x0800020b   Thumb Code     0  startup_stm32g431xx.o(.text)
    DMA1_Channel4_IRQHandler                 0x0800020b   Thumb Code     0  startup_stm32g431xx.o(.text)
    DMA1_Channel5_IRQHandler                 0x0800020b   Thumb Code     0  startup_stm32g431xx.o(.text)
    DMA1_Channel6_IRQHandler                 0x0800020b   Thumb Code     0  startup_stm32g431xx.o(.text)
    DMA2_Channel1_IRQHandler                 0x0800020b   Thumb Code     0  startup_stm32g431xx.o(.text)
    DMA2_Channel2_IRQHandler                 0x0800020b   Thumb Code     0  startup_stm32g431xx.o(.text)
    DMA2_Channel3_IRQHandler                 0x0800020b   Thumb Code     0  startup_stm32g431xx.o(.text)
    DMA2_Channel4_IRQHandler                 0x0800020b   Thumb Code     0  startup_stm32g431xx.o(.text)
    DMA2_Channel5_IRQHandler                 0x0800020b   Thumb Code     0  startup_stm32g431xx.o(.text)
    DMA2_Channel6_IRQHandler                 0x0800020b   Thumb Code     0  startup_stm32g431xx.o(.text)
    DMAMUX_OVR_IRQHandler                    0x0800020b   Thumb Code     0  startup_stm32g431xx.o(.text)
    EXTI0_IRQHandler                         0x0800020b   Thumb Code     0  startup_stm32g431xx.o(.text)
    EXTI15_10_IRQHandler                     0x0800020b   Thumb Code     0  startup_stm32g431xx.o(.text)
    EXTI1_IRQHandler                         0x0800020b   Thumb Code     0  startup_stm32g431xx.o(.text)
    EXTI2_IRQHandler                         0x0800020b   Thumb Code     0  startup_stm32g431xx.o(.text)
    EXTI3_IRQHandler                         0x0800020b   Thumb Code     0  startup_stm32g431xx.o(.text)
    EXTI4_IRQHandler                         0x0800020b   Thumb Code     0  startup_stm32g431xx.o(.text)
    EXTI9_5_IRQHandler                       0x0800020b   Thumb Code     0  startup_stm32g431xx.o(.text)
    FDCAN1_IT0_IRQHandler                    0x0800020b   Thumb Code     0  startup_stm32g431xx.o(.text)
    FDCAN1_IT1_IRQHandler                    0x0800020b   Thumb Code     0  startup_stm32g431xx.o(.text)
    FLASH_IRQHandler                         0x0800020b   Thumb Code     0  startup_stm32g431xx.o(.text)
    FMAC_IRQHandler                          0x0800020b   Thumb Code     0  startup_stm32g431xx.o(.text)
    FPU_IRQHandler                           0x0800020b   Thumb Code     0  startup_stm32g431xx.o(.text)
    I2C1_ER_IRQHandler                       0x0800020b   Thumb Code     0  startup_stm32g431xx.o(.text)
    I2C1_EV_IRQHandler                       0x0800020b   Thumb Code     0  startup_stm32g431xx.o(.text)
    I2C2_ER_IRQHandler                       0x0800020b   Thumb Code     0  startup_stm32g431xx.o(.text)
    I2C2_EV_IRQHandler                       0x0800020b   Thumb Code     0  startup_stm32g431xx.o(.text)
    I2C3_ER_IRQHandler                       0x0800020b   Thumb Code     0  startup_stm32g431xx.o(.text)
    I2C3_EV_IRQHandler                       0x0800020b   Thumb Code     0  startup_stm32g431xx.o(.text)
    LPTIM1_IRQHandler                        0x0800020b   Thumb Code     0  startup_stm32g431xx.o(.text)
    LPUART1_IRQHandler                       0x0800020b   Thumb Code     0  startup_stm32g431xx.o(.text)
    PVD_PVM_IRQHandler                       0x0800020b   Thumb Code     0  startup_stm32g431xx.o(.text)
    RCC_IRQHandler                           0x0800020b   Thumb Code     0  startup_stm32g431xx.o(.text)
    RNG_IRQHandler                           0x0800020b   Thumb Code     0  startup_stm32g431xx.o(.text)
    RTC_Alarm_IRQHandler                     0x0800020b   Thumb Code     0  startup_stm32g431xx.o(.text)
    RTC_TAMP_LSECSS_IRQHandler               0x0800020b   Thumb Code     0  startup_stm32g431xx.o(.text)
    RTC_WKUP_IRQHandler                      0x0800020b   Thumb Code     0  startup_stm32g431xx.o(.text)
    SAI1_IRQHandler                          0x0800020b   Thumb Code     0  startup_stm32g431xx.o(.text)
    SPI1_IRQHandler                          0x0800020b   Thumb Code     0  startup_stm32g431xx.o(.text)
    SPI2_IRQHandler                          0x0800020b   Thumb Code     0  startup_stm32g431xx.o(.text)
    SPI3_IRQHandler                          0x0800020b   Thumb Code     0  startup_stm32g431xx.o(.text)
    TIM1_BRK_TIM15_IRQHandler                0x0800020b   Thumb Code     0  startup_stm32g431xx.o(.text)
    TIM1_CC_IRQHandler                       0x0800020b   Thumb Code     0  startup_stm32g431xx.o(.text)
    TIM1_TRG_COM_TIM17_IRQHandler            0x0800020b   Thumb Code     0  startup_stm32g431xx.o(.text)
    TIM1_UP_TIM16_IRQHandler                 0x0800020b   Thumb Code     0  startup_stm32g431xx.o(.text)
    TIM2_IRQHandler                          0x0800020b   Thumb Code     0  startup_stm32g431xx.o(.text)
    TIM3_IRQHandler                          0x0800020b   Thumb Code     0  startup_stm32g431xx.o(.text)
    TIM4_IRQHandler                          0x0800020b   Thumb Code     0  startup_stm32g431xx.o(.text)
    TIM7_IRQHandler                          0x0800020b   Thumb Code     0  startup_stm32g431xx.o(.text)
    TIM8_BRK_IRQHandler                      0x0800020b   Thumb Code     0  startup_stm32g431xx.o(.text)
    TIM8_CC_IRQHandler                       0x0800020b   Thumb Code     0  startup_stm32g431xx.o(.text)
    TIM8_TRG_COM_IRQHandler                  0x0800020b   Thumb Code     0  startup_stm32g431xx.o(.text)
    TIM8_UP_IRQHandler                       0x0800020b   Thumb Code     0  startup_stm32g431xx.o(.text)
    UART4_IRQHandler                         0x0800020b   Thumb Code     0  startup_stm32g431xx.o(.text)
    UCPD1_IRQHandler                         0x0800020b   Thumb Code     0  startup_stm32g431xx.o(.text)
    USART2_IRQHandler                        0x0800020b   Thumb Code     0  startup_stm32g431xx.o(.text)
    USART3_IRQHandler                        0x0800020b   Thumb Code     0  startup_stm32g431xx.o(.text)
    USBWakeUp_IRQHandler                     0x0800020b   Thumb Code     0  startup_stm32g431xx.o(.text)
    USB_HP_IRQHandler                        0x0800020b   Thumb Code     0  startup_stm32g431xx.o(.text)
    USB_LP_IRQHandler                        0x0800020b   Thumb Code     0  startup_stm32g431xx.o(.text)
    WWDG_IRQHandler                          0x0800020b   Thumb Code     0  startup_stm32g431xx.o(.text)
    __aeabi_uldivmod                         0x08000215   Thumb Code    98  uldiv.o(.text)
    __aeabi_memcpy                           0x08000277   Thumb Code    36  memcpya.o(.text)
    __aeabi_memcpy4                          0x08000277   Thumb Code     0  memcpya.o(.text)
    __aeabi_memcpy8                          0x08000277   Thumb Code     0  memcpya.o(.text)
    __aeabi_memset                           0x0800029b   Thumb Code    14  memseta.o(.text)
    __aeabi_memset4                          0x0800029b   Thumb Code     0  memseta.o(.text)
    __aeabi_memset8                          0x0800029b   Thumb Code     0  memseta.o(.text)
    __aeabi_memclr                           0x080002a9   Thumb Code     4  memseta.o(.text)
    __aeabi_memclr4                          0x080002a9   Thumb Code     0  memseta.o(.text)
    __aeabi_memclr8                          0x080002a9   Thumb Code     0  memseta.o(.text)
    _memset$wrapper                          0x080002ad   Thumb Code    18  memseta.o(.text)
    strstr                                   0x080002bf   Thumb Code    36  strstr.o(.text)
    __0sscanf                                0x080002e5   Thumb Code    48  __0sscanf.o(.text)
    _scanf_int                               0x0800031d   Thumb Code   332  _scanf_int.o(.text)
    _scanf_string                            0x08000469   Thumb Code   224  _scanf_str.o(.text)
    __aeabi_dmul                             0x08000549   Thumb Code   228  dmul.o(.text)
    __aeabi_ddiv                             0x0800062d   Thumb Code   222  ddiv.o(.text)
    __aeabi_ui2d                             0x0800070b   Thumb Code    26  dfltui.o(.text)
    __aeabi_uidiv                            0x08000725   Thumb Code     0  uidiv.o(.text)
    __aeabi_uidivmod                         0x08000725   Thumb Code    44  uidiv.o(.text)
    __aeabi_llsl                             0x08000751   Thumb Code    30  llshl.o(.text)
    _ll_shift_l                              0x08000751   Thumb Code     0  llshl.o(.text)
    __aeabi_llsr                             0x0800076f   Thumb Code    32  llushr.o(.text)
    _ll_ushift_r                             0x0800076f   Thumb Code     0  llushr.o(.text)
    _chval                                   0x0800078f   Thumb Code    28  _chval.o(.text)
    __vfscanf_char                           0x080007b9   Thumb Code    20  scanf_char.o(.text)
    _sgetc                                   0x080007d5   Thumb Code    30  _sgetc.o(.text)
    _sbackspace                              0x080007f3   Thumb Code    34  _sgetc.o(.text)
    __I$use$fp                               0x08000815   Thumb Code     0  iusefp.o(.text)
    _double_round                            0x08000815   Thumb Code    30  depilogue.o(.text)
    _double_epilogue                         0x08000833   Thumb Code   156  depilogue.o(.text)
    __aeabi_dadd                             0x080008cf   Thumb Code   322  dadd.o(.text)
    __aeabi_dsub                             0x08000a11   Thumb Code     6  dadd.o(.text)
    __aeabi_drsub                            0x08000a17   Thumb Code     6  dadd.o(.text)
    __aeabi_d2ulz                            0x08000a1d   Thumb Code    48  dfixul.o(.text)
    __aeabi_cdrcmple                         0x08000a4d   Thumb Code    48  cdrcmple.o(.text)
    __scatterload                            0x08000a7d   Thumb Code    28  init.o(.text)
    __scatterload_rt2                        0x08000a7d   Thumb Code     0  init.o(.text)
    __aeabi_lasr                             0x08000aa1   Thumb Code    36  llsshr.o(.text)
    _ll_sshift_r                             0x08000aa1   Thumb Code     0  llsshr.o(.text)
    isspace                                  0x08000ac5   Thumb Code    10  isspace_c.o(.text)
    __vfscanf                                0x08000ad1   Thumb Code   810  _scanf.o(.text)
    __ctype_lookup                           0x08000e01   Thumb Code    34  ctype_c.o(.text)
    BusFault_Handler                         0x08000e29   Thumb Code     2  stm32g4xx_it.o(i.BusFault_Handler)
    Car_Expence_Proc                         0x08000e2d   Thumb Code   518  task.o(i.Car_Expence_Proc)
    Car_Message_Proc                         0x08001095   Thumb Code   158  task.o(i.Car_Message_Proc)
    Car_Park_Proc                            0x08001171   Thumb Code   420  task.o(i.Car_Park_Proc)
    DebugMon_Handler                         0x08001339   Thumb Code     2  stm32g4xx_it.o(i.DebugMon_Handler)
    Delay_LCD                                0x0800133b   Thumb Code    28  lcd.o(i.Delay_LCD)
    Error_Handler                            0x08001357   Thumb Code     4  main.o(i.Error_Handler)
    HAL_DMA_Abort                            0x0800135b   Thumb Code   106  stm32g4xx_hal_dma.o(i.HAL_DMA_Abort)
    HAL_DMA_Abort_IT                         0x080013c5   Thumb Code   120  stm32g4xx_hal_dma.o(i.HAL_DMA_Abort_IT)
    HAL_Delay                                0x0800143d   Thumb Code    32  stm32g4xx_hal.o(i.HAL_Delay)
    HAL_GPIO_Init                            0x08001461   Thumb Code   550  stm32g4xx_hal_gpio.o(i.HAL_GPIO_Init)
    HAL_GPIO_ReadPin                         0x080016a9   Thumb Code    10  stm32g4xx_hal_gpio.o(i.HAL_GPIO_ReadPin)
    HAL_GPIO_WritePin                        0x080016b3   Thumb Code    10  stm32g4xx_hal_gpio.o(i.HAL_GPIO_WritePin)
    HAL_GetTick                              0x080016bd   Thumb Code     6  stm32g4xx_hal.o(i.HAL_GetTick)
    HAL_IncTick                              0x080016c9   Thumb Code    12  stm32g4xx_hal.o(i.HAL_IncTick)
    HAL_Init                                 0x080016d9   Thumb Code    30  stm32g4xx_hal.o(i.HAL_Init)
    HAL_InitTick                             0x080016f9   Thumb Code    58  stm32g4xx_hal.o(i.HAL_InitTick)
    HAL_MspInit                              0x0800173d   Thumb Code    42  stm32g4xx_hal_msp.o(i.HAL_MspInit)
    HAL_NVIC_EnableIRQ                       0x0800176d   Thumb Code    26  stm32g4xx_hal_cortex.o(i.HAL_NVIC_EnableIRQ)
    HAL_NVIC_SetPriority                     0x08001789   Thumb Code    60  stm32g4xx_hal_cortex.o(i.HAL_NVIC_SetPriority)
    HAL_NVIC_SetPriorityGrouping             0x080017c9   Thumb Code    26  stm32g4xx_hal_cortex.o(i.HAL_NVIC_SetPriorityGrouping)
    HAL_PWREx_ControlVoltageScaling          0x080017ed   Thumb Code   174  stm32g4xx_hal_pwr_ex.o(i.HAL_PWREx_ControlVoltageScaling)
    HAL_PWREx_DisableUCPDDeadBattery         0x080018a9   Thumb Code    12  stm32g4xx_hal_pwr_ex.o(i.HAL_PWREx_DisableUCPDDeadBattery)
    HAL_RCCEx_PeriphCLKConfig                0x080018b9   Thumb Code   638  stm32g4xx_hal_rcc_ex.o(i.HAL_RCCEx_PeriphCLKConfig)
    HAL_RCC_ClockConfig                      0x08001b41   Thumb Code   444  stm32g4xx_hal_rcc.o(i.HAL_RCC_ClockConfig)
    HAL_RCC_GetPCLK1Freq                     0x08001d1d   Thumb Code    24  stm32g4xx_hal_rcc.o(i.HAL_RCC_GetPCLK1Freq)
    HAL_RCC_GetPCLK2Freq                     0x08001d41   Thumb Code    24  stm32g4xx_hal_rcc.o(i.HAL_RCC_GetPCLK2Freq)
    HAL_RCC_GetSysClockFreq                  0x08001d65   Thumb Code    98  stm32g4xx_hal_rcc.o(i.HAL_RCC_GetSysClockFreq)
    HAL_RCC_OscConfig                        0x08001dd5   Thumb Code  1028  stm32g4xx_hal_rcc.o(i.HAL_RCC_OscConfig)
    HAL_SYSTICK_Config                       0x080021d9   Thumb Code    40  stm32g4xx_hal_cortex.o(i.HAL_SYSTICK_Config)
    HAL_TIMEx_Break2Callback                 0x08002201   Thumb Code     2  stm32g4xx_hal_tim_ex.o(i.HAL_TIMEx_Break2Callback)
    HAL_TIMEx_BreakCallback                  0x08002203   Thumb Code     2  stm32g4xx_hal_tim_ex.o(i.HAL_TIMEx_BreakCallback)
    HAL_TIMEx_CommutCallback                 0x08002205   Thumb Code     2  stm32g4xx_hal_tim_ex.o(i.HAL_TIMEx_CommutCallback)
    HAL_TIMEx_DirectionChangeCallback        0x08002207   Thumb Code     2  stm32g4xx_hal_tim_ex.o(i.HAL_TIMEx_DirectionChangeCallback)
    HAL_TIMEx_EncoderIndexCallback           0x08002209   Thumb Code     2  stm32g4xx_hal_tim_ex.o(i.HAL_TIMEx_EncoderIndexCallback)
    HAL_TIMEx_IndexErrorCallback             0x0800220b   Thumb Code     2  stm32g4xx_hal_tim_ex.o(i.HAL_TIMEx_IndexErrorCallback)
    HAL_TIMEx_MasterConfigSynchronization    0x0800220d   Thumb Code   132  stm32g4xx_hal_tim_ex.o(i.HAL_TIMEx_MasterConfigSynchronization)
    HAL_TIMEx_TransitionErrorCallback        0x080022a9   Thumb Code     2  stm32g4xx_hal_tim_ex.o(i.HAL_TIMEx_TransitionErrorCallback)
    HAL_TIM_Base_Init                        0x080022ab   Thumb Code    98  stm32g4xx_hal_tim.o(i.HAL_TIM_Base_Init)
    HAL_TIM_Base_MspInit                     0x0800230d   Thumb Code    50  tim.o(i.HAL_TIM_Base_MspInit)
    HAL_TIM_Base_Start_IT                    0x08002349   Thumb Code    94  stm32g4xx_hal_tim.o(i.HAL_TIM_Base_Start_IT)
    HAL_TIM_IC_CaptureCallback               0x080023c1   Thumb Code     2  stm32g4xx_hal_tim.o(i.HAL_TIM_IC_CaptureCallback)
    HAL_TIM_IRQHandler                       0x080023c3   Thumb Code   418  stm32g4xx_hal_tim.o(i.HAL_TIM_IRQHandler)
    HAL_TIM_MspPostInit                      0x08002565   Thumb Code    70  tim.o(i.HAL_TIM_MspPostInit)
    HAL_TIM_OC_DelayElapsedCallback          0x080025b5   Thumb Code     2  stm32g4xx_hal_tim.o(i.HAL_TIM_OC_DelayElapsedCallback)
    HAL_TIM_PWM_ConfigChannel                0x080025b7   Thumb Code   292  stm32g4xx_hal_tim.o(i.HAL_TIM_PWM_ConfigChannel)
    HAL_TIM_PWM_Init                         0x080026db   Thumb Code    98  stm32g4xx_hal_tim.o(i.HAL_TIM_PWM_Init)
    HAL_TIM_PWM_MspInit                      0x0800273d   Thumb Code    30  tim.o(i.HAL_TIM_PWM_MspInit)
    HAL_TIM_PWM_PulseFinishedCallback        0x08002765   Thumb Code     2  stm32g4xx_hal_tim.o(i.HAL_TIM_PWM_PulseFinishedCallback)
    HAL_TIM_PWM_Start                        0x08002769   Thumb Code   218  stm32g4xx_hal_tim.o(i.HAL_TIM_PWM_Start)
    HAL_TIM_PeriodElapsedCallback            0x08002865   Thumb Code    92  interrupt.o(i.HAL_TIM_PeriodElapsedCallback)
    HAL_TIM_TriggerCallback                  0x080028c9   Thumb Code     2  stm32g4xx_hal_tim.o(i.HAL_TIM_TriggerCallback)
    HAL_UARTEx_DisableFifoMode               0x080028cb   Thumb Code    62  stm32g4xx_hal_uart_ex.o(i.HAL_UARTEx_DisableFifoMode)
    HAL_UARTEx_RxEventCallback               0x08002909   Thumb Code     2  stm32g4xx_hal_uart.o(i.HAL_UARTEx_RxEventCallback)
    HAL_UARTEx_RxFifoFullCallback            0x0800290b   Thumb Code     2  stm32g4xx_hal_uart_ex.o(i.HAL_UARTEx_RxFifoFullCallback)
    HAL_UARTEx_SetRxFifoThreshold            0x0800290d   Thumb Code    76  stm32g4xx_hal_uart_ex.o(i.HAL_UARTEx_SetRxFifoThreshold)
    HAL_UARTEx_SetTxFifoThreshold            0x08002959   Thumb Code    76  stm32g4xx_hal_uart_ex.o(i.HAL_UARTEx_SetTxFifoThreshold)
    HAL_UARTEx_TxFifoEmptyCallback           0x080029a5   Thumb Code     2  stm32g4xx_hal_uart_ex.o(i.HAL_UARTEx_TxFifoEmptyCallback)
    HAL_UARTEx_WakeupCallback                0x080029a7   Thumb Code     2  stm32g4xx_hal_uart_ex.o(i.HAL_UARTEx_WakeupCallback)
    HAL_UART_ErrorCallback                   0x080029a9   Thumb Code     2  stm32g4xx_hal_uart.o(i.HAL_UART_ErrorCallback)
    HAL_UART_IRQHandler                      0x080029ad   Thumb Code   766  stm32g4xx_hal_uart.o(i.HAL_UART_IRQHandler)
    HAL_UART_Init                            0x08002cb9   Thumb Code   106  stm32g4xx_hal_uart.o(i.HAL_UART_Init)
    HAL_UART_MspInit                         0x08002d25   Thumb Code   132  usart.o(i.HAL_UART_MspInit)
    HAL_UART_Receive_IT                      0x08002db1   Thumb Code    66  stm32g4xx_hal_uart.o(i.HAL_UART_Receive_IT)
    HAL_UART_RxCpltCallback                  0x08002df9   Thumb Code    38  interrupt.o(i.HAL_UART_RxCpltCallback)
    HAL_UART_Transmit                        0x08002e31   Thumb Code   174  stm32g4xx_hal_uart.o(i.HAL_UART_Transmit)
    HAL_UART_TxCpltCallback                  0x08002edf   Thumb Code     2  stm32g4xx_hal_uart.o(i.HAL_UART_TxCpltCallback)
    HardFault_Handler                        0x08002ee1   Thumb Code     2  stm32g4xx_it.o(i.HardFault_Handler)
    Key_Proc                                 0x08002ee5   Thumb Code   174  task.o(i.Key_Proc)
    Key_Read                                 0x08002fa1   Thumb Code    60  key.o(i.Key_Read)
    LCD_BusIn                                0x08002fe1   Thumb Code    40  lcd.o(i.LCD_BusIn)
    LCD_BusOut                               0x0800300d   Thumb Code    42  lcd.o(i.LCD_BusOut)
    LCD_Clear                                0x0800303d   Thumb Code    36  lcd.o(i.LCD_Clear)
    LCD_CtrlLinesConfig                      0x08003061   Thumb Code   134  lcd.o(i.LCD_CtrlLinesConfig)
    LCD_DisplayChar                          0x080030f1   Thumb Code    18  lcd.o(i.LCD_DisplayChar)
    LCD_DisplayStringLine                    0x08003109   Thumb Code    42  lcd.o(i.LCD_DisplayStringLine)
    LCD_DrawChar                             0x08003135   Thumb Code    84  lcd.o(i.LCD_DrawChar)
    LCD_Init                                 0x0800318d   Thumb Code    46  lcd.o(i.LCD_Init)
    LCD_Proc                                 0x080031c1   Thumb Code   222  task.o(i.LCD_Proc)
    LCD_ReadReg                              0x08003319   Thumb Code   120  lcd.o(i.LCD_ReadReg)
    LCD_SetBackColor                         0x08003399   Thumb Code    12  lcd.o(i.LCD_SetBackColor)
    LCD_SetCursor                            0x080033a9   Thumb Code    24  lcd.o(i.LCD_SetCursor)
    LCD_SetTextColor                         0x080033c1   Thumb Code    12  lcd.o(i.LCD_SetTextColor)
    LCD_WriteRAM                             0x080033d1   Thumb Code    86  lcd.o(i.LCD_WriteRAM)
    LCD_WriteRAM_Prepare                     0x08003431   Thumb Code    88  lcd.o(i.LCD_WriteRAM_Prepare)
    LCD_WriteReg                             0x08003491   Thumb Code   104  lcd.o(i.LCD_WriteReg)
    LED_DisPlay                              0x08003501   Thumb Code    84  led.o(i.LED_DisPlay)
    LED_Proc                                 0x08003561   Thumb Code    34  task.o(i.LED_Proc)
    MX_GPIO_Init                             0x0800358d   Thumb Code   270  gpio.o(i.MX_GPIO_Init)
    MX_TIM3_Init                             0x080036ad   Thumb Code   108  tim.o(i.MX_TIM3_Init)
    MX_TIM6_Init                             0x08003721   Thumb Code    64  tim.o(i.MX_TIM6_Init)
    MX_USART1_UART_Init                      0x08003769   Thumb Code    94  usart.o(i.MX_USART1_UART_Init)
    MemManage_Handler                        0x080037d1   Thumb Code     2  stm32g4xx_it.o(i.MemManage_Handler)
    NMI_Handler                              0x080037d3   Thumb Code     2  stm32g4xx_it.o(i.NMI_Handler)
    PendSV_Handler                           0x080037d5   Thumb Code     2  stm32g4xx_it.o(i.PendSV_Handler)
    REG_8230_Init                            0x080037d7   Thumb Code   274  lcd.o(i.REG_8230_Init)
    REG_932X_Init                            0x080038e9   Thumb Code   514  lcd.o(i.REG_932X_Init)
    Read_Proc                                0x08003aeb   Thumb Code     2  task.o(i.Read_Proc)
    SVC_Handler                              0x08003aed   Thumb Code     2  stm32g4xx_it.o(i.SVC_Handler)
    Serial_Proc                              0x08003af1   Thumb Code    96  task.o(i.Serial_Proc)
    SysTick_Handler                          0x08003b69   Thumb Code     4  stm32g4xx_it.o(i.SysTick_Handler)
    SystemClock_Config                       0x08003b6d   Thumb Code   106  main.o(i.SystemClock_Config)
    SystemInit                               0x08003bd9   Thumb Code    12  system_stm32g4xx.o(i.SystemInit)
    TIM6_DAC_IRQHandler                      0x08003be9   Thumb Code     6  stm32g4xx_it.o(i.TIM6_DAC_IRQHandler)
    TIM_Base_SetConfig                       0x08003bf5   Thumb Code   160  stm32g4xx_hal_tim.o(i.TIM_Base_SetConfig)
    TIM_CCxChannelCmd                        0x08003cb1   Thumb Code    26  stm32g4xx_hal_tim.o(i.TIM_CCxChannelCmd)
    TIM_OC2_SetConfig                        0x08003d69   Thumb Code   120  stm32g4xx_hal_tim.o(i.TIM_OC2_SetConfig)
    Time_LeapYear_Handle                     0x08003ff9   Thumb Code    42  task.o(i.Time_LeapYear_Handle)
    UART_AdvFeatureConfig                    0x08004069   Thumb Code   200  stm32g4xx_hal_uart.o(i.UART_AdvFeatureConfig)
    UART_CheckIdleState                      0x08004131   Thumb Code   172  stm32g4xx_hal_uart.o(i.UART_CheckIdleState)
    UART_SetConfig                           0x08004715   Thumb Code   582  stm32g4xx_hal_uart.o(i.UART_SetConfig)
    UART_Start_Receive_IT                    0x08004989   Thumb Code   256  stm32g4xx_hal_uart.o(i.UART_Start_Receive_IT)
    UART_WaitOnFlagUntilTimeout              0x08004a99   Thumb Code   148  stm32g4xx_hal_uart.o(i.UART_WaitOnFlagUntilTimeout)
    USART1_IRQHandler                        0x08004b2d   Thumb Code     6  stm32g4xx_it.o(i.USART1_IRQHandler)
    UsageFault_Handler                       0x08004b39   Thumb Code     2  stm32g4xx_it.o(i.UsageFault_Handler)
    __0printf                                0x08004b3d   Thumb Code    22  printfa.o(i.__0printf)
    __1printf                                0x08004b3d   Thumb Code     0  printfa.o(i.__0printf)
    __2printf                                0x08004b3d   Thumb Code     0  printfa.o(i.__0printf)
    __c89printf                              0x08004b3d   Thumb Code     0  printfa.o(i.__0printf)
    printf                                   0x08004b3d   Thumb Code     0  printfa.o(i.__0printf)
    __0sprintf                               0x08004b5d   Thumb Code    34  printfa.o(i.__0sprintf)
    __1sprintf                               0x08004b5d   Thumb Code     0  printfa.o(i.__0sprintf)
    __2sprintf                               0x08004b5d   Thumb Code     0  printfa.o(i.__0sprintf)
    __c89sprintf                             0x08004b5d   Thumb Code     0  printfa.o(i.__0sprintf)
    sprintf                                  0x08004b5d   Thumb Code     0  printfa.o(i.__0sprintf)
    __scatterload_copy                       0x08004ba5   Thumb Code    14  handlers.o(i.__scatterload_copy)
    __scatterload_null                       0x08004bb3   Thumb Code     2  handlers.o(i.__scatterload_null)
    __scatterload_zeroinit                   0x08004bb5   Thumb Code    14  handlers.o(i.__scatterload_zeroinit)
    fputc                                    0x08005459   Thumb Code    20  interrupt.o(i.fputc)
    main                                     0x08005471   Thumb Code   102  main.o(i.main)
    ASCII_Table                              0x080054e8   Data        4560  lcd.o(.constdata)
    UARTPrescTable                           0x080066b8   Data          24  stm32g4xx_hal_uart.o(.constdata)
    AHBPrescTable                            0x080066e0   Data          16  system_stm32g4xx.o(.constdata)
    APBPrescTable                            0x080066f0   Data           8  system_stm32g4xx.o(.constdata)
    __ctype_categories                       0x080066f8   Data          64  ctype_c.o(.constdata)
    Region$$Table$$Base                      0x08006738   Number         0  anon$$obj.o(Region$$Table)
    Region$$Table$$Limit                     0x08006758   Number         0  anon$$obj.o(Region$$Table)
    Tim_Total_Flag                           0x20000000   Data           1  interrupt.o(.data)
    Serial_RxData                            0x20000001   Data           1  interrupt.o(.data)
    Serial_RxIndex                           0x20000002   Data           1  interrupt.o(.data)
    Uart_Tick                                0x20000008   Data           4  interrupt.o(.data)
    LED_Enable                               0x2000000c   Data           8  interrupt.o(.data)
    Key_Val                                  0x20000018   Data           1  task.o(.data)
    Key_Down                                 0x20000019   Data           1  task.o(.data)
    Key_Up                                   0x2000001a   Data           1  task.o(.data)
    Key_Old                                  0x2000001b   Data           1  task.o(.data)
    Interface_Mode                           0x2000001c   Data           1  task.o(.data)
    PA1_Mode                                 0x2000001d   Data           1  task.o(.data)
    Car_Leave_location                       0x2000001e   Data           1  task.o(.data)
    Car_StopFee_Dis                          0x2000001f   Data           2  task.o(.data)
    Car_StopFee_Save                         0x20000021   Data           2  task.o(.data)
    Car_Pace                                 0x20000023   Data           2  task.o(.data)
    Total_Hour                               0x20000026   Data           2  task.o(.data)
    T1                                       0x20000028   Data           8  task.o(.data)
    T2                                       0x20000030   Data           8  task.o(.data)
    dummy                                    0x2000003e   Data           2  lcd.o(.data)
    uwTickPrio                               0x20000040   Data           4  stm32g4xx_hal.o(.data)
    uwTickFreq                               0x20000044   Data           4  stm32g4xx_hal.o(.data)
    uwTick                                   0x20000048   Data           4  stm32g4xx_hal.o(.data)
    SystemCoreClock                          0x2000004c   Data           4  system_stm32g4xx.o(.data)
    __stdout                                 0x20000050   Data           4  stdout.o(.data)
    htim3                                    0x20000054   Data          76  tim.o(.bss)
    htim6                                    0x200000a0   Data          76  tim.o(.bss)
    huart1                                   0x200000ec   Data         148  usart.o(.bss)
    Serial_RxBuf                             0x20000180   Data          30  interrupt.o(.bss)
    LCD_Buf                                  0x2000019e   Data          30  task.o(.bss)
    Car_Message                              0x200001bc   Data         144  task.o(.bss)
    Car_Middle_Mess                          0x2000024c   Data          18  task.o(.bss)
    __initial_sp                             0x20000660   Data           0  startup_stm32g431xx.o(STACK)



==============================================================================

Memory Map of the image

  Image Entry point : 0x080001d9

  Load Region LR_IROM1 (Base: 0x08000000, Size: 0x000067ac, Max: 0x00020000, ABSOLUTE)

    Execution Region ER_IROM1 (Exec base: 0x08000000, Load base: 0x08000000, Size: 0x00006758, Max: 0x00020000, ABSOLUTE)

    Exec Addr    Load Addr    Size         Type   Attr      Idx    E Section Name        Object

    0x08000000   0x08000000   0x000001d8   Data   RO          807    RESET               startup_stm32g431xx.o
    0x080001d8   0x080001d8   0x00000000   Code   RO         4026  * .ARM.Collect$$$$00000000  mc_w.l(entry.o)
    0x080001d8   0x080001d8   0x00000004   Code   RO         4312    .ARM.Collect$$$$00000001  mc_w.l(entry2.o)
    0x080001dc   0x080001dc   0x00000004   Code   RO         4315    .ARM.Collect$$$$00000004  mc_w.l(entry5.o)
    0x080001e0   0x080001e0   0x00000000   Code   RO         4317    .ARM.Collect$$$$00000008  mc_w.l(entry7b.o)
    0x080001e0   0x080001e0   0x00000000   Code   RO         4319    .ARM.Collect$$$$0000000A  mc_w.l(entry8b.o)
    0x080001e0   0x080001e0   0x00000008   Code   RO         4320    .ARM.Collect$$$$0000000B  mc_w.l(entry9a.o)
    0x080001e8   0x080001e8   0x00000004   Code   RO         4327    .ARM.Collect$$$$0000000E  mc_w.l(entry12b.o)
    0x080001ec   0x080001ec   0x00000000   Code   RO         4322    .ARM.Collect$$$$0000000F  mc_w.l(entry10a.o)
    0x080001ec   0x080001ec   0x00000000   Code   RO         4324    .ARM.Collect$$$$00000011  mc_w.l(entry11a.o)
    0x080001ec   0x080001ec   0x00000004   Code   RO         4313    .ARM.Collect$$$$00002712  mc_w.l(entry2.o)
    0x080001f0   0x080001f0   0x00000024   Code   RO          808    .text               startup_stm32g431xx.o
    0x08000214   0x08000214   0x00000062   Code   RO         4029    .text               mc_w.l(uldiv.o)
    0x08000276   0x08000276   0x00000024   Code   RO         4031    .text               mc_w.l(memcpya.o)
    0x0800029a   0x0800029a   0x00000024   Code   RO         4033    .text               mc_w.l(memseta.o)
    0x080002be   0x080002be   0x00000024   Code   RO         4035    .text               mc_w.l(strstr.o)
    0x080002e2   0x080002e2   0x00000002   PAD
    0x080002e4   0x080002e4   0x00000038   Code   RO         4300    .text               mc_w.l(__0sscanf.o)
    0x0800031c   0x0800031c   0x0000014c   Code   RO         4302    .text               mc_w.l(_scanf_int.o)
    0x08000468   0x08000468   0x000000e0   Code   RO         4304    .text               mc_w.l(_scanf_str.o)
    0x08000548   0x08000548   0x000000e4   Code   RO         4306    .text               mf_w.l(dmul.o)
    0x0800062c   0x0800062c   0x000000de   Code   RO         4308    .text               mf_w.l(ddiv.o)
    0x0800070a   0x0800070a   0x0000001a   Code   RO         4310    .text               mf_w.l(dfltui.o)
    0x08000724   0x08000724   0x0000002c   Code   RO         4329    .text               mc_w.l(uidiv.o)
    0x08000750   0x08000750   0x0000001e   Code   RO         4331    .text               mc_w.l(llshl.o)
    0x0800076e   0x0800076e   0x00000020   Code   RO         4333    .text               mc_w.l(llushr.o)
    0x0800078e   0x0800078e   0x0000001c   Code   RO         4335    .text               mc_w.l(_chval.o)
    0x080007aa   0x080007aa   0x00000002   PAD
    0x080007ac   0x080007ac   0x00000028   Code   RO         4337    .text               mc_w.l(scanf_char.o)
    0x080007d4   0x080007d4   0x00000040   Code   RO         4339    .text               mc_w.l(_sgetc.o)
    0x08000814   0x08000814   0x00000000   Code   RO         4341    .text               mc_w.l(iusefp.o)
    0x08000814   0x08000814   0x000000ba   Code   RO         4342    .text               mf_w.l(depilogue.o)
    0x080008ce   0x080008ce   0x0000014e   Code   RO         4344    .text               mf_w.l(dadd.o)
    0x08000a1c   0x08000a1c   0x00000030   Code   RO         4346    .text               mf_w.l(dfixul.o)
    0x08000a4c   0x08000a4c   0x00000030   Code   RO         4348    .text               mf_w.l(cdrcmple.o)
    0x08000a7c   0x08000a7c   0x00000024   Code   RO         4350    .text               mc_w.l(init.o)
    0x08000aa0   0x08000aa0   0x00000024   Code   RO         4352    .text               mc_w.l(llsshr.o)
    0x08000ac4   0x08000ac4   0x0000000a   Code   RO         4354    .text               mc_w.l(isspace_c.o)
    0x08000ace   0x08000ace   0x00000002   PAD
    0x08000ad0   0x08000ad0   0x00000330   Code   RO         4356    .text               mc_w.l(_scanf.o)
    0x08000e00   0x08000e00   0x00000028   Code   RO         4358    .text               mc_w.l(ctype_c.o)
    0x08000e28   0x08000e28   0x00000002   Code   RO          313    i.BusFault_Handler  stm32g4xx_it.o
    0x08000e2a   0x08000e2a   0x00000002   PAD
    0x08000e2c   0x08000e2c   0x00000268   Code   RO          473    i.Car_Expence_Proc  task.o
    0x08001094   0x08001094   0x000000dc   Code   RO          474    i.Car_Message_Proc  task.o
    0x08001170   0x08001170   0x000001c8   Code   RO          475    i.Car_Park_Proc     task.o
    0x08001338   0x08001338   0x00000002   Code   RO          314    i.DebugMon_Handler  stm32g4xx_it.o
    0x0800133a   0x0800133a   0x0000001c   Code   RO          602    i.Delay_LCD         lcd.o
    0x08001356   0x08001356   0x00000004   Code   RO            4    i.Error_Handler     main.o
    0x0800135a   0x0800135a   0x0000006a   Code   RO         3054    i.HAL_DMA_Abort     stm32g4xx_hal_dma.o
    0x080013c4   0x080013c4   0x00000078   Code   RO         3055    i.HAL_DMA_Abort_IT  stm32g4xx_hal_dma.o
    0x0800143c   0x0800143c   0x00000024   Code   RO         2207    i.HAL_Delay         stm32g4xx_hal.o
    0x08001460   0x08001460   0x00000248   Code   RO         2916    i.HAL_GPIO_Init     stm32g4xx_hal_gpio.o
    0x080016a8   0x080016a8   0x0000000a   Code   RO         2918    i.HAL_GPIO_ReadPin  stm32g4xx_hal_gpio.o
    0x080016b2   0x080016b2   0x0000000a   Code   RO         2920    i.HAL_GPIO_WritePin  stm32g4xx_hal_gpio.o
    0x080016bc   0x080016bc   0x0000000c   Code   RO         2211    i.HAL_GetTick       stm32g4xx_hal.o
    0x080016c8   0x080016c8   0x00000010   Code   RO         2217    i.HAL_IncTick       stm32g4xx_hal.o
    0x080016d8   0x080016d8   0x0000001e   Code   RO         2218    i.HAL_Init          stm32g4xx_hal.o
    0x080016f6   0x080016f6   0x00000002   PAD
    0x080016f8   0x080016f8   0x00000044   Code   RO         2219    i.HAL_InitTick      stm32g4xx_hal.o
    0x0800173c   0x0800173c   0x00000030   Code   RO          400    i.HAL_MspInit       stm32g4xx_hal_msp.o
    0x0800176c   0x0800176c   0x0000001a   Code   RO         3323    i.HAL_NVIC_EnableIRQ  stm32g4xx_hal_cortex.o
    0x08001786   0x08001786   0x00000002   PAD
    0x08001788   0x08001788   0x00000040   Code   RO         3329    i.HAL_NVIC_SetPriority  stm32g4xx_hal_cortex.o
    0x080017c8   0x080017c8   0x00000024   Code   RO         3330    i.HAL_NVIC_SetPriorityGrouping  stm32g4xx_hal_cortex.o
    0x080017ec   0x080017ec   0x000000bc   Code   RO         1961    i.HAL_PWREx_ControlVoltageScaling  stm32g4xx_hal_pwr_ex.o
    0x080018a8   0x080018a8   0x00000010   Code   RO         1973    i.HAL_PWREx_DisableUCPDDeadBattery  stm32g4xx_hal_pwr_ex.o
    0x080018b8   0x080018b8   0x00000288   Code   RO         2578    i.HAL_RCCEx_PeriphCLKConfig  stm32g4xx_hal_rcc_ex.o
    0x08001b40   0x08001b40   0x000001dc   Code   RO         2453    i.HAL_RCC_ClockConfig  stm32g4xx_hal_rcc.o
    0x08001d1c   0x08001d1c   0x00000024   Code   RO         2461    i.HAL_RCC_GetPCLK1Freq  stm32g4xx_hal_rcc.o
    0x08001d40   0x08001d40   0x00000024   Code   RO         2462    i.HAL_RCC_GetPCLK2Freq  stm32g4xx_hal_rcc.o
    0x08001d64   0x08001d64   0x00000070   Code   RO         2463    i.HAL_RCC_GetSysClockFreq  stm32g4xx_hal_rcc.o
    0x08001dd4   0x08001dd4   0x00000404   Code   RO         2466    i.HAL_RCC_OscConfig  stm32g4xx_hal_rcc.o
    0x080021d8   0x080021d8   0x00000028   Code   RO         3334    i.HAL_SYSTICK_Config  stm32g4xx_hal_cortex.o
    0x08002200   0x08002200   0x00000002   Code   RO         1531    i.HAL_TIMEx_Break2Callback  stm32g4xx_hal_tim_ex.o
    0x08002202   0x08002202   0x00000002   Code   RO         1532    i.HAL_TIMEx_BreakCallback  stm32g4xx_hal_tim_ex.o
    0x08002204   0x08002204   0x00000002   Code   RO         1533    i.HAL_TIMEx_CommutCallback  stm32g4xx_hal_tim_ex.o
    0x08002206   0x08002206   0x00000002   Code   RO         1544    i.HAL_TIMEx_DirectionChangeCallback  stm32g4xx_hal_tim_ex.o
    0x08002208   0x08002208   0x00000002   Code   RO         1558    i.HAL_TIMEx_EncoderIndexCallback  stm32g4xx_hal_tim_ex.o
    0x0800220a   0x0800220a   0x00000002   Code   RO         1572    i.HAL_TIMEx_IndexErrorCallback  stm32g4xx_hal_tim_ex.o
    0x0800220c   0x0800220c   0x0000009c   Code   RO         1573    i.HAL_TIMEx_MasterConfigSynchronization  stm32g4xx_hal_tim_ex.o
    0x080022a8   0x080022a8   0x00000002   Code   RO         1594    i.HAL_TIMEx_TransitionErrorCallback  stm32g4xx_hal_tim_ex.o
    0x080022aa   0x080022aa   0x00000062   Code   RO          817    i.HAL_TIM_Base_Init  stm32g4xx_hal_tim.o
    0x0800230c   0x0800230c   0x0000003c   Code   RO          206    i.HAL_TIM_Base_MspInit  tim.o
    0x08002348   0x08002348   0x00000078   Code   RO          822    i.HAL_TIM_Base_Start_IT  stm32g4xx_hal_tim.o
    0x080023c0   0x080023c0   0x00000002   Code   RO          851    i.HAL_TIM_IC_CaptureCallback  stm32g4xx_hal_tim.o
    0x080023c2   0x080023c2   0x000001a2   Code   RO          865    i.HAL_TIM_IRQHandler  stm32g4xx_hal_tim.o
    0x08002564   0x08002564   0x00000050   Code   RO          207    i.HAL_TIM_MspPostInit  tim.o
    0x080025b4   0x080025b4   0x00000002   Code   RO          868    i.HAL_TIM_OC_DelayElapsedCallback  stm32g4xx_hal_tim.o
    0x080025b6   0x080025b6   0x00000124   Code   RO          889    i.HAL_TIM_PWM_ConfigChannel  stm32g4xx_hal_tim.o
    0x080026da   0x080026da   0x00000062   Code   RO          892    i.HAL_TIM_PWM_Init  stm32g4xx_hal_tim.o
    0x0800273c   0x0800273c   0x00000028   Code   RO          209    i.HAL_TIM_PWM_MspInit  tim.o
    0x08002764   0x08002764   0x00000002   Code   RO          895    i.HAL_TIM_PWM_PulseFinishedCallback  stm32g4xx_hal_tim.o
    0x08002766   0x08002766   0x00000002   PAD
    0x08002768   0x08002768   0x000000fc   Code   RO          897    i.HAL_TIM_PWM_Start  stm32g4xx_hal_tim.o
    0x08002864   0x08002864   0x00000064   Code   RO          424    i.HAL_TIM_PeriodElapsedCallback  interrupt.o
    0x080028c8   0x080028c8   0x00000002   Code   RO          908    i.HAL_TIM_TriggerCallback  stm32g4xx_hal_tim.o
    0x080028ca   0x080028ca   0x0000003e   Code   RO         3873    i.HAL_UARTEx_DisableFifoMode  stm32g4xx_hal_uart_ex.o
    0x08002908   0x08002908   0x00000002   Code   RO         3462    i.HAL_UARTEx_RxEventCallback  stm32g4xx_hal_uart.o
    0x0800290a   0x0800290a   0x00000002   Code   RO         3881    i.HAL_UARTEx_RxFifoFullCallback  stm32g4xx_hal_uart_ex.o
    0x0800290c   0x0800290c   0x0000004c   Code   RO         3882    i.HAL_UARTEx_SetRxFifoThreshold  stm32g4xx_hal_uart_ex.o
    0x08002958   0x08002958   0x0000004c   Code   RO         3883    i.HAL_UARTEx_SetTxFifoThreshold  stm32g4xx_hal_uart_ex.o
    0x080029a4   0x080029a4   0x00000002   Code   RO         3885    i.HAL_UARTEx_TxFifoEmptyCallback  stm32g4xx_hal_uart_ex.o
    0x080029a6   0x080029a6   0x00000002   Code   RO         3886    i.HAL_UARTEx_WakeupCallback  stm32g4xx_hal_uart_ex.o
    0x080029a8   0x080029a8   0x00000002   Code   RO         3478    i.HAL_UART_ErrorCallback  stm32g4xx_hal_uart.o
    0x080029aa   0x080029aa   0x00000002   PAD
    0x080029ac   0x080029ac   0x0000030c   Code   RO         3481    i.HAL_UART_IRQHandler  stm32g4xx_hal_uart.o
    0x08002cb8   0x08002cb8   0x0000006a   Code   RO         3482    i.HAL_UART_Init     stm32g4xx_hal_uart.o
    0x08002d22   0x08002d22   0x00000002   PAD
    0x08002d24   0x08002d24   0x0000008c   Code   RO          272    i.HAL_UART_MspInit  usart.o
    0x08002db0   0x08002db0   0x00000048   Code   RO         3487    i.HAL_UART_Receive_IT  stm32g4xx_hal_uart.o
    0x08002df8   0x08002df8   0x00000038   Code   RO          425    i.HAL_UART_RxCpltCallback  interrupt.o
    0x08002e30   0x08002e30   0x000000ae   Code   RO         3491    i.HAL_UART_Transmit  stm32g4xx_hal_uart.o
    0x08002ede   0x08002ede   0x00000002   Code   RO         3494    i.HAL_UART_TxCpltCallback  stm32g4xx_hal_uart.o
    0x08002ee0   0x08002ee0   0x00000002   Code   RO          315    i.HardFault_Handler  stm32g4xx_it.o
    0x08002ee2   0x08002ee2   0x00000002   PAD
    0x08002ee4   0x08002ee4   0x000000bc   Code   RO          476    i.Key_Proc          task.o
    0x08002fa0   0x08002fa0   0x00000040   Code   RO          550    i.Key_Read          key.o
    0x08002fe0   0x08002fe0   0x0000002c   Code   RO          603    i.LCD_BusIn         lcd.o
    0x0800300c   0x0800300c   0x00000030   Code   RO          604    i.LCD_BusOut        lcd.o
    0x0800303c   0x0800303c   0x00000024   Code   RO          605    i.LCD_Clear         lcd.o
    0x08003060   0x08003060   0x00000090   Code   RO          607    i.LCD_CtrlLinesConfig  lcd.o
    0x080030f0   0x080030f0   0x00000018   Code   RO          608    i.LCD_DisplayChar   lcd.o
    0x08003108   0x08003108   0x0000002a   Code   RO          611    i.LCD_DisplayStringLine  lcd.o
    0x08003132   0x08003132   0x00000002   PAD
    0x08003134   0x08003134   0x00000058   Code   RO          612    i.LCD_DrawChar      lcd.o
    0x0800318c   0x0800318c   0x00000034   Code   RO          618    i.LCD_Init          lcd.o
    0x080031c0   0x080031c0   0x00000158   Code   RO          477    i.LCD_Proc          task.o
    0x08003318   0x08003318   0x00000080   Code   RO          621    i.LCD_ReadReg       lcd.o
    0x08003398   0x08003398   0x00000010   Code   RO          622    i.LCD_SetBackColor  lcd.o
    0x080033a8   0x080033a8   0x00000018   Code   RO          623    i.LCD_SetCursor     lcd.o
    0x080033c0   0x080033c0   0x00000010   Code   RO          625    i.LCD_SetTextColor  lcd.o
    0x080033d0   0x080033d0   0x00000060   Code   RO          628    i.LCD_WriteRAM      lcd.o
    0x08003430   0x08003430   0x00000060   Code   RO          629    i.LCD_WriteRAM_Prepare  lcd.o
    0x08003490   0x08003490   0x00000070   Code   RO          630    i.LCD_WriteReg      lcd.o
    0x08003500   0x08003500   0x00000060   Code   RO          574    i.LED_DisPlay       led.o
    0x08003560   0x08003560   0x0000002c   Code   RO          478    i.LED_Proc          task.o
    0x0800358c   0x0800358c   0x00000120   Code   RO          181    i.MX_GPIO_Init      gpio.o
    0x080036ac   0x080036ac   0x00000074   Code   RO          210    i.MX_TIM3_Init      tim.o
    0x08003720   0x08003720   0x00000048   Code   RO          211    i.MX_TIM6_Init      tim.o
    0x08003768   0x08003768   0x00000068   Code   RO          273    i.MX_USART1_UART_Init  usart.o
    0x080037d0   0x080037d0   0x00000002   Code   RO          316    i.MemManage_Handler  stm32g4xx_it.o
    0x080037d2   0x080037d2   0x00000002   Code   RO          317    i.NMI_Handler       stm32g4xx_it.o
    0x080037d4   0x080037d4   0x00000002   Code   RO          318    i.PendSV_Handler    stm32g4xx_it.o
    0x080037d6   0x080037d6   0x00000112   Code   RO          631    i.REG_8230_Init     lcd.o
    0x080038e8   0x080038e8   0x00000202   Code   RO          632    i.REG_932X_Init     lcd.o
    0x08003aea   0x08003aea   0x00000002   Code   RO          479    i.Read_Proc         task.o
    0x08003aec   0x08003aec   0x00000002   Code   RO          319    i.SVC_Handler       stm32g4xx_it.o
    0x08003aee   0x08003aee   0x00000002   PAD
    0x08003af0   0x08003af0   0x00000078   Code   RO          480    i.Serial_Proc       task.o
    0x08003b68   0x08003b68   0x00000004   Code   RO          320    i.SysTick_Handler   stm32g4xx_it.o
    0x08003b6c   0x08003b6c   0x0000006a   Code   RO            5    i.SystemClock_Config  main.o
    0x08003bd6   0x08003bd6   0x00000002   PAD
    0x08003bd8   0x08003bd8   0x00000010   Code   RO         3992    i.SystemInit        system_stm32g4xx.o
    0x08003be8   0x08003be8   0x0000000c   Code   RO          321    i.TIM6_DAC_IRQHandler  stm32g4xx_it.o
    0x08003bf4   0x08003bf4   0x000000bc   Code   RO          910    i.TIM_Base_SetConfig  stm32g4xx_hal_tim.o
    0x08003cb0   0x08003cb0   0x0000001a   Code   RO          911    i.TIM_CCxChannelCmd  stm32g4xx_hal_tim.o
    0x08003cca   0x08003cca   0x00000002   PAD
    0x08003ccc   0x08003ccc   0x0000009c   Code   RO          923    i.TIM_OC1_SetConfig  stm32g4xx_hal_tim.o
    0x08003d68   0x08003d68   0x00000090   Code   RO          924    i.TIM_OC2_SetConfig  stm32g4xx_hal_tim.o
    0x08003df8   0x08003df8   0x00000090   Code   RO          925    i.TIM_OC3_SetConfig  stm32g4xx_hal_tim.o
    0x08003e88   0x08003e88   0x00000090   Code   RO          926    i.TIM_OC4_SetConfig  stm32g4xx_hal_tim.o
    0x08003f18   0x08003f18   0x00000070   Code   RO          927    i.TIM_OC5_SetConfig  stm32g4xx_hal_tim.o
    0x08003f88   0x08003f88   0x00000070   Code   RO          928    i.TIM_OC6_SetConfig  stm32g4xx_hal_tim.o
    0x08003ff8   0x08003ff8   0x0000002a   Code   RO          481    i.Time_LeapYear_Handle  task.o
    0x08004022   0x08004022   0x00000002   PAD
    0x08004024   0x08004024   0x00000044   Code   RO         3887    i.UARTEx_SetNbDataToProcess  stm32g4xx_hal_uart_ex.o
    0x08004068   0x08004068   0x000000c8   Code   RO         3496    i.UART_AdvFeatureConfig  stm32g4xx_hal_uart.o
    0x08004130   0x08004130   0x000000ac   Code   RO         3497    i.UART_CheckIdleState  stm32g4xx_hal_uart.o
    0x080041dc   0x080041dc   0x00000014   Code   RO         3498    i.UART_DMAAbortOnError  stm32g4xx_hal_uart.o
    0x080041f0   0x080041f0   0x00000054   Code   RO         3508    i.UART_EndRxTransfer  stm32g4xx_hal_uart.o
    0x08004244   0x08004244   0x000000c8   Code   RO         3510    i.UART_RxISR_16BIT  stm32g4xx_hal_uart.o
    0x0800430c   0x0800430c   0x000001a0   Code   RO         3511    i.UART_RxISR_16BIT_FIFOEN  stm32g4xx_hal_uart.o
    0x080044ac   0x080044ac   0x000000c8   Code   RO         3512    i.UART_RxISR_8BIT   stm32g4xx_hal_uart.o
    0x08004574   0x08004574   0x000001a0   Code   RO         3513    i.UART_RxISR_8BIT_FIFOEN  stm32g4xx_hal_uart.o
    0x08004714   0x08004714   0x00000274   Code   RO         3514    i.UART_SetConfig    stm32g4xx_hal_uart.o
    0x08004988   0x08004988   0x00000110   Code   RO         3516    i.UART_Start_Receive_IT  stm32g4xx_hal_uart.o
    0x08004a98   0x08004a98   0x00000094   Code   RO         3521    i.UART_WaitOnFlagUntilTimeout  stm32g4xx_hal_uart.o
    0x08004b2c   0x08004b2c   0x0000000c   Code   RO          322    i.USART1_IRQHandler  stm32g4xx_it.o
    0x08004b38   0x08004b38   0x00000002   Code   RO          323    i.UsageFault_Handler  stm32g4xx_it.o
    0x08004b3a   0x08004b3a   0x00000002   PAD
    0x08004b3c   0x08004b3c   0x00000020   Code   RO         4272    i.__0printf         mc_w.l(printfa.o)
    0x08004b5c   0x08004b5c   0x00000028   Code   RO         4274    i.__0sprintf        mc_w.l(printfa.o)
    0x08004b84   0x08004b84   0x00000020   Code   RO         3336    i.__NVIC_SetPriority  stm32g4xx_hal_cortex.o
    0x08004ba4   0x08004ba4   0x0000000e   Code   RO         4363    i.__scatterload_copy  mc_w.l(handlers.o)
    0x08004bb2   0x08004bb2   0x00000002   Code   RO         4364    i.__scatterload_null  mc_w.l(handlers.o)
    0x08004bb4   0x08004bb4   0x0000000e   Code   RO         4365    i.__scatterload_zeroinit  mc_w.l(handlers.o)
    0x08004bc2   0x08004bc2   0x00000002   PAD
    0x08004bc4   0x08004bc4   0x00000184   Code   RO         4279    i._fp_digits        mc_w.l(printfa.o)
    0x08004d48   0x08004d48   0x000006b4   Code   RO         4280    i._printf_core      mc_w.l(printfa.o)
    0x080053fc   0x080053fc   0x00000024   Code   RO         4281    i._printf_post_padding  mc_w.l(printfa.o)
    0x08005420   0x08005420   0x0000002e   Code   RO         4282    i._printf_pre_padding  mc_w.l(printfa.o)
    0x0800544e   0x0800544e   0x0000000a   Code   RO         4284    i._sputc            mc_w.l(printfa.o)
    0x08005458   0x08005458   0x00000018   Code   RO          427    i.fputc             interrupt.o
    0x08005470   0x08005470   0x00000078   Code   RO            6    i.main              main.o
    0x080054e8   0x080054e8   0x000011d0   Data   RO          633    .constdata          lcd.o
    0x080066b8   0x080066b8   0x00000018   Data   RO         3522    .constdata          stm32g4xx_hal_uart.o
    0x080066d0   0x080066d0   0x00000010   Data   RO         3888    .constdata          stm32g4xx_hal_uart_ex.o
    0x080066e0   0x080066e0   0x00000010   Data   RO         3993    .constdata          system_stm32g4xx.o
    0x080066f0   0x080066f0   0x00000008   Data   RO         3994    .constdata          system_stm32g4xx.o
    0x080066f8   0x080066f8   0x00000040   Data   RO         4359    .constdata          mc_w.l(ctype_c.o)
    0x08006738   0x08006738   0x00000020   Data   RO         4361    Region$$Table       anon$$obj.o


    Execution Region RW_IRAM1 (Exec base: 0x20000000, Load base: 0x08006758, Size: 0x00000660, Max: 0x00008000, ABSOLUTE)

    Exec Addr    Load Addr    Size         Type   Attr      Idx    E Section Name        Object

    0x20000000   0x08006758   0x00000014   Data   RW          429    .data               interrupt.o
    0x20000014   0x0800676c   0x00000004   PAD
    0x20000018   0x08006770   0x00000020   Data   RW          483    .data               task.o
    0x20000038   0x08006790   0x00000002   Data   RW          575    .data               led.o
    0x2000003a   0x08006792   0x00000006   Data   RW          634    .data               lcd.o
    0x20000040   0x08006798   0x0000000c   Data   RW         2238    .data               stm32g4xx_hal.o
    0x2000004c   0x080067a4   0x00000004   Data   RW         3995    .data               system_stm32g4xx.o
    0x20000050   0x080067a8   0x00000004   Data   RW         4328    .data               mc_w.l(stdout.o)
    0x20000054        -       0x00000098   Zero   RW          212    .bss                tim.o
    0x200000ec        -       0x00000094   Zero   RW          274    .bss                usart.o
    0x20000180        -       0x0000001e   Zero   RW          428    .bss                interrupt.o
    0x2000019e        -       0x000000c0   Zero   RW          482    .bss                task.o
    0x2000025e   0x080067ac   0x00000002   PAD
    0x20000260        -       0x00000400   Zero   RW          805    STACK               startup_stm32g431xx.o


==============================================================================

Image component sizes


      Code (inc. data)   RO Data    RW Data    ZI Data      Debug   Object Name

       288         18          0          0          0       1159   gpio.o
       180         30          0         20         30       2618   interrupt.o
        64          4          0          0          0        591   key.o
      1782         78       4560          6          0      12610   lcd.o
        96         12          0          2          0        678   led.o
       230         18          0          0          0     646953   main.o
        36          8        472          0       1024        840   startup_stm32g431xx.o
       162         24          0         12          0       4669   stm32g4xx_hal.o
       198         14          0          0          0      34135   stm32g4xx_hal_cortex.o
       226          0          0          0          0       2087   stm32g4xx_hal_dma.o
       604         34          0          0          0       3203   stm32g4xx_hal_gpio.o
        48          6          0          0          0        962   stm32g4xx_hal_msp.o
       204         18          0          0          0       1505   stm32g4xx_hal_pwr_ex.o
      1688         92          0          0          0       6576   stm32g4xx_hal_rcc.o
       648         10          0          0          0       1976   stm32g4xx_hal_rcc_ex.o
      2312        236          0          0          0      15972   stm32g4xx_hal_tim.o
       170         24          0          0          0       5880   stm32g4xx_hal_tim_ex.o
      3894        140         24          0          0      38102   stm32g4xx_hal_uart.o
       288          6         16          0          0       5774   stm32g4xx_hal_uart_ex.o
        44         12          0          0          0       5660   stm32g4xx_it.o
        16          4         24          4          0       1279   system_stm32g4xx.o
      2032        366          0         32        192       7561   task.o
       368         46          0          0        152       3839   tim.o
       244         18          0          0        148       2002   usart.o

    ----------------------------------------------------------------------
     15848       1218       5128         80       1548     806631   Object Totals
         0          0         32          0          0          0   (incl. Generated)
        26          0          0          4          2          0   (incl. Padding)

    ----------------------------------------------------------------------

      Code (inc. data)   RO Data    RW Data    ZI Data      Debug   Library Member Name

        56          8          0          0          0         84   __0sscanf.o
        28          0          0          0          0         68   _chval.o
       816          6          0          0          0        112   _scanf.o
       332          0          0          0          0         96   _scanf_int.o
       224          0          0          0          0         96   _scanf_str.o
        64          0          0          0          0         84   _sgetc.o
        40          6         64          0          0         68   ctype_c.o
         0          0          0          0          0          0   entry.o
         0          0          0          0          0          0   entry10a.o
         0          0          0          0          0          0   entry11a.o
         4          0          0          0          0          0   entry12b.o
         8          4          0          0          0          0   entry2.o
         4          0          0          0          0          0   entry5.o
         0          0          0          0          0          0   entry7b.o
         0          0          0          0          0          0   entry8b.o
         8          4          0          0          0          0   entry9a.o
        30          0          0          0          0          0   handlers.o
        36          8          0          0          0         68   init.o
        10          0          0          0          0         68   isspace_c.o
         0          0          0          0          0          0   iusefp.o
        30          0          0          0          0         68   llshl.o
        36          0          0          0          0         68   llsshr.o
        32          0          0          0          0         68   llushr.o
        36          0          0          0          0         68   memcpya.o
        36          0          0          0          0        108   memseta.o
      2268         96          0          0          0        616   printfa.o
        40          8          0          0          0         84   scanf_char.o
         0          0          0          4          0          0   stdout.o
        36          0          0          0          0         80   strstr.o
        44          0          0          0          0         80   uidiv.o
        98          0          0          0          0         92   uldiv.o
        48          0          0          0          0         68   cdrcmple.o
       334          0          0          0          0        148   dadd.o
       222          0          0          0          0        100   ddiv.o
       186          0          0          0          0        176   depilogue.o
        48          0          0          0          0         68   dfixul.o
        26          0          0          0          0         76   dfltui.o
       228          0          0          0          0         96   dmul.o

    ----------------------------------------------------------------------
      5416        140         64          4          0       2808   Library Totals
         8          0          0          0          0          0   (incl. Padding)

    ----------------------------------------------------------------------

      Code (inc. data)   RO Data    RW Data    ZI Data      Debug   Library Name

      4316        140         64          4          0       2076   mc_w.l
      1092          0          0          0          0        732   mf_w.l

    ----------------------------------------------------------------------
      5416        140         64          4          0       2808   Library Totals

    ----------------------------------------------------------------------

==============================================================================


      Code (inc. data)   RO Data    RW Data    ZI Data      Debug   

     21264       1358       5192         84       1548     795835   Grand Totals
     21264       1358       5192         84       1548     795835   ELF Image Totals
     21264       1358       5192         84          0          0   ROM Totals

==============================================================================

    Total RO  Size (Code + RO Data)                26456 (  25.84kB)
    Total RW  Size (RW Data + ZI Data)              1632 (   1.59kB)
    Total ROM Size (Code + RO Data + RW Data)      26540 (  25.92kB)

==============================================================================

