:020000040800F2
:1000000060060020F1010008D3370008E12E000847
:10001000D1370008290E0008394B00080000000005
:10002000000000000000000000000000ED3A0008A1
:100030003913000800000000D5370008693B0008AC
:100040000B0200080B0200080B0200080B0200085C
:100050000B0200080B0200080B0200080B0200084C
:100060000B0200080B0200080B0200080B0200083C
:100070000B0200080B0200080B0200080B0200082C
:100080000B020008000000000B0200080B02000831
:100090000B0200080B0200080B0200080B0200080C
:1000A0000B0200080B0200080B0200080B020008FC
:1000B0000B0200080B0200080B0200080B020008EC
:1000C0000B0200080B0200080B0200080B020008DC
:1000D0000B0200082D4B00080B0200080B02000861
:1000E0000B0200080B0200080B0200080B020008BC
:1000F0000B0200080B0200080B02000800000000C1
:10010000000000000B020008000000000B020008C5
:100110000B02000800000000E93B00080B02000889
:100120000B0200080B0200080B0200080B0200087B
:100130000B02000800000000000000000B02000895
:100140000B0200080B020008000000000000000085
:10015000000000000000000000000000000000009F
:100160000000000000000000000000000B0200087A
:100170000B0200080000000000000000000000006A
:10018000000000000B02000800000000000000005A
:10019000000000000000000000000000000000005F
:1001A00000000000000000000B0200080B02000825
:1001B0000B0200080B0200080B0200080000000000
:1001C000000000000B02000800000000000000001A
:1001D0000B0200080B020008DFF810D000F04EFC04
:1001E0000048004771540008AFF30080600600200B
:1001F0000648804706480047FEE7FEE7FEE7FEE7C1
:10020000FEE7FEE7FEE7FEE7FEE7FEE7D93B000874
:10021000D90100082DE9F05F0546002092469B4673
:1002200088460646814640241BE02846414647460C
:10023000224600F09CFA53465A46C01A914110D308
:1002400011461846224600F083FA2D1A67EB010882
:100250004F4622460120002100F07AFA17EB0009F0
:100260004E41201EA4F10104DFDC484631462A46F7
:100270004346BDE8F09F40EA01039B0703D009E035
:1002800008C9121F08C0042AFAD203E011F8013B82
:1002900000F8013B521EF9D27047D2B201E000F8DB
:1002A000012B491EFBD270470022F6E710B513461A
:1002B0000A4604461946FFF7F0FF204610BD30B548
:1002C00005462A460B4612F8010B13F8014B08B1FC
:1002D000A042F8D01CB1002802D06D1CF1E72846DE
:1002E00030BD00000FB400B58DB010A909900B907F
:1002F00000914FF0FF300A9000200C9005480690C6
:10030000054807906A4609A80F9900F055FA0DB004
:100310005DF814FBD5070008F30700082DE9FF5F1F
:100320001D464FF0FF3BD5E9014691465F464FF031
:100330000008A9697F1C01988847296A8246884776
:100340000028F6D1BAF1FF3F0CD024F4C064002E8F
:1003500019DD600614D5BAF12B0F09D0BAF12D0FB3
:100360000ED103E0584604B0BDE8F09F44F4806429
:10037000A9697F1C01988847761E8246002E02DDFF
:10038000BAF1300F03D0B9F1000F26D032E0A969DD
:10039000761E44F400747F1C019888478246002E24
:1003A00005DDBAF1780F06D0BAF1580F03D0B9F1D4
:1003B000000F10D01EE0B9F1000F02D0B9F1100FFC
:1003C00018D1A969761E24F400747F1C019888470F
:1003D0008246102002E0082000E00A20814609E061
:1003E00008FB0908A969761E44F400747F1C019873
:1003F00088478246002E05DD4946504600F0C7F981
:100400000028EDDAE96901988847A00502D46FF069
:100410000100A8E7E00725D1600613D5600502D5E5
:10042000C8F1000000E0404629680A1D2A600968FA
:10043000220501D5087015E0220701D5088011E0DA
:1004400008600FE02868011D29600068210502D5B9
:1004500080F8008006E0210702D5A0F8008001E0C6
:10046000C0F8008038467EE72DE9FF5FD2E901A79A
:100470004FF00008916999461446DDF838B04646B9
:1004800001988847054659EA0B0005D009E0A169A3
:10049000761C019888470546216A28468847002827
:1004A000F5D1681C03D05FEACA7005D015E04FF0A3
:1004B000FF3004B0BDE8F09F2068011D2160D0F836
:1004C00000800AE05FEACA7001D108F8015BA16907
:1004D000761C7F1E019888470546002F1ADD681C90
:1004E00018D0B9F1000F0DD0E81705EBD06042111C
:1004F00020F01F0059F822102A1A012090400142D2
:10050000E0D107E0BBF1000FDCD1216A2846884723
:100510000028D7D0E16901988847BBF1000F07D1C7
:10052000002E05DD5FEACA7002D1002188F80010B4
:10053000A068B84203DDBBF1000F03D017B16FF024
:100540000100B6E73046B4E72DE9FE4F81EA030427
:1005500004F0004421F0004100944FF0000B23F020
:10056000004350EA01045ED052EA03045BD0C3F3B7
:100570000A54C1F30A552C44A4F2F3340194A0FBAD
:100580000254C1F3130141F48011C3F3130343F484
:10059000801301FB024400FB034E840A970A44EADD
:1005A000815447EA8357A4FB076802958D0A05FB2F
:1005B00007854FEA932C04FB0C542705029D4FEA54
:1005C000065847EA1637B5EB08056EEB070C870EA1
:1005D000920E47EA811742EA8312A7FB0201B6EBAB
:1005E0000B0164EB00042B0D43EA0C335E1844EB63
:1005F0001C50DA465146E7FB0201C5F313044FEAEB
:100600000B3343EA14534FEA0432019C43EA0603D6
:10061000A4F10C040294009CCDE900B400F009F9A7
:1006200003B0BDE8F08F00200146F9E72DE9F04D59
:1006300081EA030404F0004B21F0004514464FF01A
:10064000000A23F0004150EA050220D054EA0102DA
:100650001DD0C5F30A570246C5F31303C1F31300B7
:10066000C1F30A5640F4801543F48013A7EB060843
:10067000101BD64608F2FD3873EB050002D308F1D3
:10068000010801E092185B41B8F1000F03DA002085
:100690000146BDE8F08D00204FF4801106468446E7
:1006A0000EE0171B73EB050705D3121B63EB050365
:1006B00006434CEA010C49084FEA300092185B41AE
:1006C00050EA0107EDD152EA030012D082EA040099
:1006D00083EA0501084305D0101BAB4106D2012275
:1006E000002306E000224FF0004302E06FF0010219
:1006F00053101AEB06004CEB085110EB0A0041EBCB
:100700000B01BDE8F04D00F085B80EB540F2334165
:1007100002910021CDE900110A460B4600F089F84C
:1007200003B000BD30B50B46014600202022012455
:1007300009E021FA02F59D4205D303FA02F5491BAF
:1007400004FA02F52844151EA2F10102F1DC30BDC5
:10075000202A04DB203A00FA02F100207047914081
:10076000C2F1200320FA03F3194390407047202A76
:1007700004DB203A21FA02F00021704721FA02F34B
:10078000D040C2F1200291400843194670473A28F0
:1007900000D2303820F02002412A01D3A2F13700E4
:1007A000884201D34FF0FF307047000002681144C7
:1007B0001378016018467047D160044951610449BB
:1007C000116200211161114600F082B9AD070008E5
:1007D000C50A0008426842B1016811F8013B23B123
:1007E000521EC0E90012184670470121C160881EE0
:1007F000704742685AB1C368016843B983688B4245
:1008000005D0491E521CC0E90012002070474FF06D
:10081000FF30704710B5141E73F1000408DA401C55
:1008200041F1000192185B411A4301D120F001000F
:1008300010BD2DE9F04D92469B4611B1B1FA81F2FF
:1008400002E0B0FA80F220329046FFF781FF0446C2
:100850000F4640EA0A0041EA0B0153465A46084354
:1008600013D0114653EA010019D0C8F14002504696
:10087000FFF77DFF05460E46504659464246FFF7B4
:1008800067FF084305D0012004E020463946BDE853
:10089000F08D0020054346EAE0762C4337430A9862
:1008A0006305E40AA0EB08000022FD0A44EA47546D
:1008B0000A3002D500200146E9E701051019694117
:1008C000DDE9084500196941BDE8F04DA2E72DE9D1
:1008D000FE4F804681EA0300C00F0C46009021F0D5
:1008E000004123F00045B8EB0200A94105D2404683
:1008F000214690461C460B46024623F0004010431A
:1009000047D0270DC7F30A00C3F30A510290401ADB
:10091000019040286BDAC3F3130040F4801B009869
:10092000924620B10023D2EB030A63EB0B0B019834
:100930005946C0F140025046FFF70AFF06460D46F1
:1009400050465946019A00F0ABF810EB080061419F
:10095000002487EA115284EAE7731A4340D0009AD0
:1009600062B3019A012A4FEA075215DC001B61EBC2
:1009700002014FF0004202EA0752CDE90042001C9A
:1009800041F5801132462B46FFF753FF03B0BDE817
:10099000F08F40462146F9E7001B61EB0201001C85
:1009A00041F5801300185B412018A2F5001747EBB2
:1009B000030140EAD570B6196D4111E06D084FEAA8
:1009C000360645EAC0754FEA0752001B61EB02018B
:1009D000001C41F5801149084FEA300000195141CF
:1009E00032462B4603B0BDE8F04FFFF713BF009827
:1009F000012240000023D0EB020263EBE073009879
:100A000021464FEAE074B8EB000061EB0401E9E72E
:100A100083F000435BE781F0004158E7C1F30A52DD
:100A2000C1F3130140F2FF3341F480119A4202DA1C
:100A300000200146704740F233439A42A2F233420B
:100A400002DC5242FFF793BEFFF782BE30B5041EB0
:100A500071F1000404DB4FF00044404264EB0101FB
:100A6000141E73F1000405DB1C464FF00043524294
:100A700063EB0403994208BF904230BD064C074D1A
:100A800006E0E06840F0010394E80700984710345E
:100A9000AC42F6D3FFF7A4FB38670008586700089C
:100AA000202A06DBCB17203A41FA02F043EAE07332
:100AB00006E041FA02F3D040C2F12002914008431F
:100AC00019467047C0B24FF4F05100F099B90000D8
:100AD0002DE9F34F8BB04FF0000801F10C000C46EC
:100AE0004FF0010B46460DF1080A019062690121A1
:100AF00001989047051E2DD0252D2CD0216A8847BE
:100B0000C0B16269012101989047216A8847002895
:100B1000F7D1411E62690198904700E0761CA169F7
:100B20000B988847216A88470028F7D1E1690B981C
:100B30008847DBE7A1690B9888470746A84201D19F
:100B4000761CD3E7E1690B9888477F1C02D1B8F186
:100B5000000F6FD047E1002762693D463946019892
:100B600090472A2804D16269012101989047012504
:100B7000DFF888926269012101989047A0F1300165
:100B80000A290AD24F45E5DC07EB870100EB410754
:100B9000303FDFD445F01005ECE7E90601D46FF0F3
:100BA00000476C280AD04C2814D0682815D06A2831
:100BB0000DD074281CD07A281AD01DE0626901215A
:100BC000019890476C2802D045F0040514E045F0E8
:100BD00002050DE045F020050AE062690121019857
:100BE0009047682802D045F0080505E045F4006507
:100BF0006269012101989047C4E9015765283DD0F9
:100C000019DC58287AD00CDC452837D004DC25289C
:100C100026D0412831D131E046282FD047282CD189
:100C20002CE05B2877D0612828D063287CD064280A
:100C300023D15AE0D1E06F2848D008DC66281DD0C7
:100C400067281BD0692821D06E2816D127E070288C
:100C500045D0732868D0752847D078280DD14DE04D
:100C6000A1690B988847054625283FF469AFE169DB
:100C70000B9888476D1C3FF46AAFB4E023466A4680
:100C80006FF001000B99AFF300809FE045F040004A
:100C90006060A80723464FF0000236D43EE0E80724
:100CA0007FF447AF2068011D21600068290501D548
:100CB00006701BE7290701D5068017E7A90703D5AA
:100CC000F117C0E9006111E706600FE745F0400049
:100CD0006060A80723464FF0080216D41EE040F6D5
:100CE0000E0125EA0100606016E045F040006060FA
:100CF000A80723464FF00A0207D40FE045F0400052
:100D00006060A80708D5234610226FF001000B99F8
:100D1000AFF300805AE007E0234610226FF0010095
:100D20000B99FFF7FBFA51E04FF000094F464B4695
:100D3000632802D05B2807D041E02079C00601D4A7
:100D40000120A06001273AE06269012101989047E3
:100D50005E2805D14FF00109626949460198904724
:100D6000216939B900210A46534643F82120491C1C
:100D70000829FADBB0B3216969B9C11700EBD16268
:100D800053110AEB830122F01F02821A01200B6823
:100D9000904003430B6062690121019890475D28F0
:100DA000E8D1B9F1000F09D00020514651F82020B8
:100DB000D24341F82020401C0828F7DB02AB224632
:100DC00000976FF001000B99FFF74EFB00280CDA3B
:100DD000401C08D1BBF1000F05D04FF0FF300DB023
:100DE000BDE8F08FFFE74046F9E7E90701D108F1D8
:100DF000010806444FF0000B78E60000CCCCCC0C88
:100E00007F2801D9002208E0064A02EB5002C00701
:100E1000127800D1120902F00F0201209040084020
:100E200070470000F8660008FEE700002DE9F04773
:100E30002DED048B7FA288B007CA05ADDFF800A2B4
:100E400085E807009AF806007E4D00EBC00005EB30
:100E50004000002633465446408903F0CDF81C304C
:100E600005F190088DF8150098F80F1098F810000B
:100E7000C1EB011100EB810CA17901EBC10005EB85
:100E80004000C27B077CC2EB021407EB8404A4453C
:100E900002D94FF0010901E04FF000093A445446ED
:100EA000944501D2012200E0002201EBC10105EBD3
:100EB0004101A9EB0209097B002705AA491E04E0AC
:100EC00012F807C07F1C6644B6B2B942F8DC417B19
:100ED00098F80CC031448FB200214646ACF1010CA9
:100EE00005E000BF12F80180491C43449BB28C45C9
:100EF000F8DC717B408919448BB203F07DF8A1794D
:100F0000B6F80AC001EBC10105EB410100F26D101A
:100F10004A89ACEB020C0CFB0030C01BB37B00EB2E
:100F2000400003EBC003887B1F1A07EB0903E38132
:100F3000CF7B0B7C91F80DC0CDE902070493CDF86F
:100F400004C0087B0090481D134602463EA003F0F3
:100F5000F5FD707B0DF10408337CF27BB17B88E8F2
:100F60000F00307B009037497389721D903136A095
:100F700003F0E4FDA07900EBC00005EB40013BA0CD
:100F8000FFF79DF92E4E9FED3B9B0936E0B130787F
:100F9000FFF7BBFB53EC192BFFF748FB41EC180B99
:100FA000E0890746FFF7B1FB53EC182BFFF7CCFAAB
:100FB000CDE90001A0793B4600EBC00005EB400104
:100FC0004A1D2EA003F0BAFDA07900EBC00005EB8E
:100FD00040012EA0FFF773F9E0B17078FFF795FBA1
:100FE00053EC192BFFF722FB41EC180BE089064666
:100FF000FFF78BFB53EC182BFFF7A6FACDE90001A6
:10100000A079334600EBC00005EB40014A1D1BA050
:1010100003F094FDA079122100EBC00005EB400025
:10102000FFF742F90020A07108B0BDEC048BBDE8C9
:10103000F08700001F001F1E1F1E1F1F1E1F1E1FE8
:1010400018000020BC01002025733A25733A253092
:1010500032642530326425303264253032642530E4
:101060003264253032640D0A00000000434E4252C3
:1010700000000000000000000000244025733A2515
:10108000733A25643A252E32660D0A00564E4252B6
:101090000000000010B5274886B0421E811EC31E06
:1010A000CDE90420CDE90231001F811ECDE90010F9
:1010B000A0F10C04631D0F3A1FA12848FFF712F995
:1010C000214627A0FFF7FBF828B9214626A0FFF705
:1010D000F6F8002829D0608948B3217B0D2926D253
:1010E000627B202A23D2A37B182B20D2E37B3C2BCC
:1010F0001DD2237C3C2B1AD2C9B1C2B102F07CFFB5
:10110000012804D0608902F077FF38B10FE0207B1E
:10111000022809D1607B1D2809D805E0207B022820
:1011200002D1607B1C2802D8012006B010BD00202F
:10113000FBE700005C0200202534733A2534733A43
:1011400025303264253032642530326425303264F3
:101150002530326425303264000000008001002018
:10116000564E425200000000434E42520000000022
:101170002DE9F05F674F684E0025A7F1900A00BF88
:1011800005EBC5010AEB4104601D791DFFF797F8D7
:1011900000287DD020465F49FFF791F8002877D0DE
:1011A0007889DFF878C14FF00009A0FB0C2809FB13
:1011B0000C81022300FB0310397B594B42F2107C57
:1011C000594312EB010840EBE170797B554A01FB72
:1011D00002F1BA7B4FEAE17312FB0CF2891843EB80
:1011E000E27318EB01025841F97B642311FB03F110
:1011F000521840EBE170397CDFF81CE15218AEF177
:101200000B0E40EB0900CEE90420934605EBC50226
:101210000AEB4201DFF804C149890227A1FB0C381F
:1012200009FB0C8201FB0721227B3D4F42F2107C1F
:101230007A4313EB020841EBE271627B394B02FB0C
:1012400003F2A37B4FEAE27713FB0CF3D21847EBD0
:10125000E37718EB02037941E27B642712FB07F284
:101260009B1841EBE271227C9B1841EB0901CEE90E
:101270000631BBEB0302884116D38EF80650254990
:1012800029A0FFF71CF810B13078401E307000E044
:101290000FE0204926A0FFF712F810B17078401E29
:1012A00070700120BDE8F09F12211A48FEF7FCFF84
:1012B0000EE0601D791DFFF702F80028F4D1607C74
:1012C00040B1072DF0D06D1CEDB2082DFFF458AFE2
:1012D0000020E7E7681C787405EBC5010AEB4100C4
:1012E00012220C49FEF7C7FF0A490FA0FEF7E7FFDD
:1012F00010B13078401C307006490DA0FEF7DFFFBA
:1013000010B17078401C707012210248FEF7CCFFBB
:101310000220C7E74C0200202300002000E40B5409
:101320008096980040420F00434E42520000000059
:10133000564E4252000000007047002240F6B8337B
:1013400006E00021491C89B29942FBD3521C92B29B
:101350008242F6D3704772B6FEE710B590F825309A
:1013600000210122022B03D00421C163012122E0CC
:1013700003681C6824F00E041C60836C1C6824F451
:1013800080741C6003681C6824F001041C6090F8E1
:101390004430046C03F01F0302FA03F36360D0E9E6
:1013A00013345C60436D33B11C6824F480741C609A
:1013B000D0E916345C6080F82520002280F82420D3
:1013C000084610BD70B590F8252000240121234661
:1013D000022A07D00422C26380F8251080F8243046
:1013E000012429E00268156825F00E0515600268E1
:1013F000156825F001051560826C156825F4807567
:10140000156090F84420056C02F01F0201FA02F208
:101410006A60D0E913255560426D32B1156825F434
:1014200080751560D0E91625556080F8251080F884
:101430002430816B01B18847204670BD70B50446E9
:1014400000F03CF90546601C02D0044840680444A2
:1014500000F034F9401BA042FAD370BD40000020D8
:101460002DE9F04FDFF82092002301260324A9F193
:10147000040B85B00F2709F1040AABF1040EFAE062
:1014800006FA03F52A407CD091F804C00CF0030C56
:10149000BCF1010F02D0BCF1020F26D1D0F808C078
:1014A000CDF800C04FEA430C04FA0CF8CDF810C098
:1014B000DDF800C02CEA080CCDF800C0D1F80C8093
:1014C000DDF810C008FA0CF8DDF800C048EA0C0896
:1014D000C0F80880D0F804C02CEA050C0D79C5F3DB
:1014E00000159D4045EA0C0545600D79ED43AD07BB
:1014F0000ED0C5684FEA430804FA08FC25EA0C053B
:10150000D1F808C00CFA08FC4CEA050CC0F80CC075
:101510000D7905F00305022D16D1DD0800EB850CD1
:10152000CDF808C0DCF820805D074FEAD56C07FADB
:101530000CF528EA05080D6905FA0CF5DDF808C078
:1015400045EA0805CCF8205005684FEA430CCDF871
:1015500008C004FA0CFC25EA0C0591F804C00CF054
:101560000308DDF808C008FA0CF848EA0508C0F8D6
:1015700000804D6815F4403F7CD0444DD5F860C0E4
:1015800000E077E04CF0010CC5F860C02D6E23F050
:10159000030C05F0010500953D4D65440295AD68CD
:1015A0004FEA837C4FEA1C7807FA08FC25EA0C0511
:1015B000B0F1904F06D0DFF8DCC0604505D14FF0A8
:1015C000010C20E04FF0000C1DE0DFF8CCC06045BE
:1015D00002D14FF0020C16E0DFF8C0C0604502D126
:1015E0004FF0030C0FE0DFF8B8C0604502D14FF0B8
:1015F000040C08E0DFF8ACC0604502D14FF0050CE8
:1016000001E04FF0060C0CFA08FC4CEA050C029DB8
:10161000C5F808C0D9F80050CC46D1F804809543ED
:101620005FEAC82800D51543CCF80050DAF800501E
:10163000D446D1F8048095435FEA882800D5154345
:10164000CCF80050DBF80050DC46D1F8048095431C
:101650005FEA883800D51543CCF80050DEF800501A
:10166000F446D1F8048095435FEAC83800D51543A5
:10167000CCF800505B1C0A6832FA03F57FF400AF27
:1016800005B0BDE8F08F00000804014000100240E2
:10169000000001400004004800080048000C004819
:1016A00000100048001400480069084000D00120E4
:1016B00070470AB181617047816270470148806854
:1016C00070470000400000200248816842681144D1
:1016D000816070474000002010B50024032000F016
:1016E00073F80F2000F008F808B1012401E000F0C1
:1016F00025F8204610BD000070B50E4E05460024AA
:10170000706898B14FF47A71B1FBF0F00A4909683A
:10171000B1FBF0F000F060FD40B9102D06D20022C0
:101720002946501E00F030F8356000E001242046C4
:1017300070BD0000400000204C0000200A4882B02C
:10174000016E41F001010166016E01F0010100919D
:10175000816D41F080518165806D00F08050009076
:1017600002B000F0A1B8000000100240002809DB20
:1017700000F01F02012191404009800000F1E020AB
:10178000C0F8001170470000F0B40E4B1B680C4607
:10179000C3F30223C3F10705042D00D90425191D45
:1017A000072901D2002300E0DB1E012606FA05F11D
:1017B000491E214099409E40761E16403143F0BCA0
:1017C00003F0E0B90CED00E0064900F007020868FC
:1017D0004FF6FF03184040EA0220034A1043086016
:1017E000704700000CED00E00000FA052B492C4B7F
:1017F0000A6832214A432B4940B1B0F5007F08689E
:1018000029D020F4C06040F480602CE00868C0F368
:101810004120022804D051F8800F20F4807022E08B
:10182000D1F8800020F48070C1F88000086820F4AE
:10183000C06040F400700860B2FBF3F0401C00E0B0
:10184000401E4A69520501D50028F9D14869400572
:101850000AD503207047C0F34120022806D051F872
:10186000800F40F48070086000207047D1F880003D
:1018700040F48070C1F88000086820F4C06040F433
:1018800000700860B2FBF3F0401C00E0401E4A69A3
:101890005205DBD50028F9D1D8E700004C00002024
:1018A00040420F00007000400248816841F48041CE
:1018B00081607047007000402DE9F84304460068DD
:1018C00000269D4D00035ED5A86D0027C00008D4FA
:1018D000A86D40F08050A865A86D012700F08050E9
:1018E0000090DFF85892D9F8001041F48071C9F8DF
:1018F0000010FFF7E3FE804606E000BFFFF7DEFEC4
:10190000A0EB080002282BD8D9F80000C005F5D5B7
:10191000D5F8900010F4407014D0216C814211D0A1
:10192000D5F89000D5F8901020F4407041F4803143
:10193000C5F89010D5F8901021F48031C5F89010BA
:10194000C5F89000C00711D0FFF7B8FE804641F2FD
:10195000883907E0FFF7B2FEA0EB0801494501D93D
:1019600003260BE0D5F890008007F3D5D5F890005A
:10197000216C20F440700843C5F890001FB1A86D99
:1019800020F08050A8652078C00707D0D5F88800DF
:10199000616820F003000843C5F8880020788007BC
:1019A00007D5D5F88800A16820F00C000843C5F8D9
:1019B00088002078400707D5D5F88800E16820F036
:1019C00030000843C5F888002078000707D5D5F80F
:1019D0008800216920F0C0000843C5F888002078FD
:1019E000800607D5D5F88800616920F44060084377
:1019F000C5F888002078400607D5D5F88800A16989
:101A000020F440500843C5F888002078000607D528
:101A1000D5F88800E16920F440400843C5F8880003
:101A20002088C00507D5D5F88800216A20F4403009
:101A30000843C5F888002088800507D5D5F88800B8
:101A4000616A20F440200843C5F8880020884005DA
:101A50000FD5D5F88800A16A20F440100843C5F8D6
:101A60008800A06AB0F5801F03D1E86840F48010B8
:101A7000E860208800050FD5D5F88800E16A20F4D9
:101A800040000843C5F88800E06AB0F5800F03D134
:101A9000E86840F48010E8602088C0040FD5D5F8CD
:101AA0008800216B20F040700843C5F88800206B47
:101AB000B0F1807F03D1E86840F48010E8602088AE
:101AC0004FF0006180040ED5D5F88800626B20F0DD
:101AD00040601043C5F88800606B884203D1E86815
:101AE00040F48010E860208840040ED5D5F88800C6
:101AF000A26B20F040601043C5F88800A06B8842BC
:101B000003D1E86840F48010E860208800040FD515
:101B1000D5F88800E16B20F040500843C5F88800F4
:101B2000E06BB0F1805F03D1E86840F48030E8609A
:101B30003046BDE8F883000000100240007000400D
:101B40002DE9F0470E4605004FF0000725D0DFF8DD
:101B5000AC81D8F8000000F00F00B0420CD2D8F8E9
:101B6000001021F00F013143C8F80010D8F8000030
:101B700000F00F00B04210D12968614CC80741F253
:101B8000883A5AD06868DFF87C91032808D0022888
:101B900020682DD0400500282CDB0120BDE8F0870F
:101BA00020688001F9D5E06800F00302E068C0F326
:101BB0000310401C032A19D0534A00BFB2FBF0F0B7
:101BC000E268C2F306225043E268C2F34162521C4B
:101BD0005200B0FBF2F0484517D9A06810F0F00FA2
:101BE0000CD0880711D5A86840B10EE0474AE5E758
:101BF0008003D0E700F0B6F8484506D9A06820F089
:101C0000F00040F08000A0608027A068696820F0A4
:101C100003000843A060FFF751FD814606E000BFC6
:101C2000FFF74CFDA0EB090151453AD8A06869685F
:101C300000F00C00B0EB810FF2D12868810714D5B9
:101C4000400703D5A06840F4E060A0602878000752
:101C500005D5A06820F4605040F4E060A060A06862
:101C6000A96820F0F000084304E0802F03D1A068A9
:101C700020F0F000A060D8F80010404601F00F01FD
:101C8000B14216D9016821F00F0131430160FFF71D
:101C900015FD074607E000BFFFF710FDC11B5145CA
:101CA00001D903207AE7D8F8000000F00F00B04215
:101CB000F2D12878400705D5A068E96820F4E060F3
:101CC0000843A0602878000706D5A068296920F499
:101CD000605040EAC100A06000F044F8A1680C4ADE
:101CE000C1F30311515C01F01F01C84009490860AC
:101CF00009480068BDE8F047FFF7FEBC002002403D
:101D00000010024000B4C4040024F40000366E0148
:101D1000E06600084C00002040000020054806490D
:101D200000688968054AC1F30221515C01F01F0176
:101D3000C84070474C00002000100240F0660008C8
:101D40000548064900688968054AC1F3C221515C0B
:101D500001F01F01C84070474C00002000100240F5
:101D6000F0660008184910B58868C0F3810217486A
:101D7000012A0BD08A68164BC2F38102022A06D0D0
:101D80008A68C2F38102032A03D0002010BD1846DE
:101D900010BDCA6802F00304CA68C2F30312521CE1
:101DA000032C02D0B0FBF2F001E0B3FBF2F0CA6802
:101DB000C968C2F306225043C1F34161491C49007E
:101DC000B0FBF1F010BD0000001002400024F40050
:101DD00000366E012DE9F84304007AD02078F84DE2
:101DE000C00747D0A868E96800F00C0001F00301C3
:101DF0000C2802D0082817D001E0032914D060680D
:101E0000B0F5803F17D0B0F5A02F286817D020F488
:101E100080302860286820F4802028606068E0B165
:101E2000FFF74CFC064614E02868800322D5606862
:101E30000028D2D01EE0286840F48030EDE740F45E
:101E400080202860F7E700BFFFF738FC801B64287C
:101E500070D828688003F7D50CE0FFF72FFC064602
:101E600005E000BFFFF72AFC801B6428F0D8286833
:101E70008003F7D4207880074CD5A868E96800F083
:101E80000C0001F003010C2802D004280DD001E061
:101E900002290AD0E068002828682BD040F480701E
:101EA0002860FFF70BFC064619E02868400502D5BC
:101EB000E068002891D06868217C20F0FE4040EA6C
:101EC00001606860BF480068FFF716FC002800D179
:101ED00020E072E1FFF7F2FB801B0228B8D82868E7
:101EE0004005F7D56868217C20F0FE4040EA01609B
:101EF00068600FE020F480702860FFF7DFFB064683
:101F000005E000BFFFF7DAFB801B0228A0D8286895
:101F10004005F7D42078000729D560690028D5F856
:101F2000940013D040F00100C5F89400FFF7C6FB01
:101F3000064606E090E000BFFFF7C0FB801B0228CA
:101F400086D8D5F894008007F6D510E020F001007F
:101F5000C5F89400FFF7B2FB064604E0FFF7AEFBBE
:101F6000801B022878D8D5F894008007F6D4207812
:101F7000400761D5A86D0026C00008D4A86D40F0C8
:101F80008050A865A86D012600F0805000908E4812
:101F90000168C90511D40168804641F4807101606F
:101FA000FFF78CFB074604E0FFF788FBC01B022805
:101FB00052D8D8F80000C005F6D5A068012815D081
:101FC0000528D5F8900016D020F00100C5F8900043
:101FD000D5F8900020F00400C5F89000A06841F208
:101FE0008838B8B1FFF76AFB07460EE0D5F89000D5
:101FF00040F00100F0E740F00400C5F89000F5E77C
:10200000FFF75CFBC11B414526D8D5F8900080073F
:10201000F6D50CE0FFF752FB074604E0FFF74EFB56
:10202000C11B414518D8D5F890008007F6D41EB1E1
:10203000A86D20F08050A8652078800629D5A06979
:102040000028D5F8980013D040F00100C5F898009A
:10205000FFF734FB064606E075E000BFFFF72EFBF6
:10206000801B02286FD8D5F898008007F6D510E0BD
:1020700020F00100C5F89800FFF720FB064604E0B9
:10208000FFF71CFB801B02285DD8D5F8980080075D
:10209000F6D4E069F0B3A968C1F3810103295DD0EA
:1020A0000228286820F08070286003D0FFF706FB24
:1020B00004464BE0FFF702FB064604E0FFF7FEFA9A
:1020C000801B02283FD828688001F7D4F4E9080172
:1020D0006FF00F0202EB01110843218A52044908F4
:1020E00002EB4151A26841EA02210843217D4FF0F1
:1020F0007E42490802EB41610843217B40EAC1600E
:10210000E968324A11400843E860286840F080706E
:10211000286000E05EE0E86840F08070E860FFF76B
:10212000CDFA044605E000BFFFF7C8FA001B0228FD
:1021300009D828688001F7D54CE000BFFFF7BEFA48
:10214000001B022802D90320BDE8F883286880011B
:10215000F4D4E8681E490840E8603BE00128F3D069
:10216000E868226A00F00301914226D1616A00F01A
:10217000F0020901103991421FD1A26A00F4FE4118
:10218000B1EB022F19D194F82C2000F07841B1EB7B
:10219000C26F12D1218E00F4C00249084905A1F591
:1021A0000011914209D194F8341000F0C060490840
:1021B0004906A1F1007181420CD00120C4E7000062
:1021C0000010024040000020007000400C809F0181
:1021D000FCFFEEFE0020B7E710B5401EB0F1807F97
:1021E00001D3012010BD4FF0E02460610F21601782
:1021F00002F0C8FC0020A06107202061002010BD73
:10220000704770477047704770477047F0B590F857
:102210003C20012A3AD0012580F83C50022280F867
:102220003D2003685A689C68194E1A4FB34201D08A
:10223000BB4204D122F4700C4A6842EA0C02DFF877
:1022400058C002EA0C02D1F800C04CEA020CC3F8F4
:1022500004C00268B2420DD0B2F1804F0AD00F4BD9
:102260009A4207D00E4B9A4204D0BA4202D00D4B8C
:102270009A4204D1896824F080031943916080F860
:102280003D50002180F83C100846F0BD0220F0BD12
:10229000002C0140003401408FFFFFFD000400408E
:1022A0000008004000400140704710B5040003D012
:1022B00094F83D0010B107E0012010BD002084F823
:1022C0003C00204600F022F8022084F83D00211D49
:1022D000206801F08FFC012084F8480084F83E005B
:1022E00084F83F0084F8400084F8410084F84200FC
:1022F00084F8430084F8440084F8450084F84600DC
:1023000084F8470084F83D00002010BD08B500683F
:102310000B49884212D10B48816D41F01001816553
:10232000806D002200F01000009011463620FFF76B
:102330002BFABDE808403620FFF718BA08BD0000A8
:10234000001000400010024090F83D10012901D01B
:1023500001207047022180F83D100168CA6842F0F0
:102360000102CA600068104988420ED0B0F1804F67
:102370000BD00E49884208D00D49884205D00D493E
:10238000884202D00C49884207D181680B4A11402B
:10239000062906D0B1F5803F03D0016841F0010164
:1023A0000160002070470000002C01400004004044
:1023B00000080040003401400040014007000100D7
:1023C00070472DE9F04104460068C66805694FF082
:1023D0000007A90713D5B10711D5F91E0161012026
:1023E0002077206880698007204602D0FFF7E8FF49
:1023F00004E000F0DFF8204600F0B4F92777680722
:1024000016D5700714D521686FF00400086102200A
:1024100020772068806910F4407F204602D0FFF7C3
:10242000CFFF04E000F0C6F8204600F09BF92777C4
:10243000280715D5300713D521686FF0080008610B
:10244000042020772068C0698007204602D0FFF76B
:10245000B7FF04E000F0AEF8204600F083F92777DC
:10246000E80616D5F00614D521686FF01000086153
:10247000082020772068C06910F4407F204602D0F1
:10248000FFF79EFF04E000F095F8204600F06AF99F
:102490002777E80708D0F00706D021686FF0010021
:1024A0000861204600F0DEF9280601D4A80408D50A
:1024B000300606D521686FF4025008612046FFF708
:1024C000A0FEE80508D5300606D521686FF48070B7
:1024D00008612046FFF794FE680608D5700606D509
:1024E00021686FF040000861204600F0EDF9A80671
:1024F00008D5B00606D521686FF020000861204697
:10250000FFF780FEE80208D5F00206D521686FF4D7
:10251000801008612046FFF777FEA80208D5B002B8
:1025200006D521686FF4001008612046FFF76BFEA6
:10253000680208D5700206D521686FF48000086132
:102540002046FFF762FE28020AD5300208D521682E
:102550006FF4000008612046BDE8F041FFF7A4BE1B
:10256000BDE8F08110B586B0044614216846FDF739
:102570009BFE0E492068884215D10D48C16C41F080
:102580000101C164C06C002100F0010005908020B1
:1025900000900220CDE90101CDE9031069464FF01A
:1025A0009040FEF75DFF06B010BD00000004004043
:1025B00000100240704770B5044690F83C000026B9
:1025C0000D4601280BD0012084F83C000C2A4AD08B
:1025D00007DC82B1042A20D0082A06D131E002208B
:1025E00070BD102A53D0142A63D00126002084F82D
:1025F0003C00304670BD206801F068FB20688169AE
:1026000041F0080181612068816921F00401816144
:10261000206881692A69114311E0206801F0A4FB58
:102620002068816941F4006181612068816921F439
:1026300080618161206881692A6941EA02218161A2
:10264000D4E7206801F0D8FB2068C16941F0080197
:10265000C1612068C16921F00401C1612068C169BC
:102660002A69114311E0206801F00EFC2068C1695D
:1026700041F40061C1612068C16921F48061C161D8
:102680002068C1692A6941EA0221C161AEE7206878
:1026900001F042FC2068016D41F0080101652068ED
:1026A000016D21F0040101652068016D2A69114363
:1026B00011E0206801F068FC2068016D41F40061C0
:1026C00001652068016D21F4806101652068016D5C
:1026D0002A6941EA0221016588E710B5040003D0A8
:1026E00094F83D0010B107E0012010BD002084F8EF
:1026F0003C00204600F022F8022084F83D00211D15
:10270000206801F077FA012084F8480084F83E0040
:1027100084F83F0084F8400084F8410084F84200C7
:1027200084F8430084F8440084F8450084F84600A7
:1027300084F8470084F83D00002010BD08B500680B
:102740000649884208D10648816D41F00201816541
:10275000806D00F00200009008BD00000004004001
:10276000001002407047000030B50446022269B1F3
:10277000042912D0082917D00C291CD0102921D0E7
:1027800094F84300012824D0012030BD94F83E0085
:102790000128F9D184F83E201DE094F83F0001287B
:1027A000F2D184F83F2016E094F840000128EBD1E4
:1027B00084F840200FE094F841000128E4D184F827
:1027C000412008E094F842000128DDD184F842203D
:1027D00001E084F843200122206801F069FA194BD6
:1027E00020681949194A984209D0884207D0904276
:1027F00005D0174DA84202D0164DA84203D1456C12
:1028000045F400454564206898420CD0B0F1804FF3
:1028100009D0114B984206D0104B984203D0884201
:1028200001D0904207D181680D4A1140062906D097
:10283000B1F5803F03D0016841F001010160002043
:1028400030BD0000002C0140003401400040014038
:1028500000440140004801400004004000080040DE
:10286000070001001649884229D116488188491C71
:1028700089B28180B1F57A7F01D10021818089B24E
:102880000922B1FBF2F302FB13120AB90122027012
:102890003122B1FBF2F302FB13120AB902220270D9
:1028A0005922B1FBF2F302FB13120AB903220270A0
:1028B00001F0070003490C31095C00F021BE7047AC
:1028C000A000002000000020704790F8841001292B
:1028D00018D0012180F884102421C0F888100168E4
:1028E0000A680B6823F001030B6022F000510022FC
:1028F0004266036819602021C0F8881080F884209F
:1029000010467047022070477047704770B5044604
:1029100090F8840001281DD0012084F88400242030
:10292000C4F8880020680568026822F0010202608D
:102930002068826822F060620A438260204601F0CB
:1029400071FB206805602020C4F88800002084F80E
:10295000840070BD022070BD70B5044690F88400FC
:1029600001281DD0012084F884002420C4F88800A8
:1029700020680568026822F001020260206882680F
:1029800022F060420A438260204601F04BFB20683F
:1029900005602020C4F88800002084F8840070BD01
:1029A000022070BD70477047704700002DE9F0416C
:1029B00003680446D86919689A6840F60F052842EA
:1029C0004FF000054FF002060AD187067ED501F0D0
:1029D000200702F0805C57EA0C0777D0616F3AE17C
:1029E000B24FDFF8CCC2174001EA0C0C57EA0C0CCE
:1029F0006CD05FEAC07C0CD05FEAC15C09D54FF0B7
:102A0000010CC3F820C0D4F8903043F00103C4F89F
:102A10009030830709D5D30707D023681E62D4F806
:102A2000903043F00403C4F8903043070AD5D3072D
:102A300008D0266804233362D4F8903043F00203B0
:102A4000C4F8903003070CD501F020033B4308D0B5
:102A5000266808233362D4F8903043F00803C4F8A2
:102A6000903003050BD54B0109D526684FF4006360
:102A70003362D4F8903043F02003C4F89030D4F897
:102A80009030002B3DD0800609D501F0200002F0E7
:102A90008051084303D0616F09B120468847D4F8BC
:102AA000900021688968490602D410F0280F2AD0C6
:102AB000204601F09DFB2068806840061ED52068F6
:102AC000083050E8001F21F0400100E021E040E81C
:102AD0000012002AF3D1D4F8800078B175498163DF
:102AE000D4F88000FEF76EFC00280AD0D4F88000ED
:102AF000816B00E02046BDE8F04108472046FFF723
:102B000053FFBDE8F0812046FFF74EFFC4F8905018
:102B1000F7E7D4F86CC02027BCF1010F7ED15FEA43
:102B2000C06C7BD55FEAC16C78D510201862206834
:102B30008068400645D5D4F88010086840680004D5
:102B4000000CDED0B4F85C208242DAD9A4F85E0032
:102B50000868006880062CD4216851E8000F20F432
:102B6000807041E80002002AF6D12068083050E861
:102B7000001F21F0010140E80012002AF5D1206871
:102B8000083050E8001F21F0400140E80012002A00
:102B9000F5D1C4F88C70E566206850E8001F21F07C
:102BA000100140E80012002AF6D1D4F88000FEF7A8
:102BB000D4FB2667B4F85C00B4F85E10401A81B20A
:102BC00030E0B4F85C00B4F85E10401A81B2B4F89A
:102BD0005E00002895D0002993D0226852E8000FAB
:102BE00020F4907042E80003002BF6D12F4BDB431A
:102BF0002068083050E8002F1A4040E8002CBCF153
:102C0000000FF5D1C4F88C70E5666567226852E85C
:102C1000000F20F0100042E8000300E006E0002B67
:102C2000F4D126672046FFF76FFE6AE7C60209D592
:102C3000560207D54FF4801018622046BDE8F041D7
:102C4000FFF7B1BE03060AD501F0800302F40002CB
:102C5000134304D0A16F00297FF44CAF51E7420623
:102C600011D54A060FD52046026852E8001F21F010
:102C7000400142E80013002BF6D1C0F88870856748
:102C800000F02DF93DE7020206D54A0004D52046A2
:102C9000BDE8F041FFF786BEC001C6D50029C4DA01
:102CA0002046BDE8F041FFF730BE000001000010F3
:102CB00020010004DD41000810B5040003D0D4F861
:102CC000880010B107E0012010BD002084F88400C6
:102CD000204600F027F82420C4F888002068016806
:102CE00021F001010160A06A10B1204601F0BCF999
:102CF000204601F00FFD0128E6D02068416821F44C
:102D0000904141602068816821F02A01816020683B
:102D1000016841F0010101602046BDE8104001F06A
:102D200007BA000010B598B00446142111A8FDF7A9
:102D3000BBFA44216846FDF7B7FA1B492068884270
:102D400030D101200024CDE900046846FEF7B4FD2F
:102D500008B1FEF700FB1548016E41F480410166A1
:102D6000016E01F480411691C16C41F00101C16412
:102D7000C06C11A900F0010016904FF4C0601190D2
:102D80000220CDE912040720CDE914404FF0904015
:102D9000FEF766FB002211462520FEF7F5FC2520F4
:102DA000FEF7E4FC18B010BD0038014000100240EE
:102DB00030B4D0F88C30202B02D0022030BC7047C9
:102DC000A9B1A2B10023C3660A4C0368A3420BD089
:102DD0005B681B0208D5046854E8003F43F0806339
:102DE00044E80035002DF6D130BC01F0CDBD012006
:102DF000E4E7000000800040094988420ED10948FC
:102E0000016809488160094B817842785A54491C0D
:102E100081700122411C0248FFF7CABF70470000C1
:102E2000EC0000204800002000000020800100206D
:102E30002DE9F8430446D0F88800984616460D461A
:102E4000202802D00220BDE8F883A5B19EB1002061
:102E5000C4F890002120C4F888001834FEF72EFC36
:102E6000A6878146E68754F8100C2027183CB0F559
:102E7000805F02D003E00120E5E7206910B12E4613
:102E8000002510E000260EE08021204601F004FE1F
:102E9000C0B9DEB116F8010B21688862B4F856009B
:102EA000401EA4F85600B4F856004B464FF00002FE
:102EB000CDF800800028E7D14FF04001204601F016
:102EC000EBFD40B1C4F888700320BCE735F8020B75
:102ED000C0F30800E0E7C4F888700020B3E770474B
:102EE000FEE700002B4810B50178012950D10021E0
:102EF000017000F055F8284C2070E17820EA0102BA
:102F0000414062708143A170E0702079012A08D0AD
:102F100088B321486178C01D022914D0032918D034
:102F20001DE080F001002071002000F087F820797A
:102F300020B1B4F80900A4F80700EAE7B4F80700E4
:102F4000A4F8090017E00178491D01704178491D76
:102F500004E00178491F01704178491F41700178F0
:102F6000C82900D809B9232101704178C82900D89F
:102F700009B9142141706078042809D160790749A2
:102F800080F001006071096800EB800080008863B8
:102F900010BD000000000020180000205400002098
:102FA00070B50E4D002401212846FEF77DFB00B9C7
:102FB000012402212846FEF777FB00B902240421F0
:102FC0002846FEF771FB00B9032401214FF0904021
:102FD000FEF76AFB00B90424204670BD00040048D7
:102FE00000B585B014216846FDF75EF94FF6FF7015
:102FF000009000200321CDE90201019069460248BA
:10300000FEF72EFA05B000BD0008004800B585B0F7
:1030100014216846FDF748F94FF6FF700090012033
:103020000190032003900020029069460248FEF7B9
:1030300017FA05B000BD00000008004870B5002474
:1030400006462146204600F0AFF900F0F1F94FF4B2
:103050009635304600F0BCF9641CAC42F9D370BD23
:1030600070B586B014216846FDF71EF91E48C16C84
:1030700041F00401C164C16C01F004010591C16C0F
:1030800041F00101C164C16C01F001010591C16C05
:1030900041F00201C164C06C032500F002000590FC
:1030A0004FF448700124002603958DE851006946CD
:1030B0000E48FEF7D5F9200203958DE851004FF038
:1030C000904469462046FEF7CBF9FFF79FFFA069C1
:1030D00040F48070A06105481830016841F408711F
:1030E000016006B070BD00000010024000040048FE
:1030F000203AD2B2034B02EB420203EB021200F081
:1031000019B80000E8540008F0B50E46074600253F
:1031100040F23F1407E021463846FFF7E9FF103C34
:103120006D1CA4B2761C3278002A01D0142DF2D383
:10313000F0BD00002DE9F04791468A46002604467E
:1031400000F032F9DFF84080012700BF00F070F98D
:103150005FF0000539F8160007FA05F1084240460D
:1031600001D1408800E0008800F032F96D1C102D7C
:10317000F0D3641CE4B25146204600F015F9761CE9
:10318000182EE3D3BDE8F0873A00002010B5FFF712
:1031900067FF002000F0C0F8084CA080A088A0F5D0
:1031A0000241303906D000F09FFB002000F0B4F857
:1031B000A08010BD00F00FFBF7E700003A000020F0
:1031C00010B537482DED028B0178022964D100211A
:1031D000017034480079002836D033A1364801F018
:1031E000BDFC35491820FFF78FFF2E4CE41D2078D9
:1031F000FDF78BFA9FED318B53EC182BFDF716FA88
:1032000041EC100B2FA153EC102B2B4801F0A6FC26
:1032100029494820FFF778FF6078FDF776FA53ECEC
:10322000182BFDF703FA41EC100B2AA153EC102BDD
:10323000214801F093FC20495FF07800BDEC028B3F
:10324000BDE81040FFF760BF26A11B4801F086FCD7
:1032500019491820FFF758FF124C26A10B341648C5
:10326000227801F07BFC14494820FFF74DFF62787B
:1032700023A1114801F072FC0F497820FFF744FFA9
:1032800020786178C0F10800421A20A10A4801F0B4
:1032900065FC0949A820D1E7BDEC028B10BD0000F8
:1032A0000000002018000020202020202020205096
:1032B00061726120000000009E01002000000000FB
:1032C00000002440202020434E42523A252E3266F0
:1032D00020000000202020564E42523A252E326611
:1032E0002000000020202020202020446174612044
:1032F00000000000202020434E42523A2564200066
:10330000202020564E42523A256420002020204999
:10331000444C453A2564200070B51D490A6842F4C2
:1033200000720A600A6842F480720A60184C103C0D
:10333000226842F020022260164A1060086840F0BD
:103340002000086000BF00BF00BF206840F02000E0
:103350002060206840F480702060FFF741FE4FF04D
:103360009041886A40F48070886200BF00BF00BF4F
:103370000848001F006885B2886940F48070886141
:10338000FFF744FE206840F400702060284670BDBE
:10339000280400481408004801B5BDF800000149A0
:1033A000488008BD3A00002010B50C460146202098
:1033B00000F06EF82146BDE81040212000F068B80A
:1033C00001B5BDF800000149088008BD3A000020A1
:1033D00030B5154B1C68154A116841F40071116035
:1033E000124910390D6845F480750D600D6845F07F
:1033F00020050D601860106840F02000106000BFCC
:1034000000BF00BF086840F020000860086840F472
:103410008070086000BF00BF00BF086840F4007003
:1034200008601C6030BD00001408004828040048F3
:10343000154A10B513681549086840F40070086013
:10344000086840F48070086010481038046844F040
:1034500020040460222414600C6844F020040C60F2
:1034600000BF00BF00BF016841F02001016001689A
:1034700041F48071016000BF00BF00BF016841F4EA
:1034800000710160136010BD140800482804004852
:1034900070B5194C2568194B1A6842F400721A600D
:1034A0001A6842F480721A60144A103A166846F09C
:1034B000200616602060186840F02000186000BFE9
:1034C00000BF00BF106840F020001060106840F49A
:1034D000807010602160186840F02000186000BF04
:1034E00000BF00BF106840F020001060106840F47A
:1034F00080701060256070BD1408004828040048E2
:1035000070B5144C01228240207811B10243227020
:1035100001E09043207020786178884219D00E4DE8
:1035200001224FF47F412846FEF7C3F8207800229D
:1035300001022846FEF7BDF8084D01220421284665
:10354000FEF7B7F8002204212846FEF7B2F82078EB
:10355000607070BD3800002000080048000C004872
:10356000084801784078C1F10801814201D0012169
:1035700000E000210448017002490B39497941708B
:1035800070470000230000200C0000202DE9F04FC0
:1035900087B014216846FCF787FE4048C16C41F0B3
:1035A0000401C164C16C01F004010591C16C41F0DA
:1035B0002001C164C16C01F020010591C16C41F092
:1035C0000101C164C16C01F001010591C16C41F0C0
:1035D0000201C164C16C01F002010591C16C41F0AE
:1035E0000801C164C06CDFF8B88000F008004FF635
:1035F000FF740590002221464046FEF75AF84FF42A
:1036000080764FF09049002231464846FEF751F847
:10361000DFF890A0002204215046FEF74AF8DFF8B8
:1036200088B04FF44877002239465846FEF741F8F3
:103630000125CDE9004500240294694640460394E3
:10364000FDF70EFFCDE90054694648460294FDF7A8
:1036500007FF0720CDE90004694658460294FDF7AC
:10366000FFFE0096CDE90154694648460394FDF7F4
:10367000F7FE04200090CDE90154694650460394BA
:10368000FDF7EEFE0097CDE90154694658460394D4
:10369000FDF7E6FE07B0BDE8F08F00000010024025
:1036A00000080048000C00480004004810B58AB02B
:1036B0000024079408941C2168460994FCF7F4FD43
:1036C00016481549016040F28F11C0E901146321C9
:1036D000C0E9031480218161FEF7FFFF08B1FDF707
:1036E0003AFE079407A90D480994FEF78FFD08B12B
:1036F000FDF731FE6020CDE9000402940422694602
:1037000006480494FEF757FF08B1FDF724FE03486E
:10371000FEF728FF0AB010BD00040040540000204E
:103720003EB500240F48009401940D4902940160B5
:103730004F21C0E9011440F2E731C160802181616D
:10374000FEF7B3FD08B1FDF706FE00946946054893
:103750000294FEF75BFD002801D0FDF7FCFD3EBDA5
:1037600000100040A0000020184810B51649016064
:103770004FF416514160002181600C22C160C0E904
:1037800004128161C161016241628162FFF794FAB2
:1037900008B1FDF7E0FD00210C48FFF7DDF808B1A6
:1037A000FDF7D9FD00210948FFF7B0F808B1FDF792
:1037B000D2FD0648FFF789F8002803D0BDE8104085
:1037C000FDF7C9BD10BD000000380140EC0000202D
:1037D000FEE7FEE7704730B501210020FFF758FEF5
:1037E0004FF47A70FDF7A9FD00210120FFF750FE8C
:1037F00041F290711020FFF74BFE4FF41C516020F6
:10380000FFF746FE01216120FFF742FE022146201C
:10381000FFF73EFE48F210011320FFF739FE48F291
:10382000FE011220FFF734FE4FF4A0610220FFF7E3
:103830002FFE41F230010320FFF72AFE40F203344D
:1038400021463020FFF724FE21463120FFF720FEDD
:1038500021463220FFF71CFEE51E29463320FFF7E4
:1038600017FE03213420FFF713FE21463520FFF712
:103870000FFE14213620FFF70BFE21463720FFF7FD
:1038800007FE21463820FFF703FE21463920FFF7C7
:10389000FFFD29463A20FFF7FBFD03213B20FFF700
:1038A000F7FD21463C20FFF7F3FD4FF4A0513D20EA
:1038B000FFF7EEFD4FF400719220FFF7E9FD21467E
:1038C0009320FFF7E5FD40F60D019020FFF7E0FDA6
:1038D00041F218010320FFF7DBFDBDE8304040F264
:1038E00073110720FFF7D4BD10B543F20801E320A0
:1038F000FFF7CEFD1221E720FFF7CAFD41F231218B
:10390000EF20FFF7C5FD00210120FFF7C1FD4FF4B7
:10391000E0610220FFF7BCFD41F230010320FFF718
:10392000B7FD00210420FFF7B3FD40F20721082076
:10393000FFF7AEFD00210920FFF7AAFD00210A20B4
:10394000FFF7A6FD00210C20FFF7A2FD00210D20AE
:10395000FFF79EFD00210F20FFF79AFD00211020A8
:10396000FFF796FD07211120FFF792FD002112209D
:10397000FFF78EFD00211320FFF78AFDC820FDF719
:103980005DFD41F290611020FFF782FD40F227219A
:103990001120FFF77DFD3220FDF750FD1D21122083
:1039A000FFF776FD3220FDF749FD4FF4006113204B
:1039B000FFF76EFD14212920FFF76AFD0B212B2054
:1039C000FFF766FD3220FDF739FD00212020FFF7CB
:1039D0005FFD00212120FFF75BFD07213020FFF76D
:1039E00057FD40F207713120FFF752FD06213220CA
:1039F000FFF74EFD40F204713520FFF749FD41F617
:103A000004713620FFF744FD04213720FFF740FD05
:103A100000213820FFF73CFD40F206713920FFF706
:103A200037FD40F201713C20FFF732FD0F213D20B0
:103A3000FFF72EFD00215020FFF72AFDEF21512036
:103A4000FFF726FD00215220FFF722FD40F23F1133
:103A50005320FFF71DFD4FF41C516020FFF718FDA8
:103A600001216120FFF714FD00216A20FFF710FDFE
:103A700000218020FFF70CFD00218120FFF708FDC9
:103A800000218220FFF704FD00218320FFF700FDC5
:103A900000218420FFF7FCFC00218520FFF7F8FCC3
:103AA00010219020FFF7F4FC00219220FFF7F0FC9A
:103AB00003219320FFF7ECFC4FF488719520FFF76A
:103AC000E7FC00219720FFF7E3FC00219820FFF797
:103AD000DFFC41F218010320FFF7DAFCBDE81040DB
:103AE00040F273110720FFF7D3BC70477047000006
:103AF000174810B5026817490B68D21A322A26D324
:103B000000680860144C2078C8B1162814D1FDF75D
:103B1000C1FA50B1FDF72CFB012803D0FDF7BAFA2A
:103B200018B105E0FDF782F902E00CA001F006F8FB
:103B3000207820B1162802D008A000F0FFFF002056
:103B40002070BDE810401E210648FCF7ADBB10BD3B
:103B50004800002008000020020000204572726F1B
:103B60007200000080010020FDF7AEBD00B593B0EB
:103B700038216846FCF798FB14210EA8FCF794FB4B
:103B80004FF40070FDF732FE0220C1010391402185
:103B900004910121CDE9080100900A21CDE90A1024
:103BA00007900C900D906846FEF714F908B172B6B4
:103BB000FEE70F200E9003200F9000201090119030
:103BC000129002210EA8FDF7BBFF002801D072B6AB
:103BD000FEE713B000BD00000248016841F4700127
:103BE0000160704788ED00E00148FEF7EABB000085
:103BF000A00000202DE9F0430268264B264D274EF9
:103C0000274C4FF08049984207D0484505D0A8423C
:103C100003D0B04201D0A04203D122F070074A681D
:103C20003A43204FDFF880C0DFF8808098420DD003
:103C300048450BD0A84209D0B04207D0A04205D0D9
:103C4000B84203D0604501D0404503D122F440750D
:103C5000CA682A434D6922F080022A4302608A68BA
:103C6000C2620A688262984207D0A04205D0B84278
:103C700003D0604501D0404501D1096901630121AC
:103C800041610169C90703D0016921F001010161A6
:103C9000BDE8F083002C0140000400400008004013
:103CA0000034014000400140004401400048014010
:103CB00010B501F01F030121046A99408C4304628E
:103CC000016A9A401143016210BD00002DE9F043E2
:103CD000056A026A22F001020262436882691C4C92
:103CE00025F0020522400C6822F0030214438A6882
:103CF000194E2A43174D194FDFF864C0DFF864905E
:103D0000A84207D0B04205D0B84203D0604501D0E8
:103D1000484506D122F00808CA6842EA080222F0A3
:103D20000402A84207D0B04205D0B84203D0604593
:103D300001D0484505D14D6923F440731D438B697B
:103D40002B4343608461496841630262BDE8F083AC
:103D50008FFFFEFF002C0140003401400040014075
:103D60000044014000480140F0B5056A026A22F0B3
:103D70001002026242688369194C1B4E23400C6892
:103D800023F4407343EA042425F020038D6843EABA
:103D90000513144DA84201D0B04206D1CF6823F0DC
:103DA000800343EA071323F04003A8420AD0B0423D
:103DB00008D00E4DA84205D00D4DA84202D00D4DA1
:103DC000A84207D14D6922F4406242EA85028D691A
:103DD00042EA850242608461496881630362F0BD02
:103DE000FF8FFFFE002C01400034014000400140E5
:103DF0000044014000480140F0B5056A026A22F41F
:103E0000807202624368C269194C1B4E22400C68E2
:103E100022F00302144325F400728D6842EA052261
:103E2000144DA84201D0B04206D1CF6822F40062FE
:103E300042EA072222F48062A8420AD0B04208D0A7
:103E40000E4DA84205D00E4DA84202D00D4DA842FD
:103E500007D14D6923F4405343EA05138D6943EAC2
:103E600005134360C4614968C1630262F0BD00008C
:103E70008FFFFEFF002C0140003401400040014054
:103E80000044014000480140F0B5056A026A22F48E
:103E9000805202624268C369194C1B4E23400C6871
:103EA00023F4407343EA042425F400538D6843EA65
:103EB0000533144DA84201D0B04206D1CF6823F497
:103EC000004343EA073323F48043A8420AD0B042B8
:103ED00008D00E4DA84205D00D4DA84202D00D4D80
:103EE000A84207D14D6922F4404242EA85128D6909
:103EF00042EA85124260C461496801640362F0BD10
:103F0000FF8FFFFE002C01400034014000400140C3
:103F1000004401400048014030B5056A026A22F4BD
:103F2000803202624268036D114C23400C681C43CE
:103F300025F400330D8943EA05430E4DA8420BD00A
:103F40000D4DA84208D00D4DA84205D00C4DA842F9
:103F500002D00C4DA84204D14D6922F4803242EACD
:103F600005224260046549688164036230BD000037
:103F70008FFFFEFF002C0140003401400040014053
:103F8000004401400048014030B5046A026A22F44E
:103F9000801202624268036D114D24F400142B401C
:103FA0000D6843EA05230D8944EA05540D4DA842E6
:103FB0000BD00D4DA84208D00C4DA84205D00C4D99
:103FC000A84202D00B4DA84204D14D6922F48022B0
:103FD00042EA8522426003654968C164046230BDDB
:103FE000FF8FFFFE002C01400034014000400140E3
:103FF000004401400048014000F5FA6080B22821E9
:10400000B0FBF1F201FB120149B10A21B0FBF1F260
:1040100001FB120109B1800701D000207047012087
:104020007047000030B5416EB9B10268916892687E
:10403000C1F342610B4B520F9C5CE50003F1080495
:10404000A25CB5FBF2F2A0F86A205A5C615CD20077
:10405000B2FBF1F1A0F8681030BD0121A0F86A10A0
:10406000F8E70000D066000890F82810090706D588
:1040700001684A68836B22F400421A434A6090F850
:104080002810C90706D001684A68C36A22F40032C2
:104090001A434A6090F82810890706D501684A68D3
:1040A000036B22F480321A434A6090F828104907C3
:1040B00006D501684A68436B22F480221A434A609D
:1040C00090F82810C90606D501688A68C36B22F4E7
:1040D00080521A438A6090F82810890606D5016834
:1040E0008A68036C22F400521A438A6090F8281000
:1040F000490611D501684A68436C22F480121A43BC
:104100004A60416CB1F5801F06D101684A68836C32
:1041100022F4C0021A434A6090F82810090606D516
:1041200001684A68C06C22F4002202434A6070476A
:104130002DE9F84300260446C0F89060FDF7BEFA6A
:104140008046206800684FF0200500076FF07E472A
:1041500013D54346002229042046009700F09CFC1A
:1041600058B1216851E8000F20F0800041E80002BA
:10417000002AF6D1C4F8885021E020680068400782
:1041800022D5434600224FF480012046009700F0DC
:1041900083FCC8B1216851E8000F20F4907041E819
:1041A0000002002AF6D12068083050E8001F21F0F4
:1041B000010140E80012002AF5D1C4F88C5084F8BF
:1041C00084600320BDE8F883C4F88850C4F88C509C
:1041D00044F86C6F666026760020F3E710B5806ABD
:1041E0000021A0F85E10A0F85610FEF7DDFB10BD10
:1041F00010B5026852E8001F21F4907142E80013E4
:10420000002BF6D10E4B0268083252E8001F19400D
:1042100042E80014002CF6D1C16E012908D10168D2
:1042200051E8002F22F0100241E80023002BF6D1C4
:104230002021C0F88C100021C166416710BD00002C
:10424000FEFFFFEF10B5B0F86020D0F88C300168A9
:10425000222B04D0886940F00800886110BD496AAB
:10426000836D11401980816D891C8165B0F85E10E5
:10427000491EA0F85E10B0F85E100029EED1026869
:1042800052E8001F21F4907142E80013002BF6D190
:104290000168083151E8002F22F0010241E80023B3
:1042A000002BF5D12021C0F88C1000214167016757
:1042B000154B02689A420BD05268120208D5036867
:1042C00053E8002F22F0806243E80024002CF6D14E
:1042D000C26E012A02D0FEF78FFD10BDC1660268D2
:1042E00052E8001F21F0100142E80013002BF6D124
:1042F0000168CA69D243D20601D410220A62B0F81A
:104300005C10FEF701FB10BD008000402DE9F04776
:104310000446B0F860600068C569D0F800A0D0F825
:104320000880D4F88C10222905D0816941F0080159
:104330008161BDE8F087B4F868704FF0000975E05E
:104340002068406AA16D30400880A06D801CA06587
:10435000B4F85E00401EA4F85E002068C5696907D5
:1043600030D0E9070AD05FEACA5107D501210162BE
:10437000D4F8900040F00100C4F89000A8070BD5D5
:104380005FEAC87008D0216802200862D4F8900063
:1043900040F00400C4F8900068070BD55FEAC870CD
:1043A00008D0216804200862D4F8900040F0020090
:1043B000C4F89000D4F8900020B12046FEF7F4FA3B
:1043C000C4F89090B4F85E0080BB216851E8000FFB
:1043D00020F4807041E80002002AF6D1304A2068BB
:1043E000083050E8001F114040E80013002BF6D1C0
:1043F0002020C4F88C00C4F874904946C4F870902A
:10440000284A206890420BD04068000208D52268F4
:1044100052E8000F20F0806342E800300028F6D117
:10442000E06E012825D02046FEF7E6FC0FB1A80675
:1044300086D4B4F85E0000283FF47BAFB4F868106F
:1044400081427FF676AF2068083050E8001F21F0E7
:10445000805140E80012002AF5D1134860672168B6
:1044600051E8000F40F0200041E80002002AF6D198
:104470005FE7E166216851E8000F20F0100041E895
:104480000002002AF6D12068C169C943C90601D4D7
:1044900010210162B4F85C102046FEF735FAC5E73A
:1044A000FEFFFFEF008000404542000810B5B0F865
:1044B0006020D0F88C300168222B04D0886940F04D
:1044C0000800886110BD496A1140826D1170816DCC
:1044D000491C8165B0F85E10491EA0F85E10B0F866
:1044E0005E100029EED1016851E8002F22F490728D
:1044F00041E80023002BF6D10168083151E8002F74
:1045000022F0010241E80023002BF5D12021C0F860
:104510008C10002141670167154B02689A420BD04D
:104520005268120208D5036853E8002F22F0806217
:1045300043E80024002CF6D1C26E012A02D0FEF717
:104540005BFC10BDC166026852E8001F21F010013B
:1045500042E80013002BF6D10168CA69D243D206A3
:1045600001D410220A62B0F85C10FEF7CDF910BD3C
:10457000008000402DE9F0470446B0F86060006814
:10458000C569D0F800A0D0F80880D4F88C10222992
:1045900005D0816941F008018161BDE8F087B4F878
:1045A00068704FF0000975E02068406AA16D3040E6
:1045B0000870A06D401CA065B4F85E00401EA4F811
:1045C0005E002068C569690730D0E9070AD05FEA54
:1045D000CA5107D501210162D4F8900040F00100D2
:1045E000C4F89000A8070BD55FEAC87008D021680E
:1045F00002200862D4F8900040F00400C4F8900053
:1046000068070BD55FEAC87008D0216804200862EB
:10461000D4F8900040F00200C4F89000D4F8900064
:1046200020B12046FEF7C0F9C4F89090B4F85E00BF
:1046300080BB216851E8000F20F4807041E800023F
:10464000002AF6D1304A2068083050E8001F114097
:1046500040E80013002BF6D12020C4F88C00C4F8E9
:1046600074904A46C4F870902849206888420BD05C
:104670004068000208D5216851E8000F20F08060F2
:1046800041E80003002BF6D1E06E012825D020463A
:10469000FEF7B2FB0FB1A80686D4B4F85E0000287E
:1046A0003FF47BAFB4F8681081427FF676AF2068A4
:1046B000083050E8001F21F0805140E80012002A25
:1046C000F5D113486067206850E8001F41F02001D1
:1046D00040E80012002AF6D15FE7E266216851E85F
:1046E000000F20F0100041E80002002AF6D12068F7
:1046F000C169C943C90601D410210162B4F85C1034
:104700002046FEF701F9C5E7FEFFFFEF00800040FD
:10471000AD4400082DE9F041044601688068226933
:10472000E3691043626900251A431043DFF82CC285
:104730000A688B4B1A4002430A6020684168E268AD
:1047400021F44051114341602168A069614501D0C5
:10475000226A10438A68834B1A4002438A602068A9
:10476000C16A626A21F00F011143C1627E49236868
:104770007E488B420DD1D0F8880010F0030006D09F
:10478000012855D0022842D003283FD152E0012011
:104790003DE077498B420BD1D0F8880010F00C0037
:1047A00035D0042833D0082840D00C282ED141E041
:1047B00070498B420BD1D0F8880010F0300026D021
:1047C000102835D0202831D030281FD132E06A4956
:1047D0008B420BD1D0F8880010F0C00017D04028D1
:1047E00026D0802822D0C02810D123E063450DD1E7
:1047F000D0F8880010F4406009D0B0F5806F17D071
:10480000B0F5006F12D0B0F5406F13D010205B49A7
:104810005B4F00264FF4004263453BD160B1022854
:1048200013D004280BD0082872D10DE00220EEE747
:104830000420ECE70820EAE7FDF770FA01E0FDF755
:1048400091FA010001D17CE01146606A37F810202E
:104850006768B1FBF2F007EB4703834270D8B0EB17
:10486000073F6DD8002308461946FBF7D3FC090221
:1048700041EA106102027808101871413A4600239B
:10488000FBF7C8FC3F4AA0F54071914258D8216817
:10489000C86056E0E3694FF6EF7893422CD10928BF
:1048A0004ED2DFE800F00508114D0D4D4D4D1000C2
:1048B000FDF734FA01E0FDF743FA010004D140E0CE
:1048C000FDF750FAF9E71146606A37F81000B1FBBE
:1048D000F0F04100606801EB5001B1FBF0F0A0F195
:1048E000100141452CD84FF6F0710140C0F3420051
:1048F00001432068C16024E0092821D2DFE800F0EC
:10490000050912200E2020201100FDF707FA02E011
:1049100016E0FDF715FA010004D112E0FDF722FAC6
:10492000F9E71146606A37F81000B1FBF0F16068F2
:1049300001EB5001B1FBF0F0A0F1100141450AD9A3
:1049400001250120A4F86A0024F8680F2846E660D3
:104950002661BDE8F08180B299E700000080004048
:10496000F369FFCFFFF4FF1100380140001002404F
:104970000044004000480040004C00400024F40087
:10498000B8660008FFFC0F0070B58165A0F85C20D8
:10499000A0F85E200023436781684FF48056FF240F
:1049A000B14204D10169F9B940F2FF1122E07F253B
:1049B000C1B1B1F1805F1AD0A0F86030C0F890307A
:1049C0002221C0F88C100168083151E8003F43F003
:1049D000010341E80034002CF5D1416EB1F1005FD4
:1049E0000ED031E0016941B9A0F86040E6E7016905
:1049F00019B13F21A0F86010E0E7A0F86050DDE7B2
:104A0000B0F8681091421FD88168B14201D10169A4
:104A1000B9B11D494167016941B1026852E8001FFF
:104A200041F4807142E80013002BF6D1016808318F
:104A300051E8002F42F0805241E80023002BF5D1CD
:104A400020E012494167F1E78168B14201D1016973
:104A500069B10F494167016959B1026852E8001F05
:104A600041F4907142E80013002BF6D10AE00949A5
:104A70004167026852E8001F41F0200142E800133C
:104A8000002BF6D1002070BD754500080D430008CD
:104A9000AD440008454200082DE9F0479946174605
:104AA0000D4604464FF00008089E33E0701C31D0DC
:104AB000FCF704FEA0EB0900B04218D8BEB1206894
:104AC0000168490726D5802D24D0402D22D0C16908
:104AD000C94309070DD4082505622046FFF788FB66
:104AE000C4F8905084F884800120BDE8F08703204A
:104AF000FBE7C069C04300050CD421684FF4006097
:104B000008622046FFF774FB2020C4F8900084F868
:104B10008480ECE72068C06935EA000004D00020FA
:104B2000B842C3D00020E0E70120F9E70148FDF7D3
:104B30003DBF0000EC000020FEE700000FB4054B75
:104B400010B503A9044A029800F0FEF810BC5DF805
:104B500014FB000059540008500000200FB4084B0B
:104B600010B504A902AA039800F0EEF8044602A9C1
:104B7000002000F06CFC204610BC5DF814FB000027
:104B80004F5400080907090E002804DB00F1E0205B
:104B900080F80014704700F00F0000F1E02080F86A
:104BA000141D704702E008C8121F08C1002AFAD17C
:104BB00070477047002001E001C1121F002AFBD19D
:104BC000704700002DE9FF5F82B00021DDE904306D
:104BD000020DDDF840B0034318D044F61050A2F2A5
:104BE000FF3242431514119801281FD0A5EB0B008A
:104BF000401C5FEA000A4FF000064E4FDFF8389184
:104C0000B046504615D5CAF1000413E011980124AE
:104C10004AA3012801D16FEA0B010298119AC0E959
:104C20000031C0E9024206B0BDE8F09FCBF10000C0
:104C3000DFE704460021404A491842EB0450CDE921
:104C4000001012E0E00707D032463B464046494696
:104C5000FBF77AFC8046894632463B4610461946A9
:104C6000FBF772FC06460F466410002CEAD1DDE922
:104C70000401DDE90023BAF1000F06DAFBF764FC5A
:104C800042464B46FBF760FC05E0FBF7CFFC424693
:104C90004B46FBF7CBFC04460E460022284BFBF7A5
:104CA000D5FE03D84FF0FF30014607E00022254B28
:104CB00020463146FBF70BFEFBF7B0FE102409E05F
:104CC000002C0ADB0A220023FBF7A4FA039B3032F4
:104CD0001A55641E50EA0102F2D1641C039AC4F111
:104CE00011031444119A012A03D0012208430DD163
:104CF0000AE0084304D000204FF0110B119072E736
:104D0000A3EB0B056D1E0DE05B4504DD4FF00002CB
:104D100005F1010504E003DA4FF00002A5F10105F9
:104D2000002AECD002981199C0E90231C0E900458F
:104D300079E70000000014400000F03F3000000060
:104D40000000F0430000E03F2DE9FF4F95B09A4688
:104D5000884606460025EEE1252877D1002427461F
:104D6000F94A0121039400E0044316F8013F203B77
:104D700001FA03F01042F7D130782A2811D06FF0F1
:104D80002F033078A0F13002092A16D8039A44F094
:104D9000020402EB820203EB42021044761C0390F1
:104DA000EFE758F8042B0392002A03DA504244F448
:104DB0000054039044F00204761C30782E2816D15B
:104DC00016F8010F44F004042A280DD06FF02F02CA
:104DD0003078A0F13003092B09D807EB870302EBE9
:104DE0004303C718761CF3E758F8047B761C307829
:104DF0006C280FD006DC4C2817D068280DD06A2804
:104E000014D104E0742810D07A280FD10DE044F4B6
:104E100000140AE044F4801401E044F44014727871
:104E2000824202D104F58014761C761C3078662804
:104E30000BD013DC582877D009DC002875D0452822
:104E4000F6D04628F4D047281AD193E118E0632819
:104E500035D0642879D0652812D18BE1702873D0C1
:104E600008DC6728F1D069286FD06E280DD06F2834
:104E700006D1ACE073282CD0752874D0782853D094
:104E80005246179990476D1C54E1C4F30250022812
:104E900009D003280DD0D8F8001004280DD00D60DB
:104EA00008F1040846E1D8F80010EA17C1E90052F9
:104EB000F6E7D8F800100D80F2E70D70F0E718F86B
:104EC000041B8DF8001000208DF80100EB46012036
:104ED00003E058F804BB4FF0FF3061074FF00001CA
:104EE00002D40DE009F101018946B9420FDA81458A
:104EF000F8DB1BF809100029F4D108E009F10101E1
:104F000089468142FADB1BF809100029F6D1039883
:104F10005346A0EB090721463846179A00F080FA5D
:104F2000284400EB090507E044E008E10DE01BF828
:104F3000010B524617999047B9F10109F7D2534630
:104F400021463846179AF2E039E00A21C4F30252AA
:104F50004FF0000B0091022A06D058F8040BC1173D
:104F6000032A09D00AE023E008F1070020F0070235
:104F7000F2E80201904605E000B2C117042A01D10F
:104F800040B2C117002906DA0A460021404261EB0F
:104F900002012D2202E0220504D52B228DF80420E7
:104FA000012203E0E20701D02022F7E7914657E013
:104FB0000A2100E010214FF0000B00910BE01021BE
:104FC0004FF0000B44F004040827009103E0082090
:104FD0004FF0000B0090C4F30252022A05D058F89B
:104FE000040B0021032A08D008E008F1070020F094
:104FF0000702F2E80201904603E080B2042A00D1E1
:10500000C0B24FF0000922072AD53278702A07D0A3
:10501000DDF800C08CF0100C5CEA0B0C05D00EE043
:1050200040228DF80420012208E050EA010306D056
:1050300030238DF804308DF8052002229146009B24
:1050400083F0080353EA0B030AD150EA010201D1AD
:10505000620705D530228DF804204FF001097F1E2C
:105060003278582A04D039A20C920CAA02920BE092
:105070003BA2F9E75B46009AFBF7CCF80C9B9B5CE4
:10508000029A521E0292137050EA0102F2D1029863
:1050900004A9081A00F1200B600702D524F480341B
:1050A00000E001275F4502DDA7EB0B0000E00020D8
:1050B00000EB0B01009003984944401A0390E00371
:1050C00006D453462146179A039800F0A9F90544DF
:1050D000002706E001A85246C05D179990476D1C55
:1050E0007F1C4F45F6DBE0030CD553462146179A4B
:1050F000039800F095F9054404E0302052461799D2
:1051000090476D1C0099481E00900029F5DC08E0CE
:105110000298029952460078491C029117999047CB
:105120006D1CBBF10001ABF1010BF1DC5BE100F0A8
:1051300065F90544761C307800287FF40DAE19B06F
:105140002846BDE8F08F00000928010030313233D5
:1051500034353637383961626364656600000000B3
:10516000303132333435363738394142434445469D
:1051700000000000600700D4062708F1070020F0B7
:105180000700F0E80223804603F0004C5FEA0C00C1
:1051900001D097A009E0200501D596A005E0E00721
:1051A00001D095A001E0AFF24C001390307823F0CD
:1051B000004365280CD006DC452809D046281DD0C0
:1051C00047287FD13BE0662818D067287AD136E09F
:1051D0000021112F01DB112000E0781CCDE9000136
:1051E00004A90CA8FFF7EEFCDDE90D010C9A4FF0C5
:1051F000000B07F10109109200914EE04FF00040C2
:105200000097CDE9011004A90CA8FFF7DBFCDDE94C
:105210000D020C9B0F994FF0000B914610930092DA
:1052200011B9791C00EB0109B7EB090003D4C0F1F7
:10523000FF3B07F10109A9EB0700019042E0012FB4
:1052400000DA01270021112F01DD112000E038468E
:10525000CDE9000104A90CA8FFF7B4FCDDE90D01BC
:105260000C9A00914FF0000BB946109221070FD411
:10527000009A4A4503DA914601E0A9F10109B9F122
:10528000010F05DD109AA9F10101515C3029F4D01C
:10529000B84202DA10F1040F03DA0121CDE901105E
:1052A00010E0002803DC8344A9EB000102E0411C6C
:1052B000494500DD8946A0EB0B00401C01904FF0F2
:1052C00000400290200705D40198484502DB4FF0CA
:1052D000FF30019000208DF84B0002980DF14B0734
:1052E000B0F1004F25D002200C902B200D90029899
:1052F00000280CDA404202902D200D9007E00A2190
:105300000298FBF70FFA3031029007F8011D0C9953
:10531000481E0C900029F2DC02980028EFD1791E7B
:105320000D980870307800F0200040F0450007F834
:10533000020D11A8C01BC01D02901398007800B187
:10534000012000EB0901019801EBE0710298014492
:105350000398401A401E0390E00306D453462146AA
:10536000179A039800F05CF805441398007818B178
:105370005246179990476D1CE00323D553462146AA
:10538000179A039800F04CF805441BE0BBF1000F9E
:1053900007DB0098584504DD1098179910F80B00AA
:1053A00001E0179930205246904701980BF1010B0C
:1053B000401E05F10105019004D12E205246179997
:1053C00090476D1CB9F10001A9F10109DEDC05E08F
:1053D00017F8010B5246179990476D1C0299481E09
:1053E00002900029F4DC53462146179A03989EE662
:1053F0002D0000002B000000200000002DE9F041EE
:10540000044600251E461746880404D405E03946A4
:105410002020B0476D1C641EF9D52846BDE8F081F8
:105420002DE9F041044600251E469046C80301D5EB
:10543000302700E02027880404D505E0414638469F
:10544000B0476D1C641EF9D52846BDE8F0810A6896
:10545000531C0B601070704713B54FF0FF330122DF
:1054600069460248FDF7E4FC00981CBDEC000020F2
:10547000FCF732F9FEF77AFBFEF788F8FEF716F92B
:10548000FEF74EF9FEF770F9FDF780FE1248FCF7C3
:105490005BFF012211491248FDF78AFC04211148E3
:1054A000FDF762F90020FDF7C9FD0020FDF774FF4C
:1054B0004FF6FF70FDF784FF0A49002009688863F2
:1054C000FDF710FDFDF77CFEFEF70FFBFEF710FB6E
:1054D000FEF746F8F4E70000A000002001000020DD
:1054E000EC0000205400002000000000000000003C
:1054F00000000000000000000000000000000000AC
:10550000000000000000000000000000000000009B
:105510000000000000000000000080018001800108
:105520008001800180018001800180018001800173
:105530008001800100000000800180010000000067
:10554000000000000000000000000000CC00CC00C3
:10555000CC00CC00CC00CC0000000000000000001B
:10556000000000000000000000000000000000003B
:10557000000000000000000000000000000000002B
:1055800000000000600C600C600C30063006FE1F4E
:10559000FE1F300638071803FE1FFE1F18031803EE
:1055A0008C018C018C01000000008000E003F80FEA
:1055B0009C0E8C1C8C188C009800F801E007800E63
:1055C000801C8C188C189C18B80CF00FE00380001D
:1055D00080000000000000000000000000000E1825
:1055E0001B0C110C11061106110311039B018E01F6
:1055F000C038C06C60446044304430441844186C77
:105600000C380000000000000000E001F003380743
:10561000180618063003F001F000F8009C310E3334
:10562000061E061C061C063FFC73F021000000004D
:105630000000000000000000000000000C000C0052
:105640000C000C000C000C0000000000000000002A
:10565000000000000000000000000000000000004A
:1056600000000000000000000000000200038001B4
:10567000C000C0006000600030003000300030002A
:10568000300030003000300060006000C000C0001A
:105690008001000300020000000020006000C00044
:1056A00080018001000300030006000600060006DA
:1056B00000060006000600060003000380018001CA
:1056C000C00060002000000000000000000000009A
:1056D00000000000C000C000D806F807E001300359
:1056E000380700000000000000000000000000007B
:1056F00000000000000000000000000000000000AA
:105700000000000080018001800180018001FC3FD9
:10571000FC3F8001800180018001800100000000C9
:105720000000000000000000000000000000000079
:105730000000000000000000000000000000000069
:105740000000000000000000000080018001000156
:1057500000018000000000000000000000000000C8
:105760000000000000000000000000000000000039
:10577000E007E0070000000000000000000000005B
:105780000000000000000000000000000000000019
:105790000000000000000000000000000000000009
:1057A00000000000000000000000C000C000000079
:1057B00000000000000000000000000C000C0006CB
:1057C000000600060003000300038003800180013F
:1057D0008001C000C000C000600060000000000048
:1057E00000000000000000000000E003F007380E99
:1057F000180C0C180C180C180C180C180C180C1889
:105800000C180C18180C380EF007E003000000000C
:105810000000000000000000000000018001C00145
:10582000F0019801880180018001800180018001E0
:105830008001800180018001800180010000000062
:1058400000000000000000000000E003F80F180C4A
:105850000C180C1800180018000C0006000380013A
:10586000C000600030001800FC1FFC1F000000009A
:1058700000000000000000000000E001F807180E22
:105880000C0C0C0C000C0006C003C007000C001828
:1058900000180C180C18180CF807E00300000000A2
:1058A00000000000000000000000000C000E000FCF
:1058B000000F800DC00C600C600C300C180C0C0C30
:1058C000FC3FFC3F000C000C000C000C0000000032
:1058D00000000000000000000000F80FF80F1800A2
:1058E00018000C00EC03FC071C0E001C001800182C
:1058F00000180C181C0C180EF807E003000000003C
:1059000000000000000000000000C007F00F381C7D
:10591000181818000C00CC03EC0F3C0E1C1C0C18C3
:105920000C180C18181C380EF007E00300000000DB
:1059300000000000000000000000FC1FFC1F000C25
:1059400000060006000380038001C001C000E000E3
:105950006000600070003000300030000000000087
:1059600000000000000000000000E003F007380E17
:10597000180C180C180C3806F007F007180C0C1847
:105980000C180C180C18380CF80FE003000000007D
:1059900000000000000000000000E003F007380EE7
:1059A0001C0C0C180C180C181C1C381EF81BE019C9
:1059B0000018000C000C1C0EF807F001000000009D
:1059C00000000000000000000000000000000000D7
:1059D00000000000800180010000000000000000C5
:1059E00000000000000000008001800100000000B5
:1059F00000000000000000000000000000000000A7
:105A00000000000080018001000000000000000094
:105A10000000000000000000800180010001000182
:105A200080000000000000000000000000000000F6
:105A300000000000000000000010001C800FE003C8
:105A4000F8001800F800E003800F001C00100000B0
:105A50000000000000000000000000000000000046
:105A60000000000000000000F81F0000000000001F
:105A7000F81F00000000000000000000000000000F
:105A80000000000000000000000000000000000016
:105A9000000000000000000008003800F001C0070E
:105AA000001F0018001FC007F001380008000000A8
:105AB00000000000000000000000E003F80F180CD8
:105AC0000C180C180018000C000600038001C00020
:105AD000C000C00000000000C000C00000000000C6
:105AE000000000000000000000000000E00718189F
:105AF0000420C229224A11440944094409440922C4
:105B00001113E20C024004201818E0070000000006
:105B10000000000000000000000080038003C006B9
:105B2000C006C006600C600C301830183018F83F02
:105B3000F83F1C700C600C6006C006C0000000003E
:105B400000000000000000000000FC03FC0F0C0C33
:105B50000C180C180C180C0CFC07FC0F0C180C3053
:105B60000C300C300C300C18FC1FFC07000000003F
:105B700000000000000000000000C007F01F3838DF
:105B80001C300C70066006000600060006000600C9
:105B9000060006600C701C30F01FE00700000000DB
:105BA00000000000000000000000FE03FE0F060ED3
:105BB0000618061806300630063006300630063065
:105BC000063006180618060EFE0FFE030000000041
:105BD00000000000000000000000FC3FFC3F0C0043
:105BE0000C000C000C000C00FC1FFC1F0C000C0037
:105BF0000C000C000C000C00FC3FFC3F00000000FF
:105C000000000000000000000000F83FF83F18000E
:105C10001800180018001800F81FF81F18001800C6
:105C200018001800180018001800180000000000E4
:105C300000000000000000000000E00FF83F3C788A
:105C40000E6006E007C00300030003FE03FE03C06E
:105C500007C006C00EC03CF0F83FE00F0000000097
:105C6000000000000000000000000C300C300C3080
:105C70000C300C300C300C30FC3FFC3F0C300C3046
:105C80000C300C300C300C300C300C3000000000AC
:105C90000000000000000000000080018001800181
:105CA00080018001800180018001800180018001EC
:105CB00080018001800180018001800100000000DE
:105CC00000000000000000000000000600060006C2
:105CD0000006000600060006000600060006000694
:105CE0000006180618063807F003E001000000005F
:105CF0000000000000000000000006300618060C3E
:105D0000060606038601C60066007600DE008E01E8
:105D100006030606060C06180630066000000000A2
:105D2000000000000000000000001800180018002B
:105D300018001800180018001800180018001800A3
:105D40001800180018001800F81FF81F00000000C5
:105D5000000000000000000000000EE01EF01EF039
:105D60001EF036D836D836D836D866CC66CC66CC57
:105D7000C6C6C6C6C6C6C6C686C386C30000000061
:105D8000000000000000000000000C301C303C301F
:105D90003C306C306C30CC30CC308C310C330C332C
:105DA0000C360C360C3C0C3C0C380C30000000005F
:105DB00000000000000000000000E007F81F1C3891
:105DC0000E70066003C003C003C003C003C003C05D
:105DD00003C006600E701C38F81FE00700000000CA
:105DE00000000000000000000000FC0FFC1F0C3849
:105DF0000C300C300C300C300C18FC1FFC070C0065
:105E00000C000C000C000C000C000C00000000004A
:105E100000000000000000000000E007F81F1C3830
:105E20000E70066003E003C003C003C003C003C0DC
:105E300007E006630E3F1C3CF83FE0F700C000009F
:105E400000000000000000000000FE0FFE1F0638EA
:105E50000630063006300638FE1FFE07060306062B
:105E6000060C061806180630063006600000000012
:105E700000000000000000000000E003F80F1C0C10
:105E80000C180C180C001C00F803E00F001E003862
:105E9000063006300E301C1CF80FE0070000000032
:105EA00000000000000000000000FE7FFE7F800177
:105EB00080018001800180018001800180018001DA
:105EC00080018001800180018001800100000000CC
:105ED000000000000000000000000C300C300C300E
:105EE0000C300C300C300C300C300C300C300C30D2
:105EF0000C300C300C301818F81FE00700000000C0
:105F000000000000000000000000036006300630C2
:105F100006300C180C180C18180C180C380E30061B
:105F20003006700760036003C001C001000000007C
:105F3000000000000000000000000360C361C361B6
:105F4000C3616633663366336633663366336C1B10
:105F50006C1B6C1B2C1A3C1E380E380E0000000007
:105F6000000000000000000000000FE00C7018307E
:105F70003018700C600EC00780038003C003E00679
:105F8000700C301C18180C300E6007E00000000088
:105F90000000000000000000000003C006600C309C
:105FA0001C383818300C6006E007C00380018001FF
:105FB00080018001800180018001800100000000DB
:105FC00000000000000000000000FC7FFC7F00607B
:105FD00000300018000C000600038001C0006000C3
:105FE000300018000C000600FE7FFE7F000000005D
:105FF00000000000000000000000E003E00360007B
:106000006000600060006000600060006000600090
:106010006000600060006000600060006000600080
:106020006000E003E003000000003000300060008A
:1060300060006000C000C000C000C001800180019D
:1060400080010003000300030006000600000000BA
:1060500000000000000000000000E003E003000377
:106060000003000300030003000300030003000318
:106070000003000300030003000300030003000308
:106080000003E003E003000000000000C001C001C5
:1060900060036003600330063006180C180C000023
:1060A00000000000000000000000000000000000F0
:1060B00000000000000000000000000000000000E0
:1060C00000000000000000000000000000000000D0
:1060D00000000000000000000000FFFFFFFF0000C4
:1060E000000000000000000000000C000C000C008C
:1060F0000C000C000C00000000000000000000007C
:10610000000000000000000000000000000000008F
:10611000000000000000000000000000000000007F
:1061200000000000F003F8071C0C0C0C000FF00F2F
:10613000F80C0C0C0C0C1C0FF80FF01800000000F1
:106140000000000000000000000018001800180007
:1061500018001800D803F80F380C18181818181859
:10616000181818181818380CF80FD8030000000079
:10617000000000000000000000000000000000001F
:1061800000000000C003F007300E180C18001800C3
:1061900018001800180C300EF007C00300000000B3
:1061A00000000000000000000000001800180018A7
:1061B00000180018C01BF01F301C181818181818E9
:1061C000181818181818301CF01FC01B0000000009
:1061D00000000000000000000000000000000000BF
:1061E00000000000C003F00F300C1818F81FF81F53
:1061F000180018003818301CF00FC007000000000D
:1062000000000000000000000000800FC00FC00070
:10621000C000C000F007F007C000C000C000C00010
:10622000C000C000C000C000C000C00000000000EE
:10623000000000000000000000000000000000005E
:1062400000000000E00DF80F180E0C0C0C0C0C0CEC
:106250000C0C0C0C0C0C180EF80FE00D000C0C0CB8
:106260001C06F807F00100000000180018001800D4
:1062700018001800D807F80F381C18181818181824
:1062800018181818181818181818181800000000EE
:1062900000000000000000000000C000C00000007E
:1062A00000000000C000C000C000C000C000C0006E
:1062B000C000C000C000C000C000C000000000005E
:1062C00000000000000000000000C000C00000004E
:1062D00000000000C000C000C000C000C000C0003E
:1062E000C000C000C000C000C000C000C000C000AE
:1062F000C000F8007800000000000C000C000C004A
:106300000C000C000C0C0C060C038C01CC006C0077
:10631000FC009C018C030C030C060C0C000000001C
:1063200000000000000000000000C000C000C0002D
:10633000C000C000C000C000C000C000C000C0005D
:10634000C000C000C000C000C000C00000000000CD
:10635000000000000000000000000000000000003D
:10636000000000007C3CFF7EC7E383C183C183C182
:1063700083C183C183C183C183C183C10000000085
:10638000000000000000000000000000000000000D
:10639000000000009807F80F381C18181818181873
:1063A00018181818181818181818181800000000CD
:1063B00000000000000000000000000000000000DD
:1063C00000000000C003F00F300C1818181818183F
:1063D000181818181818300CF00FC003000000002F
:1063E00000000000000000000000000000000000AD
:1063F00000000000D803F80F380C181818181818E7
:10640000181818181818380CF80FD80318001800A6
:106410001800180018000000000000000000000034
:1064200000000000C01BF01F301C181818181818A6
:10643000181818181818301CF01FC01B0018001866
:106440000018001800180000000000000000000004
:1064500000000000B007F003700030003000300092
:10646000300030003000300030003000000000000C
:10647000000000000000000000000000000000001C
:1064800000000000E003F003380E180C3800F003A1
:10649000C007000C180C380EF007E00300000000E5
:1064A0000000000000000000000000008000C000AC
:1064B000C000C000F007F007C000C000C000C0006E
:1064C000C000C000C000C000C0078007000000007E
:1064D00000000000000000000000000000000000BC
:1064E000000000001818181818181818181818188C
:1064F000181818181818381CF01FE01900000000B0
:10650000000000000000000000000000000000008B
:10651000000000000C18180C180C180C300630067F
:106520003006600360036003C001C001000000008A
:10653000000000000000000000000000000000005B
:1065400000000000C141C141C361636363636363D1
:106550003636363636361C1C1C1C1C1C000000004F
:10656000000000000000000000000000000000002B
:10657000000000001C38381C300C6006600360030B
:10658000600360036006300C381C1C3800000000FB
:1065900000000000000000000000000000000000FB
:1065A000000000001830301830187018600C600CB3
:1065B000E00CC006C00680038003800380018001D8
:1065C000C001F000700000000000000000000000AA
:1065D00000000000FC1FFC1F000C000600038001EF
:1065E000C000600030001800FC1FFC1F000000000D
:1065F0000000000000000000000000038001C00057
:10660000C000C000C000C000C000600060003000DA
:1066100060004000C000C000C000C000C000C0005A
:106620008001000300000000000080018001800163
:106630008001800180018001800180018001800152
:106640008001800180018001800180018001800142
:10665000800180018001000000006000C000C001D6
:106660008001800180018001800100030003000699
:106670000003000180018001800180018001800110
:10668000C0006000000000000000000000000000EA
:106690000000000000000000F010F81F080F0000CC
:1066A00000000000000000000000000000000000EA
:1066B00000000000000000000100020004000600CD
:1066C00008000A000C0010002000400080000001BB
:1066D000010101030701000008040204080101018F
:1066E0000000000000000000010203040607080982
:1066F0000000000001020304DDDDDDDDDCBBBBDDED
:10670000DDDDDDDDDDDDDDDD988888888888888851
:106710007777777777888888855555566666666671
:106720006666666666688888833333322222222250
:10673000222222222228888D58670008000000208B
:1067400054000000A44B0008AC670008540000206F
:106750000C060000B44B0008000000000000000020
:106760000000000000000000000000000000000029
:1067700000000000000000231423140000000000AB
:106780000000000000000000000000000000000009
:1067900000FF0000FFFF00001000000001000000EB
:0C67A000000000000024F40000000000D5
:04000005080001D915
:00000001FF
