:020000040800F2
:10000000B8050020F1010008233200085D2900082E
:1000100021320008E5080008ED4200080000000059
:10002000000000000000000000000000053600088D
:10003000E7080008000000006D3200089136000853
:100040000B0200080B0200080B0200080B0200085C
:100050000B0200080B0200080B0200080B0200084C
:100060000B0200080B0200080B0200080B0200083C
:100070000B0200080B0200080B0200080B0200082C
:100080000B020008000000000B0200080B02000831
:100090000B0200080B0200080B0200080B0200080C
:1000A0000B0200080B0200080B0200080B020008FC
:1000B0000B0200080B0200080B0200080B020008EC
:1000C0000B0200080B0200080B0200080B020008DC
:1000D0000B020008E14200080B0200080B020008B6
:1000E0000B0200080B0200080B0200080B020008BC
:1000F0000B0200080B0200080B02000800000000C1
:10010000000000000B020008000000000B020008C5
:100110000B02000800000000113700080B02000865
:100120000B0200080B0200080B0200080B0200087B
:100130000B02000800000000000000000B02000895
:100140000B0200080B020008000000000000000085
:10015000000000000000000000000000000000009F
:100160000000000000000000000000000B0200087A
:100170000B0200080000000000000000000000006A
:10018000000000000B02000800000000000000005A
:10019000000000000000000000000000000000005F
:1001A00000000000000000000B0200080B02000825
:1001B0000B0200080B0200080B0200080000000000
:1001C000000000000B02000800000000000000001A
:1001D0000B0200080B020008DFF810D000F008FB4B
:1001E00000480047354C0008AFF30080B8050020F8
:1001F0000648804706480047FEE7FEE7FEE7FEE7C1
:10020000FEE7FEE7FEE7FEE7FEE7FEE70137000850
:10021000D90100082DE9F05F0546002092469B4673
:1002200088460646814640241BE02846414647460C
:10023000224600F061F953465A46C01A914110D344
:1002400011461846224600F048F92D1A67EB0108BE
:100250004F4622460120002100F03FF917EB00092C
:100260004E41201EA4F10104DFDC484631462A46F7
:100270004346BDE8F09FD2B201E000F8012B491ED1
:10028000FBD270470022F6E710B513460A46044633
:100290001946FFF7F0FF204610BD2DE9FE4F81EA19
:1002A000030404F0004421F0004100944FF0000BDF
:1002B00023F0004350EA01045ED052EA03045BD00D
:1002C000C3F30A54C1F30A552C44A4F2F334019445
:1002D000A0FB0254C1F3130141F48011C3F31303D3
:1002E00043F4801301FB024400FB034E840A970A87
:1002F00044EA815447EA8357A4FB076802958D0AB4
:1003000005FB07854FEA932C04FB0C542705029D3F
:100310004FEA065847EA1637B5EB08056EEB070CAF
:10032000870E920E47EA811742EA8312A7FB020169
:10033000B6EB0B0164EB00042B0D43EA0C335E18A3
:1003400044EB1C50DA465146E7FB0201C5F31304A7
:100350004FEA0B3343EA14534FEA0432019C43EA59
:100360000603A4F10C040294009CCDE900B400F053
:1003700019F903B0BDE8F08F00200146F9E72DE937
:10038000F04D81EA030404F0004B21F000451446CF
:100390004FF0000A23F0004150EA050220D054EA51
:1003A00001021DD0C5F30A570246C5F31303C1F37A
:1003B0001300C1F30A5640F4801543F48013A7EBF1
:1003C0000608101BD64608F2FD3873EB050002D371
:1003D00008F1010801E092185B41B8F1000F03DA5F
:1003E00000200146BDE8F08D00204FF48011064644
:1003F00084460EE0171B73EB050705D3121B63EB56
:10040000050306434CEA010C49084FEA30009218F4
:100410005B4150EA0107EDD152EA030012D082EAB3
:10042000040083EA0501084305D0101BAB4106D246
:100430000122002306E000224FF0004302E06FF0AB
:10044000010253101AEB06004CEB085110EB0A00A6
:1004500041EB0B01BDE8F04D00F095B80EB540F250
:10046000334102910021CDE900110A460B4600F00C
:1004700099F803B000BD01F0004330B421F0004111
:1004800050EA010206D00A0DA2F56072C1F3130111
:10049000002A02DC30BC00207047440F44EAC1044B
:1004A000C100E01830BC00EBC25000F035B830B5E8
:1004B0000B46014600202022012409E021FA02F522
:1004C0009D4205D303FA02F5491B04FA02F52844BC
:1004D000151EA2F10102F1DC30BD202A04DB203A16
:1004E00000FA02F1002070479140C2F1200320FA87
:1004F00003F3194390407047202A04DB203A21FA85
:1005000002F00021704721FA02F3D040C2F120022C
:1005100091400843194670470029A8BF7047401C06
:10052000490008BF20F00100704710B4B0FA80FC09
:1005300000FA0CF050EA010404BF10BC704749B146
:10054000CCF1200421FA04F411FA0CF118BF0121B6
:1005500021430843A3EB0C01CB1D4FEA00614FEA96
:10056000102042BF002010BC704700EBC350104465
:100570000029A4BF10BC7047401C490008BF20F0F0
:10058000010010BC704710B5141E73F1000408DAA6
:10059000401C41F1000192185B411A4301D120F047
:1005A000010010BD2DE9F04D92469B4611B1B1FA04
:1005B00081F202E0B0FA80F220329046FFF78DFF20
:1005C00004460F4640EA0A0041EA0B0153465A46E8
:1005D000084313D0114653EA010019D0C8F1400274
:1005E0005046FFF789FF05460E465046594642469B
:1005F000FFF773FF084305D0012004E02046394689
:10060000BDE8F08D0020054346EAE0762C433743F1
:100610000A986305E40AA0EB08000022FD0A44EAF8
:1006200047540A3002D500200146E9E701051019B8
:100630006941DDE9084500196941BDE8F04DA2E7CF
:100640002DE9FE4F804681EA0300C00F0C46009062
:1006500021F0004123F00045B8EB0200A94105D28A
:100660004046214690461C460B46024623F0004079
:10067000104347D0270DC7F30A00C3F30A51029075
:10068000401A019040286BDAC3F3130040F4801B3A
:100690000098924620B10023D2EB030A63EB0B0BC8
:1006A00001985946C0F140025046FFF716FF064632
:1006B0000D4650465946019A00F0ACF810EB080080
:1006C0006141002487EA115284EAE7731A4340D05B
:1006D000009A62B3019A012A4FEA075215DC001B07
:1006E00061EB02014FF0004202EA0752CDE90042FD
:1006F000001C41F5801132462B46FFF753FF03B033
:10070000BDE8F08F40462146F9E7001B61EB02018E
:10071000001C41F5801300185B412018A2F500175A
:1007200047EB030140EAD570B6196D4111E06D0841
:100730004FEA360645EAC0754FEA0752001B61EBE7
:100740000201001C41F5801149084FEA30000019F0
:10075000514132462B4603B0BDE8F04FFFF713BFBF
:100760000098012240000023D0EB020263EBE0730B
:10077000009821464FEAE074B8EB000061EB0401F9
:10078000E9E783F000435BE781F0004158E7C1F3FC
:100790000A52C1F3130140F2FF3341F480119A422F
:1007A00002DA00200146704740F233439A42A2F237
:1007B000334202DC5242FFF79FBEFFF78EBE0000BD
:1007C00030B5041E71F1000404DB4FF000444042D8
:1007D00064EB0101141E73F1000405DB1C464FF0AD
:1007E0000043524263EB0403994208BF904230BD7C
:1007F000064C074D06E0E06840F0010394E807006E
:1008000098471034AC42F6D3FFF7EAFCBC5E000810
:10081000DC5E0008202A06DBCB17203A41FA02F002
:1008200043EAE07306E041FA02F3D040C2F120024D
:100830009140084319467047F8B5044600200090DF
:100840002068816811F0010F41D18168214A11426D
:100850002ED18168D5432940491C81601E4880689B
:1008600000F0E07000020DD51C481D490068B0FB87
:10087000F1F0401C00EB4000800000E0401E0090C2
:100880000028FBD100F0B8FD06461BE0816811F09E
:10089000010F03D181682940491C816000F0ACFD43
:1008A000801B02280ED920680068C043C00709D009
:1008B000E06D40F01000E065206E40F00100206621
:1008C0000120F8BD20680168C943C907DED10020B6
:1008D000F8BD00003F0000800003005038000020F9
:1008E000400D0300FEE77047002240F6B83306E0F3
:1008F0000021491C89B29942FBD3521C92B2824218
:10090000F6D3704772B6FEE72DE9F84F002704468C
:10091000009790F85800DFF8E0930D46B84601289C
:1009200011D0012684F85860206802F037FB60B1CE
:10093000E06D40F02000E0655FF0010784F858802A
:100940003846BDE8F88F0220FBE7D5E900210C23EB
:10095000206803EA91131844036B01F01F014FF064
:100960001F0C0CFA01FCC2F3846223EA0C038A40D8
:1009700013430363206802F011FB8246206802F0F3
:1009800009FB5AEA00003CD1AA6829682068B2F144
:10099000004F37D002F006FB2068416921F000418A
:1009A000416120686969C268C2F3C1025200914086
:1009B0002A69042A31D000EB82002B68026EDFF82E
:1009C0003CC303F0F84302EA0C020B431A4342F023
:1009D0000041016620682A69A96900EB8200026E65
:1009E00022F080720A430266297F22682869012961
:1009F00010D0002102EB8000026E22F000720A4348
:100A000002667DE0002202F0CDFA2068416941F0E3
:100A10000041C5E74FF00071ECE7002102F0B4FAA5
:100A2000400320684FF0000172D002F0ADFA90FA56
:100A3000A0F0B0FA80F1286842036ED090FAA0F0DE
:100A4000B0FA80F0814204D100221146206802F001
:100A5000B8FA0121206802F097FA400320684FF0AD
:100A600001015DD002F090FA90FAA0F0B0FA80F1A6
:100A70002868420359D090FAA0F0B0FA80F0814281
:100A800004D100220121206802F09BFA0221206893
:100A900002F07AFA400320684FF0020148D002F0D9
:100AA00073FA90FAA0F0B0FA80F12868420344D0BB
:100AB00090FAA0F0B0FA80F0814204D10022022125
:100AC000206802F07EFA0321206802F05DFA4003FC
:100AD00020684FF0030133D002F056FA90FAA0F0EC
:100AE000B0FA80F1286842032FD090FAA0F0B0FA53
:100AF00080F0814204D100220321206802F061FAD3
:100B00002068816811F0010F22D0ACE000E004E021
:100B100002F03AFAC0F384618DE7C0F3846091E794
:100B200002F032FAC0F38461A2E7C0F38460A6E762
:100B300002F02AFAC0F38461B7E7C0F38460BBE730
:100B400002F022FAC0F38461CCE7C0F38460D0E7FE
:100B50002A7B296850F8B03FC1F3120C23EA0C033A
:100B600002F0180C664A22FA0CF20A4013430360A2
:100B7000E968494577D1286841031CD090FAA0F173
:100B8000B1FA81F1491C01F01F0109294FEA4031F6
:100B900032D8002912D000BF90FAA0F1B1FA81F149
:100BA00001F1010101F01F0106FA01F609D100BFB0
:100BB000C0F3846109E0C0F38461E3E7C0F38461BA
:100BC000EEE790FAA0F1B1FA81F101F1010101F033
:100BD0001F0146EA816102D1C0F3846003E090FA0C
:100BE000A0F0B0FA80F000F1010000F01F0000EB6F
:100BF000400041EA005132E000290ED090FAA0F105
:100C0000B1FA81F101F1010101F01F0106FA01F6CB
:100C100006D100BFC0F3846106E0C0F38461F1E750
:100C200090FAA0F1B1FA81F101F1010101F01F0187
:100C300046EA816102D1C0F3846003E090FAA0F03B
:100C4000B0FA80F000F1010000F01F002D4A00EB27
:100C5000400002EB005041EA000141F00071AA6837
:100C6000206802F09FF928482A6802423FF466AEE5
:100C700026488168264B01F0E0719A4202D0254B4C
:100C80009A421CD10B021AD42268B2F1A04F7FF411
:100C900055AE826841F4000122F0E0720A4382609E
:100CA0001D481E490068B0FBF1F0401C00EB4000FD
:100CB000800000E0401E00900028FBD13EE6184D69
:100CC000184BAA4207D1CD0105D422689A42F5D02B
:100CD00041F0807109E0144DAA42EFD14A02EDD4EF
:100CE00022689A42EAD041F48001826822F0E072E0
:100CF0000A43826022E6000000007F4000F0FF030C
:100D0000FFFF0700000020FE0000088000030050E5
:100D1000000021C31000C09038000020400D0300E7
:100D2000000052C700010050000084CB0068006C36
:100D300070470000F8B54FF0000504002E460095FE
:100D400002D0E06D10B107E00120F8BD204600F0B0
:100D5000EBF8266684F8586020688168C1F340711A
:100D600019B18168684A1140816020688168C1F3C7
:100D7000007189B98168654A114041F080518160F4
:100D8000634864490068B0FBF1F04000801C00E05B
:100D9000401E00900028FBD120688168C1F30071DB
:100DA00041B9E16D41F01001E165216E41F00101B1
:100DB0002166012502F0F2F8E16DC90600D430B1D8
:100DC000E06D40F01000E06501252846F8BDE06DBB
:100DD00020F4807040F00200E0652068806810F028
:100DE000010F11D14FF0A04080684B4900F0010085
:100DF000896801F00101084306D1484861688268AA
:100E000022F47C120A438260E168E06B627F08434F
:100E1000A16841EA4231084394F8241040EA0140B5
:100E2000012904D1218D3E4A02EB41410843E16A88
:100E300029B101F47871226B014342EA0100226872
:100E4000D168384B19400143D16020680169626B59
:100E500021F0406111430161206802F09BF870BBF2
:100E6000207F94F83810800340EA41022168C86866
:100E700044F2020398431043C860206900282068A8
:100E800001690AD041F480310161206850F8C01F27
:100E900022696FF30D01114307E021F480310161F4
:100EA000206850F8C01F6FF30D01016094F84000F6
:100EB00001280CD02068016921F0010101616069FD
:100EC00001282068016B21F00F0111D013E0D4E953
:100ED00011010843D4E913121143084321680A6938
:100EE00040F2FC739A43104340F001000861E6E7CA
:100EF000226A521E11430163E06D20F0020040F0AF
:100F00000100E06561E70000C0FFFF5FC0FFFF7FF9
:100F100038000020400D0300000100500003005085
:100F20000000FEFF0740F0FF10B598B00446142102
:100F300011A8FFF7A7F944216846FFF7A3F915495F
:100F40002068884223D1C401400500940F90684670
:100F500000F050FB08B1FFF7D5FC0F48C16C41F41D
:100F60000051C164C16C01F400511691C16C41F093
:100F70000201C164C06C11A900F0020016900320A8
:100F8000CDE9114000201390044800F007F918B093
:100F900010BD000000010050001002400004004895
:100FA0002DE9F04104463848806800F01F052068AC
:100FB00001F0F4FF18B102210846BDE8F08194F871
:100FC000580001280CD0012084F858002046FFF773
:100FD00033FC01004FF0000304D084F85830EBE7F5
:100FE0000220EAE7E06D40F60162904340F4807031
:100FF000E065264A20684FF0A046904201D137466E
:1010000000E00746874200D01DB9E76D27F480173E
:10101000E765E76DFF0404D5276E27F0060727660E
:1010200000E023661C27076084F85830206890424F
:1010300001D1334600E00346834215D0A5B1052D0A
:1010400012D0092D10D0E36D43F48013E365904274
:1010500000D13046C0688001AED5E06D20F400506C
:1010600040F48050E065A7E7C268920105D5E26DC3
:1010700022F4005242F48052E2658268044B1A4026
:10108000121D826098E7000000030050000100502C
:10109000C0FFFF7F10B590F8253000210122022B00
:1010A00003D00421C163012122E003681C6824F0FD
:1010B0000E041C60836C1C6824F480741C6003683C
:1010C0001C6824F001041C6090F84430046C03F0A8
:1010D0001F0302FA03F36360D0E913345C60436DCD
:1010E00033B11C6824F480741C60D0E916345C6051
:1010F00080F82520002280F82420084610BD70B515
:1011000090F82520002401212346022A07D004223A
:10111000C26380F8251080F82430012429E0026899
:10112000156825F00E0515600268156825F00105A3
:101130001560826C156825F48075156090F8442060
:10114000056C02F01F0201FA02F26A60D0E9132571
:101150005560426D32B1156825F480751560D0E98F
:101160001625556080F8251080F82430816B01B178
:101170008847204670BD000070B5044600F03CF979
:101180000546601C02D004484068044400F034F96D
:10119000401BA042FAD370BD2C0000202DE9F04F77
:1011A000DFF82092002301260324A9F1040B85B067
:1011B0000F2709F1040AABF1040EFAE006FA03F571
:1011C0002A407CD091F804C00CF0030CBCF1010F54
:1011D00002D0BCF1020F26D1D0F808C0CDF800C073
:1011E0004FEA430C04FA0CF8CDF810C0DDF800C04B
:1011F0002CEA080CCDF800C0D1F80C80DDF810C046
:1012000008FA0CF8DDF800C048EA0C08C0F80880BD
:10121000D0F804C02CEA050C0D79C5F300159D40EB
:1012200045EA0C0545600D79ED43AD070ED0C56864
:101230004FEA430804FA08FC25EA0C05D1F808C077
:101240000CFA08FC4CEA050CC0F80CC00D7905F04E
:101250000305022D16D1DD0800EB850CCDF808C082
:10126000DCF820805D074FEAD56C07FA0CF528EA18
:1012700005080D6905FA0CF5DDF808C045EA080512
:10128000CCF8205005684FEA430CCDF808C004FAAA
:101290000CFC25EA0C0591F804C00CF00308DDF8FD
:1012A00008C008FA0CF848EA0508C0F800804D6844
:1012B00015F4403F7CD0444DD5F860C000E077E0A5
:1012C0004CF0010CC5F860C02D6E23F0030C05F046
:1012D000010500953D4D65440295AD684FEA837C5C
:1012E0004FEA1C7807FA08FC25EA0C05B0F1904F8C
:1012F00006D0DFF8DCC0604505D14FF0010C20E0DE
:101300004FF0000C1DE0DFF8CCC0604502D14FF07B
:10131000020C16E0DFF8C0C0604502D14FF0030CAC
:101320000FE0DFF8B8C0604502D14FF0040C08E0D0
:10133000DFF8ACC0604502D14FF0050C01E04FF082
:10134000060C0CFA08FC4CEA050C029DC5F808C016
:10135000D9F80050CC46D1F8048095435FEAC828FC
:1013600000D51543CCF80050DAF80050D446D1F837
:10137000048095435FEA882800D51543CCF80050D7
:10138000DBF80050DC46D1F8048095435FEA8838EA
:1013900000D51543CCF80050DEF80050F446D1F8E3
:1013A000048095435FEAC83800D51543CCF8005057
:1013B0005B1C0A6832FA03F57FF400AF05B0BDE8A4
:1013C000F08F0000080401400010024000000140BE
:1013D0000004004800080048000C004800100048C5
:1013E000001400480069084000D0012070470AB18D
:1013F00081617047816270470148806870470000D2
:101400002C000020024881684268114481607047C6
:101410002C00002010B50024032000F073F80F20EA
:1014200000F008F808B1012401E000F025F820469A
:1014300010BD000070B50E4E05460024706898B1CE
:101440004FF47A71B1FBF0F00A490968B1FBF0F092
:1014500000F05EFD40B9102D06D200222946501E34
:1014600000F030F8356000E00124204670BD000037
:101470002C000020380000200A4882B0016E41F0A4
:1014800001010166016E01F001010091816D41F0E1
:1014900080518165806D00F08050009002B000F0B6
:1014A000A1B8000000100240002809DB00F01F0274
:1014B000012191404009800000F1E020C0F80011B6
:1014C00070470000F0B40E4B1B680C46C3F30223B8
:1014D000C3F10705042D00D90425191D072901D2E0
:1014E000002300E0DB1E012606FA05F1491E21401B
:1014F00099409E40761E16403143F0BC02F024BF56
:101500000CED00E0064900F0070208684FF6FF0303
:10151000184040EA0220034A104308607047000068
:101520000CED00E00000FA052B492C4B0A68322133
:101530004A432B4940B1B0F5007F086829D020F418
:10154000C06040F480602CE00868C0F341200228AD
:1015500004D051F8800F20F4807022E0D1F8800090
:1015600020F48070C1F88000086820F4C06040F466
:1015700000700860B2FBF3F0401C00E0401E4A69B6
:10158000520501D50028F9D1486940050AD5032044
:101590007047C0F34120022806D051F8800F40F474
:1015A0008070086000207047D1F8800040F480709F
:1015B000C1F88000086820F4C06040F40070086042
:1015C000B2FBF3F0401C00E0401E4A695205DBD537
:1015D0000028F9D1D8E700003800002040420F0071
:1015E000007000400248816841F48041816070478A
:1015F000007000402DE9F8430446006800269D4D28
:1016000000035ED5A86D0027C00008D4A86D40F087
:101610008050A865A86D012700F080500090DFF889
:101620005892D9F8001041F48071C9F80010FFF702
:10163000E3FE804606E000BFFFF7DEFEA0EB0800F9
:1016400002282BD8D9F80000C005F5D5D5F89000B0
:1016500010F4407014D0216C814211D0D5F8900064
:10166000D5F8901020F4407041F48031C5F8901006
:10167000D5F8901021F48031C5F89010C5F890008D
:10168000C00711D0FFF7B8FE804641F2883907E065
:10169000FFF7B2FEA0EB0801494501D903260BE094
:1016A000D5F890008007F3D5D5F89000216C20F490
:1016B00040700843C5F890001FB1A86D20F080501D
:1016C000A8652078C00707D0D5F88800616820F0A9
:1016D00003000843C5F888002078800707D5D5F8AF
:1016E0008800A16820F00C000843C5F88800207825
:1016F000400707D5D5F88800E16820F0300008439E
:10170000C5F888002078000707D5D5F8880021693A
:1017100020F0C0000843C5F888002078800607D56F
:10172000D5F88800616920F440600843C5F8880056
:101730002078400607D5D5F88800A16920F44050EC
:101740000843C5F888002078000607D5D5F888003A
:10175000E16920F440400843C5F888002088C005AE
:1017600007D5D5F88800216A20F440300843C5F831
:1017700088002088800507D5D5F88800616A20F4A4
:1017800040200843C5F88800208840050FD5D5F8CB
:101790008800A16A20F440100843C5F88800A06AB8
:1017A000B0F5801F03D1E86840F48010E86020881D
:1017B00000050FD5D5F88800E16A20F44000084301
:1017C000C5F88800E06AB0F5800F03D1E86840F4FE
:1017D0008010E8602088C0040FD5D5F88800216B00
:1017E00020F040700843C5F88800206BB0F1807F7E
:1017F00003D1E86840F48010E86020884FF0006171
:1018000080040ED5D5F88800626B20F0406010434C
:10181000C5F88800606B884203D1E86840F4801006
:10182000E860208840040ED5D5F88800A26B20F02F
:1018300040601043C5F88800A06B884203D1E86877
:1018400040F48010E860208800040FD5D5F88800A7
:10185000E16B20F040500843C5F88800E06BB0F120
:10186000805F03D1E86840F48030E8603046BDE82E
:10187000F883000000100240007000402DE9F0479E
:101880000E4605004FF0000725D0DFF8AC81D8F8F0
:10189000000000F00F00B0420CD2D8F8001021F088
:1018A0000F013143C8F80010D8F8000000F00F0015
:1018B000B04210D12968614CC80741F2883A5AD029
:1018C0006868DFF87C91032808D0022820682DD0B2
:1018D000400500282CDB0120BDE8F087206880014E
:1018E000F9D5E06800F00302E068C0F30310401C83
:1018F000032A19D0534A00BFB2FBF0F0E268C2F3EA
:1019000006225043E268C2F34162521C5200B0FB0F
:10191000F2F0484517D9A06810F0F00F0CD08807F6
:1019200011D5A86840B10EE0474AE5E78003D0E74B
:1019300000F0B6F8484506D9A06820F0F00040F065
:101940008000A0608027A068696820F00300084339
:10195000A060FFF751FD814606E000BFFFF74CFD98
:10196000A0EB090151453AD8A068696800F00C0065
:10197000B0EB810FF2D12868810714D5400703D559
:10198000A06840F4E060A0602878000705D5A06852
:1019900020F4605040F4E060A060A068A96820F0E6
:1019A000F000084304E0802F03D1A06820F0F0008D
:1019B000A060D8F80010404601F00F01B14216D9DE
:1019C000016821F00F0131430160FFF715FD074663
:1019D00007E000BFFFF710FDC11B514501D90320EF
:1019E0007AE7D8F8000000F00F00B042F2D1287872
:1019F000400705D5A068E96820F4E0600843A060CE
:101A00002878000706D5A068296920F4605040EACC
:101A1000C100A06000F044F8A1680C4AC1F30311B2
:101A2000515C01F01F01C84009490860094800687D
:101A3000BDE8F047FFF7FEBC002002400010024066
:101A400000B4C4040024F40000127A00A45E00086C
:101A5000380000202C0000200548064900688968ED
:101A6000054AC1F30221515C01F01F01C8407047D3
:101A70003800002000100240B45E00080548064906
:101A800000688968054AC1F3C221515C01F01F0159
:101A9000C84070473800002000100240B45E0008C3
:101AA000184910B58868C0F381021748012A0BD085
:101AB0008A684310C2F38102022A06D08A68C2F300
:101AC0008102032A03D0002010BD184610BDCA6849
:101AD00002F00304CA68C2F30312521C032C02D0A2
:101AE000B0FBF2F001E0B3FBF2F0CA68C968C2F3E0
:101AF00006225043C1F34161491C4900B0FBF1F09B
:101B000010BD0000001002400024F4002DE9F8434D
:101B100004007AD02078F84DC00747D0A868E9685B
:101B200000F00C0001F003010C2802D0082817D0A7
:101B300001E0032914D06068B0F5803F17D0B0F5FC
:101B4000A02F286817D020F480302860286820F45F
:101B5000802028606068E0B1FFF74EFC064614E084
:101B60002868800322D560680028D2D01EE028684B
:101B700040F48030EDE740F480202860F7E700BFB4
:101B8000FFF73AFC801B642870D828688003F7D5DB
:101B90000CE0FFF731FC064605E000BFFFF72CFC28
:101BA000801B6428F0D828688003F7D42078800749
:101BB0004CD5A868E96800F00C0001F003010C287E
:101BC00002D004280DD001E002290AD0E0680028E4
:101BD00028682BD040F480702860FFF70DFC064683
:101BE00019E02868400502D5E068002891D06868AF
:101BF000217C20F0FE4040EA01606860BF48006838
:101C0000FFF718FC002800D120E072E1FFF7F4FB99
:101C1000801B0228B8D828684005F7D56868217C61
:101C200020F0FE4040EA016068600FE020F4807020
:101C30002860FFF7E1FB064605E000BFFFF7DCFB8D
:101C4000801B0228A0D828684005F7D42078000718
:101C500029D560690028D5F8940013D040F0010020
:101C6000C5F89400FFF7C8FB064606E090E000BF09
:101C7000FFF7C2FB801B022886D8D5F894008007A6
:101C8000F6D510E020F00100C5F89400FFF7B4FB92
:101C9000064604E0FFF7B0FB801B022878D8D5F891
:101CA00094008007F6D42078400761D5A86D0026FF
:101CB000C00008D4A86D40F08050A865A86D01262A
:101CC00000F0805000908E480168C90511D4016869
:101CD000804641F480710160FFF78EFB074604E007
:101CE000FFF78AFBC01B022852D8D8F80000C005B5
:101CF000F6D5A068012815D00528D5F8900016D093
:101D000020F00100C5F89000D5F8900020F0040004
:101D1000C5F89000A06841F28838B8B1FFF76CFBB5
:101D200007460EE0D5F8900040F00100F0E740F0E3
:101D30000400C5F89000F5E7FFF75EFBC11B4145C5
:101D400026D8D5F890008007F6D50CE0FFF754FBB5
:101D5000074604E0FFF750FBC11B414518D8D5F8F2
:101D600090008007F6D41EB1A86D20F08050A865C1
:101D70002078800629D5A0690028D5F8980013D0CE
:101D800040F00100C5F89800FFF736FB064606E074
:101D900075E000BFFFF730FB801B02286FD8D5F835
:101DA00098008007F6D510E020F00100C5F89800F3
:101DB000FFF722FB064604E0FFF71EFB801B02280C
:101DC0005DD8D5F898008007F6D4E069F0B3A9682B
:101DD000C1F3810103295DD00228286820F08070BA
:101DE000286003D0FFF708FB04464BE0FFF704FB35
:101DF000064604E0FFF700FB801B02283FD8286856
:101E00008001F7D4F4E908016FF00F0202EB011131
:101E10000843218A5204490802EB4151A26841EA71
:101E200002210843217D4FF07E42490802EB4161C7
:101E30000843217B40EAC160E968324A1140084307
:101E4000E860286840F08070286000E05EE0E868A4
:101E500040F08070E860FFF7CFFA044605E000BF6D
:101E6000FFF7CAFA001B022809D828688001F7D5B5
:101E70004CE000BFFFF7C0FA001B022802D9032084
:101E8000BDE8F88328688001F4D4E8681E4908405A
:101E9000E8603BE00128F3D0E868226A00F0030123
:101EA000914226D1616A00F0F00209011039914295
:101EB0001FD1A26A00F4FE41B1EB022F19D194F8B0
:101EC0002C2000F07841B1EBC26F12D1218E00F4CA
:101ED000C00249084905A1F50011914209D194F8C1
:101EE000341000F0C06049084906A1F10071814238
:101EF0000CD00120C4E70000001002402C0000209C
:101F0000007000400C809F01FCFFEEFE0020B7E750
:101F100010B5401EB0F1807F01D3012010BD4FF0FD
:101F2000E02460610F21601702F00EFA0020A0612A
:101F300007202061002010BD704770477047704730
:101F400070477047F0B590F83C20012A3AD001253F
:101F500080F83C50022280F83D2003685A689C6853
:101F6000194E1A4FB34201D0BB4204D122F4700C77
:101F70004A6842EA0C02DFF858C002EA0C02D1F8C3
:101F800000C04CEA020CC3F804C00268B2420DD093
:101F9000B2F1804F0AD00F4B9A4207D00E4B9A42B3
:101FA00004D0BA4202D00D4B9A4204D1896824F081
:101FB00080031943916080F83D50002180F83C1067
:101FC0000846F0BD0220F0BD002C01400034014065
:101FD0008FFFFFFD0004004000080040004001406A
:101FE000704710B5040003D094F83D0010B107E02D
:101FF000012010BD002084F83C00204600F022F8AB
:10200000022084F83D00211D206801F087FB01209B
:1020100084F8480084F83E0084F83F0084F84000CB
:1020200084F8410084F8420084F8430084F84400B6
:1020300084F8450084F8460084F8470084F83D00A1
:10204000002010BD08B500680B49884212D10B482A
:10205000816D41F010018165806D002200F010005B
:10206000009011463620FFF72DFABDE808403620D3
:10207000FFF71ABA08BD000000100040001002402F
:1020800090F83D10012901D001207047022180F80D
:102090003D100168CA6842F00102CA600068104938
:1020A00088420ED0B0F1804F0BD00E49884208D044
:1020B0000D49884205D00D49884202D00C4988421A
:1020C00007D181680B4A1140062906D0B1F5803F3F
:1020D00003D0016841F00101016000207047000059
:1020E000002C014000040040000800400034014082
:1020F000004001400700010070472DE9F04104460F
:102100000068C66805694FF00007A90713D5B10735
:1021100011D5F91E016101202077206880698007B0
:10212000204602D0FFF7E8FF04E000F0B7F82046B1
:1021300000F0B5F82777680716D5700714D5216821
:102140006FF004000861022020772068806910F495
:10215000407F204602D0FFF7CFFF04E000F09EF85A
:10216000204600F09CF82777280715D5300713D5AF
:1021700021686FF008000861042020772068C0699A
:102180008007204602D0FFF7B7FF04E000F086F892
:10219000204600F084F82777E80616D5F00614D517
:1021A00021686FF010000861082020772068C0695E
:1021B00010F4407F204602D0FFF79EFF04E000F0BD
:1021C0006DF8204600F06BF82777E80708D0F00795
:1021D00006D021686FF001000861204600F060F829
:1021E000280601D4A80408D5300606D521686FF466
:1021F000025008612046FFF7A0FEE80508D530062A
:1022000006D521686FF4807008612046FFF794FEC0
:10221000680608D5700606D521686FF04000086191
:10222000204600F091F8A80608D5B00606D521682A
:102230006FF0200008612046FFF780FEE80208D515
:10224000F00206D521686FF4801008612046FFF780
:1022500077FEA80208D5B00206D521686FF40010F9
:1022600008612046FFF76BFE680208D5700206D5AC
:1022700021686FF4800008612046FFF762FE2802A3
:102280000AD5300208D521686FF4000008612046A5
:10229000BDE8F041FFF7A4BEBDE8F081704770478C
:1022A00070B500682449884244D1244C0025A08898
:1022B000401C80B2A080B0F5FA7F00D1A580A08834
:1022C0000921B0FBF1F201FB120109B901212170D2
:1022D0003221B0FBF1F201FB120109B90221217098
:1022E0006421B0FBF1F201FB120131B9032121702D
:1022F00013490A7882F001020A70C821B0FBF1F29A
:1023000001FB120109B9042121700C4900F00700FA
:102310000831095C00F0EAFD0A480178002909D07B
:10232000E188491C89B2A1F59852E180883A01D12F
:10233000E580057070BD0000001000400000002026
:102340001700002016000020704790F88410012923
:1023500018D0012180F884102421C0F88810016869
:102360000A680B6823F001030B6022F00051002281
:102370004266036819602021C0F8881080F8842024
:1023800010467047022070477047704770B504468A
:1023900090F8840001281DD0012084F884002420B6
:1023A000C4F8880020680568026822F00102026013
:1023B0002068826822F060620A438260204601F051
:1023C0000BFA206805602020C4F88800002084F8FB
:1023D000840070BD022070BD70B5044690F8840082
:1023E00001281DD0012084F884002420C4F888002E
:1023F00020680568026822F0010202602068826895
:1024000022F060420A438260204601F0E5F920682C
:1024100005602020C4F88800002084F8840070BD86
:10242000022070BD70477047704700002DE9F041F1
:1024300003680446D86919689A6840F60F0528426F
:102440004FF000054FF002060AD187067ED501F055
:10245000200702F0805C57EA0C0777D0616F3AE101
:10246000B24FDFF8CCC2174001EA0C0C57EA0C0C53
:102470006CD05FEAC07C0CD05FEAC15C09D54FF03C
:10248000010CC3F820C0D4F8903043F00103C4F825
:102490009030830709D5D30707D023681E62D4F88C
:1024A000903043F00403C4F8903043070AD5D307B3
:1024B00008D0266804233362D4F8903043F0020336
:1024C000C4F8903003070CD501F020033B4308D03B
:1024D000266808233362D4F8903043F00803C4F828
:1024E000903003050BD54B0109D526684FF40063E6
:1024F0003362D4F8903043F02003C4F89030D4F81D
:102500009030002B3DD0800609D501F0200002F06C
:102510008051084303D0616F09B120468847D4F841
:10252000900021688968490602D410F0280F2AD04B
:10253000204601F037FA2068806840061ED52068E2
:10254000083050E8001F21F0400100E021E040E8A1
:102550000012002AF3D1D4F8800078B17549816364
:10256000D4F88000FEF7CBFD00280AD0D4F8800014
:10257000816B00E02046BDE8F04108472046FFF7A8
:1025800053FFBDE8F0812046FFF74EFFC4F890509E
:10259000F7E7D4F86CC02027BCF1010F7ED15FEAC9
:1025A000C06C7BD55FEAC16C78D5102018622068BA
:1025B0008068400645D5D4F880100868406800045B
:1025C000000CDED0B4F85C208242DAD9A4F85E00B8
:1025D0000868006880062CD4216851E8000F20F4B8
:1025E000807041E80002002AF6D12068083050E8E7
:1025F000001F21F0010140E80012002AF5D12068F7
:10260000083050E8001F21F0400140E80012002A85
:10261000F5D1C4F88C70E566206850E8001F21F001
:10262000100140E80012002AF6D1D4F88000FEF72D
:1026300031FD2667B4F85C00B4F85E10401A81B230
:1026400030E0B4F85C00B4F85E10401A81B2B4F81F
:102650005E00002895D0002993D0226852E8000F30
:1026600020F4907042E80003002BF6D12F4BDB439F
:102670002068083050E8002F1A4040E8002CBCF1D8
:10268000000FF5D1C4F88C70E5666567226852E8E2
:10269000000F20F0100042E8000300E006E0002BED
:1026A000F4D126672046FFF76FFE6AE7C60209D518
:1026B000560207D54FF4801018622046BDE8F0415D
:1026C000FFF7B1BE03060AD501F0800302F4000251
:1026D000134304D0A16F00297FF44CAF51E74206A9
:1026E00011D54A060FD52046026852E8001F21F096
:1026F000400142E80013002BF6D1C0F888708567CE
:1027000000F02BF93DE7020206D54A0004D5204629
:10271000BDE8F041FFF786BEC001C6D50029C4DA86
:102720002046BDE8F041FFF730BE00000100001078
:10273000200100049139000810B5040003D0D4F83A
:10274000880010B107E0012010BD002084F884004B
:10275000204600F027F82420C4F88800206801688B
:1027600021F001010160A06A10B1204601F056F885
:10277000204601F0A9FB0128E6D02068416821F439
:10278000904141602068816821F02A0181602068C1
:10279000016841F0010101602046BDE8104001F0F0
:1027A000A1B8000010B598B00446142111A8FDF797
:1027B00069FD44216846FDF765FD1B492068884294
:1027C00030D101200024CDE900046846FEF712FF55
:1027D00008B1FEF797F81548016E41F48041016693
:1027E000016E01F480411691C16C41F00101C16498
:1027F000C06C11A900F0010016904FF4C060119058
:102800000220CDE912040720CDE914404FF090409A
:10281000FEF7C4FC002211462520FEF753FE2520BA
:10282000FEF742FE18B010BD003801400010024013
:1028300030B4D0F88C30202B02D0022030BC70474E
:10284000A9B1A2B10023C3660A4C0368A3420BD00E
:102850005B681B0208D5046854E8003F43F08063BE
:1028600044E80035002DF6D130BC01F067BC0120F2
:10287000E4E70000008000400068084988420BD16E
:102880000749084B88784A781A54401C88700122FE
:10289000491C0548FFF7CCBF7047000000380140D5
:1028A000000000208C010020F80000202DE9F843F2
:1028B0000446D0F88800984616460D46202802D0D7
:1028C0000220BDE8F883A5B19EB10020C4F89000B5
:1028D0002120C4F888001834FEF78EFDA6878146B3
:1028E000E68754F8100C2027183CB0F5805F02D022
:1028F00003E00120E5E7206910B12E46002510E035
:1029000000260EE08021204601F0A0FCC0B9DEB117
:1029100016F8010B21688862B4F85600401EA4F82E
:102920005600B4F856004B464FF00002CDF8008038
:102930000028E7D14FF04001204601F087FC40B16C
:10294000C4F888700320BCE735F8020BC0F3080018
:10295000E0E7C4F888700020B3E77047FEE70000A6
:102960002DE9F04126480178012942D10025057062
:1029700000F054F8234C04F108062070E27820EAB5
:102980000201424061708243A270E0706079532777
:1029900060B101291AD1002000F08EF8257165710F
:1029A000377019A001F0ACFC607978B93078532801
:1029B0000CD16078032801D0042807D115A001F0BC
:1029C0009FFC01206071002000F076F82079617989
:1029D00088430ED030784C280DD0522809D1607829
:1029E000042806D108A001F08BFC377025716571B1
:1029F000A571BDE8F08160780328F3D0F9E7000005
:102A00000000002010000020537563636573730D90
:102A10000A0000005761726E0D0A000070B50E4D7D
:102A2000002401212846FEF7DDFC00B90124022123
:102A30002846FEF7D7FC00B9022404212846FEF7F9
:102A4000D1FC00B9032401214FF09040FEF7CAFCED
:102A500000B90424204670BD0004004800B585B0CC
:102A600014216846FDF70EFC4FF6FF700090002021
:102A70000321CDE90201019069460248FEF78EFB71
:102A800005B000BD0008004800B585B014216846B7
:102A9000FDF7F8FB4FF6FF70009001200190032036
:102AA00003900020029069460248FEF777FB05B0CC
:102AB00000BD00000008004870B50024064621460D
:102AC000204600F067F900F0A9F94FF4963530463A
:102AD00000F074F9641CAC42F9D370BD30B587B016
:102AE00014216846FDF7CEFB1E48C16C41F004017D
:102AF000C164C16C01F004010591C16C41F0010198
:102B0000C164C16C01F001010591C16C41F0020189
:102B1000C164C06C012500F0020005904FF44870BC
:102B2000CDE9000500240394694602940E48FEF79F
:102B300035FB280203940090CDE901544FF09044F6
:102B400069462046FEF72AFBFFF79EFFA06940F486
:102B50008070A06104481830016841F40871016078
:102B600007B030BD0010024000040048203AD2B245
:102B7000034B02EB420203EB021200F019B8000013
:102B8000AC4C0008F0B50E460746002540F23F1455
:102B900007E021463846FFF7E9FF103C6D1CA4B260
:102BA000761C3278002A01D0142DF2D3F0BD00003B
:102BB0002DE9F04791468A460026044600F0EAF8DF
:102BC000DFF84080012700BF00F028F95FF0000522
:102BD00039F8160007FA05F10842404601D140884D
:102BE00000E0008800F0EAF86D1C102DF0D3641CA2
:102BF000E4B25146204600F0CDF8761C182EE3D3FF
:102C0000BDE8F0872400002010B5FFF767FF002023
:102C100000F078F8084CA080A088A0F50241303977
:102C200006D000F0ADFB002000F06CF8A08010BDD5
:102C300000F01DFBF7E700002400002010B51C4841
:102C40000178022932D11B4C00210170607948B112
:102C500019A11D4801F064FBBDE810401A4960202D
:102C6000FFF790BF19A1184801F05AFB1649182028
:102C7000FFF788FF0F4A19A10832134801F050FBF3
:102C800011494820FFF77EFF6089FDF7E7FB9FEDC4
:102C9000171B53EC112BFDF772FB41EC100B15A128
:102CA00053EC102B084801F03BFBD5E710BD0000AA
:102CB00000000020100000202020202020202020C4
:102CC0005741524E00000000960100202020202095
:102CD00020202020444154412000000020202020BA
:102CE0002020204E3A257320000000000000000044
:102CF0000000244020202020202020443A252E318E
:102D00006620000070B51D490A6842F400720A602E
:102D10000A6842F480720A60184C103C226842F043
:102D200020022260164A1060086840F02000086007
:102D300000BF00BF00BF206840F020002060206876
:102D400040F480702060FFF789FE4FF09041886A60
:102D500040F48070886200BF00BF00BF0848001FB9
:102D6000006885B2886940F480708861FFF78CFE46
:102D7000206840F400702060284670BD2804004898
:102D80001408004801B5BDF800000149488008BD9D
:102D90002400002010B50C460146202000F06EF8FB
:102DA0002146BDE81040212000F068B801B5BDF80B
:102DB00000000149088008BD2400002030B5154BF3
:102DC0001C68154A116841F40071116012491039EC
:102DD0000D6845F480750D600D6845F020050D60A7
:102DE0001860106840F02000106000BF00BF00BFF6
:102DF000086840F020000860086840F480700860AF
:102E000000BF00BF00BF086840F4007008601C608D
:102E100030BD00001408004828040048154A10B5C9
:102E200013681549086840F400700860086840F4A9
:102E30008070086010481038046844F02004046072
:102E4000222414600C6844F020040C6000BF00BF12
:102E500000BF016841F020010160016841F4807108
:102E6000016000BF00BF00BF016841F40071016054
:102E7000136010BD140800482804004870B5194CB0
:102E80002568194B1A6842F400721A601A6842F4F5
:102E900080721A60144A103A166846F020061660CE
:102EA0002060186840F02000186000BF00BF00BF1D
:102EB000106840F020001060106840F480701060CE
:102EC0002160186840F02000186000BF00BF00BFFC
:102ED000106840F020001060106840F480701060AE
:102EE000256070BD140800482804004870B5144CD3
:102EF00001228240207811B10243227001E0904308
:102F0000207020786178884219D00E4D01224FF44C
:102F10007F412846FEF76BFA2078002201022846FE
:102F2000FEF765FA084D012204212846FEF75FFAF4
:102F3000002204212846FEF75AFA2078607070BDFE
:102F40002A00002000080048000C00480C4910B579
:102F50004A790C4822B1002141700170C27110BD44
:102F6000074B08331B784C2B06D000240470522BDF
:102F700004D000214170F1E7CC79F7E7C979F9E78E
:102F8000100000200800002000EB8100006E00F01F
:102F9000F84070478068C0F3C00070478068C0F395
:102FA00080007047042303EAD15310B518444369E5
:102FB000C1F3045107248C40A3438A401343436167
:102FC00010BD00EB8100016E21F00041114301664C
:102FD0007047000030B589B020216846FDF752F9EE
:102FE00019481849002401604902C0E90114C4606D
:102FF00004250461C0E90545047744770121016295
:1030000080F82440C462046380F83840C46380F8C8
:103010004040FDF78FFE08B1FDF774FC0B480090AF
:103020000620CDE901047F200594CDE9030569461A
:103030000548FDF769FC002801D0FDF763FC09B0E5
:1030400030BD000000010050400000200080F03E34
:103050002DE9F04F87B014216846FDF713F9404879
:10306000C16C41F00401C164C16C01F0040105911F
:10307000C16C41F02001C164C16C01F020010591D7
:10308000C16C41F00101C164C16C01F00101059105
:10309000C16C41F00201C164C16C01F002010591F3
:1030A000C16C41F00801C164C06CDFF8B88000F069
:1030B00008004FF6FF740590002221464046FEF7B7
:1030C00096F94FF480764FF09049002231464846F9
:1030D000FEF78DF9DFF890A0002204215046FEF79C
:1030E00086F9DFF888B04FF4487700223946584611
:1030F000FEF77DF90125CDE90045002402946946DB
:1031000040460394FEF74AF8CDE900546946484624
:103110000294FEF743F80720CDE9000469465846BB
:103120000294FEF73BF80096CDE901546946484603
:103130000394FEF733F804200090CDE9015469466A
:1031400050460394FEF72AF80097CDE901546946EA
:1031500058460394FEF722F807B0BDE8F08F000050
:103160000010024000080048000C0048000400481D
:103170003EB500240F48009401940D49029401606B
:103180004F21C0E9011440F2E731C1608021816123
:10319000FEF727FF08B1FDF7B5FB00946946054827
:1031A0000294FEF7CFFE002801D0FDF7ABFB3EBD39
:1031B00000100040AC000020184810B5164901600E
:1031C0004FF416514160002181600C22C160C0E9BA
:1031D00004128161C161016241628162FFF7ACFA50
:1031E00008B1FDF78FFB00210C48FFF7F5F808B197
:1031F000FDF788FB00210948FFF7C8F808B1FDF783
:1032000081FB0648FFF7A1F8002803D0BDE8104075
:10321000FDF778BB10BD000000380140F800002029
:10322000FEE7FEE70D4810B501680D4C2269891ACA
:1032300041F28832914210D300682061207961798F
:1032400088430AD007A001F05BF8012060710020DC
:10325000A071BDE81040FFF72FBC10BD3400002066
:10326000100000205761726E0D0A0000704730B5E3
:1032700001210020FFF702FE4FF47A70FDF734FBC6
:1032800000210120FFF7FAFD41F290711020FFF7B5
:10329000F5FD4FF41C516020FFF7F0FD0121612086
:1032A000FFF7ECFD02214620FFF7E8FD48F2100190
:1032B0001320FFF7E3FD48F2FE011220FFF7DEFDC9
:1032C0004FF4A0610220FFF7D9FD41F23001032045
:1032D000FFF7D4FD40F2033421463020FFF7CEFD46
:1032E00021463120FFF7CAFD21463220FFF7C6FDF7
:1032F000E51E29463320FFF7C1FD03213420FFF7E7
:10330000BDFD21463520FFF7B9FD14213620FFF71A
:10331000B5FD21463720FFF7B1FD21463820FFF7E4
:10332000ADFD21463920FFF7A9FD29463A20FFF7D8
:10333000A5FD03213B20FFF7A1FD21463C20FFF71F
:103340009DFD4FF4A0513D20FFF798FD4FF4007113
:103350009220FFF793FD21469320FFF78FFD40F663
:103360000D019020FFF78AFD41F218010320FFF7BD
:1033700085FDBDE8304040F273110720FFF77EBDA8
:1033800010B543F20801E320FFF778FD1221E72092
:10339000FFF774FD41F23121EF20FFF76FFD0021AF
:1033A0000120FFF76BFD4FF4E0610220FFF766FD9F
:1033B00041F230010320FFF761FD00210420FFF7F7
:1033C0005DFD40F207210820FFF758FD002109208C
:1033D000FFF754FD00210A20FFF750FD00210C20CB
:1033E000FFF74CFD00210D20FFF748FD00210F20C5
:1033F000FFF744FD00211020FFF740FD07211120B9
:10340000FFF73CFD00211220FFF738FD00211320BB
:10341000FFF734FDC820FDF7AFFE41F290611020A8
:10342000FFF72CFD40F227211120FFF727FD322066
:10343000FDF7A2FE1D211220FFF720FD3220FDF72F
:103440009BFE4FF400611320FFF718FD1421292083
:10345000FFF714FD0B212B20FFF710FD3220FDF7A5
:103460008BFE00212020FFF709FD00212120FFF71E
:1034700005FD07213020FFF701FD40F207713120E3
:10348000FFF7FCFC06213220FFF7F8FC40F2047144
:103490003520FFF7F3FC41F604713620FFF7EEFC10
:1034A00004213720FFF7EAFC00213820FFF7E6FC73
:1034B00040F206713920FFF7E1FC40F201713C2037
:1034C000FFF7DCFC0F213D20FFF7D8FC0021502046
:1034D000FFF7D4FCEF215120FFF7D0FC0021522050
:1034E000FFF7CCFC40F23F115320FFF7C7FC4FF42D
:1034F0001C516020FFF7C2FC01216120FFF7BEFCD8
:1035000000216A20FFF7BAFC00218020FFF7B6FCFB
:1035100000218120FFF7B2FC00218220FFF7AEFCE2
:1035200000218320FFF7AAFC00218420FFF7A6FCDE
:1035300000218520FFF7A2FC10219020FFF79EFCC0
:1035400000219220FFF79AFC03219320FFF796FCBD
:103550004FF488719520FFF791FC00219720FFF729
:103560008DFC00219820FFF789FC41F2180103200F
:10357000FFF784FCBDE8104040F273110720FFF70D
:103580007DBC0000164810B50078042827D11548E6
:1035900000F0ADFEFCF762FF9FED131B53EC112B07
:1035A000FCF77BFE9FED121B53EC112BFCF775FE15
:1035B000FCF761FF1049114AC860904202DC00EE3E
:1035C000100A03E0B0EE080A81ED030ADFED0C0AF1
:1035D00020EE200ABCEEC00A10EE100A488110BD91
:1035E00000000020400000206666666666660A40AD
:1035F000000000000000303F1000002000004040AC
:1036000000007A44704700002DE9F0411748017826
:10361000032920D1164C002505706079154E20B184
:10362000307810B114A000F06BFEA079144F70B97F
:10363000307800280FD00121A171012804D13878F9
:103640004C280AD0522808D00EA000F059FE357040
:103650003D607D603D81BDE8F081054A0832107013
:103660000A48217100682061F1E700000000002095
:103670001000002002000020574149540D0A0000AC
:103680008C0100204552524F520D0A003400002098
:10369000FDF7B8BE00B593B038216846FCF7F2FDDF
:1036A00014210EA8FCF7EEFD4FF40070FDF73CFF6F
:1036B0000220C1010391402104910121CDE90801BB
:1036C00000900A21CDE90A1007900C900D906846F1
:1036D000FEF71CFA08B172B6FEE70F200E90032029
:1036E0000F90002010901190129002210EA8FEF76A
:1036F000C5F8002801D072B6FEE713B000BD000087
:103700000248016841F470010160704788ED00E0F3
:103710000148FEF7F2BC0000AC0000202DE9F043A8
:103720000268264B264D274E274C4FF08049984281
:1037300007D0484505D0A84203D0B04201D0A042EE
:1037400003D122F070074A683A43204FDFF880C067
:10375000DFF8808098420DD048450BD0A84209D0B0
:10376000B04207D0A04205D0B84203D0604501D096
:10377000404503D122F44075CA682A434D6922F0BE
:1037800080022A4302608A68C2620A6882629842A2
:1037900007D0A04205D0B84203D0604501D04045D3
:1037A00001D109690163012141610169C90703D0A0
:1037B000016921F001010161BDE8F083002C0140A5
:1037C0000004004000080040003401400040014077
:1037D000004401400048014030B5416EB9B1026873
:1037E00091689268C1F342610B4B520F9C5CE500FB
:1037F00003F10804A25CB5FBF2F2A0F86A205A5C5F
:10380000615CD200B2FBF1F1A0F8681030BD01217B
:10381000A0F86A10F8E70000945E000890F82810FD
:10382000090706D501684A68836B22F400421A43EF
:103830004A6090F82810C90706D001684A68C36A30
:1038400022F400321A434A6090F82810890706D5FE
:1038500001684A68036B22F480321A434A6090F888
:103860002810490706D501684A68436B22F4802274
:103870001A434A6090F82810C90606D501688A687C
:10388000C36B22F480521A438A6090F8281089068C
:1038900006D501688A68036C22F400521A438A60D4
:1038A00090F82810490611D501684A68436C22F443
:1038B00080121A434A60416CB1F5801F06D101683D
:1038C0004A68836C22F4C0021A434A6090F82810B8
:1038D000090606D501684A68C06C22F4002202433A
:1038E0004A6070472DE9F84300260446C0F890600E
:1038F000FDF782FD8046206800684FF02005000734
:103900006FF07E4713D543460022290420460097D6
:1039100000F09CFC58B1216851E8000F20F08000B5
:1039200041E80002002AF6D1C4F8885021E020685E
:103930000068400722D5434600224FF4800120460C
:10394000009700F083FCC8B1216851E8000F20F413
:10395000907041E80002002AF6D12068083050E853
:10396000001F21F0010140E80012002AF5D1C4F83F
:103970008C5084F884600320BDE8F883C4F8885034
:10398000C4F88C5044F86C6F666026760020F3E72C
:1039900010B5806A0021A0F85E10A0F85610FEF75E
:1039A00043FD10BD10B5026852E8001F21F490716C
:1039B00042E80013002BF6D10E4B0268083252E8A1
:1039C000001F194042E80014002CF6D1C16E0129F5
:1039D00008D1016851E8002F22F0100241E80023CD
:1039E000002BF6D12021C0F88C100021C166416760
:1039F00010BD0000FEFFFFEF10B5B0F86020D0F85A
:103A00008C300168222B04D0886940F0080088615E
:103A100010BD496A836D11401980816D891C8165D3
:103A2000B0F85E10491EA0F85E10B0F85E100029D4
:103A3000EED1026852E8001F21F4907142E80013B1
:103A4000002BF6D10168083151E8002F22F0010265
:103A500041E80023002BF5D12021C0F88C10002173
:103A600041670167154B02689A420BD052681202F7
:103A700008D5036853E8002F22F0806243E8002451
:103A8000002CF6D1C26E012A02D0FEF7F5FE10BD61
:103A9000C166026852E8001F21F0100142E80013DD
:103AA000002BF6D10168CA69D243D20601D4102294
:103AB0000A62B0F85C10FEF767FC10BD00800040A1
:103AC0002DE9F0470446B0F860600068C569D0F899
:103AD00000A0D0F80880D4F88C10222905D0816984
:103AE00041F008018161BDE8F087B4F868704FF0DB
:103AF000000975E02068406AA16D30400880A06D23
:103B0000801CA065B4F85E00401EA4F85E0020682A
:103B1000C569690730D0E9070AD05FEACA5107D5FD
:103B200001210162D4F8900040F00100C4F8900037
:103B3000A8070BD55FEAC87008D021680220086288
:103B4000D4F8900040F00400C4F8900068070BD54A
:103B50005FEAC87008D0216804200862D4F8900099
:103B600040F00200C4F89000D4F8900020B1204644
:103B7000FEF75AFCC4F89090B4F85E0080BB216850
:103B800051E8000F20F4807041E80002002AF6D1CD
:103B9000304A2068083050E8001F114040E8001308
:103BA000002BF6D12020C4F88C00C4F8749049464C
:103BB000C4F87090284A206890420BD040680002F8
:103BC00008D5226852E8000F20F0806342E80030F8
:103BD0000028F6D1E06E012825D02046FEF74CFEE5
:103BE0000FB1A80686D4B4F85E0000283FF47BAF7E
:103BF000B4F8681081427FF676AF2068083050E84C
:103C0000001F21F0805140E80012002AF5D113482E
:103C10006067216851E8000F40F0200041E8000291
:103C2000002AF6D15FE7E166216851E8000F20F035
:103C3000100041E80002002AF6D12068C169C9439A
:103C4000C90601D410210162B4F85C102046FEF7C9
:103C50009BFBC5E7FEFFFFEF00800040F93900083D
:103C600010B5B0F86020D0F88C300168222B04D059
:103C7000886940F00800886110BD496A1140826D72
:103C80001170816D491C8165B0F85E10491EA0F865
:103C90005E10B0F85E100029EED1016851E8002FE7
:103CA00022F4907241E80023002BF6D1016808311C
:103CB00051E8002F22F0010241E80023002BF5D14A
:103CC0002021C0F88C10002141670167154B026864
:103CD0009A420BD05268120208D5036853E8002FAD
:103CE00022F0806243E80024002CF6D1C26E012A43
:103CF00002D0FEF7C1FD10BDC166026852E8001F88
:103D000021F0100142E80013002BF6D10168CA69C6
:103D1000D243D20601D410220A62B0F85C10FEF73A
:103D200033FB10BD008000402DE9F0470446B0F899
:103D300060600068C569D0F800A0D0F80880D4F8A9
:103D40008C10222905D0816941F008018161BDE80C
:103D5000F087B4F868704FF0000975E02068406A99
:103D6000A16D30400870A06D401CA065B4F85E00E5
:103D7000401EA4F85E002068C569690730D0E907D5
:103D80000AD05FEACA5107D501210162D4F8900038
:103D900040F00100C4F89000A8070BD55FEAC87096
:103DA00008D0216802200862D4F8900040F0040096
:103DB000C4F8900068070BD55FEAC87008D0216886
:103DC00004200862D4F8900040F00200C4F890008B
:103DD000D4F8900020B12046FEF726FBC4F890905E
:103DE000B4F85E0080BB216851E8000F20F48070B9
:103DF00041E80002002AF6D1304A2068083050E835
:103E0000001F114040E80013002BF6D12020C4F819
:103E10008C00C4F874904A46C4F870902849206811
:103E200088420BD04068000208D5216851E8000F95
:103E300020F0806041E80003002BF6D1E06E0128FD
:103E400025D02046FEF718FD0FB1A80686D4B4F899
:103E50005E0000283FF47BAFB4F8681081427FF623
:103E600076AF2068083050E8001F21F0805140E80C
:103E70000012002AF5D113486067206850E8001F3F
:103E800041F0200140E80012002AF6D15FE7E26627
:103E9000216851E8000F20F0100041E80002002ADC
:103EA000F6D12068C169C943C90601D41021016255
:103EB000B4F85C102046FEF767FAC5E7FEFFFFEF97
:103EC00000800040613C00082DE9F0410446016893
:103ED00080682269E3691043626900251A43104330
:103EE000DFF82CC20A688B4B1A4002430A60206834
:103EF0004168E26821F44051114341602168A069A2
:103F0000614501D0226A10438A68834B1A400243FC
:103F10008A602068C16A626A21F00F011143C162A0
:103F20007E4923687E488B420DD1D0F8880010F07E
:103F3000030006D0012855D0022842D003283FD1E3
:103F400052E001203DE077498B420BD1D0F8880048
:103F500010F00C0035D0042833D0082840D00C28AD
:103F60002ED141E070498B420BD1D0F8880010F07F
:103F7000300026D0102835D0202831D030281FD14D
:103F800032E06A498B420BD1D0F8880010F0C000B3
:103F900017D0402826D0802822D0C02810D123E076
:103FA00063450DD1D0F8880010F4406009D0B0F519
:103FB000806F17D0B0F5006F12D0B0F5406F13D0FE
:103FC00010205B495B4F00264FF4004263453BD114
:103FD00060B1022813D004280BD0082872D10DE05C
:103FE0000220EEE70420ECE70820EAE7FDF734FDC5
:103FF00001E0FDF755FD010001D17CE01146606A4A
:1040000037F810206768B1FBF2F007EB47038342F3
:1040100070D8B0EB073F6DD8002308461946FCF76F
:10402000F9F8090241EA106102027808101871419A
:104030003A460023FCF7EEF83F4AA0F54071914262
:1040400058D82168C86056E0E3694FF6EF7893428C
:104050002CD109284ED2DFE800F00508114D0D4D96
:104060004D4D1000FDF7F8FC01E0FDF707FD0100E4
:1040700004D140E0FDF714FDF9E71146606A37F816
:104080001000B1FBF0F04100606801EB5001B1FBA2
:10409000F0F0A0F1100141452CD84FF6F07101402D
:1040A000C0F3420001432068C16024E0092821D206
:1040B000DFE800F0050912200E2020201100FDF796
:1040C000CBFC02E016E0FDF7D9FC010004D112E0C0
:1040D000FDF7E6FCF9E71146606A37F81000B1FB1E
:1040E000F0F1606801EB5001B1FBF0F0A0F11001BC
:1040F00041450AD901250120A4F86A0024F8680F77
:104100002846E6602661BDE8F08180B299E70000AC
:1041100000800040F369FFCFFFF4FF110038014039
:10412000001002400044004000480040004C0040A5
:104130000024F4007C5E0008FFFC0F0070B5816570
:10414000A0F85C20A0F85E200023436781684FF44C
:104150008056FF24B14204D10169F9B940F2FF1140
:1041600022E07F25C1B1B1F1805F1AD0A0F86030A4
:10417000C0F890302221C0F88C100168083151E855
:10418000003F43F0010341E80034002CF5D1416EBB
:10419000B1F1005F0ED031E0016941B9A0F8604093
:1041A000E6E7016919B13F21A0F86010E0E7A0F847
:1041B0006050DDE7B0F8681091421FD88168B142C5
:1041C00001D10169B9B11D494167016941B1026875
:1041D00052E8001F41F4807142E80013002BF6D131
:1041E0000168083151E8002F42F0805241E8002375
:1041F000002BF5D120E012494167F1E78168B14217
:1042000001D1016969B10F494167016959B102687A
:1042100052E8001F41F4907142E80013002BF6D1E0
:104220000AE009494167026852E8001F41F0200195
:1042300042E80013002BF6D1002070BD293D000894
:10424000C13A0008613C0008F93900082DE9F0473F
:10425000994617460D4604464FF00008089E33E085
:10426000701C31D0FDF7C8F8A0EB0900B04218D897
:10427000BEB120680168490726D5802D24D0402D85
:1042800022D0C169C94309070DD40825056220461B
:10429000FFF788FBC4F8905084F884800120BDE8C3
:1042A000F0870320FBE7C069C04300050CD42168F8
:1042B0004FF4006008622046FFF774FB2020C4F82A
:1042C000900084F88480ECE72068C06935EA00003B
:1042D00004D00020B842C3D00020E0E70120F9E775
:1042E0000148FEF7A3B80000F8000020FEE710B573
:1042F0000446FCF755FE2046FCF718FD80B210BDC1
:104300000FB4054B10B503A9044A029800F0FEF85B
:1043100010BC5DF814FB00001D4C00083C000020A0
:104320000FB4084B10B504A902AA039800F0EEF8E8
:10433000044602A9002000F06CFC204610BC5DF889
:1043400014FB0000134C00080907090E002804DBC9
:1043500000F1E02080F80014704700F00F0000F139
:10436000E02080F8141D704702E008C8121F08C141
:10437000002AFAD170477047002001E001C1121FE6
:10438000002AFBD1704700002DE9FF5F82B00021B9
:10439000DDE90430020DDDF840B0034318D044F6E7
:1043A0001050A2F2FF3242431514119801281FD079
:1043B000A5EB0B00401C5FEA000A4FF000064E4FD1
:1043C000DFF83891B046504615D5CAF1000413E025
:1043D000119801244AA3012801D16FEA0B01029828
:1043E000119AC0E90031C0E9024206B0BDE8F09F71
:1043F000CBF10000DFE704460021404A491842EBB8
:104400000450CDE9001012E0E00707D032463B46E9
:1044100040464946FBF741FF8046894632463B46C7
:1044200010461946FBF739FF06460F466410002C6C
:10443000EAD1DDE90401DDE90023BAF1000F06DA73
:10444000FBF72BFF42464B46FBF727FF05E0FBF748
:1044500096FF42464B46FBF792FF04460E4600226B
:10446000284BFCF7ADF903D84FF0FF30014607E0C9
:104470000022254B20463146FCF7E2F8FCF787F98D
:10448000102409E0002C0ADB0A220023FBF7C2FEFD
:10449000039B30321A55641E50EA0102F2D1641CAB
:1044A000039AC4F111031444119A012A03D0012282
:1044B00008430DD10AE0084304D000204FF0110B4F
:1044C000119072E7A3EB0B056D1E0DE05B4504DD5B
:1044D0004FF0000205F1010504E003DA4FF000029D
:1044E000A5F10105002AECD002981199C0E902312A
:1044F000C0E9004579E70000000014400000F03FEB
:10450000300000000000F0430000E03F2DE9FF4FC5
:1045100095B09A46884606460025EEE1252877D1D3
:1045200000242746F94A0121039400E0044316F8C9
:10453000013F203B01FA03F01042F7D130782A28DE
:1045400011D06FF02F033078A0F13002092A16D86D
:10455000039A44F0020402EB820203EB420210448D
:10456000761C0390EFE758F8042B0392002A03DA35
:10457000504244F40054039044F00204761C307816
:104580002E2816D116F8010F44F004042A280DD065
:104590006FF02F023078A0F13003092B09D807EB18
:1045A000870302EB4303C718761CF3E758F8047B34
:1045B000761C30786C280FD006DC4C2817D0682881
:1045C0000DD06A2814D104E0742810D07A280FD1B5
:1045D0000DE044F400140AE044F4801401E044F4D3
:1045E00040147278824202D104F58014761C761C45
:1045F000307866280BD013DC582877D009DC0028E7
:1046000075D04528F6D04628F4D047281AD193E132
:1046100018E0632835D0642879D0652812D18BE161
:10462000702873D008DC6728F1D069286FD06E2815
:104630000DD06F2806D1ACE073282CD0752874D02B
:10464000782853D05246179990476D1C54E1C4F313
:104650000250022809D003280DD0D8F800100428F1
:104660000DD00D6008F1040846E1D8F80010EA17F3
:10467000C1E90052F6E7D8F800100D80F2E70D709E
:10468000F0E718F8041B8DF8001000208DF80100E9
:10469000EB46012003E058F804BB4FF0FF30610700
:1046A0004FF0000102D40DE009F101018946B94241
:1046B0000FDA8145F8DB1BF809100029F4D108E076
:1046C00009F1010189468142FADB1BF80910002932
:1046D000F6D103985346A0EB090721463846179AAE
:1046E00000F080FA284400EB090507E044E008E107
:1046F0000DE01BF8010B524617999047B9F10109DB
:10470000F7D2534621463846179AF2E039E00A219B
:10471000C4F302524FF0000B0091022A06D058F861
:10472000040BC117032A09D00AE023E008F10700AF
:1047300020F00702F2E80201904605E000B2C1173E
:10474000042A01D140B2C117002906DA0A46002125
:10475000404261EB02012D2202E0220504D52B220A
:104760008DF80420012203E0E20701D02022F7E7C0
:10477000914657E00A2100E010214FF0000B009114
:104780000BE010214FF0000B44F0040408270091C7
:1047900003E008204FF0000B0090C4F30252022AFD
:1047A00005D058F8040B0021032A08D008E008F1CE
:1047B000070020F00702F2E80201904603E080B211
:1047C000042A00D1C0B24FF0000922072AD532785E
:1047D000702A07D0DDF800C08CF0100C5CEA0B0CDE
:1047E00005D00EE040228DF80420012208E050EAB6
:1047F000010306D030238DF804308DF80520022205
:104800009146009B83F0080353EA0B030AD150EA58
:10481000010201D1620705D530228DF804204FF046
:1048200001097F1E3278582A04D039A20C920CAAB2
:1048300002920BE03BA2F9E75B46009AFBF7EAFC29
:104840000C9B9B5C029A521E0292137050EA01026A
:10485000F2D1029804A9081A00F1200B600702D5D2
:1048600024F4803400E001275F4502DDA7EB0B0054
:1048700000E0002000EB0B01009003984944401A2F
:104880000390E00306D453462146179A039800F09C
:10489000A9F90544002706E001A85246C05D179912
:1048A00090476D1C7F1C4F45F6DBE0030CD553464B
:1048B0002146179A039800F095F9054404E030204A
:1048C0005246179990476D1C0099481E0090002988
:1048D000F5DC08E00298029952460078491C0291E2
:1048E000179990476D1CBBF10001ABF1010BF1DC96
:1048F0005BE100F065F90544761C307800287FF410
:104900000DAE19B02846BDE8F08F0000092801005F
:104910003031323334353637383961626364656635
:1049200000000000303132333435363738394142F7
:104930004344454600000000600700D4062708F104
:10494000070020F00700F0E80223804603F0004C47
:104950005FEA0C0001D097A009E0200501D596A0E0
:1049600005E0E00701D095A001E0AFF24C00139004
:10497000307823F0004365280CD006DC452809D0A8
:1049800046281DD047287FD13BE0662818D06728ED
:104990007AD136E00021112F01DB112000E0781CD4
:1049A000CDE9000104A90CA8FFF7EEFCDDE90D013B
:1049B0000C9A4FF0000B07F10109109200914EE0A4
:1049C0004FF000400097CDE9011004A90CA8FFF7B3
:1049D000DBFCDDE90D020C9B0F994FF0000B9146BB
:1049E0001093009211B9791C00EB0109B7EB090093
:1049F00003D4C0F1FF3B07F10109A9EB07000190C7
:104A000042E0012F00DA01270021112F01DD1120E2
:104A100000E03846CDE9000104A90CA8FFF7B4FC7A
:104A2000DDE90D010C9A00914FF0000BB946109290
:104A300021070FD4009A4A4503DA914601E0A9F113
:104A40000109B9F1010F05DD109AA9F10101515CCD
:104A50003029F4D0B84202DA10F1040F03DA012150
:104A6000CDE9011010E0002803DC8344A9EB00012C
:104A700002E0411C494500DD8946A0EB0B00401CCB
:104A800001904FF000400290200705D4019848455E
:104A900002DB4FF0FF30019000208DF84B000298B0
:104AA0000DF14B07B0F1004F25D002200C902B20C8
:104AB0000D90029800280CDA404202902D200D90B3
:104AC00007E00A210298FBF7F2FC3031029007F868
:104AD000011D0C99481E0C900029F2DC0298002858
:104AE000EFD1791E0D980870307800F0200040F06A
:104AF000450007F8020D11A8C01BC01D02901398B5
:104B0000007800B1012000EB0901019801EBE07190
:104B1000029801440398401A401E0390E00306D413
:104B200053462146179A039800F05CF80544139801
:104B3000007818B15246179990476D1CE00323D5B1
:104B400053462146179A039800F04CF805441BE0A1
:104B5000BBF1000F07DB0098584504DD109817994A
:104B600010F80B0001E01799302052469047019849
:104B70000BF1010B401E05F10105019004D12E201F
:104B80005246179990476D1CB9F10001A9F101092E
:104B9000DEDC05E017F8010B5246179990476D1CB3
:104BA0000299481E02900029F4DC53462146179AC8
:104BB00003989EE62D0000002B000000200000005E
:104BC0002DE9F041044600251E461746880404D40A
:104BD00005E039462020B0476D1C641EF9D52846F3
:104BE000BDE8F0812DE9F041044600251E469046BF
:104BF000C80301D5302700E02027880404D505E04C
:104C000041463846B0476D1C641EF9D52846BDE8BC
:104C1000F0810A68531C0B601070704713B54FF099
:104C2000FF33012269460248FDF740FE00981CBD93
:104C3000F8000020FCF7EEFBFEF72CFDFEF708FA6B
:104C4000FEF7C8F9FEF794FAFEF7B6FAFDF7DCFFB7
:104C50001148FDF715FA012210491148FDF7E8FD4A
:104C60000020FDF729FF4FF6FF70FEF79FF80020A8
:104C7000FEF788F80BA0FFF743FB00BFFDF770FEBF
:104C8000FDF7DCFFFEF7C0FCFEF77CFCFEF75EF9EB
:104C9000FEF7C8FAF2E70000AC0000200100002097
:104CA000F800002048656C6C6F0D0A0000000000E1
:104CB00000000000000000000000000000000000F4
:104CC00000000000000000000000000000000000E4
:104CD0000000000000000000000000000000800153
:104CE00080018001800180018001800180018001BC
:104CF00080018001800180010000000080018001AE
:104D000000000000000000000000000000000000A3
:104D1000CC00CC00CC00CC00CC00CC0000000000CB
:104D20000000000000000000000000000000000083
:104D30000000000000000000000000000000000073
:104D40000000000000000000600C600C600C3006E9
:104D50003006FE1FFE1F300638071803FE1FFE1F19
:104D6000180318038C018C018C01000000008000E6
:104D7000E003F80F9C0E8C1C8C188C009800F80136
:104D8000E007800E801C8C188C189C18B80CF00F53
:104D9000E003800080000000000000000000000030
:104DA00000000E181B0C110C110611061103110343
:104DB0009B018E01C038C06C604460443044304474
:104DC0001844186C0C380000000000000000E001DE
:104DD000F0033807180618063003F001F000F80059
:104DE0009C310E33061E061C061C063FFC73F02188
:104DF00000000000000000000000000000000000B3
:104E00000C000C000C000C000C000C00000000005A
:104E10000000000000000000000000000000000092
:104E20000000000000000000000000000000000280
:104E300000038001C000C00060006000300030004E
:104E40003000300030003000300030006000600082
:104E5000C000C0008001000300020000000020002C
:104E60006000C0008001800100030003000600060E
:104E70000006000600060006000600060003000308
:104E800080018001C00060002000000000000000E0
:104E90000000000000000000C000C000D806F807B5
:104EA000E0013003380700000000000000000000AF
:104EB00000000000000000000000000000000000F2
:104EC00000000000000000008001800180018001DE
:104ED0008001FC3FFC3F8001800180018001800156
:104EE00000000000000000000000000000000000C2
:104EF00000000000000000000000000000000000B2
:104F00000000000000000000000000000000800120
:104F1000800100010001800000000000000000008E
:104F20000000000000000000000000000000000081
:104F300000000000E007E0070000000000000000A3
:104F40000000000000000000000000000000000061
:104F50000000000000000000000000000000000051
:104F60000000000000000000000000000000C00081
:104F7000C000000000000000000000000000000C65
:104F8000000C000600060006000300030003800377
:104F9000800180018001C000C000C000600060008E
:104FA0000000000000000000000000000000E0031E
:104FB000F007380E180C0C180C180C180C180C18DC
:104FC0000C180C180C180C18180C380EF007E0030D
:104FD00000000000000000000000000000000001D0
:104FE0008001C001F00198018801800180018001E9
:104FF00080018001800180018001800180018001A9
:105000000000000000000000000000000000E003BD
:10501000F80F180C0C180C1800180018000C0006DB
:1050200000038001C000600030001800FC1FFC1F5E
:105030000000000000000000000000000000E0018F
:10504000F807180E0C0C0C0C000C0006C003C0076F
:10505000000C001800180C180C18180CF807E003C6
:105060000000000000000000000000000000000C34
:10507000000E000F000F800DC00C600C600C300C97
:10508000180C0C0CFC3FFC3F000C000C000C000C3E
:105090000000000000000000000000000000F80F09
:1050A000F80F180018000C00EC03FC071C0E001C85
:1050B0000018001800180C181C0C180EF807E00354
:1050C0000000000000000000000000000000C00719
:1050D000F00F381C181818000C00CC03EC0F3C0E15
:1050E0001C1C0C180C180C18181C380EF007E003C8
:1050F0000000000000000000000000000000FC1F95
:10510000FC1F000C00060006000380038001C001A4
:10511000C000E0006000600070003000300030002F
:105120000000000000000000000000000000E0039C
:10513000F007380E180C180C180C3806F007F0079A
:10514000180C0C180C180C180C18380CF80FE0037D
:105150000000000000000000000000000000E0036C
:10516000F007380E1C0C0C180C180C181C1C381EE0
:10517000F81BE0190018000C000C1C0EF807F001D9
:10518000000000000000000000000000000000001F
:10519000000000000000000080018001000000000D
:1051A00000000000000000000000000080018001FD
:1051B00000000000000000000000000000000000EF
:1051C00000000000000000008001800100000000DD
:1051D00000000000000000000000000080018001CD
:1051E000000100018000000000000000000000003D
:1051F0000000000000000000000000000010001C83
:10520000800FE003F8001800F800E003800F001C96
:10521000001000000000000000000000000000007E
:10522000000000000000000000000000F81F000067
:1052300000000000F81F0000000000000000000057
:10524000000000000000000000000000000000005E
:10525000000000000000000000000000080038000E
:10526000F001C007001F0018001FC007F001380040
:105270000800000000000000000000000000E00343
:10528000F80F180C0C180C180018000C000600037E
:105290008001C000C000C00000000000C000C000CD
:1052A00000000000000000000000000000000000FE
:1052B000E00718180420C229224A1144094409446D
:1052C000094409221113E20C024004201818E007D7
:1052D000000000000000000000000000000080034B
:1052E0008003C006C006C006600C600C3018301881
:1052F0003018F83FF83F1C700C600C6006C006C008
:105300000000000000000000000000000000FC039E
:10531000FC0F0C0C0C180C180C180C0CFC07FC0FD8
:105320000C180C300C300C300C300C18FC1FFC0727
:105330000000000000000000000000000000C007A6
:10534000F01F38381C300C7006600600060006009E
:1053500006000600060006600C701C30F01FE00717
:105360000000000000000000000000000000FE033C
:10537000FE0F060E061806180630063006300630F8
:1053800006300630063006180618060EFE0FFE031D
:105390000000000000000000000000000000FC3FD2
:1053A000FC3F0C000C000C000C000C00FC1FFC1F50
:1053B0000C000C000C000C000C000C00FC3FFC3F2F
:1053C0000000000000000000000000000000F83FA6
:1053D000F83F18001800180018001800F81FF81FF0
:1053E00018001800180018001800180018001800FD
:1053F0000000000000000000000000000000E00FBE
:10540000F83F3C780E6006E007C00300030003FE8F
:1054100003FE03C007C006C00EC03CF0F83FE00F1B
:1054200000000000000000000000000000000C3040
:105430000C300C300C300C300C300C30FC3FFC3F8E
:105440000C300C300C300C300C300C300C300C307C
:1054500000000000000000000000000000008001CB
:105460008001800180018001800180018001800134
:105470008001800180018001800180018001800124
:105480000000000000000000000000000000000616
:1054900000060006000600060006000600060006DC
:1054A000000600060006180618063807F003E0019B
:1054B00000000000000000000000000000000630B6
:1054C0000618060C060606038601C600660076006E
:1054D000DE008E0106030606060C0618063006607E
:1054E00000000000000000000000000000001800A4
:1054F00018001800180018001800180018001800EC
:10550000180018001800180018001800F81FF81FDD
:1055100000000000000000000000000000000EE09D
:105520001EF01EF01EF036D836D836D836D866CCE7
:1055300066CC66CCC6C6C6C6C6C6C6C686C386C345
:1055400000000000000000000000000000000C301F
:105550001C303C303C306C306C30CC30CC308C313A
:105560000C330C330C360C360C3C0C3C0C380C3029
:105570000000000000000000000000000000E00744
:10558000F81F1C380E70066003C003C003C003C0C0
:1055900003C003C003C006600E701C38F81FE0078C
:1055A0000000000000000000000000000000FC0FF0
:1055B000FC1F0C380C300C300C300C300C18FC1F5D
:1055C000FC070C000C000C000C000C000C000C0084
:1055D0000000000000000000000000000000E007E4
:1055E000F81F1C380E70066003E003C003C003C040
:1055F00003C003C007E006630E3F1C3CF83FE0F722
:1056000000C0000000000000000000000000FE0FCD
:10561000FE1F06380630063006300638FE1FFE072D
:1056200006030606060C0618061806300630066045
:105630000000000000000000000000000000E00387
:10564000F80F1C0C0C180C180C001C00F803E00FD1
:10565000001E0038063006300E301C1CF80FE00724
:105660000000000000000000000000000000FE7FBD
:10567000FE7F800180018001800180018001800126
:105680008001800180018001800180018001800112
:1056900000000000000000000000000000000C30CE
:1056A0000C300C300C300C300C300C300C300C301A
:1056B0000C300C300C300C300C301818F81FE00790
:1056C0000000000000000000000000000000036077
:1056D0000630063006300C180C180C18180C180C74
:1056E000380E30063006700760036003C001C00149
:1056F0000000000000000000000000000000036047
:10570000C361C361C3616633663366336633663330
:1057100066336C1B6C1B6C1B2C1A3C1E380E380E2F
:1057200000000000000000000000000000000FE08A
:105730000C7018303018700C600EC00780038003A6
:10574000C003E006700C301C18180C300E6007E027
:10575000000000000000000000000000000003C086
:1057600006600C301C383818300C6006E007C003A7
:105770008001800180018001800180018001800121
:105780000000000000000000000000000000FC7F9E
:10579000FC7F006000300018000C00060003800150
:1057A000C0006000300018000C000600FE7FFE7F85
:1057B0000000000000000000000000000000E00306
:1057C000E003600060006000600060006000600056
:1057D00060006000600060006000600060006000C9
:1057E000600060006000E003E003000000003000A3
:1057F0003000600060006000C000C000C000C00158
:105800008001800180010003000300030006000600
:105810000000000000000000000000000000E003A5
:10582000E003000300030003000300030003000380
:105830000003000300030003000300030003000350
:10584000000300030003E003E00300000000000089
:10585000C001C00160036003600330063006180C0D
:10586000180C000000000000000000000000000014
:105870000000000000000000000000000000000028
:105880000000000000000000000000000000000018
:105890000000000000000000000000000000FFFF0A
:1058A000FFFF0000000000000000000000000C00EE
:1058B0000C000C000C000C000C00000000000000AC
:1058C00000000000000000000000000000000000D8
:1058D00000000000000000000000000000000000C8
:1058E0000000000000000000F003F8071C0C0C0C86
:1058F000000FF00FF80C0C0C0C0C1C0FF80FF0182C
:10590000000000000000000000000000000018007F
:105910001800180018001800D803F80F380C1818D1
:1059200018181818181818181818380CF80FD80361
:105930000000000000000000000000000000000067
:105940000000000000000000C003F007300E180C3B
:105950001800180018001800180C300EF007C003CB
:10596000000000000000000000000000000000181F
:105970000018001800180018C01BF01F301C181861
:1059800018181818181818181818301CF01FC01BF1
:105990000000000000000000000000000000000007
:1059A0000000000000000000C003F00F300C1818C9
:1059B000F81FF81F180018003818301CF00FC00727
:1059C0000000000000000000000000000000800F48
:1059D000C00FC000C000C000F007F007C000C0004A
:1059E000C000C000C000C000C000C000C000C000B7
:1059F00000000000000000000000000000000000A7
:105A00000000000000000000E00DF80F180E0C0C64
:105A10000C0C0C0C0C0C0C0C0C0C180EF80FE00DF4
:105A2000000C0C0C1C06F807F00100000000180028
:105A30001800180018001800D807F80F381C18189C
:105A400018181818181818181818181818181818D6
:105A50000000000000000000000000000000C00086
:105A6000C000000000000000C000C000C000C00076
:105A7000C000C000C000C000C000C000C000C00026
:105A80000000000000000000000000000000C00056
:105A9000C000000000000000C000C000C000C00046
:105AA000C000C000C000C000C000C000C000C000F6
:105AB000C000C000C000F8007800000000000C002A
:105AC0000C000C000C000C000C0C0C060C038C01E0
:105AD000CC006C00FC009C018C030C030C060C0C2D
:105AE0000000000000000000000000000000C000F6
:105AF000C000C000C000C000C000C000C000C000A6
:105B0000C000C000C000C000C000C000C000C00095
:105B10000000000000000000000000000000000085
:105B200000000000000000007C3CFF7EC7E383C152
:105B300083C183C183C183C183C183C183C183C145
:105B40000000000000000000000000000000000055
:105B500000000000000000009807F80F381C18181B
:105B600018181818181818181818181818181818B5
:105B70000000000000000000000000000000000025
:105B80000000000000000000C003F00F300C1818E7
:105B900018181818181818181818300CF00FC00317
:105BA00000000000000000000000000000000000F5
:105BB0000000000000000000D803F80F380C18188F
:105BC00018181818181818181818380CF80FD803BF
:105BD000180018001800180018000000000000004D
:105BE0000000000000000000C01BF01F301C18184F
:105BF00018181818181818181818301CF01FC01B7F
:105C0000001800180018001800180000000000001C
:105C10000000000000000000B007F003700030003A
:105C200030003000300030003000300030003000F4
:105C30000000000000000000000000000000000064
:105C40000000000000000000E003F003380E180C14
:105C50003800F003C007000C180C380EF007E00302
:105C60000000000000000000000000000000000034
:105C70008000C000C000C000F007F007C000C000F6
:105C8000C000C000C000C000C000C000C007800746
:105C90000000000000000000000000000000000004
:105CA0000000000000000000181818181818181834
:105CB00018181818181818181818381CF01FE01998
:105CC00000000000000000000000000000000000D4
:105CD00000000000000000000C18180C180C180C34
:105CE000300630063006600360036003C001C00167
:105CF00000000000000000000000000000000000A4
:105D00000000000000000000C141C141C3616363A5
:105D1000636363633636363636361C1C1C1C1C1C0B
:105D20000000000000000000000000000000000073
:105D300000000000000000001C38381C300C600619
:105D400060036003600360036006300C381C1C387D
:105D50000000000000000000000000000000000043
:105D600000000000000000001830301830187018D3
:105D7000600C600CE00CC006C0068003800380034A
:105D800080018001C001F0007000000000000000F0
:105D90000000000000000000FC1FFC1F000C0006BB
:105DA00000038001C000600030001800FC1FFC1FD1
:105DB00000000000000000000000000000000003E0
:105DC0008001C000C000C000C000C000C000600072
:105DD0006000300060004000C000C000C000C00093
:105DE000C000C0008001000300000000000080012E
:105DF000800180018001800180018001800180019B
:105E0000800180018001800180018001800180018A
:105E1000800180018001800180010000000060009D
:105E2000C000C00180018001800180018001000369
:105E30000003000600030001800180018001800151
:105E400080018001C0006000000000000000000030
:105E5000000000000000000000000000F010F81F2B
:105E6000080F00000000000000000000000000001B
:105E7000000000000000000000000000010002001F
:105E80000400060008000A000C001000200040007A
:105E90008000000101010103070100000804020461
:105EA00008010101000000000000000001020304DD
:105EB000060708090000000001020304DC5E000878
:105EC0000000002040000000684300081C5F00083C
:105ED0004000002078050000784300080000000022
:105EE00000000000000000000000000000000000B2
:105EF000000000005300000000000000000000004F
:105F00000000FFFF000000FF100000000100000083
:0C5F1000000000000024F400000000006D
:04000005080001D915
:00000001FF
