Component: ARM Compiler 5.06 update 7 (build 960) Tool: armlink [4d3601]

==============================================================================

Section Cross References

    main.o(i.SystemClock_Config) refers to memseta.o(.text) for __aeabi_memclr4
    main.o(i.SystemClock_Config) refers to stm32g4xx_hal_pwr_ex.o(i.HAL_PWREx_ControlVoltageScaling) for HAL_PWREx_ControlVoltageScaling
    main.o(i.SystemClock_Config) refers to stm32g4xx_hal_rcc.o(i.HAL_RCC_OscConfig) for HAL_RCC_OscConfig
    main.o(i.SystemClock_Config) refers to stm32g4xx_hal_rcc.o(i.HAL_RCC_ClockConfig) for HAL_RCC_ClockConfig
    main.o(i.main) refers to stm32g4xx_hal.o(i.HAL_Init) for HAL_Init
    main.o(i.main) refers to main.o(i.SystemClock_Config) for SystemClock_Config
    main.o(i.main) refers to gpio.o(i.MX_GPIO_Init) for MX_GPIO_Init
    main.o(i.main) refers to adc.o(i.MX_ADC2_Init) for MX_ADC2_Init
    main.o(i.main) refers to tim.o(i.MX_TIM6_Init) for MX_TIM6_Init
    main.o(i.main) refers to usart.o(i.MX_USART1_UART_Init) for MX_USART1_UART_Init
    main.o(i.main) refers to lcd.o(i.LCD_Init) for LCD_Init
    main.o(i.main) refers to stm32g4xx_hal_tim.o(i.HAL_TIM_Base_Start_IT) for HAL_TIM_Base_Start_IT
    main.o(i.main) refers to stm32g4xx_hal_uart.o(i.HAL_UART_Receive_IT) for HAL_UART_Receive_IT
    main.o(i.main) refers to lcd.o(i.LCD_Clear) for LCD_Clear
    main.o(i.main) refers to lcd.o(i.LCD_SetTextColor) for LCD_SetTextColor
    main.o(i.main) refers to lcd.o(i.LCD_SetBackColor) for LCD_SetBackColor
    main.o(i.main) refers to printfa.o(i.__0printf) for __2printf
    main.o(i.main) refers to task.o(i.Key_Proc) for Key_Proc
==============================================================================

Removing Unused input sections from the image.

    Removing main.o(.rev16_text), (4 bytes).
    Removing main.o(.revsh_text), (4 bytes).
    Removing main.o(.rrx_text), (6 bytes).
    Removing gpio.o(.rev16_text), (4 bytes).
    Removing gpio.o(.revsh_text), (4 bytes).
    Removing gpio.o(.rrx_text), (6 bytes).
    Removing adc.o(.rev16_text), (4 bytes).
    Removing adc.o(.revsh_text), (4 bytes).
    Removing adc.o(.rrx_text), (6 bytes).
    Removing adc.o(i.HAL_ADC_MspDeInit), (44 bytes).
    Removing tim.o(.rev16_text), (4 bytes).
    Removing tim.o(.revsh_text), (4 bytes).
    Removing tim.o(.rrx_text), (6 bytes).
    Removing tim.o(i.HAL_TIM_Base_MspDeInit), (36 bytes).
    Removing usart.o(.rev16_text), (4 bytes).
    Removing usart.o(.revsh_text), (4 bytes).
    Removing usart.o(.rrx_text), (6 bytes).
    Removing usart.o(i.HAL_UART_MspDeInit), (52 bytes).
==============================================================================

Image Symbol Table

    Local Symbols

    Symbol Name                              Value     Ov Type        Size  Object(Section)

    ../Core/Src/adc.c                        0x00000000   Number         0  adc.o ABSOLUTE
    ../Core/Src/gpio.c                       0x00000000   Number         0  gpio.o ABSOLUTE
    ../Core/Src/main.c                       0x00000000   Number         0  main.o ABSOLUTE
    ../Core/Src/stm32g4xx_hal_msp.c          0x00000000   Number         0  stm32g4xx_hal_msp.o ABSOLUTE
    ../Core/Src/stm32g4xx_it.c               0x00000000   Number         0  stm32g4xx_it.o ABSOLUTE
    ../Core/Src/system_stm32g4xx.c           0x00000000   Number         0  system_stm32g4xx.o ABSOLUTE
    ../Core/Src/tim.c                        0x00000000   Number         0  tim.o ABSOLUTE
    ../Core/Src/usart.c                      0x00000000   Number         0  usart.o ABSOLUTE
    ../Drivers/STM32G4xx_HAL_Driver/Src/stm32g4xx_hal.c 0x00000000   Number         0  stm32g4xx_hal.o ABSOLUTE
    ../Drivers/STM32G4xx_HAL_Driver/Src/stm32g4xx_hal_adc.c 0x00000000   Number         0  stm32g4xx_hal_adc.o ABSOLUTE
    ../Drivers/STM32G4xx_HAL_Driver/Src/stm32g4xx_hal_adc_ex.c 0x00000000   Number         0  stm32g4xx_hal_adc_ex.o ABSOLUTE
    ../Drivers/STM32G4xx_HAL_Driver/Src/stm32g4xx_hal_cortex.c 0x00000000   Number         0  stm32g4xx_hal_cortex.o ABSOLUTE
    ../Drivers/STM32G4xx_HAL_Driver/Src/stm32g4xx_hal_dma.c 0x00000000   Number         0  stm32g4xx_hal_dma.o ABSOLUTE
    ../Drivers/STM32G4xx_HAL_Driver/Src/stm32g4xx_hal_dma_ex.c 0x00000000   Number         0  stm32g4xx_hal_dma_ex.o ABSOLUTE
    ../Drivers/STM32G4xx_HAL_Driver/Src/stm32g4xx_hal_exti.c 0x00000000   Number         0  stm32g4xx_hal_exti.o ABSOLUTE
    ../Drivers/STM32G4xx_HAL_Driver/Src/stm32g4xx_hal_flash.c 0x00000000   Number         0  stm32g4xx_hal_flash.o ABSOLUTE
    ../Drivers/STM32G4xx_HAL_Driver/Src/stm32g4xx_hal_flash_ex.c 0x00000000   Number         0  stm32g4xx_hal_flash_ex.o ABSOLUTE
    ../Drivers/STM32G4xx_HAL_Driver/Src/stm32g4xx_hal_flash_ramfunc.c 0x00000000   Number         0  stm32g4xx_hal_flash_ramfunc.o ABSOLUTE
    ../Drivers/STM32G4xx_HAL_Driver/Src/stm32g4xx_hal_gpio.c 0x00000000   Number         0  stm32g4xx_hal_gpio.o ABSOLUTE
    ../Drivers/STM32G4xx_HAL_Driver/Src/stm32g4xx_hal_pwr.c 0x00000000   Number         0  stm32g4xx_hal_pwr.o ABSOLUTE
    ../Drivers/STM32G4xx_HAL_Driver/Src/stm32g4xx_hal_pwr_ex.c 0x00000000   Number         0  stm32g4xx_hal_pwr_ex.o ABSOLUTE
    ../Drivers/STM32G4xx_HAL_Driver/Src/stm32g4xx_hal_rcc.c 0x00000000   Number         0  stm32g4xx_hal_rcc.o ABSOLUTE
    ../Drivers/STM32G4xx_HAL_Driver/Src/stm32g4xx_hal_rcc_ex.c 0x00000000   Number         0  stm32g4xx_hal_rcc_ex.o ABSOLUTE
    ../Drivers/STM32G4xx_HAL_Driver/Src/stm32g4xx_hal_tim.c 0x00000000   Number         0  stm32g4xx_hal_tim.o ABSOLUTE
    ../Drivers/STM32G4xx_HAL_Driver/Src/stm32g4xx_hal_tim_ex.c 0x00000000   Number         0  stm32g4xx_hal_tim_ex.o ABSOLUTE
    ../Drivers/STM32G4xx_HAL_Driver/Src/stm32g4xx_hal_uart.c 0x00000000   Number         0  stm32g4xx_hal_uart.o ABSOLUTE
    ../Drivers/STM32G4xx_HAL_Driver/Src/stm32g4xx_hal_uart_ex.c 0x00000000   Number         0  stm32g4xx_hal_uart_ex.o ABSOLUTE
    ../Drivers/STM32G4xx_HAL_Driver/Src/stm32g4xx_ll_adc.c 0x00000000   Number         0  stm32g4xx_ll_adc.o ABSOLUTE
    ../clib/microlib/division.c              0x00000000   Number         0  uldiv.o ABSOLUTE
    ../clib/microlib/division.c              0x00000000   Number         0  uidiv.o ABSOLUTE
    ../clib/microlib/init/entry.s            0x00000000   Number         0  entry12b.o ABSOLUTE
    ../clib/microlib/init/entry.s            0x00000000   Number         0  entry8b.o ABSOLUTE
    ../clib/microlib/init/entry.s            0x00000000   Number         0  entry7b.o ABSOLUTE
    ../clib/microlib/init/entry.s            0x00000000   Number         0  entry8a.o ABSOLUTE
    ../clib/microlib/init/entry.s            0x00000000   Number         0  entry10b.o ABSOLUTE
    ../clib/microlib/init/entry.s            0x00000000   Number         0  entry7a.o ABSOLUTE
    ../clib/microlib/init/entry.s            0x00000000   Number         0  entry5.o ABSOLUTE
    ../clib/microlib/init/entry.s            0x00000000   Number         0  entry.o ABSOLUTE
    ../clib/microlib/init/entry.s            0x00000000   Number         0  entry10a.o ABSOLUTE
    ../clib/microlib/init/entry.s            0x00000000   Number         0  entry2.o ABSOLUTE
    ../clib/microlib/init/entry.s            0x00000000   Number         0  entry9b.o ABSOLUTE
    ../clib/microlib/init/entry.s            0x00000000   Number         0  entry9a.o ABSOLUTE
    ../clib/microlib/init/entry.s            0x00000000   Number         0  entry11a.o ABSOLUTE
    ../clib/microlib/init/entry.s            0x00000000   Number         0  entry11b.o ABSOLUTE
    ../clib/microlib/init/entry.s            0x00000000   Number         0  entry12a.o ABSOLUTE
    ../clib/microlib/longlong.c              0x00000000   Number         0  llushr.o ABSOLUTE
    ../clib/microlib/longlong.c              0x00000000   Number         0  llsshr.o ABSOLUTE
    ../clib/microlib/longlong.c              0x00000000   Number         0  llshl.o ABSOLUTE
    ../clib/microlib/printf/printf.c         0x00000000   Number         0  printf0.o ABSOLUTE
    ../clib/microlib/printf/printf.c         0x00000000   Number         0  printfa.o ABSOLUTE
    ../clib/microlib/printf/printf.c         0x00000000   Number         0  printfb.o ABSOLUTE
    ../clib/microlib/printf/printf.c         0x00000000   Number         0  printf1.o ABSOLUTE
    ../clib/microlib/printf/printf.c         0x00000000   Number         0  printf5.o ABSOLUTE
    ../clib/microlib/printf/printf.c         0x00000000   Number         0  printf8.o ABSOLUTE
    ../clib/microlib/printf/printf.c         0x00000000   Number         0  printf7.o ABSOLUTE
    ../clib/microlib/printf/printf.c         0x00000000   Number         0  printf6.o ABSOLUTE
    ../clib/microlib/printf/printf.c         0x00000000   Number         0  printf4.o ABSOLUTE
    ../clib/microlib/printf/printf.c         0x00000000   Number         0  printf3.o ABSOLUTE
    ../clib/microlib/printf/printf.c         0x00000000   Number         0  printf2.o ABSOLUTE
    ../clib/microlib/printf/stubs.s          0x00000000   Number         0  stubs.o ABSOLUTE
    ../clib/microlib/stdio/streams.c         0x00000000   Number         0  stdout.o ABSOLUTE
    ../clib/microlib/string/memset.c         0x00000000   Number         0  memseta.o ABSOLUTE
    ../clib/microlib/stubs.s                 0x00000000   Number         0  iusefp.o ABSOLUTE
    ../fplib/microlib/d2f.c                  0x00000000   Number         0  d2f.o ABSOLUTE
    ../fplib/microlib/fpadd.c                0x00000000   Number         0  dadd.o ABSOLUTE
    ../fplib/microlib/fpdiv.c                0x00000000   Number         0  ddiv.o ABSOLUTE
    ../fplib/microlib/fpepilogue.c           0x00000000   Number         0  depilogue.o ABSOLUTE
    ../fplib/microlib/fpepilogue.c           0x00000000   Number         0  fepilogue.o ABSOLUTE
    ../fplib/microlib/fpfix.c                0x00000000   Number         0  dfixul.o ABSOLUTE
    ../fplib/microlib/fpflt.c                0x00000000   Number         0  dfltui.o ABSOLUTE
    ../fplib/microlib/fpmul.c                0x00000000   Number         0  dmul.o ABSOLUTE
    ..\Core\Src\adc.c                        0x00000000   Number         0  adc.o ABSOLUTE
    ..\Core\Src\gpio.c                       0x00000000   Number         0  gpio.o ABSOLUTE
    ..\Core\Src\main.c                       0x00000000   Number         0  main.o ABSOLUTE
    ..\Core\Src\stm32g4xx_hal_msp.c          0x00000000   Number         0  stm32g4xx_hal_msp.o ABSOLUTE
    ..\Core\Src\stm32g4xx_it.c               0x00000000   Number         0  stm32g4xx_it.o ABSOLUTE
    ..\Core\Src\system_stm32g4xx.c           0x00000000   Number         0  system_stm32g4xx.o ABSOLUTE
    ..\Core\Src\tim.c                        0x00000000   Number         0  tim.o ABSOLUTE
    ..\Core\Src\usart.c                      0x00000000   Number         0  usart.o ABSOLUTE
    ..\Drivers\STM32G4xx_HAL_Driver\Src\stm32g4xx_hal.c 0x00000000   Number         0  stm32g4xx_hal.o ABSOLUTE
    ..\Drivers\STM32G4xx_HAL_Driver\Src\stm32g4xx_hal_adc.c 0x00000000   Number         0  stm32g4xx_hal_adc.o ABSOLUTE
    ..\Drivers\STM32G4xx_HAL_Driver\Src\stm32g4xx_hal_adc_ex.c 0x00000000   Number         0  stm32g4xx_hal_adc_ex.o ABSOLUTE
    ..\Drivers\STM32G4xx_HAL_Driver\Src\stm32g4xx_hal_cortex.c 0x00000000   Number         0  stm32g4xx_hal_cortex.o ABSOLUTE
    ..\Drivers\STM32G4xx_HAL_Driver\Src\stm32g4xx_hal_dma.c 0x00000000   Number         0  stm32g4xx_hal_dma.o ABSOLUTE
    ..\Drivers\STM32G4xx_HAL_Driver\Src\stm32g4xx_hal_dma_ex.c 0x00000000   Number         0  stm32g4xx_hal_dma_ex.o ABSOLUTE
    ..\Drivers\STM32G4xx_HAL_Driver\Src\stm32g4xx_hal_exti.c 0x00000000   Number         0  stm32g4xx_hal_exti.o ABSOLUTE
    ..\Drivers\STM32G4xx_HAL_Driver\Src\stm32g4xx_hal_flash.c 0x00000000   Number         0  stm32g4xx_hal_flash.o ABSOLUTE
    ..\Drivers\STM32G4xx_HAL_Driver\Src\stm32g4xx_hal_flash_ex.c 0x00000000   Number         0  stm32g4xx_hal_flash_ex.o ABSOLUTE
    ..\Drivers\STM32G4xx_HAL_Driver\Src\stm32g4xx_hal_flash_ramfunc.c 0x00000000   Number         0  stm32g4xx_hal_flash_ramfunc.o ABSOLUTE
    ..\Drivers\STM32G4xx_HAL_Driver\Src\stm32g4xx_hal_gpio.c 0x00000000   Number         0  stm32g4xx_hal_gpio.o ABSOLUTE
    ..\Drivers\STM32G4xx_HAL_Driver\Src\stm32g4xx_hal_pwr.c 0x00000000   Number         0  stm32g4xx_hal_pwr.o ABSOLUTE
    ..\Drivers\STM32G4xx_HAL_Driver\Src\stm32g4xx_hal_pwr_ex.c 0x00000000   Number         0  stm32g4xx_hal_pwr_ex.o ABSOLUTE
    ..\Drivers\STM32G4xx_HAL_Driver\Src\stm32g4xx_hal_rcc.c 0x00000000   Number         0  stm32g4xx_hal_rcc.o ABSOLUTE
    ..\Drivers\STM32G4xx_HAL_Driver\Src\stm32g4xx_hal_rcc_ex.c 0x00000000   Number         0  stm32g4xx_hal_rcc_ex.o ABSOLUTE
    ..\Drivers\STM32G4xx_HAL_Driver\Src\stm32g4xx_hal_tim.c 0x00000000   Number         0  stm32g4xx_hal_tim.o ABSOLUTE
    ..\Drivers\STM32G4xx_HAL_Driver\Src\stm32g4xx_hal_tim_ex.c 0x00000000   Number         0  stm32g4xx_hal_tim_ex.o ABSOLUTE
    ..\Drivers\STM32G4xx_HAL_Driver\Src\stm32g4xx_hal_uart.c 0x00000000   Number         0  stm32g4xx_hal_uart.o ABSOLUTE
    ..\Drivers\STM32G4xx_HAL_Driver\Src\stm32g4xx_hal_uart_ex.c 0x00000000   Number         0  stm32g4xx_hal_uart_ex.o ABSOLUTE
    ..\Hardware\Key.c                        0x00000000   Number         0  key.o ABSOLUTE
    ..\Hardware\LED.c                        0x00000000   Number         0  led.o ABSOLUTE
    ..\Hardware\MyADC.c                      0x00000000   Number         0  myadc.o ABSOLUTE
    ..\Hardware\lcd.c                        0x00000000   Number         0  lcd.o ABSOLUTE
    ..\User\Task.c                           0x00000000   Number         0  task.o ABSOLUTE
    ..\User\interrupt.c                      0x00000000   Number         0  interrupt.o ABSOLUTE
    ..\\Hardware\\Key.c                      0x00000000   Number         0  key.o ABSOLUTE
    ..\\Hardware\\LED.c                      0x00000000   Number         0  led.o ABSOLUTE
    ..\\Hardware\\MyADC.c                    0x00000000   Number         0  myadc.o ABSOLUTE
    ..\\Hardware\\lcd.c                      0x00000000   Number         0  lcd.o ABSOLUTE
    ..\\User\\Task.c                         0x00000000   Number         0  task.o ABSOLUTE
    ..\\User\\interrupt.c                    0x00000000   Number         0  interrupt.o ABSOLUTE
    cdrcmple.s                               0x00000000   Number         0  cdrcmple.o ABSOLUTE
    dc.s                                     0x00000000   Number         0  dc.o ABSOLUTE
    handlers.s                               0x00000000   Number         0  handlers.o ABSOLUTE
    init.s                                   0x00000000   Number         0  init.o ABSOLUTE
    startup_stm32g431xx.s                    0x00000000   Number         0  startup_stm32g431xx.o ABSOLUTE
    RESET                                    0x08000000   Section      472  startup_stm32g431xx.o(RESET)
    .ARM.Collect$$$$00000000                 0x080001d8   Section        0  entry.o(.ARM.Collect$$$$00000000)
    .ARM.Collect$$$$00000001                 0x080001d8   Section        4  entry2.o(.ARM.Collect$$$$00000001)
    .ARM.Collect$$$$00000004                 0x080001dc   Section        4  entry5.o(.ARM.Collect$$$$00000004)
    .ARM.Collect$$$$00000008                 0x080001e0   Section        0  entry7b.o(.ARM.Collect$$$$00000008)
    .ARM.Collect$$$$0000000A                 0x080001e0   Section        0  entry8b.o(.ARM.Collect$$$$0000000A)
    .ARM.Collect$$$$0000000B                 0x080001e0   Section        8  entry9a.o(.ARM.Collect$$$$0000000B)
    .ARM.Collect$$$$0000000E                 0x080001e8   Section        4  entry12b.o(.ARM.Collect$$$$0000000E)
    .ARM.Collect$$$$0000000F                 0x080001ec   Section        0  entry10a.o(.ARM.Collect$$$$0000000F)
    .ARM.Collect$$$$00000011                 0x080001ec   Section        0  entry11a.o(.ARM.Collect$$$$00000011)
    .ARM.Collect$$$$00002712                 0x080001ec   Section        4  entry2.o(.ARM.Collect$$$$00002712)
    __lit__00000000                          0x080001ec   Data           4  entry2.o(.ARM.Collect$$$$00002712)
    .text                                    0x080001f0   Section       36  startup_stm32g431xx.o(.text)
    $v0                                      0x080001f0   Number         0  startup_stm32g431xx.o(.text)
    .text                                    0x08000214   Section        0  uldiv.o(.text)
    .text                                    0x08000276   Section        0  memseta.o(.text)
    .text                                    0x0800029a   Section        0  dmul.o(.text)
    .text                                    0x0800037e   Section        0  ddiv.o(.text)
    .text                                    0x0800045c   Section        0  dfltui.o(.text)
    .text                                    0x08000476   Section        0  d2f.o(.text)
    .text                                    0x080004ae   Section        0  uidiv.o(.text)
    .text                                    0x080004da   Section        0  llshl.o(.text)
    .text                                    0x080004f8   Section        0  llushr.o(.text)
    .text                                    0x08000518   Section        0  fepilogue.o(.text)
    .text                                    0x08000518   Section        0  iusefp.o(.text)
    .text                                    0x08000586   Section        0  depilogue.o(.text)
    .text                                    0x08000640   Section        0  dadd.o(.text)
    .text                                    0x0800078e   Section        0  dfixul.o(.text)
    .text                                    0x080007c0   Section       48  cdrcmple.o(.text)
    .text                                    0x080007f0   Section       36  init.o(.text)
    .text                                    0x08000814   Section        0  llsshr.o(.text)
    i.ADC_Enable                             0x08000838   Section        0  stm32g4xx_hal_adc.o(i.ADC_Enable)
    i.BusFault_Handler                       0x080008e4   Section        0  stm32g4xx_it.o(i.BusFault_Handler)
    i.DebugMon_Handler                       0x080008e6   Section        0  stm32g4xx_it.o(i.DebugMon_Handler)
    i.Delay_LCD                              0x080008e8   Section        0  lcd.o(i.Delay_LCD)
    i.Error_Handler                          0x08000904   Section        0  main.o(i.Error_Handler)
    i.HAL_ADC_ConfigChannel                  0x08000908   Section        0  stm32g4xx_hal_adc.o(i.HAL_ADC_ConfigChannel)
    i.HAL_ADC_GetValue                       0x08000d2c   Section        0  stm32g4xx_hal_adc.o(i.HAL_ADC_GetValue)
    i.HAL_ADC_Init                           0x08000d34   Section        0  stm32g4xx_hal_adc.o(i.HAL_ADC_Init)
    i.HAL_ADC_MspInit                        0x08000f28   Section        0  adc.o(i.HAL_ADC_MspInit)
    i.HAL_ADC_Start                          0x08000fa0   Section        0  stm32g4xx_hal_adc.o(i.HAL_ADC_Start)
    i.HAL_DMA_Abort                          0x08001094   Section        0  stm32g4xx_hal_dma.o(i.HAL_DMA_Abort)
    i.HAL_DMA_Abort_IT                       0x080010fe   Section        0  stm32g4xx_hal_dma.o(i.HAL_DMA_Abort_IT)
    i.HAL_Delay                              0x08001178   Section        0  stm32g4xx_hal.o(i.HAL_Delay)
    i.HAL_GPIO_Init                          0x0800119c   Section        0  stm32g4xx_hal_gpio.o(i.HAL_GPIO_Init)
    i.HAL_GPIO_ReadPin                       0x080013e4   Section        0  stm32g4xx_hal_gpio.o(i.HAL_GPIO_ReadPin)
    i.HAL_GPIO_WritePin                      0x080013ee   Section        0  stm32g4xx_hal_gpio.o(i.HAL_GPIO_WritePin)
    i.HAL_GetTick                            0x080013f8   Section        0  stm32g4xx_hal.o(i.HAL_GetTick)
    i.HAL_IncTick                            0x08001404   Section        0  stm32g4xx_hal.o(i.HAL_IncTick)
    i.HAL_Init                               0x08001414   Section        0  stm32g4xx_hal.o(i.HAL_Init)
    i.HAL_InitTick                           0x08001434   Section        0  stm32g4xx_hal.o(i.HAL_InitTick)
    i.HAL_MspInit                            0x08001478   Section        0  stm32g4xx_hal_msp.o(i.HAL_MspInit)
    i.HAL_NVIC_EnableIRQ                     0x080014a8   Section        0  stm32g4xx_hal_cortex.o(i.HAL_NVIC_EnableIRQ)
    i.HAL_NVIC_SetPriority                   0x080014c4   Section        0  stm32g4xx_hal_cortex.o(i.HAL_NVIC_SetPriority)
    i.HAL_NVIC_SetPriorityGrouping           0x08001504   Section        0  stm32g4xx_hal_cortex.o(i.HAL_NVIC_SetPriorityGrouping)
    i.HAL_PWREx_ControlVoltageScaling        0x08001528   Section        0  stm32g4xx_hal_pwr_ex.o(i.HAL_PWREx_ControlVoltageScaling)
    i.HAL_PWREx_DisableUCPDDeadBattery       0x080015e4   Section        0  stm32g4xx_hal_pwr_ex.o(i.HAL_PWREx_DisableUCPDDeadBattery)
    i.HAL_RCCEx_PeriphCLKConfig              0x080015f4   Section        0  stm32g4xx_hal_rcc_ex.o(i.HAL_RCCEx_PeriphCLKConfig)
    i.HAL_RCC_ClockConfig                    0x0800187c   Section        0  stm32g4xx_hal_rcc.o(i.HAL_RCC_ClockConfig)
    i.HAL_RCC_GetPCLK1Freq                   0x08001a58   Section        0  stm32g4xx_hal_rcc.o(i.HAL_RCC_GetPCLK1Freq)
    i.HAL_RCC_GetPCLK2Freq                   0x08001a7c   Section        0  stm32g4xx_hal_rcc.o(i.HAL_RCC_GetPCLK2Freq)
    i.HAL_RCC_GetSysClockFreq                0x08001aa0   Section        0  stm32g4xx_hal_rcc.o(i.HAL_RCC_GetSysClockFreq)
    i.HAL_RCC_OscConfig                      0x08001b0c   Section        0  stm32g4xx_hal_rcc.o(i.HAL_RCC_OscConfig)
    i.HAL_SYSTICK_Config                     0x08001f10   Section        0  stm32g4xx_hal_cortex.o(i.HAL_SYSTICK_Config)
    i.HAL_TIMEx_Break2Callback               0x08001f38   Section        0  stm32g4xx_hal_tim_ex.o(i.HAL_TIMEx_Break2Callback)
    i.HAL_TIMEx_BreakCallback                0x08001f3a   Section        0  stm32g4xx_hal_tim_ex.o(i.HAL_TIMEx_BreakCallback)
    i.HAL_TIMEx_CommutCallback               0x08001f3c   Section        0  stm32g4xx_hal_tim_ex.o(i.HAL_TIMEx_CommutCallback)
    i.HAL_TIMEx_DirectionChangeCallback      0x08001f3e   Section        0  stm32g4xx_hal_tim_ex.o(i.HAL_TIMEx_DirectionChangeCallback)
    i.HAL_TIMEx_EncoderIndexCallback         0x08001f40   Section        0  stm32g4xx_hal_tim_ex.o(i.HAL_TIMEx_EncoderIndexCallback)
    i.HAL_TIMEx_IndexErrorCallback           0x08001f42   Section        0  stm32g4xx_hal_tim_ex.o(i.HAL_TIMEx_IndexErrorCallback)
    i.HAL_TIMEx_MasterConfigSynchronization  0x08001f44   Section        0  stm32g4xx_hal_tim_ex.o(i.HAL_TIMEx_MasterConfigSynchronization)
    i.HAL_TIMEx_TransitionErrorCallback      0x08001fe0   Section        0  stm32g4xx_hal_tim_ex.o(i.HAL_TIMEx_TransitionErrorCallback)
    i.HAL_TIM_Base_Init                      0x08001fe2   Section        0  stm32g4xx_hal_tim.o(i.HAL_TIM_Base_Init)
    i.HAL_TIM_Base_MspInit                   0x08002044   Section        0  tim.o(i.HAL_TIM_Base_MspInit)
    i.HAL_TIM_Base_Start_IT                  0x08002080   Section        0  stm32g4xx_hal_tim.o(i.HAL_TIM_Base_Start_IT)
    i.HAL_TIM_IC_CaptureCallback             0x080020f8   Section        0  stm32g4xx_hal_tim.o(i.HAL_TIM_IC_CaptureCallback)
    i.HAL_TIM_IRQHandler                     0x080020fa   Section        0  stm32g4xx_hal_tim.o(i.HAL_TIM_IRQHandler)
    i.HAL_TIM_OC_DelayElapsedCallback        0x0800229c   Section        0  stm32g4xx_hal_tim.o(i.HAL_TIM_OC_DelayElapsedCallback)
    i.HAL_TIM_PWM_PulseFinishedCallback      0x0800229e   Section        0  stm32g4xx_hal_tim.o(i.HAL_TIM_PWM_PulseFinishedCallback)
    i.HAL_TIM_PeriodElapsedCallback          0x080022a0   Section        0  interrupt.o(i.HAL_TIM_PeriodElapsedCallback)
    i.HAL_TIM_TriggerCallback                0x08002348   Section        0  stm32g4xx_hal_tim.o(i.HAL_TIM_TriggerCallback)
    i.HAL_UARTEx_DisableFifoMode             0x0800234a   Section        0  stm32g4xx_hal_uart_ex.o(i.HAL_UARTEx_DisableFifoMode)
    i.HAL_UARTEx_RxEventCallback             0x08002388   Section        0  stm32g4xx_hal_uart.o(i.HAL_UARTEx_RxEventCallback)
    i.HAL_UARTEx_RxFifoFullCallback          0x0800238a   Section        0  stm32g4xx_hal_uart_ex.o(i.HAL_UARTEx_RxFifoFullCallback)
    i.HAL_UARTEx_SetRxFifoThreshold          0x0800238c   Section        0  stm32g4xx_hal_uart_ex.o(i.HAL_UARTEx_SetRxFifoThreshold)
    i.HAL_UARTEx_SetTxFifoThreshold          0x080023d8   Section        0  stm32g4xx_hal_uart_ex.o(i.HAL_UARTEx_SetTxFifoThreshold)
    i.HAL_UARTEx_TxFifoEmptyCallback         0x08002424   Section        0  stm32g4xx_hal_uart_ex.o(i.HAL_UARTEx_TxFifoEmptyCallback)
    i.HAL_UARTEx_WakeupCallback              0x08002426   Section        0  stm32g4xx_hal_uart_ex.o(i.HAL_UARTEx_WakeupCallback)
    i.HAL_UART_ErrorCallback                 0x08002428   Section        0  stm32g4xx_hal_uart.o(i.HAL_UART_ErrorCallback)
    i.HAL_UART_IRQHandler                    0x0800242c   Section        0  stm32g4xx_hal_uart.o(i.HAL_UART_IRQHandler)
    i.HAL_UART_Init                          0x08002738   Section        0  stm32g4xx_hal_uart.o(i.HAL_UART_Init)
    i.HAL_UART_MspInit                       0x080027a4   Section        0  usart.o(i.HAL_UART_MspInit)
    i.HAL_UART_Receive_IT                    0x08002830   Section        0  stm32g4xx_hal_uart.o(i.HAL_UART_Receive_IT)
    i.HAL_UART_RxCpltCallback                0x08002878   Section        0  interrupt.o(i.HAL_UART_RxCpltCallback)
    i.HAL_UART_Transmit                      0x080028ac   Section        0  stm32g4xx_hal_uart.o(i.HAL_UART_Transmit)
    i.HAL_UART_TxCpltCallback                0x0800295a   Section        0  stm32g4xx_hal_uart.o(i.HAL_UART_TxCpltCallback)
    i.HardFault_Handler                      0x0800295c   Section        0  stm32g4xx_it.o(i.HardFault_Handler)
    i.Key_Proc                               0x08002960   Section        0  task.o(i.Key_Proc)
    i.Key_Read                               0x08002a1c   Section        0  key.o(i.Key_Read)
    i.LCD_BusIn                              0x08002a5c   Section        0  lcd.o(i.LCD_BusIn)
    i.LCD_BusOut                             0x08002a88   Section        0  lcd.o(i.LCD_BusOut)
    i.LCD_Clear                              0x08002ab8   Section        0  lcd.o(i.LCD_Clear)
    i.LCD_CtrlLinesConfig                    0x08002adc   Section        0  lcd.o(i.LCD_CtrlLinesConfig)
    i.LCD_DisplayChar                        0x08002b6c   Section        0  lcd.o(i.LCD_DisplayChar)
    i.LCD_DisplayStringLine                  0x08002b84   Section        0  lcd.o(i.LCD_DisplayStringLine)
    i.LCD_DrawChar                           0x08002bb0   Section        0  lcd.o(i.LCD_DrawChar)
    i.LCD_Init                               0x08002c08   Section        0  lcd.o(i.LCD_Init)
    i.LCD_Proc                               0x08002c3c   Section        0  task.o(i.LCD_Proc)
    i.LCD_ReadReg                            0x08002d04   Section        0  lcd.o(i.LCD_ReadReg)
    i.LCD_SetBackColor                       0x08002d84   Section        0  lcd.o(i.LCD_SetBackColor)
    i.LCD_SetCursor                          0x08002d94   Section        0  lcd.o(i.LCD_SetCursor)
    i.LCD_SetTextColor                       0x08002dac   Section        0  lcd.o(i.LCD_SetTextColor)
    i.LCD_WriteRAM                           0x08002dbc   Section        0  lcd.o(i.LCD_WriteRAM)
    i.LCD_WriteRAM_Prepare                   0x08002e1c   Section        0  lcd.o(i.LCD_WriteRAM_Prepare)
    i.LCD_WriteReg                           0x08002e7c   Section        0  lcd.o(i.LCD_WriteReg)
    i.LED_DisPLay                            0x08002eec   Section        0  led.o(i.LED_DisPLay)
    i.LED_Proc                               0x08002f4c   Section        0  task.o(i.LED_Proc)
    i.LL_ADC_GetOffsetChannel                0x08002f88   Section        0  stm32g4xx_hal_adc.o(i.LL_ADC_GetOffsetChannel)
    LL_ADC_GetOffsetChannel                  0x08002f89   Thumb Code    12  stm32g4xx_hal_adc.o(i.LL_ADC_GetOffsetChannel)
    i.LL_ADC_INJ_IsConversionOngoing         0x08002f94   Section        0  stm32g4xx_hal_adc.o(i.LL_ADC_INJ_IsConversionOngoing)
    LL_ADC_INJ_IsConversionOngoing           0x08002f95   Thumb Code     8  stm32g4xx_hal_adc.o(i.LL_ADC_INJ_IsConversionOngoing)
    i.LL_ADC_REG_IsConversionOngoing         0x08002f9c   Section        0  stm32g4xx_hal_adc.o(i.LL_ADC_REG_IsConversionOngoing)
    LL_ADC_REG_IsConversionOngoing           0x08002f9d   Thumb Code     8  stm32g4xx_hal_adc.o(i.LL_ADC_REG_IsConversionOngoing)
    i.LL_ADC_SetChannelSamplingTime          0x08002fa4   Section        0  stm32g4xx_hal_adc.o(i.LL_ADC_SetChannelSamplingTime)
    LL_ADC_SetChannelSamplingTime            0x08002fa5   Thumb Code    30  stm32g4xx_hal_adc.o(i.LL_ADC_SetChannelSamplingTime)
    i.LL_ADC_SetOffsetState                  0x08002fc2   Section        0  stm32g4xx_hal_adc.o(i.LL_ADC_SetOffsetState)
    LL_ADC_SetOffsetState                    0x08002fc3   Thumb Code    16  stm32g4xx_hal_adc.o(i.LL_ADC_SetOffsetState)
    i.MX_ADC2_Init                           0x08002fd4   Section        0  adc.o(i.MX_ADC2_Init)
    i.MX_GPIO_Init                           0x08003050   Section        0  gpio.o(i.MX_GPIO_Init)
    i.MX_TIM6_Init                           0x08003170   Section        0  tim.o(i.MX_TIM6_Init)
    i.MX_USART1_UART_Init                    0x080031b8   Section        0  usart.o(i.MX_USART1_UART_Init)
    i.MemManage_Handler                      0x08003220   Section        0  stm32g4xx_it.o(i.MemManage_Handler)
    i.NMI_Handler                            0x08003222   Section        0  stm32g4xx_it.o(i.NMI_Handler)
    i.Navigate_Proc                          0x08003224   Section        0  task.o(i.Navigate_Proc)
    i.PendSV_Handler                         0x0800326c   Section        0  stm32g4xx_it.o(i.PendSV_Handler)
    i.REG_8230_Init                          0x0800326e   Section        0  lcd.o(i.REG_8230_Init)
    i.REG_932X_Init                          0x08003380   Section        0  lcd.o(i.REG_932X_Init)
    i.Read_Proc                              0x08003584   Section        0  task.o(i.Read_Proc)
    i.SVC_Handler                            0x08003604   Section        0  stm32g4xx_it.o(i.SVC_Handler)
    i.Serial_Proc                            0x08003608   Section        0  task.o(i.Serial_Proc)
    i.SysTick_Handler                        0x08003690   Section        0  stm32g4xx_it.o(i.SysTick_Handler)
    i.SystemClock_Config                     0x08003694   Section        0  main.o(i.SystemClock_Config)
    i.SystemInit                             0x08003700   Section        0  system_stm32g4xx.o(i.SystemInit)
    i.TIM6_DAC_IRQHandler                    0x08003710   Section        0  stm32g4xx_it.o(i.TIM6_DAC_IRQHandler)
    i.TIM_Base_SetConfig                     0x0800371c   Section        0  stm32g4xx_hal_tim.o(i.TIM_Base_SetConfig)
    i.UARTEx_SetNbDataToProcess              0x080037d8   Section        0  stm32g4xx_hal_uart_ex.o(i.UARTEx_SetNbDataToProcess)
    UARTEx_SetNbDataToProcess                0x080037d9   Thumb Code    62  stm32g4xx_hal_uart_ex.o(i.UARTEx_SetNbDataToProcess)
    i.UART_AdvFeatureConfig                  0x0800381c   Section        0  stm32g4xx_hal_uart.o(i.UART_AdvFeatureConfig)
    i.UART_CheckIdleState                    0x080038e4   Section        0  stm32g4xx_hal_uart.o(i.UART_CheckIdleState)
    i.UART_DMAAbortOnError                   0x08003990   Section        0  stm32g4xx_hal_uart.o(i.UART_DMAAbortOnError)
    UART_DMAAbortOnError                     0x08003991   Thumb Code    20  stm32g4xx_hal_uart.o(i.UART_DMAAbortOnError)
    i.UART_EndRxTransfer                     0x080039a4   Section        0  stm32g4xx_hal_uart.o(i.UART_EndRxTransfer)
    UART_EndRxTransfer                       0x080039a5   Thumb Code    78  stm32g4xx_hal_uart.o(i.UART_EndRxTransfer)
    i.UART_RxISR_16BIT                       0x080039f8   Section        0  stm32g4xx_hal_uart.o(i.UART_RxISR_16BIT)
    UART_RxISR_16BIT                         0x080039f9   Thumb Code   196  stm32g4xx_hal_uart.o(i.UART_RxISR_16BIT)
    i.UART_RxISR_16BIT_FIFOEN                0x08003ac0   Section        0  stm32g4xx_hal_uart.o(i.UART_RxISR_16BIT_FIFOEN)
    UART_RxISR_16BIT_FIFOEN                  0x08003ac1   Thumb Code   404  stm32g4xx_hal_uart.o(i.UART_RxISR_16BIT_FIFOEN)
    i.UART_RxISR_8BIT                        0x08003c60   Section        0  stm32g4xx_hal_uart.o(i.UART_RxISR_8BIT)
    UART_RxISR_8BIT                          0x08003c61   Thumb Code   196  stm32g4xx_hal_uart.o(i.UART_RxISR_8BIT)
    i.UART_RxISR_8BIT_FIFOEN                 0x08003d28   Section        0  stm32g4xx_hal_uart.o(i.UART_RxISR_8BIT_FIFOEN)
    UART_RxISR_8BIT_FIFOEN                   0x08003d29   Thumb Code   404  stm32g4xx_hal_uart.o(i.UART_RxISR_8BIT_FIFOEN)
    i.UART_SetConfig                         0x08003ec8   Section        0  stm32g4xx_hal_uart.o(i.UART_SetConfig)
    i.UART_Start_Receive_IT                  0x0800413c   Section        0  stm32g4xx_hal_uart.o(i.UART_Start_Receive_IT)
    i.UART_WaitOnFlagUntilTimeout            0x0800424c   Section        0  stm32g4xx_hal_uart.o(i.UART_WaitOnFlagUntilTimeout)
    i.USART1_IRQHandler                      0x080042e0   Section        0  stm32g4xx_it.o(i.USART1_IRQHandler)
    i.UsageFault_Handler                     0x080042ec   Section        0  stm32g4xx_it.o(i.UsageFault_Handler)
    i.Voltage_Collect                        0x080042ee   Section        0  myadc.o(i.Voltage_Collect)
    i.__0printf                              0x08004300   Section        0  printfa.o(i.__0printf)
    i.__0sprintf                             0x08004320   Section        0  printfa.o(i.__0sprintf)
    i.__NVIC_SetPriority                     0x08004348   Section        0  stm32g4xx_hal_cortex.o(i.__NVIC_SetPriority)
    __NVIC_SetPriority                       0x08004349   Thumb Code    32  stm32g4xx_hal_cortex.o(i.__NVIC_SetPriority)
    i.__scatterload_copy                     0x08004368   Section       14  handlers.o(i.__scatterload_copy)
    i.__scatterload_null                     0x08004376   Section        2  handlers.o(i.__scatterload_null)
    i.__scatterload_zeroinit                 0x08004378   Section       14  handlers.o(i.__scatterload_zeroinit)
    i._fp_digits                             0x08004388   Section        0  printfa.o(i._fp_digits)
    _fp_digits                               0x08004389   Thumb Code   366  printfa.o(i._fp_digits)
    i._printf_core                           0x0800450c   Section        0  printfa.o(i._printf_core)
    _printf_core                             0x0800450d   Thumb Code  1704  printfa.o(i._printf_core)
    i._printf_post_padding                   0x08004bc0   Section        0  printfa.o(i._printf_post_padding)
    _printf_post_padding                     0x08004bc1   Thumb Code    36  printfa.o(i._printf_post_padding)
    i._printf_pre_padding                    0x08004be4   Section        0  printfa.o(i._printf_pre_padding)
    _printf_pre_padding                      0x08004be5   Thumb Code    46  printfa.o(i._printf_pre_padding)
    i._sputc                                 0x08004c12   Section        0  printfa.o(i._sputc)
    _sputc                                   0x08004c13   Thumb Code    10  printfa.o(i._sputc)
    i.fputc                                  0x08004c1c   Section        0  interrupt.o(i.fputc)
    i.main                                   0x08004c34   Section        0  main.o(i.main)
    .constdata                               0x08004cac   Section     4560  lcd.o(.constdata)
    .constdata                               0x08005e7c   Section       24  stm32g4xx_hal_uart.o(.constdata)
    .constdata                               0x08005e94   Section       16  stm32g4xx_hal_uart_ex.o(.constdata)
    numerator                                0x08005e94   Data           8  stm32g4xx_hal_uart_ex.o(.constdata)
    denominator                              0x08005e9c   Data           8  stm32g4xx_hal_uart_ex.o(.constdata)
    .constdata                               0x08005ea4   Section       16  system_stm32g4xx.o(.constdata)
    .constdata                               0x08005eb4   Section        8  system_stm32g4xx.o(.constdata)
    .data                                    0x20000000   Section       16  interrupt.o(.data)
    Tim_Total_Pos                            0x20000004   Data           2  interrupt.o(.data)
    Time5s                                   0x20000006   Data           2  interrupt.o(.data)
    .data                                    0x20000010   Section       20  task.o(.data)
    .data                                    0x20000024   Section        6  lcd.o(.data)
    TextColor                                0x20000024   Data           2  lcd.o(.data)
    BackColor                                0x20000026   Data           2  lcd.o(.data)
    .data                                    0x2000002a   Section        2  led.o(.data)
    Temp                                     0x2000002a   Data           1  led.o(.data)
    Temp_Old                                 0x2000002b   Data           1  led.o(.data)
    .data                                    0x2000002c   Section       12  stm32g4xx_hal.o(.data)
    .data                                    0x20000038   Section        4  system_stm32g4xx.o(.data)
    .data                                    0x2000003c   Section        4  stdout.o(.data)
    .bss                                     0x20000040   Section      108  adc.o(.bss)
    .bss                                     0x200000ac   Section       76  tim.o(.bss)
    .bss                                     0x200000f8   Section      148  usart.o(.bss)
    .bss                                     0x2000018c   Section       10  interrupt.o(.bss)
    .bss                                     0x20000196   Section       30  task.o(.bss)
    STACK                                    0x200001b8   Section     1024  startup_stm32g431xx.o(STACK)

    Global Symbols

    Symbol Name                              Value     Ov Type        Size  Object(Section)

    BuildAttributes$$THM_ISAv4$E$P$D$K$B$S$7EM$VFPi3$EXTD16$VFPS$VFMA$PE$A:L22UL41UL21$X:L11$S22US41US21$IEEE1$IW$USESV6$~STKCKD$USESV7$~SHL$OTIME$ROPI$EBA8$MICROLIB$REQ8$PRES8$EABIv2 0x00000000   Number         0  anon$$obj.o ABSOLUTE
    __ARM_use_no_argv                        0x00000000   Number         0  main.o ABSOLUTE
    _printf_a                                0x00000000   Number         0  stubs.o ABSOLUTE
    _printf_c                                0x00000000   Number         0  stubs.o ABSOLUTE
    _printf_charcount                        0x00000000   Number         0  stubs.o ABSOLUTE
    _printf_d                                0x00000000   Number         0  stubs.o ABSOLUTE
    _printf_e                                0x00000000   Number         0  stubs.o ABSOLUTE
    _printf_f                                0x00000000   Number         0  stubs.o ABSOLUTE
    _printf_flags                            0x00000000   Number         0  stubs.o ABSOLUTE
    _printf_fp_dec                           0x00000000   Number         0  stubs.o ABSOLUTE
    _printf_fp_hex                           0x00000000   Number         0  stubs.o ABSOLUTE
    _printf_g                                0x00000000   Number         0  stubs.o ABSOLUTE
    _printf_i                                0x00000000   Number         0  stubs.o ABSOLUTE
    _printf_int_dec                          0x00000000   Number         0  stubs.o ABSOLUTE
    _printf_l                                0x00000000   Number         0  stubs.o ABSOLUTE
    _printf_lc                               0x00000000   Number         0  stubs.o ABSOLUTE
    _printf_ll                               0x00000000   Number         0  stubs.o ABSOLUTE
    _printf_lld                              0x00000000   Number         0  stubs.o ABSOLUTE
    _printf_lli                              0x00000000   Number         0  stubs.o ABSOLUTE
    _printf_llo                              0x00000000   Number         0  stubs.o ABSOLUTE
    _printf_llu                              0x00000000   Number         0  stubs.o ABSOLUTE
    _printf_llx                              0x00000000   Number         0  stubs.o ABSOLUTE
    _printf_longlong_dec                     0x00000000   Number         0  stubs.o ABSOLUTE
    _printf_longlong_hex                     0x00000000   Number         0  stubs.o ABSOLUTE
    _printf_longlong_oct                     0x00000000   Number         0  stubs.o ABSOLUTE
    _printf_ls                               0x00000000   Number         0  stubs.o ABSOLUTE
    _printf_mbtowc                           0x00000000   Number         0  stubs.o ABSOLUTE
    _printf_n                                0x00000000   Number         0  stubs.o ABSOLUTE
    _printf_o                                0x00000000   Number         0  stubs.o ABSOLUTE
    _printf_p                                0x00000000   Number         0  stubs.o ABSOLUTE
    _printf_percent                          0x00000000   Number         0  stubs.o ABSOLUTE
    _printf_pre_padding                      0x00000000   Number         0  stubs.o ABSOLUTE
    _printf_return_value                     0x00000000   Number         0  stubs.o ABSOLUTE
    _printf_s                                0x00000000   Number         0  stubs.o ABSOLUTE
    _printf_sizespec                         0x00000000   Number         0  stubs.o ABSOLUTE
    _printf_str                              0x00000000   Number         0  stubs.o ABSOLUTE
    _printf_truncate_signed                  0x00000000   Number         0  stubs.o ABSOLUTE
    _printf_truncate_unsigned                0x00000000   Number         0  stubs.o ABSOLUTE
    _printf_u                                0x00000000   Number         0  stubs.o ABSOLUTE
    _printf_wc                               0x00000000   Number         0  stubs.o ABSOLUTE
    _printf_wctomb                           0x00000000   Number         0  stubs.o ABSOLUTE
    _printf_widthprec                        0x00000000   Number         0  stubs.o ABSOLUTE
    _printf_x                                0x00000000   Number         0  stubs.o ABSOLUTE
    __arm_fini_                               - Undefined Weak Reference
    __cpp_initialize__aeabi_                  - Undefined Weak Reference
    __cxa_finalize                            - Undefined Weak Reference
    __decompress                              - Undefined Weak Reference
    _clock_init                               - Undefined Weak Reference
    _microlib_exit                            - Undefined Weak Reference
    __Vectors_Size                           0x000001d8   Number         0  startup_stm32g431xx.o ABSOLUTE
    __Vectors                                0x08000000   Data           4  startup_stm32g431xx.o(RESET)
    __Vectors_End                            0x080001d8   Data           0  startup_stm32g431xx.o(RESET)
    __main                                   0x080001d9   Thumb Code     0  entry.o(.ARM.Collect$$$$00000000)
    _main_stk                                0x080001d9   Thumb Code     0  entry2.o(.ARM.Collect$$$$00000001)
    _main_scatterload                        0x080001dd   Thumb Code     0  entry5.o(.ARM.Collect$$$$00000004)
    __main_after_scatterload                 0x080001e1   Thumb Code     0  entry5.o(.ARM.Collect$$$$00000004)
    _main_clock                              0x080001e1   Thumb Code     0  entry7b.o(.ARM.Collect$$$$00000008)
    _main_cpp_init                           0x080001e1   Thumb Code     0  entry8b.o(.ARM.Collect$$$$0000000A)
    _main_init                               0x080001e1   Thumb Code     0  entry9a.o(.ARM.Collect$$$$0000000B)
    __rt_lib_shutdown_fini                   0x080001e9   Thumb Code     0  entry12b.o(.ARM.Collect$$$$0000000E)
    __rt_final_cpp                           0x080001ed   Thumb Code     0  entry10a.o(.ARM.Collect$$$$0000000F)
    __rt_final_exit                          0x080001ed   Thumb Code     0  entry11a.o(.ARM.Collect$$$$00000011)
    Reset_Handler                            0x080001f1   Thumb Code     8  startup_stm32g431xx.o(.text)
    ADC1_2_IRQHandler                        0x0800020b   Thumb Code     0  startup_stm32g431xx.o(.text)
    COMP1_2_3_IRQHandler                     0x0800020b   Thumb Code     0  startup_stm32g431xx.o(.text)
    COMP4_IRQHandler                         0x0800020b   Thumb Code     0  startup_stm32g431xx.o(.text)
    CORDIC_IRQHandler                        0x0800020b   Thumb Code     0  startup_stm32g431xx.o(.text)
    CRS_IRQHandler                           0x0800020b   Thumb Code     0  startup_stm32g431xx.o(.text)
    DMA1_Channel1_IRQHandler                 0x0800020b   Thumb Code     0  startup_stm32g431xx.o(.text)
    DMA1_Channel2_IRQHandler                 0x0800020b   Thumb Code     0  startup_stm32g431xx.o(.text)
    DMA1_Channel3_IRQHandler                 0x0800020b   Thumb Code     0  startup_stm32g431xx.o(.text)
    DMA1_Channel4_IRQHandler                 0x0800020b   Thumb Code     0  startup_stm32g431xx.o(.text)
    DMA1_Channel5_IRQHandler                 0x0800020b   Thumb Code     0  startup_stm32g431xx.o(.text)
    DMA1_Channel6_IRQHandler                 0x0800020b   Thumb Code     0  startup_stm32g431xx.o(.text)
    DMA2_Channel1_IRQHandler                 0x0800020b   Thumb Code     0  startup_stm32g431xx.o(.text)
    DMA2_Channel2_IRQHandler                 0x0800020b   Thumb Code     0  startup_stm32g431xx.o(.text)
    DMA2_Channel3_IRQHandler                 0x0800020b   Thumb Code     0  startup_stm32g431xx.o(.text)
    DMA2_Channel4_IRQHandler                 0x0800020b   Thumb Code     0  startup_stm32g431xx.o(.text)
    DMA2_Channel5_IRQHandler                 0x0800020b   Thumb Code     0  startup_stm32g431xx.o(.text)
    DMA2_Channel6_IRQHandler                 0x0800020b   Thumb Code     0  startup_stm32g431xx.o(.text)
    DMAMUX_OVR_IRQHandler                    0x0800020b   Thumb Code     0  startup_stm32g431xx.o(.text)
    EXTI0_IRQHandler                         0x0800020b   Thumb Code     0  startup_stm32g431xx.o(.text)
    EXTI15_10_IRQHandler                     0x0800020b   Thumb Code     0  startup_stm32g431xx.o(.text)
    EXTI1_IRQHandler                         0x0800020b   Thumb Code     0  startup_stm32g431xx.o(.text)
    EXTI2_IRQHandler                         0x0800020b   Thumb Code     0  startup_stm32g431xx.o(.text)
    EXTI3_IRQHandler                         0x0800020b   Thumb Code     0  startup_stm32g431xx.o(.text)
    EXTI4_IRQHandler                         0x0800020b   Thumb Code     0  startup_stm32g431xx.o(.text)
    EXTI9_5_IRQHandler                       0x0800020b   Thumb Code     0  startup_stm32g431xx.o(.text)
    FDCAN1_IT0_IRQHandler                    0x0800020b   Thumb Code     0  startup_stm32g431xx.o(.text)
    FDCAN1_IT1_IRQHandler                    0x0800020b   Thumb Code     0  startup_stm32g431xx.o(.text)
    FLASH_IRQHandler                         0x0800020b   Thumb Code     0  startup_stm32g431xx.o(.text)
    FMAC_IRQHandler                          0x0800020b   Thumb Code     0  startup_stm32g431xx.o(.text)
    FPU_IRQHandler                           0x0800020b   Thumb Code     0  startup_stm32g431xx.o(.text)
    I2C1_ER_IRQHandler                       0x0800020b   Thumb Code     0  startup_stm32g431xx.o(.text)
    I2C1_EV_IRQHandler                       0x0800020b   Thumb Code     0  startup_stm32g431xx.o(.text)
    I2C2_ER_IRQHandler                       0x0800020b   Thumb Code     0  startup_stm32g431xx.o(.text)
    I2C2_EV_IRQHandler                       0x0800020b   Thumb Code     0  startup_stm32g431xx.o(.text)
    I2C3_ER_IRQHandler                       0x0800020b   Thumb Code     0  startup_stm32g431xx.o(.text)
    I2C3_EV_IRQHandler                       0x0800020b   Thumb Code     0  startup_stm32g431xx.o(.text)
    LPTIM1_IRQHandler                        0x0800020b   Thumb Code     0  startup_stm32g431xx.o(.text)
    LPUART1_IRQHandler                       0x0800020b   Thumb Code     0  startup_stm32g431xx.o(.text)
    PVD_PVM_IRQHandler                       0x0800020b   Thumb Code     0  startup_stm32g431xx.o(.text)
    RCC_IRQHandler                           0x0800020b   Thumb Code     0  startup_stm32g431xx.o(.text)
    RNG_IRQHandler                           0x0800020b   Thumb Code     0  startup_stm32g431xx.o(.text)
    RTC_Alarm_IRQHandler                     0x0800020b   Thumb Code     0  startup_stm32g431xx.o(.text)
    RTC_TAMP_LSECSS_IRQHandler               0x0800020b   Thumb Code     0  startup_stm32g431xx.o(.text)
    RTC_WKUP_IRQHandler                      0x0800020b   Thumb Code     0  startup_stm32g431xx.o(.text)
    SAI1_IRQHandler                          0x0800020b   Thumb Code     0  startup_stm32g431xx.o(.text)
    SPI1_IRQHandler                          0x0800020b   Thumb Code     0  startup_stm32g431xx.o(.text)
    SPI2_IRQHandler                          0x0800020b   Thumb Code     0  startup_stm32g431xx.o(.text)
    SPI3_IRQHandler                          0x0800020b   Thumb Code     0  startup_stm32g431xx.o(.text)
    TIM1_BRK_TIM15_IRQHandler                0x0800020b   Thumb Code     0  startup_stm32g431xx.o(.text)
    TIM1_CC_IRQHandler                       0x0800020b   Thumb Code     0  startup_stm32g431xx.o(.text)
    TIM1_TRG_COM_TIM17_IRQHandler            0x0800020b   Thumb Code     0  startup_stm32g431xx.o(.text)
    TIM1_UP_TIM16_IRQHandler                 0x0800020b   Thumb Code     0  startup_stm32g431xx.o(.text)
    TIM2_IRQHandler                          0x0800020b   Thumb Code     0  startup_stm32g431xx.o(.text)
    TIM3_IRQHandler                          0x0800020b   Thumb Code     0  startup_stm32g431xx.o(.text)
    TIM4_IRQHandler                          0x0800020b   Thumb Code     0  startup_stm32g431xx.o(.text)
    TIM7_IRQHandler                          0x0800020b   Thumb Code     0  startup_stm32g431xx.o(.text)
    TIM8_BRK_IRQHandler                      0x0800020b   Thumb Code     0  startup_stm32g431xx.o(.text)
    TIM8_CC_IRQHandler                       0x0800020b   Thumb Code     0  startup_stm32g431xx.o(.text)
    TIM8_TRG_COM_IRQHandler                  0x0800020b   Thumb Code     0  startup_stm32g431xx.o(.text)
    TIM8_UP_IRQHandler                       0x0800020b   Thumb Code     0  startup_stm32g431xx.o(.text)
    UART4_IRQHandler                         0x0800020b   Thumb Code     0  startup_stm32g431xx.o(.text)
    UCPD1_IRQHandler                         0x0800020b   Thumb Code     0  startup_stm32g431xx.o(.text)
    USART2_IRQHandler                        0x0800020b   Thumb Code     0  startup_stm32g431xx.o(.text)
    USART3_IRQHandler                        0x0800020b   Thumb Code     0  startup_stm32g431xx.o(.text)
    USBWakeUp_IRQHandler                     0x0800020b   Thumb Code     0  startup_stm32g431xx.o(.text)
    USB_HP_IRQHandler                        0x0800020b   Thumb Code     0  startup_stm32g431xx.o(.text)
    USB_LP_IRQHandler                        0x0800020b   Thumb Code     0  startup_stm32g431xx.o(.text)
    WWDG_IRQHandler                          0x0800020b   Thumb Code     0  startup_stm32g431xx.o(.text)
    __aeabi_uldivmod                         0x08000215   Thumb Code    98  uldiv.o(.text)
    __aeabi_memset                           0x08000277   Thumb Code    14  memseta.o(.text)
    __aeabi_memset4                          0x08000277   Thumb Code     0  memseta.o(.text)
    __aeabi_memset8                          0x08000277   Thumb Code     0  memseta.o(.text)
    __aeabi_memclr                           0x08000285   Thumb Code     4  memseta.o(.text)
    __aeabi_memclr4                          0x08000285   Thumb Code     0  memseta.o(.text)
    __aeabi_memclr8                          0x08000285   Thumb Code     0  memseta.o(.text)
    _memset$wrapper                          0x08000289   Thumb Code    18  memseta.o(.text)
    __aeabi_dmul                             0x0800029b   Thumb Code   228  dmul.o(.text)
    __aeabi_ddiv                             0x0800037f   Thumb Code   222  ddiv.o(.text)
    __aeabi_ui2d                             0x0800045d   Thumb Code    26  dfltui.o(.text)
    __aeabi_d2f                              0x08000477   Thumb Code    56  d2f.o(.text)
    __aeabi_uidiv                            0x080004af   Thumb Code     0  uidiv.o(.text)
    __aeabi_uidivmod                         0x080004af   Thumb Code    44  uidiv.o(.text)
    __aeabi_llsl                             0x080004db   Thumb Code    30  llshl.o(.text)
    _ll_shift_l                              0x080004db   Thumb Code     0  llshl.o(.text)
    __aeabi_llsr                             0x080004f9   Thumb Code    32  llushr.o(.text)
    _ll_ushift_r                             0x080004f9   Thumb Code     0  llushr.o(.text)
    __I$use$fp                               0x08000519   Thumb Code     0  iusefp.o(.text)
    _float_round                             0x08000519   Thumb Code    18  fepilogue.o(.text)
    _float_epilogue                          0x0800052b   Thumb Code    92  fepilogue.o(.text)
    _double_round                            0x08000587   Thumb Code    30  depilogue.o(.text)
    _double_epilogue                         0x080005a5   Thumb Code   156  depilogue.o(.text)
    __aeabi_dadd                             0x08000641   Thumb Code   322  dadd.o(.text)
    __aeabi_dsub                             0x08000783   Thumb Code     6  dadd.o(.text)
    __aeabi_drsub                            0x08000789   Thumb Code     6  dadd.o(.text)
    __aeabi_d2ulz                            0x0800078f   Thumb Code    48  dfixul.o(.text)
    __aeabi_cdrcmple                         0x080007c1   Thumb Code    48  cdrcmple.o(.text)
    __scatterload                            0x080007f1   Thumb Code    28  init.o(.text)
    __scatterload_rt2                        0x080007f1   Thumb Code     0  init.o(.text)
    __aeabi_lasr                             0x08000815   Thumb Code    36  llsshr.o(.text)
    _ll_sshift_r                             0x08000815   Thumb Code     0  llsshr.o(.text)
    ADC_Enable                               0x08000839   Thumb Code   154  stm32g4xx_hal_adc.o(i.ADC_Enable)
    BusFault_Handler                         0x080008e5   Thumb Code     2  stm32g4xx_it.o(i.BusFault_Handler)
    DebugMon_Handler                         0x080008e7   Thumb Code     2  stm32g4xx_it.o(i.DebugMon_Handler)
    Delay_LCD                                0x080008e9   Thumb Code    28  lcd.o(i.Delay_LCD)
    Error_Handler                            0x08000905   Thumb Code     4  main.o(i.Error_Handler)
    HAL_ADC_ConfigChannel                    0x08000909   Thumb Code  1006  stm32g4xx_hal_adc.o(i.HAL_ADC_ConfigChannel)
    HAL_ADC_GetValue                         0x08000d2d   Thumb Code     6  stm32g4xx_hal_adc.o(i.HAL_ADC_GetValue)
    HAL_ADC_Init                             0x08000d35   Thumb Code   466  stm32g4xx_hal_adc.o(i.HAL_ADC_Init)
    HAL_ADC_MspInit                          0x08000f29   Thumb Code   106  adc.o(i.HAL_ADC_MspInit)
    HAL_ADC_Start                            0x08000fa1   Thumb Code   230  stm32g4xx_hal_adc.o(i.HAL_ADC_Start)
    HAL_DMA_Abort                            0x08001095   Thumb Code   106  stm32g4xx_hal_dma.o(i.HAL_DMA_Abort)
    HAL_DMA_Abort_IT                         0x080010ff   Thumb Code   120  stm32g4xx_hal_dma.o(i.HAL_DMA_Abort_IT)
    HAL_Delay                                0x08001179   Thumb Code    32  stm32g4xx_hal.o(i.HAL_Delay)
    HAL_GPIO_Init                            0x0800119d   Thumb Code   550  stm32g4xx_hal_gpio.o(i.HAL_GPIO_Init)
    HAL_GPIO_ReadPin                         0x080013e5   Thumb Code    10  stm32g4xx_hal_gpio.o(i.HAL_GPIO_ReadPin)
    HAL_GPIO_WritePin                        0x080013ef   Thumb Code    10  stm32g4xx_hal_gpio.o(i.HAL_GPIO_WritePin)
    HAL_GetTick                              0x080013f9   Thumb Code     6  stm32g4xx_hal.o(i.HAL_GetTick)
    HAL_IncTick                              0x08001405   Thumb Code    12  stm32g4xx_hal.o(i.HAL_IncTick)
    HAL_Init                                 0x08001415   Thumb Code    30  stm32g4xx_hal.o(i.HAL_Init)
    HAL_InitTick                             0x08001435   Thumb Code    58  stm32g4xx_hal.o(i.HAL_InitTick)
    HAL_MspInit                              0x08001479   Thumb Code    42  stm32g4xx_hal_msp.o(i.HAL_MspInit)
    HAL_NVIC_EnableIRQ                       0x080014a9   Thumb Code    26  stm32g4xx_hal_cortex.o(i.HAL_NVIC_EnableIRQ)
    HAL_NVIC_SetPriority                     0x080014c5   Thumb Code    60  stm32g4xx_hal_cortex.o(i.HAL_NVIC_SetPriority)
    HAL_NVIC_SetPriorityGrouping             0x08001505   Thumb Code    26  stm32g4xx_hal_cortex.o(i.HAL_NVIC_SetPriorityGrouping)
    HAL_PWREx_ControlVoltageScaling          0x08001529   Thumb Code   174  stm32g4xx_hal_pwr_ex.o(i.HAL_PWREx_ControlVoltageScaling)
    HAL_PWREx_DisableUCPDDeadBattery         0x080015e5   Thumb Code    12  stm32g4xx_hal_pwr_ex.o(i.HAL_PWREx_DisableUCPDDeadBattery)
    HAL_RCCEx_PeriphCLKConfig                0x080015f5   Thumb Code   638  stm32g4xx_hal_rcc_ex.o(i.HAL_RCCEx_PeriphCLKConfig)
    HAL_RCC_ClockConfig                      0x0800187d   Thumb Code   444  stm32g4xx_hal_rcc.o(i.HAL_RCC_ClockConfig)
    HAL_RCC_GetPCLK1Freq                     0x08001a59   Thumb Code    24  stm32g4xx_hal_rcc.o(i.HAL_RCC_GetPCLK1Freq)
    HAL_RCC_GetPCLK2Freq                     0x08001a7d   Thumb Code    24  stm32g4xx_hal_rcc.o(i.HAL_RCC_GetPCLK2Freq)
    HAL_RCC_GetSysClockFreq                  0x08001aa1   Thumb Code    98  stm32g4xx_hal_rcc.o(i.HAL_RCC_GetSysClockFreq)
    HAL_RCC_OscConfig                        0x08001b0d   Thumb Code  1028  stm32g4xx_hal_rcc.o(i.HAL_RCC_OscConfig)
    HAL_SYSTICK_Config                       0x08001f11   Thumb Code    40  stm32g4xx_hal_cortex.o(i.HAL_SYSTICK_Config)
    HAL_TIMEx_Break2Callback                 0x08001f39   Thumb Code     2  stm32g4xx_hal_tim_ex.o(i.HAL_TIMEx_Break2Callback)
    HAL_TIMEx_BreakCallback                  0x08001f3b   Thumb Code     2  stm32g4xx_hal_tim_ex.o(i.HAL_TIMEx_BreakCallback)
    HAL_TIMEx_CommutCallback                 0x08001f3d   Thumb Code     2  stm32g4xx_hal_tim_ex.o(i.HAL_TIMEx_CommutCallback)
    HAL_TIMEx_DirectionChangeCallback        0x08001f3f   Thumb Code     2  stm32g4xx_hal_tim_ex.o(i.HAL_TIMEx_DirectionChangeCallback)
    HAL_TIMEx_EncoderIndexCallback           0x08001f41   Thumb Code     2  stm32g4xx_hal_tim_ex.o(i.HAL_TIMEx_EncoderIndexCallback)
    HAL_TIMEx_IndexErrorCallback             0x08001f43   Thumb Code     2  stm32g4xx_hal_tim_ex.o(i.HAL_TIMEx_IndexErrorCallback)
    HAL_TIMEx_MasterConfigSynchronization    0x08001f45   Thumb Code   132  stm32g4xx_hal_tim_ex.o(i.HAL_TIMEx_MasterConfigSynchronization)
    HAL_TIMEx_TransitionErrorCallback        0x08001fe1   Thumb Code     2  stm32g4xx_hal_tim_ex.o(i.HAL_TIMEx_TransitionErrorCallback)
    HAL_TIM_Base_Init                        0x08001fe3   Thumb Code    98  stm32g4xx_hal_tim.o(i.HAL_TIM_Base_Init)
    HAL_TIM_Base_MspInit                     0x08002045   Thumb Code    50  tim.o(i.HAL_TIM_Base_MspInit)
    HAL_TIM_Base_Start_IT                    0x08002081   Thumb Code    94  stm32g4xx_hal_tim.o(i.HAL_TIM_Base_Start_IT)
    HAL_TIM_IC_CaptureCallback               0x080020f9   Thumb Code     2  stm32g4xx_hal_tim.o(i.HAL_TIM_IC_CaptureCallback)
    HAL_TIM_IRQHandler                       0x080020fb   Thumb Code   418  stm32g4xx_hal_tim.o(i.HAL_TIM_IRQHandler)
    HAL_TIM_OC_DelayElapsedCallback          0x0800229d   Thumb Code     2  stm32g4xx_hal_tim.o(i.HAL_TIM_OC_DelayElapsedCallback)
    HAL_TIM_PWM_PulseFinishedCallback        0x0800229f   Thumb Code     2  stm32g4xx_hal_tim.o(i.HAL_TIM_PWM_PulseFinishedCallback)
    HAL_TIM_PeriodElapsedCallback            0x080022a1   Thumb Code   150  interrupt.o(i.HAL_TIM_PeriodElapsedCallback)
    HAL_TIM_TriggerCallback                  0x08002349   Thumb Code     2  stm32g4xx_hal_tim.o(i.HAL_TIM_TriggerCallback)
    HAL_UARTEx_DisableFifoMode               0x0800234b   Thumb Code    62  stm32g4xx_hal_uart_ex.o(i.HAL_UARTEx_DisableFifoMode)
    HAL_UARTEx_RxEventCallback               0x08002389   Thumb Code     2  stm32g4xx_hal_uart.o(i.HAL_UARTEx_RxEventCallback)
    HAL_UARTEx_RxFifoFullCallback            0x0800238b   Thumb Code     2  stm32g4xx_hal_uart_ex.o(i.HAL_UARTEx_RxFifoFullCallback)
    HAL_UARTEx_SetRxFifoThreshold            0x0800238d   Thumb Code    76  stm32g4xx_hal_uart_ex.o(i.HAL_UARTEx_SetRxFifoThreshold)
    HAL_UARTEx_SetTxFifoThreshold            0x080023d9   Thumb Code    76  stm32g4xx_hal_uart_ex.o(i.HAL_UARTEx_SetTxFifoThreshold)
    HAL_UARTEx_TxFifoEmptyCallback           0x08002425   Thumb Code     2  stm32g4xx_hal_uart_ex.o(i.HAL_UARTEx_TxFifoEmptyCallback)
    HAL_UARTEx_WakeupCallback                0x08002427   Thumb Code     2  stm32g4xx_hal_uart_ex.o(i.HAL_UARTEx_WakeupCallback)
    HAL_UART_ErrorCallback                   0x08002429   Thumb Code     2  stm32g4xx_hal_uart.o(i.HAL_UART_ErrorCallback)
    HAL_UART_IRQHandler                      0x0800242d   Thumb Code   766  stm32g4xx_hal_uart.o(i.HAL_UART_IRQHandler)
    HAL_UART_Init                            0x08002739   Thumb Code   106  stm32g4xx_hal_uart.o(i.HAL_UART_Init)
    HAL_UART_MspInit                         0x080027a5   Thumb Code   132  usart.o(i.HAL_UART_MspInit)
    HAL_UART_Receive_IT                      0x08002831   Thumb Code    66  stm32g4xx_hal_uart.o(i.HAL_UART_Receive_IT)
    HAL_UART_RxCpltCallback                  0x08002879   Thumb Code    34  interrupt.o(i.HAL_UART_RxCpltCallback)
    HAL_UART_Transmit                        0x080028ad   Thumb Code   174  stm32g4xx_hal_uart.o(i.HAL_UART_Transmit)
    HAL_UART_TxCpltCallback                  0x0800295b   Thumb Code     2  stm32g4xx_hal_uart.o(i.HAL_UART_TxCpltCallback)
    HardFault_Handler                        0x0800295d   Thumb Code     2  stm32g4xx_it.o(i.HardFault_Handler)
    Key_Proc                                 0x08002961   Thumb Code   158  task.o(i.Key_Proc)
    Key_Read                                 0x08002a1d   Thumb Code    60  key.o(i.Key_Read)
    LCD_BusIn                                0x08002a5d   Thumb Code    40  lcd.o(i.LCD_BusIn)
    LCD_BusOut                               0x08002a89   Thumb Code    42  lcd.o(i.LCD_BusOut)
    LCD_Clear                                0x08002ab9   Thumb Code    36  lcd.o(i.LCD_Clear)
    LCD_CtrlLinesConfig                      0x08002add   Thumb Code   136  lcd.o(i.LCD_CtrlLinesConfig)
    LCD_DisplayChar                          0x08002b6d   Thumb Code    18  lcd.o(i.LCD_DisplayChar)
    LCD_DisplayStringLine                    0x08002b85   Thumb Code    42  lcd.o(i.LCD_DisplayStringLine)
    LCD_DrawChar                             0x08002bb1   Thumb Code    84  lcd.o(i.LCD_DrawChar)
    LCD_Init                                 0x08002c09   Thumb Code    46  lcd.o(i.LCD_Init)
    LCD_Proc                                 0x08002c3d   Thumb Code   114  task.o(i.LCD_Proc)
    LCD_ReadReg                              0x08002d05   Thumb Code   120  lcd.o(i.LCD_ReadReg)
    LCD_SetBackColor                         0x08002d85   Thumb Code    12  lcd.o(i.LCD_SetBackColor)
    LCD_SetCursor                            0x08002d95   Thumb Code    24  lcd.o(i.LCD_SetCursor)
    LCD_SetTextColor                         0x08002dad   Thumb Code    12  lcd.o(i.LCD_SetTextColor)
    LCD_WriteRAM                             0x08002dbd   Thumb Code    86  lcd.o(i.LCD_WriteRAM)
    LCD_WriteRAM_Prepare                     0x08002e1d   Thumb Code    88  lcd.o(i.LCD_WriteRAM_Prepare)
    LCD_WriteReg                             0x08002e7d   Thumb Code   104  lcd.o(i.LCD_WriteReg)
    LED_DisPLay                              0x08002eed   Thumb Code    84  led.o(i.LED_DisPLay)
    LED_Proc                                 0x08002f4d   Thumb Code    52  task.o(i.LED_Proc)
    MX_ADC2_Init                             0x08002fd5   Thumb Code   110  adc.o(i.MX_ADC2_Init)
    MX_GPIO_Init                             0x08003051   Thumb Code   270  gpio.o(i.MX_GPIO_Init)
    MX_TIM6_Init                             0x08003171   Thumb Code    64  tim.o(i.MX_TIM6_Init)
    MX_USART1_UART_Init                      0x080031b9   Thumb Code    94  usart.o(i.MX_USART1_UART_Init)
    MemManage_Handler                        0x08003221   Thumb Code     2  stm32g4xx_it.o(i.MemManage_Handler)
    NMI_Handler                              0x08003223   Thumb Code     2  stm32g4xx_it.o(i.NMI_Handler)
    Navigate_Proc                            0x08003225   Thumb Code    56  task.o(i.Navigate_Proc)
    PendSV_Handler                           0x0800326d   Thumb Code     2  stm32g4xx_it.o(i.PendSV_Handler)
    REG_8230_Init                            0x0800326f   Thumb Code   274  lcd.o(i.REG_8230_Init)
    REG_932X_Init                            0x08003381   Thumb Code   514  lcd.o(i.REG_932X_Init)
    Read_Proc                                0x08003585   Thumb Code    92  task.o(i.Read_Proc)
    SVC_Handler                              0x08003605   Thumb Code     2  stm32g4xx_it.o(i.SVC_Handler)
    Serial_Proc                              0x08003609   Thumb Code    98  task.o(i.Serial_Proc)
    SysTick_Handler                          0x08003691   Thumb Code     4  stm32g4xx_it.o(i.SysTick_Handler)
    SystemClock_Config                       0x08003695   Thumb Code   106  main.o(i.SystemClock_Config)
    SystemInit                               0x08003701   Thumb Code    12  system_stm32g4xx.o(i.SystemInit)
    TIM6_DAC_IRQHandler                      0x08003711   Thumb Code     6  stm32g4xx_it.o(i.TIM6_DAC_IRQHandler)
    TIM_Base_SetConfig                       0x0800371d   Thumb Code   160  stm32g4xx_hal_tim.o(i.TIM_Base_SetConfig)
    UART_AdvFeatureConfig                    0x0800381d   Thumb Code   200  stm32g4xx_hal_uart.o(i.UART_AdvFeatureConfig)
    UART_CheckIdleState                      0x080038e5   Thumb Code   172  stm32g4xx_hal_uart.o(i.UART_CheckIdleState)
    UART_SetConfig                           0x08003ec9   Thumb Code   582  stm32g4xx_hal_uart.o(i.UART_SetConfig)
    UART_Start_Receive_IT                    0x0800413d   Thumb Code   256  stm32g4xx_hal_uart.o(i.UART_Start_Receive_IT)
    UART_WaitOnFlagUntilTimeout              0x0800424d   Thumb Code   148  stm32g4xx_hal_uart.o(i.UART_WaitOnFlagUntilTimeout)
    USART1_IRQHandler                        0x080042e1   Thumb Code     6  stm32g4xx_it.o(i.USART1_IRQHandler)
    UsageFault_Handler                       0x080042ed   Thumb Code     2  stm32g4xx_it.o(i.UsageFault_Handler)
    Voltage_Collect                          0x080042ef   Thumb Code    18  myadc.o(i.Voltage_Collect)
    __0printf                                0x08004301   Thumb Code    22  printfa.o(i.__0printf)
    __1printf                                0x08004301   Thumb Code     0  printfa.o(i.__0printf)
    __2printf                                0x08004301   Thumb Code     0  printfa.o(i.__0printf)
    __c89printf                              0x08004301   Thumb Code     0  printfa.o(i.__0printf)
    printf                                   0x08004301   Thumb Code     0  printfa.o(i.__0printf)
    __0sprintf                               0x08004321   Thumb Code    34  printfa.o(i.__0sprintf)
    __1sprintf                               0x08004321   Thumb Code     0  printfa.o(i.__0sprintf)
    __2sprintf                               0x08004321   Thumb Code     0  printfa.o(i.__0sprintf)
    __c89sprintf                             0x08004321   Thumb Code     0  printfa.o(i.__0sprintf)
    sprintf                                  0x08004321   Thumb Code     0  printfa.o(i.__0sprintf)
    __scatterload_copy                       0x08004369   Thumb Code    14  handlers.o(i.__scatterload_copy)
    __scatterload_null                       0x08004377   Thumb Code     2  handlers.o(i.__scatterload_null)
    __scatterload_zeroinit                   0x08004379   Thumb Code    14  handlers.o(i.__scatterload_zeroinit)
    fputc                                    0x08004c1d   Thumb Code    20  interrupt.o(i.fputc)
    main                                     0x08004c35   Thumb Code    98  main.o(i.main)
    ASCII_Table                              0x08004cac   Data        4560  lcd.o(.constdata)
    UARTPrescTable                           0x08005e7c   Data          24  stm32g4xx_hal_uart.o(.constdata)
    AHBPrescTable                            0x08005ea4   Data          16  system_stm32g4xx.o(.constdata)
    APBPrescTable                            0x08005eb4   Data           8  system_stm32g4xx.o(.constdata)
    Region$$Table$$Base                      0x08005ebc   Number         0  anon$$obj.o(Region$$Table)
    Region$$Table$$Limit                     0x08005edc   Number         0  anon$$obj.o(Region$$Table)
    Tim_Total_Flag                           0x20000000   Data           1  interrupt.o(.data)
    Serial_RxData                            0x20000001   Data           1  interrupt.o(.data)
    Serial_RxIndex                           0x20000002   Data           1  interrupt.o(.data)
    LED_Enable                               0x20000008   Data           8  interrupt.o(.data)
    Key_Val                                  0x20000010   Data           1  task.o(.data)
    Key_Down                                 0x20000011   Data           1  task.o(.data)
    Key_Up                                   0x20000012   Data           1  task.o(.data)
    Key_Old                                  0x20000013   Data           1  task.o(.data)
    Navigate_Flag                            0x20000014   Data           1  task.o(.data)
    Navigate_Error_Flag                      0x20000015   Data           1  task.o(.data)
    Serial_RxEnable                          0x20000016   Data           1  task.o(.data)
    Blink                                    0x20000017   Data           1  task.o(.data)
    Serial_Middle_Buf                        0x20000018   Data           2  task.o(.data)
    Distance                                 0x2000001a   Data           2  task.o(.data)
    Voltage_Val                              0x2000001c   Data           4  task.o(.data)
    Navigate_Tick                            0x20000020   Data           4  task.o(.data)
    dummy                                    0x20000028   Data           2  lcd.o(.data)
    uwTickPrio                               0x2000002c   Data           4  stm32g4xx_hal.o(.data)
    uwTickFreq                               0x20000030   Data           4  stm32g4xx_hal.o(.data)
    uwTick                                   0x20000034   Data           4  stm32g4xx_hal.o(.data)
    SystemCoreClock                          0x20000038   Data           4  system_stm32g4xx.o(.data)
    __stdout                                 0x2000003c   Data           4  stdout.o(.data)
    hadc2                                    0x20000040   Data         108  adc.o(.bss)
    htim6                                    0x200000ac   Data          76  tim.o(.bss)
    huart1                                   0x200000f8   Data         148  usart.o(.bss)
    Serial_RxBuf                             0x2000018c   Data          10  interrupt.o(.bss)
    LCD_Buf                                  0x20000196   Data          30  task.o(.bss)
    __initial_sp                             0x200005b8   Data           0  startup_stm32g431xx.o(STACK)



==============================================================================

Memory Map of the image

  Image Entry point : 0x080001d9

  Load Region LR_IROM1 (Base: 0x08000000, Size: 0x00005f1c, Max: 0x00020000, ABSOLUTE)

    Execution Region ER_IROM1 (Exec base: 0x08000000, Load base: 0x08000000, Size: 0x00005edc, Max: 0x00020000, ABSOLUTE)

    Exec Addr    Load Addr    Size         Type   Attr      Idx    E Section Name        Object

    0x08000000   0x08000000   0x000001d8   Data   RO          849    RESET               startup_stm32g431xx.o
    0x080001d8   0x080001d8   0x00000000   Code   RO         4515  * .ARM.Collect$$$$00000000  mc_w.l(entry.o)
    0x080001d8   0x080001d8   0x00000004   Code   RO         4791    .ARM.Collect$$$$00000001  mc_w.l(entry2.o)
    0x080001dc   0x080001dc   0x00000004   Code   RO         4794    .ARM.Collect$$$$00000004  mc_w.l(entry5.o)
    0x080001e0   0x080001e0   0x00000000   Code   RO         4796    .ARM.Collect$$$$00000008  mc_w.l(entry7b.o)
    0x080001e0   0x080001e0   0x00000000   Code   RO         4798    .ARM.Collect$$$$0000000A  mc_w.l(entry8b.o)
    0x080001e0   0x080001e0   0x00000008   Code   RO         4799    .ARM.Collect$$$$0000000B  mc_w.l(entry9a.o)
    0x080001e8   0x080001e8   0x00000004   Code   RO         4806    .ARM.Collect$$$$0000000E  mc_w.l(entry12b.o)
    0x080001ec   0x080001ec   0x00000000   Code   RO         4801    .ARM.Collect$$$$0000000F  mc_w.l(entry10a.o)
    0x080001ec   0x080001ec   0x00000000   Code   RO         4803    .ARM.Collect$$$$00000011  mc_w.l(entry11a.o)
    0x080001ec   0x080001ec   0x00000004   Code   RO         4792    .ARM.Collect$$$$00002712  mc_w.l(entry2.o)
    0x080001f0   0x080001f0   0x00000024   Code   RO          850    .text               startup_stm32g431xx.o
    0x08000214   0x08000214   0x00000062   Code   RO         4518    .text               mc_w.l(uldiv.o)
    0x08000276   0x08000276   0x00000024   Code   RO         4520    .text               mc_w.l(memseta.o)
    0x0800029a   0x0800029a   0x000000e4   Code   RO         4783    .text               mf_w.l(dmul.o)
    0x0800037e   0x0800037e   0x000000de   Code   RO         4785    .text               mf_w.l(ddiv.o)
    0x0800045c   0x0800045c   0x0000001a   Code   RO         4787    .text               mf_w.l(dfltui.o)
    0x08000476   0x08000476   0x00000038   Code   RO         4789    .text               mf_w.l(d2f.o)
    0x080004ae   0x080004ae   0x0000002c   Code   RO         4808    .text               mc_w.l(uidiv.o)
    0x080004da   0x080004da   0x0000001e   Code   RO         4810    .text               mc_w.l(llshl.o)
    0x080004f8   0x080004f8   0x00000020   Code   RO         4812    .text               mc_w.l(llushr.o)
    0x08000518   0x08000518   0x00000000   Code   RO         4814    .text               mc_w.l(iusefp.o)
    0x08000518   0x08000518   0x0000006e   Code   RO         4815    .text               mf_w.l(fepilogue.o)
    0x08000586   0x08000586   0x000000ba   Code   RO         4817    .text               mf_w.l(depilogue.o)
    0x08000640   0x08000640   0x0000014e   Code   RO         4819    .text               mf_w.l(dadd.o)
    0x0800078e   0x0800078e   0x00000030   Code   RO         4821    .text               mf_w.l(dfixul.o)
    0x080007be   0x080007be   0x00000002   PAD
    0x080007c0   0x080007c0   0x00000030   Code   RO         4823    .text               mf_w.l(cdrcmple.o)
    0x080007f0   0x080007f0   0x00000024   Code   RO         4825    .text               mc_w.l(init.o)
    0x08000814   0x08000814   0x00000024   Code   RO         4827    .text               mc_w.l(llsshr.o)
    0x08000838   0x08000838   0x000000ac   Code   RO          862    i.ADC_Enable        stm32g4xx_hal_adc.o
    0x080008e4   0x080008e4   0x00000002   Code   RO          348    i.BusFault_Handler  stm32g4xx_it.o
    0x080008e6   0x080008e6   0x00000002   Code   RO          349    i.DebugMon_Handler  stm32g4xx_it.o
    0x080008e8   0x080008e8   0x0000001c   Code   RO          592    i.Delay_LCD         lcd.o
    0x08000904   0x08000904   0x00000004   Code   RO            4    i.Error_Handler     main.o
    0x08000908   0x08000908   0x00000424   Code   RO          864    i.HAL_ADC_ConfigChannel  stm32g4xx_hal_adc.o
    0x08000d2c   0x08000d2c   0x00000006   Code   RO          871    i.HAL_ADC_GetValue  stm32g4xx_hal_adc.o
    0x08000d32   0x08000d32   0x00000002   PAD
    0x08000d34   0x08000d34   0x000001f4   Code   RO          873    i.HAL_ADC_Init      stm32g4xx_hal_adc.o
    0x08000f28   0x08000f28   0x00000078   Code   RO          223    i.HAL_ADC_MspInit   adc.o
    0x08000fa0   0x08000fa0   0x000000f4   Code   RO          879    i.HAL_ADC_Start     stm32g4xx_hal_adc.o
    0x08001094   0x08001094   0x0000006a   Code   RO         2158    i.HAL_DMA_Abort     stm32g4xx_hal_dma.o
    0x080010fe   0x080010fe   0x00000078   Code   RO         2159    i.HAL_DMA_Abort_IT  stm32g4xx_hal_dma.o
    0x08001176   0x08001176   0x00000002   PAD
    0x08001178   0x08001178   0x00000024   Code   RO         1311    i.HAL_Delay         stm32g4xx_hal.o
    0x0800119c   0x0800119c   0x00000248   Code   RO         2020    i.HAL_GPIO_Init     stm32g4xx_hal_gpio.o
    0x080013e4   0x080013e4   0x0000000a   Code   RO         2022    i.HAL_GPIO_ReadPin  stm32g4xx_hal_gpio.o
    0x080013ee   0x080013ee   0x0000000a   Code   RO         2024    i.HAL_GPIO_WritePin  stm32g4xx_hal_gpio.o
    0x080013f8   0x080013f8   0x0000000c   Code   RO         1315    i.HAL_GetTick       stm32g4xx_hal.o
    0x08001404   0x08001404   0x00000010   Code   RO         1321    i.HAL_IncTick       stm32g4xx_hal.o
    0x08001414   0x08001414   0x0000001e   Code   RO         1322    i.HAL_Init          stm32g4xx_hal.o
    0x08001432   0x08001432   0x00000002   PAD
    0x08001434   0x08001434   0x00000044   Code   RO         1323    i.HAL_InitTick      stm32g4xx_hal.o
    0x08001478   0x08001478   0x00000030   Code   RO          435    i.HAL_MspInit       stm32g4xx_hal_msp.o
    0x080014a8   0x080014a8   0x0000001a   Code   RO         2667    i.HAL_NVIC_EnableIRQ  stm32g4xx_hal_cortex.o
    0x080014c2   0x080014c2   0x00000002   PAD
    0x080014c4   0x080014c4   0x00000040   Code   RO         2673    i.HAL_NVIC_SetPriority  stm32g4xx_hal_cortex.o
    0x08001504   0x08001504   0x00000024   Code   RO         2674    i.HAL_NVIC_SetPriorityGrouping  stm32g4xx_hal_cortex.o
    0x08001528   0x08001528   0x000000bc   Code   RO         2423    i.HAL_PWREx_ControlVoltageScaling  stm32g4xx_hal_pwr_ex.o
    0x080015e4   0x080015e4   0x00000010   Code   RO         2435    i.HAL_PWREx_DisableUCPDDeadBattery  stm32g4xx_hal_pwr_ex.o
    0x080015f4   0x080015f4   0x00000288   Code   RO         1682    i.HAL_RCCEx_PeriphCLKConfig  stm32g4xx_hal_rcc_ex.o
    0x0800187c   0x0800187c   0x000001dc   Code   RO         1557    i.HAL_RCC_ClockConfig  stm32g4xx_hal_rcc.o
    0x08001a58   0x08001a58   0x00000024   Code   RO         1565    i.HAL_RCC_GetPCLK1Freq  stm32g4xx_hal_rcc.o
    0x08001a7c   0x08001a7c   0x00000024   Code   RO         1566    i.HAL_RCC_GetPCLK2Freq  stm32g4xx_hal_rcc.o
    0x08001aa0   0x08001aa0   0x0000006c   Code   RO         1567    i.HAL_RCC_GetSysClockFreq  stm32g4xx_hal_rcc.o
    0x08001b0c   0x08001b0c   0x00000404   Code   RO         1570    i.HAL_RCC_OscConfig  stm32g4xx_hal_rcc.o
    0x08001f10   0x08001f10   0x00000028   Code   RO         2678    i.HAL_SYSTICK_Config  stm32g4xx_hal_cortex.o
    0x08001f38   0x08001f38   0x00000002   Code   RO         3513    i.HAL_TIMEx_Break2Callback  stm32g4xx_hal_tim_ex.o
    0x08001f3a   0x08001f3a   0x00000002   Code   RO         3514    i.HAL_TIMEx_BreakCallback  stm32g4xx_hal_tim_ex.o
    0x08001f3c   0x08001f3c   0x00000002   Code   RO         3515    i.HAL_TIMEx_CommutCallback  stm32g4xx_hal_tim_ex.o
    0x08001f3e   0x08001f3e   0x00000002   Code   RO         3526    i.HAL_TIMEx_DirectionChangeCallback  stm32g4xx_hal_tim_ex.o
    0x08001f40   0x08001f40   0x00000002   Code   RO         3540    i.HAL_TIMEx_EncoderIndexCallback  stm32g4xx_hal_tim_ex.o
    0x08001f42   0x08001f42   0x00000002   Code   RO         3554    i.HAL_TIMEx_IndexErrorCallback  stm32g4xx_hal_tim_ex.o
    0x08001f44   0x08001f44   0x0000009c   Code   RO         3555    i.HAL_TIMEx_MasterConfigSynchronization  stm32g4xx_hal_tim_ex.o
    0x08001fe0   0x08001fe0   0x00000002   Code   RO         3576    i.HAL_TIMEx_TransitionErrorCallback  stm32g4xx_hal_tim_ex.o
    0x08001fe2   0x08001fe2   0x00000062   Code   RO         2799    i.HAL_TIM_Base_Init  stm32g4xx_hal_tim.o
    0x08002044   0x08002044   0x0000003c   Code   RO          265    i.HAL_TIM_Base_MspInit  tim.o
    0x08002080   0x08002080   0x00000078   Code   RO         2804    i.HAL_TIM_Base_Start_IT  stm32g4xx_hal_tim.o
    0x080020f8   0x080020f8   0x00000002   Code   RO         2833    i.HAL_TIM_IC_CaptureCallback  stm32g4xx_hal_tim.o
    0x080020fa   0x080020fa   0x000001a2   Code   RO         2847    i.HAL_TIM_IRQHandler  stm32g4xx_hal_tim.o
    0x0800229c   0x0800229c   0x00000002   Code   RO         2850    i.HAL_TIM_OC_DelayElapsedCallback  stm32g4xx_hal_tim.o
    0x0800229e   0x0800229e   0x00000002   Code   RO         2877    i.HAL_TIM_PWM_PulseFinishedCallback  stm32g4xx_hal_tim.o
    0x080022a0   0x080022a0   0x000000a8   Code   RO          459    i.HAL_TIM_PeriodElapsedCallback  interrupt.o
    0x08002348   0x08002348   0x00000002   Code   RO         2890    i.HAL_TIM_TriggerCallback  stm32g4xx_hal_tim.o
    0x0800234a   0x0800234a   0x0000003e   Code   RO         4362    i.HAL_UARTEx_DisableFifoMode  stm32g4xx_hal_uart_ex.o
    0x08002388   0x08002388   0x00000002   Code   RO         3951    i.HAL_UARTEx_RxEventCallback  stm32g4xx_hal_uart.o
    0x0800238a   0x0800238a   0x00000002   Code   RO         4370    i.HAL_UARTEx_RxFifoFullCallback  stm32g4xx_hal_uart_ex.o
    0x0800238c   0x0800238c   0x0000004c   Code   RO         4371    i.HAL_UARTEx_SetRxFifoThreshold  stm32g4xx_hal_uart_ex.o
    0x080023d8   0x080023d8   0x0000004c   Code   RO         4372    i.HAL_UARTEx_SetTxFifoThreshold  stm32g4xx_hal_uart_ex.o
    0x08002424   0x08002424   0x00000002   Code   RO         4374    i.HAL_UARTEx_TxFifoEmptyCallback  stm32g4xx_hal_uart_ex.o
    0x08002426   0x08002426   0x00000002   Code   RO         4375    i.HAL_UARTEx_WakeupCallback  stm32g4xx_hal_uart_ex.o
    0x08002428   0x08002428   0x00000002   Code   RO         3967    i.HAL_UART_ErrorCallback  stm32g4xx_hal_uart.o
    0x0800242a   0x0800242a   0x00000002   PAD
    0x0800242c   0x0800242c   0x0000030c   Code   RO         3970    i.HAL_UART_IRQHandler  stm32g4xx_hal_uart.o
    0x08002738   0x08002738   0x0000006a   Code   RO         3971    i.HAL_UART_Init     stm32g4xx_hal_uart.o
    0x080027a2   0x080027a2   0x00000002   PAD
    0x080027a4   0x080027a4   0x0000008c   Code   RO          307    i.HAL_UART_MspInit  usart.o
    0x08002830   0x08002830   0x00000048   Code   RO         3976    i.HAL_UART_Receive_IT  stm32g4xx_hal_uart.o
    0x08002878   0x08002878   0x00000034   Code   RO          460    i.HAL_UART_RxCpltCallback  interrupt.o
    0x080028ac   0x080028ac   0x000000ae   Code   RO         3980    i.HAL_UART_Transmit  stm32g4xx_hal_uart.o
    0x0800295a   0x0800295a   0x00000002   Code   RO         3983    i.HAL_UART_TxCpltCallback  stm32g4xx_hal_uart.o
    0x0800295c   0x0800295c   0x00000002   Code   RO          350    i.HardFault_Handler  stm32g4xx_it.o
    0x0800295e   0x0800295e   0x00000002   PAD
    0x08002960   0x08002960   0x000000bc   Code   RO          502    i.Key_Proc          task.o
    0x08002a1c   0x08002a1c   0x00000040   Code   RO          565    i.Key_Read          key.o
    0x08002a5c   0x08002a5c   0x0000002c   Code   RO          593    i.LCD_BusIn         lcd.o
    0x08002a88   0x08002a88   0x00000030   Code   RO          594    i.LCD_BusOut        lcd.o
    0x08002ab8   0x08002ab8   0x00000024   Code   RO          595    i.LCD_Clear         lcd.o
    0x08002adc   0x08002adc   0x00000090   Code   RO          597    i.LCD_CtrlLinesConfig  lcd.o
    0x08002b6c   0x08002b6c   0x00000018   Code   RO          598    i.LCD_DisplayChar   lcd.o
    0x08002b84   0x08002b84   0x0000002a   Code   RO          601    i.LCD_DisplayStringLine  lcd.o
    0x08002bae   0x08002bae   0x00000002   PAD
    0x08002bb0   0x08002bb0   0x00000058   Code   RO          602    i.LCD_DrawChar      lcd.o
    0x08002c08   0x08002c08   0x00000034   Code   RO          608    i.LCD_Init          lcd.o
    0x08002c3c   0x08002c3c   0x000000c8   Code   RO          503    i.LCD_Proc          task.o
    0x08002d04   0x08002d04   0x00000080   Code   RO          611    i.LCD_ReadReg       lcd.o
    0x08002d84   0x08002d84   0x00000010   Code   RO          612    i.LCD_SetBackColor  lcd.o
    0x08002d94   0x08002d94   0x00000018   Code   RO          613    i.LCD_SetCursor     lcd.o
    0x08002dac   0x08002dac   0x00000010   Code   RO          615    i.LCD_SetTextColor  lcd.o
    0x08002dbc   0x08002dbc   0x00000060   Code   RO          618    i.LCD_WriteRAM      lcd.o
    0x08002e1c   0x08002e1c   0x00000060   Code   RO          619    i.LCD_WriteRAM_Prepare  lcd.o
    0x08002e7c   0x08002e7c   0x00000070   Code   RO          620    i.LCD_WriteReg      lcd.o
    0x08002eec   0x08002eec   0x00000060   Code   RO          798    i.LED_DisPLay       led.o
    0x08002f4c   0x08002f4c   0x0000003c   Code   RO          504    i.LED_Proc          task.o
    0x08002f88   0x08002f88   0x0000000c   Code   RO          887    i.LL_ADC_GetOffsetChannel  stm32g4xx_hal_adc.o
    0x08002f94   0x08002f94   0x00000008   Code   RO          888    i.LL_ADC_INJ_IsConversionOngoing  stm32g4xx_hal_adc.o
    0x08002f9c   0x08002f9c   0x00000008   Code   RO          889    i.LL_ADC_REG_IsConversionOngoing  stm32g4xx_hal_adc.o
    0x08002fa4   0x08002fa4   0x0000001e   Code   RO          892    i.LL_ADC_SetChannelSamplingTime  stm32g4xx_hal_adc.o
    0x08002fc2   0x08002fc2   0x00000010   Code   RO          893    i.LL_ADC_SetOffsetState  stm32g4xx_hal_adc.o
    0x08002fd2   0x08002fd2   0x00000002   PAD
    0x08002fd4   0x08002fd4   0x0000007c   Code   RO          224    i.MX_ADC2_Init      adc.o
    0x08003050   0x08003050   0x00000120   Code   RO          195    i.MX_GPIO_Init      gpio.o
    0x08003170   0x08003170   0x00000048   Code   RO          266    i.MX_TIM6_Init      tim.o
    0x080031b8   0x080031b8   0x00000068   Code   RO          308    i.MX_USART1_UART_Init  usart.o
    0x08003220   0x08003220   0x00000002   Code   RO          351    i.MemManage_Handler  stm32g4xx_it.o
    0x08003222   0x08003222   0x00000002   Code   RO          352    i.NMI_Handler       stm32g4xx_it.o
    0x08003224   0x08003224   0x00000048   Code   RO          505    i.Navigate_Proc     task.o
    0x0800326c   0x0800326c   0x00000002   Code   RO          353    i.PendSV_Handler    stm32g4xx_it.o
    0x0800326e   0x0800326e   0x00000112   Code   RO          621    i.REG_8230_Init     lcd.o
    0x08003380   0x08003380   0x00000202   Code   RO          622    i.REG_932X_Init     lcd.o
    0x08003582   0x08003582   0x00000002   PAD
    0x08003584   0x08003584   0x00000080   Code   RO          506    i.Read_Proc         task.o
    0x08003604   0x08003604   0x00000002   Code   RO          354    i.SVC_Handler       stm32g4xx_it.o
    0x08003606   0x08003606   0x00000002   PAD
    0x08003608   0x08003608   0x00000088   Code   RO          507    i.Serial_Proc       task.o
    0x08003690   0x08003690   0x00000004   Code   RO          355    i.SysTick_Handler   stm32g4xx_it.o
    0x08003694   0x08003694   0x0000006a   Code   RO            5    i.SystemClock_Config  main.o
    0x080036fe   0x080036fe   0x00000002   PAD
    0x08003700   0x08003700   0x00000010   Code   RO         4481    i.SystemInit        system_stm32g4xx.o
    0x08003710   0x08003710   0x0000000c   Code   RO          356    i.TIM6_DAC_IRQHandler  stm32g4xx_it.o
    0x0800371c   0x0800371c   0x000000bc   Code   RO         2892    i.TIM_Base_SetConfig  stm32g4xx_hal_tim.o
    0x080037d8   0x080037d8   0x00000044   Code   RO         4376    i.UARTEx_SetNbDataToProcess  stm32g4xx_hal_uart_ex.o
    0x0800381c   0x0800381c   0x000000c8   Code   RO         3985    i.UART_AdvFeatureConfig  stm32g4xx_hal_uart.o
    0x080038e4   0x080038e4   0x000000ac   Code   RO         3986    i.UART_CheckIdleState  stm32g4xx_hal_uart.o
    0x08003990   0x08003990   0x00000014   Code   RO         3987    i.UART_DMAAbortOnError  stm32g4xx_hal_uart.o
    0x080039a4   0x080039a4   0x00000054   Code   RO         3997    i.UART_EndRxTransfer  stm32g4xx_hal_uart.o
    0x080039f8   0x080039f8   0x000000c8   Code   RO         3999    i.UART_RxISR_16BIT  stm32g4xx_hal_uart.o
    0x08003ac0   0x08003ac0   0x000001a0   Code   RO         4000    i.UART_RxISR_16BIT_FIFOEN  stm32g4xx_hal_uart.o
    0x08003c60   0x08003c60   0x000000c8   Code   RO         4001    i.UART_RxISR_8BIT   stm32g4xx_hal_uart.o
    0x08003d28   0x08003d28   0x000001a0   Code   RO         4002    i.UART_RxISR_8BIT_FIFOEN  stm32g4xx_hal_uart.o
    0x08003ec8   0x08003ec8   0x00000274   Code   RO         4003    i.UART_SetConfig    stm32g4xx_hal_uart.o
    0x0800413c   0x0800413c   0x00000110   Code   RO         4005    i.UART_Start_Receive_IT  stm32g4xx_hal_uart.o
    0x0800424c   0x0800424c   0x00000094   Code   RO         4010    i.UART_WaitOnFlagUntilTimeout  stm32g4xx_hal_uart.o
    0x080042e0   0x080042e0   0x0000000c   Code   RO          357    i.USART1_IRQHandler  stm32g4xx_it.o
    0x080042ec   0x080042ec   0x00000002   Code   RO          358    i.UsageFault_Handler  stm32g4xx_it.o
    0x080042ee   0x080042ee   0x00000012   Code   RO          826    i.Voltage_Collect   myadc.o
    0x08004300   0x08004300   0x00000020   Code   RO         4755    i.__0printf         mc_w.l(printfa.o)
    0x08004320   0x08004320   0x00000028   Code   RO         4757    i.__0sprintf        mc_w.l(printfa.o)
    0x08004348   0x08004348   0x00000020   Code   RO         2680    i.__NVIC_SetPriority  stm32g4xx_hal_cortex.o
    0x08004368   0x08004368   0x0000000e   Code   RO         4831    i.__scatterload_copy  mc_w.l(handlers.o)
    0x08004376   0x08004376   0x00000002   Code   RO         4832    i.__scatterload_null  mc_w.l(handlers.o)
    0x08004378   0x08004378   0x0000000e   Code   RO         4833    i.__scatterload_zeroinit  mc_w.l(handlers.o)
    0x08004386   0x08004386   0x00000002   PAD
    0x08004388   0x08004388   0x00000184   Code   RO         4762    i._fp_digits        mc_w.l(printfa.o)
    0x0800450c   0x0800450c   0x000006b4   Code   RO         4763    i._printf_core      mc_w.l(printfa.o)
    0x08004bc0   0x08004bc0   0x00000024   Code   RO         4764    i._printf_post_padding  mc_w.l(printfa.o)
    0x08004be4   0x08004be4   0x0000002e   Code   RO         4765    i._printf_pre_padding  mc_w.l(printfa.o)
    0x08004c12   0x08004c12   0x0000000a   Code   RO         4767    i._sputc            mc_w.l(printfa.o)
    0x08004c1c   0x08004c1c   0x00000018   Code   RO          461    i.fputc             interrupt.o
    0x08004c34   0x08004c34   0x00000078   Code   RO            6    i.main              main.o
    0x08004cac   0x08004cac   0x000011d0   Data   RO          623    .constdata          lcd.o
    0x08005e7c   0x08005e7c   0x00000018   Data   RO         4011    .constdata          stm32g4xx_hal_uart.o
    0x08005e94   0x08005e94   0x00000010   Data   RO         4377    .constdata          stm32g4xx_hal_uart_ex.o
    0x08005ea4   0x08005ea4   0x00000010   Data   RO         4482    .constdata          system_stm32g4xx.o
    0x08005eb4   0x08005eb4   0x00000008   Data   RO         4483    .constdata          system_stm32g4xx.o
    0x08005ebc   0x08005ebc   0x00000020   Data   RO         4829    Region$$Table       anon$$obj.o


    Execution Region RW_IRAM1 (Exec base: 0x20000000, Load base: 0x08005edc, Size: 0x000005b8, Max: 0x00008000, ABSOLUTE)

    Exec Addr    Load Addr    Size         Type   Attr      Idx    E Section Name        Object

    0x20000000   0x08005edc   0x00000010   Data   RW          463    .data               interrupt.o
    0x20000010   0x08005eec   0x00000014   Data   RW          509    .data               task.o
    0x20000024   0x08005f00   0x00000006   Data   RW          624    .data               lcd.o
    0x2000002a   0x08005f06   0x00000002   Data   RW          799    .data               led.o
    0x2000002c   0x08005f08   0x0000000c   Data   RW         1342    .data               stm32g4xx_hal.o
    0x20000038   0x08005f14   0x00000004   Data   RW         4484    .data               system_stm32g4xx.o
    0x2000003c   0x08005f18   0x00000004   Data   RW         4807    .data               mc_w.l(stdout.o)
    0x20000040        -       0x0000006c   Zero   RW          225    .bss                adc.o
    0x200000ac        -       0x0000004c   Zero   RW          267    .bss                tim.o
    0x200000f8        -       0x00000094   Zero   RW          309    .bss                usart.o
    0x2000018c        -       0x0000000a   Zero   RW          462    .bss                interrupt.o
    0x20000196        -       0x0000001e   Zero   RW          508    .bss                task.o
    0x200001b4   0x08005f1c   0x00000004   PAD
    0x200001b8        -       0x00000400   Zero   RW          847    STACK               startup_stm32g431xx.o


==============================================================================

Image component sizes


      Code (inc. data)   RO Data    RW Data    ZI Data      Debug   Object Name

       244         28          0          0        108       2013   adc.o
       288         18          0          0          0       1183   gpio.o
       244         40          0         16         10       2696   interrupt.o
        64          4          0          0          0        603   key.o
      1782         76       4560          6          0      12810   lcd.o
        96         12          0          2          0        686   led.o
       230         22          0          0          0     667169   main.o
        18          0          0          0          0        942   myadc.o
        36          8        472          0       1024        844   startup_stm32g431xx.o
       162         24          0         12          0       4745   stm32g4xx_hal.o
      2056        120          0          0          0      77007   stm32g4xx_hal_adc.o
       198         14          0          0          0      34199   stm32g4xx_hal_cortex.o
       226          0          0          0          0       2119   stm32g4xx_hal_dma.o
       604         34          0          0          0       3243   stm32g4xx_hal_gpio.o
        48          6          0          0          0        982   stm32g4xx_hal_msp.o
       204         18          0          0          0       1525   stm32g4xx_hal_pwr_ex.o
      1684         88          0          0          0       6628   stm32g4xx_hal_rcc.o
       648         10          0          0          0       1996   stm32g4xx_hal_rcc_ex.o
       832         54          0          0          0       7689   stm32g4xx_hal_tim.o
       170         24          0          0          0       5968   stm32g4xx_hal_tim_ex.o
      3894        140         24          0          0      38334   stm32g4xx_hal_uart.o
       288          6         16          0          0       5850   stm32g4xx_hal_uart_ex.o
        44         12          0          0          0       5764   stm32g4xx_it.o
        16          4         24          4          0       1307   system_stm32g4xx.o
       784        214          0         20         30       4844   task.o
       132         18          0          0         76       1854   tim.o
       244         18          0          0        148       2034   usart.o

    ----------------------------------------------------------------------
     15260       1012       5128         60       1400     895034   Object Totals
         0          0         32          0          0          0   (incl. Generated)
        24          0          0          0          4          0   (incl. Padding)

    ----------------------------------------------------------------------

      Code (inc. data)   RO Data    RW Data    ZI Data      Debug   Library Member Name

         0          0          0          0          0          0   entry.o
         0          0          0          0          0          0   entry10a.o
         0          0          0          0          0          0   entry11a.o
         4          0          0          0          0          0   entry12b.o
         8          4          0          0          0          0   entry2.o
         4          0          0          0          0          0   entry5.o
         0          0          0          0          0          0   entry7b.o
         0          0          0          0          0          0   entry8b.o
         8          4          0          0          0          0   entry9a.o
        30          0          0          0          0          0   handlers.o
        36          8          0          0          0         68   init.o
         0          0          0          0          0          0   iusefp.o
        30          0          0          0          0         68   llshl.o
        36          0          0          0          0         68   llsshr.o
        32          0          0          0          0         68   llushr.o
        36          0          0          0          0        108   memseta.o
      2268         96          0          0          0        616   printfa.o
         0          0          0          4          0          0   stdout.o
        44          0          0          0          0         80   uidiv.o
        98          0          0          0          0         92   uldiv.o
        48          0          0          0          0         68   cdrcmple.o
        56          0          0          0          0         88   d2f.o
       334          0          0          0          0        148   dadd.o
       222          0          0          0          0        100   ddiv.o
       186          0          0          0          0        176   depilogue.o
        48          0          0          0          0         68   dfixul.o
        26          0          0          0          0         76   dfltui.o
       228          0          0          0          0         96   dmul.o
       110          0          0          0          0        168   fepilogue.o

    ----------------------------------------------------------------------
      3896        112          0          4          0       2156   Library Totals
         4          0          0          0          0          0   (incl. Padding)

    ----------------------------------------------------------------------

      Code (inc. data)   RO Data    RW Data    ZI Data      Debug   Library Name

      2634        112          0          4          0       1168   mc_w.l
      1258          0          0          0          0        988   mf_w.l

    ----------------------------------------------------------------------
      3896        112          0          4          0       2156   Library Totals

    ----------------------------------------------------------------------

==============================================================================


      Code (inc. data)   RO Data    RW Data    ZI Data      Debug   

     19156       1124       5128         64       1400     884402   Grand Totals
     19156       1124       5128         64       1400     884402   ELF Image Totals
     19156       1124       5128         64          0          0   ROM Totals

==============================================================================

    Total RO  Size (Code + RO Data)                24284 (  23.71kB)
    Total RW  Size (RW Data + ZI Data)              1464 (   1.43kB)
    Total ROM Size (Code + RO Data + RW Data)      24348 (  23.78kB)

==============================================================================

