:020000040800F2
:10000000C0050020F10100086B2E0008B325000890
:10001000692E00086F0900089D42000800000000DA
:10002000000000000000000000000000ED310008AA
:100030007109000800000000852E000889320008C0
:100040000B0200080B0200080B0200080B0200085C
:100050000B0200080B0200080B0200080B0200084C
:100060000B0200080B0200080B0200080B0200083C
:100070000B0200080B0200080B0200080B0200082C
:100080000B020008000000000B0200080B02000831
:100090000B0200080B0200080B0200080B0200080C
:1000A0000B0200080B0200080B0200080B020008FC
:1000B0000B0200080B0200080B0200080B020008EC
:1000C0000B0200080B0200080B0200080B020008DC
:1000D0000B020008914200080B0200080B02000806
:1000E0000B0200080B0200080B0200080B020008BC
:1000F0000B0200080B0200080B02000800000000C1
:10010000000000000B020008000000000B020008C5
:100110000B02000800000000093300080B02000871
:100120000B0200080B0200080B0200080B0200087B
:100130000B02000800000000000000000B02000895
:100140000B0200080B020008000000000000000085
:10015000000000000000000000000000000000009F
:100160000000000000000000000000000B0200087A
:100170000B0200080000000000000000000000006A
:10018000000000000B02000800000000000000005A
:10019000000000000000000000000000000000005F
:1001A00000000000000000000B0200080B02000825
:1001B0000B0200080B0200080B0200080000000000
:1001C000000000000B02000800000000000000001A
:1001D0000B0200080B020008DFF810D000F0B2F9A3
:1001E00000480047D5440008AFF30080C005002058
:1001F0000648804706480047FEE7FEE7FEE7FEE7C1
:10020000FEE7FEE7FEE7FEE7FEE7FEE7F93200085D
:10021000D90100082DE9F05F0546002092469B4673
:1002200088460646814640241BE02846414647460C
:10023000224600F00BF953465A46C01A914110D39A
:1002400011461846224600F0F2F82D1A67EB010815
:100250004F4622460120002100F0E9F817EB000983
:100260004E41201EA4F10104DFDC484631462A46F7
:100270004346BDE8F09FD2B201E000F8012B491ED1
:10028000FBD270470022F6E710B513460A46044633
:100290001946FFF7F0FF204610BD30B505462A4647
:1002A0000B4612F8010B13F8014B08B1A042F8D02D
:1002B0001CB1002802D06D1CF1E7284630BD034672
:1002C00011F8012B00F8012B002AF9D118467047CC
:1002D0000FB400B58DB010A909900B9000914FF0AC
:1002E000FF300A9000200C900548069005480790C2
:1002F0006A4609A80F9900F0BFF80DB05DF814FB2D
:1003000095040008B30400082DE9FF5FD2E901A7B6
:100310004FF00008916999461446DDF838B046461A
:1003200001988847054659EA0B0005D009E0A16904
:10033000761C019888470546216A28468847002888
:10034000F5D1681C03D05FEACA7005D015E04FF004
:10035000FF3004B0BDE8F09F2068011D2160D0F897
:1003600000800AE05FEACA7001D108F8015BA16968
:10037000761C7F1E019888470546002F1ADD681CF1
:1003800018D0B9F1000F0DD0E81705EBD06042117D
:1003900020F01F0059F822102A1A01209040014233
:1003A000E0D107E0BBF1000FDCD1216A2846884785
:1003B0000028D7D0E16901988847BBF1000F07D129
:1003C000002E05DD5FEACA7002D1002188F8001016
:1003D000A068B84203DDBBF1000F03D017B16FF086
:1003E0000100B6E73046B4E770B5064603F07CFF7F
:1003F000046805460A220021304600F06BF82C60A4
:1004000070BD30B50B46014600202022012409E0D2
:1004100021FA02F59D4205D303FA02F5491B04FABD
:1004200002F52844151EA2F10102F1DC30BD202A9C
:1004300004DB203A00FA02F1002070479140C2F13B
:10044000200320FA03F3194390407047202A04DB6D
:10045000203A21FA02F00021704721FA02F3D0403D
:10046000C2F12002914008431946704702681144C6
:100470001378016018467047D160044951610449FE
:10048000116200211161114600F07CB86D04000872
:1004900071050008426842B1016811F8013B23B1BF
:1004A000521EC0E90012184670470121C160881E23
:1004B000704742685AB1C368016843B983688B4288
:1004C00005D0491E521CC0E90012002070474FF0B1
:1004D000FF3070472DE9F04791460F4680460446AD
:1004E000002614F8015B2DB100F03EF80068405D75
:1004F000C007F6D12B2D02D02D2D18D0641E4A46F0
:100500003946204600F0D6F927B13968A14201D119
:10051000C7F8008071054FF002040BD54042002857
:1005200003DD03F0E1FE0460A007BDE8F08746F4B8
:100530008066E4E70028F8DA03F0D6FE04606FF086
:100540000040F2E7064C074D06E0E06840F001038A
:1005500094E8070098471034AC42F6D3FFF740FE0A
:10056000DC570008FC57000800487047D8570008BF
:1005700010B50446FFF7F8FF0068005D00F00100C9
:1005800010BD00002DE9F34F8BB04FF0000801F1D2
:100590000C000C464FF0010B46460DF1080A019085
:1005A0006269012101989047051E2DD0252D2CD080
:1005B000216A8847C0B16269012101989047216A88
:1005C00088470028F7D1411E62690198904700E0F2
:1005D000761CA1690B988847216A88470028F7D1C3
:1005E000E1690B988847DBE7A1690B9888470746C4
:1005F000A84201D1761CD3E7E1690B9888477F1C9C
:1006000002D1B8F1000F6FD047E1002762693D4683
:100610003946019890472A2804D16269012101983E
:1006200090470125DFF8889262690121019890477F
:10063000A0F130010A290AD24F45E5DC07EB87011A
:1006400000EB4107303FDFD445F01005ECE7E90649
:1006500001D46FF000476C280AD04C2814D06828C9
:1006600015D06A280DD074281CD07A281AD01DE025
:1006700062690121019890476C2802D045F0040579
:1006800014E045F002050DE045F020050AE062693E
:10069000012101989047682802D045F0080505E03F
:1006A00045F400656269012101989047C4E901574A
:1006B00065283DD019DC58287AD00CDC452837D085
:1006C00004DC252826D0412831D131E046282FD01E
:1006D00047282CD12CE05B2877D0612828D06328CC
:1006E0007CD0642823D15AE0D1E06F2848D008DCC0
:1006F00066281DD067281BD0692821D06E2816D106
:1007000027E0702845D0732868D0752847D078280E
:100710000DD14DE0A1690B988847054625283FF487
:1007200069AFE1690B9888476D1C3FF46AAFB4E08C
:1007300023466A466FF001000B99AFF300809FE0FB
:1007400045F040006060A80723464FF0000236D411
:100750003EE0E8077FF447AF2068011D2160006894
:10076000290501D506701BE7290701D5068017E783
:10077000A90703D5F117C0E9006111E706600FE78B
:1007800045F040006060A80723464FF0080216D4E9
:100790001EE040F60E0125EA0100606016E045F01B
:1007A00040006060A80723464FF00A0207D40FE01C
:1007B00045F040006060A80708D5234610226FF07E
:1007C00001000B99AFF300805AE007E023461022A6
:1007D0006FF001000B99AFF3008051E04FF000097A
:1007E0004F464B46632802D05B2807D041E0207972
:1007F000C00601D40120A06001273AE0626901210E
:10080000019890475E2805D14FF001096269494679
:1008100001989047216939B900210A46534643F8A7
:100820002120491C0829FADBB0B3216969B9C11735
:1008300000EBD16253110AEB830122F01F02821AEE
:1008400001200B68904003430B606269012101980D
:1008500090475D28E8D1B9F1000F09D0002051463A
:1008600051F82020D24341F82020401C0828F7DB13
:1008700002AB224600976FF001000B99FFF744FD91
:1008800000280CDA401C08D1BBF1000F05D04FF056
:10089000FF300DB0BDE8F08FFFE74046F9E7E9070C
:1008A00001D108F1010806444FF0000B78E6000082
:1008B000CCCCCC0C2DE9F05F8246007800271546A1
:1008C0008B460AF10104B946302801D09DB113E0EE
:1008D00014F8010B0127782803D0582801D045B11E
:1008E0000AE00DB1102D07D10027102514F8010BD7
:1008F00002E0082500E00A250026B0460EE005FBD0
:10090000080005FB06F1012701EB10461FFA80F8ED
:10091000B6F5803F00D3B94614F8010B294600F024
:1009200018F80028EBDABBF1000F05D00FB1641EF8
:1009300000E05446CBF80040B9F1000F06D003F0B8
:10094000D3FC02210160C81EBDE8F09F48EA0640C2
:10095000FAE73A2800D2303820F02002412A01D3A9
:10096000A2F13700884201D34FF0FF307047FEE715
:100970007047002240F6B83306E00021491C89B2D6
:100980009942FBD3521C92B28242F6D3704772B6A0
:10099000FEE710B590F8253000210122022B03D08C
:1009A0000421C163012122E003681C6824F00E04C5
:1009B0001C60836C1C6824F480741C6003681C68D1
:1009C00024F001041C6090F84430046C03F01F0311
:1009D00002FA03F36360D0E913345C60436D33B112
:1009E0001C6824F480741C60D0E916345C6080F8C4
:1009F0002520002280F82420084610BD70B590F80C
:100A00002520002401212346022A07D00422C263A4
:100A100080F8251080F82430012429E00268156848
:100A200025F00E0515600268156825F001051560B2
:100A3000826C156825F48075156090F84420056C6B
:100A400002F01F0201FA02F26A60D0E91325556034
:100A5000426D32B1156825F480751560D0E9162510
:100A6000556080F8251080F82430816B01B18847EB
:100A7000204670BD70B5044600F03CF90546601C88
:100A800002D004484068044400F034F9401BA042FE
:100A9000FAD370BD400000202DE9F04FDFF820921E
:100AA000002301260324A9F1040B85B00F2709F1C7
:100AB000040AABF1040EFAE006FA03F52A407CD0F2
:100AC00091F804C00CF0030CBCF1010F02D0BCF192
:100AD000020F26D1D0F808C0CDF800C04FEA430C71
:100AE00004FA0CF8CDF810C0DDF800C02CEA080CB0
:100AF000CDF800C0D1F80C80DDF810C008FA0CF871
:100B0000DDF800C048EA0C08C0F80880D0F804C03E
:100B10002CEA050C0D79C5F300159D4045EA0C053E
:100B200045600D79ED43AD070ED0C5684FEA430827
:100B300004FA08FC25EA0C05D1F808C00CFA08FCF8
:100B40004CEA050CC0F80CC00D7905F00305022D28
:100B500016D1DD0800EB850CCDF808C0DCF820804C
:100B60005D074FEAD56C07FA0CF528EA05080D6910
:100B700005FA0CF5DDF808C045EA0805CCF8205068
:100B800005684FEA430CCDF808C004FA0CFC25EACE
:100B90000C0591F804C00CF00308DDF808C008FA51
:100BA0000CF848EA0508C0F800804D6815F4403F8D
:100BB0007CD0444DD5F860C000E077E04CF0010CEB
:100BC000C5F860C02D6E23F0030C05F001050095FB
:100BD0003D4D65440295AD684FEA837C4FEA1C7831
:100BE00007FA08FC25EA0C05B0F1904F06D0DFF8B3
:100BF000DCC0604505D14FF0010C20E04FF0000C47
:100C00001DE0DFF8CCC0604502D14FF0020C16E0C9
:100C1000DFF8C0C0604502D14FF0030C0FE0DFF8F1
:100C2000B8C0604502D14FF0040C08E0DFF8ACC05A
:100C3000604502D14FF0050C01E04FF0060C0CFAB4
:100C400008FC4CEA050C029DC5F808C0D9F8005014
:100C5000CC46D1F8048095435FEAC82800D51543F7
:100C6000CCF80050DAF80050D446D1F8048095430F
:100C70005FEA882800D51543CCF80050DBF8005017
:100C8000DC46D1F8048095435FEA883800D51543E7
:100C9000CCF80050DEF80050F446D1F804809543BB
:100CA0005FEAC83800D51543CCF800505B1C0A68D1
:100CB00032FA03F57FF400AF05B0BDE8F08F000015
:100CC00008040140001002400000014000040048F8
:100CD00000080048000C00480010004800140048BC
:100CE0000069084000D0012070470AB18161704757
:100CF0008162704701488068704700004000002012
:100D000002488168426811448160704740000020B9
:100D100010B50024032000F073F80F2000F008F84D
:100D200008B1012401E000F025F8204610BD0000C4
:100D300070B50E4E05460024706898B14FF47A7174
:100D4000B1FBF0F00A490968B1FBF0F000F060FD7A
:100D500040B9102D06D200222946501E00F030F86E
:100D6000356000E00124204670BD000040000020F6
:100D70004C0000200A4882B0016E41F0010101667A
:100D8000016E01F001010091816D41F0805181659A
:100D9000806D00F08050009002B000F0A1B800001B
:100DA00000100240002809DB00F01F0201219140E1
:100DB0004009800000F1E020C0F8001170470000F9
:100DC000F0B40E4B1B680C46C3F30223C3F10705B6
:100DD000042D00D90425191D072901D2002300E0A4
:100DE000DB1E012606FA05F1491E214099409E406E
:100DF000761E16403143F0BC03F066BA0CED00E0FD
:100E0000064900F0070208684FF6FF03184040EA61
:100E10000220034A10430860704700000CED00E018
:100E20000000FA052B492C4B0A6832214A432B4912
:100E300040B1B0F5007F086829D020F4C06040F4CC
:100E400080602CE00868C0F34120022804D051F8EB
:100E5000800F20F4807022E0D1F8800020F48070B0
:100E6000C1F88000086820F4C06040F40070086099
:100E7000B2FBF3F0401C00E0401E4A69520501D568
:100E80000028F9D1486940050AD503207047C0F30E
:100E90004120022806D051F8800F40F4807008608D
:100EA00000207047D1F8800040F48070C1F88000C5
:100EB000086820F4C06040F400700860B2FBF3F0F2
:100EC000401C00E0401E4A695205DBD50028F9D1DC
:100ED000D8E700004C00002040420F0000700040A6
:100EE0000248816841F48041816070470070004091
:100EF0002DE9F8430446006800269D4D00035ED5A9
:100F0000A86D0027C00008D4A86D40F08050A865E7
:100F1000A86D012700F080500090DFF85892D9F8B2
:100F2000001041F48071C9F80010FFF7E3FE80461D
:100F300006E000BFFFF7DEFEA0EB080002282BD87A
:100F4000D9F80000C005F5D5D5F8900010F4407030
:100F500014D0216C814211D0D5F89000D5F89010B2
:100F600020F4407041F48031C5F89010D5F890100D
:100F700021F48031C5F89010C5F89000C00711D059
:100F8000FFF7B8FE804641F2883907E0FFF7B2FE6E
:100F9000A0EB0801494501D903260BE0D5F89000E4
:100FA0008007F3D5D5F89000216C20F440700843F9
:100FB000C5F890001FB1A86D20F08050A86520787A
:100FC000C00707D0D5F88800616820F00300084307
:100FD000C5F888002078800707D5D5F88800A16873
:100FE00020F00C000843C5F888002078400707D59A
:100FF000D5F88800E16820F030000843C5F8880083
:101000002078000707D5D5F88800216920F0C000B6
:101010000843C5F888002078800607D5D5F88800F1
:10102000616920F440600843C5F8880020784006D4
:1010300007D5D5F88800A16920F440500843C5F8C9
:1010400088002078000607D5D5F88800E16920F4EB
:1010500040400843C5F888002088C00507D5D5F86A
:101060008800216A20F440300843C5F888002088B1
:10107000800507D5D5F88800616A20F44020084330
:10108000C5F88800208840050FD5D5F88800A16AEA
:1010900020F440100843C5F88800A06AB0F5801F0E
:1010A00003D1E86840F48010E860208800050FD57F
:1010B000D5F88800E16A20F440000843C5F88800AC
:1010C000E06AB0F5800F03D1E86840F48010E86072
:1010D0002088C0040FD5D5F88800216B20F040701F
:1010E0000843C5F88800206BB0F1807F03D1E86821
:1010F00040F48010E86020884FF0006180040ED535
:10110000D5F88800626B20F040601043C5F8880075
:10111000606B884203D1E86840F48010E860208862
:1011200040040ED5D5F88800A26B20F04060104333
:10113000C5F88800A06B884203D1E86840F48010AD
:10114000E860208800040FD5D5F88800E16B20F016
:1011500040500843C5F88800E06BB0F1805F03D1D0
:10116000E86840F48030E8603046BDE8F88300006D
:1011700000100240007000402DE9F0470E460500C7
:101180004FF0000725D0DFF8AC81D8F8000000F060
:101190000F00B0420CD2D8F8001021F00F013143FB
:1011A000C8F80010D8F8000000F00F00B04210D1CD
:1011B0002968614CC80741F2883A5AD06868DFF85C
:1011C0007C91032808D0022820682DD040050028F3
:1011D0002CDB0120BDE8F08720688001F9D5E068AC
:1011E00000F00302E068C0F30310401C032A19D08A
:1011F000534A00BFB2FBF0F0E268C2F3062250434C
:10120000E268C2F34162521C5200B0FBF2F0484562
:1012100017D9A06810F0F00F0CD0880711D5A86876
:1012200040B10EE0474AE5E78003D0E700F0B6F8AA
:10123000484506D9A06820F0F00040F08000A0608A
:101240008027A068696820F003000843A060FFF7CA
:1012500051FD814606E000BFFFF74CFDA0EB090100
:1012600051453AD8A068696800F00C00B0EB810FD6
:10127000F2D12868810714D5400703D5A06840F44F
:10128000E060A0602878000705D5A06820F46050D1
:1012900040F4E060A060A068A96820F0F000084376
:1012A00004E0802F03D1A06820F0F000A060D8F8FF
:1012B0000010404601F00F01B14216D9016821F03B
:1012C0000F0131430160FFF715FD074607E000BF3E
:1012D000FFF710FDC11B514501D903207AE7D8F86B
:1012E000000000F00F00B042F2D12878400705D589
:1012F000A068E96820F4E0600843A060287800074F
:1013000006D5A068296920F4605040EAC100A060B9
:1013100000F044F8A1680C4AC1F30311515C01F0DC
:101320001F01C8400949086009480068BDE8F04746
:10133000FFF7FEBC002002400010024000B4C404CD
:101340000024F40000366E013C5700084C000020D9
:10135000400000200548064900688968054AC1F335
:101360000221515C01F01F01C84070474C00002071
:10137000001002404C57000805480649006889687B
:10138000054AC1F3C221515C01F01F01C8407047FA
:101390004C000020001002404C570008184910B5BE
:1013A0008868C0F381021748012A0BD08A68164B5F
:1013B000C2F38102022A06D08A68C2F38102032A9C
:1013C00003D0002010BD184610BDCA6802F0030407
:1013D000CA68C2F30312521C032C02D0B0FBF2F015
:1013E00001E0B3FBF2F0CA68C968C2F306225043B9
:1013F000C1F34161491C4900B0FBF1F010BD000090
:10140000001002400024F40000366E012DE9F8437C
:1014100004007AD02078F84DC00747D0A868E96862
:1014200000F00C0001F003010C2802D0082817D0AE
:1014300001E0032914D06068B0F5803F17D0B0F503
:10144000A02F286817D020F480302860286820F466
:10145000802028606068E0B1FFF74CFC064614E08D
:101460002868800322D560680028D2D01EE0286852
:1014700040F48030EDE740F480202860F7E700BFBB
:10148000FFF738FC801B642870D828688003F7D5E4
:101490000CE0FFF72FFC064605E000BFFFF72AFC33
:1014A000801B6428F0D828688003F7D42078800750
:1014B0004CD5A868E96800F00C0001F003010C2885
:1014C00002D004280DD001E002290AD0E0680028EB
:1014D00028682BD040F480702860FFF70BFC06468C
:1014E00019E02868400502D5E068002891D06868B6
:1014F000217C20F0FE4040EA01606860BF4800683F
:10150000FFF716FC002800D120E072E1FFF7F2FBA4
:10151000801B0228B8D828684005F7D56868217C68
:1015200020F0FE4040EA016068600FE020F4807027
:101530002860FFF7DFFB064605E000BFFFF7DAFB98
:10154000801B0228A0D828684005F7D4207800071F
:1015500029D560690028D5F8940013D040F0010027
:10156000C5F89400FFF7C6FB064606E090E000BF12
:10157000FFF7C0FB801B022886D8D5F894008007AF
:10158000F6D510E020F00100C5F89400FFF7B2FB9B
:10159000064604E0FFF7AEFB801B022878D8D5F89A
:1015A00094008007F6D42078400761D5A86D002606
:1015B000C00008D4A86D40F08050A865A86D012631
:1015C00000F0805000908E480168C90511D4016870
:1015D000804641F480710160FFF78CFB074604E010
:1015E000FFF788FBC01B022852D8D8F80000C005BE
:1015F000F6D5A068012815D00528D5F8900016D09A
:1016000020F00100C5F89000D5F8900020F004000B
:10161000C5F89000A06841F28838B8B1FFF76AFBBE
:1016200007460EE0D5F8900040F00100F0E740F0EA
:101630000400C5F89000F5E7FFF75CFBC11B4145CE
:1016400026D8D5F890008007F6D50CE0FFF752FBBE
:10165000074604E0FFF74EFBC11B414518D8D5F8FB
:1016600090008007F6D41EB1A86D20F08050A865C8
:101670002078800629D5A0690028D5F8980013D0D5
:1016800040F00100C5F89800FFF734FB064606E07D
:1016900075E000BFFFF72EFB801B02286FD8D5F83E
:1016A00098008007F6D510E020F00100C5F89800FA
:1016B000FFF720FB064604E0FFF71CFB801B022817
:1016C0005DD8D5F898008007F6D4E069F0B3A96832
:1016D000C1F3810103295DD00228286820F08070C1
:1016E000286003D0FFF706FB04464BE0FFF702FB40
:1016F000064604E0FFF7FEFA801B02283FD8286860
:101700008001F7D4F4E908016FF00F0202EB011138
:101710000843218A5204490802EB4151A26841EA78
:1017200002210843217D4FF07E42490802EB4161CE
:101730000843217B40EAC160E968324A114008430E
:10174000E860286840F08070286000E05EE0E868AB
:1017500040F08070E860FFF7CDFA044605E000BF76
:10176000FFF7C8FA001B022809D828688001F7D5BE
:101770004CE000BFFFF7BEFA001B022802D903208D
:10178000BDE8F88328688001F4D4E8681E49084061
:10179000E8603BE00128F3D0E868226A00F003012A
:1017A000914226D1616A00F0F0020901103991429C
:1017B0001FD1A26A00F4FE41B1EB022F19D194F8B7
:1017C0002C2000F07841B1EBC26F12D1218E00F4D1
:1017D000C00249084905A1F50011914209D194F8C8
:1017E000341000F0C06049084906A1F1007181423F
:1017F0000CD00120C4E7000000100240400000208F
:10180000007000400C809F01FCFFEEFE0020B7E757
:1018100010B5401EB0F1807F01D3012010BD4FF004
:10182000E02460610F21601702F04EFD0020A061EE
:1018300007202061002010BD704770477047704737
:1018400070477047F0B590F83C20012A3AD0012546
:1018500080F83C50022280F83D2003685A689C685A
:10186000194E1A4FB34201D0BB4204D122F4700C7E
:101870004A6842EA0C02DFF858C002EA0C02D1F8CA
:1018800000C04CEA020CC3F804C00268B2420DD09A
:10189000B2F1804F0AD00F4B9A4207D00E4B9A42BA
:1018A00004D0BA4202D00D4B9A4204D1896824F088
:1018B00080031943916080F83D50002180F83C106E
:1018C0000846F0BD0220F0BD002C0140003401406C
:1018D0008FFFFFFD00040040000800400040014071
:1018E000704710B5040003D094F83D0010B107E034
:1018F000012010BD002084F83C00204600F022F8B2
:10190000022084F83D00211D206801F003FD012024
:1019100084F8480084F83E0084F83F0084F84000D2
:1019200084F8410084F8420084F8430084F84400BD
:1019300084F8450084F8460084F8470084F83D00A8
:10194000002010BD08B501681048B1F1804F14D0D7
:101950000F4A914219D1816D41F010018165806D6E
:10196000002200F01000009011463620FFF728FA00
:10197000BDE808403620FFF715BA816D41F001013E
:101980008165806D00F00100009008BD00100240EC
:101990000010004090F83D10012901D0012070474F
:1019A000022180F83D100168CA6842F00102CA6055
:1019B0000068104988420ED0B0F1804F0BD00E491C
:1019C000884208D00D49884205D00D49884202D08E
:1019D0000C49884207D181680B4A1140062906D07C
:1019E000B1F5803F03D0016841F0010101600020A2
:1019F00070470000002C0140000400400008004037
:101A000000340140004001400700010070B5044669
:101A100090F83C000025012814D0012684F83C6091
:101A2000022084F83D0022689068364B184020F46C
:101A30007F409060086870282ED010DC10F00F0FE7
:101A400003D021E04FF0020070BD4FEA2012072AB8
:101A50001AD2DFE802F0525252524A3840002A4B62
:101A6000C21A984249D009DCB0F5805F0DD0B0F5BC
:101A7000005F1CD0B0F1101F06D13EE0102A3CD010
:101A8000202A3AD0502A38D0012584F83D60002021
:101A900084F83C00284670BDCB68D1E9012120685C
:101AA00001F0A3FC2068816841F0770109E0CB6870
:101AB000D1E90121206801F098FC2068816841F497
:101AC00080418160E1E7CA684968206801F038FE1A
:101AD0005021206806E0CA684968206801F041FE8C
:101AE0006021206801F08CFCCFE7CA684968206853
:101AF00001F026FE40212068F4E7226801461046E6
:101B0000F0E7000088FFCEFF2000100070472DE9AD
:101B1000F04104460068C66805694FF00007A90750
:101B200013D5B10711D5F91E016101202077206876
:101B300080698007204602D0FFF7E8FF04E000F04C
:101B4000DDF8204600F09FF92777680716D5700763
:101B500014D521686FF00400086102202077206806
:101B6000806910F4407F204602D0FFF7CFFF04E0E9
:101B700000F0C4F8204600F086F92777280715D52D
:101B8000300713D521686FF0080008610420207722
:101B90002068C0698007204602D0FFF7B7FF04E045
:101BA00000F0ACF8204600F06EF92777E80616D56D
:101BB000F00614D521686FF0100008610820207726
:101BC0002068C06910F4407F204602D0FFF79EFFD6
:101BD00004E000F093F8204600F055F92777E80775
:101BE00008D0F00706D021686FF001000861204698
:101BF00000F0C8F9280601D4A80408D5300606D597
:101C000021686FF4025008612046FFF716FEE805D0
:101C100008D5300606D521686FF48070086120462B
:101C2000FFF70AFE680608D5700606D521686FF032
:101C300040000861204600F007FAA80608D5B00663
:101C400006D521686FF0200008612046FFF7F6FDF9
:101C5000E80208D5F00206D521686FF4801008610B
:101C60002046FFF7EDFDA80208D5B00206D5216891
:101C70006FF4001008612046FFF7E1FD680208D507
:101C8000700206D521686FF4800008612046FFF7D6
:101C9000D8FD28020AD5300208D521686FF400006B
:101CA00008612046BDE8F041FFF71ABEBDE8F081AB
:101CB00010B586B0044614216846FEF7E3FA2068A2
:101CC000B0F1804F15D10C48C16C41F00101C164E5
:101CD000C06C694600F00100059002200090019060
:101CE000002002900390012004904FF09040FEF7F6
:101CF000D3FE06B010BD000000100240704770B562
:101D0000044690F83C0000260D4601280BD0012027
:101D100084F83C000C2A4AD007DC82B1042A20D087
:101D2000082A06D131E0022070BD102A53D0142AAF
:101D300063D00126002084F83C00304670BD206846
:101D400001F068FB2068816941F008018161206829
:101D5000816921F004018161206881692A69114348
:101D600011E0206801F0A4FB2068816941F4006162
:101D700081612068816921F48061816120688169C5
:101D80002A6941EA02218161D4E7206801F0D8FB89
:101D90002068C16941F00801C1612068C16921F072
:101DA0000401C1612068C1692A69114311E02068FA
:101DB00001F00EFC2068C16941F40061C161206836
:101DC000C16921F48061C1612068C1692A6941EA61
:101DD0000221C161AEE7206801F042FC2068016D7C
:101DE00041F0080101652068016D21F004010165E1
:101DF0002068016D2A69114311E0206801F068FC38
:101E00002068016D41F4006101652068016D21F4D5
:101E1000806101652068016D2A6941EA022101653E
:101E200088E710B5040003D094F83D0010B107E036
:101E3000012010BD002084F83C00204600F022F86C
:101E4000022084F83D00211D206801F063FA012082
:101E500084F8480084F83E0084F83F0084F840008D
:101E600084F8410084F8420084F8430084F8440078
:101E700084F8450084F8460084F8470084F83D0063
:101E8000002010BD7047704730B50446022269B18A
:101E9000042912D0082917D00C291CD0102921D0D0
:101EA00094F84300012824D0012030BD94F83E006E
:101EB0000128F9D184F83E201DE094F83F00012864
:101EC000F2D184F83F2016E094F840000128EBD1CD
:101ED00084F840200FE094F841000128E4D184F810
:101EE000412008E094F842000128DDD184F8422026
:101EF00001E084F843200122206801F069FA194BBF
:101F000020681949194A984209D0884207D090425E
:101F100005D0174DA84202D0164DA84203D1456CFA
:101F200045F400454564206898420CD0B0F1804FDC
:101F300009D0114B984206D0104B984203D08842EA
:101F400001D0904207D181680D4A1140062906D080
:101F5000B1F5803F03D0016841F00101016000202C
:101F600030BD0000002C0140003401400040014021
:101F700000440140004801400004004000080040C7
:101F80000700010070B52C49884254D12B4C002524
:101F9000E088401C80B2E080B0F57A7F00D1E58017
:101FA000E0880921B0FBF1F201FB120109B901211E
:101FB00021703121B0FBF1F201FB120109B90221BC
:101FC00021704F21B0FBF1F201FB120109B903218D
:101FD00021706421B0FBF1F201FB120189B9E178B3
:101FE00081F00101E17016490978032909D32179AB
:101FF000322906D2491CC9B22171322901D33321B9
:1020000021710E4900F007001031095C00F0ACFDB1
:102010000C48017800290ED02189491C89B2A1F50C
:1020200098522181883A06D125810570BDE870401B
:10203000002000F065BB70BDA00000202000002043
:102040000500002004000020704790F8841001294A
:1020500018D0012180F884102421C0F8881001686C
:102060000A680B6823F001030B6022F00051002284
:102070004266036819602021C0F8881080F8842027
:1020800010467047022070477047704770B504468D
:1020900090F8840001281DD0012084F884002420B9
:1020A000C4F8880020680568026822F00102026016
:1020B0002068826822F060620A438260204601F054
:1020C00063FB206805602020C4F88800002084F8A5
:1020D000840070BD022070BD70B5044690F8840085
:1020E00001281DD0012084F884002420C4F8880031
:1020F00020680568026822F0010202602068826898
:1021000022F060420A438260204601F03DFB2068D5
:1021100005602020C4F88800002084F8840070BD89
:10212000022070BD70477047704700002DE9F041F4
:1021300003680446D86919689A6840F60F05284272
:102140004FF000054FF002060AD187067ED501F058
:10215000200702F0805C57EA0C0777D0616F3AE104
:10216000B24FDFF8CCC2174001EA0C0C57EA0C0C56
:102170006CD05FEAC07C0CD05FEAC15C09D54FF03F
:10218000010CC3F820C0D4F8903043F00103C4F828
:102190009030830709D5D30707D023681E62D4F88F
:1021A000903043F00403C4F8903043070AD5D307B6
:1021B00008D0266804233362D4F8903043F0020339
:1021C000C4F8903003070CD501F020033B4308D03E
:1021D000266808233362D4F8903043F00803C4F82B
:1021E000903003050BD54B0109D526684FF40063E9
:1021F0003362D4F8903043F02003C4F89030D4F820
:102200009030002B3DD0800609D501F0200002F06F
:102210008051084303D0616F09B120468847D4F844
:10222000900021688968490602D410F0280F2AD04E
:10223000204601F08FFB2068806840061ED520688C
:10224000083050E8001F21F0400100E021E040E8A4
:102250000012002AF3D1D4F8800078B17549816367
:10226000D4F88000FEF7CAFB00280AD0D4F880001A
:10227000816B00E02046BDE8F04108472046FFF7AB
:1022800053FFBDE8F0812046FFF74EFFC4F89050A1
:10229000F7E7D4F86CC02027BCF1010F7ED15FEACC
:1022A000C06C7BD55FEAC16C78D5102018622068BD
:1022B0008068400645D5D4F880100868406800045E
:1022C000000CDED0B4F85C208242DAD9A4F85E00BB
:1022D0000868006880062CD4216851E8000F20F4BB
:1022E000807041E80002002AF6D12068083050E8EA
:1022F000001F21F0010140E80012002AF5D12068FA
:10230000083050E8001F21F0400140E80012002A88
:10231000F5D1C4F88C70E566206850E8001F21F004
:10232000100140E80012002AF6D1D4F88000FEF730
:1023300030FB2667B4F85C00B4F85E10401A81B236
:1023400030E0B4F85C00B4F85E10401A81B2B4F822
:102350005E00002895D0002993D0226852E8000F33
:1023600020F4907042E80003002BF6D12F4BDB43A2
:102370002068083050E8002F1A4040E8002CBCF1DB
:10238000000FF5D1C4F88C70E5666567226852E8E5
:10239000000F20F0100042E8000300E006E0002BF0
:1023A000F4D126672046FFF76FFE6AE7C60209D51B
:1023B000560207D54FF4801018622046BDE8F04160
:1023C000FFF7B1BE03060AD501F0800302F4000254
:1023D000134304D0A16F00297FF44CAF51E74206AC
:1023E00011D54A060FD52046026852E8001F21F099
:1023F000400142E80013002BF6D1C0F888708567D1
:1024000000F0D6F83DE7020206D54A0004D5204682
:10241000BDE8F041FFF786BEC001C6D50029C4DA89
:102420002046BDE8F041FFF730BE0000010000107B
:10243000200100044139000810B5040003D0D4F88D
:10244000880010B107E0012010BD002084F884004E
:10245000204600F027F82420C4F88800206801688E
:1024600021F001010160A06A10B1204601F0AEF92F
:10247000204601F001FD0128E6D02068416821F4E2
:10248000904141602068816821F02A0181602068C4
:10249000016841F0010101602046BDE8104001F0F3
:1024A000F9B9000010B598B00446142111A8FDF741
:1024B000E9FE44216846FDF7E5FE1B492068884295
:1024C00030D101200024CDE900046846FEF710FD5C
:1024D00008B1FEF75CFA1548016E41F480410166CF
:1024E000016E01F480411691C16C41F00101C1649B
:1024F000C06C11A900F0010016904FF4C06011905B
:102500000220CDE912040720CDE914404FF090409D
:10251000FEF7C2FA002211462520FEF751FC2520C5
:10252000FEF740FC18B010BD00380140001002401A
:1025300030B4D0F88C30202B02D0022030BC704751
:10254000A9B1A2B10023C3660A4C0368A3420BD011
:102550005B681B0208D5046854E8003F43F08063C1
:1025600044E80035002DF6D130BC01F0BFBD01209C
:10257000E4E7000000800040094988420ED1094884
:1025800001680948C160094B417882785A54491C56
:1025900041700122811C0248FFF7CABF704700004A
:1025A000EC00002048000020200000209E010020B8
:1025B0007047FEE770B52848017801294BD1002506
:1025C000057000F04FF8254C2070E17820EA0102F8
:1025D000414062708143A170E070207900283AD1B7
:1025E000042A1ED104F10C01081DFDF756FE30B17E
:1025F000657101202071002000F082F804E060790C
:10260000401C6071164805701448402203210C30AC
:10261000FDF731FE11484FF0FF3206211830FDF76B
:102620002AFE0E4E002063780C3606F10C01421C87
:1026300093420DD131F81040641C24B221F81040AF
:10264000092C01DD21F8105011F8104030343454B9
:10265000D0B20328EBD370BD200000200000002082
:102660002400002070B50E4D002401212846FEF7FD
:1026700037FB00B9012402212846FEF731FB00B9DF
:10268000022404212846FEF72BFB00B90324012174
:102690004FF09040FEF724FB00B90424204670BDA3
:1026A0000004004800B585B014216846FDF7EAFD36
:1026B0004FF6FF70009000200321CDE90201019048
:1026C00069460248FEF7E8F905B000BD0008004879
:1026D00000B585B014216846FDF7D4FD4FF6FF70B4
:1026E0000090012001900320039000200290694691
:1026F0000248FEF7D1F905B000BD0000000800480F
:1027000070B5002406462146204600F081F900F00D
:10271000C3F94FF49635304600F08EF9641CAC4294
:10272000F9D370BD70B586B014216846FDF7AAFDD7
:102730001E48C16C41F00401C164C16C01F0040188
:102740000591C16C41F00101C164C16C01F001014E
:102750000591C16C41F00201C164C06C032500F019
:10276000020005904FF448700124002603958DE87F
:10277000510069460E48FEF78FF9200203958DE857
:1027800051004FF0904469462046FEF785F9FFF767
:102790009FFFA06940F48070A0610548183001686F
:1027A00041F40871016006B070BD000000100240E5
:1027B00000040048203AD2B2034B02EB420203EB82
:1027C000021200F019B8000044450008F0B50E46AA
:1027D0000746002540F23F1407E021463846FFF740
:1027E000E9FF103C6D1CA4B2761C3278002A01D09F
:1027F000142DF2D3F0BD00002DE9F04791468A4632
:102800000026044600F004F9DFF84080012700BFED
:1028100000F042F95FF0000539F8160007FA05F1FB
:102820000842404601D1408800E0008800F004F9E9
:102830006D1C102DF0D3641CE4B25146204600F00C
:10284000E7F8761C182EE3D3BDE8F0873A000020A5
:1028500010B5FFF767FF002000F092F8084CA08049
:10286000A088A0F50241303906D000F095FB002089
:1028700000F086F8A08010BD00F005FBF7E700002F
:102880003A00002010B526480178022946D10021DF
:10289000017024480079E8B123A1264801F000FD29
:1028A00024491820FFF792FF1E4C23A1143421481D
:1028B000228801F0F5FC1F494820FFF787FF628856
:1028C00020A11C4801F0ECFC1A496020BDE8104032
:1028D000FFF77CBF1EA1174801F0E2FC1549182044
:1028E000FFF774FF0F4C1DA10C341248227801F041
:1028F000D7FC10494820FFF769FF62781AA10D48FC
:1029000001F0CEFC0B496020FFF760FFA27819A10F
:10291000084801F0C5FC07497820D7E710BD000042
:102920002000002000000020202020202020205314
:10293000544120008001002020202020463A2564B8
:10294000487A200020202020443A256425252000B4
:102950002020202020202050534420002020202010
:1029600042313A25630000002020202042323A25DF
:10297000630000002020202042333A25630000003D
:1029800070B51D490A6842F400720A600A6842F490
:1029900080720A60184C103C226842F020022260CB
:1029A000164A1060086840F02000086000BF00BFB1
:1029B00000BF206840F020002060206840F4807054
:1029C0002060FFF76FFE4FF09041886A40F48070FE
:1029D000886200BF00BF00BF0848001F006885B2C2
:1029E000886940F480708861FFF772FE206840F4C7
:1029F00000702060284670BD280400481408004874
:102A000001B5BDF800000149488008BD3A0000202A
:102A100010B50C460146202000F06EF82146BDE8B6
:102A20001040212000F068B801B5BDF80000014950
:102A3000088008BD3A00002030B5154B1C68154AC7
:102A4000116841F400711160124910390D6845F4A4
:102A500080750D600D6845F020050D6018601068E8
:102A600040F02000106000BF00BF00BF086840F0C9
:102A700020000860086840F48070086000BF00BF54
:102A800000BF086840F4007008601C6030BD0000A2
:102A90001408004828040048154A10B51368154961
:102AA000086840F400700860086840F480700860AE
:102AB00010481038046844F0200404602224146094
:102AC0000C6844F020040C6000BF00BF00BF016828
:102AD00041F020010160016841F48071016000BF94
:102AE00000BF00BF016841F400710160136010BDB8
:102AF000140800482804004870B5194C2568194B83
:102B00001A6842F400721A601A6842F480721A60FD
:102B1000144A103A166846F02006166020601868BD
:102B200040F02000186000BF00BF00BF106840F0F8
:102B300020001060106840F48070106021601868F8
:102B400040F02000186000BF00BF00BF106840F0D8
:102B500020001060106840F480701060256070BD27
:102B6000140800482804004870B5144C0122824023
:102B7000207811B10243227001E090432070207848
:102B80006178884219D00E4D01224FF47F412846CA
:102B9000FEF7ABF82078002201022846FEF7A5F8E0
:102BA000084D012204212846FEF79FF80022042147
:102BB0002846FEF79AF82078607070BD3800002033
:102BC00000080048000C00480848094902790A70CA
:102BD0004079032806D307480078322802D20648F5
:102BE000007800E0002048707047000000000020DE
:102BF0003000002024000020230000202DE9F04FA9
:102C000087B014216846FDF73DFB4048C16C41F098
:102C10000401C164C16C01F004010591C16C41F073
:102C20002001C164C16C01F020010591C16C41F02B
:102C30000101C164C16C01F001010591C16C41F059
:102C40000201C164C16C01F002010591C16C41F047
:102C50000801C164C06CDFF8B88000F008004FF6CE
:102C6000FF740590002221464046FEF73EF84FF4DF
:102C700080764FF09049002231464846FEF735F8FD
:102C8000DFF890A0002204215046FEF72EF8DFF86E
:102C900088B04FF44877002239465846FEF725F8A9
:102CA0000125CDE90045002402946946404603947D
:102CB000FDF7F2FECDE90054694648460294FDF75F
:102CC000EBFE0720CDE90004694658460294FDF763
:102CD000E3FE0096CDE90154694648460394FDF7AA
:102CE000DBFE04200090CDE9015469465046039470
:102CF000FDF7D2FE0097CDE901546946584603948A
:102D0000FDF7CAFE07B0BDE8F08F000000100240DA
:102D100000080048000C00480004004810B58EB0C0
:102D200000240794089409940A940B940C941C2191
:102D300068460D94FDF7A6FA1E484FF080410160E9
:102D400040F21F31C0E901146321C0E9031480215E
:102D50008161FEF7C6FD08B1FDF719FE4FF4805002
:102D6000079007A91348FEF751FE08B1FDF70FFEC3
:102D70001048FFF756F808B1FDF709FE0B940BA9B0
:102D80000C480D94FEF75EFD08B1FDF700FE6020D3
:102D900000903220CDE901040422694605480494DC
:102DA000FEF7ADFF08B1FDF7F2FD0248FEF780FF28
:102DB0000EB010BD540000203EB500240F48009412
:102DC00001940D49029401604F21C0E9011440F2C1
:102DD000E731C16080218161FEF783FD08B1FDF715
:102DE000D6FD0094694605480294FEF72BFD0028A5
:102DF00001D0FDF7CCFD3EBD00100040A00000203A
:102E0000184810B5164901604FF416514160002171
:102E100081600C22C160C0E904128161C16101625C
:102E200041628162FFF708FB08B1FDF7B0FD0021A8
:102E30000C48FFF751F908B1FDF7A9FD0021094839
:102E4000FFF724F908B1FDF7A2FD0648FFF7FDF8EA
:102E5000002803D0BDE81040FDF799BD10BD00006B
:102E600000380140EC000020FEE7FEE7044BB3FB16
:102E7000F1F10368491E996200688263704700009F
:102E800000350C00704730B501210020FFF734FEFB
:102E90004FF47A70FDF76DFD00210120FFF72CFE45
:102EA00041F290711020FFF727FE4FF41C51602073
:102EB000FFF722FE01216120FFF71EFE02214620BE
:102EC000FFF71AFE48F210011320FFF715FE48F233
:102ED000FE011220FFF710FE4FF4A0610220FFF761
:102EE0000BFE41F230010320FFF706FE40F20334EF
:102EF00021463020FFF700FE21463120FFF7FCFD80
:102F000021463220FFF7F8FDE51E29463320FFF762
:102F1000F3FD03213420FFF7EFFD21463520FFF7B5
:102F2000EBFD14213620FFF7E7FD21463720FFF7A0
:102F3000E3FD21463820FFF7DFFD21463920FFF76A
:102F4000DBFD29463A20FFF7D7FD03213B20FFF7A1
:102F5000D3FD21463C20FFF7CFFD4FF4A0513D208B
:102F6000FFF7CAFD4FF400719220FFF7C5FD21461F
:102F70009320FFF7C1FD40F60D019020FFF7BCFD47
:102F800041F218010320FFF7B7FDBDE8304040F2E1
:102F900073110720FFF7B0BD10B543F20801E3201D
:102FA000FFF7AAFD1221E720FFF7A6FD41F231212C
:102FB000EF20FFF7A1FD00210120FFF79DFD4FF459
:102FC000E0610220FFF798FD41F230010320FFF796
:102FD00093FD00210420FFF78FFD40F20721082018
:102FE000FFF78AFD00210920FFF786FD00210A2056
:102FF000FFF782FD00210C20FFF77EFD00210D2050
:10300000FFF77AFD00210F20FFF776FD0021102049
:10301000FFF772FD07211120FFF76EFD002112203E
:10302000FFF76AFD00211320FFF766FDC820FDF7BA
:1030300021FD41F290611020FFF75EFD40F2272153
:103040001120FFF759FD3220FDF714FD1D2112203C
:10305000FFF752FD3220FDF70DFD4FF40061132004
:10306000FFF74AFD14212920FFF746FD0B212B20F5
:10307000FFF742FD3220FDF7FDFC00212020FFF785
:103080003BFD00212120FFF737FD07213020FFF70E
:1030900033FD40F207713120FFF72EFD062132206B
:1030A000FFF72AFD40F204713520FFF725FD41F6B8
:1030B00004713620FFF720FD04213720FFF71CFDA7
:1030C00000213820FFF718FD40F206713920FFF784
:1030D00013FD40F201713C20FFF70EFD0F213D2052
:1030E000FFF70AFD00215020FFF706FDEF215120D8
:1030F000FFF702FD00215220FFF7FEFC40F23F11D6
:103100005320FFF7F9FC4FF41C516020FFF7F4FC4B
:1031100001216120FFF7F0FC00216A20FFF7ECFCA1
:1031200000218020FFF7E8FC00218120FFF7E4FC6C
:1031300000218220FFF7E0FC00218320FFF7DCFC68
:1031400000218420FFF7D8FC00218520FFF7D4FC64
:1031500010219020FFF7D0FC00219220FFF7CCFC3B
:1031600003219320FFF7C8FC4FF488719520FFF7E7
:10317000C3FC00219720FFF7BFFC00219820FFF738
:10318000BBFC41F218010320FFF7B6FCBDE810407C
:1031900040F273110720FFF7AFBC00000F4810B5D5
:1031A0000078032814D10E48007990B10A224FF418
:1031B000FA610C48FFF75AFE0A480168886A0A4A11
:1031C000401CB2FBF0F2064814300280896B41804B
:1031D00010BD32224FF47A71EBE70000200000208E
:1031E000000000205400002000350C007047000053
:1031F00010B51D4802681D490B68D21A322A31D316
:10320000006808601A4C207820B3072822D1194A98
:1032100019A11A48FDF75CF8164901F10A00FDF7FB
:103220003CF8B8B1134A16A1D21C1448FDF750F867
:103230001048C01CFDF7D8F800280BDD0D48C01C55
:10324000FDF7D2F8B0F57A7F04DA0A49C91CC81D27
:10325000FDF735F800202070BDE810401E2107481A
:10326000FDF710B810BD0000480000202C00002021
:103270002100002006000020253373009E0100205D
:10328000252A347325337300FDF73ABD00B593B09A
:1032900038216846FCF7F6FF14210EA8FCF7F2FF70
:1032A0004FF40070FDF7BEFD0220C10103914021E3
:1032B00004910121CDE9080100900A21CDE90A100D
:1032C00007900C900D906846FEF7A0F808B172B612
:1032D000FEE70F200E9003200F9000201090119019
:1032E000129002210EA8FDF747FF002801D072B608
:1032F000FEE713B000BD00000248016841F4700110
:103300000160704788ED00E00148FEF700BC000056
:10331000A00000202DE9F0430268264B264D274EE1
:10332000274C4FF08049984207D0484505D0A84225
:1033300003D0B04201D0A04203D122F070074A6806
:103340003A43204FDFF880C0DFF8808098420DD0EC
:1033500048450BD0A84209D0B04207D0A04205D0C2
:10336000B84203D0604501D0404503D122F44075F6
:10337000CA682A434D6922F080022A4302608A68A3
:10338000C2620A688262984207D0A04205D0B84261
:1033900003D0604501D0404501D109690163012195
:1033A00041610169C90703D0016921F0010101618F
:1033B000BDE8F083002C01400004004000080040FC
:1033C00000340140004001400044014000480140F9
:1033D00010B501F01F030121046A99408C43046277
:1033E000016A9A401143016210BD10B5846842EA37
:1033F000032224F47F440A432243826010BD00006C
:103400008268034B1A400A4342F00701816070470B
:103410008FFFCFFF2DE9F043056A026A22F0010217
:103420000262436882691C4C25F0020522400C6848
:1034300022F0030214438A68194E2A43174D194F8C
:10344000DFF864C0DFF86490A84207D0B04205D02E
:10345000B84203D0604501D0484506D122F00808A3
:10346000CA6842EA080222F00402A84207D0B04229
:1034700005D0B84203D0604501D0484505D14D691B
:1034800023F440731D438B692B4343608461496877
:1034900041630262BDE8F0838FFFFEFF002C014014
:1034A0000034014000400140004401400048014018
:1034B000F0B5056A026A22F010020262426883696E
:1034C000194C1B4E23400C6823F4407343EA042438
:1034D00025F020038D6843EA0513144DA84201D05E
:1034E000B04206D1CF6823F0800343EA071323F0EC
:1034F0004003A8420AD0B04208D00E4DA84205D0E1
:103500000D4DA84202D00D4DA84207D14D6922F4BD
:10351000406242EA85028D6942EA85024260846126
:10352000496881630362F0BDFF8FFFFE002C0140FC
:103530000034014000400140004401400048014087
:10354000F0B5056A026A22F4807202624368C269B9
:10355000194C1B4E22400C6822F00302144325F440
:1035600000728D6842EA0522144DA84201D0B04293
:1035700006D1CF6822F4006242EA072222F4806278
:10358000A8420AD0B04208D00E4DA84205D00E4D38
:10359000A84202D00D4DA84207D14D6923F44053F3
:1035A00043EA05138D6943EA05134360C461496822
:1035B000C1630262F0BD00008FFFFEFF002C0140DE
:1035C00000340140004001400044014000480140F7
:1035D000F0B5056A026A22F4805202624268C36949
:1035E000194C1B4E23400C6823F4407343EA042417
:1035F00025F400538D6843EA0533144DA84201D0E9
:10360000B04206D1CF6823F4004343EA073323F4E2
:103610008043A8420AD0B04208D00E4DA84205D03F
:103620000D4DA84202D00D4DA84207D14D6922F49C
:10363000404242EA85128D6942EA85124260C461C5
:10364000496801640362F0BDFF8FFFFE002C01405A
:103650000034014000400140004401400048014066
:1036600030B5056A026A22F4803202624268036D54
:10367000114C23400C681C4325F400330D8943EAA8
:1036800005430E4DA8420BD00D4DA84208D00D4D5C
:10369000A84205D00C4DA84202D00C4DA84204D13E
:1036A0004D6922F4803242EA05224260046549688D
:1036B0008164036230BD00008FFFFEFF002C0140DB
:1036C00000340140004001400044014000480140F6
:1036D00030B5046A026A22F4801202624268036D05
:1036E000114D24F400142B400D6843EA05230D8985
:1036F00044EA05540D4DA8420BD00D4DA84208D008
:103700000C4DA84205D00C4DA84202D00B4DA8424A
:1037100004D14D6922F4802242EA85224260036589
:103720004968C164046230BDFF8FFFFE002C014078
:103730000034014000400140004401400048014085
:1037400010B5036A046A24F001040462846924F059
:10375000F00444EA021423F00A020A43846102627C
:1037600010BD10B5036A046A24F010040462846971
:1037700023F0A00324F4704444EA023243EA011126
:103780008261016210BD000030B5416EB9B10268BE
:1037900091689268C1F342610B4B520F9C5CE5004B
:1037A00003F10804A25CB5FBF2F2A0F86A205A5CAF
:1037B000615CD200B2FBF1F1A0F8681030BD0121CC
:1037C000A0F86A10F8E700002C57000890F82810BD
:1037D000090706D501684A68836B22F400421A4340
:1037E0004A6090F82810C90706D001684A68C36A81
:1037F00022F400321A434A6090F82810890706D54F
:1038000001684A68036B22F480321A434A6090F8D8
:103810002810490706D501684A68436B22F48022C4
:103820001A434A6090F82810C90606D501688A68CC
:10383000C36B22F480521A438A6090F828108906DC
:1038400006D501688A68036C22F400521A438A6024
:1038500090F82810490611D501684A68436C22F493
:1038600080121A434A60416CB1F5801F06D101688D
:103870004A68836C22F4C0021A434A6090F8281008
:10388000090606D501684A68C06C22F4002202438A
:103890004A6070472DE9F84300260446C0F890605E
:1038A000FDF728FA8046206800684FF020050007E1
:1038B0006FF07E4713D54346002229042046009727
:1038C00000F09CFC58B1216851E8000F20F0800006
:1038D00041E80002002AF6D1C4F8885021E02068AF
:1038E0000068400722D5434600224FF4800120465D
:1038F000009700F083FCC8B1216851E8000F20F464
:10390000907041E80002002AF6D12068083050E8A3
:10391000001F21F0010140E80012002AF5D1C4F88F
:103920008C5084F884600320BDE8F883C4F8885084
:10393000C4F88C5044F86C6F666026760020F3E77C
:1039400010B5806A0021A0F85E10A0F85610FEF7AE
:10395000EBFB10BD10B5026852E8001F21F4907116
:1039600042E80013002BF6D10E4B0268083252E8F1
:10397000001F194042E80014002CF6D1C16E012945
:1039800008D1016851E8002F22F0100241E800231D
:10399000002BF6D12021C0F88C100021C1664167B0
:1039A00010BD0000FEFFFFEF10B5B0F86020D0F8AA
:1039B0008C300168222B04D0886940F008008861AF
:1039C00010BD496A836D11401980816D891C816524
:1039D000B0F85E10491EA0F85E10B0F85E10002925
:1039E000EED1026852E8001F21F4907142E8001302
:1039F000002BF6D10168083151E8002F22F00102B6
:103A000041E80023002BF5D12021C0F88C100021C3
:103A100041670167154B02689A420BD05268120247
:103A200008D5036853E8002F22F0806243E80024A1
:103A3000002CF6D1C26E012A02D0FEF79DFD10BD0A
:103A4000C166026852E8001F21F0100142E800132D
:103A5000002BF6D10168CA69D243D20601D41022E4
:103A60000A62B0F85C10FEF70FFB10BD008000404A
:103A70002DE9F0470446B0F860600068C569D0F8E9
:103A800000A0D0F80880D4F88C10222905D08169D4
:103A900041F008018161BDE8F087B4F868704FF02B
:103AA000000975E02068406AA16D30400880A06D73
:103AB000801CA065B4F85E00401EA4F85E0020687B
:103AC000C569690730D0E9070AD05FEACA5107D54E
:103AD00001210162D4F8900040F00100C4F8900088
:103AE000A8070BD55FEAC87008D0216802200862D9
:103AF000D4F8900040F00400C4F8900068070BD59B
:103B00005FEAC87008D0216804200862D4F89000E9
:103B100040F00200C4F89000D4F8900020B1204694
:103B2000FEF702FBC4F89090B4F85E0080BB2168F9
:103B300051E8000F20F4807041E80002002AF6D11D
:103B4000304A2068083050E8001F114040E8001358
:103B5000002BF6D12020C4F88C00C4F8749049469C
:103B6000C4F87090284A206890420BD04068000248
:103B700008D5226852E8000F20F0806342E8003048
:103B80000028F6D1E06E012825D02046FEF7F4FC8F
:103B90000FB1A80686D4B4F85E0000283FF47BAFCE
:103BA000B4F8681081427FF676AF2068083050E89C
:103BB000001F21F0805140E80012002AF5D113487F
:103BC0006067216851E8000F40F0200041E80002E2
:103BD000002AF6D15FE7E166216851E8000F20F086
:103BE000100041E80002002AF6D12068C169C943EB
:103BF000C90601D410210162B4F85C102046FEF71A
:103C000043FAC5E7FEFFFFEF00800040A939000836
:103C100010B5B0F86020D0F88C300168222B04D0A9
:103C2000886940F00800886110BD496A1140826DC2
:103C30001170816D491C8165B0F85E10491EA0F8B5
:103C40005E10B0F85E100029EED1016851E8002F37
:103C500022F4907241E80023002BF6D1016808316C
:103C600051E8002F22F0010241E80023002BF5D19A
:103C70002021C0F88C10002141670167154B0268B4
:103C80009A420BD05268120208D5036853E8002FFD
:103C900022F0806243E80024002CF6D1C26E012A93
:103CA00002D0FEF769FC10BDC166026852E8001F31
:103CB00021F0100142E80013002BF6D10168CA6917
:103CC000D243D20601D410220A62B0F85C10FEF78B
:103CD000DBF910BD008000402DE9F0470446B0F844
:103CE00060600068C569D0F800A0D0F80880D4F8FA
:103CF0008C10222905D0816941F008018161BDE85D
:103D0000F087B4F868704FF0000975E02068406AE9
:103D1000A16D30400870A06D401CA065B4F85E0035
:103D2000401EA4F85E002068C569690730D0E90725
:103D30000AD05FEACA5107D501210162D4F8900088
:103D400040F00100C4F89000A8070BD55FEAC870E6
:103D500008D0216802200862D4F8900040F00400E6
:103D6000C4F8900068070BD55FEAC87008D02168D6
:103D700004200862D4F8900040F00200C4F89000DB
:103D8000D4F8900020B12046FEF7CEF9C4F8909008
:103D9000B4F85E0080BB216851E8000F20F4807009
:103DA00041E80002002AF6D1304A2068083050E885
:103DB000001F114040E80013002BF6D12020C4F86A
:103DC0008C00C4F874904A46C4F870902849206862
:103DD00088420BD04068000208D5216851E8000FE6
:103DE00020F0806041E80003002BF6D1E06E01284E
:103DF00025D02046FEF7C0FB0FB1A80686D4B4F844
:103E00005E0000283FF47BAFB4F8681081427FF673
:103E100076AF2068083050E8001F21F0805140E85C
:103E20000012002AF5D113486067206850E8001F8F
:103E300041F0200140E80012002AF6D15FE7E26677
:103E4000216851E8000F20F0100041E80002002A2C
:103E5000F6D12068C169C943C90601D410210162A5
:103E6000B4F85C102046FEF70FF9C5E7FEFFFFEF40
:103E700000800040113C00082DE9F0410446016833
:103E800080682269E3691043626900251A43104380
:103E9000DFF82CC20A688B4B1A4002430A60206884
:103EA0004168E26821F44051114341602168A069F2
:103EB000614501D0226A10438A68834B1A4002434D
:103EC0008A602068C16A626A21F00F011143C162F1
:103ED0007E4923687E488B420DD1D0F8880010F0CF
:103EE000030006D0012855D0022842D003283FD134
:103EF00052E001203DE077498B420BD1D0F8880099
:103F000010F00C0035D0042833D0082840D00C28FD
:103F10002ED141E070498B420BD1D0F8880010F0CF
:103F2000300026D0102835D0202831D030281FD19D
:103F300032E06A498B420BD1D0F8880010F0C00003
:103F400017D0402826D0802822D0C02810D123E0C6
:103F500063450DD1D0F8880010F4406009D0B0F569
:103F6000806F17D0B0F5006F12D0B0F5406F13D04E
:103F700010205B495B4F00264FF4004263453BD164
:103F800060B1022813D004280BD0082872D10DE0AC
:103F90000220EEE70420ECE70820EAE7FDF7DAF973
:103FA00001E0FDF7FBF9010001D17CE01146606AF8
:103FB00037F810206768B1FBF2F007EB4703834244
:103FC00070D8B0EB073F6DD8002308461946FCF7C0
:103FD00021F9090241EA10610202780810187141C2
:103FE0003A460023FCF716F93F4AA0F5407191428A
:103FF00058D82168C86056E0E3694FF6EF789342DD
:104000002CD109284ED2DFE800F00508114D0D4DE6
:104010004D4D1000FDF79EF901E0FDF7ADF90100EF
:1040200004D140E0FDF7BAF9F9E71146606A37F8C4
:104030001000B1FBF0F04100606801EB5001B1FBF2
:10404000F0F0A0F1100141452CD84FF6F07101407D
:10405000C0F3420001432068C16024E0092821D256
:10406000DFE800F0050912200E2020201100FDF7E6
:1040700071F902E016E0FDF77FF9010004D112E0CA
:10408000FDF78CF9F9E71146606A37F81000B1FBCB
:10409000F0F1606801EB5001B1FBF0F0A0F110010C
:1040A00041450AD901250120A4F86A0024F8680FC7
:1040B0002846E6602661BDE8F08180B299E70000FD
:1040C00000800040F369FFCFFFF4FF11003801408A
:1040D000001002400044004000480040004C0040F6
:1040E0000024F40014570008FFFC0F0070B5816530
:1040F000A0F85C20A0F85E200023436781684FF49D
:104100008056FF24B14204D10169F9B940F2FF1190
:1041100022E07F25C1B1B1F1805F1AD0A0F86030F4
:10412000C0F890302221C0F88C100168083151E8A5
:10413000003F43F0010341E80034002CF5D1416E0B
:10414000B1F1005F0ED031E0016941B9A0F86040E3
:10415000E6E7016919B13F21A0F86010E0E7A0F897
:104160006050DDE7B0F8681091421FD88168B14215
:1041700001D10169B9B11D494167016941B10268C5
:1041800052E8001F41F4807142E80013002BF6D181
:104190000168083151E8002F42F0805241E80023C5
:1041A000002BF5D120E012494167F1E78168B14267
:1041B00001D1016969B10F494167016959B10268CB
:1041C00052E8001F41F4907142E80013002BF6D131
:1041D0000AE009494167026852E8001F41F02001E6
:1041E00042E80013002BF6D1002070BDD93C000836
:1041F000713A0008113C0008A93900082DE9F04780
:10420000994617460D4604464FF00008089E33E0D5
:10421000701C31D0FCF76EFDA0EB0900B04218D83D
:10422000BEB120680168490726D5802D24D0402DD5
:1042300022D0C169C94309070DD40825056220466B
:10424000FFF788FBC4F8905084F884800120BDE813
:10425000F0870320FBE7C069C04300050CD4216848
:104260004FF4006008622046FFF774FB2020C4F87A
:10427000900084F88480ECE72068C06935EA00008B
:1042800004D00020B842C3D00020E0E70120F9E7C5
:104290000148FDF74BBF0000EC000020FEE70000E6
:1042A0000FB4084B10B504A902AA039800F030F827
:1042B000044602A9002000F007F9204610BC5DF872
:1042C00014FB0000C94400080907090E002804DB9C
:1042D00000F1E02080F80014704700F00F0000F1BA
:1042E000E02080F8141D70470048704750000020FF
:1042F00002E008C8121F08C1002AFAD170477047AF
:10430000002001E001C1121F002AFBD1704700000C
:104310002DE9FF4F8BB09A460F460546002606E072
:1043200025280BD052460D9990476D1C761C287895
:104330000028F5D10FB03046BDE8F08F0024A0462C
:104340000122604900E0044315F8013F203B02FAD6
:1043500003F00842F7D128782E2817D115F8010F5D
:1043600044F004042A280ED06FF02F022878A0F120
:10437000300109290AD808EB880102EB410100EB62
:1043800001086D1CF2E757F8048B6D1C287869282A
:104390003ED006DC0028CDD063280BD0642804D1A1
:1043A00036E0732810D075284BD052460D999047AF
:1043B000761C85E017F8040B8DF8000000208DF8BE
:1043C0000100E946012003E057F8049B4FF0FF305D
:1043D00061074FF0000401D40AE0641C44450DDA83
:1043E0008442FADB19F804100029F6D106E0641CB7
:1043F0008442FCDB19F804100029F8D1264404E0BB
:1044000019F8010B52460D999047641EF8D257E0F7
:1044100001CF4FF00A0B002802DA40422D2102E0C2
:10442000210504D52B218DF82410012103E0E1079B
:1044300005D02021F7E70DF1200908910CE00021BB
:10444000F9E701CF4FF00A0BF9E75946FBF7D9FF1F
:1044500001F1300209F8012D0028F6D1ADEB090079
:1044600000F1200B600701D44FF00108D84502DDB0
:10447000A8EB0B0000E000208046002406E009A81D
:104480005246005D0D999047641C761C0898844242
:10449000F5DB04E0302052460D999047761CB8F1C8
:1044A0000001A8F10108F5DC05E019F8010B5246FE
:1044B0000D999047761CBBF10001ABF1010BF4DCC8
:1044C0006D1C34E7092801000A68531C0B6010704A
:1044D00070470000FCF71CFCFEF7D8FEFEF78EFBD1
:1044E000FEF76AFCFEF78CFCFEF718FCFEF7B0F94D
:1044F0001048FDF74FFA04210F48FDF7C5FC0122D3
:104500000E490F48FEF714F80020FEF7F9F84FF6B1
:10451000FF70FEF789FA0020FEF772FAFEF74AF8FC
:10452000FEF7B0F9FEF764FEFEF738FEFEF74CFB2F
:10453000F4E70000A000002054000020220000202A
:10454000EC0000200000000000000000000000005F
:10455000000000000000000000000000000000005B
:10456000000000000000000000000000000000004B
:1045700000000000000080018001800180018001B6
:104580008001800180018001800180018001800123
:104590000000000080018001000000000000000019
:1045A0000000000000000000CC00CC00CC00CC00DB
:1045B000CC00CC0000000000000000000000000063
:1045C00000000000000000000000000000000000EB
:1045D00000000000000000000000000000000000DB
:1045E000600C600C600C30063006FE1FFE1F3006AB
:1045F00038071803FE1FFE1F180318038C018C01D7
:104600008C01000000008000E003F80F9C0E8C1C61
:104610008C188C009800F801E007800E801C8C1824
:104620008C189C18B80CF00FE0038000800000008C
:10463000000000000000000000000E181B0C110C10
:1046400011061106110311039B018E01C038C06CC5
:1046500060446044304430441844186C0C38000006
:10466000000000000000E001F003380718061806FB
:104670003003F001F000F8009C310E33061E061CDA
:10468000061C063FFC73F021000000000000000043
:1046900000000000000000000C000C000C000C00EA
:1046A0000C000C00000000000000000000000000F2
:1046B00000000000000000000000000000000000FA
:1046C000000000000000000200038001C000C000E4
:1046D00060006000300030003000300030003000FA
:1046E0003000300060006000C000C00080010003A6
:1046F00000020000000020006000C0008001800176
:10470000000300030006000600060006000600067F
:10471000000600060003000380018001C000600065
:104720002000000000000000000000000000000069
:10473000C000C000D806F807E001300338070000C9
:104740000000000000000000000000000000000069
:104750000000000000000000000000000000000059
:1047600080018001800180018001FC3FFC3F8001CD
:104770008001800180018001000000000000000035
:104780000000000000000000000000000000000029
:104790000000000000000000000000000000000019
:1047A0000000000000008001800100010001800085
:1047B00000000000000000000000000000000000F9
:1047C000000000000000000000000000E007E0071B
:1047D00000000000000000000000000000000000D9
:1047E00000000000000000000000000000000000C9
:1047F00000000000000000000000000000000000B9
:10480000000000000000C000C00000000000000028
:10481000000000000000000C000C0006000600066E
:104820000003000300038003800180018001C000B9
:10483000C000C00060006000000000000000000038
:10484000000000000000E003F007380E180C0C1800
:104850000C180C180C180C180C180C180C180C1838
:10486000180C380EF007E003000000000000000004
:1048700000000000000000018001C001F00198016B
:104880008801800180018001800180018001800118
:104890008001800180018001000000000000000014
:1048A000000000000000E003F80F180C0C180C18B2
:1048B00000180018000C000600038001C000600012
:1048C00030001800FC1FFC1F00000000000000006A
:1048D000000000000000E001F807180E0C0C0C0CA2
:1048E000000C0006C003C007000C001800180C18CC
:1048F0000C18180CF807E00300000000000000008E
:10490000000000000000000C000E000F000F800DE2
:10491000C00C600C600C300C180C0C0CFC3FFC3F05
:10492000000C000C000C000C000000000000000057
:10493000000000000000F80FF80F180018000C002D
:10494000EC03FC071C0E001C0018001800180C18C3
:104950001C0C180EF807E003000000000000000027
:10496000000000000000C007F00F381C18181800E5
:104970000C00CC03EC0F3C0E1C1C0C180C180C1873
:10498000181C380EF007E0030000000000000000D3
:10499000000000000000FC1FFC1F000C00060006C9
:1049A000000380038001C001C000E00060006000DF
:1049B00070003000300030000000000000000000F7
:1049C000000000000000E003F007380E180C180C7F
:1049D000180C3806F007F007180C0C180C180C18F7
:1049E0000C18380CF80FE003000000000000000075
:1049F000000000000000E003F007380E1C0C0C184B
:104A00000C180C181C1C381EF81BE0190018000CA0
:104A1000000C1C0EF807F001000000000000000070
:104A20000000000000000000000000000000000086
:104A30008001800100000000000000000000000074
:104A40000000000080018001000000000000000064
:104A50000000000000000000000000000000000056
:104A60008001800100000000000000000000000044
:104A700000000000800180010001000180000000B2
:104A80000000000000000000000000000000000026
:104A9000000000000010001C800FE003F800180068
:104AA000F800E003800F001C001000000000000070
:104AB00000000000000000000000000000000000F6
:104AC00000000000F81F000000000000F81F0000B8
:104AD00000000000000000000000000000000000D6
:104AE00000000000000000000000000000000000C6
:104AF0000000000008003800F001C007001F001887
:104B0000001FC007F001380008000000000000008E
:104B1000000000000000E003F80F180C0C180C183F
:104B20000018000C000600038001C000C000C00097
:104B300000000000C000C0000000000000000000F5
:104B40000000000000000000E00718180420C2293F
:104B5000224A114409440944094409221113E20C70
:104B6000024004201818E0070000000000000000C8
:104B700000000000000080038003C006C006C006DD
:104B8000600C600C301830183018F83FF83F1C707B
:104B90000C600C6006C006C00000000000000000B1
:104BA000000000000000FC03FC0F0C0C0C180C189B
:104BB0000C180C0CFC07FC0F0C180C300C300C30D3
:104BC0000C300C18FC1FFC07000000000000000067
:104BD000000000000000C007F01F38381C300C70C7
:104BE00006600600060006000600060006000660D5
:104BF0000C701C30F01FE0070000000000000000F7
:104C0000000000000000FE03FE0F060E0618061846
:104C100006300630063006300630063006300618FC
:104C20000618060EFE0FFE03000000000000000044
:104C3000000000000000FC3FFC3F0C000C000C00DA
:104C40000C000C00FC1FFC1F0C000C000C000C00E6
:104C50000C000C00FC3FFC3F0000000000000000C6
:104C6000000000000000F83FF83F1800180018008E
:104C700018001800F81FF81F180018001800180076
:104C800018001800180018000000000000000000C4
:104C9000000000000000E00FF83F3C780E6006E0E6
:104CA00007C00300030003FE03FE03C007C006C0E5
:104CB0000EC03CF0F83FE00F0000000000000000D4
:104CC0000000000000000C300C300C300C300C30B8
:104CD0000C300C30FC3FFC3F0C300C300C300C30F6
:104CE0000C300C300C300C300000000000000000D4
:104CF000000000000000800180018001800180012F
:104D0000800180018001800180018001800180019B
:104D1000800180018001800100000000000000008F
:104D20000000000000000006000600060006000665
:104D3000000600060006000600060006000618062B
:104D400018063807F003E001000000000000000032
:104D500000000000000006300618060C06060603D8
:104D60008601C60066007600DE008E010603060698
:104D7000060C061806300660000000000000000067
:104D800000000000000018001800180018001800AB
:104D90001800180018001800180018001800180053
:104DA00018001800F81FF81F0000000000000000A5
:104DB0000000000000000EE01EF01EF01EF036D8CD
:104DC00036D836D836D866CC66CC66CCC6C6C6C60B
:104DD000C6C6C6C686C386C3000000000000000029
:104DE0000000000000000C301C303C303C306C30C7
:104DF0006C30CC30CC308C310C330C330C360C3660
:104E00000C3C0C3C0C380C30000000000000000092
:104E1000000000000000E007F81F1C380E7006605C
:104E200003C003C003C003C003C003C003C00660C7
:104E30000E701C38F81FE0070000000000000000A2
:104E4000000000000000FC0FFC1F0C380C300C3080
:104E50000C300C300C18FC1FFC070C000C000C0074
:104E60000C000C000C000C00000000000000000012
:104E7000000000000000E007F81F1C380E700660FC
:104E800003E003C003C003C003C003C007E0066320
:104E90000E3F1C3CF83FE0F700C00000000000009F
:104EA000000000000000FE0FFE1F0638063006302E
:104EB00006300638FE1FFE0706030606060C061817
:104EC00006180630063006600000000000000000F2
:104ED000000000000000E003F80F1C0C0C180C1878
:104EE0000C001C00F803E00F001E003806300630EE
:104EF0000E301C1CF80FE00700000000000000004E
:104F0000000000000000FE7FFE7F80018001800124
:104F10008001800180018001800180018001800189
:104F2000800180018001800100000000000000007D
:104F30000000000000000C300C300C300C300C3045
:104F40000C300C300C300C300C300C300C300C3081
:104F50000C301818F81FE0070000000000000000E7
:104F600000000000000003600630063006300C1818
:104F70000C180C18180C180C380E30063006700778
:104F800060036003C001C0010000000000000000D9
:104F90000000000000000360C361C361C3616633A9
:104FA000663366336633663366336C1B6C1B6C1B6F
:104FB0002C1A3C1E380E380E0000000000000000C5
:104FC0000000000000000FE00C7018303018700C6A
:104FD000600EC00780038003C003E006700C301C25
:104FE00018180C300E6007E0000000000000000000
:104FF00000000000000003C006600C301C383818A8
:10500000300C6006E007C003800180018001800150
:10501000800180018001800100000000000000008C
:10502000000000000000FC7FFC7F006000300018E2
:10503000000C000600038001C00060003000180072
:105040000C000600FE7FFE7F000000000000000054
:10505000000000000000E003E0036000600060006A
:105060006000600060006000600060006000600040
:105070006000600060006000600060006000E003AD
:10508000E0030000000030003000600060006000BD
:10509000C000C000C000C001800180018001000389
:1050A00000030003000600060000000000000000EE
:1050B000000000000000E003E00300030003000321
:1050C00000030003000300030003000300030003C8
:1050D0000003000300030003000300030003E003D8
:1050E000E003000000000000C001C0016003600395
:1050F000600330063006180C180C00000000000099
:10510000000000000000000000000000000000009F
:10511000000000000000000000000000000000008F
:10512000000000000000000000000000000000007F
:10513000000000000000FFFFFFFF00000000000073
:105140000000000000000C000C000C000C000C0023
:105150000C00000000000000000000000000000043
:10516000000000000000000000000000000000003F
:10517000000000000000000000000000000000002F
:10518000F003F8071C0C0C0C000FF00FF80C0C0CC3
:105190000C0C1C0FF80FF0180000000000000000BD
:1051A0000000000000001800180018001800180087
:1051B000D803F80F380C18181818181818181818D9
:1051C0001818380CF80FD803000000000000000089
:1051D00000000000000000000000000000000000CF
:1051E000C003F007300E180C180018001800180043
:1051F000180C300EF007C003000000000000000093
:105200000000000000000018001800180018001826
:10521000C01BF01F301C1818181818181818181868
:105220001818301CF01FC01B000000000000000018
:10523000000000000000000000000000000000006E
:10524000C003F00F300C1818F81FF81F18001800D2
:105250003818301CF00FC0070000000000000000EC
:10526000000000000000800FC00FC000C000C000A0
:10527000F007F007C000C000C000C000C000C000C0
:10528000C000C000C000C00000000000000000001E
:10529000000000000000000000000000000000000E
:1052A000E00DF80F180E0C0C0C0C0C0C0C0C0C0C6C
:1052B0000C0C180EF80FE00D000C0C0C1C06F80777
:1052C000F001000000001800180018001800180075
:1052D000D807F80F381C18181818181818181818A4
:1052E00018181818181818180000000000000000FE
:1052F000000000000000C000C0000000000000002E
:10530000C000C000C000C000C000C000C000C0009D
:10531000C000C000C000C00000000000000000008D
:10532000000000000000C000C000000000000000FD
:10533000C000C000C000C000C000C000C000C0006D
:10534000C000C000C000C000C000C000C000F80025
:105350007800000000000C000C000C000C000C0099
:105360000C0C0C060C038C01CC006C00FC009C01A6
:105370008C030C030C060C0C000000000000000065
:10538000000000000000C000C000C000C000C0005D
:10539000C000C000C000C000C000C000C000C0000D
:1053A000C000C000C000C0000000000000000000FD
:1053B00000000000000000000000000000000000ED
:1053C0007C3CFF7EC7E383C183C183C183C183C1AA
:1053D00083C183C183C183C10000000000000000BD
:1053E00000000000000000000000000000000000BD
:1053F0009807F80F381C18181818181818181818C3
:1054000018181818181818180000000000000000DC
:10541000000000000000000000000000000000008C
:10542000C003F00F300C181818181818181818188E
:105430001818300CF00FC00300000000000000003E
:10544000000000000000000000000000000000005C
:10545000D803F80F380C1818181818181818181836
:105460001818380CF80FD803180018001800180086
:105470001800000000000000000000000000000014
:10548000C01BF01F301C18181818181818181818F6
:105490001818301CF01FC01B001800180018001846
:1054A00000180000000000000000000000000000E4
:1054B000B007F003700030003000300030003000E2
:1054C000300030003000300000000000000000001C
:1054D00000000000000000000000000000000000CC
:1054E000E003F003380E180C3800F003C007000C7E
:1054F000180C380EF007E003000000000000000068
:1055000000000000000000008000C000C000C000DB
:10551000F007F007C000C000C000C000C000C0001D
:10552000C000C000C00780070000000000000000AD
:10553000000000000000000000000000000000006B
:1055400018181818181818181818181818181818DB
:105550001818381CF01FE0190000000000000000BF
:10556000000000000000000000000000000000003B
:105570000C18180C180C180C300630063006600396
:1055800060036003C001C0010000000000000000D3
:10559000000000000000000000000000000000000B
:1055A000C141C141C36163636363636336363636A9
:1055B00036361C1C1C1C1C1C0000000000000000D7
:1055C00000000000000000000000000000000000DB
:1055D0001C38381C300C60066003600360036003F5
:1055E0006006300C381C1C38000000000000000071
:1055F00000000000000000000000000000000000AB
:105600001830301830187018600C600CE00CC006B0
:10561000C00680038003800380018001C001F00088
:10562000700000000000000000000000000000000A
:10563000FC1FFC1F000C000600038001C00060007E
:1056400030001800FC1FFC1F0000000000000000DC
:1056500000000000000000038001C000C000C00086
:10566000C000C000C000600060003000600040006A
:10567000C000C000C000C000C000C0008001000326
:105680000000000000008001800180018001800195
:105690008001800180018001800180018001800102
:1056A00080018001800180018001800180018001F2
:1056B0008001000000006000C000C0018001800186
:1056C0008001800180010003000300060003000147
:1056D000800180018001800180018001C0006000A4
:1056E00000000000000000000000000000000000BA
:1056F00000000000F010F81F080F0000000000007C
:105700000000000000000000000000000000000099
:1057100000000000010002000400060008000A006A
:105720000C00100020004000800000010101010376
:105730000701000008040204080101010000000044
:105740000000000001020304060708090000000031
:10575000010203040040404040404040404041417D
:105760004141414040404040404040404040404036
:1057700040404040400502020202020202020202D0
:1057800002020202022020202020202020202002CD
:10579000020202020202909090909090101010105D
:1057A00010101010101010101010101010101010F9
:1057B000020202020202888888888888080808088D
:1057C0000808080808080808080808080808080859
:1057D000020202024000000055570008FC57000872
:1057E0000000002054000000F0420008505800085B
:1057F000540000206C050000004300080000000079
:105800000000000000000000404040003132330042
:1058100000000000FFFFFFFFFFFF0000000000008E
:105820000000000000000000000000000000000078
:105830000000000000FF0000FFFF0000100000005B
:1058400001000000000000000024F400000000003F
:04000005080001D915
:00000001FF
