Component: ARM Compiler 5.06 update 7 (build 960) Tool: armlink [4d3601]

==============================================================================

Section Cross References

    main.o(i.SystemClock_Config) refers to memseta.o(.text) for __aeabi_memclr4
    main.o(i.SystemClock_Config) refers to stm32g4xx_hal_pwr_ex.o(i.HAL_PWREx_ControlVoltageScaling) for HAL_PWREx_ControlVoltageScaling
    main.o(i.SystemClock_Config) refers to stm32g4xx_hal_rcc.o(i.HAL_RCC_OscConfig) for HAL_RCC_OscConfig
    main.o(i.SystemClock_Config) refers to stm32g4xx_hal_rcc.o(i.HAL_RCC_ClockConfig) for HAL_RCC_ClockConfig
    main.o(i.main) refers to stm32g4xx_hal.o(i.HAL_Init) for HAL_Init
    main.o(i.main) refers to main.o(i.SystemClock_Config) for SystemClock_Config
    main.o(i.main) refers to gpio.o(i.MX_GPIO_Init) for MX_GPIO_Init
    main.o(i.main) refers to tim.o(i.MX_TIM6_Init) for MX_TIM6_Init
    main.o(i.main) refers to usart.o(i.MX_USART1_UART_Init) for MX_USART1_UART_Init
    main.o(i.main) refers to tim.o(i.MX_TIM2_Init) for MX_TIM2_Init
    main.o(i.main) refers to lcd.o(i.LCD_Init) for LCD_Init
    main.o(i.main) refers to stm32g4xx_hal_tim.o(i.HAL_TIM_Base_Start_IT) for HAL_TIM_Base_Start_IT
    main.o(i.main) refers to stm32g4xx_hal_tim.o(i.HAL_TIM_PWM_Start) for HAL_TIM_PWM_Start
    main.o(i.main) refers to stm32g4xx_hal_uart.o(i.HAL_UART_Receive_IT) for HAL_UART_Receive_IT
    main.o(i.main) refers to lcd.o(i.LCD_Clear) for LCD_Clear
    main.o(i.main) refers to lcd.o(i.LCD_SetTextColor) for LCD_SetTextColor
    main.o(i.main) refers to lcd.o(i.LCD_SetBackColor) for LCD_SetBackColor
    main.o(i.main) refers to task.o(i.Key_Proc) for Key_Proc
==============================================================================

Removing Unused input sections from the image.

    Removing main.o(.rev16_text), (4 bytes).
    Removing main.o(.revsh_text), (4 bytes).
    Removing main.o(.rrx_text), (6 bytes).
    Removing gpio.o(.rev16_text), (4 bytes).
    Removing gpio.o(.revsh_text), (4 bytes).
    Removing gpio.o(.rrx_text), (6 bytes).
    Removing tim.o(.rev16_text), (4 bytes).
    Removing tim.o(.revsh_text), (4 bytes).
    Removing tim.o(.rrx_text), (6 bytes).
    Removing tim.o(i.HAL_TIM_Base_MspDeInit), (48 bytes).
    Removing usart.o(.rev16_text), (4 bytes).
    Removing usart.o(.revsh_text), (4 bytes).
    Removing usart.o(.rrx_text), (6 bytes).
    Removing usart.o(i.HAL_UART_MspDeInit), (52 bytes).
    Removing stm32g4xx_it.o(.rev16_text), (4 bytes).
    Removing stm32g4xx_it.o(.revsh_text), (4 bytes).
    Removing stm32g4xx_it.o(.rrx_text), (6 bytes).
    Removing stm32g4xx_hal_msp.o(.rev16_text), (4 bytes).
==============================================================================

Image Symbol Table

    Local Symbols

    Symbol Name                              Value     Ov Type        Size  Object(Section)

    ../Core/Src/gpio.c                       0x00000000   Number         0  gpio.o ABSOLUTE
    ../Core/Src/main.c                       0x00000000   Number         0  main.o ABSOLUTE
    ../Core/Src/stm32g4xx_hal_msp.c          0x00000000   Number         0  stm32g4xx_hal_msp.o ABSOLUTE
    ../Core/Src/stm32g4xx_it.c               0x00000000   Number         0  stm32g4xx_it.o ABSOLUTE
    ../Core/Src/system_stm32g4xx.c           0x00000000   Number         0  system_stm32g4xx.o ABSOLUTE
    ../Core/Src/tim.c                        0x00000000   Number         0  tim.o ABSOLUTE
    ../Core/Src/usart.c                      0x00000000   Number         0  usart.o ABSOLUTE
    ../Drivers/STM32G4xx_HAL_Driver/Src/stm32g4xx_hal.c 0x00000000   Number         0  stm32g4xx_hal.o ABSOLUTE
    ../Drivers/STM32G4xx_HAL_Driver/Src/stm32g4xx_hal_cortex.c 0x00000000   Number         0  stm32g4xx_hal_cortex.o ABSOLUTE
    ../Drivers/STM32G4xx_HAL_Driver/Src/stm32g4xx_hal_dma.c 0x00000000   Number         0  stm32g4xx_hal_dma.o ABSOLUTE
    ../Drivers/STM32G4xx_HAL_Driver/Src/stm32g4xx_hal_dma_ex.c 0x00000000   Number         0  stm32g4xx_hal_dma_ex.o ABSOLUTE
    ../Drivers/STM32G4xx_HAL_Driver/Src/stm32g4xx_hal_exti.c 0x00000000   Number         0  stm32g4xx_hal_exti.o ABSOLUTE
    ../Drivers/STM32G4xx_HAL_Driver/Src/stm32g4xx_hal_flash.c 0x00000000   Number         0  stm32g4xx_hal_flash.o ABSOLUTE
    ../Drivers/STM32G4xx_HAL_Driver/Src/stm32g4xx_hal_flash_ex.c 0x00000000   Number         0  stm32g4xx_hal_flash_ex.o ABSOLUTE
    ../Drivers/STM32G4xx_HAL_Driver/Src/stm32g4xx_hal_flash_ramfunc.c 0x00000000   Number         0  stm32g4xx_hal_flash_ramfunc.o ABSOLUTE
    ../Drivers/STM32G4xx_HAL_Driver/Src/stm32g4xx_hal_gpio.c 0x00000000   Number         0  stm32g4xx_hal_gpio.o ABSOLUTE
    ../Drivers/STM32G4xx_HAL_Driver/Src/stm32g4xx_hal_pwr.c 0x00000000   Number         0  stm32g4xx_hal_pwr.o ABSOLUTE
    ../Drivers/STM32G4xx_HAL_Driver/Src/stm32g4xx_hal_pwr_ex.c 0x00000000   Number         0  stm32g4xx_hal_pwr_ex.o ABSOLUTE
    ../Drivers/STM32G4xx_HAL_Driver/Src/stm32g4xx_hal_rcc.c 0x00000000   Number         0  stm32g4xx_hal_rcc.o ABSOLUTE
    ../Drivers/STM32G4xx_HAL_Driver/Src/stm32g4xx_hal_rcc_ex.c 0x00000000   Number         0  stm32g4xx_hal_rcc_ex.o ABSOLUTE
    ../Drivers/STM32G4xx_HAL_Driver/Src/stm32g4xx_hal_tim.c 0x00000000   Number         0  stm32g4xx_hal_tim.o ABSOLUTE
    ../Drivers/STM32G4xx_HAL_Driver/Src/stm32g4xx_hal_tim_ex.c 0x00000000   Number         0  stm32g4xx_hal_tim_ex.o ABSOLUTE
    ../Drivers/STM32G4xx_HAL_Driver/Src/stm32g4xx_hal_uart.c 0x00000000   Number         0  stm32g4xx_hal_uart.o ABSOLUTE
    ../Drivers/STM32G4xx_HAL_Driver/Src/stm32g4xx_hal_uart_ex.c 0x00000000   Number         0  stm32g4xx_hal_uart_ex.o ABSOLUTE
    ../clib/microlib/ctype/ctype.c           0x00000000   Number         0  isspace_c.o ABSOLUTE
    ../clib/microlib/ctype/ctype.c           0x00000000   Number         0  isalpha_o.o ABSOLUTE
    ../clib/microlib/ctype/ctype.c           0x00000000   Number         0  ispunct_o.o ABSOLUTE
    ../clib/microlib/ctype/ctype.c           0x00000000   Number         0  isalnum_o.o ABSOLUTE
    ../clib/microlib/ctype/ctype.c           0x00000000   Number         0  isprint_o.o ABSOLUTE
    ../clib/microlib/ctype/ctype.c           0x00000000   Number         0  isgraph_o.o ABSOLUTE
    ../clib/microlib/ctype/ctype.c           0x00000000   Number         0  ctype_o.o ABSOLUTE
    ../clib/microlib/ctype/ctype.c           0x00000000   Number         0  iscntrl_o.o ABSOLUTE
    ../clib/microlib/ctype/ctype.c           0x00000000   Number         0  isspace_o.o ABSOLUTE
    ../clib/microlib/ctype/ctype.c           0x00000000   Number         0  isblank_o.o ABSOLUTE
    ../clib/microlib/ctype/ctype.c           0x00000000   Number         0  islower_o.o ABSOLUTE
    ../clib/microlib/ctype/ctype.c           0x00000000   Number         0  ctype_c.o ABSOLUTE
    ../clib/microlib/ctype/ctype.c           0x00000000   Number         0  isdigit_o.o ABSOLUTE
    ../clib/microlib/ctype/ctype.c           0x00000000   Number         0  isupper_o.o ABSOLUTE
    ../clib/microlib/ctype/ctype.c           0x00000000   Number         0  isxdigit_o.o ABSOLUTE
    ../clib/microlib/division.c              0x00000000   Number         0  uidiv.o ABSOLUTE
    ../clib/microlib/division.c              0x00000000   Number         0  uldiv.o ABSOLUTE
    ../clib/microlib/errno.c                 0x00000000   Number         0  errno.o ABSOLUTE
    ../clib/microlib/init/entry.s            0x00000000   Number         0  entry9b.o ABSOLUTE
    ../clib/microlib/init/entry.s            0x00000000   Number         0  entry12a.o ABSOLUTE
    ../clib/microlib/init/entry.s            0x00000000   Number         0  entry11a.o ABSOLUTE
    ../clib/microlib/init/entry.s            0x00000000   Number         0  entry12b.o ABSOLUTE
    ../clib/microlib/init/entry.s            0x00000000   Number         0  entry8a.o ABSOLUTE
    ../clib/microlib/init/entry.s            0x00000000   Number         0  entry9a.o ABSOLUTE
    ../clib/microlib/init/entry.s            0x00000000   Number         0  entry10b.o ABSOLUTE
    ../clib/microlib/init/entry.s            0x00000000   Number         0  entry8b.o ABSOLUTE
    ../clib/microlib/init/entry.s            0x00000000   Number         0  entry11b.o ABSOLUTE
    ../clib/microlib/init/entry.s            0x00000000   Number         0  entry7b.o ABSOLUTE
    ../clib/microlib/init/entry.s            0x00000000   Number         0  entry7a.o ABSOLUTE
    ../clib/microlib/init/entry.s            0x00000000   Number         0  entry.o ABSOLUTE
    ../clib/microlib/init/entry.s            0x00000000   Number         0  entry5.o ABSOLUTE
    ../clib/microlib/init/entry.s            0x00000000   Number         0  entry10a.o ABSOLUTE
    ../clib/microlib/init/entry.s            0x00000000   Number         0  entry2.o ABSOLUTE
    ../clib/microlib/longlong.c              0x00000000   Number         0  llshl.o ABSOLUTE
    ../clib/microlib/longlong.c              0x00000000   Number         0  llushr.o ABSOLUTE
    ../clib/microlib/longlong.c              0x00000000   Number         0  llsshr.o ABSOLUTE
    ../clib/microlib/printf/printf.c         0x00000000   Number         0  printf5.o ABSOLUTE
    ../clib/microlib/printf/printf.c         0x00000000   Number         0  printf1.o ABSOLUTE
    ../clib/microlib/printf/printf.c         0x00000000   Number         0  printf2.o ABSOLUTE
    ../clib/microlib/printf/printf.c         0x00000000   Number         0  printf3.o ABSOLUTE
    ../clib/microlib/printf/printf.c         0x00000000   Number         0  printf4.o ABSOLUTE
    ../clib/microlib/printf/printf.c         0x00000000   Number         0  printf8.o ABSOLUTE
    ../clib/microlib/printf/printf.c         0x00000000   Number         0  printf7.o ABSOLUTE
    ../clib/microlib/printf/printf.c         0x00000000   Number         0  printf6.o ABSOLUTE
    ../clib/microlib/printf/printf.c         0x00000000   Number         0  printfb.o ABSOLUTE
    ../clib/microlib/printf/printf.c         0x00000000   Number         0  printf0.o ABSOLUTE
    ../clib/microlib/printf/printf.c         0x00000000   Number         0  printfa.o ABSOLUTE
    ../clib/microlib/printf/stubs.s          0x00000000   Number         0  stubs.o ABSOLUTE
    ../clib/microlib/stdio/streams.c         0x00000000   Number         0  stdout.o ABSOLUTE
    ../clib/microlib/string/memset.c         0x00000000   Number         0  memseta.o ABSOLUTE
    ../clib/microlib/string/strcpy.c         0x00000000   Number         0  strcpy.o ABSOLUTE
    ../clib/microlib/string/strstr.c         0x00000000   Number         0  strstr.o ABSOLUTE
    ../clib/microlib/stubs.s                 0x00000000   Number         0  iusefp.o ABSOLUTE
    ../clib/scanf.c                          0x00000000   Number         0  _strtoul.o ABSOLUTE
    ../clib/scanf.c                          0x00000000   Number         0  _chval.o ABSOLUTE
    ../clib/scanf.c                          0x00000000   Number         0  scanf_char.o ABSOLUTE
    ../clib/scanf.c                          0x00000000   Number         0  strtol.o ABSOLUTE
    ../clib/scanf.c                          0x00000000   Number         0  atoi.o ABSOLUTE
    ../clib/scanf.c                          0x00000000   Number         0  _scanf.o ABSOLUTE
    ../clib/scanf.c                          0x00000000   Number         0  _scanf_str.o ABSOLUTE
    ../clib/scanf.c                          0x00000000   Number         0  _sgetc.o ABSOLUTE
    ../clib/scanf.c                          0x00000000   Number         0  __0sscanf.o ABSOLUTE
    ../fplib/microlib/fpadd.c                0x00000000   Number         0  dadd.o ABSOLUTE
    ../fplib/microlib/fpdiv.c                0x00000000   Number         0  ddiv.o ABSOLUTE
    ../fplib/microlib/fpepilogue.c           0x00000000   Number         0  depilogue.o ABSOLUTE
    ../fplib/microlib/fpfix.c                0x00000000   Number         0  dfixul.o ABSOLUTE
    ../fplib/microlib/fpmul.c                0x00000000   Number         0  dmul.o ABSOLUTE
    ..\Core\Src\gpio.c                       0x00000000   Number         0  gpio.o ABSOLUTE
    ..\Core\Src\main.c                       0x00000000   Number         0  main.o ABSOLUTE
    ..\Core\Src\stm32g4xx_hal_msp.c          0x00000000   Number         0  stm32g4xx_hal_msp.o ABSOLUTE
    ..\Core\Src\stm32g4xx_it.c               0x00000000   Number         0  stm32g4xx_it.o ABSOLUTE
    ..\Core\Src\system_stm32g4xx.c           0x00000000   Number         0  system_stm32g4xx.o ABSOLUTE
    ..\Core\Src\tim.c                        0x00000000   Number         0  tim.o ABSOLUTE
    ..\Core\Src\usart.c                      0x00000000   Number         0  usart.o ABSOLUTE
    ..\Drivers\STM32G4xx_HAL_Driver\Src\stm32g4xx_hal.c 0x00000000   Number         0  stm32g4xx_hal.o ABSOLUTE
    ..\Drivers\STM32G4xx_HAL_Driver\Src\stm32g4xx_hal_cortex.c 0x00000000   Number         0  stm32g4xx_hal_cortex.o ABSOLUTE
    ..\Drivers\STM32G4xx_HAL_Driver\Src\stm32g4xx_hal_dma.c 0x00000000   Number         0  stm32g4xx_hal_dma.o ABSOLUTE
    ..\Drivers\STM32G4xx_HAL_Driver\Src\stm32g4xx_hal_dma_ex.c 0x00000000   Number         0  stm32g4xx_hal_dma_ex.o ABSOLUTE
    ..\Drivers\STM32G4xx_HAL_Driver\Src\stm32g4xx_hal_exti.c 0x00000000   Number         0  stm32g4xx_hal_exti.o ABSOLUTE
    ..\Drivers\STM32G4xx_HAL_Driver\Src\stm32g4xx_hal_flash.c 0x00000000   Number         0  stm32g4xx_hal_flash.o ABSOLUTE
    ..\Drivers\STM32G4xx_HAL_Driver\Src\stm32g4xx_hal_flash_ex.c 0x00000000   Number         0  stm32g4xx_hal_flash_ex.o ABSOLUTE
    ..\Drivers\STM32G4xx_HAL_Driver\Src\stm32g4xx_hal_flash_ramfunc.c 0x00000000   Number         0  stm32g4xx_hal_flash_ramfunc.o ABSOLUTE
    ..\Drivers\STM32G4xx_HAL_Driver\Src\stm32g4xx_hal_gpio.c 0x00000000   Number         0  stm32g4xx_hal_gpio.o ABSOLUTE
    ..\Drivers\STM32G4xx_HAL_Driver\Src\stm32g4xx_hal_pwr.c 0x00000000   Number         0  stm32g4xx_hal_pwr.o ABSOLUTE
    ..\Drivers\STM32G4xx_HAL_Driver\Src\stm32g4xx_hal_pwr_ex.c 0x00000000   Number         0  stm32g4xx_hal_pwr_ex.o ABSOLUTE
    ..\Drivers\STM32G4xx_HAL_Driver\Src\stm32g4xx_hal_rcc.c 0x00000000   Number         0  stm32g4xx_hal_rcc.o ABSOLUTE
    ..\Drivers\STM32G4xx_HAL_Driver\Src\stm32g4xx_hal_rcc_ex.c 0x00000000   Number         0  stm32g4xx_hal_rcc_ex.o ABSOLUTE
    ..\Drivers\STM32G4xx_HAL_Driver\Src\stm32g4xx_hal_tim.c 0x00000000   Number         0  stm32g4xx_hal_tim.o ABSOLUTE
    ..\Drivers\STM32G4xx_HAL_Driver\Src\stm32g4xx_hal_tim_ex.c 0x00000000   Number         0  stm32g4xx_hal_tim_ex.o ABSOLUTE
    ..\Drivers\STM32G4xx_HAL_Driver\Src\stm32g4xx_hal_uart.c 0x00000000   Number         0  stm32g4xx_hal_uart.o ABSOLUTE
    ..\Drivers\STM32G4xx_HAL_Driver\Src\stm32g4xx_hal_uart_ex.c 0x00000000   Number         0  stm32g4xx_hal_uart_ex.o ABSOLUTE
    ..\Hardware\Key.c                        0x00000000   Number         0  key.o ABSOLUTE
    ..\Hardware\LED.c                        0x00000000   Number         0  led.o ABSOLUTE
    ..\Hardware\lcd.c                        0x00000000   Number         0  lcd.o ABSOLUTE
    ..\User\Task.c                           0x00000000   Number         0  task.o ABSOLUTE
    ..\User\interrupt.c                      0x00000000   Number         0  interrupt.o ABSOLUTE
    ..\\Hardware\\Key.c                      0x00000000   Number         0  key.o ABSOLUTE
    ..\\Hardware\\LED.c                      0x00000000   Number         0  led.o ABSOLUTE
    ..\\Hardware\\lcd.c                      0x00000000   Number         0  lcd.o ABSOLUTE
    ..\\User\\Task.c                         0x00000000   Number         0  task.o ABSOLUTE
    ..\\User\\interrupt.c                    0x00000000   Number         0  interrupt.o ABSOLUTE
    cdrcmple.s                               0x00000000   Number         0  cdrcmple.o ABSOLUTE
    dc.s                                     0x00000000   Number         0  dc.o ABSOLUTE
    handlers.s                               0x00000000   Number         0  handlers.o ABSOLUTE
    init.s                                   0x00000000   Number         0  init.o ABSOLUTE
    startup_stm32g431xx.s                    0x00000000   Number         0  startup_stm32g431xx.o ABSOLUTE
    RESET                                    0x08000000   Section      472  startup_stm32g431xx.o(RESET)
    .ARM.Collect$$$$00000000                 0x080001d8   Section        0  entry.o(.ARM.Collect$$$$00000000)
    .ARM.Collect$$$$00000001                 0x080001d8   Section        4  entry2.o(.ARM.Collect$$$$00000001)
    .ARM.Collect$$$$00000004                 0x080001dc   Section        4  entry5.o(.ARM.Collect$$$$00000004)
    .ARM.Collect$$$$00000008                 0x080001e0   Section        0  entry7b.o(.ARM.Collect$$$$00000008)
    .ARM.Collect$$$$0000000A                 0x080001e0   Section        0  entry8b.o(.ARM.Collect$$$$0000000A)
    .ARM.Collect$$$$0000000B                 0x080001e0   Section        8  entry9a.o(.ARM.Collect$$$$0000000B)
    .ARM.Collect$$$$0000000E                 0x080001e8   Section        4  entry12b.o(.ARM.Collect$$$$0000000E)
    .ARM.Collect$$$$0000000F                 0x080001ec   Section        0  entry10a.o(.ARM.Collect$$$$0000000F)
    .ARM.Collect$$$$00000011                 0x080001ec   Section        0  entry11a.o(.ARM.Collect$$$$00000011)
    .ARM.Collect$$$$00002712                 0x080001ec   Section        4  entry2.o(.ARM.Collect$$$$00002712)
    __lit__00000000                          0x080001ec   Data           4  entry2.o(.ARM.Collect$$$$00002712)
    .text                                    0x080001f0   Section       36  startup_stm32g431xx.o(.text)
    $v0                                      0x080001f0   Number         0  startup_stm32g431xx.o(.text)
    .text                                    0x08000214   Section        0  uldiv.o(.text)
    .text                                    0x08000276   Section        0  memseta.o(.text)
    .text                                    0x0800029a   Section        0  strstr.o(.text)
    .text                                    0x080002be   Section        0  strcpy.o(.text)
    .text                                    0x080002d0   Section        0  __0sscanf.o(.text)
    .text                                    0x08000308   Section        0  _scanf_str.o(.text)
    .text                                    0x080003e8   Section        0  atoi.o(.text)
    .text                                    0x08000402   Section        0  uidiv.o(.text)
    .text                                    0x0800042e   Section        0  llshl.o(.text)
    .text                                    0x0800044c   Section        0  llushr.o(.text)
    .text                                    0x0800046c   Section        0  scanf_char.o(.text)
    _scanf_char_input                        0x0800046d   Thumb Code    12  scanf_char.o(.text)
    .text                                    0x08000494   Section        0  _sgetc.o(.text)
    .text                                    0x080004d4   Section        0  strtol.o(.text)
    .text                                    0x08000544   Section       36  init.o(.text)
    .text                                    0x08000568   Section        0  ctype_o.o(.text)
    .text                                    0x08000570   Section        0  isspace_o.o(.text)
    .text                                    0x08000584   Section        0  _scanf.o(.text)
    .text                                    0x080008b4   Section        0  _strtoul.o(.text)
    .text                                    0x08000952   Section        0  _chval.o(.text)
    i.BusFault_Handler                       0x0800096e   Section        0  stm32g4xx_it.o(i.BusFault_Handler)
    i.DebugMon_Handler                       0x08000970   Section        0  stm32g4xx_it.o(i.DebugMon_Handler)
    i.Delay_LCD                              0x08000972   Section        0  lcd.o(i.Delay_LCD)
    i.Error_Handler                          0x0800098e   Section        0  main.o(i.Error_Handler)
    i.HAL_DMA_Abort                          0x08000992   Section        0  stm32g4xx_hal_dma.o(i.HAL_DMA_Abort)
    i.HAL_DMA_Abort_IT                       0x080009fc   Section        0  stm32g4xx_hal_dma.o(i.HAL_DMA_Abort_IT)
    i.HAL_Delay                              0x08000a74   Section        0  stm32g4xx_hal.o(i.HAL_Delay)
    i.HAL_GPIO_Init                          0x08000a98   Section        0  stm32g4xx_hal_gpio.o(i.HAL_GPIO_Init)
    i.HAL_GPIO_ReadPin                       0x08000ce0   Section        0  stm32g4xx_hal_gpio.o(i.HAL_GPIO_ReadPin)
    i.HAL_GPIO_WritePin                      0x08000cea   Section        0  stm32g4xx_hal_gpio.o(i.HAL_GPIO_WritePin)
    i.HAL_GetTick                            0x08000cf4   Section        0  stm32g4xx_hal.o(i.HAL_GetTick)
    i.HAL_IncTick                            0x08000d00   Section        0  stm32g4xx_hal.o(i.HAL_IncTick)
    i.HAL_Init                               0x08000d10   Section        0  stm32g4xx_hal.o(i.HAL_Init)
    i.HAL_InitTick                           0x08000d30   Section        0  stm32g4xx_hal.o(i.HAL_InitTick)
    i.HAL_MspInit                            0x08000d74   Section        0  stm32g4xx_hal_msp.o(i.HAL_MspInit)
    i.HAL_NVIC_EnableIRQ                     0x08000da4   Section        0  stm32g4xx_hal_cortex.o(i.HAL_NVIC_EnableIRQ)
    i.HAL_NVIC_SetPriority                   0x08000dc0   Section        0  stm32g4xx_hal_cortex.o(i.HAL_NVIC_SetPriority)
    i.HAL_NVIC_SetPriorityGrouping           0x08000e00   Section        0  stm32g4xx_hal_cortex.o(i.HAL_NVIC_SetPriorityGrouping)
    i.HAL_PWREx_ControlVoltageScaling        0x08000e24   Section        0  stm32g4xx_hal_pwr_ex.o(i.HAL_PWREx_ControlVoltageScaling)
    i.HAL_PWREx_DisableUCPDDeadBattery       0x08000ee0   Section        0  stm32g4xx_hal_pwr_ex.o(i.HAL_PWREx_DisableUCPDDeadBattery)
    i.HAL_RCCEx_PeriphCLKConfig              0x08000ef0   Section        0  stm32g4xx_hal_rcc_ex.o(i.HAL_RCCEx_PeriphCLKConfig)
    i.HAL_RCC_ClockConfig                    0x08001178   Section        0  stm32g4xx_hal_rcc.o(i.HAL_RCC_ClockConfig)
    i.HAL_RCC_GetPCLK1Freq                   0x08001354   Section        0  stm32g4xx_hal_rcc.o(i.HAL_RCC_GetPCLK1Freq)
    i.HAL_RCC_GetPCLK2Freq                   0x08001378   Section        0  stm32g4xx_hal_rcc.o(i.HAL_RCC_GetPCLK2Freq)
    i.HAL_RCC_GetSysClockFreq                0x0800139c   Section        0  stm32g4xx_hal_rcc.o(i.HAL_RCC_GetSysClockFreq)
    i.HAL_RCC_OscConfig                      0x0800140c   Section        0  stm32g4xx_hal_rcc.o(i.HAL_RCC_OscConfig)
    i.HAL_SYSTICK_Config                     0x08001810   Section        0  stm32g4xx_hal_cortex.o(i.HAL_SYSTICK_Config)
    i.HAL_TIMEx_Break2Callback               0x08001838   Section        0  stm32g4xx_hal_tim_ex.o(i.HAL_TIMEx_Break2Callback)
    i.HAL_TIMEx_BreakCallback                0x0800183a   Section        0  stm32g4xx_hal_tim_ex.o(i.HAL_TIMEx_BreakCallback)
    i.HAL_TIMEx_CommutCallback               0x0800183c   Section        0  stm32g4xx_hal_tim_ex.o(i.HAL_TIMEx_CommutCallback)
    i.HAL_TIMEx_DirectionChangeCallback      0x0800183e   Section        0  stm32g4xx_hal_tim_ex.o(i.HAL_TIMEx_DirectionChangeCallback)
    i.HAL_TIMEx_EncoderIndexCallback         0x08001840   Section        0  stm32g4xx_hal_tim_ex.o(i.HAL_TIMEx_EncoderIndexCallback)
    i.HAL_TIMEx_IndexErrorCallback           0x08001842   Section        0  stm32g4xx_hal_tim_ex.o(i.HAL_TIMEx_IndexErrorCallback)
    i.HAL_TIMEx_MasterConfigSynchronization  0x08001844   Section        0  stm32g4xx_hal_tim_ex.o(i.HAL_TIMEx_MasterConfigSynchronization)
    i.HAL_TIMEx_TransitionErrorCallback      0x080018e0   Section        0  stm32g4xx_hal_tim_ex.o(i.HAL_TIMEx_TransitionErrorCallback)
    i.HAL_TIM_Base_Init                      0x080018e2   Section        0  stm32g4xx_hal_tim.o(i.HAL_TIM_Base_Init)
    i.HAL_TIM_Base_MspInit                   0x08001944   Section        0  tim.o(i.HAL_TIM_Base_MspInit)
    i.HAL_TIM_Base_Start_IT                  0x08001994   Section        0  stm32g4xx_hal_tim.o(i.HAL_TIM_Base_Start_IT)
    i.HAL_TIM_ConfigClockSource              0x08001a0c   Section        0  stm32g4xx_hal_tim.o(i.HAL_TIM_ConfigClockSource)
    i.HAL_TIM_IC_CaptureCallback             0x08001b0c   Section        0  stm32g4xx_hal_tim.o(i.HAL_TIM_IC_CaptureCallback)
    i.HAL_TIM_IRQHandler                     0x08001b0e   Section        0  stm32g4xx_hal_tim.o(i.HAL_TIM_IRQHandler)
    i.HAL_TIM_MspPostInit                    0x08001cb0   Section        0  tim.o(i.HAL_TIM_MspPostInit)
    i.HAL_TIM_OC_DelayElapsedCallback        0x08001cfc   Section        0  stm32g4xx_hal_tim.o(i.HAL_TIM_OC_DelayElapsedCallback)
    i.HAL_TIM_PWM_ConfigChannel              0x08001cfe   Section        0  stm32g4xx_hal_tim.o(i.HAL_TIM_PWM_ConfigChannel)
    i.HAL_TIM_PWM_Init                       0x08001e22   Section        0  stm32g4xx_hal_tim.o(i.HAL_TIM_PWM_Init)
    i.HAL_TIM_PWM_MspInit                    0x08001e84   Section        0  stm32g4xx_hal_tim.o(i.HAL_TIM_PWM_MspInit)
    i.HAL_TIM_PWM_PulseFinishedCallback      0x08001e86   Section        0  stm32g4xx_hal_tim.o(i.HAL_TIM_PWM_PulseFinishedCallback)
    i.HAL_TIM_PWM_Start                      0x08001e88   Section        0  stm32g4xx_hal_tim.o(i.HAL_TIM_PWM_Start)
    i.HAL_TIM_PeriodElapsedCallback          0x08001f84   Section        0  interrupt.o(i.HAL_TIM_PeriodElapsedCallback)
    i.HAL_TIM_TriggerCallback                0x08002048   Section        0  stm32g4xx_hal_tim.o(i.HAL_TIM_TriggerCallback)
    i.HAL_UARTEx_DisableFifoMode             0x0800204a   Section        0  stm32g4xx_hal_uart_ex.o(i.HAL_UARTEx_DisableFifoMode)
    i.HAL_UARTEx_RxEventCallback             0x08002088   Section        0  stm32g4xx_hal_uart.o(i.HAL_UARTEx_RxEventCallback)
    i.HAL_UARTEx_RxFifoFullCallback          0x0800208a   Section        0  stm32g4xx_hal_uart_ex.o(i.HAL_UARTEx_RxFifoFullCallback)
    i.HAL_UARTEx_SetRxFifoThreshold          0x0800208c   Section        0  stm32g4xx_hal_uart_ex.o(i.HAL_UARTEx_SetRxFifoThreshold)
    i.HAL_UARTEx_SetTxFifoThreshold          0x080020d8   Section        0  stm32g4xx_hal_uart_ex.o(i.HAL_UARTEx_SetTxFifoThreshold)
    i.HAL_UARTEx_TxFifoEmptyCallback         0x08002124   Section        0  stm32g4xx_hal_uart_ex.o(i.HAL_UARTEx_TxFifoEmptyCallback)
    i.HAL_UARTEx_WakeupCallback              0x08002126   Section        0  stm32g4xx_hal_uart_ex.o(i.HAL_UARTEx_WakeupCallback)
    i.HAL_UART_ErrorCallback                 0x08002128   Section        0  stm32g4xx_hal_uart.o(i.HAL_UART_ErrorCallback)
    i.HAL_UART_IRQHandler                    0x0800212c   Section        0  stm32g4xx_hal_uart.o(i.HAL_UART_IRQHandler)
    i.HAL_UART_Init                          0x08002438   Section        0  stm32g4xx_hal_uart.o(i.HAL_UART_Init)
    i.HAL_UART_MspInit                       0x080024a4   Section        0  usart.o(i.HAL_UART_MspInit)
    i.HAL_UART_Receive_IT                    0x08002530   Section        0  stm32g4xx_hal_uart.o(i.HAL_UART_Receive_IT)
    i.HAL_UART_RxCpltCallback                0x08002578   Section        0  interrupt.o(i.HAL_UART_RxCpltCallback)
    i.HAL_UART_TxCpltCallback                0x080025b0   Section        0  stm32g4xx_hal_uart.o(i.HAL_UART_TxCpltCallback)
    i.HardFault_Handler                      0x080025b2   Section        0  stm32g4xx_it.o(i.HardFault_Handler)
    i.Key_Proc                               0x080025b4   Section        0  task.o(i.Key_Proc)
    i.Key_Read                               0x08002664   Section        0  key.o(i.Key_Read)
    i.LCD_BusIn                              0x080026a4   Section        0  lcd.o(i.LCD_BusIn)
    i.LCD_BusOut                             0x080026d0   Section        0  lcd.o(i.LCD_BusOut)
    i.LCD_Clear                              0x08002700   Section        0  lcd.o(i.LCD_Clear)
    i.LCD_CtrlLinesConfig                    0x08002724   Section        0  lcd.o(i.LCD_CtrlLinesConfig)
    i.LCD_DisplayChar                        0x080027b4   Section        0  lcd.o(i.LCD_DisplayChar)
    i.LCD_DisplayStringLine                  0x080027cc   Section        0  lcd.o(i.LCD_DisplayStringLine)
    i.LCD_DrawChar                           0x080027f8   Section        0  lcd.o(i.LCD_DrawChar)
    i.LCD_Init                               0x08002850   Section        0  lcd.o(i.LCD_Init)
    i.LCD_Proc                               0x08002884   Section        0  task.o(i.LCD_Proc)
    i.LCD_ReadReg                            0x08002980   Section        0  lcd.o(i.LCD_ReadReg)
    i.LCD_SetBackColor                       0x08002a00   Section        0  lcd.o(i.LCD_SetBackColor)
    i.LCD_SetCursor                          0x08002a10   Section        0  lcd.o(i.LCD_SetCursor)
    i.LCD_SetTextColor                       0x08002a28   Section        0  lcd.o(i.LCD_SetTextColor)
    i.LCD_WriteRAM                           0x08002a38   Section        0  lcd.o(i.LCD_WriteRAM)
    i.LCD_WriteRAM_Prepare                   0x08002a98   Section        0  lcd.o(i.LCD_WriteRAM_Prepare)
    i.LCD_WriteReg                           0x08002af8   Section        0  lcd.o(i.LCD_WriteReg)
    i.LED_DisPlay                            0x08002b68   Section        0  led.o(i.LED_DisPlay)
    i.LED_Proc                               0x08002bc8   Section        0  task.o(i.LED_Proc)
    i.MX_GPIO_Init                           0x08002bfc   Section        0  gpio.o(i.MX_GPIO_Init)
    i.MX_TIM2_Init                           0x08002d1c   Section        0  tim.o(i.MX_TIM2_Init)
    i.MX_TIM6_Init                           0x08002db8   Section        0  tim.o(i.MX_TIM6_Init)
    i.MX_USART1_UART_Init                    0x08002e00   Section        0  usart.o(i.MX_USART1_UART_Init)
    i.MemManage_Handler                      0x08002e68   Section        0  stm32g4xx_it.o(i.MemManage_Handler)
    i.NMI_Handler                            0x08002e6a   Section        0  stm32g4xx_it.o(i.NMI_Handler)
    i.PA1_Set_PWM_Duty                       0x08002e6c   Section        0  interrupt.o(i.PA1_Set_PWM_Duty)
    i.PendSV_Handler                         0x08002e84   Section        0  stm32g4xx_it.o(i.PendSV_Handler)
    i.REG_8230_Init                          0x08002e86   Section        0  lcd.o(i.REG_8230_Init)
    i.REG_932X_Init                          0x08002f98   Section        0  lcd.o(i.REG_932X_Init)
    i.Read_Proc                              0x0800319c   Section        0  task.o(i.Read_Proc)
    i.SVC_Handler                            0x080031ec   Section        0  stm32g4xx_it.o(i.SVC_Handler)
    i.Serial_Proc                            0x080031f0   Section        0  task.o(i.Serial_Proc)
    i.SysTick_Handler                        0x08003288   Section        0  stm32g4xx_it.o(i.SysTick_Handler)
    i.SystemClock_Config                     0x0800328c   Section        0  main.o(i.SystemClock_Config)
    i.SystemInit                             0x080032f8   Section        0  system_stm32g4xx.o(i.SystemInit)
    i.TIM6_DAC_IRQHandler                    0x08003308   Section        0  stm32g4xx_it.o(i.TIM6_DAC_IRQHandler)
    i.TIM_Base_SetConfig                     0x08003314   Section        0  stm32g4xx_hal_tim.o(i.TIM_Base_SetConfig)
    i.TIM_CCxChannelCmd                      0x080033d0   Section        0  stm32g4xx_hal_tim.o(i.TIM_CCxChannelCmd)
    i.TIM_ETR_SetConfig                      0x080033ea   Section        0  stm32g4xx_hal_tim.o(i.TIM_ETR_SetConfig)
    i.TIM_ITRx_SetConfig                     0x08003400   Section        0  stm32g4xx_hal_tim.o(i.TIM_ITRx_SetConfig)
    TIM_ITRx_SetConfig                       0x08003401   Thumb Code    16  stm32g4xx_hal_tim.o(i.TIM_ITRx_SetConfig)
    i.TIM_OC1_SetConfig                      0x08003414   Section        0  stm32g4xx_hal_tim.o(i.TIM_OC1_SetConfig)
    TIM_OC1_SetConfig                        0x08003415   Thumb Code   132  stm32g4xx_hal_tim.o(i.TIM_OC1_SetConfig)
    i.TIM_OC2_SetConfig                      0x080034b0   Section        0  stm32g4xx_hal_tim.o(i.TIM_OC2_SetConfig)
    i.TIM_OC3_SetConfig                      0x08003540   Section        0  stm32g4xx_hal_tim.o(i.TIM_OC3_SetConfig)
    TIM_OC3_SetConfig                        0x08003541   Thumb Code   118  stm32g4xx_hal_tim.o(i.TIM_OC3_SetConfig)
    i.TIM_OC4_SetConfig                      0x080035d0   Section        0  stm32g4xx_hal_tim.o(i.TIM_OC4_SetConfig)
    TIM_OC4_SetConfig                        0x080035d1   Thumb Code   120  stm32g4xx_hal_tim.o(i.TIM_OC4_SetConfig)
    i.TIM_OC5_SetConfig                      0x08003660   Section        0  stm32g4xx_hal_tim.o(i.TIM_OC5_SetConfig)
    TIM_OC5_SetConfig                        0x08003661   Thumb Code    86  stm32g4xx_hal_tim.o(i.TIM_OC5_SetConfig)
    i.TIM_OC6_SetConfig                      0x080036d0   Section        0  stm32g4xx_hal_tim.o(i.TIM_OC6_SetConfig)
    TIM_OC6_SetConfig                        0x080036d1   Thumb Code    88  stm32g4xx_hal_tim.o(i.TIM_OC6_SetConfig)
    i.TIM_TI1_ConfigInputStage               0x08003740   Section        0  stm32g4xx_hal_tim.o(i.TIM_TI1_ConfigInputStage)
    TIM_TI1_ConfigInputStage                 0x08003741   Thumb Code    34  stm32g4xx_hal_tim.o(i.TIM_TI1_ConfigInputStage)
    i.TIM_TI2_ConfigInputStage               0x08003762   Section        0  stm32g4xx_hal_tim.o(i.TIM_TI2_ConfigInputStage)
    TIM_TI2_ConfigInputStage                 0x08003763   Thumb Code    36  stm32g4xx_hal_tim.o(i.TIM_TI2_ConfigInputStage)
    i.UARTEx_SetNbDataToProcess              0x08003788   Section        0  stm32g4xx_hal_uart_ex.o(i.UARTEx_SetNbDataToProcess)
    UARTEx_SetNbDataToProcess                0x08003789   Thumb Code    62  stm32g4xx_hal_uart_ex.o(i.UARTEx_SetNbDataToProcess)
    i.UART_AdvFeatureConfig                  0x080037cc   Section        0  stm32g4xx_hal_uart.o(i.UART_AdvFeatureConfig)
    i.UART_CheckIdleState                    0x08003894   Section        0  stm32g4xx_hal_uart.o(i.UART_CheckIdleState)
    i.UART_DMAAbortOnError                   0x08003940   Section        0  stm32g4xx_hal_uart.o(i.UART_DMAAbortOnError)
    UART_DMAAbortOnError                     0x08003941   Thumb Code    20  stm32g4xx_hal_uart.o(i.UART_DMAAbortOnError)
    i.UART_EndRxTransfer                     0x08003954   Section        0  stm32g4xx_hal_uart.o(i.UART_EndRxTransfer)
    UART_EndRxTransfer                       0x08003955   Thumb Code    78  stm32g4xx_hal_uart.o(i.UART_EndRxTransfer)
    i.UART_RxISR_16BIT                       0x080039a8   Section        0  stm32g4xx_hal_uart.o(i.UART_RxISR_16BIT)
    UART_RxISR_16BIT                         0x080039a9   Thumb Code   196  stm32g4xx_hal_uart.o(i.UART_RxISR_16BIT)
    i.UART_RxISR_16BIT_FIFOEN                0x08003a70   Section        0  stm32g4xx_hal_uart.o(i.UART_RxISR_16BIT_FIFOEN)
    UART_RxISR_16BIT_FIFOEN                  0x08003a71   Thumb Code   404  stm32g4xx_hal_uart.o(i.UART_RxISR_16BIT_FIFOEN)
    i.UART_RxISR_8BIT                        0x08003c10   Section        0  stm32g4xx_hal_uart.o(i.UART_RxISR_8BIT)
    UART_RxISR_8BIT                          0x08003c11   Thumb Code   196  stm32g4xx_hal_uart.o(i.UART_RxISR_8BIT)
    i.UART_RxISR_8BIT_FIFOEN                 0x08003cd8   Section        0  stm32g4xx_hal_uart.o(i.UART_RxISR_8BIT_FIFOEN)
    UART_RxISR_8BIT_FIFOEN                   0x08003cd9   Thumb Code   404  stm32g4xx_hal_uart.o(i.UART_RxISR_8BIT_FIFOEN)
    i.UART_SetConfig                         0x08003e78   Section        0  stm32g4xx_hal_uart.o(i.UART_SetConfig)
    i.UART_Start_Receive_IT                  0x080040ec   Section        0  stm32g4xx_hal_uart.o(i.UART_Start_Receive_IT)
    i.UART_WaitOnFlagUntilTimeout            0x080041fc   Section        0  stm32g4xx_hal_uart.o(i.UART_WaitOnFlagUntilTimeout)
    i.USART1_IRQHandler                      0x08004290   Section        0  stm32g4xx_it.o(i.USART1_IRQHandler)
    i.UsageFault_Handler                     0x0800429c   Section        0  stm32g4xx_it.o(i.UsageFault_Handler)
    i.__0sprintf$3                           0x080042a0   Section        0  printf3.o(i.__0sprintf$3)
    i.__NVIC_SetPriority                     0x080042c8   Section        0  stm32g4xx_hal_cortex.o(i.__NVIC_SetPriority)
    __NVIC_SetPriority                       0x080042c9   Thumb Code    32  stm32g4xx_hal_cortex.o(i.__NVIC_SetPriority)
    i.__aeabi_errno_addr                     0x080042e8   Section        0  errno.o(i.__aeabi_errno_addr)
    i.__scatterload_copy                     0x080042f0   Section       14  handlers.o(i.__scatterload_copy)
    i.__scatterload_null                     0x080042fe   Section        2  handlers.o(i.__scatterload_null)
    i.__scatterload_zeroinit                 0x08004300   Section       14  handlers.o(i.__scatterload_zeroinit)
    i._printf_core                           0x08004310   Section        0  printf3.o(i._printf_core)
    _printf_core                             0x08004311   Thumb Code   436  printf3.o(i._printf_core)
    i._sputc                                 0x080044c8   Section        0  printf3.o(i._sputc)
    _sputc                                   0x080044c9   Thumb Code    10  printf3.o(i._sputc)
    i.main                                   0x080044d4   Section        0  main.o(i.main)
    .constdata                               0x08004544   Section     4560  lcd.o(.constdata)
    .constdata                               0x08005714   Section       24  stm32g4xx_hal_uart.o(.constdata)
    .constdata                               0x0800572c   Section       16  stm32g4xx_hal_uart_ex.o(.constdata)
    numerator                                0x0800572c   Data           8  stm32g4xx_hal_uart_ex.o(.constdata)
    denominator                              0x08005734   Data           8  stm32g4xx_hal_uart_ex.o(.constdata)
    .constdata                               0x0800573c   Section       16  system_stm32g4xx.o(.constdata)
    .constdata                               0x0800574c   Section        8  system_stm32g4xx.o(.constdata)
    .constdata                               0x08005754   Section      129  ctype_o.o(.constdata)
    .constdata                               0x080057d8   Section        4  ctype_o.o(.constdata)
    table                                    0x080057d8   Data           4  ctype_o.o(.constdata)
    .data                                    0x20000000   Section       30  task.o(.data)
    .data                                    0x20000020   Section       24  interrupt.o(.data)
    Tim_Total_Pos                            0x20000026   Data           2  interrupt.o(.data)
    Time5S                                   0x20000028   Data           2  interrupt.o(.data)
    .data                                    0x20000038   Section        2  led.o(.data)
    Temp                                     0x20000038   Data           1  led.o(.data)
    Temp_Old                                 0x20000039   Data           1  led.o(.data)
    .data                                    0x2000003a   Section        6  lcd.o(.data)
    TextColor                                0x2000003a   Data           2  lcd.o(.data)
    BackColor                                0x2000003c   Data           2  lcd.o(.data)
    .data                                    0x20000040   Section       12  stm32g4xx_hal.o(.data)
    .data                                    0x2000004c   Section        4  system_stm32g4xx.o(.data)
    .data                                    0x20000050   Section        4  errno.o(.data)
    _errno                                   0x20000050   Data           4  errno.o(.data)
    .bss                                     0x20000054   Section      152  tim.o(.bss)
    .bss                                     0x200000ec   Section      148  usart.o(.bss)
    .bss                                     0x20000180   Section       30  task.o(.bss)
    .bss                                     0x2000019e   Section       30  interrupt.o(.bss)
    STACK                                    0x200001c0   Section     1024  startup_stm32g431xx.o(STACK)

    Global Symbols

    Symbol Name                              Value     Ov Type        Size  Object(Section)

    BuildAttributes$$THM_ISAv4$E$P$D$K$B$S$7EM$VFPi3$EXTD16$VFPS$VFMA$PE$A:L22UL41UL21$X:L11$S22US41US21$IEEE1$IW$USESV6$~STKCKD$USESV7$~SHL$OSPACE$ROPI$EBA8$MICROLIB$REQ8$PRES8$EABIv2 0x00000000   Number         0  anon$$obj.o ABSOLUTE
    __ARM_use_no_argv                        0x00000000   Number         0  main.o ABSOLUTE
    _printf_a                                0x00000000   Number         0  stubs.o ABSOLUTE
    _printf_c                                0x00000000   Number         0  stubs.o ABSOLUTE
    _printf_charcount                        0x00000000   Number         0  stubs.o ABSOLUTE
    _printf_d                                0x00000000   Number         0  stubs.o ABSOLUTE
    _printf_e                                0x00000000   Number         0  stubs.o ABSOLUTE
    _printf_f                                0x00000000   Number         0  stubs.o ABSOLUTE
    _printf_flags                            0x00000000   Number         0  stubs.o ABSOLUTE
    _printf_fp_dec                           0x00000000   Number         0  stubs.o ABSOLUTE
    _printf_fp_hex                           0x00000000   Number         0  stubs.o ABSOLUTE
    _printf_g                                0x00000000   Number         0  stubs.o ABSOLUTE
    _printf_i                                0x00000000   Number         0  stubs.o ABSOLUTE
    _printf_int_dec                          0x00000000   Number         0  stubs.o ABSOLUTE
    _printf_l                                0x00000000   Number         0  stubs.o ABSOLUTE
    _printf_lc                               0x00000000   Number         0  stubs.o ABSOLUTE
    _printf_ll                               0x00000000   Number         0  stubs.o ABSOLUTE
    _printf_lld                              0x00000000   Number         0  stubs.o ABSOLUTE
    _printf_lli                              0x00000000   Number         0  stubs.o ABSOLUTE
    _printf_llo                              0x00000000   Number         0  stubs.o ABSOLUTE
    _printf_llu                              0x00000000   Number         0  stubs.o ABSOLUTE
    _printf_llx                              0x00000000   Number         0  stubs.o ABSOLUTE
    _printf_longlong_dec                     0x00000000   Number         0  stubs.o ABSOLUTE
    _printf_longlong_hex                     0x00000000   Number         0  stubs.o ABSOLUTE
    _printf_longlong_oct                     0x00000000   Number         0  stubs.o ABSOLUTE
    _printf_ls                               0x00000000   Number         0  stubs.o ABSOLUTE
    _printf_mbtowc                           0x00000000   Number         0  stubs.o ABSOLUTE
    _printf_n                                0x00000000   Number         0  stubs.o ABSOLUTE
    _printf_o                                0x00000000   Number         0  stubs.o ABSOLUTE
    _printf_p                                0x00000000   Number         0  stubs.o ABSOLUTE
    _printf_percent                          0x00000000   Number         0  stubs.o ABSOLUTE
    _printf_pre_padding                      0x00000000   Number         0  stubs.o ABSOLUTE
    _printf_return_value                     0x00000000   Number         0  stubs.o ABSOLUTE
    _printf_s                                0x00000000   Number         0  stubs.o ABSOLUTE
    _printf_sizespec                         0x00000000   Number         0  stubs.o ABSOLUTE
    _printf_str                              0x00000000   Number         0  stubs.o ABSOLUTE
    _printf_truncate_signed                  0x00000000   Number         0  stubs.o ABSOLUTE
    _printf_truncate_unsigned                0x00000000   Number         0  stubs.o ABSOLUTE
    _printf_u                                0x00000000   Number         0  stubs.o ABSOLUTE
    _printf_wc                               0x00000000   Number         0  stubs.o ABSOLUTE
    _printf_wctomb                           0x00000000   Number         0  stubs.o ABSOLUTE
    _printf_widthprec                        0x00000000   Number         0  stubs.o ABSOLUTE
    _printf_x                                0x00000000   Number         0  stubs.o ABSOLUTE
    __arm_fini_                               - Undefined Weak Reference
    __cpp_initialize__aeabi_                  - Undefined Weak Reference
    __cxa_finalize                            - Undefined Weak Reference
    __decompress                              - Undefined Weak Reference
    _clock_init                               - Undefined Weak Reference
    _microlib_exit                            - Undefined Weak Reference
    _scanf_int                                - Undefined Weak Reference
    _scanf_longlong                           - Undefined Weak Reference
    _scanf_real                               - Undefined Weak Reference
    __Vectors_Size                           0x000001d8   Number         0  startup_stm32g431xx.o ABSOLUTE
    __Vectors                                0x08000000   Data           4  startup_stm32g431xx.o(RESET)
    __Vectors_End                            0x080001d8   Data           0  startup_stm32g431xx.o(RESET)
    __main                                   0x080001d9   Thumb Code     0  entry.o(.ARM.Collect$$$$00000000)
    _main_stk                                0x080001d9   Thumb Code     0  entry2.o(.ARM.Collect$$$$00000001)
    _main_scatterload                        0x080001dd   Thumb Code     0  entry5.o(.ARM.Collect$$$$00000004)
    __main_after_scatterload                 0x080001e1   Thumb Code     0  entry5.o(.ARM.Collect$$$$00000004)
    _main_clock                              0x080001e1   Thumb Code     0  entry7b.o(.ARM.Collect$$$$00000008)
    _main_cpp_init                           0x080001e1   Thumb Code     0  entry8b.o(.ARM.Collect$$$$0000000A)
    _main_init                               0x080001e1   Thumb Code     0  entry9a.o(.ARM.Collect$$$$0000000B)
    __rt_lib_shutdown_fini                   0x080001e9   Thumb Code     0  entry12b.o(.ARM.Collect$$$$0000000E)
    __rt_final_cpp                           0x080001ed   Thumb Code     0  entry10a.o(.ARM.Collect$$$$0000000F)
    __rt_final_exit                          0x080001ed   Thumb Code     0  entry11a.o(.ARM.Collect$$$$00000011)
    Reset_Handler                            0x080001f1   Thumb Code     8  startup_stm32g431xx.o(.text)
    ADC1_2_IRQHandler                        0x0800020b   Thumb Code     0  startup_stm32g431xx.o(.text)
    COMP1_2_3_IRQHandler                     0x0800020b   Thumb Code     0  startup_stm32g431xx.o(.text)
    COMP4_IRQHandler                         0x0800020b   Thumb Code     0  startup_stm32g431xx.o(.text)
    CORDIC_IRQHandler                        0x0800020b   Thumb Code     0  startup_stm32g431xx.o(.text)
    CRS_IRQHandler                           0x0800020b   Thumb Code     0  startup_stm32g431xx.o(.text)
    DMA1_Channel1_IRQHandler                 0x0800020b   Thumb Code     0  startup_stm32g431xx.o(.text)
    DMA1_Channel2_IRQHandler                 0x0800020b   Thumb Code     0  startup_stm32g431xx.o(.text)
    DMA1_Channel3_IRQHandler                 0x0800020b   Thumb Code     0  startup_stm32g431xx.o(.text)
    DMA1_Channel4_IRQHandler                 0x0800020b   Thumb Code     0  startup_stm32g431xx.o(.text)
    DMA1_Channel5_IRQHandler                 0x0800020b   Thumb Code     0  startup_stm32g431xx.o(.text)
    DMA1_Channel6_IRQHandler                 0x0800020b   Thumb Code     0  startup_stm32g431xx.o(.text)
    DMA2_Channel1_IRQHandler                 0x0800020b   Thumb Code     0  startup_stm32g431xx.o(.text)
    DMA2_Channel2_IRQHandler                 0x0800020b   Thumb Code     0  startup_stm32g431xx.o(.text)
    DMA2_Channel3_IRQHandler                 0x0800020b   Thumb Code     0  startup_stm32g431xx.o(.text)
    DMA2_Channel4_IRQHandler                 0x0800020b   Thumb Code     0  startup_stm32g431xx.o(.text)
    DMA2_Channel5_IRQHandler                 0x0800020b   Thumb Code     0  startup_stm32g431xx.o(.text)
    DMA2_Channel6_IRQHandler                 0x0800020b   Thumb Code     0  startup_stm32g431xx.o(.text)
    DMAMUX_OVR_IRQHandler                    0x0800020b   Thumb Code     0  startup_stm32g431xx.o(.text)
    EXTI0_IRQHandler                         0x0800020b   Thumb Code     0  startup_stm32g431xx.o(.text)
    EXTI15_10_IRQHandler                     0x0800020b   Thumb Code     0  startup_stm32g431xx.o(.text)
    EXTI1_IRQHandler                         0x0800020b   Thumb Code     0  startup_stm32g431xx.o(.text)
    EXTI2_IRQHandler                         0x0800020b   Thumb Code     0  startup_stm32g431xx.o(.text)
    EXTI3_IRQHandler                         0x0800020b   Thumb Code     0  startup_stm32g431xx.o(.text)
    EXTI4_IRQHandler                         0x0800020b   Thumb Code     0  startup_stm32g431xx.o(.text)
    EXTI9_5_IRQHandler                       0x0800020b   Thumb Code     0  startup_stm32g431xx.o(.text)
    FDCAN1_IT0_IRQHandler                    0x0800020b   Thumb Code     0  startup_stm32g431xx.o(.text)
    FDCAN1_IT1_IRQHandler                    0x0800020b   Thumb Code     0  startup_stm32g431xx.o(.text)
    FLASH_IRQHandler                         0x0800020b   Thumb Code     0  startup_stm32g431xx.o(.text)
    FMAC_IRQHandler                          0x0800020b   Thumb Code     0  startup_stm32g431xx.o(.text)
    FPU_IRQHandler                           0x0800020b   Thumb Code     0  startup_stm32g431xx.o(.text)
    I2C1_ER_IRQHandler                       0x0800020b   Thumb Code     0  startup_stm32g431xx.o(.text)
    I2C1_EV_IRQHandler                       0x0800020b   Thumb Code     0  startup_stm32g431xx.o(.text)
    I2C2_ER_IRQHandler                       0x0800020b   Thumb Code     0  startup_stm32g431xx.o(.text)
    I2C2_EV_IRQHandler                       0x0800020b   Thumb Code     0  startup_stm32g431xx.o(.text)
    I2C3_ER_IRQHandler                       0x0800020b   Thumb Code     0  startup_stm32g431xx.o(.text)
    I2C3_EV_IRQHandler                       0x0800020b   Thumb Code     0  startup_stm32g431xx.o(.text)
    LPTIM1_IRQHandler                        0x0800020b   Thumb Code     0  startup_stm32g431xx.o(.text)
    LPUART1_IRQHandler                       0x0800020b   Thumb Code     0  startup_stm32g431xx.o(.text)
    PVD_PVM_IRQHandler                       0x0800020b   Thumb Code     0  startup_stm32g431xx.o(.text)
    RCC_IRQHandler                           0x0800020b   Thumb Code     0  startup_stm32g431xx.o(.text)
    RNG_IRQHandler                           0x0800020b   Thumb Code     0  startup_stm32g431xx.o(.text)
    RTC_Alarm_IRQHandler                     0x0800020b   Thumb Code     0  startup_stm32g431xx.o(.text)
    RTC_TAMP_LSECSS_IRQHandler               0x0800020b   Thumb Code     0  startup_stm32g431xx.o(.text)
    RTC_WKUP_IRQHandler                      0x0800020b   Thumb Code     0  startup_stm32g431xx.o(.text)
    SAI1_IRQHandler                          0x0800020b   Thumb Code     0  startup_stm32g431xx.o(.text)
    SPI1_IRQHandler                          0x0800020b   Thumb Code     0  startup_stm32g431xx.o(.text)
    SPI2_IRQHandler                          0x0800020b   Thumb Code     0  startup_stm32g431xx.o(.text)
    SPI3_IRQHandler                          0x0800020b   Thumb Code     0  startup_stm32g431xx.o(.text)
    TIM1_BRK_TIM15_IRQHandler                0x0800020b   Thumb Code     0  startup_stm32g431xx.o(.text)
    TIM1_CC_IRQHandler                       0x0800020b   Thumb Code     0  startup_stm32g431xx.o(.text)
    TIM1_TRG_COM_TIM17_IRQHandler            0x0800020b   Thumb Code     0  startup_stm32g431xx.o(.text)
    TIM1_UP_TIM16_IRQHandler                 0x0800020b   Thumb Code     0  startup_stm32g431xx.o(.text)
    TIM2_IRQHandler                          0x0800020b   Thumb Code     0  startup_stm32g431xx.o(.text)
    TIM3_IRQHandler                          0x0800020b   Thumb Code     0  startup_stm32g431xx.o(.text)
    TIM4_IRQHandler                          0x0800020b   Thumb Code     0  startup_stm32g431xx.o(.text)
    TIM7_IRQHandler                          0x0800020b   Thumb Code     0  startup_stm32g431xx.o(.text)
    TIM8_BRK_IRQHandler                      0x0800020b   Thumb Code     0  startup_stm32g431xx.o(.text)
    TIM8_CC_IRQHandler                       0x0800020b   Thumb Code     0  startup_stm32g431xx.o(.text)
    TIM8_TRG_COM_IRQHandler                  0x0800020b   Thumb Code     0  startup_stm32g431xx.o(.text)
    TIM8_UP_IRQHandler                       0x0800020b   Thumb Code     0  startup_stm32g431xx.o(.text)
    UART4_IRQHandler                         0x0800020b   Thumb Code     0  startup_stm32g431xx.o(.text)
    UCPD1_IRQHandler                         0x0800020b   Thumb Code     0  startup_stm32g431xx.o(.text)
    USART2_IRQHandler                        0x0800020b   Thumb Code     0  startup_stm32g431xx.o(.text)
    USART3_IRQHandler                        0x0800020b   Thumb Code     0  startup_stm32g431xx.o(.text)
    USBWakeUp_IRQHandler                     0x0800020b   Thumb Code     0  startup_stm32g431xx.o(.text)
    USB_HP_IRQHandler                        0x0800020b   Thumb Code     0  startup_stm32g431xx.o(.text)
    USB_LP_IRQHandler                        0x0800020b   Thumb Code     0  startup_stm32g431xx.o(.text)
    WWDG_IRQHandler                          0x0800020b   Thumb Code     0  startup_stm32g431xx.o(.text)
    __aeabi_uldivmod                         0x08000215   Thumb Code    98  uldiv.o(.text)
    __aeabi_memset                           0x08000277   Thumb Code    14  memseta.o(.text)
    __aeabi_memset4                          0x08000277   Thumb Code     0  memseta.o(.text)
    __aeabi_memset8                          0x08000277   Thumb Code     0  memseta.o(.text)
    __aeabi_memclr                           0x08000285   Thumb Code     4  memseta.o(.text)
    __aeabi_memclr4                          0x08000285   Thumb Code     0  memseta.o(.text)
    __aeabi_memclr8                          0x08000285   Thumb Code     0  memseta.o(.text)
    _memset$wrapper                          0x08000289   Thumb Code    18  memseta.o(.text)
    strstr                                   0x0800029b   Thumb Code    36  strstr.o(.text)
    strcpy                                   0x080002bf   Thumb Code    18  strcpy.o(.text)
    __0sscanf                                0x080002d1   Thumb Code    48  __0sscanf.o(.text)
    _scanf_string                            0x08000309   Thumb Code   224  _scanf_str.o(.text)
    atoi                                     0x080003e9   Thumb Code    26  atoi.o(.text)
    __aeabi_uidiv                            0x08000403   Thumb Code     0  uidiv.o(.text)
    __aeabi_uidivmod                         0x08000403   Thumb Code    44  uidiv.o(.text)
    __aeabi_llsl                             0x0800042f   Thumb Code    30  llshl.o(.text)
    _ll_shift_l                              0x0800042f   Thumb Code     0  llshl.o(.text)
    __aeabi_llsr                             0x0800044d   Thumb Code    32  llushr.o(.text)
    _ll_ushift_r                             0x0800044d   Thumb Code     0  llushr.o(.text)
    __vfscanf_char                           0x08000479   Thumb Code    20  scanf_char.o(.text)
    _sgetc                                   0x08000495   Thumb Code    30  _sgetc.o(.text)
    _sbackspace                              0x080004b3   Thumb Code    34  _sgetc.o(.text)
    strtol                                   0x080004d5   Thumb Code   112  strtol.o(.text)
    __scatterload                            0x08000545   Thumb Code    28  init.o(.text)
    __scatterload_rt2                        0x08000545   Thumb Code     0  init.o(.text)
    __rt_ctype_table                         0x08000569   Thumb Code     4  ctype_o.o(.text)
    isspace                                  0x08000571   Thumb Code    18  isspace_o.o(.text)
    __vfscanf                                0x08000585   Thumb Code   810  _scanf.o(.text)
    _strtoul                                 0x080008b5   Thumb Code   158  _strtoul.o(.text)
    _chval                                   0x08000953   Thumb Code    28  _chval.o(.text)
    BusFault_Handler                         0x0800096f   Thumb Code     2  stm32g4xx_it.o(i.BusFault_Handler)
    DebugMon_Handler                         0x08000971   Thumb Code     2  stm32g4xx_it.o(i.DebugMon_Handler)
    Delay_LCD                                0x08000973   Thumb Code    28  lcd.o(i.Delay_LCD)
    Error_Handler                            0x0800098f   Thumb Code     4  main.o(i.Error_Handler)
    HAL_DMA_Abort                            0x08000993   Thumb Code   106  stm32g4xx_hal_dma.o(i.HAL_DMA_Abort)
    HAL_DMA_Abort_IT                         0x080009fd   Thumb Code   120  stm32g4xx_hal_dma.o(i.HAL_DMA_Abort_IT)
    HAL_Delay                                0x08000a75   Thumb Code    32  stm32g4xx_hal.o(i.HAL_Delay)
    HAL_GPIO_Init                            0x08000a99   Thumb Code   550  stm32g4xx_hal_gpio.o(i.HAL_GPIO_Init)
    HAL_GPIO_ReadPin                         0x08000ce1   Thumb Code    10  stm32g4xx_hal_gpio.o(i.HAL_GPIO_ReadPin)
    HAL_GPIO_WritePin                        0x08000ceb   Thumb Code    10  stm32g4xx_hal_gpio.o(i.HAL_GPIO_WritePin)
    HAL_GetTick                              0x08000cf5   Thumb Code     6  stm32g4xx_hal.o(i.HAL_GetTick)
    HAL_IncTick                              0x08000d01   Thumb Code    12  stm32g4xx_hal.o(i.HAL_IncTick)
    HAL_Init                                 0x08000d11   Thumb Code    30  stm32g4xx_hal.o(i.HAL_Init)
    HAL_InitTick                             0x08000d31   Thumb Code    58  stm32g4xx_hal.o(i.HAL_InitTick)
    HAL_MspInit                              0x08000d75   Thumb Code    42  stm32g4xx_hal_msp.o(i.HAL_MspInit)
    HAL_NVIC_EnableIRQ                       0x08000da5   Thumb Code    26  stm32g4xx_hal_cortex.o(i.HAL_NVIC_EnableIRQ)
    HAL_NVIC_SetPriority                     0x08000dc1   Thumb Code    60  stm32g4xx_hal_cortex.o(i.HAL_NVIC_SetPriority)
    HAL_NVIC_SetPriorityGrouping             0x08000e01   Thumb Code    26  stm32g4xx_hal_cortex.o(i.HAL_NVIC_SetPriorityGrouping)
    HAL_PWREx_ControlVoltageScaling          0x08000e25   Thumb Code   174  stm32g4xx_hal_pwr_ex.o(i.HAL_PWREx_ControlVoltageScaling)
    HAL_PWREx_DisableUCPDDeadBattery         0x08000ee1   Thumb Code    12  stm32g4xx_hal_pwr_ex.o(i.HAL_PWREx_DisableUCPDDeadBattery)
    HAL_RCCEx_PeriphCLKConfig                0x08000ef1   Thumb Code   638  stm32g4xx_hal_rcc_ex.o(i.HAL_RCCEx_PeriphCLKConfig)
    HAL_RCC_ClockConfig                      0x08001179   Thumb Code   444  stm32g4xx_hal_rcc.o(i.HAL_RCC_ClockConfig)
    HAL_RCC_GetPCLK1Freq                     0x08001355   Thumb Code    24  stm32g4xx_hal_rcc.o(i.HAL_RCC_GetPCLK1Freq)
    HAL_RCC_GetPCLK2Freq                     0x08001379   Thumb Code    24  stm32g4xx_hal_rcc.o(i.HAL_RCC_GetPCLK2Freq)
    HAL_RCC_GetSysClockFreq                  0x0800139d   Thumb Code    98  stm32g4xx_hal_rcc.o(i.HAL_RCC_GetSysClockFreq)
    HAL_RCC_OscConfig                        0x0800140d   Thumb Code  1028  stm32g4xx_hal_rcc.o(i.HAL_RCC_OscConfig)
    HAL_SYSTICK_Config                       0x08001811   Thumb Code    40  stm32g4xx_hal_cortex.o(i.HAL_SYSTICK_Config)
    HAL_TIMEx_Break2Callback                 0x08001839   Thumb Code     2  stm32g4xx_hal_tim_ex.o(i.HAL_TIMEx_Break2Callback)
    HAL_TIMEx_BreakCallback                  0x0800183b   Thumb Code     2  stm32g4xx_hal_tim_ex.o(i.HAL_TIMEx_BreakCallback)
    HAL_TIMEx_CommutCallback                 0x0800183d   Thumb Code     2  stm32g4xx_hal_tim_ex.o(i.HAL_TIMEx_CommutCallback)
    HAL_TIMEx_DirectionChangeCallback        0x0800183f   Thumb Code     2  stm32g4xx_hal_tim_ex.o(i.HAL_TIMEx_DirectionChangeCallback)
    HAL_TIMEx_EncoderIndexCallback           0x08001841   Thumb Code     2  stm32g4xx_hal_tim_ex.o(i.HAL_TIMEx_EncoderIndexCallback)
    HAL_TIMEx_IndexErrorCallback             0x08001843   Thumb Code     2  stm32g4xx_hal_tim_ex.o(i.HAL_TIMEx_IndexErrorCallback)
    HAL_TIMEx_MasterConfigSynchronization    0x08001845   Thumb Code   132  stm32g4xx_hal_tim_ex.o(i.HAL_TIMEx_MasterConfigSynchronization)
    HAL_TIMEx_TransitionErrorCallback        0x080018e1   Thumb Code     2  stm32g4xx_hal_tim_ex.o(i.HAL_TIMEx_TransitionErrorCallback)
    HAL_TIM_Base_Init                        0x080018e3   Thumb Code    98  stm32g4xx_hal_tim.o(i.HAL_TIM_Base_Init)
    HAL_TIM_Base_MspInit                     0x08001945   Thumb Code    72  tim.o(i.HAL_TIM_Base_MspInit)
    HAL_TIM_Base_Start_IT                    0x08001995   Thumb Code    94  stm32g4xx_hal_tim.o(i.HAL_TIM_Base_Start_IT)
    HAL_TIM_ConfigClockSource                0x08001a0d   Thumb Code   246  stm32g4xx_hal_tim.o(i.HAL_TIM_ConfigClockSource)
    HAL_TIM_IC_CaptureCallback               0x08001b0d   Thumb Code     2  stm32g4xx_hal_tim.o(i.HAL_TIM_IC_CaptureCallback)
    HAL_TIM_IRQHandler                       0x08001b0f   Thumb Code   418  stm32g4xx_hal_tim.o(i.HAL_TIM_IRQHandler)
    HAL_TIM_MspPostInit                      0x08001cb1   Thumb Code    70  tim.o(i.HAL_TIM_MspPostInit)
    HAL_TIM_OC_DelayElapsedCallback          0x08001cfd   Thumb Code     2  stm32g4xx_hal_tim.o(i.HAL_TIM_OC_DelayElapsedCallback)
    HAL_TIM_PWM_ConfigChannel                0x08001cff   Thumb Code   292  stm32g4xx_hal_tim.o(i.HAL_TIM_PWM_ConfigChannel)
    HAL_TIM_PWM_Init                         0x08001e23   Thumb Code    98  stm32g4xx_hal_tim.o(i.HAL_TIM_PWM_Init)
    HAL_TIM_PWM_MspInit                      0x08001e85   Thumb Code     2  stm32g4xx_hal_tim.o(i.HAL_TIM_PWM_MspInit)
    HAL_TIM_PWM_PulseFinishedCallback        0x08001e87   Thumb Code     2  stm32g4xx_hal_tim.o(i.HAL_TIM_PWM_PulseFinishedCallback)
    HAL_TIM_PWM_Start                        0x08001e89   Thumb Code   218  stm32g4xx_hal_tim.o(i.HAL_TIM_PWM_Start)
    HAL_TIM_PeriodElapsedCallback            0x08001f85   Thumb Code   180  interrupt.o(i.HAL_TIM_PeriodElapsedCallback)
    HAL_TIM_TriggerCallback                  0x08002049   Thumb Code     2  stm32g4xx_hal_tim.o(i.HAL_TIM_TriggerCallback)
    HAL_UARTEx_DisableFifoMode               0x0800204b   Thumb Code    62  stm32g4xx_hal_uart_ex.o(i.HAL_UARTEx_DisableFifoMode)
    HAL_UARTEx_RxEventCallback               0x08002089   Thumb Code     2  stm32g4xx_hal_uart.o(i.HAL_UARTEx_RxEventCallback)
    HAL_UARTEx_RxFifoFullCallback            0x0800208b   Thumb Code     2  stm32g4xx_hal_uart_ex.o(i.HAL_UARTEx_RxFifoFullCallback)
    HAL_UARTEx_SetRxFifoThreshold            0x0800208d   Thumb Code    76  stm32g4xx_hal_uart_ex.o(i.HAL_UARTEx_SetRxFifoThreshold)
    HAL_UARTEx_SetTxFifoThreshold            0x080020d9   Thumb Code    76  stm32g4xx_hal_uart_ex.o(i.HAL_UARTEx_SetTxFifoThreshold)
    HAL_UARTEx_TxFifoEmptyCallback           0x08002125   Thumb Code     2  stm32g4xx_hal_uart_ex.o(i.HAL_UARTEx_TxFifoEmptyCallback)
    HAL_UARTEx_WakeupCallback                0x08002127   Thumb Code     2  stm32g4xx_hal_uart_ex.o(i.HAL_UARTEx_WakeupCallback)
    HAL_UART_ErrorCallback                   0x08002129   Thumb Code     2  stm32g4xx_hal_uart.o(i.HAL_UART_ErrorCallback)
    HAL_UART_IRQHandler                      0x0800212d   Thumb Code   766  stm32g4xx_hal_uart.o(i.HAL_UART_IRQHandler)
    HAL_UART_Init                            0x08002439   Thumb Code   106  stm32g4xx_hal_uart.o(i.HAL_UART_Init)
    HAL_UART_MspInit                         0x080024a5   Thumb Code   132  usart.o(i.HAL_UART_MspInit)
    HAL_UART_Receive_IT                      0x08002531   Thumb Code    66  stm32g4xx_hal_uart.o(i.HAL_UART_Receive_IT)
    HAL_UART_RxCpltCallback                  0x08002579   Thumb Code    38  interrupt.o(i.HAL_UART_RxCpltCallback)
    HAL_UART_TxCpltCallback                  0x080025b1   Thumb Code     2  stm32g4xx_hal_uart.o(i.HAL_UART_TxCpltCallback)
    HardFault_Handler                        0x080025b3   Thumb Code     2  stm32g4xx_it.o(i.HardFault_Handler)
    Key_Proc                                 0x080025b5   Thumb Code   164  task.o(i.Key_Proc)
    Key_Read                                 0x08002665   Thumb Code    60  key.o(i.Key_Read)
    LCD_BusIn                                0x080026a5   Thumb Code    40  lcd.o(i.LCD_BusIn)
    LCD_BusOut                               0x080026d1   Thumb Code    42  lcd.o(i.LCD_BusOut)
    LCD_Clear                                0x08002701   Thumb Code    36  lcd.o(i.LCD_Clear)
    LCD_CtrlLinesConfig                      0x08002725   Thumb Code   134  lcd.o(i.LCD_CtrlLinesConfig)
    LCD_DisplayChar                          0x080027b5   Thumb Code    18  lcd.o(i.LCD_DisplayChar)
    LCD_DisplayStringLine                    0x080027cd   Thumb Code    42  lcd.o(i.LCD_DisplayStringLine)
    LCD_DrawChar                             0x080027f9   Thumb Code    84  lcd.o(i.LCD_DrawChar)
    LCD_Init                                 0x08002851   Thumb Code    46  lcd.o(i.LCD_Init)
    LCD_Proc                                 0x08002885   Thumb Code   154  task.o(i.LCD_Proc)
    LCD_ReadReg                              0x08002981   Thumb Code   120  lcd.o(i.LCD_ReadReg)
    LCD_SetBackColor                         0x08002a01   Thumb Code    12  lcd.o(i.LCD_SetBackColor)
    LCD_SetCursor                            0x08002a11   Thumb Code    24  lcd.o(i.LCD_SetCursor)
    LCD_SetTextColor                         0x08002a29   Thumb Code    12  lcd.o(i.LCD_SetTextColor)
    LCD_WriteRAM                             0x08002a39   Thumb Code    86  lcd.o(i.LCD_WriteRAM)
    LCD_WriteRAM_Prepare                     0x08002a99   Thumb Code    88  lcd.o(i.LCD_WriteRAM_Prepare)
    LCD_WriteReg                             0x08002af9   Thumb Code   104  lcd.o(i.LCD_WriteReg)
    LED_DisPlay                              0x08002b69   Thumb Code    84  led.o(i.LED_DisPlay)
    LED_Proc                                 0x08002bc9   Thumb Code    34  task.o(i.LED_Proc)
    MX_GPIO_Init                             0x08002bfd   Thumb Code   270  gpio.o(i.MX_GPIO_Init)
    MX_TIM2_Init                             0x08002d1d   Thumb Code   152  tim.o(i.MX_TIM2_Init)
    MX_TIM6_Init                             0x08002db9   Thumb Code    64  tim.o(i.MX_TIM6_Init)
    MX_USART1_UART_Init                      0x08002e01   Thumb Code    94  usart.o(i.MX_USART1_UART_Init)
    MemManage_Handler                        0x08002e69   Thumb Code     2  stm32g4xx_it.o(i.MemManage_Handler)
    NMI_Handler                              0x08002e6b   Thumb Code     2  stm32g4xx_it.o(i.NMI_Handler)
    PA1_Set_PWM_Duty                         0x08002e6d   Thumb Code    18  interrupt.o(i.PA1_Set_PWM_Duty)
    PendSV_Handler                           0x08002e85   Thumb Code     2  stm32g4xx_it.o(i.PendSV_Handler)
    REG_8230_Init                            0x08002e87   Thumb Code   274  lcd.o(i.REG_8230_Init)
    REG_932X_Init                            0x08002f99   Thumb Code   514  lcd.o(i.REG_932X_Init)
    Read_Proc                                0x0800319d   Thumb Code    62  task.o(i.Read_Proc)
    SVC_Handler                              0x080031ed   Thumb Code     2  stm32g4xx_it.o(i.SVC_Handler)
    Serial_Proc                              0x080031f1   Thumb Code   118  task.o(i.Serial_Proc)
    SysTick_Handler                          0x08003289   Thumb Code     4  stm32g4xx_it.o(i.SysTick_Handler)
    SystemClock_Config                       0x0800328d   Thumb Code   106  main.o(i.SystemClock_Config)
    SystemInit                               0x080032f9   Thumb Code    12  system_stm32g4xx.o(i.SystemInit)
    TIM6_DAC_IRQHandler                      0x08003309   Thumb Code     6  stm32g4xx_it.o(i.TIM6_DAC_IRQHandler)
    TIM_Base_SetConfig                       0x08003315   Thumb Code   160  stm32g4xx_hal_tim.o(i.TIM_Base_SetConfig)
    TIM_CCxChannelCmd                        0x080033d1   Thumb Code    26  stm32g4xx_hal_tim.o(i.TIM_CCxChannelCmd)
    TIM_ETR_SetConfig                        0x080033eb   Thumb Code    20  stm32g4xx_hal_tim.o(i.TIM_ETR_SetConfig)
    TIM_OC2_SetConfig                        0x080034b1   Thumb Code   120  stm32g4xx_hal_tim.o(i.TIM_OC2_SetConfig)
    UART_AdvFeatureConfig                    0x080037cd   Thumb Code   200  stm32g4xx_hal_uart.o(i.UART_AdvFeatureConfig)
    UART_CheckIdleState                      0x08003895   Thumb Code   172  stm32g4xx_hal_uart.o(i.UART_CheckIdleState)
    UART_SetConfig                           0x08003e79   Thumb Code   582  stm32g4xx_hal_uart.o(i.UART_SetConfig)
    UART_Start_Receive_IT                    0x080040ed   Thumb Code   256  stm32g4xx_hal_uart.o(i.UART_Start_Receive_IT)
    UART_WaitOnFlagUntilTimeout              0x080041fd   Thumb Code   148  stm32g4xx_hal_uart.o(i.UART_WaitOnFlagUntilTimeout)
    USART1_IRQHandler                        0x08004291   Thumb Code     6  stm32g4xx_it.o(i.USART1_IRQHandler)
    UsageFault_Handler                       0x0800429d   Thumb Code     2  stm32g4xx_it.o(i.UsageFault_Handler)
    __0sprintf$3                             0x080042a1   Thumb Code    34  printf3.o(i.__0sprintf$3)
    __1sprintf$3                             0x080042a1   Thumb Code     0  printf3.o(i.__0sprintf$3)
    __2sprintf                               0x080042a1   Thumb Code     0  printf3.o(i.__0sprintf$3)
    __aeabi_errno_addr                       0x080042e9   Thumb Code     4  errno.o(i.__aeabi_errno_addr)
    __rt_errno_addr                          0x080042e9   Thumb Code     0  errno.o(i.__aeabi_errno_addr)
    __scatterload_copy                       0x080042f1   Thumb Code    14  handlers.o(i.__scatterload_copy)
    __scatterload_null                       0x080042ff   Thumb Code     2  handlers.o(i.__scatterload_null)
    __scatterload_zeroinit                   0x08004301   Thumb Code    14  handlers.o(i.__scatterload_zeroinit)
    main                                     0x080044d5   Thumb Code    94  main.o(i.main)
    ASCII_Table                              0x08004544   Data        4560  lcd.o(.constdata)
    UARTPrescTable                           0x08005714   Data          24  stm32g4xx_hal_uart.o(.constdata)
    AHBPrescTable                            0x0800573c   Data          16  system_stm32g4xx.o(.constdata)
    APBPrescTable                            0x0800574c   Data           8  system_stm32g4xx.o(.constdata)
    __ctype_table                            0x08005754   Data         129  ctype_o.o(.constdata)
    Region$$Table$$Base                      0x080057dc   Number         0  anon$$obj.o(Region$$Table)
    Region$$Table$$Limit                     0x080057fc   Number         0  anon$$obj.o(Region$$Table)
    Key_Val                                  0x20000000   Data           1  task.o(.data)
    Key_Down                                 0x20000001   Data           1  task.o(.data)
    Key_Up                                   0x20000002   Data           1  task.o(.data)
    Key_Old                                  0x20000003   Data           1  task.o(.data)
    Interface_Mode                           0x20000004   Data           1  task.o(.data)
    Error_Count                              0x20000005   Data           1  task.o(.data)
    PSD_Present                              0x20000006   Data           3  task.o(.data)
    PSD_NewCorrect                           0x20000009   Data           3  task.o(.data)
    PSD_CharBuf                              0x2000000c   Data           4  task.o(.data)
    PSD_Correct                              0x20000010   Data           4  task.o(.data)
    PA1_Read_PWM_Duty                        0x20000014   Data           4  task.o(.data)
    PSD_NumBuf                               0x20000018   Data           6  task.o(.data)
    Tim_Total_Flag                           0x20000020   Data           1  interrupt.o(.data)
    Serial_RxIndex                           0x20000021   Data           1  interrupt.o(.data)
    Serial_RxData                            0x20000022   Data           1  interrupt.o(.data)
    Blink                                    0x20000023   Data           1  interrupt.o(.data)
    Count5s                                  0x20000024   Data           1  interrupt.o(.data)
    Uart_Tick                                0x2000002c   Data           4  interrupt.o(.data)
    LED_Enable                               0x20000030   Data           8  interrupt.o(.data)
    dummy                                    0x2000003e   Data           2  lcd.o(.data)
    uwTickPrio                               0x20000040   Data           4  stm32g4xx_hal.o(.data)
    uwTickFreq                               0x20000044   Data           4  stm32g4xx_hal.o(.data)
    uwTick                                   0x20000048   Data           4  stm32g4xx_hal.o(.data)
    SystemCoreClock                          0x2000004c   Data           4  system_stm32g4xx.o(.data)
    htim2                                    0x20000054   Data          76  tim.o(.bss)
    htim6                                    0x200000a0   Data          76  tim.o(.bss)
    huart1                                   0x200000ec   Data         148  usart.o(.bss)
    LCD_Buf                                  0x20000180   Data          30  task.o(.bss)
    Serial_RxBuf                             0x2000019e   Data          30  interrupt.o(.bss)
    __initial_sp                             0x200005c0   Data           0  startup_stm32g431xx.o(STACK)



==============================================================================

Memory Map of the image

  Image Entry point : 0x080001d9

  Load Region LR_IROM1 (Base: 0x08000000, Size: 0x00005850, Max: 0x00020000, ABSOLUTE)

    Execution Region ER_IROM1 (Exec base: 0x08000000, Load base: 0x08000000, Size: 0x000057fc, Max: 0x00020000, ABSOLUTE)

    Exec Addr    Load Addr    Size         Type   Attr      Idx    E Section Name        Object

    0x08000000   0x08000000   0x000001d8   Data   RO          783    RESET               startup_stm32g431xx.o
    0x080001d8   0x080001d8   0x00000000   Code   RO         4002  * .ARM.Collect$$$$00000000  mc_w.l(entry.o)
    0x080001d8   0x080001d8   0x00000004   Code   RO         4280    .ARM.Collect$$$$00000001  mc_w.l(entry2.o)
    0x080001dc   0x080001dc   0x00000004   Code   RO         4283    .ARM.Collect$$$$00000004  mc_w.l(entry5.o)
    0x080001e0   0x080001e0   0x00000000   Code   RO         4285    .ARM.Collect$$$$00000008  mc_w.l(entry7b.o)
    0x080001e0   0x080001e0   0x00000000   Code   RO         4287    .ARM.Collect$$$$0000000A  mc_w.l(entry8b.o)
    0x080001e0   0x080001e0   0x00000008   Code   RO         4288    .ARM.Collect$$$$0000000B  mc_w.l(entry9a.o)
    0x080001e8   0x080001e8   0x00000004   Code   RO         4295    .ARM.Collect$$$$0000000E  mc_w.l(entry12b.o)
    0x080001ec   0x080001ec   0x00000000   Code   RO         4290    .ARM.Collect$$$$0000000F  mc_w.l(entry10a.o)
    0x080001ec   0x080001ec   0x00000000   Code   RO         4292    .ARM.Collect$$$$00000011  mc_w.l(entry11a.o)
    0x080001ec   0x080001ec   0x00000004   Code   RO         4281    .ARM.Collect$$$$00002712  mc_w.l(entry2.o)
    0x080001f0   0x080001f0   0x00000024   Code   RO          784    .text               startup_stm32g431xx.o
    0x08000214   0x08000214   0x00000062   Code   RO         4005    .text               mc_w.l(uldiv.o)
    0x08000276   0x08000276   0x00000024   Code   RO         4007    .text               mc_w.l(memseta.o)
    0x0800029a   0x0800029a   0x00000024   Code   RO         4009    .text               mc_w.l(strstr.o)
    0x080002be   0x080002be   0x00000012   Code   RO         4011    .text               mc_w.l(strcpy.o)
    0x080002d0   0x080002d0   0x00000038   Code   RO         4274    .text               mc_w.l(__0sscanf.o)
    0x08000308   0x08000308   0x000000e0   Code   RO         4276    .text               mc_w.l(_scanf_str.o)
    0x080003e8   0x080003e8   0x0000001a   Code   RO         4278    .text               mc_w.l(atoi.o)
    0x08000402   0x08000402   0x0000002c   Code   RO         4297    .text               mc_w.l(uidiv.o)
    0x0800042e   0x0800042e   0x0000001e   Code   RO         4299    .text               mc_w.l(llshl.o)
    0x0800044c   0x0800044c   0x00000020   Code   RO         4301    .text               mc_w.l(llushr.o)
    0x0800046c   0x0800046c   0x00000028   Code   RO         4310    .text               mc_w.l(scanf_char.o)
    0x08000494   0x08000494   0x00000040   Code   RO         4312    .text               mc_w.l(_sgetc.o)
    0x080004d4   0x080004d4   0x00000070   Code   RO         4314    .text               mc_w.l(strtol.o)
    0x08000544   0x08000544   0x00000024   Code   RO         4327    .text               mc_w.l(init.o)
    0x08000568   0x08000568   0x00000008   Code   RO         4333    .text               mc_w.l(ctype_o.o)
    0x08000570   0x08000570   0x00000012   Code   RO         4355    .text               mc_w.l(isspace_o.o)
    0x08000582   0x08000582   0x00000002   PAD
    0x08000584   0x08000584   0x00000330   Code   RO         4361    .text               mc_w.l(_scanf.o)
    0x080008b4   0x080008b4   0x0000009e   Code   RO         4363    .text               mc_w.l(_strtoul.o)
    0x08000952   0x08000952   0x0000001c   Code   RO         4370    .text               mc_w.l(_chval.o)
    0x0800096e   0x0800096e   0x00000002   Code   RO          305    i.BusFault_Handler  stm32g4xx_it.o
    0x08000970   0x08000970   0x00000002   Code   RO          306    i.DebugMon_Handler  stm32g4xx_it.o
    0x08000972   0x08000972   0x0000001c   Code   RO          575    i.Delay_LCD         lcd.o
    0x0800098e   0x0800098e   0x00000004   Code   RO            4    i.Error_Handler     main.o
    0x08000992   0x08000992   0x0000006a   Code   RO         3030    i.HAL_DMA_Abort     stm32g4xx_hal_dma.o
    0x080009fc   0x080009fc   0x00000078   Code   RO         3031    i.HAL_DMA_Abort_IT  stm32g4xx_hal_dma.o
    0x08000a74   0x08000a74   0x00000024   Code   RO         2183    i.HAL_Delay         stm32g4xx_hal.o
    0x08000a98   0x08000a98   0x00000248   Code   RO         2892    i.HAL_GPIO_Init     stm32g4xx_hal_gpio.o
    0x08000ce0   0x08000ce0   0x0000000a   Code   RO         2894    i.HAL_GPIO_ReadPin  stm32g4xx_hal_gpio.o
    0x08000cea   0x08000cea   0x0000000a   Code   RO         2896    i.HAL_GPIO_WritePin  stm32g4xx_hal_gpio.o
    0x08000cf4   0x08000cf4   0x0000000c   Code   RO         2187    i.HAL_GetTick       stm32g4xx_hal.o
    0x08000d00   0x08000d00   0x00000010   Code   RO         2193    i.HAL_IncTick       stm32g4xx_hal.o
    0x08000d10   0x08000d10   0x0000001e   Code   RO         2194    i.HAL_Init          stm32g4xx_hal.o
    0x08000d2e   0x08000d2e   0x00000002   PAD
    0x08000d30   0x08000d30   0x00000044   Code   RO         2195    i.HAL_InitTick      stm32g4xx_hal.o
    0x08000d74   0x08000d74   0x00000030   Code   RO          392    i.HAL_MspInit       stm32g4xx_hal_msp.o
    0x08000da4   0x08000da4   0x0000001a   Code   RO         3299    i.HAL_NVIC_EnableIRQ  stm32g4xx_hal_cortex.o
    0x08000dbe   0x08000dbe   0x00000002   PAD
    0x08000dc0   0x08000dc0   0x00000040   Code   RO         3305    i.HAL_NVIC_SetPriority  stm32g4xx_hal_cortex.o
    0x08000e00   0x08000e00   0x00000024   Code   RO         3306    i.HAL_NVIC_SetPriorityGrouping  stm32g4xx_hal_cortex.o
    0x08000e24   0x08000e24   0x000000bc   Code   RO         1937    i.HAL_PWREx_ControlVoltageScaling  stm32g4xx_hal_pwr_ex.o
    0x08000ee0   0x08000ee0   0x00000010   Code   RO         1949    i.HAL_PWREx_DisableUCPDDeadBattery  stm32g4xx_hal_pwr_ex.o
    0x08000ef0   0x08000ef0   0x00000288   Code   RO         2554    i.HAL_RCCEx_PeriphCLKConfig  stm32g4xx_hal_rcc_ex.o
    0x08001178   0x08001178   0x000001dc   Code   RO         2429    i.HAL_RCC_ClockConfig  stm32g4xx_hal_rcc.o
    0x08001354   0x08001354   0x00000024   Code   RO         2437    i.HAL_RCC_GetPCLK1Freq  stm32g4xx_hal_rcc.o
    0x08001378   0x08001378   0x00000024   Code   RO         2438    i.HAL_RCC_GetPCLK2Freq  stm32g4xx_hal_rcc.o
    0x0800139c   0x0800139c   0x00000070   Code   RO         2439    i.HAL_RCC_GetSysClockFreq  stm32g4xx_hal_rcc.o
    0x0800140c   0x0800140c   0x00000404   Code   RO         2442    i.HAL_RCC_OscConfig  stm32g4xx_hal_rcc.o
    0x08001810   0x08001810   0x00000028   Code   RO         3310    i.HAL_SYSTICK_Config  stm32g4xx_hal_cortex.o
    0x08001838   0x08001838   0x00000002   Code   RO         1507    i.HAL_TIMEx_Break2Callback  stm32g4xx_hal_tim_ex.o
    0x0800183a   0x0800183a   0x00000002   Code   RO         1508    i.HAL_TIMEx_BreakCallback  stm32g4xx_hal_tim_ex.o
    0x0800183c   0x0800183c   0x00000002   Code   RO         1509    i.HAL_TIMEx_CommutCallback  stm32g4xx_hal_tim_ex.o
    0x0800183e   0x0800183e   0x00000002   Code   RO         1520    i.HAL_TIMEx_DirectionChangeCallback  stm32g4xx_hal_tim_ex.o
    0x08001840   0x08001840   0x00000002   Code   RO         1534    i.HAL_TIMEx_EncoderIndexCallback  stm32g4xx_hal_tim_ex.o
    0x08001842   0x08001842   0x00000002   Code   RO         1548    i.HAL_TIMEx_IndexErrorCallback  stm32g4xx_hal_tim_ex.o
    0x08001844   0x08001844   0x0000009c   Code   RO         1549    i.HAL_TIMEx_MasterConfigSynchronization  stm32g4xx_hal_tim_ex.o
    0x080018e0   0x080018e0   0x00000002   Code   RO         1570    i.HAL_TIMEx_TransitionErrorCallback  stm32g4xx_hal_tim_ex.o
    0x080018e2   0x080018e2   0x00000062   Code   RO          793    i.HAL_TIM_Base_Init  stm32g4xx_hal_tim.o
    0x08001944   0x08001944   0x00000050   Code   RO          210    i.HAL_TIM_Base_MspInit  tim.o
    0x08001994   0x08001994   0x00000078   Code   RO          798    i.HAL_TIM_Base_Start_IT  stm32g4xx_hal_tim.o
    0x08001a0c   0x08001a0c   0x00000100   Code   RO          802    i.HAL_TIM_ConfigClockSource  stm32g4xx_hal_tim.o
    0x08001b0c   0x08001b0c   0x00000002   Code   RO          827    i.HAL_TIM_IC_CaptureCallback  stm32g4xx_hal_tim.o
    0x08001b0e   0x08001b0e   0x000001a2   Code   RO          841    i.HAL_TIM_IRQHandler  stm32g4xx_hal_tim.o
    0x08001cb0   0x08001cb0   0x0000004c   Code   RO          211    i.HAL_TIM_MspPostInit  tim.o
    0x08001cfc   0x08001cfc   0x00000002   Code   RO          844    i.HAL_TIM_OC_DelayElapsedCallback  stm32g4xx_hal_tim.o
    0x08001cfe   0x08001cfe   0x00000124   Code   RO          865    i.HAL_TIM_PWM_ConfigChannel  stm32g4xx_hal_tim.o
    0x08001e22   0x08001e22   0x00000062   Code   RO          868    i.HAL_TIM_PWM_Init  stm32g4xx_hal_tim.o
    0x08001e84   0x08001e84   0x00000002   Code   RO          870    i.HAL_TIM_PWM_MspInit  stm32g4xx_hal_tim.o
    0x08001e86   0x08001e86   0x00000002   Code   RO          871    i.HAL_TIM_PWM_PulseFinishedCallback  stm32g4xx_hal_tim.o
    0x08001e88   0x08001e88   0x000000fc   Code   RO          873    i.HAL_TIM_PWM_Start  stm32g4xx_hal_tim.o
    0x08001f84   0x08001f84   0x000000c4   Code   RO          471    i.HAL_TIM_PeriodElapsedCallback  interrupt.o
    0x08002048   0x08002048   0x00000002   Code   RO          884    i.HAL_TIM_TriggerCallback  stm32g4xx_hal_tim.o
    0x0800204a   0x0800204a   0x0000003e   Code   RO         3849    i.HAL_UARTEx_DisableFifoMode  stm32g4xx_hal_uart_ex.o
    0x08002088   0x08002088   0x00000002   Code   RO         3438    i.HAL_UARTEx_RxEventCallback  stm32g4xx_hal_uart.o
    0x0800208a   0x0800208a   0x00000002   Code   RO         3857    i.HAL_UARTEx_RxFifoFullCallback  stm32g4xx_hal_uart_ex.o
    0x0800208c   0x0800208c   0x0000004c   Code   RO         3858    i.HAL_UARTEx_SetRxFifoThreshold  stm32g4xx_hal_uart_ex.o
    0x080020d8   0x080020d8   0x0000004c   Code   RO         3859    i.HAL_UARTEx_SetTxFifoThreshold  stm32g4xx_hal_uart_ex.o
    0x08002124   0x08002124   0x00000002   Code   RO         3861    i.HAL_UARTEx_TxFifoEmptyCallback  stm32g4xx_hal_uart_ex.o
    0x08002126   0x08002126   0x00000002   Code   RO         3862    i.HAL_UARTEx_WakeupCallback  stm32g4xx_hal_uart_ex.o
    0x08002128   0x08002128   0x00000002   Code   RO         3454    i.HAL_UART_ErrorCallback  stm32g4xx_hal_uart.o
    0x0800212a   0x0800212a   0x00000002   PAD
    0x0800212c   0x0800212c   0x0000030c   Code   RO         3457    i.HAL_UART_IRQHandler  stm32g4xx_hal_uart.o
    0x08002438   0x08002438   0x0000006a   Code   RO         3458    i.HAL_UART_Init     stm32g4xx_hal_uart.o
    0x080024a2   0x080024a2   0x00000002   PAD
    0x080024a4   0x080024a4   0x0000008c   Code   RO          264    i.HAL_UART_MspInit  usart.o
    0x08002530   0x08002530   0x00000048   Code   RO         3463    i.HAL_UART_Receive_IT  stm32g4xx_hal_uart.o
    0x08002578   0x08002578   0x00000038   Code   RO          472    i.HAL_UART_RxCpltCallback  interrupt.o
    0x080025b0   0x080025b0   0x00000002   Code   RO         3470    i.HAL_UART_TxCpltCallback  stm32g4xx_hal_uart.o
    0x080025b2   0x080025b2   0x00000002   Code   RO          307    i.HardFault_Handler  stm32g4xx_it.o
    0x080025b4   0x080025b4   0x000000b0   Code   RO          416    i.Key_Proc          task.o
    0x08002664   0x08002664   0x00000040   Code   RO          520    i.Key_Read          key.o
    0x080026a4   0x080026a4   0x0000002c   Code   RO          576    i.LCD_BusIn         lcd.o
    0x080026d0   0x080026d0   0x00000030   Code   RO          577    i.LCD_BusOut        lcd.o
    0x08002700   0x08002700   0x00000024   Code   RO          578    i.LCD_Clear         lcd.o
    0x08002724   0x08002724   0x00000090   Code   RO          580    i.LCD_CtrlLinesConfig  lcd.o
    0x080027b4   0x080027b4   0x00000018   Code   RO          581    i.LCD_DisplayChar   lcd.o
    0x080027cc   0x080027cc   0x0000002a   Code   RO          584    i.LCD_DisplayStringLine  lcd.o
    0x080027f6   0x080027f6   0x00000002   PAD
    0x080027f8   0x080027f8   0x00000058   Code   RO          585    i.LCD_DrawChar      lcd.o
    0x08002850   0x08002850   0x00000034   Code   RO          591    i.LCD_Init          lcd.o
    0x08002884   0x08002884   0x000000fc   Code   RO          417    i.LCD_Proc          task.o
    0x08002980   0x08002980   0x00000080   Code   RO          594    i.LCD_ReadReg       lcd.o
    0x08002a00   0x08002a00   0x00000010   Code   RO          595    i.LCD_SetBackColor  lcd.o
    0x08002a10   0x08002a10   0x00000018   Code   RO          596    i.LCD_SetCursor     lcd.o
    0x08002a28   0x08002a28   0x00000010   Code   RO          598    i.LCD_SetTextColor  lcd.o
    0x08002a38   0x08002a38   0x00000060   Code   RO          601    i.LCD_WriteRAM      lcd.o
    0x08002a98   0x08002a98   0x00000060   Code   RO          602    i.LCD_WriteRAM_Prepare  lcd.o
    0x08002af8   0x08002af8   0x00000070   Code   RO          603    i.LCD_WriteReg      lcd.o
    0x08002b68   0x08002b68   0x00000060   Code   RO          547    i.LED_DisPlay       led.o
    0x08002bc8   0x08002bc8   0x00000034   Code   RO          418    i.LED_Proc          task.o
    0x08002bfc   0x08002bfc   0x00000120   Code   RO          182    i.MX_GPIO_Init      gpio.o
    0x08002d1c   0x08002d1c   0x0000009c   Code   RO          212    i.MX_TIM2_Init      tim.o
    0x08002db8   0x08002db8   0x00000048   Code   RO          213    i.MX_TIM6_Init      tim.o
    0x08002e00   0x08002e00   0x00000068   Code   RO          265    i.MX_USART1_UART_Init  usart.o
    0x08002e68   0x08002e68   0x00000002   Code   RO          308    i.MemManage_Handler  stm32g4xx_it.o
    0x08002e6a   0x08002e6a   0x00000002   Code   RO          309    i.NMI_Handler       stm32g4xx_it.o
    0x08002e6c   0x08002e6c   0x00000018   Code   RO          473    i.PA1_Set_PWM_Duty  interrupt.o
    0x08002e84   0x08002e84   0x00000002   Code   RO          310    i.PendSV_Handler    stm32g4xx_it.o
    0x08002e86   0x08002e86   0x00000112   Code   RO          604    i.REG_8230_Init     lcd.o
    0x08002f98   0x08002f98   0x00000202   Code   RO          605    i.REG_932X_Init     lcd.o
    0x0800319a   0x0800319a   0x00000002   PAD
    0x0800319c   0x0800319c   0x00000050   Code   RO          419    i.Read_Proc         task.o
    0x080031ec   0x080031ec   0x00000002   Code   RO          311    i.SVC_Handler       stm32g4xx_it.o
    0x080031ee   0x080031ee   0x00000002   PAD
    0x080031f0   0x080031f0   0x00000098   Code   RO          420    i.Serial_Proc       task.o
    0x08003288   0x08003288   0x00000004   Code   RO          312    i.SysTick_Handler   stm32g4xx_it.o
    0x0800328c   0x0800328c   0x0000006a   Code   RO            5    i.SystemClock_Config  main.o
    0x080032f6   0x080032f6   0x00000002   PAD
    0x080032f8   0x080032f8   0x00000010   Code   RO         3968    i.SystemInit        system_stm32g4xx.o
    0x08003308   0x08003308   0x0000000c   Code   RO          313    i.TIM6_DAC_IRQHandler  stm32g4xx_it.o
    0x08003314   0x08003314   0x000000bc   Code   RO          886    i.TIM_Base_SetConfig  stm32g4xx_hal_tim.o
    0x080033d0   0x080033d0   0x0000001a   Code   RO          887    i.TIM_CCxChannelCmd  stm32g4xx_hal_tim.o
    0x080033ea   0x080033ea   0x00000014   Code   RO          897    i.TIM_ETR_SetConfig  stm32g4xx_hal_tim.o
    0x080033fe   0x080033fe   0x00000002   PAD
    0x08003400   0x08003400   0x00000014   Code   RO          898    i.TIM_ITRx_SetConfig  stm32g4xx_hal_tim.o
    0x08003414   0x08003414   0x0000009c   Code   RO          899    i.TIM_OC1_SetConfig  stm32g4xx_hal_tim.o
    0x080034b0   0x080034b0   0x00000090   Code   RO          900    i.TIM_OC2_SetConfig  stm32g4xx_hal_tim.o
    0x08003540   0x08003540   0x00000090   Code   RO          901    i.TIM_OC3_SetConfig  stm32g4xx_hal_tim.o
    0x080035d0   0x080035d0   0x00000090   Code   RO          902    i.TIM_OC4_SetConfig  stm32g4xx_hal_tim.o
    0x08003660   0x08003660   0x00000070   Code   RO          903    i.TIM_OC5_SetConfig  stm32g4xx_hal_tim.o
    0x080036d0   0x080036d0   0x00000070   Code   RO          904    i.TIM_OC6_SetConfig  stm32g4xx_hal_tim.o
    0x08003740   0x08003740   0x00000022   Code   RO          906    i.TIM_TI1_ConfigInputStage  stm32g4xx_hal_tim.o
    0x08003762   0x08003762   0x00000024   Code   RO          908    i.TIM_TI2_ConfigInputStage  stm32g4xx_hal_tim.o
    0x08003786   0x08003786   0x00000002   PAD
    0x08003788   0x08003788   0x00000044   Code   RO         3863    i.UARTEx_SetNbDataToProcess  stm32g4xx_hal_uart_ex.o
    0x080037cc   0x080037cc   0x000000c8   Code   RO         3472    i.UART_AdvFeatureConfig  stm32g4xx_hal_uart.o
    0x08003894   0x08003894   0x000000ac   Code   RO         3473    i.UART_CheckIdleState  stm32g4xx_hal_uart.o
    0x08003940   0x08003940   0x00000014   Code   RO         3474    i.UART_DMAAbortOnError  stm32g4xx_hal_uart.o
    0x08003954   0x08003954   0x00000054   Code   RO         3484    i.UART_EndRxTransfer  stm32g4xx_hal_uart.o
    0x080039a8   0x080039a8   0x000000c8   Code   RO         3486    i.UART_RxISR_16BIT  stm32g4xx_hal_uart.o
    0x08003a70   0x08003a70   0x000001a0   Code   RO         3487    i.UART_RxISR_16BIT_FIFOEN  stm32g4xx_hal_uart.o
    0x08003c10   0x08003c10   0x000000c8   Code   RO         3488    i.UART_RxISR_8BIT   stm32g4xx_hal_uart.o
    0x08003cd8   0x08003cd8   0x000001a0   Code   RO         3489    i.UART_RxISR_8BIT_FIFOEN  stm32g4xx_hal_uart.o
    0x08003e78   0x08003e78   0x00000274   Code   RO         3490    i.UART_SetConfig    stm32g4xx_hal_uart.o
    0x080040ec   0x080040ec   0x00000110   Code   RO         3492    i.UART_Start_Receive_IT  stm32g4xx_hal_uart.o
    0x080041fc   0x080041fc   0x00000094   Code   RO         3497    i.UART_WaitOnFlagUntilTimeout  stm32g4xx_hal_uart.o
    0x08004290   0x08004290   0x0000000c   Code   RO          314    i.USART1_IRQHandler  stm32g4xx_it.o
    0x0800429c   0x0800429c   0x00000002   Code   RO          315    i.UsageFault_Handler  stm32g4xx_it.o
    0x0800429e   0x0800429e   0x00000002   PAD
    0x080042a0   0x080042a0   0x00000028   Code   RO         4104    i.__0sprintf$3      mc_w.l(printf3.o)
    0x080042c8   0x080042c8   0x00000020   Code   RO         3312    i.__NVIC_SetPriority  stm32g4xx_hal_cortex.o
    0x080042e8   0x080042e8   0x00000008   Code   RO         4303    i.__aeabi_errno_addr  mc_w.l(errno.o)
    0x080042f0   0x080042f0   0x0000000e   Code   RO         4374    i.__scatterload_copy  mc_w.l(handlers.o)
    0x080042fe   0x080042fe   0x00000002   Code   RO         4375    i.__scatterload_null  mc_w.l(handlers.o)
    0x08004300   0x08004300   0x0000000e   Code   RO         4376    i.__scatterload_zeroinit  mc_w.l(handlers.o)
    0x0800430e   0x0800430e   0x00000002   PAD
    0x08004310   0x08004310   0x000001b8   Code   RO         4109    i._printf_core      mc_w.l(printf3.o)
    0x080044c8   0x080044c8   0x0000000a   Code   RO         4111    i._sputc            mc_w.l(printf3.o)
    0x080044d2   0x080044d2   0x00000002   PAD
    0x080044d4   0x080044d4   0x00000070   Code   RO            6    i.main              main.o
    0x08004544   0x08004544   0x000011d0   Data   RO          606    .constdata          lcd.o
    0x08005714   0x08005714   0x00000018   Data   RO         3498    .constdata          stm32g4xx_hal_uart.o
    0x0800572c   0x0800572c   0x00000010   Data   RO         3864    .constdata          stm32g4xx_hal_uart_ex.o
    0x0800573c   0x0800573c   0x00000010   Data   RO         3969    .constdata          system_stm32g4xx.o
    0x0800574c   0x0800574c   0x00000008   Data   RO         3970    .constdata          system_stm32g4xx.o
    0x08005754   0x08005754   0x00000081   Data   RO         4334    .constdata          mc_w.l(ctype_o.o)
    0x080057d5   0x080057d5   0x00000003   PAD
    0x080057d8   0x080057d8   0x00000004   Data   RO         4335    .constdata          mc_w.l(ctype_o.o)
    0x080057dc   0x080057dc   0x00000020   Data   RO         4372    Region$$Table       anon$$obj.o


    Execution Region RW_IRAM1 (Exec base: 0x20000000, Load base: 0x080057fc, Size: 0x000005c0, Max: 0x00008000, ABSOLUTE)

    Exec Addr    Load Addr    Size         Type   Attr      Idx    E Section Name        Object

    0x20000000   0x080057fc   0x0000001e   Data   RW          422    .data               task.o
    0x2000001e   0x0800581a   0x00000002   PAD
    0x20000020   0x0800581c   0x00000018   Data   RW          476    .data               interrupt.o
    0x20000038   0x08005834   0x00000002   Data   RW          548    .data               led.o
    0x2000003a   0x08005836   0x00000006   Data   RW          607    .data               lcd.o
    0x20000040   0x0800583c   0x0000000c   Data   RW         2214    .data               stm32g4xx_hal.o
    0x2000004c   0x08005848   0x00000004   Data   RW         3971    .data               system_stm32g4xx.o
    0x20000050   0x0800584c   0x00000004   Data   RW         4306    .data               mc_w.l(errno.o)
    0x20000054        -       0x00000098   Zero   RW          214    .bss                tim.o
    0x200000ec        -       0x00000094   Zero   RW          266    .bss                usart.o
    0x20000180        -       0x0000001e   Zero   RW          421    .bss                task.o
    0x2000019e        -       0x0000001e   Zero   RW          475    .bss                interrupt.o
    0x200001bc   0x08005850   0x00000004   PAD
    0x200001c0        -       0x00000400   Zero   RW          781    STACK               startup_stm32g431xx.o


==============================================================================

Image component sizes


      Code (inc. data)   RO Data    RW Data    ZI Data      Debug   Object Name

       288         18          0          0          0       1199   gpio.o
       276         40          0         24         30       2975   interrupt.o
        64          4          0          0          0        611   key.o
      1782         78       4560          6          0      15058   lcd.o
        96         12          0          2          0        694   led.o
       222         18          0          0          0     643909   main.o
        36          8        472          0       1024        852   startup_stm32g431xx.o
       162         24          0         12          0       4801   stm32g4xx_hal.o
       198         14          0          0          0      34247   stm32g4xx_hal_cortex.o
       226          0          0          0          0       2143   stm32g4xx_hal_dma.o
       604         34          0          0          0       3275   stm32g4xx_hal_gpio.o
        48          6          0          0          0        998   stm32g4xx_hal_msp.o
       204         18          0          0          0       1541   stm32g4xx_hal_pwr_ex.o
      1688         92          0          0          0       6676   stm32g4xx_hal_rcc.o
       648         10          0          0          0       2012   stm32g4xx_hal_rcc_ex.o
      2680        258          0          0          0      20602   stm32g4xx_hal_tim.o
       170         24          0          0          0       6040   stm32g4xx_hal_tim_ex.o
      3720        140         24          0          0      37214   stm32g4xx_hal_uart.o
       288          6         16          0          0       5914   stm32g4xx_hal_uart_ex.o
        44         12          0          0          0       5852   stm32g4xx_it.o
        16          4         24          4          0       1331   system_stm32g4xx.o
       712        180          0         30         30       4180   task.o
       384         26          0          0        152       3453   tim.o
       244         18          0          0        148       2066   usart.o

    ----------------------------------------------------------------------
     14822       1044       5128         80       1388     807643   Object Totals
         0          0         32          0          0          0   (incl. Generated)
        22          0          0          2          4          0   (incl. Padding)

    ----------------------------------------------------------------------

      Code (inc. data)   RO Data    RW Data    ZI Data      Debug   Library Member Name

        56          8          0          0          0         84   __0sscanf.o
        28          0          0          0          0         68   _chval.o
       816          6          0          0          0        112   _scanf.o
       224          0          0          0          0         96   _scanf_str.o
        64          0          0          0          0         84   _sgetc.o
       158          0          0          0          0         92   _strtoul.o
        26          0          0          0          0         80   atoi.o
         8          4        133          0          0         68   ctype_o.o
         0          0          0          0          0          0   entry.o
         0          0          0          0          0          0   entry10a.o
         0          0          0          0          0          0   entry11a.o
         4          0          0          0          0          0   entry12b.o
         8          4          0          0          0          0   entry2.o
         4          0          0          0          0          0   entry5.o
         0          0          0          0          0          0   entry7b.o
         0          0          0          0          0          0   entry8b.o
         8          4          0          0          0          0   entry9a.o
         8          4          0          4          0         68   errno.o
        30          0          0          0          0          0   handlers.o
        36          8          0          0          0         68   init.o
        18          0          0          0          0         76   isspace_o.o
        30          0          0          0          0         68   llshl.o
        32          0          0          0          0         68   llushr.o
        36          0          0          0          0        108   memseta.o
       490         10          0          0          0        252   printf3.o
        40          8          0          0          0         84   scanf_char.o
        18          0          0          0          0         68   strcpy.o
        36          0          0          0          0         80   strstr.o
       112          0          0          0          0         88   strtol.o
        44          0          0          0          0         80   uidiv.o
        98          0          0          0          0         92   uldiv.o

    ----------------------------------------------------------------------
      2438         56        136          4          0       1884   Library Totals
         6          0          3          0          0          0   (incl. Padding)

    ----------------------------------------------------------------------

      Code (inc. data)   RO Data    RW Data    ZI Data      Debug   Library Name

      2432         56        133          4          0       1884   mc_w.l

    ----------------------------------------------------------------------
      2438         56        136          4          0       1884   Library Totals

    ----------------------------------------------------------------------

==============================================================================


      Code (inc. data)   RO Data    RW Data    ZI Data      Debug   

     17260       1100       5264         84       1388     796495   Grand Totals
     17260       1100       5264         84       1388     796495   ELF Image Totals
     17260       1100       5264         84          0          0   ROM Totals

==============================================================================

    Total RO  Size (Code + RO Data)                22524 (  22.00kB)
    Total RW  Size (RW Data + ZI Data)              1472 (   1.44kB)
    Total ROM Size (Code + RO Data + RW Data)      22608 (  22.08kB)

==============================================================================

