:020000040800F2
:100000008808002089020008693200084B25000892
:100010001D3000086B0700080F3D000800000000BD
:100020000000000000000000000000007D36000815
:100030006D070008000000006B3200087F360008E2
:10004000A3020008A3020008A3020008A3020008FC
:10005000A3020008A3020008A3020008A3020008EC
:10006000A3020008A3020008A3020008A3020008DC
:10007000A3020008A3020008A3020008A3020008CC
:10008000A302000800000000A3020008A302000869
:10009000A3020008A3020008A3020008A3020008AC
:1000A000A3020008A3020008A3020008A30200089C
:1000B0000537000811370008A3020008A302000852
:1000C000A3020008A3020008A3020008A30200087C
:1000D000A3020008A3020008A3020008A30200086C
:1000E000A3020008A3020008A3020008A30200085C
:1000F000A3020008A3020008A302000800000000F9
:1001000000000000A302000800000000A302000895
:10011000A3020008000000001D370008A302000829
:10012000A3020008A3020008A3020008A30200081B
:10013000A30200080000000000000000A302000865
:10014000A3020008A3020008000000000000000055
:10015000000000000000000000000000000000009F
:10016000000000000000000000000000A3020008E2
:10017000A3020008000000000000000000000000D2
:1001800000000000A30200080000000000000000C2
:10019000000000000000000000000000000000005F
:1001A0000000000000000000A3020008A3020008F5
:1001B000A3020008A3020008A30200080000000038
:1001C00000000000A3020008000000000000000082
:1001D000A3020008A302000800F002F800F044F8AF
:1001E0000AA090E8000C82448344AAF10107DA4592
:1001F00001D100F039F8AFF2090EBAE80F0013F0A0
:10020000010F18BFFB1A43F001031847CC4D000043
:10021000EC4D0000103A24BF78C878C1FAD85207D4
:1002200024BF30C830C144BF04680C607047000070
:100230000023002400250026103A28BF78C1FBD8EF
:10024000520728BF30C148BF0B607047642900F0D7
:100250009F80732900F04B82002070471FB503F088
:10026000BDFD1FBD10B510BD00F045FA1146FFF7EA
:10027000F5FF03F065FD00F063FA03B4FFF7F2FF4A
:1002800003BC00F06BFA00000948804709480047AA
:10029000FEE7FEE7FEE7FEE7FEE7FEE7FEE7FEE736
:1002A000FEE7FEE704480549054A064B7047000093
:1002B000F5360008D90100088802002088080020CF
:1002C00088040020880400200FB41CB5074B06AA40
:1002D0007B4469460090059800F0DFF900206946EC
:1002E00000F0EEF91CBC5DF814FB0000ED0300000B
:1002F00070B5044685690068C10601D5302600E066
:100300002026C00707D070BDD4E9012130469047B0
:10031000206A401C20626D1EF6D570BD70B5044683
:1003200085690078C00707D170BDD4E9012120207C
:100330009047206A401C20626D1EF6D570BD70B5D6
:100340000C460546012A05D02878800600D5EA69C2
:10035000002302E0012305E05B1C934202D2E05C33
:100360000028F9D1A869E618C01AA861286A1844BB
:1003700028622846FFF7BCFF04E0D5E9012114F804
:10038000010B9047B442F8D32846FFF7C7FF70BD72
:100390002DE9F0410646002410687529314616A55E
:1003A00010D0AFF30080002802DA404213A507E026
:1003B00031688A0701D512A502E0490704D511A5C5
:1003C000012401E0AFF3008000210A2206F1240796
:1003D00009E0B0FBF2FCB0FBF2F302FB1C00303092
:1003E00078541846491C0028F3D123462A46304643
:1003F000BDE8F04100F0F2B8000000002D00000060
:100400002B000000200000002DE9F05F8946044623
:100410004FF0000ADFF824B1FB44C0F820A02046CA
:10042000E168884700287DD0252806D0D4E901213D
:100430009047206A401C2062F1E700255F46204675
:10044000E16888472028064607DB312E05D2B81917
:1004500010F8200C08B10543F1E7A80701D525F0F5
:100460000405C4F81CA00027C4F818A02A2E09D03F
:10047000304603F05DFC38B304EB8708303EC8F823
:10048000186019E059F8041B204604EB87029161BB
:10049000E1688847012F064618D1E069002820DA74
:1004A00025F020051DE0D8F8180000EB800006EBD1
:1004B00040003038C8F818002046E16888470646F2
:1004C00003F036FC0028EED1012F0AD02E2E08D1E1
:1004D0002046E16888477F1C0646022F45F020052C
:1004E000C4DBA069002803DA404245F00105A061A1
:1004F000E80701D025F01005A6B1A6F141001928A2
:1005000002D8203645F400654A463146204625602B
:100510004D46FFF79BFE60B1012807D0ED1D25F089
:10052000070000E007E000F1080978E705F1040999
:1005300075E730467AE7206ABDE8F09FAA4B0000D5
:1005400040EA0103024630B59B0710D14FF0013459
:1005500000E008C208C91D1B9D4315EAC41FF8D05E
:1005600013F0FF0102F8011B0DD01B0AF8E711F888
:10057000013B002B02F8013B05D011F8013B002B99
:1005800002F8013BF3D130BD4FF0000200B5134635
:1005900094469646203922BFA0E80C50A0E80C50A3
:1005A000B1F12001BFF4F7AF090728BFA0E80C5054
:1005B00048BF0CC05DF804EB890028BF40F8042B4D
:1005C00008BF704748BF20F8022B11F0804F18BFBA
:1005D00000F8012B70477047704770472DE9F047CE
:1005E0000D4699469246044600F1240801688806A3
:1005F00004D5E06921F01001216000E00120A8424B
:1006000001DD471B00E00027A1697A1902EB090010
:10061000081AA0612078C00602D42046FFF768FEC1
:10062000002608E0D4E901211AF806009047206A64
:10063000401C761C20624E45F4DB2078C0060AD5AB
:100640002046FFF755FE06E0D4E90121302090470F
:10065000206A401C2062381EA7F10107F4DC07E085
:10066000D4E9012118F805009047206A401C206257
:10067000281EA5F10105F3DC2046FFF74FFE207888
:10068000000602D50220BDE8F0870120FBE700004C
:1006900001694A1C02610878704700B58FB0CDE946
:1006A00001310021059105497944CDE90310114636
:1006B0006846FFF7A9FE0FB000BD0000E5FFFFFF91
:1006C0000A6802F8010B0A60704710B5436913B15C
:1006D000AFF3008001E0FFF732FE012010BD127879
:1006E00000F124010A7000224A700122EDE711682E
:1006F0004FF0FF32E9E7754600F02CF8AE460500F2
:100700006946534620F00700854618B020B5FFF72C
:10071000C9FDBDE820404FF000064FF000074FF044
:1007200000084FF0000B21F00701AC46ACE8C0090F
:10073000ACE8C009ACE8C009ACE8C0098D46704718
:1007400010B50446AFF300802046BDE81040FFF727
:1007500094BD00000048704728020020014918207D
:10076000ABBEFEE7260002007047FEE7704700229E
:1007700040F6B83306E00021491C89B29942FBD308
:10078000521C92B28242F6D3704772B6FEE7000066
:1007900070B5044600F03CF90546601C02D00448E0
:1007A0004068044400F034F9401BA042FAD370BD05
:1007B000400000202DE9F04FDFF8209200230126B1
:1007C0000324A9F1040B85B00F2709F1040AABF14A
:1007D000040EFAE006FA03F52A407CD091F804C032
:1007E0000CF0030CBCF1010F02D0BCF1020F26D1BA
:1007F000D0F808C0CDF800C04FEA430C04FA0CF85A
:10080000CDF810C0DDF800C02CEA080CCDF800C00F
:10081000D1F80C80DDF810C008FA0CF8DDF800C043
:1008200048EA0C08C0F80880D0F804C02CEA050C8F
:100830000D79C5F300159D4045EA0C0545600D791D
:10084000ED43AD070ED0C5684FEA430804FA08FC33
:1008500025EA0C05D1F808C00CFA08FC4CEA050C96
:10086000C0F80CC00D7905F00305022D16D1DD0886
:1008700000EB850CCDF808C0DCF820805D074FEA5E
:10088000D56C07FA0CF528EA05080D6905FA0CF590
:10089000DDF808C045EA0805CCF8205005684FEAA5
:1008A000430CCDF808C004FA0CFC25EA0C0591F8BD
:1008B00004C00CF00308DDF808C008FA0CF848EA98
:1008C0000508C0F800804D6815F4403F7CD0444DC9
:1008D000D5F860C000E077E04CF0010CC5F860C0CE
:1008E0002D6E23F0030C05F0010500953D4D654488
:1008F0000295AD684FEA837C4FEA1C7807FA08FC42
:1009000025EA0C05B0F1904F06D0DFF8DCC0604559
:1009100005D14FF0010C20E04FF0000C1DE0DFF896
:10092000CCC0604502D14FF0020C16E0DFF8C0C029
:10093000604502D14FF0030C0FE0DFF8B8C060450E
:1009400002D14FF0040C08E0DFF8ACC0604502D1E2
:100950004FF0050C01E04FF0060C0CFA08FC4CEAD5
:10096000050C029DC5F808C0D9F80050CC46D1F856
:10097000048095435FEAC82800D51543CCF80050A1
:10098000DAF80050D446D1F8048095435FEA88280D
:1009900000D51543CCF80050DBF80050DC46D1F808
:1009A000048095435FEA883800D51543CCF80050A1
:1009B000DEF80050F446D1F8048095435FEAC83869
:1009C00000D51543CCF800505B1C0A6832FA03F5D9
:1009D0007FF400AF05B0BDE8F08F000008040140CF
:1009E00000100240000001400004004800080048D8
:1009F000000C00480010004800140048006908403E
:100A000000D0012070470AB1816170478162704750
:100A1000014880687047000040000020024881685B
:100A200042681144816070474000002010B50024E6
:100A3000032000F073F80F2000F008F808B101243B
:100A400001E000F025F8204610BD000070B50E4E04
:100A500005460024706898B14FF47A71B1FBF0F04C
:100A60000A490968B1FBF0F000F0D4FE40B9102D3E
:100A700006D200222946501E00F030F8356000E012
:100A80000124204670BD0000400000204C000020E2
:100A90000A4882B0016E41F001010166016E01F069
:100AA00001010091816D41F080518165806D00F000
:100AB0008050009002B000F0A1B800000010024089
:100AC000002809DB00F01F0201219140400980004D
:100AD00000F1E020C0F8001170470000F0B40E4BA8
:100AE0001B680C46C3F30223C3F10705042D00D98C
:100AF0000425191D072901D2002300E0DB1E012671
:100B000006FA05F1491E214099409E40761E164086
:100B10003143F0BC03F0FCB80CED00E0064900F0F6
:100B2000070208684FF6FF03184040EA0220034A14
:100B300010430860704700000CED00E00000FA056B
:100B40002B492C4B0A6832214A432B4940B1B0F55E
:100B5000007F086829D020F4C06040F480602CE059
:100B60000868C0F34120022804D051F8800F20F417
:100B7000807022E0D1F8800020F48070C1F88000FD
:100B8000086820F4C06040F400700860B2FBF3F025
:100B9000401C00E0401E4A69520501D50028F9D1E9
:100BA000486940050AD503207047C0F34120022858
:100BB00006D051F8800F40F4807008600020704724
:100BC000D1F8800040F48070C1F88000086820F4FB
:100BD000C06040F400700860B2FBF3F0401C00E01D
:100BE000401E4A695205DBD50028F9D1D8E700003C
:100BF0004C00002040420F00007000400248816815
:100C000041F4804181607047007000402DE9F84355
:100C10000446006800269D4D00035ED5A86D0027A0
:100C2000C00008D4A86D40F08050A865A86D0127C9
:100C300000F080500090DFF85892D9F8001041F48D
:100C40008071C9F80010FFF7E3FE804606E000BFA0
:100C5000FFF7DEFEA0EB080002282BD8D9F8000031
:100C6000C005F5D5D5F8900010F4407014D0216C73
:100C7000814211D0D5F89000D5F8901020F4407042
:100C800041F48031C5F89010D5F8901021F48031EE
:100C9000C5F89010C5F89000C00711D0FFF7B8FE56
:100CA000804641F2883907E0FFF7B2FEA0EB080169
:100CB000494501D903260BE0D5F890008007F3D50C
:100CC000D5F89000216C20F440700843C5F89000DE
:100CD0001FB1A86D20F08050A8652078C00707D00C
:100CE000D5F88800616820F003000843C5F8880043
:100CF0002078800707D5D5F88800A16820F00C007F
:100D00000843C5F888002078400707D5D5F8880043
:100D1000E16820F030000843C5F88800207800071B
:100D200007D5D5F88800216920F0C0000843C5F830
:100D300088002078800607D5D5F88800616920F4FE
:100D400040600843C5F888002078400607D5D5F8EC
:100D50008800A16920F440500843C5F88800207835
:100D6000000607D5D5F88800E16920F44040084323
:100D7000C5F888002088C00507D5D5F88800216A05
:100D800020F440300843C5F888002088800507D546
:100D9000D5F88800616A20F440200843C5F888002F
:100DA000208840050FD5D5F88800A16A20F44010AE
:100DB0000843C5F88800A06AB0F5801F03D1E86831
:100DC00040F48010E860208800050FD5D5F8880031
:100DD000E16A20F440000843C5F88800E06AB0F5F5
:100DE000800F03D1E86840F48010E8602088C004D8
:100DF0000FD5D5F88800216B20F040700843C5F866
:100E00008800206BB0F1807F03D1E86840F4801047
:100E1000E86020884FF0006180040ED5D5F8880086
:100E2000626B20F040601043C5F88800606B884218
:100E300003D1E86840F48010E860208840040ED5B3
:100E4000D5F88800A26B20F040601043C5F88800F8
:100E5000A06B884203D1E86840F48010E8602088E5
:100E600000040FD5D5F88800E16B20F0405008430E
:100E7000C5F88800E06BB0F1805F03D1E86840F40A
:100E80008030E8603046BDE8F88300000010024082
:100E9000007000402DE9F0470E4605004FF00007B6
:100EA00025D0DFF8AC81D8F8000000F00F00B04288
:100EB0000CD2D8F8001021F00F013143C8F800100F
:100EC000D8F8000000F00F00B04210D12968614C42
:100ED000C80741F2883A5AD06868DFF87C91032845
:100EE00008D0022820682DD0400500282CDB0120E6
:100EF000BDE8F08720688001F9D5E06800F00302C2
:100F0000E068C0F30310401C032A19D0534A00BF05
:100F1000B2FBF0F0E268C2F306225043E268C2F38B
:100F20004162521C5200B0FBF2F0484517D9A0684C
:100F300010F0F00F0CD0880711D5A86840B10EE072
:100F4000474AE5E78003D0E700F092F8484506D924
:100F5000A06820F0F00040F08000A0608027A0682A
:100F6000696820F003000843A060FFF751FD814647
:100F700006E000BFFFF74CFDA0EB090151453AD850
:100F8000A068696800F00C00B0EB810FF2D128680E
:100F9000810714D5400703D5A06840F4E060A06045
:100FA0002878000705D5A06820F4605040F4E06080
:100FB000A060A068A96820F0F000084304E0802F3A
:100FC00003D1A06820F0F000A060D8F800104046DF
:100FD00001F00F01B14216D9016821F00F01314330
:100FE0000160FFF715FD074607E000BFFFF710FDA2
:100FF000C11B514501D903207AE7D8F8000000F061
:101000000F00B042F2D12878400705D5A068E96802
:1010100020F4E0600843A0602878000706D5A068A7
:10102000296920F4605040EAC100A06000F020F877
:10103000A1680C4AC1F30311515C01F01F01C840C3
:101040000949086009480068BDE8F047FFF7FEBCA1
:10105000002002400010024000B4C4040024F40048
:1010600000366E01B64F00084C0000204000002002
:10107000184910B58868C0F381021748012A0BD0BF
:101080008A68164BC2F38102022A06D08A68C2F32C
:101090008102032A03D0002010BD184610BDCA6883
:1010A00002F00304CA68C2F30312521C032C02D0DC
:1010B000B0FBF2F001E0B3FBF2F0CA68C968C2F31A
:1010C00006225043C1F34161491C4900B0FBF1F0D5
:1010D00010BD0000001002400024F40000366E0134
:1010E0002DE9F84304007AD02078F84DC00747D0A6
:1010F000A868E96800F00C0001F003010C2802D098
:10110000082817D001E0032914D06068B0F5803FAB
:1011100017D0B0F5A02F286817D020F480302860B1
:10112000286820F4802028606068E0B1FFF770FC38
:10113000064614E02868800322D560680028D2D0D3
:101140001EE0286840F48030EDE740F480202860FD
:10115000F7E700BFFFF75CFC801B642870D82868A5
:101160008003F7D50CE0FFF753FC064605E000BF0F
:10117000FFF74EFC801B6428F0D828688003F7D462
:10118000207880074CD5A868E96800F00C0001F0D1
:1011900003010C2802D004280DD001E002290AD056
:1011A000E068002828682BD040F480702860FFF7A2
:1011B0002FFC064619E02868400502D5E0680028A3
:1011C00091D06868217C20F0FE4040EA01606860B0
:1011D000BF480068FFF73AFC002800D120E072E128
:1011E000FFF716FC801B0228B8D828684005F7D501
:1011F0006868217C20F0FE4040EA016068600FE0F2
:1012000020F480702860FFF703FC064605E000BF6D
:10121000FFF7FEFB801B0228A0D828684005F7D402
:101220002078000729D560690028D5F8940013D0EC
:1012300040F00100C5F89400FFF7EAFB064606E01F
:1012400090E000BFFFF7E4FB801B022886D8D5F8AA
:1012500094008007F6D510E020F00100C5F8940056
:10126000FFF7D6FB064604E0FFF7D2FB801B0228FF
:1012700078D8D5F894008007F6D42078400761D557
:10128000A86D0026C00008D4A86D40F08050A86565
:10129000A86D012600F0805000908E480168C905B5
:1012A00011D40168804641F480710160FFF7B0FB02
:1012B000074604E0FFF7ACFBC01B022852D8D8F861
:1012C0000000C005F6D5A068012815D00528D5F87E
:1012D000900016D020F00100C5F89000D5F89000DD
:1012E00020F00400C5F89000A06841F28838B8B139
:1012F000FFF78EFB07460EE0D5F8900040F00100A6
:10130000F0E740F00400C5F89000F5E7FFF780FB38
:10131000C11B414526D8D5F890008007F6D50CE0D2
:10132000FFF776FB074604E0FFF772FBC11B414560
:1013300018D8D5F890008007F6D41EB1A86D20F01B
:101340008050A8652078800629D5A0690028D5F8A6
:10135000980013D040F00100C5F89800FFF758FB43
:10136000064606E075E000BFFFF752FB801B02282F
:101370006FD8D5F898008007F6D510E020F001006E
:10138000C5F89800FFF744FB064604E0FFF740FB72
:10139000801B02285DD8D5F898008007F6D4E06954
:1013A000F0B3A968C1F3810103295DD00228286840
:1013B00020F08070286003D0FFF72AFB04464BE042
:1013C000FFF726FB064604E0FFF722FB801B0228FE
:1013D0003FD828688001F7D4F4E908016FF00F02C4
:1013E00002EB01110843218A5204490802EB4151E2
:1013F000A26841EA02210843217D4FF07E4249085C
:1014000002EB41610843217B40EAC160E968324A4E
:1014100011400843E860286840F08070286000E0D0
:101420005EE0E86840F08070E860FFF7F1FA04469B
:1014300005E000BFFFF7ECFA001B022809D8286876
:101440008001F7D54CE000BFFFF7E2FA001B02284D
:1014500002D90320BDE8F88328688001F4D4E86845
:101460001E490840E8603BE00128F3D0E868226AA2
:1014700000F00301914226D1616A00F0F0020901F7
:10148000103991421FD1A26A00F4FE41B1EB022F44
:1014900019D194F82C2000F07841B1EBC26F12D131
:1014A000218E00F4C00249084905A1F500119142BE
:1014B00009D194F8341000F0C06049084906A1F140
:1014C000007181420CD00120C4E7000000100240EE
:1014D00040000020007000400C809F01FCFFEEFEE9
:1014E0000020B7E710B500680B4641680D48014081
:1014F000080CD870C1F304245C7001F03F049C70A8
:10150000C1F34231197052B902F03AF8D8705878E4
:1015100002F036F85870987802F032F8987000208F
:1015200010BD00003FFFFF0010B50B460168896841
:10153000596001680969C1F30E019960006801688A
:101540000D480140C1F305401870C1F306245C70DA
:1015500001F07F049C70890DD97052B902F010F827
:101560001870587802F00CF85870987802F008F863
:101570009870002010BD00007F7F7F0070B50400D0
:101580004FF0010040D094F8250028B9002084F8DD
:101590002400204600F040F8022084F8250020684E
:1015A000C168C943C90630D5CA21416221685320A8
:1015B0004862204601F0FAFF10BB20688169154A95
:1015C00011408161216888696268A36910432269BA
:1015D0001A43104388612189E06840EA014021688C
:1015E0000861204602F007F850B9D4E907211143F9
:1015F00022686369956925F060452B431943916121
:101600002268FF21516208B170BD0020012184F8D9
:10161000251070BDBFFF8FFB10B592B0044644216A
:101620006846FEF7B1FF1049206888421AD14FF48E
:10163000002000904FF4407010906846FFF7E6FAE3
:1016400008B1FFF7A2F8094850F8901F41F4004193
:1016500040F83819016841F480610160006800F4C5
:101660008060119012B010BD0028004000100240B0
:1016700070B5044690F824000B4601281BD00126C3
:1016800084F82460022084F82500B2B19878D978D3
:1016900040EA014558781978000240EA4130054394
:1016A0002168CA204862216853204862204601F020
:1016B0007DFFD0B120E0022070BD5878C10603D56F
:1016C00000F0EF000A305870D87801F062FF05048E
:1016D000587801F05EFF45EA0025987801F059FF3F
:1016E0000543187845EA4035DAE7084805402068A0
:1016F0004560204601F07FFF2268FF21516208B952
:1017000084F82560002184F8241070BD3FFFFF009D
:101710002DE9F041044690F8240090460D4601283A
:1017200011D0012784F82470022084F82500216854
:10173000CA204862216853204862204601F036FFE3
:10174000002618B129E00220BDE8F0812068B8F138
:10175000000F80694FEA406024D0002800DBEE7063
:10176000A8782978EA7840EA01406978090241EAD4
:10177000825108431849084021680860206881693F
:1017800021F480218161D5E90301084321688A6938
:1017900010438861204601F02EFF2268FF2151622C
:1017A000A0B115E0002800DBEE70287801F0F1FE12
:1017B0000304687801F0EDFE43EA0023A87801F005
:1017C000E8FE0343E87843EA8050D3E784F82570C5
:1017D00084F82460B8E700007F7F7F0070B504467E
:1017E0000B482168C860FFF713F905464FF47A7675
:1017F00007E000BFFFF70CF9401BB04201D90320FE
:1018000070BD2068C0688006F4D5002070BD00005F
:101810005F00010010B5401EB0F1807F01D30120B0
:1018200010BD4FF0E02460610F21601702F070FAE4
:101830000020A06107202061002010BD7047704784
:101840007047000030B590F83C20012A42D00122B8
:1018500080F83C20CA688B6822F440721A434B68B7
:1018600022F480621A430B6822F400621A430B6967
:1018700022F480521A434B6922F400521A430B6B34
:1018800022F480421A430B8B22F4702242EA034274
:10189000CB6922F080521A430F4D03680024AB42FB
:1018A00002D00E4DAB4210D10D8D22F4700242EAEF
:1018B00005520D6A22F080722A434D6A22F00072AE
:1018C0002A43C96A22F000520A435A6480F83C4015
:1018D000002030BD022030BD002C0140003401400A
:1018E0007047704770470000F0B590F83C20012A1F
:1018F0003AD0012580F83C50022280F83D20036850
:101900005A689C68194E1A4FB34201D0BB4204D1A9
:1019100022F4700C4A6842EA0C02DFF858C002EA6E
:101920000C02D1F800C04CEA020CC3F804C00268F3
:10193000B2420DD0B2F1804F0AD00F4B9A4207D07D
:101940000E4B9A4204D0BA4202D00D4B9A4204D1B7
:10195000896824F080031943916080F83D5000218C
:1019600080F83C100846F0BD0220F0BD002C01407C
:10197000003401408FFFFFFD0004004000080040DC
:1019800000400140704710B5040003D094F83D00BA
:1019900010B107E0012010BD002084F83C00204673
:1019A00000F022F8022084F83D00211D206801F09B
:1019B000BBFE012084F8480084F83E0084F83F0014
:1019C00084F8400084F8410084F8420084F8430021
:1019D00084F8440084F8450084F8460084F8470001
:1019E00084F83D00002010BD10B586B004461421D7
:1019F0006846FEF7C9FD216800223D480223B1F187
:101A0000804F27D03B4CA14248D1816D41F002016B
:101A10008165816D01F002010591C16C41F0020107
:101A2000C164C06C694600F002000590102000906F
:101A3000CDE901323048CDE90323FEF7BBFE002299
:101A400011461D20FFF74AF85FF01D00FFF738F838
:101A500006B010BD816D41F001018165816D01F01D
:101A600001010591C16C41F00101C164C06C69467E
:101A700000F0010005904FF400400090CDE90132E4
:101A80000120CDE903204FF09040FEF793FE0022A5
:101A900011461C20FFF722F81C20D7E7174A914275
:101AA0000ED1816D41F010018165806D002200F042
:101AB0001000059011463620FFF710F83620C5E7D4
:101AC0000F4A914207D1016E41F400310166006E68
:101AD00000F4003009E00B4A9142B9D1016E41F4A3
:101AE00080210166006E00F480200590B0E70000C0
:101AF00000100240000400400004004800100040B4
:101B0000004401400048014090F83D10012901D0F7
:101B100001207047022180F83D100168CA6842F038
:101B20000102CA600068104988420ED0B0F1804FAF
:101B30000BD00E49884208D00D49884205D00D4986
:101B4000884202D00C49884207D181680B4A114073
:101B5000062906D0B1F5803F03D0016841F00101AC
:101B60000160002070470000002C0140000400408C
:101B7000000800400034014000400140070001001F
:101B800070B5044690F83C000025012814D00126C9
:101B900084F83C60022084F83D0022689068364B4F
:101BA000184020F47F409060086870282ED010DC28
:101BB00010F00F0F03D021E04FF0020070BD4FEA8C
:101BC0002012072A1AD2DFE802F0525252524A3843
:101BD00040002A4BC21A984249D009DCB0F5805F18
:101BE0000DD0B0F5005F1CD0B0F1101F06D13EE063
:101BF000102A3CD0202A3AD0502A38D0012584F827
:101C00003D60002084F83C00284670BDCB68D1E9D7
:101C10000121206801F0F3FD2068816841F077011F
:101C200009E0CB68D1E90121206801F0E8FD2068D6
:101C3000816841F480418160E1E7CA6849682068B1
:101C400001F0F0FF5021206806E0CA68496820686A
:101C500002F030F86021206801F0DCFDCFE7CA68AF
:101C60004968206801F0DEFF40212068F4E722681F
:101C700001461046F0E7000088FFCEFF200010006C
:101C800070B505461F48204E85421AD1287F01288D
:101C900017D100211B4800F017FC1C4C04212080A8
:101CA000184800F011FC80B26080218849B1B6FB71
:101CB000F1F2521EA28064225043B0FBF1F0401CAE
:101CC000E080134885421CD1287F012819D10021CA
:101CD0000F4800F0F9FB0D4C0421083420800C481B
:101CE00000F0F2FB80B260802188002909D0B6FBA9
:101CF000F1F2521EA28064225043B0FBF1F0401C6E
:101D0000E08070BDAC00002040420F001E000020AB
:101D1000F80000202DE9F041054690F83C0000262F
:101D20000C46012810D0012085F83C0072B1042A2D
:101D30001CD0082A2CD00C2A50D00126002085F86F
:101D40003C003046BDE8F0810220FBE7D4E90012F8
:101D5000E368286801F078FF2868816921F00C01A8
:101D6000816128688169A26811430FE0D4E90012FB
:101D7000E368286801F0B0FF2868816921F44061B8
:101D8000816128688169A26841EA02218161D5E701
:101D90002868D4E9002C277B036A016A21F480714A
:101DA0000162C16923F4206321F0030141EA0C01BF
:101DB00021F0F00C39074FF420674CEA116107EA73
:101DC00002221A43C16102622868C16921F00C0134
:101DD000C1612868C169A26811432BE02868D4E971
:101DE0000021E768036AD0F820C02CF4805CC0F8BA
:101DF00020C0D0F81CC023F420432CF4407C4CEAD3
:101E0000012121F4704C4FF6FF7101EA07314FF4C4
:101E1000204741EA0C0107EA02321A43C16102621B
:101E20002868C16921F44061C1612868C169A2685C
:101E300041EA0221C16181E710B5040003D094F8A2
:101E40003D0010B107E0012010BD002084F83C00E7
:101E5000204600F022F8022084F83D00211D206871
:101E600001F062FC012084F8480084F83E0084F808
:101E70003F0084F8400084F8410084F8420084F870
:101E8000430084F8440084F8450084F8460084F850
:101E9000470084F83D00002010BD704730B504466F
:101EA000002571B1042911D0082914D00C2917D0AC
:101EB000102918D094F8430094F84720012817D12E
:101EC00014E094F83E0094F84420F7E794F83F00BB
:101ED00094F84520F2E794F8400094F84620EDE7A6
:101EE00094F84100E8E794F84200E5E7012A01D0C0
:101EF000012030BD022079B1042916D008291DD057
:101F00000C2949D010294AD084F8430084F84700AE
:101F10000C2947D001253DE084F83E0084F84400B8
:101F20002068C26842F0020210E084F83F0084F8A2
:101F300045002068C26842F0040207E084F84000CF
:101F400084F846002068C26842F00802C26001229C
:101F5000206801F047FC1649206888420ED0B0F195
:101F6000804F0BD01349884208D01349884205D0CE
:101F70001249884202D01249884207D18168114A29
:101F80001140062906D0B1F5803F03D0016841F029
:101F900001010160284630BD84F84100B6E784F8AD
:101FA0004200B3E72068C26842F01002CEE70000AA
:101FB000002C0140000400400008004000340140B3
:101FC00000400140070001002DE9F041044600688F
:101FD000C66805694FF00007A90713D5B10711D5E9
:101FE000F91E016101202077206880698007204662
:101FF00002D0FFF745FE04E000F0F0F8204600F0C4
:10200000B2F92777680716D5700714D521686FF0E5
:1020100004000861022020772068806910F4407F66
:10202000204602D0FFF72CFE04E000F0D7F820464F
:1020300000F099F92777280715D5300713D52168BF
:102040006FF008000861042020772068C0698007CD
:10205000204602D0FFF714FE04E000F0BFF820464F
:1020600000F081F92777E80616D5F00614D5216827
:102070006FF010000861082020772068C06910F414
:10208000407F204602D0FFF7FBFD04E000F0A6F8F9
:10209000204600F068F92777E80708D0F00706D057
:1020A00021686FF001000861204600F0DBF9280686
:1020B00001D4A80408D5300606D521686FF4025073
:1020C00008612046FFF7BBFBE80508D5300606D5BA
:1020D00021686FF4807008612046FFF7AFFB680647
:1020E00008D5700606D521686FF0400008612046CB
:1020F00000F02AFAA80608D5B00606D521686FF0C8
:10210000200008612046FFF79BFBE80208D5F0029B
:1021100006D521686FF4801008612046FFF7E1FBC7
:10212000A80208D5B00206D521686FF40010086136
:102130002046FFF7D5FB680208D5700206D5216856
:102140006FF4800008612046FFF7CCFB28020AD517
:10215000300208D521686FF4000008612046BDE810
:10216000F041FFF70FBCBDE8F081000070B586B00C
:10217000044614216846FEF707FA154E256800222A
:102180001449022401234FF09040B54209D1CD6C8F
:1021900045F00105CD64C96C01F0010105914021B4
:1021A0000BE00D4EB54210D1CD6C45F00105CD646C
:1021B000C96C01F00101059180210091CDE9014236
:1021C0006946CDE90323FEF7F5FA06B070BD0000BD
:1021D000004401400010024000480140704770B5C3
:1021E000044690F83C0000260D4601280BD0012043
:1021F00084F83C000C2A4AD007DC82B1042A20D0A3
:10220000082A06D131E0022070BD102A53D0142ACA
:1022100063D00126002084F83C00304670BD206861
:1022200001F002FB2068816941F0080181612068AA
:10223000816921F004018161206881692A69114363
:1022400011E0206801F03EFB2068816941F40061E3
:1022500081612068816921F48061816120688169E0
:102260002A6941EA02218161D4E7206801F072FB0A
:102270002068C16941F00801C1612068C16921F08D
:102280000401C1612068C1692A69114311E0206815
:1022900001F0A8FB2068C16941F40061C1612068B8
:1022A000C16921F48061C1612068C1692A6941EA7C
:1022B0000221C161AEE7206801F0DCFB2068016DFE
:1022C00041F0080101652068016D21F004010165FC
:1022D0002068016D2A69114311E0206801F002FCB9
:1022E0002068016D41F4006101652068016D21F4F1
:1022F000806101652068016D2A6941EA022101655A
:1023000088E710B5040003D094F83D0010B107E051
:10231000012010BD002084F83C00204600F022F887
:10232000022084F83D00211D206801F0FDF9012004
:1023300084F8480084F83E0084F83F0084F84000A8
:1023400084F8410084F8420084F8430084F8440093
:1023500084F8450084F8460084F8470084F83D007E
:10236000002010BD7047704730B50446022269B1A5
:10237000042912D0082917D00C291CD0102921D0EB
:1023800094F84300012824D0012030BD94F83E0089
:102390000128F9D184F83E201DE094F83F0001287F
:1023A000F2D184F83F2016E094F840000128EBD1E8
:1023B00084F840200FE094F841000128E4D184F82B
:1023C000412008E094F842000128DDD184F8422041
:1023D00001E084F843200122206801F003FA194B40
:1023E00020681949194A984209D0884207D090427A
:1023F00005D0174DA84202D0164DA84203D1456C16
:1024000045F400454564206898420CD0B0F1804FF7
:1024100009D0114B984206D0104B984203D0884205
:1024200001D0904207D181680D4A1140062906D09B
:10243000B1F5803F03D0016841F001010160002047
:1024400030BD0000002C014000340140004001403C
:1024500000440140004801400004004000080040E2
:10246000070001001649884229D116484188491CB5
:1024700089B24180B1F57A7F01D10021418089B2D2
:102480000922B1FBF2F302FB13120AB90122027016
:102490006422B1FBF2F302FB13120AB902220270AA
:1024A000C822B1FBF2F302FB13120AB90322027035
:1024B00001F0070003491431095C00F017BB7047B5
:1024C000440100201A0000200246002041B10429E6
:1024D00009D008290AD00C2901D11068006C704776
:1024E0001068406B70471068806B70471068C06B55
:1024F000704770B5044690F83C00012812D00125C1
:1025000084F83C50022084F83D00204601F022FB74
:1025100001004FF0000007D084F83D5084F83C00E3
:10252000012070BD022070BD2168CA6822F04002FF
:10253000CA602168CA6822F48042CA6084F83D50AB
:1025400084F83C00002070BD7047FEE7274810B5B6
:102550000178012948D10021017000F04FF8244989
:10256000C8708A7920EA020442400C7182434A71A1
:102570008871487A08B1012836D11E4A1E4B0120C5
:10258000012C06D0022C0DD0032C17D0042C27D1FF
:102590001DE00C78012C23D00C7A44F001040C725D
:1025A000107007E00C78022C1AD00C7A44F0020468
:1025B0000C725070C8711A68CA6014E00C78032C51
:1025C0000ED00C7A44F004040C729070F2E70C7890
:1025D000042C05D00C7A44F008040C72D070E9E7A2
:1025E000CA79002A00D0487210BD00001A000020ED
:1025F000000000202E0000204800002070B50E4D85
:10260000002401212846FEF7F9F900B9012402212E
:102610002846FEF7F3F900B9022404212846FEF704
:10262000EDF900B9032401214FF09040FEF7E6F9DF
:1026300000B90424204670BD0004004800B585B0F0
:1026400014216846FDF7A0FF4FF6FF7000900020B0
:102650000321CDE90201019069460248FEF7AAF87C
:1026600005B000BD0008004800B585B014216846DB
:10267000FDF78AFF4FF6FF700090012001900320C4
:1026800003900020029069460248FEF793F805B0D7
:1026900000BD00000008004870B500240646214631
:1026A000204600F077F900F0B9F94FF4963530463E
:1026B00000F084F9641CAC42F9D370BD30B587B02A
:1026C00014216846FDF760FF1E48C16C41F004010B
:1026D000C164C16C01F004010591C16C41F00101BC
:1026E000C164C16C01F001010591C16C41F00201AE
:1026F000C164C06C012500F0020005904FF44870E1
:10270000CDE9000500240394694602940E48FEF7C3
:1027100051F8280203940090CDE901544FF0904401
:1027200069462046FEF746F8FFF79EFFA06940F491
:102730008070A06104481830016841F4087101609C
:1027400007B030BD0010024000040048203AD2B269
:10275000034B02EB420203EB021200F019B8000037
:10276000E63D0008F0B50E460746002540F23F144E
:1027700007E021463846FFF7E9FF103C6D1CA4B284
:10278000761C3278002A01D0142DF2D3F0BD00005F
:102790002DE9F04791468A460026044600F0FAF8F3
:1027A000DFF84080012700BF00F038F95FF0000536
:1027B00039F8160007FA05F10842404601D1408871
:1027C00000E0008800F0FAF86D1C102DF0D3641CB6
:1027D000E4B25146204600F0DDF8761C182EE3D313
:1027E000BDE8F0873800002010B5FFF767FF002034
:1027F00000F088F8084CA080A088A0F5024130398C
:1028000006D000F0BCFD002000F07CF8A08010BDD8
:1028100000F02CFDF7E700003800002038B51F4815
:102820000178022938D1002101701DA12148FDF74E
:102830004BFD20491820FFF795FF1F4C1FA11D4895
:102840002278FDF741FD1B494820FFF78BFF19480F
:10285000143081780091437802781CA11438FDF778
:1028600033FD14497820FFF77DFF627A1DA11148DE
:10287000FDF72AFD0F49A820FFF774FF0D4A04F168
:10288000140328321BA10B48FDF71EFDBDE838409C
:102890000849D820FFF766BF38BD00001A000020A5
:1028A000202020204E6F7720506C6174666F726D0F
:1028B0000000000050000020000000202020202008
:1028C00043757272656E743A2564200020202020C2
:1028D000253032642D253032642D2530326420209D
:1028E000000000002020202053746174753A256494
:1028F0002000000020204D743A25732047743A25AB
:102900007320200070B51D490A6842F400720A6005
:102910000A6842F480720A60184C103C226842F047
:1029200020022260164A1060086840F0200008600B
:1029300000BF00BF00BF206840F02000206020687A
:1029400040F480702060FFF779FE4FF09041886A74
:1029500040F48070886200BF00BF00BF0848001FBD
:10296000006885B2886940F480708861FFF77CFE5A
:10297000206840F400702060284670BD280400489C
:102980001408004801B5BDF800000149488008BDA1
:102990003800002010B50C460146202000F06EF8EB
:1029A0002146BDE81040212000F068B801B5BDF80F
:1029B00000000149088008BD3800002030B5154BE3
:1029C0001C68154A116841F40071116012491039F0
:1029D0000D6845F480750D600D6845F020050D60AB
:1029E0001860106840F02000106000BF00BF00BFFA
:1029F000086840F020000860086840F480700860B3
:102A000000BF00BF00BF086840F4007008601C6091
:102A100030BD00001408004828040048154A10B5CD
:102A200013681549086840F400700860086840F4AD
:102A30008070086010481038046844F02004046076
:102A4000222414600C6844F020040C6000BF00BF16
:102A500000BF016841F020010160016841F480710C
:102A6000016000BF00BF00BF016841F40071016058
:102A7000136010BD140800482804004870B5194CB4
:102A80002568194B1A6842F400721A601A6842F4F9
:102A900080721A60144A103A166846F020061660D2
:102AA0002060186840F02000186000BF00BF00BF21
:102AB000106840F020001060106840F480701060D2
:102AC0002160186840F02000186000BF00BF00BF00
:102AD000106840F020001060106840F480701060B2
:102AE000256070BD140800482804004870B5144CD7
:102AF00001228240207811B10243227001E090430C
:102B0000207020786178884219D00E4D01224FF450
:102B10007F412846FDF777FF2078002201022846F2
:102B2000FDF771FF084D012204212846FDF76BFFD8
:102B3000002204212846FDF766FF2078607070BDF2
:102B40003600002000080048000C00482DE9F04F36
:102B500087B014216846FDF717FD4048C16C41F06D
:102B60000401C164C16C01F004010591C16C41F024
:102B70002001C164C16C01F020010591C16C41F0DC
:102B80000101C164C16C01F001010591C16C41F00A
:102B90000201C164C16C01F002010591C16C41F0F8
:102BA0000801C164C06CDFF8B88000F008004FF67F
:102BB000FF740590002221464046FDF724FF4FF4A4
:102BC00098764FF09049002231464846FDF71BFFAA
:102BD000DFF890A0002204215046FDF714FFDFF833
:102BE00088B04FF44877002239465846FDF70BFF6E
:102BF0000125CDE90045002402946946404603942E
:102C0000FDF7D8FDCDE90054694648460294FDF72A
:102C1000D1FD0096CDE90154694648460394FDF77D
:102C2000C9FD0720CDE90004694658460294FDF726
:102C3000C1FD04200090CDE901546946504603943B
:102C4000FDF7B8FD0097CDE9015469465846039455
:102C5000FDF7B0FD07B0BDE8F08F000000100240A6
:102C600000080048000C00480004004810B586B079
:102C700014216846FDF788FC204800241E4905946D
:102C8000C0E900147C21816041F26F71C0E9031436
:102C90004FF080414461C0E906410462FEF76EFCDA
:102CA00008B1FDF772FD12208DF8000050208DF85C
:102CB000010055208DF80200019403940122694619
:102CC0000E480494FEF724FD08B1FDF75EFD0120D7
:102CD0008DF814008DF815008DF8160002468DF859
:102CE000174005A90548FEF7C3FC002801D0FDF7F1
:102CF0004CFD06B010BD00000028004084000020FC
:102D000010B594B01C210DA8FDF73EFC3421684697
:102D1000FDF73AFC20481F490024016040F21F31B2
:102D2000C0E901146321C0E903148021C0E9054111
:102D3000FEF729FE08B1FDF728FD1748FFF7E1FA75
:102D400008B1FDF722FD60200D905020CDE90E0462
:102D500010941194129400220DA90F481394FFF7B8
:102D60003EFA08B1FDF711FD00944FF40050CDE993
:102D700004400194029403940694694606480C9416
:102D8000FEF760FD08B1FDF700FD0348FFF7EEF91F
:102D900014B010BD004401409001002010B594B063
:102DA0001C210DA8FDF7F0FB34216846FDF7ECFB74
:102DB00020481F490024016040F28F11C0E901142E
:102DC0006321C0E903148021C0E90541FEF7DBFD62
:102DD00008B1FDF7DAFC1748FFF793FA08B1FDF7E1
:102DE000D4FC60200D903C20CDE90E041094119489
:102DF000129400220DA90F481394FFF7F0F908B1BF
:102E0000FDF7C3FC00944FF40050CDE90440019459
:102E1000029403940694694606480C94FEF712FD4A
:102E200008B1FDF7B2FC0348FFF7A0F914B010BDDC
:102E300000480140DC01002010B590B00024099446
:102E40000A940B94142104A80C94FDF79DFB2C48C4
:102E500000940394019402940D940E944FF08041D9
:102E60000F9401604F21C0E90114611EC0E90314F1
:102E70008461FEF788FD08B1FDF787FC4FF48050B0
:102E8000099009A91E48FEF77BFE08B1FDF77DFCFD
:102E90001B48FEF7D1FF08B1FDF777FC0420049032
:102EA0005020CDE90504079404A915480894FFF7BC
:102EB00020FB08B1FDF769FC0120CDE90040029438
:102EC000002269460E480394FEF724FF08B1FDF77F
:102ED0005CFC022000900190042269460848FEF73D
:102EE00019FF08B1FDF751FC0D940DA904480F948A
:102EF000FEF7FAFC002801D0FDF747FC10B010BD2A
:102F0000AC00002010B590B0002409940A940B94F2
:102F1000142104A80C94FDF737FB2D48009403946A
:102F2000019402940D940E9428490F9401604F214E
:102F3000C0E901144FF6FF71C0E903148461FEF784
:102F400022FD08B1FDF721FC4FF48050099009A93A
:102F50001F48FEF715FE08B1FDF717FC1C48FEF7E9
:102F60006BFF08B1FDF711FC042004905020CDE95F
:102F70000504079404A916480894FFF7BAFA08B1A3
:102F8000FDF703FC0120CDE90040029400226946D0
:102F90000F480394FEF7BEFE08B1FDF7F6FB0220D2
:102FA00000900190042269460948FEF7B3FE08B17B
:102FB000FDF7EBFB0D940DA905480F94FEF794FC6B
:102FC000002801D0FDF7E1FB10B010BD0004004067
:102FD000F80000203EB500240F48009401940D49EC
:102FE0000294016040F21F31C0E901146321C16005
:102FF00080218161FEF7C7FC08B1FDF7C6FB009494
:10300000694605480294FEF76FFC002801D0FDF7E1
:10301000BCFB3EBD0010004044010020FEE7000064
:103020002DE9F05F834C0125214694F809C00B7807
:1030300000265A1EDFF800B2DFF8009205FA02F00F
:10304000097A7F4F4FF0040A4FF0020EBCF1090FCE
:103050000FD2DFE80CF00E0512202A4CA5C7DE00C7
:103060003868E168401AB0F57A7F04D384F809E043
:10307000E671BDE8F09F6672FBE7002220214FF069
:103080009040FDF7C0FCDBF8001032204863386840
:10309000E060032046E03868E168401AB0F57A6FD6
:1030A000E7D300BF84F809A0E3E7DFF898818842FE
:1030B0000ADAA572012210214FF09040FDF7A3FC1F
:1030C000D8F80000502141632078401E8540207AC6
:1030D00085420ADDA672002210214FF09040FDF7D4
:1030E00092FCD8F800103C204863052076E0386850
:1030F000E16841F27077411A4E48B942807A13D3A1
:1031000010B15B1C237000E0227089F8046089F81C
:10311000056089F8066089F807600720A07084F8C8
:1031200001A006206072A4E7002847484FF00A017A
:1031300018D0FDF729FA45A14348FDF701FA89F8AF
:10314000046089F8056089F8066089F8076061788D
:1031500009F80150491CC8B2607008281AD184F8D7
:1031600001A017E0FDF710FA39A13748FDF7E8F99B
:1031700089F8046089F8056089F8066089F80760B5
:10318000A17809F80150491EC8B2A070032801D1E6
:103190000720A070BDE8F05F4FF49670FDF7F8BA15
:1031A00088437FF47FAF012220214FF09040FDF74C
:1031B0002AFCDBF800103C2048631E486661268329
:1031C00025A11430FDF7BCF92078411E8D40217AED
:1031D0004844A943217200F8016C072060723868E6
:1031E000E06046E73868E168401AB0F57A6F9AD334
:1031F000DBF800103220486300210F48FFF7B4F8D5
:103200000C486661268316A11430FDF799F9082051
:10321000E4E741B13868E168401AB0F5FA6FE0D3ED
:1032200084F809E025E76672BDE8F05F0A210648E8
:10323000FDF7AAB900000020DC0100202E000020CC
:103240004800002090010020780000205570000008
:10325000446F776E000000004F70656E0000000044
:10326000436C6F7365000000FEE7704730B50121C5
:103270000020FFF703FC4FF47A70FDF778FA002185
:103280000120FFF7FBFB41F290711020FFF7F6FBE6
:103290004FF41C516020FFF7F1FB01216120FFF783
:1032A000EDFB02214620FFF7E9FB48F21001132055
:1032B000FFF7E4FB48F2FE011220FFF7DFFB4FF4BB
:1032C000A0610220FFF7DAFB41F230010320FFF793
:1032D000D5FB40F2033421463020FFF7CFFB2146D7
:1032E0003120FFF7CBFB21463220FFF7C7FBE51E5D
:1032F00029463320FFF7C2FB03213420FFF7BEFB32
:1033000021463520FFF7BAFB14213620FFF7B6FB24
:1033100021463720FFF7B2FB21463820FFF7AEFBEE
:1033200021463920FFF7AAFB29463A20FFF7A6FBE2
:1033300003213B20FFF7A2FB21463C20FFF79EFB29
:103340004FF4A0513D20FFF799FB4FF400719220FC
:10335000FFF794FB21469320FFF790FB40F60D0109
:103360009020FFF78BFB41F218010320FFF786FB4B
:10337000BDE8304040F273110720FFF77FBB10B566
:1033800043F20801E320FFF779FB1221E720FFF762
:1033900075FB41F23121EF20FFF770FB0021012086
:1033A000FFF76CFB4FF4E0610220FFF767FB41F28F
:1033B00030010320FFF762FB00210420FFF75EFBD2
:1033C00040F207210820FFF759FB00210920FFF7F1
:1033D00055FB00210A20FFF751FB00210C20FFF7CD
:1033E0004DFB00210D20FFF749FB00210F20FFF7C7
:1033F00045FB00211020FFF741FB07211120FFF7BB
:103400003DFB00211220FFF739FB00211320FFF7BD
:1034100035FBC820FDF7BCF941F290611020FFF7A1
:103420002DFB40F227211120FFF728FB3220FDF76A
:10343000AFF91D211220FFF721FB3220FDF7A8F97B
:103440004FF400611320FFF719FB14212920FFF727
:1034500015FB0B212B20FFF711FB3220FDF798F90C
:1034600000212020FFF70AFB00212120FFF706FBA7
:1034700007213020FFF702FB40F207713120FFF7F0
:10348000FDFA06213220FFF7F9FA40F204713520E7
:10349000FFF7F4FA41F604713620FFF7EFFA042142
:1034A0003720FFF7EBFA00213820FFF7E7FA40F268
:1034B00006713920FFF7E2FA40F201713C20FFF774
:1034C000DDFA0F213D20FFF7D9FA00215020FFF748
:1034D000D5FAEF215120FFF7D1FA00215220FFF752
:1034E000CDFA40F23F115320FFF7C8FA4FF41C51B8
:1034F0006020FFF7C3FA01216120FFF7BFFA002126
:103500006A20FFF7BBFA00218020FFF7B7FA0021FD
:103510008120FFF7B3FA00218220FFF7AFFA0021E4
:103520008320FFF7ABFA00218420FFF7A7FA0021E0
:103530008520FFF7A3FA10219020FFF79FFA0021C2
:103540009220FFF79BFA03219320FFF797FA4FF49D
:1035500088719520FFF792FA00219720FFF78EFAE5
:1035600000219820FFF78AFA41F218010320FFF7A3
:1035700085FABDE8104040F273110720FFF77EBACC
:10358000010901EB810100F00F0000EB4100C0B226
:1035900070470022014602E00A39C9B2521C0A29CA
:1035A000FAD2100741EA1060704700002DE9F0419F
:1035B000044600680025C168490619D4C16841F075
:1035C0008001C160FDF724FA06464FF47A7803279C
:1035D00008E000BFFDF71CFA801B404502D9032517
:1035E00084F825702068C068400601D4032DF1D10D
:1035F0002846BDE8F08170B5044600680025C16822
:1036000021F08001C160206881694FF003068906BE
:1036100007D42046FEF7E2F898B184F82560032528
:103620000FE0816921F0200181612046FEF7D6F884
:1036300010B184F8256003252068816941F02001DC
:103640008161284670BD0000084810B50078032845
:103650000BD1002206490748FDF766FFBDE8104080
:10366000002205490348FDF73DBF10BD1A000020A8
:103670006400002084000020100000207047FDF747
:10368000CDB910B594B038216846FCF77DFF142100
:103690000EA8FCF779FF4FF40070FDF751FA0324F0
:1036A0004FF48030CDE90040001203904020049098
:1036B00002200121CDE908010A21CDE90A10079075
:1036C0000C900D906846FDF70BFD08B172B6FEE751
:1036D0000F20CDE90E0400201090119012900221CD
:1036E0000EA8FDF7D7FB002801D072B6FEE714B094
:1036F00010BD00000248016841F47001016070478C
:1037000088ED00E00148FEF75FBC0000AC0000203F
:103710000148FEF759BC0000F80000200148FEF700
:1037200053BC0000440100202DE9F0430268264B01
:10373000264D274E274C4FF08049984207D04845E8
:1037400005D0A84203D0B04201D0A04203D122F05C
:1037500070074A683A43204FDFF880C0DFF8808066
:1037600098420DD048450BD0A84209D0B04207D0AE
:10377000A04205D0B84203D0604501D0404503D1F6
:1037800022F44075CA682A434D6922F080022A4318
:1037900002608A68C2620A688262984207D0A042C8
:1037A00005D0B84203D0604501D0404501D1096938
:1037B0000163012141610169C90703D0016921F059
:1037C00001010161BDE8F083002C014000040040CC
:1037D0000008004000340140004001400044014026
:1037E0000048014010B501F01F030121046A99400F
:1037F0008C430462016A9A401143016210BD10B506
:10380000846842EA032224F47F440A43224382600C
:1038100010BD00008268034B1A400A4342F00701C2
:10382000816070478FFFCFFF2DE9F043056A026A80
:1038300022F001020262436882691C4C25F00205F5
:1038400022400C6822F0030214438A68194E2A436E
:10385000174D194FDFF864C0DFF86490A84207D015
:10386000B04205D0B84203D0604501D0484506D1EA
:1038700022F00808CA6842EA080222F00402A842BC
:1038800007D0B04205D0B84203D0604501D04845CA
:1038900005D14D6923F440731D438B692B4343606D
:1038A0008461496841630262BDE8F0838FFFFEFFD7
:1038B000002C014000340140004001400044014020
:1038C00000480140F0B5056A026A22F01002026267
:1038D00042688369194C1B4E23400C6823F44073E3
:1038E00043EA042425F020038D6843EA0513144DB0
:1038F000A84201D0B04206D1CF6823F0800343EA4A
:10390000071323F04003A8420AD0B04208D00E4D5E
:10391000A84205D00D4DA84202D00D4DA84207D1B6
:103920004D6922F4406242EA85028D6942EA8502CD
:1039300042608461496881630362F0BDFF8FFFFECE
:10394000002C01400034014000400140004401408F
:1039500000480140F0B5056A026A22F480720262F2
:103960004368C269194C1B4E22400C6822F00302C6
:10397000144325F400728D6842EA0522144DA842D2
:1039800001D0B04206D1CF6822F4006242EA072299
:1039900022F48062A8420AD0B04208D00E4DA8425C
:1039A00005D00E4DA84202D00D4DA84207D14D6959
:1039B00023F4405343EA05138D6943EA051343603A
:1039C000C4614968C1630262F0BD00008FFFFEFF61
:1039D000002C0140003401400040014000440140FF
:1039E00000480140F0B5056A026A22F48052026282
:1039F0004268C369194C1B4E23400C6823F4407382
:103A000043EA042425F400538D6843EA0533144D3A
:103A1000A84201D0B04206D1CF6823F4004343EA64
:103A2000073323F48043A8420AD0B04208D00E4D99
:103A3000A84205D00D4DA84202D00D4DA84207D195
:103A40004D6922F4404242EA85128D6942EA8512AC
:103A50004260C461496801640362F0BDFF8FFFFEEC
:103A6000002C01400034014000400140004401406E
:103A70000048014030B5056A026A22F480320262D1
:103A80004268036D114C23400C681C4325F400333D
:103A90000D8943EA05430E4DA8420BD00D4DA842B7
:103AA00008D00D4DA84205D00C4DA84202D00C4DB7
:103AB000A84204D14D6922F4803242EA05224260D4
:103AC000046549688164036230BD00008FFFFEFF1A
:103AD000002C0140003401400040014000440140FE
:103AE0000048014030B5046A026A22F48012026282
:103AF0004268036D114D24F400142B400D6843EA15
:103B000005230D8944EA05540D4DA8420BD00D4DF7
:103B1000A84208D00C4DA84205D00C4DA84202D0B6
:103B20000B4DA84204D14D6922F4802242EA85223D
:103B3000426003654968C164046230BDFF8FFFFEC7
:103B4000002C01400034014000400140004401408D
:103B50000048014070B505680024AA682E4B1A4041
:103B60004B6813432D4A13400A681A43AA604A68F7
:103B7000602A4AD00DDC302A1FD005DCEAB1102AB9
:103B80001BD0202A18D118E0402A1FD0502A13D168
:103B900035E0234D531BAA420FD009DC702A0ED00A
:103BA000B2F1101F09D0203AB2F5801F04D104E011
:103BB000102B02D0402B00D00124204670BD0B6991
:103BC000D1E902210068FFF71AFEF6E70A68052A24
:103BD00013D0B2F1011F10D00268136A156A25F0E4
:103BE0000105156202689569096925F0F00545EA45
:103BF0000111916100680362DFE7012070BD0A696D
:103C00008968006800F00EF8D7E70A6989680068DB
:103C100000F050F8D1E700008FFFCFFFF8FFFEFF64
:103C20003000100010B5036A046A24F00104046235
:103C3000846924F0F00444EA021423F00A020A43DF
:103C40008461026210BD000070B5056A046A24F048
:103C5000010404628469124EB0420ED0B0F1804F6C
:103C60000BD0104EB04208D00F4EB04205D00F4ED0
:103C7000B04202D00E4EB04203D124F003041443EC
:103C800001E044F001041A0724F0F00444EA12624F
:103C900025F00A0301F00A0119438261016270BD37
:103CA000002C0140000400400008004000340140A6
:103CB0000040014010B5036A046A24F01004046255
:103CC000846923F0A00324F4704444EA023243EAF6
:103CD00001118261016210BD30B5046A056A25F0E8
:103CE00010050562856925F4407545EA022222F433
:103CF00070454FF6FF7202EA033224F0A0032A4314
:103D0000A02404EA011119438261016230BDFEE77B
:103D10000907090E002804DB00F1E02080F80014F8
:103D2000704700F00F0000F1E02080F8141D70478C
:103D300030380A2801D20120704700207047000067
:103D4000FCF774FEFFF79DFCFEF700FFFEF78EFF09
:103D5000FFF772F8FFF7D6F8FFF73CF9FEF7D0FF50
:103D6000FFF71CF8FEF740FD1748FDF7CDFE0021D8
:103D70001648FEF793F804211448FEF78FF8002147
:103D80001348FEF78BF804211148FEF787F800214D
:103D90001048FEF7E9FA00210F48FEF7E5FA4FF662
:103DA000FF742046FEF778FC0020FEF7FFFD20465A
:103DB000FEF7E8FDFEF7CAFBFEF730FDFFF744FC17
:103DC000FFF72EF9F6E7000044010020AC000020C8
:103DD000F800002090010020DC0100204FF040702E
:103DE000E1EE100A70470000000000000000000033
:103DF00000000000000000000000000000000000C3
:103E000000000000000000000000000000000000B2
:103E1000000000000000000080018001800180019E
:103E2000800180018001800180018001800180018A
:103E300080010000000080018001000000000000FF
:103E400000000000000000000000CC00CC00CC000E
:103E5000CC00CC00CC0000000000000000000000FE
:103E60000000000000000000000000000000000052
:103E70000000000000000000000000000000000042
:103E80000000600C600C600C30063006FE1FFE1F48
:103E9000300638071803FE1FFE1F180318038C0195
:103EA0008C018C01000000008000E003F80F9C0EE4
:103EB0008C1C8C188C009800F801E007800E801C88
:103EC0008C188C189C18B80CF00FE0038000800050
:103ED0000000000000000000000000000E181B0C95
:103EE000110C11061106110311039B018E01C0383C
:103EF000C06C60446044304430441844186C0C3842
:103F00000000000000000000E001F0033807180680
:103F100018063003F001F000F8009C310E33061E45
:103F2000061C061C063FFC73F02100000000000088
:103F3000000000000000000000000C000C000C005D
:103F40000C000C000C00000000000000000000004D
:103F50000000000000000000000000000000000061
:103F60000000000000000000000200038001C0000B
:103F7000C0006000600030003000300030003000D1
:103F800030003000300060006000C000C0008001E0
:103F9000000300020000000020006000C00080015B
:103FA000800100030003000600060006000600066C
:103FB0000006000600060003000380018001C00027
:103FC0006000200000000000000000000000000071
:103FD0000000C000C000D806F807E0013003380731
:103FE00000000000000000000000000000000000D1
:103FF00000000000000000000000000000000000C1
:10400000000080018001800180018001FC3FFC3FB5
:10401000800180018001800180010000000000001B
:104020000000000000000000000000000000000090
:104030000000000000000000000000000000000080
:10404000000000000000000080018001000100016C
:1040500080000000000000000000000000000000E0
:104060000000000000000000000000000000E00769
:10407000E007000000000000000000000000000059
:104080000000000000000000000000000000000030
:104090000000000000000000000000000000000020
:1040A0000000000000000000C000C0000000000090
:1040B0000000000000000000000C000C00060006DC
:1040C00000060003000300038003800180018001DB
:1040D000C000C000C00060006000000000000000E0
:1040E0000000000000000000E003F007380E180C8C
:1040F0000C180C180C180C180C180C180C180C18A0
:104100000C18180C380EF007E00300000000000047
:10411000000000000000000000018001C001F0016B
:104120009801880180018001800180018001800167
:1041300080018001800180018001000000000000FA
:104140000000000000000000E003F80F180C0C183D
:104150000C1800180018000C000600038001C000B5
:10416000600030001800FC1FFC1F00000000000071
:104170000000000000000000E001F807180E0C0C21
:104180000C0C000C0006C003C007000C001800183F
:104190000C180C18180CF807E003000000000000D1
:1041A0000000000000000000000C000E000F000FD7
:1041B000800DC00C600C600C300C180C0C0CFC3F1B
:1041C000FC3F000C000C000C000C00000000000084
:1041D0000000000000000000F80FF80F18001800A1
:1041E0000C00EC03FC071C0E001C00180018001843
:1041F0000C181C0C180EF807E0030000000000006B
:104200000000000000000000C007F00F381C181864
:1042100018000C00CC03EC0F3C0E1C1C0C180C18E6
:104220000C18181C380EF007E00300000000000016
:104230000000000000000000FC1FFC1F000C000636
:104240000006000380038001C001C000E0006000A0
:1042500060007000300030003000000000000000FE
:104260000000000000000000E003F007380E180C0A
:10427000180C180C3806F007F007180C0C180C185E
:104280000C180C18380CF80FE003000000000000B8
:104290000000000000000000E003F007380E1C0CD6
:1042A0000C180C180C181C1C381EF81BE0190018F0
:1042B000000C000C1C0EF807F001000000000000CC
:1042C00000000000000000000000000000000000EE
:1042D00000008001800100000000000000000000DC
:1042E00000000000000080018001000000000000CC
:1042F00000000000000000000000000000000000BE
:1043000000008001800100000000000000000000AB
:104310000000000000008001800100010001800019
:10432000000000000000000000000000000000008D
:104330000000000000000010001C800FE003F800E7
:104340001800F800E003800F001C001000000000BF
:10435000000000000000000000000000000000005D
:10436000000000000000F81F000000000000F81F1F
:10437000000000000000000000000000000000003D
:10438000000000000000000000000000000000002D
:1043900000000000000008003800F001C007001F06
:1043A0000018001FC007F0013800080000000000DE
:1043B0000000000000000000E003F80F180C0C18CB
:1043C0000C180018000C000600038001C000C0009B
:1043D000C00000000000C000C0000000000000009D
:1043E00000000000000000000000E0071818042092
:1043F000C229224A114409440944094409221113DB
:10440000E20C024004201818E00700000000000041
:10441000000000000000000080038003C006C0060A
:10442000C006600C600C301830183018F83FF83FA8
:104430001C700C600C6006C006C00000000000008C
:104440000000000000000000FC03FC0F0C0C0C1826
:104450000C180C180C0CFC07FC0F0C180C300C3052
:104460000C300C300C18FC1FFC0700000000000092
:104470000000000000000000C007F01F38381C30AA
:104480000C70066006000600060006000600060026
:1044900006600C701C30F01FE007000000000000F8
:1044A0000000000000000000FE03FE0F060E0618CC
:1044B0000618063006300630063006300630063064
:1044C00006180618060EFE0FFE030000000000008E
:1044D0000000000000000000FC3FFC3F0C000C004E
:1044E0000C000C000C00FC1FFC1F0C000C000C004E
:1044F0000C000C000C00FC3FFC3F00000000000022
:104500000000000000000000F83FF83F180018000D
:10451000180018001800F81FF81F180018001800DD
:104520001800180018001800180000000000000013
:104530000000000000000000E00FF83F3C780E6033
:1045400006E007C00300030003FE03FE03C007C02C
:1045500006C00EC03CF0F83FE00F00000000000075
:1045600000000000000000000C300C300C300C305B
:104570000C300C300C30FC3FFC3F0C300C300C305D
:104580000C300C300C300C300C30000000000000FF
:104590000000000000000000800180018001800117
:1045A0008001800180018001800180018001800103
:1045B0008001800180018001800100000000000076
:1045C00000000000000000000006000600060006D3
:1045D00000060006000600060006000600060006AB
:1045E000180618063807F003E0010000000000007C
:1045F000000000000000000006300618060C060649
:1046000006038601C60066007600DE008E01060302
:104610000606060C061806300660000000000000C2
:10462000000000000000000018001800180018002A
:1046300018001800180018001800180018001800BA
:10464000180018001800F81FF81F000000000000F4
:1046500000000000000000000EE01EF01EF01EF042
:1046600036D836D836D836D866CC66CC66CCC6C6F0
:10467000C6C6C6C6C6C686C386C300000000000004
:1046800000000000000000000C301C303C303C30CA
:104690006C306C30CC30CC308C310C330C330C366D
:1046A0000C360C3C0C3C0C380C30000000000000B8
:1046B0000000000000000000E007F81F1C380E702A
:1046C000066003C003C003C003C003C003C003C02F
:1046D00006600E701C38F81FE007000000000000A4
:1046E0000000000000000000FC0FFC1F0C380C3024
:1046F0000C300C300C300C18FC1FFC070C000C00AC
:104700000C000C000C000C000C000000000000006D
:104710000000000000000000E007F81F1C380E70C9
:10472000066003E003C003C003C003C003C007E08A
:1047300006630E3F1C3CF83FE0F700C0000000009D
:104740000000000000000000FE0FFE1F06380630CB
:10475000063006300638FE1FFE0706030606060C66
:10476000061806180630063006600000000000003B
:104770000000000000000000E003F80F1C0C0C1803
:104780000C180C001C00F803E00F001E0038063067
:1047900006300E301C1CF80FE0070000000000007F
:1047A0000000000000000000FE7FFE7F800180010D
:1047B00080018001800180018001800180018001F1
:1047C0008001800180018001800100000000000064
:1047D00000000000000000000C300C300C300C30E9
:1047E0000C300C300C300C300C300C300C300C30E9
:1047F0000C300C301818F81FE00700000000000013
:1048000000000000000000000360063006300630A3
:104810000C180C180C18180C180C380E3006300632
:10482000700760036003C001C001000000000000C9
:1048300000000000000000000360C361C361C361A9
:104840006633663366336633663366336C1B6C1BC4
:104850006C1B2C1A3C1E380E380E000000000000A5
:1048600000000000000000000FE00C70183030184D
:10487000700C600EC00780038003C003E006700C5C
:10488000301C18180C300E6007E00000000000001B
:10489000000000000000000003C006600C301C385F
:1048A0003818300C6006E007C003800180018001E9
:1048B0008001800180018001800100000000000073
:1048C0000000000000000000FC7FFC7F0060003062
:1048D0000018000C000600038001C00060003000DA
:1048E00018000C000600FE7FFE7F000000000000A4
:1048F0000000000000000000E003E0036000600032
:1049000060006000600060006000600060006000A7
:104910006000600060006000600060006000600097
:10492000E003E003000000003000300060006000A1
:104930006000C000C000C000C00180018001800193
:104940000003000300030006000600000000000052
:104950000000000000000000E003E003000300038B
:10496000000300030003000300030003000300032F
:10497000000300030003000300030003000300031F
:10498000E003E003000000000000C001C00160037C
:104990006003600330063006180C180C000000009D
:1049A0000000000000000000000000000000000007
:1049B00000000000000000000000000000000000F7
:1049C00000000000000000000000000000000000E7
:1049D0000000000000000000FFFFFFFF00000000DB
:1049E00000000000000000000C000C000C000C0097
:1049F0000C000C000000000000000000000000009F
:104A000000000000000000000000000000000000A6
:104A10000000000000000000000000000000000096
:104A20000000F003F8071C0C0C0C000FF00FF80C42
:104A30000C0C0C0C1C0FF80FF0180000000000000C
:104A40000000000000000000180018001800180006
:104A50001800D803F80F380C181818181818181858
:104A600018181818380CF80FD803000000000000C0
:104A70000000000000000000000000000000000036
:104A80000000C003F007300E180C180018001800C2
:104A90001800180C300EF007C003000000000000E2
:104AA00000000000000000000018001800180018A6
:104AB0000018C01BF01F301C1818181818181818E8
:104AC00018181818301CF01FC01B00000000000050
:104AD00000000000000000000000000000000000D6
:104AE0000000C003F00F300C1818F81FF81F180052
:104AF00018003818301CF00FC0070000000000003C
:104B00000000000000000000800FC00FC000C000C7
:104B1000C000F007F007C000C000C000C000C00027
:104B2000C000C000C000C000C000000000000000C5
:104B30000000000000000000000000000000000075
:104B40000000E00DF80F180E0C0C0C0C0C0C0C0CEB
:104B50000C0C0C0C180EF80FE00D000C0C0C1C06C5
:104B6000F807F001000000001800180018001800F5
:104B70001800D807F80F381C181818181818181823
:104B80001818181818181818181800000000000035
:104B90000000000000000000C000C0000000000095
:104BA0000000C000C000C000C000C000C000C000C5
:104BB000C000C000C000C000C00000000000000035
:104BC0000000000000000000C000C0000000000065
:104BD0000000C000C000C000C000C000C000C00095
:104BE000C000C000C000C000C000C000C000C000C5
:104BF000F8007800000000000C000C000C000C0015
:104C00000C000C0C0C060C038C01CC006C00FC009E
:104C10009C018C030C030C060C0C0000000000002F
:104C20000000000000000000C000C000C000C00084
:104C3000C000C000C000C000C000C000C000C00074
:104C4000C000C000C000C000C000000000000000A4
:104C50000000000000000000000000000000000054
:104C600000007C3CFF7EC7E383C183C183C183C155
:104C700083C183C183C183C183C1000000000000E0
:104C80000000000000000000000000000000000024
:104C900000009807F80F381C18181818181818185A
:104CA0001818181818181818181800000000000014
:104CB00000000000000000000000000000000000F4
:104CC0000000C003F00F300C181818181818181826
:104CD00018181818300CF00FC00300000000000076
:104CE00000000000000000000000000000000000C4
:104CF0000000D803F80F380C1818181818181818CE
:104D000018181818380CF80FD803180018001800D5
:104D10001800180000000000000000000000000063
:104D20000000C01BF01F301C18181818181818188D
:104D300018181818301CF01FC01B00180018001895
:104D40000018001800000000000000000000000033
:104D50000000B007F0037000300030003000300079
:104D60003000300030003000300000000000000053
:104D70000000000000000000000000000000000033
:104D80000000E003F003380E180C3800F003C007F1
:104D9000000C180C380EF007E003000000000000C3
:104DA000000000000000000000008000C000C00003
:104DB000C000F007F007C000C000C000C000C00085
:104DC000C000C000C000C007800700000000000055
:104DD00000000000000000000000000000000000D3
:104DE0000000181818181818181818181818181873
:104DF00018181818381CF01FE019000000000000F7
:104E000000000000000000000000000000000000A2
:104E100000000C18180C180C180C30063006300660
:104E2000600360036003C001C001000000000000D7
:104E30000000000000000000000000000000000072
:104E40000000C141C141C36163636363636336367C
:104E5000363636361C1C1C1C1C1C000000000000D2
:104E60000000000000000000000000000000000042
:104E700000001C38381C300C6006600360036003BF
:104E800060036006300C381C1C3800000000000075
:104E90000000000000000000000000000000000012
:104EA00000001830301830187018600C600CE00CDE
:104EB000C006C00680038003800380018001C0011A
:104EC000F000700000000000000000000000000082
:104ED0000000FC1FFC1F000C000600038001C00046
:104EE000600030001800FC1FFC1F000000000000E4
:104EF000000000000000000000038001C000C000AE
:104F0000C000C000C000C000600060003000600051
:104F10004000C000C000C000C000C000C000800150
:104F2000000300000000000080018001800180017A
:104F30008001800180018001800180018001800169
:104F40008001800180018001800180018001800159
:104F500080018001000000006000C000C0018001ED
:104F6000800180018001800100030003000600032E
:104F70000001800180018001800180018001C0006A
:104F800060000000000000000000000000000000C1
:104F9000000000000000F010F81F080F00000000E3
:104FA0000000000000000000000000000000000001
:104FB00000000000000000000000000000000102EE
:104FC00003040607080904000008000000000000B0
:104FD0000002000100001000F84F0008000000204F
:104FE0005000000014020008485000085000002043
:104FF000380800003002000801040700000000002B
:10500000000000000000000000000000436C6F730F
:10501000650000000000000000000000000000002B
:10502000000000000000000000000000000000FF81
:105030000000FFFF00000000100000000100000061
:08504000000000000024F40050
:04000005080001D915
:00000001FF
