:020000040800F2
:1000000030080020990200085F4100084F360008C0
:100010005D41000811150008CF4C000800000000E9
:100020000000000000000000000000003146000851
:100030001315000800000000614100085146000847
:10004000B3020008B3020008B3020008B3020008BC
:10005000B3020008B3020008B3020008B3020008AC
:10006000B3020008B3020008B3020008B30200089C
:10007000B3020008B3020008B3020008B30200088C
:10008000B302000800000000B3020008B302000839
:10009000B3020008B3020008B3020008B30200086C
:1000A000B3020008B3020008B3020008B30200085C
:1000B000B3020008D1460008B3020008B3020008EA
:1000C000B3020008B3020008B3020008B30200083C
:1000D000B3020008B3020008B3020008B30200082C
:1000E000B3020008B3020008B3020008B30200081C
:1000F000B3020008B3020008B302000800000000C9
:1001000000000000B302000800000000B302000875
:10011000B302000800000000DD460008B30200083A
:10012000B3020008B3020008B3020008B3020008DB
:10013000B30200080000000000000000B302000845
:10014000B3020008B3020008000000000000000035
:10015000000000000000000000000000000000009F
:10016000000000000000000000000000B3020008D2
:10017000B3020008000000000000000000000000C2
:1001800000000000B30200080000000000000000B2
:10019000000000000000000000000000000000005F
:1001A0000000000000000000B3020008B3020008D5
:1001B000B3020008B3020008B30200080000000008
:1001C00000000000B3020008000000000000000072
:1001D000B3020008B302000800F002F800F04CF887
:1001E0000AA090E8000C82448344AAF10107DA4592
:1001F00001D100F041F8AFF2090EBAE80F0013F098
:10020000010F18BFFB1A43F001031847F8670000FD
:1002100018680000103A24BF78C878C1FAD852078D
:1002200024BF30C830C144BF04680C607047000070
:100230000023002400250026103A28BF78C1FBD8EF
:10024000520728BF30C148BF0B607047662905F0D0
:100250009C82642900F05480002070471FB505F08F
:100260008AFA00F0C1FB04000020002104F0A2FD86
:10027000E0601FBD10B510BD00F0B6FC1146FFF7E1
:10028000EDFF04F05DFD00F0D4FC03B4FFF7F2FFD6
:1002900003BC00F017FD00000948804709480047EB
:1002A000FEE7FEE7FEE7FEE7FEE7FEE7FEE7FEE726
:1002B000FEE7FEE704480549054A064B7047000083
:1002C000C1460008D9010008300200203008002093
:1002D00030040020300400200FB41CB5074B06AAE0
:1002E0007B4469460090059800F065FB0020694654
:1002F00000F074FB1CBC5DF814FB0000F906000064
:100300002DE9F0410646002410687529314616A5EE
:1003100010D0AFF30080002802DA404213A507E0B6
:1003200031688A0701D512A502E0490704D511A555
:10033000012401E0AFF3008000210A2206F1240726
:1003400009E0B0FBF2FCB0FBF2F302FB1C00303022
:1003500078541846491C0028F3D123462A463046D3
:10036000BDE8F04100F0B9B8000000002D00000029
:100370002B000000200000002DE9F0474FF0000A9C
:1003800089460446C0F820A02046E1688847002836
:1003900076D0252806D0D4E901219047206A401C58
:1003A0002062F1E7E168204600258847C4F81CA0D8
:1003B00006460027C4F818A02A2E09D0304604F0BB
:1003C000B8FC38B304EB8708303EC8F8186019E071
:1003D00059F8041B204604EB87029161E1688847C5
:1003E000012F064618D1E069002820DA25F0200503
:1003F0001DE0D8F8180000EB800006EB4000303814
:10040000C8F818002046E1688847064604F091FCC9
:100410000028EED1012F0AD02E2E08D12046E16807
:1004200088477F1C0646022F45F02005C4DBA069E3
:10043000002803DA404245F00105A061E80701D039
:1004400025F01005B6B1A6F14100192802D82036D2
:1004500045F400654A463146204625604D46FFF783
:10046000F5FE58B1012806D0ED1D25F0070000F17A
:10047000080989E704E005F1040985E730468AE7C1
:10048000206ABDE8F0874FF0000200B5134694469D
:100490009646203922BFA0E80C50A0E80C50B1F1DC
:1004A0002001BFF4F7AF090728BFA0E80C5048BFF0
:1004B0000CC05DF804EB890028BF40F8042B08BF8E
:1004C000704748BF20F8022B11F0804F18BF00F88A
:1004D000012B70477047704770472DE9F0470D4674
:1004E00099469246044600F124080168880604D51E
:1004F000E06921F01001216000E00120A84201DD47
:10050000471B00E00027A1697A1902EB0900081ACD
:10051000A0612078C00602D42046AFF300800026F8
:1005200008E0D4E901211AF806009047206A401C2F
:10053000761C20624E45F4DB2078C0060AD52046A2
:10054000AFF3008006E0D4E9012130209047206A13
:10055000401C2062381EA7F10107F4DC07E0D4E953
:10056000012118F805009047206A401C2062281ECF
:10057000A5F10105F3DC2046AFF3008020780006EA
:1005800002D50220BDE8F0870120FBE770472DE986
:10059000FF4F0C461E464FF0FF378BB0D2E90001EB
:1005A000DDF860800A908A46C1F30A5505B93D46D8
:1005B000002108464FF00000BAF1000F00F440009F
:1005C00005DA00EB80004FF4400101EA50004FEAE9
:1005D0009059B9F1010F00DDB9460A9850EA4A0076
:1005E0000ED044F61050A5F2FF3545432F14B8F154
:1005F000000F1ED07542291E1EDDC9F100021CE04D
:10060000B8F1010F4FF0000001D0302103E0F243B8
:1006100005E02154401CB042FBDB304600220021A3
:1006200021540B99C1F80880C1E900200FB0BDE842
:10063000F08FBD1B6D1CDEE74A4600DA694206A852
:1006400000F05CFA06AB93E8070003AB83E8070011
:1006500050460A9900F03DFB8DE80700A0F50050D8
:100660001F3800900398002D0ADD42F21F014A4610
:100670000844002303A90390684600F0A6FD09E0A2
:10068000A0F500504A461F38002303A9039068468E
:1006900000F0B0FD8DE807000004000C03D04FF01F
:1006A000FF30410800E01046B8F1000F03D00022EF
:1006B000009215461EE0751E05D400F099F93032FF
:1006C00062556D1EF9D5B3460122084302D00022BF
:1006D0007F1C04E02078302801D100227F1E002AF0
:1006E000099784D01DE0112D07DA00F081F930322E
:1006F00062556D1C50EA0102F5D1084302D0009802
:10070000C8B10EE00021681E05E0235C625C635402
:100710002254401E491C8142F7DBAB46A81B401EF9
:100720000990002004F80B000B98099AC0F8088083
:10073000C0E9002B7AE711264FF0000857E72DE9B2
:10074000F04F88460446D21D22F0070191B0D1E94E
:100750000001CDE90A0104F0C4FA02460B98C00F6B
:1007600001D02D2007E02068810701D52B2002E071
:10077000202101EAC000032A099001D0072A05DBE5
:1007800003464146204600F079F90BE120788006C7
:1007900001D5E06900E00620B8F1650F814606D07A
:1007A000B8F1660F18D0B8F1670F70D131E00020B2
:1007B000B9F1110F009001DB112301E009F10103F0
:1007C0000AAA01A90CA8FFF7E2FEDDE90C700026D9
:1007D00009F10105834647E001204B4600904FF0A8
:1007E00000470AAA01A90CA8FFF7D1FEDDE90DB068
:1007F0000C995D46002610B909F101000D18B9EBFE
:10080000050003D4C0F1FF3609F10105A5EB09008D
:100810002BE0B9F1010F01DA4FF001090020B9F125
:10082000110F0090484601DD112300E003460AAA9B
:1008300001A90CA8FFF7ABFEDDE90C704D460026C0
:100840008346207800070AD4AB4500DA5D4601A84C
:10085000012D04DD411911F8011C302907D04F4545
:1008600002DA17F1040F04DA012082460FE06D1E50
:10087000EEE7002F02DCED1B3E4403E0781CA842AB
:1008800000DD7D1CB81B00F1010A4FF00047207805
:10089000000703D4AA4501DB4FF0FF3A0021B7F16E
:1008A000004F0DF143088DF8431024D002202B2374
:1008B000002F01DA7F422D230A21021EA0F1010040
:1008C00000DC5FB197FBF1FC97FBF1F201FB1C7CB4
:1008D00017460CF1300C08F801CDEEE7A8F1010045
:1008E00003702188090501D5452100E06521A0F1AB
:1008F000010800F8011C09980FA9A1EB0807FF1DCA
:1009000000B10120411901EBEA70A1693844081ACD
:10091000401EA0612078C00602D42046AFF30080BC
:10092000099828B1D4E901219047206A401C20622F
:100930002078C00622D52046AFF300801EE0002EAE
:1009400004DBB34502DD01A8805D00E03020D4E97E
:1009500001219047206A401C2062761CAAF1010008
:100960005FEA000A0AD100F03FF8C0680168405C05
:10097000D4E901219047206A401C2062281EA5F17D
:100980000105DCDC07E0D4E9012118F8010B9047F0
:10099000206A401C2062381EA7F10107F3DC2046C4
:1009A000AFF30080032011B041E6000001694A1C4A
:1009B00002610878704700B58FB0CDE901310021A0
:1009C000059105497944CDE9031011466846FFF7C2
:1009D000D3FC0FB000BD0000E5FFFFFF0A6802F87E
:1009E000010B0A607047000000487047F0010020CA
:1009F00030B5B0F10A024FEA900E71F100034EEAF1
:100A0000817EB0EB0E0061EB91014FEA101E4EEAC1
:100A1000017E10EB0E0041EB11114FEA102E4EEA51
:100A2000016E10EB0E0041EB11214FEA104E4EEA21
:100A3000014E10EB0E0041EB1141401841F1000155
:100A40004FEAD00040EA41704FEAD10110EB800537
:100A50004FEA810444EA907444EB01046D1944EBBD
:100A60000404521BA3414FF0000348BF0A3200D5D3
:100A700030BD401C41F1000130BD00002DE9F041C6
:100A80001F46044603260168072A01F4006004DBC0
:100A900008B116A505E016A503E008B115A500E00C
:100AA00015A521F010002060A069C01EA0610FB143
:100AB000401EA0612046AFF300804FB1D4E9012170
:100AC00038469047206A401C2062C01C206206E025
:100AD000206AFAE7D4E9012115F8010B9047761E48
:100AE000F8D22046AFF30080BDE8F0814E414E00C1
:100AF0006E616E00494E4600696E66002DE9F04752
:100B0000814616468AB0354878440DC88DE80D00F8
:100B100032487844801C03AC0DC884E80D0041F6CF
:100B20009B300844372190FBF1F290FBF1F5A5F1E1
:100B3000800501FB12041B3C02D56442012000E049
:100B40000020DFF898A080460027FA44AAF1BE0AE8
:100B50000EE0E0070AD03246684607EB4701012362
:100B60000AEB810100F046FB8DE8070064107F1C52
:100B7000002CEED1194F7F44AE3F19E0E80715D0A5
:100B800007EB04100DF1180A90E80E008AE80E0039
:100B9000C068F04201D1981908903246012306A995
:100BA00003A800F027FB03AB83E807006D10641C6B
:100BB000002DE3D14FF0010332466946B8F1000F32
:100BC00003A802D000F001FB01E000F013FBC9E92B
:100BD0000001C9F808200AB0BDE8F087E05E000017
:100BE00000487047D00100207546FFF7F9FFAE4678
:100BF00005006946534620F00700854618B020B529
:100C0000FFF758FBBDE820404FF000064FF000070B
:100C10004FF000084FF0000B21F00701AC46ACE8A4
:100C2000C009ACE8C009ACE8C009ACE8C0098D4611
:100C3000704710B50446AFF300802046BDE8104071
:100C4000FFF723BB4FF0013C50F8042B51F8043B55
:100C50009A4221D1A2EB0C03934313EACC1317D190
:100C600050F8042B51F8043B9A4215D1A2EB0C0327
:100C7000934313EACC130BD150F8042B51F8043BE7
:100C80009A4209D1A2EB0C03934313EACC13DBD0B5
:100C90004FF00000704700BFD01A01BAB1FA81F1DD
:100CA00001F0180122FA01F0CB40C1F12001DBB2C2
:100CB000C0B2C01A2CFA01F3D11A914311EAC31140
:100CC000E6D1704701491820ABBEFEE726000200BE
:100CD00070475FEA400C08BF91F0000F4FEA8C2389
:100CE0004FEAC12243EA51514FEA1C5018BF00F5A8
:100CF000F0404FEA300018BF41F000415FEA6C5C01
:100D000000F02980BCF1FF3F08BF40F080407047F1
:100D1000130C06BF12044FF0100C4FF0000C130E12
:100D200004BF12020CF1080C130F04BF12010CF1E6
:100D3000040C930F04BF92000CF1020CD30F04BFFC
:100D400052000CF1010C11464FF00002A0F11F00FF
:100D5000A0EB0C00704711F0004F08BF704731F056
:100D600000413FF4D5AF0B0C06BF09044FF0100C47
:100D70004FF0000C0B0E04BF09020CF1080C0B0F16
:100D800004BF09010CF1040C8B0F04BF89000CF1A6
:100D9000020CCB0F04BF49000CF1010CCCF1200375
:100DA000A0EB0C0022FA03F302FA0CF241EA030171
:100DB00000F10100704720F07F4C80EA030023F02F
:100DC0007F47ACEB070303F57C5300F0004003F1D1
:100DD000FF032DE980494FEA154B09B44FEA14434C
:100DE00025EA0B4E24EA03480FF2042606EB1327EC
:100DF00049083E785FEA320203FB0667C7F5000741
:100E000007FB06F64FEA54374FEAD64606F10206CC
:100E100007FB066CCCF1005C4FEA1C472CEA074C40
:100E200007FB06F40CFB06F504EB15464FEA961695
:100E300034BF00204FF000404FEAD13706FB07FCDB
:100E40004FEA1C4C0CFB0BF7D21B03FB0CF761EBBE
:100E500007010CFB0EF7B0EB074072EB17420CFBDF
:100E600008F734BFA2EB0742B2EB074261EB174130
:100E70004FEA0C444FEA910706FB07FC4FEA1C4C73
:100E80000CFB0BF7B0EBC74072EB573203FB0CF7D0
:100E900034BFA2EBC742B2EBC74261EB57310CFB48
:100EA0000EF7B0EBC70072EB57720CFB08F734BFBC
:100EB000A2EBC702B2EBC70261EB5771039F4FEA87
:100EC000816141EA921104EBCC044FEAD1374FEA39
:100ED000826206FB07FC42EA90124FEA80604FEA0A
:100EE0001C4C0CFB0BF7D21B03FB0CF761EB07014F
:100EF0000CFB0EF7B0EB074072EB17420CFB08F748
:100F000034BFA2EB0742B2EB074261EB17414FEA55
:100F10008C554FEA910704EB9C2406FB07FC4FEA33
:100F20001C4C0CFB0BF7B0EBC74072EB573203FBCA
:100F30000CF734BFA2EBC742B2EBC74261EB5731AB
:100F40000CFB0EF7B0EBC70072EB57720CFB08F707
:100F500034BFA2EBC702B2EBC70261EB577115EBCE
:100F60004C254FEA816141EA92114FEA82624FEAD1
:100F7000D13742EA901206FB07FC44F100044FEA25
:100F800080604FEA1C4C0CFB0BF7D21B03FB0CF7E9
:100F900061EB07010CFB0EF7B0EB074072EB174259
:100FA0000CFB08F734BFA2EB0742B2EB074261EB40
:100FB000174115EB1C154FEA813141EA92414FEA86
:100FC000823242EA90424FEA80304FEA0C7644F196
:100FD000000448EA03434EEA0B484FF0000EB2EB20
:100FE000080C71EB030724BF624639464EEB0E0E28
:100FF0004FF0000B0018524149414BEB0B0BB2EB89
:10100000080C71EB03077BF1000B24BF62463946E5
:101010004EEB0E0E4FF0000B0018524149414BEBC6
:101020000B0BB2EB080C71EB03077BF1000B24BF39
:10103000624639464EEB0E0E51EA020718BF46F0E3
:10104000010616EB0E7655F1000254F1000103D5AE
:10105000BDE88901BDE80088BDE88901BDE8004818
:10106000B619524141EB0101A3F1010370478080A1
:101070007F7E7D7C7B7A79787776767574737271F2
:1010800071706F6E6E6D6C6C6B6A6A6968686766AA
:1010900066656464636362616160605F5F5E5E5D3C
:1010A0005D5C5C5B5B5A5A595958585757565655B0
:1010B00055555454535352525251515050504F4F12
:1010C0004F4E4E4D4D4D4C4C4C4B4B4B4A4A4A4962
:1010D00049494848484747474746464645454544A5
:1010E0004444444343434342424242414141002B32
:1010F0009C4630D477002BD01CB54FEA370703B499
:101100004FF010004FF01001BAF1000F06D0BCF103
:10111000000FDCBF40F0080040F008014FF0000075
:101120000FBCBDE810400BF1010BBBF1010F08BF74
:101130005FEA170722BF12F1010211F101014FF01E
:10114000004143F1000300F0004043EA0000704713
:10115000F9D35708D0E746EA064613F1400F4FEAA5
:1011600016461FDD13F1200FDFBF16430A4600218C
:1011700020335B42BED0C3F1200746EA064602FA9E
:1011800007F74FEA164646EA0706C3F1200722FA98
:1011900003F201FA07F721FA03F14FF0000342EAE4
:1011A0000702A7E746EA020646EA06464FEA16465F
:1011B00046EA0106BCBF46EA0646360C4FF000037D
:1011C0004FF000024FF0000194E72DE9804C9A4661
:1011D000934670B491E8380007C831EA400C48BF24
:1011E00034EA430C03D5FFF7E6FDFFF780FFF0BCC0
:1011F000BDE8008C2DE9804C9A46934670B491E886
:10120000380007C810F0804F08BF13F0804F03D19B
:1012100000F005F8FFF76BFFF0BCBDE8008C20F094
:101220007F4780EA030023F07F4C07EB0C03A3F514
:101230007C5300F00040A3F1FE0392F0000F00F099
:10124000B38095F0000F00F077802DE901494FEA57
:1012500011404FEA144621EA004800FB06FC24EA4C
:10126000064708FB06F607FB08F800FB07F718EB34
:1012700006484CEB164C4FEA124B18EB07484FEA66
:1012800015464CEB174022EA0B4E0BFB06FC25EAF9
:1012900006470EFB06F607FB0EFE0BFB07F71EEBE1
:1012A000064E4CEB164C4FF000061EEB074E4CEB77
:1012B000174B18EB0B0840F1000018EB0E0B58EB26
:1012C000000840F100008F1A4FF000013CBFC943F5
:1012D000661B14BFB5EB040C00213CBFC943F61BD1
:1012E0004FEA17444EEA8E0E27EA04454FEA1C47A0
:1012F00004FB07622CEA074C05FB07F70CFB05F61D
:1013000004FB0CFC16EB074642EB174216EB0C46AF
:1013100042EB1C421BEB060658EB0202414146EA37
:101320009E0601D5BDE80189B619524141EB010184
:10133000A3F10103BDE801894FEA14454FEA1147C3
:1013400024EA054621EA074C05FB07F406FB07F7EC
:101350000CFB06F105FB0CFC11EB074144EB1744B9
:101360004FEA124711EB0C4144EB1C4422EA074CB4
:1013700005FB07F206FB07F70CFB06F605FB0CFC6A
:1013800016EB074642EB174216EB0C4642EB1C45A8
:101390006A1854F1000148BF7047B619524141EB39
:1013A0000101A3F10103704795F0000F37D04FEA18
:1013B00011424FEA144721EA024624EA074C02FB95
:1013C00007F106FB07F70CFB06F402FB0CFC14EB21
:1013D000074441EB17414FEA154714EB0C4441EB2E
:1013E0001C4125EA074C02FB07F506FB07F70CFB3F
:1013F00006F602FB0CFC16EB074645EB174516EB11
:101400000C4645EB1C42121951F1000148BF7047D0
:10141000B619524141EB0101A3F1010370474FEAB4
:1014200014454FEA114724EA054621EA074C05FB1B
:1014300007F106FB07F70CFB06F24FF0000605FB71
:101440000CFC12EB074241EB174112EB0C4251EB43
:101450001C4148BF7047921841EB0101A3F1010301
:1014600070470000F8B504460020009020688168AD
:1014700011F0010F41D18168214A11422ED18168BA
:10148000D5432940491C81601E48806800F0E07007
:1014900000020DD51C481D490068B0FBF1F0401C4E
:1014A00000EB4000800000E0401E00900028FBD1CF
:1014B00000F046FD06461BE0816811F0010F03D1E4
:1014C00081682940491C816000F03AFD801B022898
:1014D0000ED920680068C043C00709D0E06D40F015
:1014E0001000E065206E40F0010020660120F8BD8C
:1014F00020680168C943C907DED10020F8BD00009B
:101500003F000080000300505C000020400D0300FD
:10151000FEE77047002240F6B83306E00021491C80
:1015200089B29942FBD3521C92B28242F6D37047E1
:1015300072B6FEE72DE9F84F00270446009790F8B1
:101540005800DFF8E0930D46B846012811D0012677
:1015500084F85860206802F04FFC60B1E06D40F004
:101560002000E0655FF0010784F858803846BDE848
:10157000F88F0220FBE7D5E900210C23206803EA5D
:1015800091131844036B01F01F014FF01F0C0CFA6C
:1015900001FCC2F3846223EA0C038A401343036311
:1015A000206802F029FC8246206802F021FC5AEAF9
:1015B00000003CD1AA6829682068B2F1004F37D0FA
:1015C00002F01EFC2068416921F000414161206861
:1015D0006969C268C2F3C102520091402A69042AB3
:1015E00031D000EB82002B68026EDFF83CC303F0C1
:1015F000F84302EA0C020B431A4342F00041016631
:1016000020682A69A96900EB8200026E22F08072CC
:101610000A430266297F22682869012910D0002127
:1016200002EB8000026E22F000720A4302667DE047
:10163000002202F0E5FB2068416941F00041C5E766
:101640004FF00071ECE7002102F0CCFB4003206872
:101650004FF0000172D002F0C5FB90FAA0F0B0FA92
:1016600080F1286842036ED090FAA0F0B0FA80F0C2
:10167000814204D100221146206802F0D0FB0121F2
:10168000206802F0AFFB400320684FF001015DD0FD
:1016900002F0A8FB90FAA0F0B0FA80F128684203AB
:1016A00059D090FAA0F0B0FA80F0814204D1002223
:1016B0000121206802F0B3FB0221206802F092FBB6
:1016C000400320684FF0020148D002F08BFB90FAF3
:1016D000A0F0B0FA80F12868420344D090FAA0F05C
:1016E000B0FA80F0814204D100220221206802F089
:1016F00096FB0321206802F075FB400320684FF041
:10170000030133D002F06EFB90FAA0F0B0FA80F142
:10171000286842032FD090FAA0F0B0FA80F08142FE
:1017200004D100220321206802F079FB206881683F
:1017300011F0010F22D0ACE000E004E002F052FB17
:10174000C0F384618DE7C0F3846091E702F04AFB47
:10175000C0F38461A2E7C0F38460A6E702F042FB15
:10176000C0F38461B7E7C0F38460BBE702F03AFBE3
:10177000C0F38461CCE7C0F38460D0E72A7B29689A
:1017800050F8B03FC1F3120C23EA0C0302F0180C1E
:10179000664A22FA0CF20A4013430360E96849459D
:1017A00077D1286841031CD090FAA0F1B1FA81F1F9
:1017B000491C01F01F0109294FEA403132D80029A4
:1017C00012D000BF90FAA0F1B1FA81F101F101014C
:1017D00001F01F0106FA01F609D100BFC0F38461D0
:1017E00009E0C0F38461E3E7C0F38461EEE790FAB7
:1017F000A0F1B1FA81F101F1010101F01F0146EA06
:10180000816102D1C0F3846003E090FAA0F0B0FAE5
:1018100080F000F1010000F01F0000EB400041EA01
:10182000005132E000290ED090FAA0F1B1FA81F116
:1018300001F1010101F01F0106FA01F606D100BF16
:10184000C0F3846106E0C0F38461F1E790FAA0F18F
:10185000B1FA81F101F1010101F01F0146EA816154
:1018600002D1C0F3846003E090FAA0F0B0FA80F0F7
:1018700000F1010000F01F002D4A00EB400002EBD8
:10188000005041EA000141F00071AA68206802F0AE
:10189000B7FA28482A6802423FF466AE26488168B3
:1018A000264B01F0E0719A4202D0254B9A421CD19E
:1018B0000B021AD42268B2F1A04F7FF455AE8268B1
:1018C00041F4000122F0E0720A4382601D481E4983
:1018D0000068B0FBF1F0401C00EB4000800000E02D
:1018E000401E00900028FBD13EE6184D184BAA423E
:1018F00007D1CD0105D422689A42F5D041F080711C
:1019000009E0144DAA42EFD14A02EDD422689A426E
:10191000EAD041F48001826822F0E0720A438260DA
:1019200022E6000000007F4000F0FF03FFFF0700F9
:10193000000020FE0000088000030050000021C3CA
:101940001000C0905C000020400D0300000052C752
:1019500000010050000084CB0068006C704700005C
:10196000F8B54FF0000504002E46009502D0E06D5A
:1019700010B107E00120F8BD204600F0EBF8266624
:1019800084F8586020688168C1F3407119B181689A
:10199000684A1140816020688168C1F3007189B98B
:1019A0008168654A114041F0805181606348644913
:1019B0000068B0FBF1F04000801C00E0401E009089
:1019C0000028FBD120688168C1F3007141B9E16D45
:1019D00041F01001E165216E41F001012166012510
:1019E00002F00AFAE16DC90600D430B1E06D40F0B2
:1019F0001000E06501252846F8BDE06D20F48070F8
:101A000040F00200E0652068806810F0010F11D1FD
:101A10004FF0A04080684B4900F00100896801F058
:101A20000101084306D148486168826822F47C12AB
:101A30000A438260E168E06B627F0843A16841EA83
:101A40004231084394F8241040EA0140012904D1AE
:101A5000218D3E4A02EB41410843E16A29B101F47C
:101A60007871226B014342EA01002268D168384B49
:101A700019400143D16020680169626B21F0406127
:101A800011430161206802F0B3F970BB207F94F824
:101A90003810800340EA41022168C86844F202031A
:101AA00098431043C86020690028206801690AD063
:101AB00041F480310161206850F8C01F22696FF342
:101AC0000D01114307E021F480310161206850F8D5
:101AD000C01F6FF30D01016094F8400001280CD085
:101AE0002068016921F00101016160690128206815
:101AF000016B21F00F0111D013E0D4E9110108436B
:101B0000D4E913121143084321680A6940F2FC73B7
:101B10009A43104340F001000861E6E7226A521E32
:101B200011430163E06D20F0020040F00100E06528
:101B300061E70000C0FFFF5FC0FFFF7F5C00002087
:101B4000400D030000010050000300500000FEFFA4
:101B50000740F0FF10B598B00446142111A8FEF715
:101B600092FC44216846FEF78EFC154920688842A5
:101B700023D1C401400500940F90684600F0DEFABE
:101B800008B1FFF7D5FC0F48C16C41F40051C164A6
:101B9000C16C01F400511691C16C41F00201C164A5
:101BA000C06C11A900F0020016900320CDE911408D
:101BB00000201390044800F095F818B010BD000004
:101BC0000001005000100240000400482DE9F041DF
:101BD00004463848806800F01F05206802F00CF9C0
:101BE00018B102210846BDE8F08194F85800012898
:101BF0000CD0012084F858002046FFF733FC010088
:101C00004FF0000304D084F85830EBE70220EAE7F5
:101C1000E06D40F60162904340F48070E065264A32
:101C200020684FF0A046904201D1374600E00746B9
:101C3000874200D01DB9E76D27F48017E765E76D8F
:101C4000FF0404D5276E27F00607276600E0236609
:101C50001C27076084F858302068904201D1334631
:101C600000E00346834215D0A5B1052D12D0092D01
:101C700010D0E36D43F48013E365904200D1304609
:101C8000C0688001AED5E06D20F4005040F4805073
:101C9000E065A7E7C268920105D5E26D22F4005223
:101CA00042F48052E2658268044B1A40121D826041
:101CB00098E700000003005000010050C0FFFF7FC4
:101CC00070B5044600F03CF90546601C02D004489B
:101CD0004068044400F034F9401BA042FAD370BDC0
:101CE000500000202DE9F04FDFF82092002301265C
:101CF0000324A9F1040B85B00F2709F1040AABF105
:101D0000040EFAE006FA03F52A407CD091F804C0EC
:101D10000CF0030CBCF1010F02D0BCF1020F26D174
:101D2000D0F808C0CDF800C04FEA430C04FA0CF814
:101D3000CDF810C0DDF800C02CEA080CCDF800C0CA
:101D4000D1F80C80DDF810C008FA0CF8DDF800C0FE
:101D500048EA0C08C0F80880D0F804C02CEA050C4A
:101D60000D79C5F300159D4045EA0C0545600D79D8
:101D7000ED43AD070ED0C5684FEA430804FA08FCEE
:101D800025EA0C05D1F808C00CFA08FC4CEA050C51
:101D9000C0F80CC00D7905F00305022D16D1DD0841
:101DA00000EB850CCDF808C0DCF820805D074FEA19
:101DB000D56C07FA0CF528EA05080D6905FA0CF54B
:101DC000DDF808C045EA0805CCF8205005684FEA60
:101DD000430CCDF808C004FA0CFC25EA0C0591F878
:101DE00004C00CF00308DDF808C008FA0CF848EA53
:101DF0000508C0F800804D6815F4403F7CD0444D84
:101E0000D5F860C000E077E04CF0010CC5F860C088
:101E10002D6E23F0030C05F0010500953D4D654442
:101E20000295AD684FEA837C4FEA1C7807FA08FCFC
:101E300025EA0C05B0F1904F06D0DFF8DCC0604514
:101E400005D14FF0010C20E04FF0000C1DE0DFF851
:101E5000CCC0604502D14FF0020C16E0DFF8C0C0E4
:101E6000604502D14FF0030C0FE0DFF8B8C06045C9
:101E700002D14FF0040C08E0DFF8ACC0604502D19D
:101E80004FF0050C01E04FF0060C0CFA08FC4CEA90
:101E9000050C029DC5F808C0D9F80050CC46D1F811
:101EA000048095435FEAC82800D51543CCF800505C
:101EB000DAF80050D446D1F8048095435FEA8828C8
:101EC00000D51543CCF80050DBF80050DC46D1F8C3
:101ED000048095435FEA883800D51543CCF800505C
:101EE000DEF80050F446D1F8048095435FEAC83824
:101EF00000D51543CCF800505B1C0A6832FA03F594
:101F00007FF400AF05B0BDE8F08F00000804014089
:101F10000010024000000140000400480008004892
:101F2000000C0048001000480014004800690840F8
:101F300000D0012070470AB181617047816270470B
:101F40000148806870470000500000200248816806
:101F500042681144816070475000002010B5002491
:101F6000032000F073F80F2000F008F808B10124F6
:101F700001E000F025F8204610BD000070B50E4EBF
:101F800005460024706898B14FF47A71B1FBF0F007
:101F90000A490968B1FBF0F000F03CFD40B9102D92
:101FA00006D200222946501E00F030F8356000E0CD
:101FB0000124204670BD0000500000205C0000207D
:101FC0000A4882B0016E41F001010166016E01F024
:101FD00001010091816D41F080518165806D00F0BB
:101FE0008050009002B000F0A1B800000010024044
:101FF000002809DB00F01F02012191404009800008
:1020000000F1E020C0F8001170470000F0B40E4B62
:102010001B680C46C3F30223C3F10705042D00D946
:102020000425191D072901D2002300E0DB1E01262B
:1020300006FA05F1491E214099409E40761E164041
:102040003143F0BC02F065BE0CED00E0064900F043
:10205000070208684FF6FF03184040EA0220034ACF
:1020600010430860704700000CED00E00000FA0526
:102070002B492C4B0A6832214A432B4940B1B0F519
:10208000007F086829D020F4C06040F480602CE014
:102090000868C0F34120022804D051F8800F20F4D2
:1020A000807022E0D1F8800020F48070C1F88000B8
:1020B000086820F4C06040F400700860B2FBF3F0E0
:1020C000401C00E0401E4A69520501D50028F9D1A4
:1020D000486940050AD503207047C0F34120022813
:1020E00006D051F8800F40F48070086000207047DF
:1020F000D1F8800040F48070C1F88000086820F4B6
:10210000C06040F400700860B2FBF3F0401C00E0D7
:10211000401E4A695205DBD50028F9D1D8E70000F6
:102120005C00002040420F000070004002488168BF
:1021300041F4804181607047007000402DE9F84310
:102140000446006800269D4D00035ED5A86D00275B
:10215000C00008D4A86D40F08050A865A86D012784
:1021600000F080500090DFF85892D9F8001041F448
:102170008071C9F80010FFF7E3FE804606E000BF5B
:10218000FFF7DEFEA0EB080002282BD8D9F80000EC
:10219000C005F5D5D5F8900010F4407014D0216C2E
:1021A000814211D0D5F89000D5F8901020F44070FD
:1021B00041F48031C5F89010D5F8901021F48031A9
:1021C000C5F89010C5F89000C00711D0FFF7B8FE11
:1021D000804641F2883907E0FFF7B2FEA0EB080124
:1021E000494501D903260BE0D5F890008007F3D5C7
:1021F000D5F89000216C20F440700843C5F8900099
:102200001FB1A86D20F08050A8652078C00707D0C6
:10221000D5F88800616820F003000843C5F88800FD
:102220002078800707D5D5F88800A16820F00C0039
:102230000843C5F888002078400707D5D5F88800FE
:10224000E16820F030000843C5F8880020780007D6
:1022500007D5D5F88800216920F0C0000843C5F8EB
:1022600088002078800607D5D5F88800616920F4B9
:1022700040600843C5F888002078400607D5D5F8A7
:102280008800A16920F440500843C5F888002078F0
:10229000000607D5D5F88800E16920F440400843DE
:1022A000C5F888002088C00507D5D5F88800216AC0
:1022B00020F440300843C5F888002088800507D501
:1022C000D5F88800616A20F440200843C5F88800EA
:1022D000208840050FD5D5F88800A16A20F4401069
:1022E0000843C5F88800A06AB0F5801F03D1E868EC
:1022F00040F48010E860208800050FD5D5F88800EC
:10230000E16A20F440000843C5F88800E06AB0F5AF
:10231000800F03D1E86840F48010E8602088C00492
:102320000FD5D5F88800216B20F040700843C5F820
:102330008800206BB0F1807F03D1E86840F4801002
:10234000E86020884FF0006180040ED5D5F8880041
:10235000626B20F040601043C5F88800606B8842D3
:1023600003D1E86840F48010E860208840040ED56E
:10237000D5F88800A26B20F040601043C5F88800B3
:10238000A06B884203D1E86840F48010E8602088A0
:1023900000040FD5D5F88800E16B20F040500843C9
:1023A000C5F88800E06BB0F1805F03D1E86840F4C5
:1023B0008030E8603046BDE8F8830000001002403D
:1023C000007000402DE9F0470E4605004FF0000771
:1023D00025D0DFF8AC81D8F8000000F00F00B04243
:1023E0000CD2D8F8001021F00F013143C8F80010CA
:1023F000D8F8000000F00F00B04210D12968614CFD
:10240000C80741F2883A5AD06868DFF87C910328FF
:1024100008D0022820682DD0400500282CDB0120A0
:10242000BDE8F08720688001F9D5E06800F003027C
:10243000E068C0F30310401C032A19D0534A00BFC0
:10244000B2FBF0F0E268C2F306225043E268C2F346
:102450004162521C5200B0FBF2F0484517D9A06807
:1024600010F0F00F0CD0880711D5A86840B10EE02D
:10247000474AE5E78003D0E700F092F8484506D9DF
:10248000A06820F0F00040F08000A0608027A068E5
:10249000696820F003000843A060FFF751FD814602
:1024A00006E000BFFFF74CFDA0EB090151453AD80B
:1024B000A068696800F00C00B0EB810FF2D12868C9
:1024C000810714D5400703D5A06840F4E060A06000
:1024D0002878000705D5A06820F4605040F4E0603B
:1024E000A060A068A96820F0F000084304E0802FF5
:1024F00003D1A06820F0F000A060D8F8001040469A
:1025000001F00F01B14216D9016821F00F013143EA
:102510000160FFF715FD074607E000BFFFF710FD5C
:10252000C11B514501D903207AE7D8F8000000F01B
:102530000F00B042F2D12878400705D5A068E968BD
:1025400020F4E0600843A0602878000706D5A06862
:10255000296920F4605040EAC100A06000F020F832
:10256000A1680C4AC1F30311515C01F01F01C8407E
:102570000949086009480068BDE8F047FFF7FEBC5C
:10258000002002400010024000B4C4040024F40003
:1025900000366E015E6900085C00002050000020DB
:1025A000184910B58868C0F381021748012A0BD07A
:1025B0008A68164BC2F38102022A06D08A68C2F3E7
:1025C0008102032A03D0002010BD184610BDCA683E
:1025D00002F00304CA68C2F30312521C032C02D097
:1025E000B0FBF2F001E0B3FBF2F0CA68C968C2F3D5
:1025F00006225043C1F34161491C4900B0FBF1F090
:1026000010BD0000001002400024F40000366E01EE
:102610002DE9F84304007AD02078F84DC00747D060
:10262000A868E96800F00C0001F003010C2802D052
:10263000082817D001E0032914D06068B0F5803F66
:1026400017D0B0F5A02F286817D020F4803028606C
:10265000286820F4802028606068E0B1FFF770FCF3
:10266000064614E02868800322D560680028D2D08E
:102670001EE0286840F48030EDE740F480202860B8
:10268000F7E700BFFFF75CFC801B642870D8286860
:102690008003F7D50CE0FFF753FC064605E000BFCA
:1026A000FFF74EFC801B6428F0D828688003F7D41D
:1026B000207880074CD5A868E96800F00C0001F08C
:1026C00003010C2802D004280DD001E002290AD011
:1026D000E068002828682BD040F480702860FFF75D
:1026E0002FFC064619E02868400502D5E06800285E
:1026F00091D06868217C20F0FE4040EA016068606B
:10270000BF480068FFF73AFC002800D120E072E1E2
:10271000FFF716FC801B0228B8D828684005F7D5BB
:102720006868217C20F0FE4040EA016068600FE0AC
:1027300020F480702860FFF703FC064605E000BF28
:10274000FFF7FEFB801B0228A0D828684005F7D4BD
:102750002078000729D560690028D5F8940013D0A7
:1027600040F00100C5F89400FFF7EAFB064606E0DA
:1027700090E000BFFFF7E4FB801B022886D8D5F865
:1027800094008007F6D510E020F00100C5F8940011
:10279000FFF7D6FB064604E0FFF7D2FB801B0228BA
:1027A00078D8D5F894008007F6D42078400761D512
:1027B000A86D0026C00008D4A86D40F08050A86520
:1027C000A86D012600F0805000908E480168C90570
:1027D00011D40168804641F480710160FFF7B0FBBD
:1027E000074604E0FFF7ACFBC01B022852D8D8F81C
:1027F0000000C005F6D5A068012815D00528D5F839
:10280000900016D020F00100C5F89000D5F8900097
:1028100020F00400C5F89000A06841F28838B8B1F3
:10282000FFF78EFB07460EE0D5F8900040F0010060
:10283000F0E740F00400C5F89000F5E7FFF780FBF3
:10284000C11B414526D8D5F890008007F6D50CE08D
:10285000FFF776FB074604E0FFF772FBC11B41451B
:1028600018D8D5F890008007F6D41EB1A86D20F0D6
:102870008050A8652078800629D5A0690028D5F861
:10288000980013D040F00100C5F89800FFF758FBFE
:10289000064606E075E000BFFFF752FB801B0228EA
:1028A0006FD8D5F898008007F6D510E020F0010029
:1028B000C5F89800FFF744FB064604E0FFF740FB2D
:1028C000801B02285DD8D5F898008007F6D4E0690F
:1028D000F0B3A968C1F3810103295DD002282868FB
:1028E00020F08070286003D0FFF72AFB04464BE0FD
:1028F000FFF726FB064604E0FFF722FB801B0228B9
:102900003FD828688001F7D4F4E908016FF00F027E
:1029100002EB01110843218A5204490802EB41519C
:10292000A26841EA02210843217D4FF07E42490816
:1029300002EB41610843217B40EAC160E968324A09
:1029400011400843E860286840F08070286000E08B
:102950005EE0E86840F08070E860FFF7F1FA044656
:1029600005E000BFFFF7ECFA001B022809D8286831
:102970008001F7D54CE000BFFFF7E2FA001B022808
:1029800002D90320BDE8F88328688001F4D4E86800
:102990001E490840E8603BE00128F3D0E868226A5D
:1029A00000F00301914226D1616A00F0F0020901B2
:1029B000103991421FD1A26A00F4FE41B1EB022FFF
:1029C00019D194F82C2000F07841B1EBC26F12D1EC
:1029D000218E00F4C00249084905A1F50011914279
:1029E00009D194F8341000F0C06049084906A1F1FB
:1029F000007181420CD00120C4E7000000100240A9
:102A000050000020007000400C809F01FCFFEEFE93
:102A10000020B7E710B5401EB0F1807F01D3012040
:102A200010BD4FF0E02460610F21601702F071F9D2
:102A30000020A06107202061002010BD7047704772
:102A40007047704770477047F0B590F83C20012AF6
:102A50003AD0012580F83C50022280F83D200368DE
:102A60005A689C68194E1A4FB34201D0BB4204D138
:102A700022F4700C4A6842EA0C02DFF858C002EAFD
:102A80000C02D1F800C04CEA020CC3F804C0026882
:102A9000B2420DD0B2F1804F0AD00F4B9A4207D00C
:102AA0000E4B9A4204D0BA4202D00D4B9A4204D146
:102AB000896824F080031943916080F83D5000211B
:102AC00080F83C100846F0BD0220F0BD002C01400B
:102AD000003401408FFFFFFD00040040000800406B
:102AE00000400140704710B5040003D094F83D0049
:102AF00010B107E0012010BD002084F83C00204602
:102B000000F022F8022084F83D00211D206801F029
:102B1000EBFD012084F8480084F83E0084F83F0073
:102B200084F8400084F8410084F8420084F84300AF
:102B300084F8440084F8450084F8460084F847008F
:102B400084F83D00002010BD10B586B00446142165
:102B50006846FDF798FC21682448B1F1804F26D0E3
:102B6000234A91422DD1816D41F002018165816D31
:102B700001F002010591C16C41F00101C164C06C1A
:102B8000002100F001000590802000900220CDE996
:102B90000101CDE9031069464FF09040FFF7A2F81C
:102BA000002211461D20FFF731FA1D201AE0816D29
:102BB00041F001018165806D00F00100059006B0D3
:102BC00010BD0C4A9142FAD1816D41F0100181652E
:102BD000806D002200F01000059011463620FFF7AE
:102BE00015FA3620FFF704FAE9E70000001002406A
:102BF000000400400010004090F83D10012901D071
:102C000001207047022180F83D100168CA6842F037
:102C10000102CA600068104988420ED0B0F1804FAE
:102C20000BD00E49884208D00D49884205D00D4985
:102C3000884202D00C49884207D181680B4A114072
:102C4000062906D0B1F5803F03D0016841F00101AB
:102C50000160002070470000002C0140000400408B
:102C6000000800400034014000400140070001001E
:102C700070B5044690F83C000025012814D00126C8
:102C800084F83C60022084F83D0022689068364B4E
:102C9000184020F47F409060086870282ED010DC27
:102CA00010F00F0F03D021E04FF0020070BD4FEA8B
:102CB0002012072A1AD2DFE802F0525252524A3842
:102CC00040002A4BC21A984249D009DCB0F5805F17
:102CD0000DD0B0F5005F1CD0B0F1101F06D13EE062
:102CE000102A3CD0202A3AD0502A38D0012584F826
:102CF0003D60002084F83C00284670BDCB68D1E9D7
:102D00000121206801F05BFD2068816841F07701B6
:102D100009E0CB68D1E90121206801F050FD20686D
:102D2000816841F480418160E1E7CA6849682068B0
:102D300001F058FF5021206806E0CA684968206801
:102D400001F098FF6021206801F044FDCFE7CA68D8
:102D50004968206801F046FF40212068F4E72268B6
:102D600001461046F0E7000088FFCEFF200010006B
:102D70000C4910B5884214D1007F022811D10421DA
:102D8000084800F023FC084C00212080054800F092
:102D90001DFC60802088002803D00449B1FBF0F0BE
:102DA000A08010BD180100200600002000B4C4045B
:102DB0002DE9F041054690F83C0000260C4601281C
:102DC00010D0012085F83C0072B1042A1CD0082ADA
:102DD0002CD00C2A50D00126002085F83C0030462B
:102DE000BDE8F0810220FBE7D4E90012E36828681F
:102DF00001F00AFF2868816921F00C0181612868CF
:102E00008169A26811430FE0D4E90012E3682868E1
:102E100001F042FF2868816921F4406181612868DE
:102E20008169A26841EA02218161D5E72868D4E975
:102E3000002C277B036A016A21F480710162C16959
:102E400023F4206321F0030141EA0C0121F0F00C8E
:102E500039074FF420674CEA116107EA02221A434E
:102E6000C16102622868C16921F00C01C161286852
:102E7000C169A26811432BE02868D4E90021E76802
:102E8000036AD0F820C02CF4805CC0F820C0D0F8D1
:102E90001CC023F420432CF4407C4CEA012121F493
:102EA000704C4FF6FF7101EA07314FF4204741EAB9
:102EB0000C0107EA02321A43C16102622868C16943
:102EC00021F44061C1612868C169A26841EA022118
:102ED000C16181E710B5040003D094F83D0010B142
:102EE00007E0012010BD002084F83C00204600F0DF
:102EF00022F8022084F83D00211D206801F0F4FB37
:102F0000012084F8480084F83E0084F83F0084F8EB
:102F1000400084F8410084F8420084F8430084F8BB
:102F2000440084F8450084F8460084F8470084F89B
:102F30003D00002010BD704730B50446002571B13A
:102F4000042911D0082914D00C2917D0102918D021
:102F500094F8430094F84720012817D114E094F81E
:102F60003E0094F84420F7E794F83F0094F8452099
:102F7000F2E794F8400094F84620EDE794F8410019
:102F8000E8E794F84200E5E7012A01D0012030BDCE
:102F9000022079B1042916D008291DD00C2949D066
:102FA00010294AD084F8430084F847000C2947D000
:102FB00001253DE084F83E0084F844002068C268A2
:102FC00042F0020210E084F83F0084F845002068D7
:102FD000C26842F0040207E084F8400084F846002A
:102FE0002068C26842F00802C2600122206801F035
:102FF000D9FB1649206888420ED0B0F1804F0BD023
:103000001349884208D01349884205D012498842A2
:1030100002D01249884207D18168114A114006291D
:1030200006D0B1F5803F03D0016841F00101016095
:10303000284630BD84F84100B6E784F84200B3E783
:103040002068C26842F01002CEE70000002C014068
:1030500000040040000800400034014000400140EE
:10306000070001002DE9F04104460068C6680569C3
:103070004FF00007A90713D5B10711D5F91E01615B
:1030800001202077206880698007204602D0FFF762
:103090006FFE04E000F0DEF8204600F0A0F927778C
:1030A000680716D5700714D521686FF00400086111
:1030B000022020772068806910F4407F204602D0EB
:1030C000FFF756FE04E000F0C5F8204600F087F94F
:1030D0002777280715D5300713D521686FF008002A
:1030E0000861042020772068C0698007204602D04C
:1030F000FFF73EFE04E000F0ADF8204600F06FF967
:103100002777E80616D5F00614D521686FF0100071
:103110000861082020772068C06910F4407F2046AD
:1031200002D0FFF725FE04E000F094F8204600F0FE
:1031300056F92777E80708D0F00706D021686FF026
:1031400001000861204600F0C9F9280601D4A8044E
:1031500008D5300606D521686FF402500861204674
:10316000FFF76DFCE80508D5300606D521686FF439
:10317000807008612046FFF761FC680608D570067C
:1031800006D521686FF040000861204600F05EFA25
:10319000A80608D5B00606D521686FF020000861A2
:1031A0002046FFF74DFCE80208D5F00206D521685D
:1031B0006FF4801008612046FFF744FCA80208D590
:1031C000B00206D521686FF4001008612046FFF7B1
:1031D00038FC680208D5700206D521686FF48000BB
:1031E00008612046FFF72FFC28020AD5300208D5D7
:1031F00021686FF4000008612046BDE8F041FFF748
:1032000071BCBDE8F081000010B586B00446142101
:103210006846FDF738F92068B0F1804F15D10C48A9
:10322000C16C41F00101C164C06C694600F001004D
:103230000590022000900190002002900390012050
:1032400004904FF09040FEF74DFD06B010BD000019
:1032500000100240704770B5044690F83C0000260C
:103260000D4601280BD0012084F83C000C2A4AD0DE
:1032700007DC82B1042A20D0082A06D131E00220DE
:1032800070BD102A53D0142A63D00126002084F880
:103290003C00304670BD206801F0A6FA20688169C4
:1032A00041F0080181612068816921F00401816198
:1032B000206881692A69114311E0206801F0E2FA6F
:1032C0002068816941F4006181612068816921F48D
:1032D00080618161206881692A6941EA02218161F6
:1032E000D4E7206801F016FB2068C16941F00801AD
:1032F000C1612068C16921F00401C1612068C16910
:103300002A69114311E0206801F04CFB2068C16973
:1033100041F40061C1612068C16921F48061C1612B
:103320002068C1692A6941EA0221C161AEE72068CB
:1033300001F080FB2068016D41F008010165206803
:10334000016D21F0040101652068016D2A691143B6
:1033500011E0206801F0A6FB2068016D41F40061D6
:1033600001652068016D21F4806101652068016DAF
:103370002A6941EA0221016588E710B5040003D0FB
:1033800094F83D0010B107E0012010BD002084F842
:103390003C00204600F022F8022084F83D00211D68
:1033A000206801F0A1F9012084F8480084F83E006B
:1033B00084F83F0084F8400084F8410084F842001B
:1033C00084F8430084F8440084F8450084F84600FB
:1033D00084F8470084F83D00002010BD7047704716
:1033E00030B50446022269B1042912D0082917D049
:1033F0000C291CD0102921D094F84300012824D096
:10340000012030BD94F83E000128F9D184F83E2017
:103410001DE094F83F000128F2D184F83F2016E027
:1034200094F840000128EBD184F840200FE094F894
:1034300041000128E4D184F8412008E094F84200DA
:103440000128DDD184F8422001E084F843200122E4
:10345000206801F0A7F9194B20681949194A9842C8
:1034600009D0884207D0904205D0174DA84202D01B
:10347000164DA84203D1456C45F4004545642068CB
:1034800098420CD0B0F1804F09D0114B984206D031
:10349000104B984203D0884201D0904207D18168F6
:1034A0000D4A1140062906D0B1F5803F03D00168CE
:1034B00041F001010160002030BD0000002C0140FE
:1034C00000340140004001400044014000480140F8
:1034D00000040040000800400700010070B53649B4
:1034E000884267D1354C0025A088401C80B2A0805E
:1034F000B0F57A7F00D1A580A0880921B0FBF1F258
:1035000001FB120109B9012121703121B0FBF1F257
:1035100001FB120109B9022121703C21B0FBF1F23B
:1035200001FB120109B9032121705021B0FBF1F216
:1035300001FB120109B9042121706426B0FBF6F1E8
:1035400006FB110129B905212170A17881F0010143
:10355000A1701A4900F007000E31095C00F0FCFB75
:10356000A088B0FBF6F106FB1100002822D1144917
:10357000087800281ED0134802781348002A0288D1
:1035800007D0503292B24FF4FA5302809A4207D8D1
:1035900008E0503A92B24FF47A6302809A4201D224
:1035A00003800D706078401CC0B26070322801D179
:1035B0000D70657070BD00006401002000000020E7
:1035C0001F0000201E0000202800002002460020CE
:1035D00041B1042909D008290AD00C2901D1106869
:1035E000006C70471068406B70471068806B7047C4
:1035F0001068C06B704770B5044690F83C00012815
:1036000012D0012584F83C50022084F83D00204669
:1036100001F080FA01004FF0000007D084F83D501F
:1036200084F83C00012070BD022070BD2168CA688A
:1036300022F04002CA602168CA6822F48042CA604F
:1036400084F83D5084F83C00002070BD7047FEE7D0
:1036500070B54048017801296ED10025057000F051
:103660007FF83D4C2070E17820EA0102414081431F
:103670006270A170E070012A15D12079401CC0B29F
:103680002071032804D0022804D0012805D007E0C7
:10369000257105E06089A08102E0A0896081257222
:1036A000002000F0ABF8637801222C49022B06D0F1
:1036B00029480A30032B15D0042B1FD02FE0207986
:1036C000E379034307D1A37983F00103A371E27186
:1036D00063795B1C6371012821D1207A80F001009D
:1036E00020721CE02379012B19D1237AC65C761C49
:1036F000F6B2C6540A2E12D9C25410E0237913B17F
:10370000012B03D00BE00868206208E0237AC65C36
:10371000761E16F0FF06C65401D10A26C654086864
:10372000236AC01AB0F5FA6F207906D2002803D1B7
:10373000A078042800D1657270BD0028FCD1E07823
:10374000042800D16272A0780428F5D108682062AC
:1037500070BD00000000002018000020580000206C
:1037600070B50E4D01212846FEF7E0FB00B901249B
:1037700002212846FEF7DAFB00B90224042128467C
:10378000FEF7D4FB00B9032401214FF09040FEF76F
:10379000CDFB00B90424204670BD000000040048A1
:1037A00000B585B014216846FCF76DFE4FF6FF703A
:1037B000009000200321CDE90201019069460248F2
:1037C000FEF790FA05B000BD0008004800B585B0CE
:1037D00014216846FCF757FE4FF6FF700090012059
:1037E0000190032003900020029069460248FEF7F2
:1037F00079FA05B000BD00000008004870B500244B
:1038000006462146204600F0FBF900F03DFA4FF451
:103810009635304600F008FA641CAC42F9D370BD0E
:1038200030B587B014216846FCF72DFE1E48C16CE8
:1038300041F00401C164C16C01F004010591C16C47
:1038400041F00101C164C16C01F001010591C16C3D
:1038500041F00201C164C06C012500F00200059036
:103860004FF44870CDE900050024039469460294A2
:103870000E48FEF737FA280203940090CDE9015470
:103880004FF0904469462046FEF72CFAFFF79EFF62
:10389000A06940F48070A06104481830016841F4C8
:1038A0000871016007B030BD0010024000040048FC
:1038B000203AD2B2034B02EB420203EB021200F0B9
:1038C00019B800008E570008F0B50E4607460025CF
:1038D00040F23F1407E021463846FFF7E9FF103C6D
:1038E0006D1CA4B2761C3278002A01D0142DF2D3BC
:1038F000F0BD00002DE9F04791468A4600260446B7
:1039000000F07EF9DFF84080012700BF00F0BCF92D
:103910005FF0000539F8160007FA05F10842404645
:1039200001D1408800E0008800F07EF96D1C102D68
:10393000F0D3641CE4B25146204600F061F9761CD5
:10394000182EE3D3BDE8F0874800002010B5FFF73C
:1039500067FF002000F00CF9084CA080A088A0F5BB
:103960000241303906D000F085FC002000F000F95B
:10397000A08010BD00F0F5FBF7E700004800002034
:1039800070B54D48017802297AD14C4C0021017064
:103990002079002837D14AA14D48FCF79DFC4C49BD
:1039A0001820FFF791FFA079E179084307D149A1D9
:1039B0004748FCF791FC46494820FFF785FFA0796E
:1039C000E179884307D046A14148FCF785FC40498E
:1039D0004820FFF779FFE28944A13D48FCF77CFCD1
:1039E0003B496020FFF770FFA06901F053FE41ECF6
:1039F000100B42A153EC102B3548FCF76DFC3449F9
:103A00007820FFF761FF207901281BD13FA13048C2
:103A1000FCF762FC2E491820FFF756FF274D3FA107
:103A20000A352B482A78FCF757FC29494820FFF72C
:103A30004BFF6A783CA12648FCF74EFC24496020E5
:103A4000FFF742FF2079022834D13AA12048FCF741
:103A500043FC1F491820FFF737FF627939A11C4842
:103A6000FCF73AFC1A494820FFF72EFF134C283484
:103A7000206801F00FFE41EC100B53EC102B00E01E
:103A800018E033A11248FCF727FC11496020FFF72A
:103A90001BFF606801F0FEFD41EC100B30A153EC00
:103AA000102B0B48FCF718FCBDE870400849782043
:103AB000FFF70ABF70BD00000000002018000020C2
:103AC00020202020202020204441544100000000DC
:103AD000B001002020202020204D3D4C200000007F
:103AE00020202020204D3D482000000020202020C4
:103AF00020503D25642525200000000020202020A6
:103B000020563D252E316620000000002020202078
:103B10002020202050415241000000002020202081
:103B200020523D256420000020202020204B3D25F0
:103B300064200000202020202020202052454344E3
:103B40000000000020202020204E3D2564200000A1
:103B500020202020204D483D252E316620000000E9
:103B600020202020204D4C3D252E316620000000D5
:103B700070B51D490A6842F400720A600A6842F48E
:103B800080720A60184C103C226842F020022260C9
:103B9000164A1060086840F02000086000BF00BFAF
:103BA00000BF206840F020002060206840F4807052
:103BB0002060FFF7F5FD4FF09041886A40F4807077
:103BC000886200BF00BF00BF0848001F006885B2C0
:103BD000886940F480708861FFF7F8FD206840F440
:103BE00000702060284670BD280400481408004872
:103BF00001B5BDF800000149488008BD480000201B
:103C000010B50C460146202000F06EF82146BDE8B4
:103C10001040212000F068B801B5BDF8000001494E
:103C2000088008BD4800002030B5154B1C68154AB7
:103C3000116841F400711160124910390D6845F4A2
:103C400080750D600D6845F020050D6018601068E6
:103C500040F02000106000BF00BF00BF086840F0C7
:103C600020000860086840F48070086000BF00BF52
:103C700000BF086840F4007008601C6030BD0000A0
:103C80001408004828040048154A10B5136815495F
:103C9000086840F400700860086840F480700860AC
:103CA00010481038046844F0200404602224146092
:103CB0000C6844F020040C6000BF00BF00BF016826
:103CC00041F020010160016841F48071016000BF92
:103CD00000BF00BF016841F400710160136010BDB6
:103CE000140800482804004870B5194C2568194B81
:103CF0001A6842F400721A601A6842F480721A60FC
:103D0000144A103A166846F02006166020601868BB
:103D100040F02000186000BF00BF00BF106840F0F6
:103D200020001060106840F48070106021601868F6
:103D300040F02000186000BF00BF00BF106840F0D6
:103D400020001060106840F480701060256070BD25
:103D5000140800482804004870B5144C0122824021
:103D6000207811B10243227001E090432070207846
:103D70006178884219D00E4D01224FF47F412846C8
:103D8000FEF7D9F82078002201022846FEF7D3F882
:103D9000084D012204212846FEF7CDF80022042117
:103DA0002846FEF7C8F82078607070BD4E000020ED
:103DB00000080048000C00480749087950B100226B
:103DC00006480270CA790AB1054A12784270497AE7
:103DD000817070470122F3E7180000200E000020D8
:103DE0000200002000EB8100006E00F0F8407047F8
:103DF0008068C0F3C00070478068C0F380007047DF
:103E0000042303EAD15310B518444369C1F30451A4
:103E100007248C40A3438A401343436110BD00EB49
:103E20008100016E21F000411143016670470000DE
:103E300030B589B020216846FCF725FB19481849A0
:103E4000002401604902C0E90114C4600425046132
:103E5000C0E90545047744770121016280F82440D8
:103E6000C462046380F83840C46380F84040FDF7C2
:103E700077FD08B1FDF75CFB0B4800900620019030
:103E8000052002907F200594CDE903056946054889
:103E9000FDF750FB002801D0FDF74AFB09B030BD0B
:103EA00000010050600000200080F03E2DE9F0434A
:103EB00087B014216846FCF7E6FA3748C16C41F038
:103EC0000401C164C16C01F004010591C16C41F0B1
:103ED0002001C164C16C01F020010591C16C41F069
:103EE0000101C164C16C01F001010591C16C41F097
:103EF0000201C164C16C01F002010591C16C41F085
:103F00000801C164C06C254F00F008004FF6FF7433
:103F10000590002221463846FEF70DF8DFF8808034
:103F2000002204214046FEF706F8DFF878904FF4AF
:103F30004876002231464846FDF7FDFF0125CDE9D0
:103F4000004500240294694638460394FDF7CAFEF2
:103F5000CDE9005469464FF090400294FDF7C2FE4F
:103F60000720CDE90004694648460294FDF7BAFEF1
:103F700004200090CDE90154694640460394FDF7C2
:103F8000B1FE0096CDE90154694648460394FDF719
:103F9000A9FE07B0BDE8F083001002400008004809
:103FA000000C00480004004810B58EB000240794AF
:103FB000089409940A940B940C941C2168460D945F
:103FC000FCF761FA1E484FF080410160C721C0E94B
:103FD00001146321C0E9031480218161FEF783FD90
:103FE00008B1FDF7A5FA4FF48050079007A91448CF
:103FF000FEF73EFE08B1FDF79BFA1148FFF7BDF949
:1040000008B1FDF795FA0B940BA90D480D94FEF736
:104010001BFD08B1FDF78CFA602000900A20CDE965
:1040200001040422694606480494FFF714F908B114
:10403000FDF77EFA0248FFF7E7F80EB010BD00006A
:10404000CC00002030B591B0002409940A940B9460
:10405000142104A80C94FCF716FA2D48009403943C
:10406000019402940D940E9428490F94C0E9001411
:104070004FF6FF71C0E9024104618461FEF733FD30
:1040800008B1FDF755FA4FF48050099009A920486E
:10409000FEF7EEFD08B1FDF74BFA1D48FEF71AFFDB
:1040A00008B1FDF745FA0420049002256020CDE90F
:1040B0000654059004A916480894FFF79CFA08B125
:1040C000FDF736FACDE90045029400226946104812
:1040D0000394FEF76DFE08B1FDF72AFA0120CDE941
:1040E0000050042269460A48FEF762FE08B1FDF757
:1040F0001FFA0D940DA906480F94FEF7A5FC0028A1
:1041000001D0FDF715FA11B030BD000000040040E9
:10411000180100203EB500240F48009401940D4979
:10412000029401604F21C0E9011440F2E731C160FF
:1041300080218161FEF7D7FC08B1FDF7F9F9009401
:10414000694605480294FEF77FFC002801D0FDF780
:10415000EFF93EBD0010004064010020FEE7FEE7DD
:10416000704730B501210020FFF7BEFD4FF47A7093
:10417000FDF7D0F900210120FFF7B6FD41F2907163
:104180001020FFF7B1FD4FF41C516020FFF7ACFD8C
:1041900001216120FFF7A8FD02214620FFF7A4FDC1
:1041A00048F210011320FFF79FFD48F2FE01122094
:1041B000FFF79AFD4FF4A0610220FFF795FD41F251
:1041C00030010320FFF790FD40F2033421463020F8
:1041D000FFF78AFD21463120FFF786FD2146322078
:1041E000FFF782FDE51E29463320FFF77DFD032101
:1041F0003420FFF779FD21463520FFF775FD1421A6
:104200003620FFF771FD21463720FFF76DFD21466F
:104210003820FFF769FD21463920FFF765FD294663
:104220003A20FFF761FD03213B20FFF75DFD2146AA
:104230003C20FFF759FD4FF4A0513D20FFF754FDFE
:104240004FF400719220FFF74FFD21469320FFF7B6
:104250004BFD40F60D019020FFF746FD41F218019D
:104260000320FFF741FDBDE8304040F27311072005
:10427000FFF73ABD10B543F20801E320FFF734FD24
:104280001221E720FFF730FD41F23121EF20FFF747
:104290002BFD00210120FFF727FD4FF4E0610220F4
:1042A000FFF722FD41F230010320FFF71DFD002141
:1042B0000420FFF719FD40F207210820FFF714FD45
:1042C00000210920FFF710FD00210A20FFF70CFD57
:1042D00000210C20FFF708FD00210D20FFF704FD51
:1042E00000210F20FFF700FD00211020FFF7FCFC4C
:1042F00007211120FFF7F8FC00211220FFF7F4FC42
:1043000000211320FFF7F0FCC820FDF7D9FC41F293
:1043100090611020FFF7E8FC40F227211120FFF701
:10432000E3FC3220FDF7CCFC1D211220FFF7DCFC62
:104330003220FDF7C5FC4FF400611320FFF7D4FCD9
:1043400014212920FFF7D0FC0B212B20FFF7CCFCF8
:104350003220FDF7B5FC00212020FFF7C5FC00212D
:104360002120FFF7C1FC07213020FFF7BDFC40F200
:1043700007713120FFF7B8FC06213220FFF7B4FCAB
:1043800040F204713520FFF7AFFC41F6047136208E
:10439000FFF7AAFC04213720FFF7A6FC00213820F4
:1043A000FFF7A2FC40F206713920FFF79DFC40F2B6
:1043B00001713C20FFF798FC0F213D20FFF794FC92
:1043C00000215020FFF790FCEF215120FFF78CFCDB
:1043D00000215220FFF788FC40F23F115320FFF7E5
:1043E00083FC4FF41C516020FFF77EFC012161200B
:1043F000FFF77AFC00216A20FFF776FC002180207D
:10440000FFF772FC00218120FFF76EFC0021822063
:10441000FFF76AFC00218320FFF766FC002184205F
:10442000FFF762FC00218520FFF75EFC1021902041
:10443000FFF75AFC00219220FFF756FC032193203E
:10444000FFF752FC4FF488719520FFF74DFC0021D7
:104450009720FFF749FC00219820FFF745FC41F227
:1044600018010320FFF740FCBDE8104040F2731133
:104470000720FFF739BC000070B55B485B4C2DEDA1
:10448000048B0078032857D0042876D104F10C055A
:10449000687800F004FF9FED561B53EC112B00F0E1
:1044A00011FF41EC180B287800F0F9FE41EC190BD4
:1044B00051488088400000F0F2FE9FED501B53EC05
:1044C000112B00F0FFFE53EC192B00F0FBFE53EC18
:1044D000182B00F05FFD00F083FC00EE100A494845
:1044E00084ED060AB4EE400A84ED070AF1EE10FAF4
:1044F00001D0016861620168626A891AB1F5FA6FD8
:104500006ED9F0EE400AF4EE400AF1EE10FA67D1EF
:10451000A179E379354A31EA030502F1280208D08E
:10452000D2ED000AF4EEC00AF1EE10FA01D882EDE5
:10453000000A194349D051E0334800F0C9FB00F0AC
:10454000AEFE9FED321B53EC112B00F0BBFE9FED36
:10455000311B53EC112B00F0B5FE00F041FC00EED6
:10456000100A84ED050A607A002839D110EE100A8D
:10457000B0F17E5F02DC0A201EE031E010EE100A8E
:104580002649884201DB552016E0F7EE000A30EE9E
:10459000600A10EE100A01F07DF89FED211B53EC2C
:1045A000112B00F08FFE9FED201B53EC112B00F020
:1045B00049FC00F047FEC0B2E08181B2208ABDEC28
:1045C000048BBDE8704000F035B8D2ED010AF4EE7E
:1045D000C00AF1EE10FA01D882ED010A00686062AB
:1045E000BDEC048B70BD000000000020180000200E
:1045F0000000000000005940060000201F85EB511C
:10460000B81E0940580000206000002066666666FB
:1046100066660A40000000000000303F0000404095
:104620000000000000C042400000000000002440E4
:1046300070470000044AB2FBF0F20448521E0368BF
:104640009A6200688163704700350C00CC0000203E
:10465000FDF77CBC00B593B038216846FBF713FF2B
:1046600014210EA8FBF70FFF4FF40070FDF700FDBB
:104670000220C1010391402104910121CDE90801EB
:1046800000900A21CDE90A1007900C900D90684621
:10469000FDF7BEFF08B172B6FEE70F200E900320B3
:1046A0000F90002010901190129002210EA8FDF79B
:1046B00089FE002801D072B6FEE713B000BD0000ED
:1046C0000248016841F470010160704788ED00E024
:1046D0000148FEF7C7BC0000180100200148FEF7A2
:1046E000C1BC0000640100202DE9F0430268264BA4
:1046F000264D274E274C4FF08049984207D0484519
:1047000005D0A84203D0B04201D0A04203D122F08C
:1047100070074A683A43204FDFF880C0DFF8808096
:1047200098420DD048450BD0A84209D0B04207D0DE
:10473000A04205D0B84203D0604501D0404503D126
:1047400022F44075CA682A434D6922F080022A4348
:1047500002608A68C2620A688262984207D0A042F8
:1047600005D0B84203D0604501D0404501D1096968
:104770000163012141610169C90703D0016921F089
:1047800001010161BDE8F083002C014000040040FC
:104790000008004000340140004001400044014056
:1047A0000048014010B501F01F030121046A99403F
:1047B0008C430462016A9A401143016210BD10B536
:1047C000846842EA032224F47F440A43224382603D
:1047D00010BD00008268034B1A400A4342F00701F3
:1047E000816070478FFFCFFF2DE9F043056A026AB1
:1047F00022F001020262436882691C4C25F0020526
:1048000022400C6822F0030214438A68194E2A439E
:10481000174D194FDFF864C0DFF86490A84207D045
:10482000B04205D0B84203D0604501D0484506D11A
:1048300022F00808CA6842EA080222F00402A842EC
:1048400007D0B04205D0B84203D0604501D04845FA
:1048500005D14D6923F440731D438B692B4343609D
:104860008461496841630262BDE8F0838FFFFEFF07
:10487000002C014000340140004001400044014050
:1048800000480140F0B5056A026A22F01002026297
:1048900042688369194C1B4E23400C6823F4407313
:1048A00043EA042425F020038D6843EA0513144DE0
:1048B000A84201D0B04206D1CF6823F0800343EA7A
:1048C000071323F04003A8420AD0B04208D00E4D8F
:1048D000A84205D00D4DA84202D00D4DA84207D1E7
:1048E0004D6922F4406242EA85028D6942EA8502FE
:1048F00042608461496881630362F0BDFF8FFFFEFF
:10490000002C0140003401400040014000440140BF
:1049100000480140F0B5056A026A22F48072026222
:104920004368C269194C1B4E22400C6822F00302F6
:10493000144325F400728D6842EA0522144DA84202
:1049400001D0B04206D1CF6822F4006242EA0722C9
:1049500022F48062A8420AD0B04208D00E4DA8428C
:1049600005D00E4DA84202D00D4DA84207D14D6989
:1049700023F4405343EA05138D6943EA051343606A
:10498000C4614968C1630262F0BD00008FFFFEFF91
:10499000002C01400034014000400140004401402F
:1049A00000480140F0B5056A026A22F480520262B2
:1049B0004268C369194C1B4E23400C6823F44073B2
:1049C00043EA042425F400538D6843EA0533144D6B
:1049D000A84201D0B04206D1CF6823F4004343EA95
:1049E000073323F48043A8420AD0B04208D00E4DCA
:1049F000A84205D00D4DA84202D00D4DA84207D1C6
:104A00004D6922F4404242EA85128D6942EA8512DC
:104A10004260C461496801640362F0BDFF8FFFFE1C
:104A2000002C01400034014000400140004401409E
:104A30000048014030B5056A026A22F48032026201
:104A40004268036D114C23400C681C4325F400336D
:104A50000D8943EA05430E4DA8420BD00D4DA842E7
:104A600008D00D4DA84205D00C4DA84202D00C4DE7
:104A7000A84204D14D6922F4803242EA0522426004
:104A8000046549688164036230BD00008FFFFEFF4A
:104A9000002C01400034014000400140004401402E
:104AA0000048014030B5046A026A22F480120262B2
:104AB0004268036D114D24F400142B400D6843EA45
:104AC00005230D8944EA05540D4DA8420BD00D4D28
:104AD000A84208D00C4DA84205D00C4DA84202D0E7
:104AE0000B4DA84204D14D6922F4802242EA85226E
:104AF000426003654968C164046230BDFF8FFFFEF8
:104B0000002C0140003401400040014000440140BD
:104B10000048014070B505680024AA682E4B1A4071
:104B20004B6813432D4A13400A681A43AA604A6827
:104B3000602A4AD00DDC302A1FD005DCEAB1102AE9
:104B40001BD0202A18D118E0402A1FD0502A13D198
:104B500035E0234D531BAA420FD009DC702A0ED03A
:104B6000B2F1101F09D0203AB2F5801F04D104E041
:104B7000102B02D0402B00D00124204670BD0B69C1
:104B8000D1E902210068FFF71AFEF6E70A68052A54
:104B900013D0B2F1011F10D00268136A156A25F014
:104BA0000105156202689569096925F0F00545EA75
:104BB0000111916100680362DFE7012070BD0A699D
:104BC0008968006800F00EF8D7E70A69896800680C
:104BD00000F050F8D1E700008FFFCFFFF8FFFEFF95
:104BE0003000100010B5036A046A24F00104046266
:104BF000846924F0F00444EA021423F00A020A4310
:104C00008461026210BD000070B5056A046A24F078
:104C1000010404628469124EB0420ED0B0F1804F9C
:104C20000BD0104EB04208D00F4EB04205D00F4E00
:104C3000B04202D00E4EB04203D124F0030414431C
:104C400001E044F001041A0724F0F00444EA12627F
:104C500025F00A0301F00A0119438261016270BD67
:104C6000002C0140000400400008004000340140D6
:104C70000040014010B5036A046A24F01004046285
:104C8000846923F0A00324F4704444EA023243EA26
:104C900001118261016210BD30B5046A056A25F018
:104CA00010050562856925F4407545EA022222F463
:104CB00070454FF6FF7202EA033224F0A0032A4344
:104CC000A02404EA011119438261016230BDFEE7AC
:104CD00010B50446FCF77AFF2046FCF73DFE80B293
:104CE00010BD03B401984100009850EAC12018BFDC
:104CF00004204A0D18BF40F0010040F2FF72B2EBF1
:104D0000515F08BF40F00200012808BF052002B033
:104D100070470907090E002804DB00F1E02080F845
:104D20000014704700F00F0000F1E02080F8141D1F
:104D3000704730380A2801D20120704700207047A0
:104D4000FDF70CF9FFF786FCFFF7B0F8FFF770F8F6
:104D5000FFF72AF9FFF776F9FFF7DCF9FEF7F6FD22
:104D60001148FDF749FF00211048FEF7E5F804213E
:104D70000E48FEF7E1F804210D48FEF731FB002054
:104D8000FEF73CFD4FF6FF70FEF746FF0020FEF7F2
:104D90002FFF00BFFEF75CFCFEF7F2FDFFF76CFB98
:104DA000FFF70AF8F6E70000640100201801002070
:104DB000CC00002010B500290AD00878002807D0C0
:104DC00005487844FBF73EFF002801D0002010BDC5
:104DD0000248784410BD0000621C00005A1C00000C
:104DE00021F00042A2F16052B2F5801F01F00043B1
:104DF00028BFD2F17F6C0BD95FEA001C43EAC202E4
:104E000042EB507018BF704728BF20F00100704778
:104E1000B2F5801FBCBF184670474FEA410C1CF525
:104E2000001F02D2084600F0ABBC70B500F0F4FAE7
:104E300000000089FFF7F6BF4FF00040A0F58000AA
:104E40007047000010B591EA030F48BF83F000439C
:104E500000F13E83841A71EB030C05D2121943EB67
:104E60000C03001B61EB0C01DFF824E14FEA115445
:104E7000A4EB135C1EEA430F18BF9EEA445F73D095
:104E800023EA0E03DCF1200E21EA045143F48013DF
:104E900032D322FA0CFE10EB0E0023FA0CFE41EB8B
:104EA0000E01CCF1200E03FA0EFE10EB0E0051F1B4
:104EB0000001B1F5801FCCF1200E32D201EB04517C
:104EC00012FA0EF2BDE8104058BF7047401C38BFC0
:104ED0005FEA420218BF7047002814BF20F00100AB
:104EE00041F100014FEA410313F5001F38BF70473D
:104EF000A1F1C04100F0DEBA012A43EB0302ACF19C
:104F0000200CDCF11F0E32BF4FF0000E23FA0CF321
:104F100010EB030041EB0451B4EB115FD0D0A1EBD7
:104F2000045101F5801149085FEA300001EB04519A
:104F30000ED350F1000038BF12FA0EFE08D1BDE8C2
:104F40001040C9E7401C38BF5FEA4202CAD1C3E73C
:104F5000BDE810404FEA410313F5001F38BF70470A
:104F6000A1F1C04100F0A6BA9EEA445F08D011EA60
:104F70005E0FBDE8104004BF01F000410020704703
:104F8000BDE8104070B500F047FA00BF64FBBE3EBC
:104F90000000E0FF2DE9C04130B4DFF8A0C23CEAD8
:104FA000111418BF3CEA131400F0EC8081EA0305E9
:104FB0001CEA111444EAD57418BF1CEA131500F05A
:104FC000C780A4EB05044FF0004545EAC12145EA3E
:104FD000C32341EA505143EA525304F17F7499428A
:104FE00004F500344FEAC0204FEAC22208BF9042C5
:104FF00000F09C804FEA13650FF24016765D4FEA91
:10500000134506FB05F7C7F1807706FB07F74FEA64
:10501000D737A7FB03687642C8F58038A7FB06CED2
:1050200038BFA8F1010807FB08E64FF0000EA6FB09
:10503000028CE6FB03CEDCF1000CCEF1004E38BF53
:10504000AEF1010EA6FB0C584FF000074FF0000523
:10505000E6FB0E87A1FB08C6A0FB07CE16EB0E06EB
:1050600045F10005E1FB076515F1E04E7EBFA4F5B3
:1050700080345FEA46066D4116F1800745F1000570
:105080004FEA17274FEA066647EA0567A6F1DE46AC
:10509000B6F1805F4FEA15251FD9384624F0010C80
:1050A00005EBC471BCF1FE6F01EB0C1102D8F0BC32
:1050B000BDE8008124425CBF01F5801E9EEAC47FEA
:1050C00002D4F0BCBDE80081244238D4F0BCA1F188
:1050D000C041BDE8004100F0EDB94FEAD22242EAFA
:1050E00043524FEAD323A7FB02864FEAD02040EA7F
:1050F000415007FB03661EEA0E0F4FEAD12105FB64
:10510000026658BFA6EB0056B6EB00564FEA520EA9
:105110004EEAC37E18EB0E0E56EB530EBDD518EBC0
:1051200002085E417F1C55F10005B6E74FF480157B
:105130004FF000074FF000064FF00008ADE7F0BC5D
:105140004FF0000001F1C04101F00041BDE80081D5
:1051500011EA0C1F0CEA131500D00CE013EA0C1F27
:1051600000F025804FF00000F0BC81EA030101F05F
:105170000041BDE80081F0BCBDE8004181EA0301C7
:1051800000F098B9F0BCBDE8004170B500F044F9FA
:10519000097EFC3E00F007B881EA03014FF00000F1
:1051A00001F00041704781EA030100F083B9F0BCCF
:1051B000BDE800414FF0000021497047FFFDFBF9B9
:1051C000F7F5F4F2F0EEEDEBE9E8E6E4E3E1E0DE3A
:1051D000DDDBDAD8D7D5D4D3D1D0CFCDCCCBCAC8AC
:1051E000C7C6C5C4C2C1C0BFBEBDBCBBBAB9B8B7D3
:1051F000B6B5B4B3B2B1B0AFAEADACABAAA9A8A8C6
:10520000A7A6A5A4A3A3A2A1A09F9F9E9D9C9C9B93
:105210009A9999989797969595949393929191903E
:105220008F8F8E8E8D8C8C8B8B8A898988888787CF
:105230008685858484838382828181800000FF0744
:105240000000F87F4FEA1153A3F58063D3F11E03EA
:10525000A8BFD3F1200C08DB4FF0004242EAC12284
:1052600052EA505232FA03F0704709420BD4102B25
:10527000C4BF0020704703F5787CBCF1FF3F05D028
:105280004FF0FF3070474FF00000704770B500F0EE
:10529000C3F800BF4992248000207047F0E7B0FABD
:1052A00080F310FA03F10AD0C3F11D0303F5806304
:1052B0004FEA41504FEA035202EBD12170474FF0C1
:1052C00000007047DFF848C170B51CEA111E1EBF10
:1052D0001CEA13159EEA0C0F95EA0C0F00F06F8084
:1052E00081EA030423EA4C134EEAD47E21EA4C11EE
:1052F00041F4801143F48013AE44A1FB024CA0FBA7
:105300000365AEF17F7E361955EB0C05A1FB034C0E
:105310004CF10003A0FB021C16EB0C06654153F197
:105320000003094218BF46F0010613F4007F0BD1B9
:105330004FEA03314FEA0530340341EA155140EAA0
:1053400016506FF003020AE04FEAC3214FEAC5206E
:10535000F40241EA555140EA56506FF0020202EB66
:105360002E4201EB025585EACE710AD05FEA440C69
:1053700018BF24F0004450F1000041F1000120EA80
:10538000D47040F2FE7C624500D270BDA84214BFCA
:105390004FF080444FF04044002E08BF0024BEF17F
:1053A000806FA8BFA1F1C041BDE8704080F282804B
:1053B0004FF0000001F1C04101F0004170479EEA4A
:1053C0000C0F0CEA131518BF95EA0C0F06D04FF01E
:1053D000000081EA030E0EF0004170BD00F01CF8E1
:1053E0008900013E00F007B800F009B84FEA430C0D
:1053F0005FEA5C5C08D081EA030100F05BB84FEA29
:10540000410C5FEA5C5CF6D14FF000000149704747
:105410000000FF070000F87F0EF1020E2EF0030ED1
:105420005EF8046B364205D4012A43EB030515F5FB
:10543000001F12D8012841EB010C1CF5001F0CD8ED
:105440000ED14FEAD17C15F5001F0CEB4C0C0CF182
:10545000020C08BF4CEBD37C04E04FF0080C01E0D9
:105460004FEAD37C0CEB4C0526FA05F606F007064E
:10547000B6F1040C06D20EEB860CBDE870404CF081
:10548000010C6047DFE80CF0090B02024FF000410D
:105490004FF00000A1F5002170BD1946104601280B
:1054A00051EB010418BFD4F5001484BF002001F0B3
:1054B000004170BD0808A0F500114FEA31017047A6
:1054C00010B591EA030F48BF83F000433FF5C2AC2B
:1054D000841A71EB030C07D212198CF0004C43EBC9
:1054E0000C03001B61EB0C01DFF8A4E14FEA11543F
:1054F000A4EB135C1EEA430F18BF9EEA445F00F062
:10550000B08023EA6E03524221EA0451C3EB6E03DA
:1055100038BF5B1EDCF1200E25D322FA0CFE10EB07
:105520000E0043FA0CFE41EB0E01CCF1200E03FA03
:105530000EFE10EB0E0051F10001CCF1200E29D42B
:1055400012FA0EF201EB0451BDE8104058BF70474B
:10555000401C1CBFB2F1004F704700280CBF491C13
:1055600020F00100704712EB020E43EB030218BF5C
:105570004FF0010E4EEA4202ACF1200CDCF11E0E9F
:1055800054D943FA0CFE10EB0E0051F1FF31CCF16F
:105590001E0ED5D50EF1010E12FA0EFE404141EB62
:1055A000010101EB445C5FEA5C5C10D910EBDE703A
:1055B00001EB045138BFBEF1004FBDE8104018BFE9
:1055C000704700280CBF491C20F00100704730D202
:1055D0004FEAD42C11F5001124F400641BD0B1FA69
:1055E00081F20B3AA41AA41ED2F12003914030FAA2
:1055F00003F31943904001EBCC71002C01EB0451F3
:10560000BDE81040A8BF704701F1C0414FF0000055
:1056100001F000417047B0FA80F310FA03F100D1B5
:1056200010BDE41A173C4805C90AE4E701EB045130
:1056300010BD491001EB0451BDE810404FEA3000A5
:1056400002E04FF0000170474A0008BF0042F8D066
:10565000B2F5001F28BF704701F000414FF0000075
:1056600070479EEA445F07D011EA5E0FBDE8104024
:1056700004BF002100207047BDE8104070B5FFF75F
:10568000CBFE00BF40DFF63E83F00041104670477E
:105690000000E0FF43004FEAD30C4FEA3C0C4340CC
:1056A0001FBF40070CF1605113F0FE4F70471CF014
:1056B000006F03D100200CF0004170470CF0004354
:1056C00043EA507010B540EACC0000F00EF800BF7D
:1056D000000000924FEA0001FFF7ECBE4FF00041DE
:1056E0004FF00000A1F5002170470EF1020E2EF0E0
:1056F000030E5EF8044B244204D44FEA4102B2F197
:105700007F4F11D84FEA4003B3F17F4F0CD80ED131
:105710004FEAD07CB2F17F4F0CEB4C0C0CF1020C39
:1057200008BF4CEBD17C04E04FF0080C01E04FEADD
:10573000D17C0CEB4C0324FA03F404F00704B4F11D
:10574000040C06D20EEB840CBDE810404CF0010CAA
:105750006047DFE80CF0070802024FF00040A0F5B8
:10576000800010BD0846420018BFD2F1807288BF89
:1057700000F0004010BD4FF04070E1EE100A70479D
:10578000FF2141EAD050C0057047FAF7D8BF0000AA
:105790000000000000000000000000000000000009
:1057A00000000000000000000000000000000000F9
:1057B00000000000000000000000000000000000E9
:1057C00080018001800180018001800180018001D1
:1057D00080018001800180018001000000008001C3
:1057E0008001000000000000000000000000000038
:1057F0000000CC00CC00CC00CC00CC00CC000000E1
:105800000000000000000000000000000000000098
:105810000000000000000000000000000000000088
:1058200000000000000000000000600C600C600C34
:1058300030063006FE1FFE1F300638071803FE1F15
:10584000FE1F180318038C018C018C01000000005E
:105850008000E003F80F9C0E8C1C8C188C009800C4
:10586000F801E007800E801C8C188C189C18B80C6E
:10587000F00FE00380008000000000000000000046
:10588000000000000E181B0C110C1106110611036C
:1058900011039B018E01C038C06C604460443044E9
:1058A00030441844186C0C38000000000000000060
:1058B000E001F0033807180618063003F001F00085
:1058C000F8009C310E33061E061C061C063FFC73B6
:1058D000F0210000000000000000000000000000B7
:1058E00000000C000C000C000C000C000C00000070
:1058F00000000000000000000000000000000000A8
:105900000000000000000000000000000000000097
:10591000000200038001C000C00060006000300091
:1059200030003000300030003000300030006000C7
:105930006000C000C0008001000300020000000001
:1059400020006000C0008001800100030003000609
:10595000000600060006000600060006000600031A
:10596000000380018001C0006000200000000000F2
:1059700000000000000000000000C000C000D806C9
:10598000F807E001300338070000000000000000C5
:105990000000000000000000000000000000000007
:1059A0000000000000000000000080018001800174
:1059B00080018001FC3FFC3F80018001800180016B
:1059C0008001000000000000000000000000000056
:1059D00000000000000000000000000000000000C7
:1059E00000000000000000000000000000000000B7
:1059F0008001800100010001800000000000000023
:105A00000000000000000000000000000000000096
:105A1000000000000000E007E007000000000000B8
:105A20000000000000000000000000000000000076
:105A30000000000000000000000000000000000066
:105A40000000000000000000000000000000000056
:105A5000C000C000000000000000000000000000C6
:105A6000000C000C00060006000600030003000303
:105A70008003800180018001C000C000C000600080
:105A800060000000000000000000000000000000B6
:105A9000E003F007380E180C0C180C180C180C1832
:105AA0000C180C180C180C180C18180C380EF007E1
:105AB000E003000000000000000000000000000003
:105AC00000018001C001F00198018801800180017E
:105AD00080018001800180018001800180018001BE
:105AE0008001000000000000000000000000000035
:105AF000E003F80F180C0C180C1800180018000C14
:105B0000000600038001C000600030001800FC1F88
:105B1000FC1F00000000000000000000000000006A
:105B2000E001F807180E0C0C0C0C000C0006C0036A
:105B3000C007000C001800180C180C18180CF807F7
:105B4000E003000000000000000000000000000072
:105B5000000C000E000F000F800DC00C600C600CDC
:105B6000300C180C0C0CFC3FFC3F000C000C000C23
:105B7000000C000000000000000000000000000019
:105B8000F80FF80F180018000C00EC03FC071C0EAF
:105B9000001C0018001800180C181C0C180EF80730
:105BA000E003000000000000000000000000000012
:105BB000C007F00F381C181818000C00CC03EC0FAD
:105BC0003C0E1C1C0C180C180C18181C380EF00776
:105BD000E0030000000000000000000000000000E2
:105BE000FC1FFC1F000C0006000600038003800160
:105BF000C001C000E00060006000700030003000B4
:105C00003000000000000000000000000000000064
:105C1000E003F007380E180C180C180C3806F007C3
:105C2000F007180C0C180C180C180C18380CF80F7E
:105C3000E003000000000000000000000000000081
:105C4000E003F007380E1C0C0C180C180C181C1C68
:105C5000381EF81BE0190018000C000C1C0EF80789
:105C6000F001000000000000000000000000000043
:105C70000000000000000000000080018001000022
:105C80000000000000000000000000000000800193
:105C90008001000000000000000000000000000083
:105CA00000000000000000000000800180010000F2
:105CB0000000000000000000000000000000800163
:105CC00080010001000180000000000000000000D1
:105CD00000000000000000000000000000000010B4
:105CE000001C800FE003F8001800F800E003800FAC
:105CF000001C001000000000000000000000000078
:105D00000000000000000000000000000000F81F7C
:105D1000000000000000F81F00000000000000006C
:105D20000000000000000000000000000000000073
:105D3000000000000000000000000000000008005B
:105D40003800F001C007001F0018001FC007F00155
:105D50003800080000000000000000000000000003
:105D6000E003F80F180C0C180C180018000C0006B3
:105D700000038001C000C000C00000000000C0009F
:105D8000C000000000000000000000000000000053
:105D90000000E00718180420C229224A11440944CF
:105DA0000944094409221113E20C02400420181886
:105DB000E0070000000000000000000000000000FC
:105DC00080038003C006C006C006600C600C30185B
:105DD00030183018F83FF83F1C700C600C6006C09B
:105DE00006C00000000000000000000000000000ED
:105DF000FC03FC0F0C0C0C180C180C180C0CFC07FA
:105E0000FC0F0C180C300C300C300C300C18FC1F34
:105E1000FC0700000000000000000000000000007F
:105E2000C007F01F38381C300C70066006000600F2
:105E3000060006000600060006600C701C30F01F0D
:105E4000E00700000000000000000000000000006B
:105E5000FE03FE0F060E0618061806300630063042
:105E6000063006300630063006180618060EFE0FFD
:105E7000FE03000000000000000000000000000021
:105E8000FC3FFC3F0C000C000C000C000C00FC1F45
:105E9000FC1F0C000C000C000C000C000C00FC3F64
:105EA000FC3F0000000000000000000000000000B7
:105EB000F83FF83F18001800180018001800F81FE5
:105EC000F81F180018001800180018001800180013
:105ED00018000000000000000000000000000000AA
:105EE000E00FF83F3C780E6006E007C003000300B7
:105EF00003FE03FE03C007C006C00EC03CF0F83F1F
:105F0000E00F0000000000000000000000000000A2
:105F10000C300C300C300C300C300C300C30FC3FA2
:105F2000FC3F0C300C300C300C300C300C300C3092
:105F30000C30000000000000000000000000000025
:105F40008001800180018001800180018001800149
:105F50008001800180018001800180018001800139
:105F600080010000000000000000000000000000B0
:105F700000060006000600060006000600060006F1
:105F80000006000600060006180618063807F0038B
:105F9000E001000000000000000000000000000020
:105FA00006300618060C060606038601C6006600C3
:105FB0007600DE008E0106030606060C0618063083
:105FC000066000000000000000000000000000006B
:105FD0001800180018001800180018001800180001
:105FE0001800180018001800180018001800F81FF2
:105FF000F81F00000000000000000000000000008A
:106000000EE01EF01EF01EF036D836D836D836D840
:1060100066CC66CC66CCC6C6C6C6C6C6C6C686C371
:1060200086C3000000000000000000000000000027
:106030000C301C303C303C306C306C30CC30CC30D0
:106040008C310C330C330C360C360C3C0C3C0C38BD
:106050000C30000000000000000000000000000004
:10606000E007F81F1C380E70066003C003C003C0B1
:1060700003C003C003C003C006600E701C38F81FC5
:10608000E007000000000000000000000000000029
:10609000FC0FFC1F0C380C300C300C300C300C1882
:1060A000FC1FFC070C000C000C000C000C000C008A
:1060B0000C000000000000000000000000000000D4
:1060C000E007F81F1C380E70066003E003C003C031
:1060D00003C003C003C007E006630E3F1C3CF83F4B
:1060E000E0F700C000000000000000000000000019
:1060F000FE0FFE1F06380630063006300638FE1F3B
:10610000FE0706030606060C0618061806300630BB
:106110000660000000000000000000000000000019
:10612000E003F80F1C0C0C180C180C001C00F803F2
:10613000E00F001E0038063006300E301C1CF80F31
:10614000E007000000000000000000000000000068
:10615000FE7FFE7F8001800180018001800180013F
:106160008001800180018001800180018001800127
:10617000800100000000000000000000000000009E
:106180000C300C300C300C300C300C300C300C302F
:106190000C300C300C300C300C300C301818F81F50
:1061A000E007000000000000000000000000000008
:1061B00003600630063006300C180C180C18180C4A
:1061C000180C380E30063006700760036003C001FB
:1061D000C0010000000000000000000000000000FE
:1061E0000360C361C361C36166336633663366337C
:1061F000663366336C1B6C1B6C1B2C1A3C1E380EF2
:10620000380E000000000000000000000000000048
:106210000FE00C7018303018700C600EC00780034F
:106220008003C003E006700C301C18180C300E60A0
:1062300007E0000000000000000000000000000077
:1062400003C006600C301C383818300C6006E007BC
:10625000C0038001800180018001800180018001F4
:1062600080010000000000000000000000000000AD
:10627000FC7FFC7F006000300018000C000600036B
:106280008001C0006000300018000C000600FE7F96
:10629000FE7F000000000000000000000000000081
:1062A000E003E003600060006000600060006000E8
:1062B00060006000600060006000600060006000DE
:1062C0006000600060006000E003E0030000000088
:1062D00030003000600060006000C000C000C000FE
:1062E000C00180018001800100030003000300065B
:1062F0000006000000000000000000000000000098
:10630000E003E003000300030003000300030003B5
:106310000003000300030003000300030003000365
:106320000003000300030003E003E003000000009B
:106330000000C001C0016003600360033006300646
:10634000180C180C00000000000000000000000005
:10635000000000000000000000000000000000003D
:10636000000000000000000000000000000000002D
:10637000000000000000000000000000000000001D
:10638000FFFFFFFF00000000000000000000000011
:106390000C000C000C000C000C000C0000000000B5
:1063A00000000000000000000000000000000000ED
:1063B00000000000000000000000000000000000DD
:1063C00000000000000000000000F003F8071C0CB3
:1063D0000C0C000FF00FF80C0C0C0C0C1C0FF80F31
:1063E000F0180000000000000000000000000000A5
:1063F00018001800180018001800D803F80F380CFF
:10640000181818181818181818181818380CF80F21
:10641000D8030000000000000000000000000000A1
:1064200000000000000000000000C003F007300E74
:10643000180C1800180018001800180C300EF0077F
:10644000C003000000000000000000000000000089
:1064500000180018001800180018C01BF01F301C8E
:10646000181818181818181818181818301CF01FB1
:10647000C01B000000000000000000000000000041
:1064800000000000000000000000C003F00F300C0E
:106490001818F81FF81F180018003818301CF00FD3
:1064A000C007000000000000000000000000000025
:1064B000800FC00FC000C000C000F007F007C00090
:1064C000C000C000C000C000C000C000C000C000CC
:1064D000C0000000000000000000000000000000FC
:1064E00000000000000000000000E00DF80F180E92
:1064F0000C0C0C0C0C0C0C0C0C0C0C0C180EF80FDF
:10650000E00D000C0C0C1C06F807F0010000000068
:1065100018001800180018001800D807F80F381CC9
:1065200018181818181818181818181818181818EB
:10653000181800000000000000000000000000002B
:10654000C000C000000000000000C000C000C0008B
:10655000C000C000C000C000C000C000C000C0003B
:10656000C00000000000000000000000000000006B
:10657000C000C000000000000000C000C000C0005B
:10658000C000C000C000C000C000C000C000C0000B
:10659000C000C000C000C000F8007800000000008B
:1065A0000C000C000C000C000C000C0C0C060C0376
:1065B0008C01CC006C00FC009C018C030C030C06CD
:1065C0000C0C0000000000000000000000000000B3
:1065D000C000C000C000C000C000C000C000C000BB
:1065E000C000C000C000C000C000C000C000C000AB
:1065F000C0000000000000000000000000000000DB
:10660000000000000000000000007C3CFF7EC7E3AB
:1066100083C183C183C183C183C183C183C183C15A
:1066200083C1000000000000000000000000000026
:10663000000000000000000000009807F80F381C60
:1066400018181818181818181818181818181818CA
:10665000181800000000000000000000000000000A
:1066600000000000000000000000C003F00F300C2C
:10667000181818181818181818181818300CF00FBF
:10668000C003000000000000000000000000000047
:1066900000000000000000000000D803F80F380CD4
:1066A000181818181818181818181818380CF80F7F
:1066B000D803180018001800180018000000000087
:1066C00000000000000000000000C01BF01F301C94
:1066D000181818181818181818181818301CF01F3F
:1066E000C01B001800180018001800180000000057
:1066F00000000000000000000000B007F003700080
:106700003000300030003000300030003000300009
:106710003000000000000000000000000000000049
:1067200000000000000000000000E003F003380E4D
:10673000180C3800F003C007000C180C380EF007D6
:10674000E003000000000000000000000000000066
:1067500000008000C000C000C000F007F007C000CB
:10676000C000C000C000C000C000C000C000C00722
:106770008007000000000000000000000000000092
:106780000000000000000000000018181818181879
:10679000181818181818181818181818381CF01F76
:1067A000E0190000000000000000000000000000F0
:1067B000000000000000000000000C18180C180C6D
:1067C000180C300630063006600360036003C00119
:1067D000C0010000000000000000000000000000F8
:1067E00000000000000000000000C141C141C36181
:1067F0006363636363633636363636361C1C1C1C93
:106800001C1C000000000000000000000000000050
:10681000000000000000000000001C38381C300C94
:10682000600660036003600360036006300C381C80
:106830001C38000000000000000000000000000004
:106840000000000000000000000018303018301870
:106850007018600C600CE00CC006C006800380035A
:10686000800380018001C001F00070000000000082
:1068700000000000000000000000FC1FFC1F000CD6
:10688000000600038001C000600030001800FC1FFB
:10689000FC1F0000000000000000000000000000DD
:1068A00000038001C000C000C000C000C000C000E4
:1068B00060006000300060004000C000C000C00008
:1068C000C000C000C0008001000300000000000004
:1068D00080018001800180018001800180018001B0
:1068E00080018001800180018001800180018001A0
:1068F0008001800180018001800180010000000092
:106900006000C000C0018001800180018001800121
:1069100000030003000600030001800180018001E4
:10692000800180018001C0006000000000000000C4
:106930000000000000000000000000000000F01057
:10694000F81F080F00000000000000000000000019
:106950000000000000000000000000000000000037
:1069600000000000000001020304060708090000FF
:1069700002400000000000A00000000005400000F0
:10698000000000C8000000000C4000000000409C17
:1069900000000000194000000020BCBE0000000004
:1069A00034400000BFC91B8E00000004B540000049
:1069B000504BCFD06607E2CF010000006C410000D1
:1069C0003E8251AADFEEA73401000000D942000048
:1069D000DCB5A0E23A301F97FFFFFFFFB44500008F
:1069E000FD25A0C8E9A3C14FFFFFFFFFFF3F000047
:1069F0000000008000000000FF3F00000000008059
:106A000000000000406A0008000000206000000054
:106A100014020008A06A000860000020D0070000EF
:106A2000300200081C00000043000000F8FFFFFFD8
:106A30000C0000000E0000000F0000002E000000FF
:106A40000000000000000000000000000000000046
:106A50000000000000000000000000000000000036
:106A60000000010101010A00A00F00000000000069
:106A70000000000000000000000000000000000016
:106A80000000000033337B430000FFFF000000FFE5
:106A90001000000001000000000000000024F400CD
:04000005080001D915
:00000001FF
