:020000040800F2
:10000000F8050020F1010008372900081920000830
:100010003529000829030008A13D00080000000060
:10002000000000000000000000000000F12C0008AB
:100030002B03000800000000392900088D2D00085E
:100040000B0200080B0200080B0200080B0200085C
:100050000B0200080B0200080B0200080B0200084C
:100060000B0200080B0200080B0200080B0200083C
:100070000B0200080B0200080B0200080B0200082C
:100080000B020008000000000B0200080B02000831
:100090000B0200080B0200080B0200080B0200080C
:1000A0000B0200080B0200080B0200080B020008FC
:1000B0000B0200080B0200080B0200080B020008EC
:1000C0000B0200080B0200080B0200080B020008DC
:1000D0000B020008953D00080B0200080B02000807
:1000E0000B0200080B0200080B0200080B020008BC
:1000F0000B0200080B0200080B02000800000000C1
:10010000000000000B020008000000000B020008C5
:100110000B020008000000000D2E00080B02000872
:100120000B0200080B0200080B0200080B0200087B
:100130000B02000800000000000000000B02000895
:100140000B0200080B020008000000000000000085
:10015000000000000000000000000000000000009F
:100160000000000000000000000000000B0200087A
:100170000B0200080000000000000000000000006A
:10018000000000000B02000800000000000000005A
:10019000000000000000000000000000000000005F
:1001A00000000000000000000B0200080B02000825
:1001B0000B0200080B0200080B0200080000000000
:1001C000000000000B02000800000000000000001A
:1001D0000B0200080B020008DFF810D000F092F8C4
:1001E00000480047A53F0008AFF30080F805002055
:1001F0000648804706480047FEE7FEE7FEE7FEE7C1
:10020000FEE7FEE7FEE7FEE7FEE7FEE7FD2D00085E
:10021000D90100082DE9F05F0546002092469B4673
:1002200088460646814640241BE02846414647460C
:10023000224600F057F853465A46C01A914110D34F
:1002400011461846224600F03EF82D1A67EB0108C9
:100250004F4622460120002100F035F817EB000937
:100260004E41201EA4F10104DFDC484631462A46F7
:100270004346BDE8F09FD2B201E000F8012B491ED1
:10028000FBD270470022F6E710B513460A46044633
:100290001946FFF7F0FF204610BD30B50B4601466A
:1002A00000202022012409E021FA02F59D4205D315
:1002B00003FA02F5491B04FA02F52844151EA2F1BF
:1002C0000102F1DC30BD202A04DB203A00FA02F101
:1002D000002070479140C2F1200320FA03F3194334
:1002E00090407047202A04DB203A21FA02F00021D6
:1002F000704721FA02F3D040C2F120029140084336
:1003000019467047064C074D06E0E06840F00103CF
:1003100094E8070098471034AC42F6D3FFF760FF2B
:100320003452000854520008FEE77047002240F69D
:10033000B83306E00021491C89B29942FBD3521C14
:1003400092B28242F6D3704772B6FEE710B590F8CB
:10035000253000210122022B03D00421C163012199
:1003600022E003681C6824F00E041C60836C1C6887
:1003700024F480741C6003681C6824F001041C6071
:1003800090F84430046C03F01F0302FA03F3636037
:10039000D0E913345C60436D33B11C6824F480747D
:1003A0001C60D0E916345C6080F82520002280F8BB
:1003B0002420084610BD70B590F8252000240121A6
:1003C0002346022A07D00422C26380F8251080F851
:1003D0002430012429E00268156825F00E05156017
:1003E0000268156825F001051560826C156825F412
:1003F0008075156090F84420056C02F01F0201FA28
:1004000002F26A60D0E913255560426D32B1156879
:1004100025F480751560D0E91625556080F8251003
:1004200080F82430816B01B18847204670BD000000
:1004300070B5044600F03CF90546601C02D0044843
:100440004068044400F034F9401BA042FAD370BD68
:10045000300000202DE9F04FDFF820920023012624
:100460000324A9F1040B85B00F2709F1040AABF1AD
:10047000040EFAE006FA03F52A407CD091F804C095
:100480000CF0030CBCF1010F02D0BCF1020F26D11D
:10049000D0F808C0CDF800C04FEA430C04FA0CF8BD
:1004A000CDF810C0DDF800C02CEA080CCDF800C073
:1004B000D1F80C80DDF810C008FA0CF8DDF800C0A7
:1004C00048EA0C08C0F80880D0F804C02CEA050CF3
:1004D0000D79C5F300159D4045EA0C0545600D7981
:1004E000ED43AD070ED0C5684FEA430804FA08FC97
:1004F00025EA0C05D1F808C00CFA08FC4CEA050CFA
:10050000C0F80CC00D7905F00305022D16D1DD08E9
:1005100000EB850CCDF808C0DCF820805D074FEAC1
:10052000D56C07FA0CF528EA05080D6905FA0CF5F3
:10053000DDF808C045EA0805CCF8205005684FEA08
:10054000430CCDF808C004FA0CFC25EA0C0591F820
:1005500004C00CF00308DDF808C008FA0CF848EAFB
:100560000508C0F800804D6815F4403F7CD0444D2C
:10057000D5F860C000E077E04CF0010CC5F860C031
:100580002D6E23F0030C05F0010500953D4D6544EB
:100590000295AD684FEA837C4FEA1C7807FA08FCA5
:1005A00025EA0C05B0F1904F06D0DFF8DCC06045BD
:1005B00005D14FF0010C20E04FF0000C1DE0DFF8FA
:1005C000CCC0604502D14FF0020C16E0DFF8C0C08D
:1005D000604502D14FF0030C0FE0DFF8B8C0604572
:1005E00002D14FF0040C08E0DFF8ACC0604502D146
:1005F0004FF0050C01E04FF0060C0CFA08FC4CEA39
:10060000050C029DC5F808C0D9F80050CC46D1F8B9
:10061000048095435FEAC82800D51543CCF8005004
:10062000DAF80050D446D1F8048095435FEA882870
:1006300000D51543CCF80050DBF80050DC46D1F86B
:10064000048095435FEA883800D51543CCF8005004
:10065000DEF80050F446D1F8048095435FEAC838CC
:1006600000D51543CCF800505B1C0A6832FA03F53C
:100670007FF400AF05B0BDE8F08F00000804014032
:10068000001002400000014000040048000800483B
:10069000000C0048001000480014004800690840A1
:1006A00000D0012070470AB18161704781627047B4
:1006B00001488068704700003000002002488168CF
:1006C00042681144816070473000002010B500245A
:1006D000032000F073F80F2000F008F808B101249F
:1006E00001E000F025F8204610BD000070B50E4E68
:1006F00005460024706898B14FF47A71B1FBF0F0B0
:100700000A490968B1FBF0F000F060FD40B9102D16
:1007100006D200222946501E00F030F8356000E075
:100720000124204670BD0000300000203C00002065
:100730000A4882B0016E41F001010166016E01F0CC
:1007400001010091816D41F080518165806D00F063
:100750008050009002B000F0A1B8000000100240EC
:10076000002809DB00F01F020121914040098000B0
:1007700000F1E020C0F8001170470000F0B40E4B0B
:100780001B680C46C3F30223C3F10705042D00D9EF
:100790000425191D072901D2002300E0DB1E0126D4
:1007A00006FA05F1491E214099409E40761E1640EA
:1007B0003143F0BC03F01ABB0CED00E0064900F039
:1007C000070208684FF6FF03184040EA0220034A78
:1007D00010430860704700000CED00E00000FA05CF
:1007E0002B492C4B0A6832214A432B4940B1B0F5C2
:1007F000007F086829D020F4C06040F480602CE0BD
:100800000868C0F34120022804D051F8800F20F47A
:10081000807022E0D1F8800020F48070C1F8800060
:10082000086820F4C06040F400700860B2FBF3F088
:10083000401C00E0401E4A69520501D50028F9D14C
:10084000486940050AD503207047C0F341200228BB
:1008500006D051F8800F40F4807008600020704787
:10086000D1F8800040F48070C1F88000086820F45E
:10087000C06040F400700860B2FBF3F0401C00E080
:10088000401E4A695205DBD50028F9D1D8E700009F
:100890003C00002040420F00007000400248816888
:1008A00041F4804181607047007000402DE9F843B9
:1008B0000446006800269D4D00035ED5A86D002704
:1008C000C00008D4A86D40F08050A865A86D01272D
:1008D00000F080500090DFF85892D9F8001041F4F1
:1008E0008071C9F80010FFF7E3FE804606E000BF04
:1008F000FFF7DEFEA0EB080002282BD8D9F8000095
:10090000C005F5D5D5F8900010F4407014D0216CD6
:10091000814211D0D5F89000D5F8901020F44070A5
:1009200041F48031C5F89010D5F8901021F4803151
:10093000C5F89010C5F89000C00711D0FFF7B8FEB9
:10094000804641F2883907E0FFF7B2FEA0EB0801CC
:10095000494501D903260BE0D5F890008007F3D56F
:10096000D5F89000216C20F440700843C5F8900041
:100970001FB1A86D20F08050A8652078C00707D06F
:10098000D5F88800616820F003000843C5F88800A6
:100990002078800707D5D5F88800A16820F00C00E2
:1009A0000843C5F888002078400707D5D5F88800A7
:1009B000E16820F030000843C5F88800207800077F
:1009C00007D5D5F88800216920F0C0000843C5F894
:1009D00088002078800607D5D5F88800616920F462
:1009E00040600843C5F888002078400607D5D5F850
:1009F0008800A16920F440500843C5F88800207899
:100A0000000607D5D5F88800E16920F44040084386
:100A1000C5F888002088C00507D5D5F88800216A68
:100A200020F440300843C5F888002088800507D5A9
:100A3000D5F88800616A20F440200843C5F8880092
:100A4000208840050FD5D5F88800A16A20F4401011
:100A50000843C5F88800A06AB0F5801F03D1E86894
:100A600040F48010E860208800050FD5D5F8880094
:100A7000E16A20F440000843C5F88800E06AB0F558
:100A8000800F03D1E86840F48010E8602088C0043B
:100A90000FD5D5F88800216B20F040700843C5F8C9
:100AA0008800206BB0F1807F03D1E86840F48010AB
:100AB000E86020884FF0006180040ED5D5F88800EA
:100AC000626B20F040601043C5F88800606B88427C
:100AD00003D1E86840F48010E860208840040ED517
:100AE000D5F88800A26B20F040601043C5F888005C
:100AF000A06B884203D1E86840F48010E860208849
:100B000000040FD5D5F88800E16B20F04050084371
:100B1000C5F88800E06BB0F1805F03D1E86840F46D
:100B20008030E8603046BDE8F883000000100240E5
:100B3000007000402DE9F0470E4605004FF0000719
:100B400025D0DFF8AC81D8F8000000F00F00B042EB
:100B50000CD2D8F8001021F00F013143C8F8001072
:100B6000D8F8000000F00F00B04210D12968614CA5
:100B7000C80741F2883A5AD06868DFF87C910328A8
:100B800008D0022820682DD0400500282CDB012049
:100B9000BDE8F08720688001F9D5E06800F0030225
:100BA000E068C0F30310401C032A19D0534A00BF69
:100BB000B2FBF0F0E268C2F306225043E268C2F3EF
:100BC0004162521C5200B0FBF2F0484517D9A068B0
:100BD00010F0F00F0CD0880711D5A86840B10EE0D6
:100BE000474AE5E78003D0E700F0B6F8484506D964
:100BF000A06820F0F00040F08000A0608027A0688E
:100C0000696820F003000843A060FFF751FD8146AA
:100C100006E000BFFFF74CFDA0EB090151453AD8B3
:100C2000A068696800F00C00B0EB810FF2D1286871
:100C3000810714D5400703D5A06840F4E060A060A8
:100C40002878000705D5A06820F4605040F4E060E3
:100C5000A060A068A96820F0F000084304E0802F9D
:100C600003D1A06820F0F000A060D8F80010404642
:100C700001F00F01B14216D9016821F00F01314393
:100C80000160FFF715FD074607E000BFFFF710FD05
:100C9000C11B514501D903207AE7D8F8000000F0C4
:100CA0000F00B042F2D12878400705D5A068E96866
:100CB00020F4E0600843A0602878000706D5A0680B
:100CC000296920F4605040EAC100A06000F044F8B7
:100CD000A1680C4AC1F30311515C01F01F01C84027
:100CE0000949086009480068BDE8F047FFF7FEBC05
:100CF000002002400010024000B4C4040024F400AC
:100D000000366E011C5200083C000020300000201C
:100D10000548064900688968054AC1F30221515C0B
:100D200001F01F01C84070473C0000200010024045
:100D30002C5200080548064900688968054AC1F335
:100D4000C221515C01F01F01C84070473C000020E7
:100D5000001002402C520008184910B58868C0F3F2
:100D600081021748012A0BD08A68164BC2F3810210
:100D7000022A06D08A68C2F38102032A03D0002027
:100D800010BD184610BDCA6802F00304CA68C2F359
:100D90000312521C032C02D0B0FBF2F001E0B3FBB3
:100DA000F2F0CA68C968C2F306225043C1F3416138
:100DB000491C4900B0FBF1F010BD000000100240DA
:100DC0000024F40000366E012DE9F84304007AD0C7
:100DD0002078F84DC00747D0A868E96800F00C00FB
:100DE00001F003010C2802D0082817D001E00329E4
:100DF00014D06068B0F5803F17D0B0F5A02F2868F8
:100E000017D020F480302860286820F480202860E3
:100E10006068E0B1FFF74CFC064614E028688003E8
:100E200022D560680028D2D01EE0286840F48030C7
:100E3000EDE740F480202860F7E700BFFFF738FCBB
:100E4000801B642870D828688003F7D50CE0FFF772
:100E50002FFC064605E000BFFFF72AFC801B642834
:100E6000F0D828688003F7D4207880074CD5A8688C
:100E7000E96800F00C0001F003010C2802D00428FE
:100E80000DD001E002290AD0E068002828682BD0A4
:100E900040F480702860FFF70BFC064619E02868D4
:100EA000400502D5E068002891D06868217C20F0D8
:100EB000FE4040EA01606860BF480068FFF716FC2A
:100EC000002800D120E072E1FFF7F2FB801B02282E
:100ED000B8D828684005F7D56868217C20F0FE4026
:100EE00040EA016068600FE020F480702860FFF73E
:100EF000DFFB064605E000BFFFF7DAFB801B022898
:100F0000A0D828684005F7D42078000729D5606963
:100F10000028D5F8940013D040F00100C5F89400E3
:100F2000FFF7C6FB064606E090E000BFFFF7C0FBF8
:100F3000801B022886D8D5F894008007F6D510E0EB
:100F400020F00100C5F89400FFF7B2FB064604E06C
:100F5000FFF7AEFB801B022878D8D5F894008007F5
:100F6000F6D42078400761D5A86D0026C00008D4CB
:100F7000A86D40F08050A865A86D012600F0805053
:100F800000908E480168C90511D40168804641F47B
:100F900080710160FFF78CFB074604E0FFF788FBD8
:100FA000C01B022852D8D8F80000C005F6D5A068AA
:100FB000012815D00528D5F8900016D020F00100A2
:100FC000C5F89000D5F8900020F00400C5F8900016
:100FD000A06841F28838B8B1FFF76AFB07460EE017
:100FE000D5F8900040F00100F0E740F00400C5F8AB
:100FF0009000F5E7FFF75CFBC11B414526D8D5F80B
:1010000090008007F6D50CE0FFF752FB074604E09E
:10101000FFF74EFBC11B414518D8D5F8900080075B
:10102000F6D41EB1A86D20F08050A8652078800607
:1010300029D5A0690028D5F8980013D040F0010008
:10104000C5F89800FFF734FB064606E075E000BFE0
:10105000FFF72EFB801B02286FD8D5F89800800779
:10106000F6D510E020F00100C5F89800FFF720FB4E
:10107000064604E0FFF71CFB801B02285DD8D5F86C
:1010800098008007F6D4E069F0B3A968C1F3810144
:1010900003295DD00228286820F08070286003D0E2
:1010A000FFF706FB04464BE0FFF702FB064604E0B1
:1010B000FFF7FEFA801B02283FD828688001F7D48A
:1010C000F4E908016FF00F0202EB01110843218AD5
:1010D0005204490802EB4151A26841EA0221084347
:1010E000217D4FF07E42490802EB41610843217B9C
:1010F00040EAC160E968324A11400843E860286864
:1011000040F08070286000E05EE0E86840F08070A9
:10111000E860FFF7CDFA044605E000BFFFF7C8FA24
:10112000001B022809D828688001F7D54CE000BFD1
:10113000FFF7BEFA001B022802D90320BDE8F8839E
:1011400028688001F4D4E8681E490840E8603BE064
:101150000128F3D0E868226A00F00301914226D109
:10116000616A00F0F0020901103991421FD1A26AB0
:1011700000F4FE41B1EB022F19D194F82C2000F0BD
:101180007841B1EBC26F12D1218E00F4C002490840
:101190004905A1F50011914209D194F8341000F0ED
:1011A000C06049084906A1F1007181420CD00120BC
:1011B000C4E7000000100240300000200070004032
:1011C0000C809F01FCFFEEFE0020B7E710B5401E2B
:1011D000B0F1807F01D3012010BD4FF0E0246061A9
:1011E0000F21601702F002FE0020A061072020619D
:1011F000002010BD704770477047704770477047B8
:10120000F0B590F83C20012A3AD0012580F83C50F6
:10121000022280F83D2003685A689C68194E1A4FD4
:10122000B34201D0BB4204D122F4700C4A6842EAB6
:101230000C02DFF858C002EA0C02D1F800C04CEAF8
:10124000020CC3F804C00268B2420DD0B2F1804F64
:101250000AD00F4B9A4207D00E4B9A4204D0BA42A2
:1012600002D00D4B9A4204D1896824F080031943BF
:10127000916080F83D50002180F83C100846F0BD98
:101280000220F0BD002C0140003401408FFFFFFD23
:10129000000400400008004000400140704710B5C5
:1012A000040003D094F83D0010B107E0012010BD08
:1012B000002084F83C00204600F022F8022084F848
:1012C0003D00211D206801F0A7FD012084F84800A1
:1012D00084F83E0084F83F0084F8400084F8410020
:1012E00084F8420084F8430084F8440084F8450000
:1012F00084F8460084F8470084F83D00002010BDC3
:1013000008B501681648B1F1804F0BD0154A9142DB
:1013100010D1816D41F002018165806D00F0020005
:10132000009008BD816D41F001018165806D00F084
:101330000100F5E70C4A9142F3D1816D41F01001B3
:101340008165806D002200F010000090114636206B
:10135000FFF714FABDE808403620FFF701BA000095
:1013600000100240000400400010004090F83D10C2
:10137000012901D001207047022180F83D10016849
:10138000CA6842F00102CA600068104988420ED063
:10139000B0F1804F0BD00E49884208D00D498842E9
:1013A00005D00D49884202D00C49884207D1816896
:1013B0000B4A1140062906D0B1F5803F03D00168E1
:1013C00041F001010160002070470000002C014045
:1013D000000400400008004000340140004001408B
:1013E0000700010070B5044690F83C000025012874
:1013F00014D0012684F83C60022084F83D00226865
:101400009068364B184020F47F4090600868702840
:101410002ED010DC10F00F0F03D021E04FF00200AF
:1014200070BD4FEA2012072A1AD2DFE802F05252AA
:1014300052524A3840002A4BC21A984249D009DC1D
:10144000B0F5805F0DD0B0F5005F1CD0B0F1101F7B
:1014500006D13EE0102A3CD0202A3AD0502A38D07B
:10146000012584F83D60002084F83C00284670BDCA
:10147000CB68D1E90121206801F039FD206881683D
:1014800041F0770109E0CB68D1E90121206801F042
:101490002EFD2068816841F480418160E1E7CA68DF
:1014A0004968206801F0CEFE5021206806E0CA6835
:1014B0004968206801F0D7FE6021206801F022FD14
:1014C000CFE7CA684968206801F0BCFE4021206867
:1014D000F4E7226801461046F0E7000088FFCEFFDF
:1014E0002000100070472DE9F04104460068C668EE
:1014F00005694FF00007A90713D5B10711D5F91EEB
:10150000016101202077206880698007204602D091
:10151000FFF7E8FF04E000F0F1F8204600F0B3F92F
:101520002777680716D5700714D521686FF0040077
:101530000861022020772068806910F4407F2046EF
:1015400002D0FFF7CFFF04E000F0D8F8204600F00B
:101550009AF92777280715D5300713D521686FF03A
:1015600008000861042020772068C06980072046B1
:1015700002D0FFF7B7FF04E000F0C0F8204600F00B
:1015800082F92777E80616D5F00614D521686FF0A2
:1015900010000861082020772068C06910F4407F9F
:1015A000204602D0FFF79EFF04E000F0A7F8204697
:1015B00000F069F92777E80708D0F00706D021681E
:1015C0006FF001000861204600F0DCF9280601D424
:1015D000A80408D5300606D521686FF402500861CA
:1015E0002046FFF708FEE80508D5300606D5216835
:1015F0006FF4807008612046FFF7FCFD680608D58F
:10160000700606D521686FF040000861204600F0A2
:10161000F7F9A80608D5B00606D521686FF02000B6
:1016200008612046FFF7E8FDE80208D5F00206D57C
:1016300021686FF4801008612046FFF7DFFDA802E3
:1016400008D5B00206D521686FF400100861204665
:10165000FFF7D3FD680208D5700206D521686FF444
:10166000800008612046FFF7CAFD28020AD5300233
:1016700008D521686FF4000008612046BDE8F041FC
:10168000FFF70CBEBDE8F08130B587B004461421E9
:101690006846FEF7F7FD24680021164A02234FF042
:1016A0009040B4F1804F15D0134DAC4210D1D46CA2
:1016B00044F00104D464D26C02F00102059280224D
:1016C0000092CDE90131CDE903136946FEF7C2FE70
:1016D00007B030BDD46C44F00104D464D26C0093E4
:1016E000CDE90131039102F001020121CDE904129B
:1016F000EBE700000010024000040040704770B5A6
:10170000044690F83C0000260D4601280BD001202D
:1017100084F83C000C2A4AD007DC82B1042A20D08D
:10172000082A06D131E0022070BD102A53D0142AB5
:1017300063D00126002084F83C00304670BD20684C
:1017400001F0EAFB2068816941F0080181612068AD
:10175000816921F004018161206881692A6911434E
:1017600011E0206801F026FC2068816941F40061E5
:1017700081612068816921F48061816120688169CB
:101780002A6941EA02218161D4E7206801F05AFC0C
:101790002068C16941F00801C1612068C16921F078
:1017A0000401C1612068C1692A69114311E0206800
:1017B00001F090FC2068C16941F40061C1612068BA
:1017C000C16921F48061C1612068C1692A6941EA67
:1017D0000221C161AEE7206801F0C4FC2068016D00
:1017E00041F0080101652068016D21F004010165E7
:1017F0002068016D2A69114311E0206801F0EAFCBC
:101800002068016D41F4006101652068016D21F4DB
:10181000806101652068016D2A6941EA0221016544
:1018200088E710B5040003D094F83D0010B107E03C
:10183000012010BD002084F83C00204600F022F872
:10184000022084F83D00211D206801F0E5FA012006
:1018500084F8480084F83E0084F83F0084F8400093
:1018600084F8410084F8420084F8430084F844007E
:1018700084F8450084F8460084F8470084F83D0069
:10188000002010BD7047704730B50446022269B190
:10189000042912D0082917D00C291CD0102921D0D6
:1018A00094F84300012824D0012030BD94F83E0074
:1018B0000128F9D184F83E201DE094F83F0001286A
:1018C000F2D184F83F2016E094F840000128EBD1D3
:1018D00084F840200FE094F841000128E4D184F816
:1018E000412008E094F842000128DDD184F842202C
:1018F00001E084F843200122206801F0EBFA194B43
:1019000020681949194A984209D0884207D0904264
:1019100005D0174DA84202D0164DA84203D1456C00
:1019200045F400454564206898420CD0B0F1804FE2
:1019300009D0114B984206D0104B984203D08842F0
:1019400001D0904207D181680D4A1140062906D086
:10195000B1F5803F03D0016841F001010160002032
:1019600030BD0000002C0140003401400040014027
:1019700000440140004801400004004000080040CD
:101980000700010000681C49884233D11B48818848
:10199000491C89B28180B1F57A7F01D10021818013
:1019A00089B20922B1FBF2F302FB13120AB9012238
:1019B00002703122B1FBF2F302FB13120AB90222C8
:1019C00002706422B1FBF2F302FB13121AB9C2785F
:1019D00082F00102C270C722B1FBF2F302FB1312C4
:1019E0000AB90322027001F0070004490C31095CB6
:1019F00000F0C8BD70470000001000401400002037
:101A0000704790F88410012918D0012180F88410C3
:101A10002421C0F8881001680A680B6823F00103CC
:101A20000B6022F0005100224266036819602021F9
:101A3000C0F8881080F88420104670470220704754
:101A40007047704770B5044690F8840001281DD097
:101A5000012084F884002420C4F8880020680568E8
:101A6000026822F0010202602068826822F060624F
:101A70000A438260204601F009FC206805602020AE
:101A8000C4F88800002084F8840070BD022070BD76
:101A900070B5044690F8840001281DD0012084F818
:101AA00084002420C4F8880020680568026822F0B9
:101AB000010202602068826822F060420A4382606C
:101AC000204601F0E3FB206805602020C4F8880070
:101AD000002084F8840070BD022070BD70477047FC
:101AE000704700002DE9F04103680446D869196881
:101AF0009A6840F60F0528424FF000054FF00206A5
:101B00000AD187067ED501F0200702F0805C57EAF3
:101B10000C0777D0616F3AE1B24FDFF8CCC21740C3
:101B200001EA0C0C57EA0C0C6CD05FEAC07C0CD0BC
:101B30005FEAC15C09D54FF0010CC3F820C0D4F8AE
:101B4000903043F00103C4F89030830709D5D307E0
:101B500007D023681E62D4F8903043F00403C4F821
:101B6000903043070AD5D30708D026680423336290
:101B7000D4F8903043F00203C4F8903003070CD53A
:101B800001F020033B4308D0266808233362D4F8D1
:101B9000903043F00803C4F8903003050BD54B0197
:101BA00009D526684FF400633362D4F8903043F0CF
:101BB0002003C4F89030D4F89030002B3DD080063C
:101BC00009D501F0200002F08051084303D0616F75
:101BD00009B120468847D4F89000216889684906F1
:101BE00002D410F0280F2AD0204601F035FC2068DE
:101BF000806840061ED52068083050E8001F21F09C
:101C0000400100E021E040E80012002AF3D1D4F8BE
:101C1000800078B175498163D4F88000FEF7CBFB72
:101C200000280AD0D4F88000816B00E02046BDE88F
:101C3000F04108472046FFF753FFBDE8F0812046FA
:101C4000FFF74EFFC4F89050F7E7D4F86CC0202798
:101C5000BCF1010F7ED15FEAC06C7BD55FEAC16C3D
:101C600078D51020186220688068400645D5D4F8E1
:101C70008010086840680004000CDED0B4F85C20D6
:101C80008242DAD9A4F85E000868006880062CD485
:101C9000216851E8000F20F4807041E80002002A1A
:101CA000F6D12068083050E8001F21F0010140E81B
:101CB0000012002AF5D12068083050E8001F21F0FA
:101CC000400140E80012002AF5D1C4F88C70E566A6
:101CD000206850E8001F21F0100140E80012002A9F
:101CE000F6D1D4F88000FEF731FB2667B4F85C002B
:101CF000B4F85E10401A81B230E0B4F85C00B4F879
:101D00005E10401A81B2B4F85E00002895D0002918
:101D100093D0226852E8000F20F4907042E800034C
:101D2000002BF6D12F4BDB432068083050E8002F02
:101D30001A4040E8002CBCF1000FF5D1C4F88C70BB
:101D4000E5666567226852E8000F20F0100042E85F
:101D5000000300E006E0002BF4D126672046FFF7E1
:101D60006FFE6AE7C60209D5560207D54FF4801008
:101D700018622046BDE8F041FFF7B1BE03060AD560
:101D800001F0800302F40002134304D0A16F002984
:101D90007FF44CAF51E7420611D54A060FD52046D5
:101DA000026852E8001F21F0400142E80013002BB6
:101DB000F6D1C0F88870856700F02DF93DE7020282
:101DC00006D54A0004D52046BDE8F041FFF786BE9F
:101DD000C001C6D50029C4DA2046BDE8F041FFF7AE
:101DE00030BE00000100001020010004453400084E
:101DF00010B5040003D0D4F8880010B107E001202A
:101E000010BD002084F88400204600F027F824202C
:101E1000C4F888002068016821F001010160A06A0F
:101E200010B1204601F054FA204601F0A7FD012828
:101E3000E6D02068416821F49041416020688168C3
:101E400021F02A0181602068016841F001010160F0
:101E50002046BDE8104001F09FBA000010B598B0D0
:101E60000446142111A8FEF70DFA44216846FEF736
:101E700009FA1B492068884230D101200024CDE9AD
:101E800000046846FEF712FD08B1FEF75DFA15483A
:101E9000016E41F480410166016E01F480411691AA
:101EA000C16C41F00101C164C06C11A900F00100D6
:101EB00016904FF4C06011900220CDE91204072063
:101EC000CDE914404FF09040FEF7C4FA00221146CD
:101ED0002520FEF753FC2520FEF742FC18B010BD6C
:101EE000003801400010024030B4D0F88C30202B74
:101EF00002D0022030BC7047A9B1A2B10023C36652
:101F00000A4C0368A3420BD05B681B0208D5046827
:101F100054E8003F43F0806344E80035002DF6D1DB
:101F200030BC01F065BE0120E4E700000080004005
:101F3000094988420ED10948016809488160094B66
:101F4000817842785A54491C81700122411C024810
:101F5000FFF7CABF704700002801002038000020AA
:101F600014000020DA0100202DE9F8430446D0F8DF
:101F70008800984616460D46202802D00220BDE86B
:101F8000F883A5B19EB10020C4F890002120C4F8C8
:101F900088001834FEF78CFBA6878146E68754F844
:101FA000100C2027183CB0F5805F02D003E0012020
:101FB000E5E7206910B12E46002510E000260EE06E
:101FC0008021204601F09CFEC0B9DEB116F8010B5D
:101FD00021688862B4F85600401EA4F85600B4F890
:101FE00056004B464FF00002CDF800800028E7D1A4
:101FF0004FF04001204601F083FE40B1C4F88870E4
:102000000320BCE735F8020BC0F30800E0E7C4F892
:1020100088700020B3E77047FEE7000070B52848DD
:10202000017801291ED10024047000F04DF82549E3
:10203000024601260870CB7898435340487093437A
:102040008B70CA708A1D931C054601280BD0022D87
:102050001BD0032D2BD0042D04D1487980F0010032
:1020600048710C7170BD087938B11878401CC0B245
:1020700018700A28F6D91E7070BD1078401CC0B2C6
:1020800010700A28F8D9167070BD087938B15878E0
:10209000401CC0B258700928F6D95E7070BD5078E7
:1020A000401CC0B250700928F8D9567070BD4879EC
:1020B0000028FBD1087980F00100087170BD000094
:1020C000140000200000002070B50E4D00240121F6
:1020D0002846FEF7E3FA00B9012402212846FEF75C
:1020E000DDFA00B9022404212846FEF7D7FA00B928
:1020F000032401214FF09040FEF7D0FA00B90424E8
:10210000204670BD0004004800B585B01421684623
:10211000FEF7B8F84FF6FF70009000200321CDE9DC
:102120000201019069460248FEF794F905B000BD2E
:102130000008004800B585B014216846FEF7A2F8F3
:102140004FF6FF70009001200190032003900020C3
:10215000029069460248FEF77DF905B000BD000017
:102160000008004870B5002406462146204600F0CD
:102170005DF900F09FF94FF49635304600F06AF9AA
:10218000641CAC42F9D370BD30B587B014216846E9
:10219000FEF778F81E48C16C41F00401C164C16CBF
:1021A00001F004010591C16C41F00101C164C16CF1
:1021B00001F001010591C16C41F00201C164C06CE4
:1021C000012500F0020005904FF44870CDE90005AC
:1021D00000240394694602940E48FEF73BF9280256
:1021E00003940090CDE901544FF090446946204695
:1021F000FEF730F9FFF79EFFA06940F48070A06100
:1022000004481830016841F40871016007B030BD1E
:102210000010024000040048203AD2B2034B02EB07
:10222000420203EB021200F019B80000244000083B
:10223000F0B50E460746002540F23F1407E0214660
:102240003846FFF7E9FF103C6D1CA4B2761C3278CB
:10225000002A01D0142DF2D3F0BD00002DE9F04783
:1022600091468A460026044600F0E0F8DFF84080F8
:10227000012700BF00F01EF95FF0000539F81600D5
:1022800007FA05F10842404601D1408800E0008885
:1022900000F0E0F86D1C102DF0D3641CE4B2514640
:1022A000204600F0C3F8761C182EE3D3BDE8F08773
:1022B0002800002010B5FFF767FF002000F06EF83F
:1022C000084CA080A088A0F50241303906D000F06B
:1022D000BDFB002000F062F8A08010BD00F02DFBD7
:1022E000F7E700002800002010B5194801780229FE
:1022F0002DD10021017017480079E8B116A11A48C4
:1023000001F060FD18494820FFF792FF114C0E3490
:1023100016A12288144801F055FD13496020FFF7EB
:1023200087FF628815A1104801F04CFDBDE8104000
:102330000D497820FFF77CBF14A10B4801F042FD46
:1023400009494820FFF774FF024C0A34E0E710BD4A
:102350001400002000000020202020202020202029
:102360005041372000000000BC0100202020202028
:102370002020463A2564487A202000002020202092
:102380002020443A256425252020000020202020FC
:1023900020202020504131200000000070B51D4950
:1023A0000A6842F400720A600A6842F480720A60A5
:1023B000184C103C226842F020022260164A10603D
:1023C000086840F02000086000BF00BF00BF206820
:1023D00040F020002060206840F480702060FFF70B
:1023E00093FE4FF09041886A40F48070886200BF8D
:1023F00000BF00BF0848001F006885B2886940F42C
:1024000080708861FFF796FE206840F400702060BD
:10241000284670BD280400481408004801B5BDF8DE
:1024200000000149488008BD2800002010B50C4676
:102430000146202000F06EF82146BDE81040212022
:1024400000F068B801B5BDF800000149088008BD7A
:102450002800002030B5154B1C68154A116841F45E
:1024600000711160124910390D6845F480750D60D6
:102470000D6845F020050D601860106840F02000E0
:10248000106000BF00BF00BF086840F02000086077
:10249000086840F48070086000BF00BF00BF086893
:1024A00040F4007008601C6030BD00001408004853
:1024B00028040048154A10B513681549086840F407
:1024C00000700860086840F4807008601048103898
:1024D000046844F020040460222414600C6844F072
:1024E00020040C6000BF00BF00BF016841F0200164
:1024F0000160016841F48071016000BF00BF00BF4E
:10250000016841F400710160136010BD14080048B7
:102510002804004870B5194C2568194B1A6842F414
:1025200000721A601A6842F480721A60144A103AF3
:10253000166846F0200616602060186840F02000FB
:10254000186000BF00BF00BF106840F0200010609E
:10255000106840F4807010602160186840F020001E
:10256000186000BF00BF00BF106840F0200010607E
:10257000106840F480701060256070BD1408004839
:102580002804004870B5144C01228240207811B113
:102590000243227001E090432070207861788842E5
:1025A00019D00E4D01224FF47F412846FEF77BF8EB
:1025B0002078002201022846FEF775F8084D012216
:1025C00004212846FEF76FF8002204212846FEF772
:1025D0006AF82078607070BD2E0000200008004866
:1025E000000C004830B50D480C4B0478801C9B1F34
:1025F00005780B481979AC4202780A4802D9027072
:10260000417002E006D242700170597981F00101F7
:10261000817030BD81F00102F1E70000060000206A
:1026200017000020200000202DE9F04F87B0142172
:102630006846FDF727FE4048C16C41F00401C164C3
:10264000C16C01F004010591C16C41F02001C1642D
:10265000C16C01F020010591C16C41F00101C16420
:10266000C16C01F001010591C16C41F00201C1642E
:10267000C16C01F002010591C16C41F00801C16417
:10268000C06CDFF8B88000F008004FF6FF740590CA
:10269000002221464046FEF706F84FF480764FF0C0
:1026A0009049002231464846FDF7FDFFDFF890A033
:1026B000002204215046FDF7F6FFDFF888B04FF402
:1026C0004877002239465846FDF7EDFF0125CDE950
:1026D000004500240294694640460394FDF7BAFE83
:1026E000CDE90054694648460294FDF7B3FE072041
:1026F000CDE90004694658460294FDF7ABFE00960A
:10270000CDE90154694648460394FDF7A3FE042031
:102710000090CDE90154694650460394FDF79AFEB6
:102720000097CDE90154694658460394FDF792FE9F
:1027300007B0BDE8F08F000000100240000800481C
:10274000000C00480004004810B58EB00024079427
:10275000089409940A940B940C941C2168460D94D7
:10276000FDF790FD1E484FF08041016040F21F319F
:10277000C0E901146321C0E9031480218161FEF7DF
:102780008EFD08B1FDF7E0FD4FF48050079007A9DA
:102790001348FEF727FE08B1FDF7D6FD1048FFF7F6
:1027A00040F808B1FDF7D0FD0B940BA90C480D942F
:1027B000FEF726FD08B1FDF7C7FD602000900A2056
:1027C000CDE901040422694605480494FEF797FF09
:1027D00008B1FDF7B9FD0248FEF756FF0EB010BD77
:1027E0004400002010B58EB000240794089409948A
:1027F0000A940B940C941C2168460D94FDF742FD3D
:102800001F481E49016040F21F31C0E901146321D5
:10281000C0E9031480218161FEF741FD08B1FDF795
:1028200093FD4FF48050079007A91548FEF7DAFD95
:1028300008B1FDF789FD1248FEF7F3FF08B1FDF777
:1028400083FD0B940BA90E480D94FEF7D9FC08B13B
:10285000FDF77AFD602000900A20CDE901040422F2
:10286000694607480494FEF74AFF08B1FDF76CFD7E
:102870000348FEF709FF0EB010BD00000004004041
:10288000900000203EB500240F48009401940D49AB
:10289000029401604F21C0E9011440F2E731C160A8
:1028A00080218161FEF7FBFC08B1FDF74DFD00942E
:1028B000694605480294FEF7A3FC002801D0FDF705
:1028C00043FD3EBD00100040DC000020184810B55C
:1028D000164901604FF416514160002181600C22BD
:1028E000C160C0E904128161C1610162416281621B
:1028F000FFF77EFA08B1FDF727FD00210C48FFF72E
:10290000C7F808B1FDF720FD00210948FFF79AF844
:1029100008B1FDF719FD0648FFF773F8002803D04A
:10292000BDE81040FDF710BD10BD000000380140AB
:1029300028010020FEE7FEE7704730B501210020A6
:10294000FFF7E8FD4FF47A70FDF7F0FC002101205D
:10295000FFF7E0FD41F290711020FFF7DBFD4FF42F
:102960001C516020FFF7D6FD01216120FFF7D2FD49
:1029700002214620FFF7CEFD48F210011320FFF799
:10298000C9FD48F2FE011220FFF7C4FD4FF4A0611B
:102990000220FFF7BFFD41F230010320FFF7BAFD2F
:1029A00040F2033421463020FFF7B4FD21463120A8
:1029B000FFF7B0FD21463220FFF7ACFDE51E2946AA
:1029C0003320FFF7A7FD03213420FFF7A3FD2146A5
:1029D0003520FFF79FFD14213620FFF79BFD214690
:1029E0003720FFF797FD21463820FFF793FD21465A
:1029F0003920FFF78FFD29463A20FFF78BFD032191
:102A00003B20FFF787FD21463C20FFF783FD4FF475
:102A1000A0513D20FFF77EFD4FF400719220FFF79B
:102A200079FD21469320FFF775FD40F60D019020BA
:102A3000FFF770FD41F218010320FFF76BFDBDE8C1
:102A4000304040F273110720FFF764BD10B543F228
:102A50000801E320FFF75EFD1221E720FFF75AFD92
:102A600041F23121EF20FFF755FD00210120FFF752
:102A700051FD4FF4E0610220FFF74CFD41F23001BF
:102A80000320FFF747FD00210420FFF743FD40F23C
:102A900007210820FFF73EFD00210920FFF73AFD3E
:102AA00000210A20FFF736FD00210C20FFF732FD40
:102AB00000210D20FFF72EFD00210F20FFF72AFD3A
:102AC00000211020FFF726FD07211120FFF722FD2E
:102AD00000211220FFF71EFD00211320FFF71AFD31
:102AE000C820FDF7A5FC41F290611020FFF712FD10
:102AF00040F227211120FFF70DFD3220FDF798FC51
:102B00001D211220FFF706FD3220FDF791FC4FF446
:102B100000611320FFF7FEFC14212920FFF7FAFCC7
:102B20000B212B20FFF7F6FC3220FDF781FC002162
:102B30002020FFF7EFFC00212120FFF7EBFC07210D
:102B40003020FFF7E7FC40F207713120FFF7E2FC8D
:102B500006213220FFF7DEFC40F204713520FFF73A
:102B6000D9FC41F604713620FFF7D4FC042137204C
:102B7000FFF7D0FC00213820FFF7CCFC40F20671B3
:102B80003920FFF7C7FC40F201713C20FFF7C2FC7F
:102B90000F213D20FFF7BEFC00215020FFF7BAFCBB
:102BA000EF215120FFF7B6FC00215220FFF7B2FCC5
:102BB00040F23F115320FFF7ADFC4FF41C51602051
:102BC000FFF7A8FC01216120FFF7A4FC00216A2087
:102BD000FFF7A0FC00218020FFF79CFC0021812052
:102BE000FFF798FC00218220FFF794FC002183204E
:102BF000FFF790FC00218420FFF78CFC002185204A
:102C0000FFF788FC10219020FFF784FC0021922020
:102C1000FFF780FC03219320FFF77CFC4FF48871C1
:102C20009520FFF777FC00219720FFF773FC002128
:102C30009820FFF76FFC41F218010320FFF76AFCB0
:102C4000BDE8104040F273110720FFF763BC00009D
:102C5000224810B5007803283FD121484FF6FF7471
:102C60004178007801EB810149060A0E00EB400132
:102C7000C1EBC01004EAC0011A4800F07BF8184804
:102C8000801C4178007801EB810149060A0E00EBB7
:102C90004001C1EBC01004EAC001134800F06AF81B
:102CA00010480068826AC16A521C491C4A430F4995
:102CB000B1FBF2F30A4A121D1380806B50800A4860
:102CC0000068826AC36A521C5B1C5A43B1FBF2F271
:102CD000034908310A80806B488010BD1400002031
:102CE00006000020440000209000002000B4C4042E
:102CF00070470000154810B5026815490B68D21AD4
:102D0000322A22D300680860124C217899B1124807
:102D10004279C2B1012905D110490978402908D06A
:102D2000232904D00EA000BF01F03CF803E00121EC
:102D300000E00021017100202070BDE810401E213C
:102D40000648FDF79FBA08A0EEE710BD3800002046
:102D50001C0000201600002000000020DA010020E6
:102D60004552524F520000004B455920434F4E549C
:102D7000524F4C00044BB3FBF1F10368491E9962BA
:102D8000006882637047000000350C00FDF796BCB8
:102D900000B593B038216846FDF774FA14210EA8E7
:102DA000FDF770FA4FF40070FDF71AFD0220C10123
:102DB0000391402104910121CDE9080100900A21ED
:102DC000CDE90A1007900C900D906846FDF7FCFFC6
:102DD00008B172B6FEE70F200E9003200F9000207E
:102DE00010901190129002210EA8FDF7A3FE00286A
:102DF00001D072B6FEE713B000BD000002480168C2
:102E000041F470010160704788ED00E00148FEF771
:102E10006ABB0000DC0000202DE9F0430268264B6D
:102E2000264D274E274C4FF08049984207D0484501
:102E300005D0A84203D0B04201D0A04203D122F075
:102E400070074A683A43204FDFF880C0DFF880807F
:102E500098420DD048450BD0A84209D0B04207D0C7
:102E6000A04205D0B84203D0604501D0404503D10F
:102E700022F44075CA682A434D6922F080022A4331
:102E800002608A68C2620A688262984207D0A042E1
:102E900005D0B84203D0604501D0404501D1096951
:102EA0000163012141610169C90703D0016921F072
:102EB00001010161BDE8F083002C014000040040E5
:102EC000000800400034014000400140004401403F
:102ED0000048014010B501F01F030121046A994028
:102EE0008C430462016A9A401143016210BD10B51F
:102EF000846842EA032224F47F440A432243826026
:102F000010BD00008268034B1A400A4342F00701DB
:102F1000816070478FFFCFFF2DE9F043056A026A99
:102F200022F001020262436882691C4C25F002050E
:102F300022400C6822F0030214438A68194E2A4387
:102F4000174D194FDFF864C0DFF86490A84207D02E
:102F5000B04205D0B84203D0604501D0484506D103
:102F600022F00808CA6842EA080222F00402A842D5
:102F700007D0B04205D0B84203D0604501D04845E3
:102F800005D14D6923F440731D438B692B43436086
:102F90008461496841630262BDE8F0838FFFFEFFF0
:102FA000002C014000340140004001400044014039
:102FB00000480140F0B5056A026A22F01002026280
:102FC00042688369194C1B4E23400C6823F44073FC
:102FD00043EA042425F020038D6843EA0513144DC9
:102FE000A84201D0B04206D1CF6823F0800343EA63
:102FF000071323F04003A8420AD0B04208D00E4D78
:10300000A84205D00D4DA84202D00D4DA84207D1CF
:103010004D6922F4406242EA85028D6942EA8502E6
:1030200042608461496881630362F0BDFF8FFFFEE7
:10303000002C0140003401400040014000440140A8
:1030400000480140F0B5056A026A22F4807202620B
:103050004368C269194C1B4E22400C6822F00302DF
:10306000144325F400728D6842EA0522144DA842EB
:1030700001D0B04206D1CF6822F4006242EA0722B2
:1030800022F48062A8420AD0B04208D00E4DA84275
:1030900005D00E4DA84202D00D4DA84207D14D6972
:1030A00023F4405343EA05138D6943EA0513436053
:1030B000C4614968C1630262F0BD00008FFFFEFF7A
:1030C000002C014000340140004001400044014018
:1030D00000480140F0B5056A026A22F4805202629B
:1030E0004268C369194C1B4E23400C6823F440739B
:1030F00043EA042425F400538D6843EA0533144D54
:10310000A84201D0B04206D1CF6823F4004343EA7D
:10311000073323F48043A8420AD0B04208D00E4DB2
:10312000A84205D00D4DA84202D00D4DA84207D1AE
:103130004D6922F4404242EA85128D6942EA8512C5
:103140004260C461496801640362F0BDFF8FFFFE05
:10315000002C014000340140004001400044014087
:103160000048014030B5056A026A22F480320262EA
:103170004268036D114C23400C681C4325F4003356
:103180000D8943EA05430E4DA8420BD00D4DA842D0
:1031900008D00D4DA84205D00C4DA84202D00C4DD0
:1031A000A84204D14D6922F4803242EA05224260ED
:1031B000046549688164036230BD00008FFFFEFF33
:1031C000002C014000340140004001400044014017
:1031D0000048014030B5046A026A22F4801202629B
:1031E0004268036D114D24F400142B400D6843EA2E
:1031F00005230D8944EA05540D4DA8420BD00D4D11
:10320000A84208D00C4DA84205D00C4DA84202D0CF
:103210000B4DA84204D14D6922F4802242EA852256
:10322000426003654968C164046230BDFF8FFFFEE0
:10323000002C0140003401400040014000440140A6
:103240000048014010B5036A046A24F001040462D6
:10325000846924F0F00444EA021423F00A020A43C9
:103260008461026210BD10B5036A046A24F0100480
:103270000462846923F0A00324F4704444EA023217
:1032800043EA01118261016210BD000030B5416E58
:10329000B9B1026891689268C1F342610B4B520F59
:1032A0009C5CE50003F10804A25CB5FBF2F2A0F817
:1032B0006A205A5C615CD200B2FBF1F1A0F86810A0
:1032C00030BD0121A0F86A10F8E700000C52000898
:1032D00090F82810090706D501684A68836B22F424
:1032E00000421A434A6090F82810C90706D00168C6
:1032F0004A68C36A22F400321A434A6090F82810E0
:10330000890706D501684A68036B22F480321A43A4
:103310004A6090F82810490706D501684A68436B4F
:1033200022F480221A434A6090F82810C90606D574
:1033300001688A68C36B22F480521A438A6090F84D
:103340002810890606D501688A68036C22F40052A9
:103350001A438A6090F82810490611D501684A6816
:10336000436C22F480121A434A60416CB1F5801F0D
:1033700006D101684A68836C22F4C0021A434A608D
:1033800090F82810090606D501684A68C06C22F436
:10339000002202434A6070472DE9F84300260446A4
:1033A000C0F89060FDF784F98046206800684FF00F
:1033B000200500076FF07E4713D5434600222904FD
:1033C0002046009700F09CFC58B1216851E8000F9E
:1033D00020F0800041E80002002AF6D1C4F88850AD
:1033E00021E020680068400722D5434600224FF4C0
:1033F00080012046009700F083FCC8B1216851E8A5
:10340000000F20F4907041E80002002AF6D12068F5
:10341000083050E8001F21F0010140E80012002AA6
:10342000F5D1C4F88C5084F884600320BDE8F8839B
:10343000C4F88850C4F88C5044F86C6F66602676E7
:103440000020F3E710B5806A0021A0F85E10A0F814
:103450005610FEF745FB10BD10B5026852E8001F7C
:1034600021F4907142E80013002BF6D10E4B026854
:10347000083252E8001F194042E80014002CF6D12F
:10348000C16E012908D1016851E8002F22F0100215
:1034900041E80023002BF6D12021C0F88C10002138
:1034A000C166416710BD0000FEFFFFEF10B5B0F828
:1034B0006020D0F88C300168222B04D0886940F05D
:1034C0000800886110BD496A836D11401980816DC3
:1034D000891C8165B0F85E10491EA0F85E10B0F836
:1034E0005E100029EED1026852E8001F21F49071AD
:1034F00042E80013002BF6D10168083151E8002F93
:1035000022F0010241E80023002BF5D12021C0F870
:103510008C10002141670167154B02689A420BD05D
:103520005268120208D5036853E8002F22F0806227
:1035300043E80024002CF6D1C26E012A02D0FEF727
:10354000F7FC10BDC166026852E8001F21F01001AF
:1035500042E80013002BF6D10168CA69D243D206B3
:1035600001D410220A62B0F85C10FEF769FA10BDAF
:10357000008000402DE9F0470446B0F86060006824
:10358000C569D0F800A0D0F80880D4F88C102229A2
:1035900005D0816941F008018161BDE8F087B4F888
:1035A00068704FF0000975E02068406AA16D3040F6
:1035B0000880A06D801CA065B4F85E00401EA4F8D1
:1035C0005E002068C569690730D0E9070AD05FEA64
:1035D000CA5107D501210162D4F8900040F00100E2
:1035E000C4F89000A8070BD55FEAC87008D021681E
:1035F00002200862D4F8900040F00400C4F8900063
:1036000068070BD55FEAC87008D0216804200862FB
:10361000D4F8900040F00200C4F89000D4F8900074
:1036200020B12046FEF75CFAC4F89090B4F85E0032
:1036300080BB216851E8000F20F4807041E800024F
:10364000002AF6D1304A2068083050E8001F1140A7
:1036500040E80013002BF6D12020C4F88C00C4F8F9
:1036600074904946C4F87090284A206890420BD064
:103670004068000208D5226852E8000F20F08063FD
:1036800042E800300028F6D1E06E012825D020461F
:10369000FEF74EFC0FB1A80686D4B4F85E000028F1
:1036A0003FF47BAFB4F8681081427FF676AF2068B4
:1036B000083050E8001F21F0805140E80012002A35
:1036C000F5D113486067216851E8000F40F02000F1
:1036D00041E80002002AF6D15FE7E166216851E87F
:1036E000000F20F0100041E80002002AF6D1206807
:1036F000C169C943C90601D410210162B4F85C1044
:103700002046FEF79DF9C5E7FEFFFFEF0080004071
:10371000AD34000810B5B0F86020D0F88C300168E6
:10372000222B04D0886940F00800886110BD496AE6
:103730001140826D1170816D491C8165B0F85E1079
:10374000491EA0F85E10B0F85E100029EED10168A5
:1037500051E8002F22F4907241E80023002BF6D1AB
:103760000168083151E8002F22F0010241E80023EE
:10377000002BF5D12021C0F88C1000214167016792
:10378000154B02689A420BD05268120208D50368A2
:1037900053E8002F22F0806243E80024002CF6D189
:1037A000C26E012A02D0FEF7C3FB10BDC1660268DB
:1037B00052E8001F21F0100142E80013002BF6D15F
:1037C0000168CA69D243D20601D410220A62B0F855
:1037D0005C10FEF735F910BD008000402DE9F04780
:1037E0000446B0F860600068C569D0F800A0D0F861
:1037F0000880D4F88C10222905D0816941F0080195
:103800008161BDE8F087B4F868704FF0000975E099
:103810002068406AA16D30400870A06D401CA06512
:10382000B4F85E00401EA4F85E002068C569690710
:1038300030D0E9070AD05FEACA5107D501210162F9
:10384000D4F8900040F00100C4F89000A8070BD510
:103850005FEAC87008D0216802200862D4F890009E
:1038600040F00400C4F8900068070BD55FEAC87008
:1038700008D0216804200862D4F8900040F00200CB
:10388000C4F89000D4F8900020B12046FEF728F943
:10389000C4F89090B4F85E0080BB216851E8000F36
:1038A00020F4807041E80002002AF6D1304A2068F6
:1038B000083050E8001F114040E80013002BF6D1FB
:1038C0002020C4F88C00C4F874904A46C4F8709064
:1038D0002849206888420BD04068000208D521683A
:1038E00051E8000F20F0806041E80003002BF6D182
:1038F000E06E012825D02046FEF71AFB0FB1A8067E
:1039000086D4B4F85E0000283FF47BAFB4F86810AA
:1039100081427FF676AF2068083050E8001F21F022
:10392000805140E80012002AF5D1134860672068F2
:1039300050E8001F41F0200140E80012002AF6D1B3
:103940005FE7E266216851E8000F20F0100041E8CF
:103950000002002AF6D12068C169C943C90601D412
:1039600010210162B4F85C102046FEF769F8C5E743
:10397000FEFFFFEF00800040153700082DE9F04101
:103980000446016880682269E36910436269002582
:103990001A431043DFF82CC20A688B4B1A400243CB
:1039A0000A6020684168E26821F440511143416097
:1039B0002168A069614501D0226A10438A68834B5F
:1039C0001A4002438A602068C16A626A21F00F01CE
:1039D0001143C1627E4923687E488B420DD1D0F8E5
:1039E000880010F0030006D0012855D0022842D0EC
:1039F00003283FD152E001203DE077498B420BD1B3
:103A0000D0F8880010F00C0035D0042833D00828F6
:103A100040D00C282ED141E070498B420BD1D0F818
:103A2000880010F0300026D0102835D0202831D062
:103A300030281FD132E06A498B420BD1D0F8880080
:103A400010F0C00017D0402826D0802822D0C028EF
:103A500010D123E063450DD1D0F8880010F4406008
:103A600009D0B0F5806F17D0B0F5006F12D0B0F567
:103A7000406F13D010205B495B4F00264FF400428B
:103A800063453BD160B1022813D004280BD008282D
:103A900072D10DE00220EEE70420ECE70820EAE70F
:103AA000FDF736F901E0FDF757F9010001D17CE09F
:103AB0001146606A37F810206768B1FBF2F007EB37
:103AC0004703834270D8B0EB073F6DD80023084608
:103AD0001946FCF79FFB090241EA106102027808CF
:103AE000101871413A460023FCF794FB3F4AA0F5B9
:103AF0004071914258D82168C86056E0E3694FF69A
:103B0000EF7893422CD109284ED2DFE800F0050867
:103B1000114D0D4D4D4D1000FDF7FAF801E0FDF788
:103B200009F9010004D140E0FDF716F9F9E7114663
:103B3000606A37F81000B1FBF0F04100606801EBFB
:103B40005001B1FBF0F0A0F1100141452CD84FF627
:103B5000F0710140C0F3420001432068C16024E0DD
:103B6000092821D2DFE800F0050912200E202020CC
:103B70001100FDF7CDF802E016E0FDF7DBF80100DB
:103B800004D112E0FDF7E8F8F9E71146606A37F86A
:103B90001000B1FBF0F1606801EB5001B1FBF0F0F7
:103BA000A0F1100141450AD901250120A4F86A00BD
:103BB00024F8680F2846E6602661BDE8F08180B2EF
:103BC00099E7000000800040F369FFCFFFF4FF1188
:103BD000003801400010024000440040004800400E
:103BE000004C00400024F400F4510008FFFC0F00DA
:103BF00070B58165A0F85C20A0F85E2000234367C3
:103C000081684FF48056FF24B14204D10169F9B9AB
:103C100040F2FF1122E07F25C1B1B1F1805F1AD0DF
:103C2000A0F86030C0F890302221C0F88C100168F4
:103C3000083151E8003F43F0010341E80034002C13
:103C4000F5D1416EB1F1005F0ED031E0016941B9AB
:103C5000A0F86040E6E7016919B13F21A0F86010C3
:103C6000E0E7A0F86050DDE7B0F8681091421FD897
:103C70008168B14201D10169B9B11D49416701694A
:103C800041B1026852E8001F41F4807142E800131C
:103C9000002BF6D10168083151E8002F42F0805224
:103CA00041E80023002BF5D120E012494167F1E7FC
:103CB0008168B14201D1016969B10F494167016968
:103CC00059B1026852E8001F41F4907142E80013B4
:103CD000002BF6D10AE009494167026852E8001F4B
:103CE00041F0200142E80013002BF6D1002070BD06
:103CF000DD3700087535000815370008AD340008B9
:103D00002DE9F047994617460D4604464FF0000846
:103D1000089E33E0701C31D0FCF7CAFCA0EB090010
:103D2000B04218D8BEB120680168490726D5802D59
:103D300024D0402D22D0C169C94309070DD40825DC
:103D400005622046FFF788FBC4F8905084F8848011
:103D50000120BDE8F0870320FBE7C069C0430005F0
:103D60000CD421684FF4006008622046FFF774FB12
:103D70002020C4F8900084F88480ECE72068C069B3
:103D800035EA000004D00020B842C3D00020E0E7AC
:103D90000120F9E70148FDF7A5BE00002801002039
:103DA000FEE700000FB4054B10B503A9044A0298C2
:103DB00000F03CF810BC5DF814FB00008D3F0008DB
:103DC000400000200FB4084B10B504A902AA0398C4
:103DD00000F02CF8044602A9002000F0D1F820469B
:103DE00010BC5DF814FB0000813F00080907090EB4
:103DF000002804DB00F1E02080F80014704700F098
:103E00000F0000F1E02080F8141D704702E008C8A0
:103E1000121F08C1002AFAD170477047002001E044
:103E200001C1121F002AFBD1704700002DE9FF4F8E
:103E300089B09B460446002506E025280BD05A464B
:103E40000B999047641C6D1C20780028F5D10DB0AB
:103E50002846BDE8F08F0027B8460122474900E018
:103E6000074314F8013F203B02FA03F00842F7D160
:103E700020782E2819D114F8010F47F004072A28BA
:103E80000ED06FF02F022078A0F1300109290CD854
:103E900008EB880102EB410100EB0108641CF2E72A
:103EA0000A98641C50F8048B0A9020780028CED021
:103EB000642808D0692806D075281ED05A460B9968
:103EC00090476D1C58E00A994FF00A0901C90A9100
:103ED000002802DA40422D2102E0390504D52B21C9
:103EE0008DF82010012103E0F90704D02021F7E725
:103EF0008A4608AE0DE00021FAE70A994FF00A0958
:103F000001C90A91F7E74946FCF7C7F9303106F8CD
:103F1000011D0028F7D1ADEB060000F1200978075C
:103F200001D44FF00108C84502DDA8EB090000E00C
:103F300000208046002706E008A85A46C05D0B997D
:103F400090476D1C7F1C5745F6DB04E030205A4635
:103F50000B9990476D1CB8F10001A8F10108F5DC40
:103F600005E016F8010B5A460B9990476D1CB9F104
:103F70000001A9F10109F4DC641C65E709280100CE
:103F80000A68531C0B6010707047000013B54FF0A7
:103F9000FF33012269460248FDF7E6FF00981CBD89
:103FA00028010020FCF792FBFEF7F2FEFEF73CFB37
:103FB000FEF768FCFEF7C8FBFEF714FCFEF786FC74
:103FC0001348FDF7D3F9012212491348FDF78CFF7E
:103FD00004211248FDF758FC04211148FDF754FC58
:103FE000FEF768F90020FEF7BDF84FF6FF70FEF708
:103FF00029FA0020FEF712FAFEF776F9FEF70EF81E
:10400000FEF778FEFEF724FEFEF7ECFAF4E7000078
:10401000DC000020150000202801002044000020C2
:1040200090000020000000000000000000000000E0
:104030000000000000000000000000000000000080
:104040000000000000000000000000000000000070
:1040500000000000000080018001800180018001DB
:104060008001800180018001800180018001800148
:10407000000000008001800100000000000000003E
:104080000000000000000000CC00CC00CC00CC0000
:10409000CC00CC0000000000000000000000000088
:1040A0000000000000000000000000000000000010
:1040B0000000000000000000000000000000000000
:1040C000600C600C600C30063006FE1FFE1F3006D0
:1040D00038071803FE1FFE1F180318038C018C01FC
:1040E0008C01000000008000E003F80F9C0E8C1C87
:1040F0008C188C009800F801E007800E801C8C184A
:104100008C189C18B80CF00FE003800080000000B1
:10411000000000000000000000000E181B0C110C35
:1041200011061106110311039B018E01C038C06CEA
:1041300060446044304430441844186C0C3800002B
:10414000000000000000E001F00338071806180620
:104150003003F001F000F8009C310E33061E061CFF
:10416000061C063FFC73F021000000000000000068
:1041700000000000000000000C000C000C000C000F
:104180000C000C0000000000000000000000000017
:10419000000000000000000000000000000000001F
:1041A000000000000000000200038001C000C00009
:1041B000600060003000300030003000300030001F
:1041C0003000300060006000C000C00080010003CB
:1041D00000020000000020006000C000800180019B
:1041E00000030003000600060006000600060006A5
:1041F000000600060003000380018001C00060008B
:10420000200000000000000000000000000000008E
:10421000C000C000D806F807E001300338070000EE
:10422000000000000000000000000000000000008E
:10423000000000000000000000000000000000007E
:1042400080018001800180018001FC3FFC3F8001F2
:10425000800180018001800100000000000000005A
:10426000000000000000000000000000000000004E
:10427000000000000000000000000000000000003E
:1042800000000000000080018001000100018000AA
:10429000000000000000000000000000000000001E
:1042A000000000000000000000000000E007E00740
:1042B00000000000000000000000000000000000FE
:1042C00000000000000000000000000000000000EE
:1042D00000000000000000000000000000000000DE
:1042E000000000000000C000C0000000000000004E
:1042F000000000000000000C000C00060006000694
:104300000003000300038003800180018001C000DE
:10431000C000C0006000600000000000000000005D
:10432000000000000000E003F007380E180C0C1825
:104330000C180C180C180C180C180C180C180C185D
:10434000180C380EF007E003000000000000000029
:1043500000000000000000018001C001F001980190
:10436000880180018001800180018001800180013D
:104370008001800180018001000000000000000039
:10438000000000000000E003F80F180C0C180C18D7
:1043900000180018000C000600038001C000600037
:1043A00030001800FC1FFC1F00000000000000008F
:1043B000000000000000E001F807180E0C0C0C0CC7
:1043C000000C0006C003C007000C001800180C18F1
:1043D0000C18180CF807E0030000000000000000B3
:1043E000000000000000000C000E000F000F800D08
:1043F000C00C600C600C300C180C0C0CFC3FFC3F2B
:10440000000C000C000C000C00000000000000007C
:10441000000000000000F80FF80F180018000C0052
:10442000EC03FC071C0E001C0018001800180C18E8
:104430001C0C180EF807E00300000000000000004C
:10444000000000000000C007F00F381C181818000A
:104450000C00CC03EC0F3C0E1C1C0C180C180C1898
:10446000181C380EF007E0030000000000000000F8
:10447000000000000000FC1FFC1F000C00060006EE
:10448000000380038001C001C000E0006000600004
:10449000700030003000300000000000000000001C
:1044A000000000000000E003F007380E180C180CA4
:1044B000180C3806F007F007180C0C180C180C181C
:1044C0000C18380CF80FE00300000000000000009A
:1044D000000000000000E003F007380E1C0C0C1870
:1044E0000C180C181C1C381EF81BE0190018000CC6
:1044F000000C1C0EF807F001000000000000000096
:1045000000000000000000000000000000000000AB
:104510008001800100000000000000000000000099
:104520000000000080018001000000000000000089
:10453000000000000000000000000000000000007B
:104540008001800100000000000000000000000069
:1045500000000000800180010001000180000000D7
:10456000000000000000000000000000000000004B
:10457000000000000010001C800FE003F80018008D
:10458000F800E003800F001C001000000000000095
:10459000000000000000000000000000000000001B
:1045A00000000000F81F000000000000F81F0000DD
:1045B00000000000000000000000000000000000FB
:1045C00000000000000000000000000000000000EB
:1045D0000000000008003800F001C007001F0018AC
:1045E000001FC007F00138000800000000000000B4
:1045F000000000000000E003F80F180C0C180C1865
:104600000018000C000600038001C000C000C000BC
:1046100000000000C000C00000000000000000001A
:104620000000000000000000E00718180420C22964
:10463000224A114409440944094409221113E20C95
:10464000024004201818E0070000000000000000ED
:1046500000000000000080038003C006C006C00602
:10466000600C600C301830183018F83FF83F1C70A0
:104670000C600C6006C006C00000000000000000D6
:10468000000000000000FC03FC0F0C0C0C180C18C0
:104690000C180C0CFC07FC0F0C180C300C300C30F8
:1046A0000C300C18FC1FFC0700000000000000008C
:1046B000000000000000C007F01F38381C300C70EC
:1046C00006600600060006000600060006000660FA
:1046D0000C701C30F01FE00700000000000000001C
:1046E000000000000000FE03FE0F060E061806186C
:1046F0000630063006300630063006300630061822
:104700000618060EFE0FFE03000000000000000069
:10471000000000000000FC3FFC3F0C000C000C00FF
:104720000C000C00FC1FFC1F0C000C000C000C000B
:104730000C000C00FC3FFC3F0000000000000000EB
:10474000000000000000F83FF83F180018001800B3
:1047500018001800F81FF81F18001800180018009B
:1047600018001800180018000000000000000000E9
:10477000000000000000E00FF83F3C780E6006E00B
:1047800007C00300030003FE03FE03C007C006C00A
:104790000EC03CF0F83FE00F0000000000000000F9
:1047A0000000000000000C300C300C300C300C30DD
:1047B0000C300C30FC3FFC3F0C300C300C300C301B
:1047C0000C300C300C300C300000000000000000F9
:1047D0000000000000008001800180018001800154
:1047E00080018001800180018001800180018001C1
:1047F00080018001800180010000000000000000B5
:10480000000000000000000600060006000600068A
:104810000006000600060006000600060006180650
:1048200018063807F003E001000000000000000057
:1048300000000000000006300618060C06060603FD
:104840008601C60066007600DE008E0106030606BD
:10485000060C06180630066000000000000000008C
:1048600000000000000018001800180018001800D0
:104870001800180018001800180018001800180078
:1048800018001800F81FF81F0000000000000000CA
:104890000000000000000EE01EF01EF01EF036D8F2
:1048A00036D836D836D866CC66CC66CCC6C6C6C630
:1048B000C6C6C6C686C386C300000000000000004E
:1048C0000000000000000C301C303C303C306C30EC
:1048D0006C30CC30CC308C310C330C330C360C3685
:1048E0000C3C0C3C0C380C300000000000000000B8
:1048F000000000000000E007F81F1C380E70066082
:1049000003C003C003C003C003C003C003C00660EC
:104910000E701C38F81FE0070000000000000000C7
:10492000000000000000FC0FFC1F0C380C300C30A5
:104930000C300C300C18FC1FFC070C000C000C0099
:104940000C000C000C000C00000000000000000037
:10495000000000000000E007F81F1C380E70066021
:1049600003E003C003C003C003C003C007E0066345
:104970000E3F1C3CF83FE0F700C0000000000000C4
:10498000000000000000FE0FFE1F06380630063053
:1049900006300638FE1FFE0706030606060C06183C
:1049A0000618063006300660000000000000000017
:1049B000000000000000E003F80F1C0C0C180C189D
:1049C0000C001C00F803E00F001E00380630063013
:1049D0000E301C1CF80FE007000000000000000073
:1049E000000000000000FE7FFE7F8001800180014A
:1049F00080018001800180018001800180018001AF
:104A000080018001800180010000000000000000A2
:104A10000000000000000C300C300C300C300C306A
:104A20000C300C300C300C300C300C300C300C30A6
:104A30000C301818F81FE00700000000000000000C
:104A400000000000000003600630063006300C183D
:104A50000C180C18180C180C380E3006300670079D
:104A600060036003C001C0010000000000000000FE
:104A70000000000000000360C361C361C3616633CE
:104A8000663366336633663366336C1B6C1B6C1B94
:104A90002C1A3C1E380E380E0000000000000000EA
:104AA0000000000000000FE00C7018303018700C8F
:104AB000600EC00780038003C003E006700C301C4A
:104AC00018180C300E6007E0000000000000000025
:104AD00000000000000003C006600C301C383818CD
:104AE000300C6006E007C003800180018001800176
:104AF00080018001800180010000000000000000B2
:104B0000000000000000FC7FFC7F00600030001807
:104B1000000C000600038001C00060003000180097
:104B20000C000600FE7FFE7F000000000000000079
:104B3000000000000000E003E0036000600060008F
:104B40006000600060006000600060006000600065
:104B50006000600060006000600060006000E003D2
:104B6000E0030000000030003000600060006000E2
:104B7000C000C000C000C0018001800180010003AE
:104B80000003000300060006000000000000000013
:104B9000000000000000E003E00300030003000346
:104BA00000030003000300030003000300030003ED
:104BB0000003000300030003000300030003E003FD
:104BC000E003000000000000C001C00160036003BA
:104BD000600330063006180C180C000000000000BE
:104BE00000000000000000000000000000000000C5
:104BF00000000000000000000000000000000000B5
:104C000000000000000000000000000000000000A4
:104C1000000000000000FFFFFFFF00000000000098
:104C20000000000000000C000C000C000C000C0048
:104C30000C00000000000000000000000000000068
:104C40000000000000000000000000000000000064
:104C50000000000000000000000000000000000054
:104C6000F003F8071C0C0C0C000FF00FF80C0C0CE8
:104C70000C0C1C0FF80FF0180000000000000000E2
:104C800000000000000018001800180018001800AC
:104C9000D803F80F380C18181818181818181818FE
:104CA0001818380CF80FD8030000000000000000AE
:104CB00000000000000000000000000000000000F4
:104CC000C003F007300E180C180018001800180068
:104CD000180C300EF007C0030000000000000000B8
:104CE000000000000000001800180018001800184C
:104CF000C01BF01F301C181818181818181818188E
:104D00001818301CF01FC01B00000000000000003D
:104D10000000000000000000000000000000000093
:104D2000C003F00F300C1818F81FF81F18001800F7
:104D30003818301CF00FC007000000000000000011
:104D4000000000000000800FC00FC000C000C000C5
:104D5000F007F007C000C000C000C000C000C000E5
:104D6000C000C000C000C000000000000000000043
:104D70000000000000000000000000000000000033
:104D8000E00DF80F180E0C0C0C0C0C0C0C0C0C0C91
:104D90000C0C180EF80FE00D000C0C0C1C06F8079C
:104DA000F00100000000180018001800180018009A
:104DB000D807F80F381C18181818181818181818C9
:104DC0001818181818181818000000000000000023
:104DD000000000000000C000C00000000000000053
:104DE000C000C000C000C000C000C000C000C000C3
:104DF000C000C000C000C0000000000000000000B3
:104E0000000000000000C000C00000000000000022
:104E1000C000C000C000C000C000C000C000C00092
:104E2000C000C000C000C000C000C000C000F8004A
:104E30007800000000000C000C000C000C000C00BE
:104E40000C0C0C060C038C01CC006C00FC009C01CB
:104E50008C030C030C060C0C00000000000000008A
:104E6000000000000000C000C000C000C000C00082
:104E7000C000C000C000C000C000C000C000C00032
:104E8000C000C000C000C000000000000000000022
:104E90000000000000000000000000000000000012
:104EA0007C3CFF7EC7E383C183C183C183C183C1CF
:104EB00083C183C183C183C10000000000000000E2
:104EC00000000000000000000000000000000000E2
:104ED0009807F80F381C18181818181818181818E8
:104EE0001818181818181818000000000000000002
:104EF00000000000000000000000000000000000B2
:104F0000C003F00F300C18181818181818181818B3
:104F10001818300CF00FC003000000000000000063
:104F20000000000000000000000000000000000081
:104F3000D803F80F380C181818181818181818185B
:104F40001818380CF80FD8031800180018001800AB
:104F50001800000000000000000000000000000039
:104F6000C01BF01F301C181818181818181818181B
:104F70001818301CF01FC01B00180018001800186B
:104F80000018000000000000000000000000000009
:104F9000B007F00370003000300030003000300007
:104FA0003000300030003000000000000000000041
:104FB00000000000000000000000000000000000F1
:104FC000E003F003380E180C3800F003C007000CA3
:104FD000180C380EF007E00300000000000000008D
:104FE00000000000000000008000C000C000C00001
:104FF000F007F007C000C000C000C000C000C00043
:10500000C000C000C00780070000000000000000D2
:105010000000000000000000000000000000000090
:105020001818181818181818181818181818181800
:105030001818381CF01FE0190000000000000000E4
:105040000000000000000000000000000000000060
:105050000C18180C180C180C3006300630066003BB
:1050600060036003C001C0010000000000000000F8
:105070000000000000000000000000000000000030
:10508000C141C141C36163636363636336363636CE
:1050900036361C1C1C1C1C1C0000000000000000FC
:1050A0000000000000000000000000000000000000
:1050B0001C38381C300C600660036003600360031A
:1050C0006006300C381C1C38000000000000000096
:1050D00000000000000000000000000000000000D0
:1050E0001830301830187018600C600CE00CC006D6
:1050F000C00680038003800380018001C001F000AE
:10510000700000000000000000000000000000002F
:10511000FC1FFC1F000C000600038001C0006000A3
:1051200030001800FC1FFC1F000000000000000001
:1051300000000000000000038001C000C000C000AB
:10514000C000C000C000600060003000600040008F
:10515000C000C000C000C000C000C000800100034B
:1051600000000000000080018001800180018001BA
:105170008001800180018001800180018001800127
:105180008001800180018001800180018001800117
:105190008001000000006000C000C00180018001AB
:1051A000800180018001000300030006000300016C
:1051B000800180018001800180018001C0006000C9
:1051C00000000000000000000000000000000000DF
:1051D00000000000F010F81F080F000000000000A1
:1051E00000000000000000000000000000000000BF
:1051F00000000000010002000400060008000A0090
:105200000C0010002000400080000001010101039B
:105210000701000008040204080101010000000069
:105220000000000001020304060708090000000056
:105230000102030454520008000000204400000052
:105240000C3E00089852000844000020B4050000FD
:105250001C3E0008000000000000010101010000E8
:10526000000000000000000000000000000000003E
:105270000000000000000000000000000000FFFF30
:10528000000000FF1000000001000000000000000E
:085290000024F40000000000FE
:04000005080001D915
:00000001FF
